:020000040800F2
:100000000020002079600008952C0008972C00083B
:1000100000000000000000000000000000000000E0
:10002000000000000000000000000000992C000803
:1000300000000000000000009B2C00089D2C000820
:10004000C9600008C9600008C9600008C9600008EC
:10005000C9600008C9600008C9600008C9600008DC
:10006000C9600008C9600008C9600008C9600008CC
:10007000C9600008C9600008C9600008C9600008BC
:10008000C9600008C960000800000000C9600008DD
:10009000C9600008C9600008C9600008C96000089C
:1000A000C9600008C9600008C9600008C96000088C
:1000B000C960000800000000C960000800000000DE
:1000C00010B5064C2378002B07D1054B002B02D02E
:1000D000044800E000BF0123237010BD3000002061
:1000E0000000000060610008044B10B5002B03D035
:1000F0000349044800E000BF10BDC04600000000F6
:10010000340000206061000802B4714649084900CB
:10011000095649008E4402BC7047C04602B471467D
:1001200049084900095C49008E4402BC7047C0463A
:10013000002243088B4274D303098B425FD3030A26
:100140008B4244D3030B8B4228D3030C8B420DD339
:10015000FF22090212BA030C8B4202D312120902C7
:1001600065D0030B8B4219D300E0090AC30B8B4205
:1001700001D3CB03C01A5241830B8B4201D38B03B3
:10018000C01A5241430B8B4201D34B03C01A524158
:10019000030B8B4201D30B03C01A5241C30A8B429B
:1001A00001D3CB02C01A5241830A8B4201D38B0286
:1001B000C01A5241430A8B4201D34B02C01A52412A
:1001C000030A8B4201D30B02C01A5241CDD2C3099C
:1001D0008B4201D3CB01C01A524183098B4201D318
:1001E0008B01C01A524143098B4201D34B01C01A03
:1001F000524103098B4201D30B01C01A5241C3087B
:100200008B4201D3CB00C01A524183088B4201D3E9
:100210008B00C01A524143088B4201D34B00C01AD5
:100220005241411A00D20146524110467047FFE741
:1002300001B5002000F0F0F802BDC0460029F7D05B
:1002400076E7704703460B437FD4002243088B4276
:1002500074D303098B425FD3030A8B4244D3030B4D
:100260008B4228D3030C8B420DD3FF22090212BA12
:10027000030C8B4202D31212090265D0030B8B428E
:1002800019D300E0090AC30B8B4201D3CB03C01A78
:100290005241830B8B4201D38B03C01A5241430B53
:1002A0008B4201D34B03C01A5241030B8B4201D343
:1002B0000B03C01A5241C30A8B4201D3CB02C01AAE
:1002C0005241830A8B4201D38B02C01A5241430A26
:1002D0008B4201D34B02C01A5241030A8B4201D315
:1002E0000B02C01A5241CDD2C3098B4201D3CB01BC
:1002F000C01A524183098B4201D38B01C01A52416B
:1003000043098B4201D34B01C01A524103098B426E
:1003100001D30B01C01A5241C3088B4201D3CB0059
:10032000C01A524183088B4201D38B00C01A52413C
:1003300043088B4201D34B00C01A5241411A00D2EC
:1003400001465241104670475DE0CA0F00D0494255
:10035000031000D34042534000229C4603098B42C5
:100360002DD3030A8B4212D3FC22890112BA030A4D
:100370008B420CD3890192118B4208D389019211CF
:100380008B4204D389013AD0921100E08909C30954
:100390008B4201D3CB01C01A524183098B4201D356
:1003A0008B01C01A524143098B4201D34B01C01A41
:1003B000524103098B4201D30B01C01A5241C308B9
:1003C0008B4201D3CB00C01A524183088B4201D328
:1003D0008B00C01A5241D9D243088B4201D34B0043
:1003E000C01A5241411A00D20146634652415B1085
:1003F000104601D34042002B00D549427047634666
:100400005B1000D3404201B5002000F005F802BDAA
:100410000029F8D016E770477047C046D0400B1C43
:10042000D1409C46203AD340184352426346934001
:1004300018437047F0B5CE46474615042D0C2E00E4
:1004400080B50704140C3F0C9946030C7E435D43B2
:10045000674363437F19340CE4199C46A54203D9D2
:1004600080235B029846C4444B4643435143250CCA
:1004700036046544360C2404A4195B19591820006D
:100480000CBC90469946F0BD70B500220C4B0400A0
:100490000D0000F075FE002804D12000290000F0B6
:1004A000CBFD70BD064B00222000290000F07CFA35
:1004B00000F0C2FD80231B069C466044F1E7C04665
:1004C0000000E041F0B55746DE464E464546E0B5F1
:1004D000834606000F03480087B092461D003F0B7D
:1004E000400DCC0F002800D16FE0DE4B984238D091
:1004F0008023FF001B041F43730F3B430193DA4B20
:100500000027994600239B46F60081442B0369008F
:100510001B0B52469846490DED0F002900D185E08E
:10052000D04B994200D173E04346DA0080231B048C
:1005300013435246CC48520F844613435246002080
:100540006144D20089442100694000918C46012118
:1005500049448A460F2F00D990E0C449BF00CF59C3
:10056000BF465B463B43019300D06AE10223082764
:10057000002681469B46C9E732005846019B6146EA
:100580000091022800D175E0032800D1FEE1012886
:1005900000D02CE100230027002600253F032A0D70
:1005A0003F0BB34812053A4302401B051343009A20
:1005B0005B00D1075B080B433000190007B03CBC5F
:1005C00090469946A246AB46F0BD5B463B4301933D
:1005D00000D12FE1002F00D1A5E1380000F0DAFDB5
:1005E00003000B3B1C2B00DD96E11D22D31A5A465B
:1005F0000100DA405E4608398F4013008E403B43CD
:1006000001939C4B00271B1A994600239B467DE7CC
:10061000414653460B4393498C46E144002B00D09E
:100620001AE102220220174300228CE7134300D173
:100630000DE14346002B00D181E1404600F0AAFDC8
:1006400002000B3A1C2A00DD72E101004346083922
:100650008B4098461D239A1A5346D3401A004346AE
:10066000134352468A404946081A824989468144C2
:10067000002068E77B4B002700268EE7140C12044D
:10068000120C1100370C3604350C794328008C46C7
:100690002E0060436044834656432100300C804660
:1006A0005846794340440291844506D988468021C2
:1006B00049028C46E044414602913604010C360C56
:1006C00000048B4681191E0C1B041B0C039119009E
:1006D00079438C46280075436544A8465843050C69
:1006E00045447743A94203D9802149028C46674497
:1006F000290C8C4639000004000C2D042D1861448F
:10070000AB4405915946049101990F043F0C080C24
:10071000390051434243904602008C46090C8B46F7
:1007200062437C4344445C44A04503D98021490290
:1007300088464244210C884661460904090C8C46CF
:1007400039005943434370437E430F0CF618240489
:10075000BE19644442448C46B34203D980235B02F1
:1007600098464044029B61469846049B37044344A4
:100770009B46AB45AD416B420D0405992D0C8C4653
:100780007F196744FD18A8465D462D19A542A4416E
:1007900093466442A446C344DC448F42BF4198451B
:1007A0009B4193459241A445A4415B427F421F4334
:1007B000360C52426442BF192243BF1862463818B1
:1007C0004302D20D039913436A020A43501E824129
:1007D0006146ED0D2A434E023243D90100D4B3E005
:1007E0000126500832400243DE0732435B08224CA8
:1007F0005444002C62DD510709D00F20104004281A
:1008000005D0101D9042924152429B180200D9011E
:1008100004D580241948E400034054441848844215
:1008200000DD27E75E075B02D2081F0B6305164356
:100830005B0DB2E6002399460133042700269B4650
:1008400064E60323019781460C279B465EE601225E
:1008500001201743002276E6032303201F4343466B
:1008600071E6C046FF07000001FCFFFF9C61000825
:10087000FFFF0F800DFCFFFFFF030000FFFFFFFEE7
:10088000FE0700000023802700933F030026434B10
:1008900083E6019B3200A446584670E6AC466EE6FD
:1008A000802701993F0339422DD03B422BD11F4372
:1008B0003F033F0B00951600384B6EE601252D1BBC
:1008C000382D00DD66E61F2D40DC35481C00504405
:1008D000160082408440EE40501E8241344314434F
:1008E000EB40620709D00F222240042A05D02200E3
:1008F000141D9442804140421B181A023ED5012328
:100900000027002649E68027019B3F031F433F0342
:100910003F0B0094214B40E603005A46283B9A4087
:10092000002601926DE6584600F034FC203057E670
:1009300003005246283B9A401300002293E650469B
:1009400000F028FC20307BE6CA4650E71F201E003E
:100950004042041BE640202D03D0124C5444A340D7
:100960001A43501E8241324307260027164009D001
:100970000F200023104014000428B9D122005E0784
:100980005B021F0BD2081643002306E680273F03B5
:100990001F433F033F0B1600004BFEE5FF0700001F
:1009A0001E0400003E040000F8B557464E4645467A
:1009B000DE460C000903E0B5490A460F5F003143EB
:1009C0001E03DB0F760A9B46530F3343C84E650068
:1009D000C000E40FD2006D0DA24681467F0D9C46FB
:1009E0009046B74200D1B9E05B46012673409B4672
:1009F000EE1BA34500D183E0002E63DD002F00D065
:100A0000B1E06346134300D123E1731E002B00D0F5
:100A1000BAE1861A6346B04280410125C91A4042B4
:100A2000091A0B0200D447E149024B0A9846434693
:100A3000002B00D189E1404600F0ACFB0300083BED
:100A40001F2B00DD7CE120223000D21A4146D0402D
:100A5000994002009E400A439D4200DD6AE15D1B11
:100A60006B1C1F2B00DD94E1202110003500C91AFA
:100A70008E40DA408840DD40711E8E411100072211
:100A80002843002506433240002A09D00F23334073
:100A9000042B05D0331DB342B641764289191E009E
:100AA0000B0200D43DE26A1C914B55056D0D9A4234
:100AB00000D119E18F4AF6080A405707520237431E
:100AC000120B9BE0002E00D0C5E06E1C7605760D63
:100AD000012E00DC48E16746861ACB1BB042BF41BD
:100AE0007F42B8461F004346FF1A3B00B8461B0230
:100AF00000D55FE137439AD100220024002579E038
:100B0000002E00DCFAE0002F00D18DE0784B9D42F2
:100B100067D0802367461B041F43BC46382E00DC89
:100B200052E1634613435A1E93411E188642804188
:100B3000404209180B0200D4BEE06D4B01359D42C6
:100B400000D1D2E06B4A73080A4001210E401E43D7
:100B50005108D30707221E43324095E71E00164373
:100B600000D045E740E7624B9D423AD0802367467C
:100B70001B041F43BC46382E00DDEBE01F2E00DCBB
:100B80003AE133006746203BDF403B00202E05D092
:100B90004027BF1B6646BE40324390464646721E03
:100BA00096413343DAE0002B00D114E2634613434D
:100BB00000D168E180234E07C008C9081B03064323
:100BC000194208D06046C008184204D163460100AB
:100BD000D2085E071643F3009946C900720F444DD0
:100BE00011434B46DE08424B4F073743CA089D422C
:100BF00000D16EE012036D05120B6D0D0021120382
:100C0000130B0A0D12051A433B4B2D0513402B43C2
:100C10005B00E4075B082343380019003CBC9046A6
:100C20009946A246AB46F8BD6346134311D0731EE6
:100C3000002B00D007E18618864280416144404283
:100C4000091801250B0237D502257BE73E006146D6
:100C500091463500C5E75C46002D00D0E1E00B0071
:100C60000343F3D0731C00D1ACE1214B9F4200D170
:100C70003AE1F343382B00DD6FE11F2B00DD8CE1FF
:100C800020250E00ED1AAE40B0460600AA46DE4012
:100C9000454635432E005546D940A8406346451E7B
:100CA000A8415B1A9C463043161AB24292416346F1
:100CB0005242991A3D00B4E607223240002A00D081
:100CC000E4E60B4BF6084F073743CA089D4200D0B5
:100CD00090E73B00134300D1A6E180231B031A4396
:100CE0001203120B024D89E715000022002785E749
:100CF000FF070000FFFF7FFFFFFF0F80002E00D0E7
:100D0000C7E06B1C5E05760D012E00DCF0E0C84DDF
:100D1000AB4200D1B9E085180A008542894162449E
:100D2000494251180722CE076D082E434908324028
:100D30001D00A9E6BF49ED1A114007223240A3E683
:100D4000320028388240002686E6300000F022FA81
:100D5000203073E6634613435A1E9341C61AB042CD
:100D600080414042091A5CE60E006746064317437D
:100D7000002D5ED1002E00D0F3E0002F00D11EE147
:100D80005C46614691462CE7A94FBE427BD01E00CF
:100D9000F1E610001F3DE840202B03D04021CB1A84
:100DA0009A401643731E9E4107220643324000219B
:100DB000002583E7161A6346B2428041591A404221
:100DC0000B1A98465C4632E61F2E00DDABE020276A
:100DD000BB1B9A4663465746BB40994613004F4695
:100DE000F3401F433B005746BA40571EBA411343D6
:100DF0006246F240891898E62027BB1B9A46634654
:100E00005746BB40994613004F46F3401F433B00F3
:100E10005746BA40571EBA4113436246F240891AF8
:100E20009CE7834B9F425FD080252D04734229436A
:100E300020E7002E0CD1002F00D1D0E05C466146A7
:100E400091467B4DCDE67A4FBE421CD01E0065E632
:100E5000002F18D0C0084E0706438020C9080003A1
:100E6000014208D06346DC08044204D12100DA467E
:100E7000D2085E071643F300994601245346C90081
:100E8000720F11431C406A4DABE61D000022002783
:100E9000B4E6002D59D10B00034300D1D6E6731CF4
:100EA00000D1B2E0624B9F421ED0F343382B6FDC7F
:100EB0001F2B00DD97E020250E00ED1AAE40B04656
:100EC0000600AA46DE40454635432E005546A8405A
:100ED000D940451EA8418C440643B618964292411B
:100EE000514261443D0025E63D006146914678E669
:100EF0000B000343002D00D055E6002BF5D06346D0
:100F0000134300D16DE68618864280416144404219
:100F1000091800220B0200D4D0E6464B01351940D7
:100F2000B2E5B1465DE633006746203BDF403B005B
:100F3000202E05D04027BF1B6646BE403243904658
:100F40004646721E96413343EFE5394B9F42CBD064
:100F500080252D0473422943A8E70843411E884198
:100F6000A2E6002F00D13CE66346861ACF1AB042B3
:100F70009B415B42FB1A98461B024ED5161A6346EC
:100F8000B2429241591A5242891A5C4600227BE5CC
:100F900001430E00711E8E419FE71D000E00203D93
:100FA000EE40B046202B04D04025EB1A9940084370
:100FB000814648464346411E8841184374E6002254
:100FC000002417E6161A6346B2429241591A524259
:100FD000891A3D0025E561469146154D01E68022BE
:100FE0000024120379E61D000E00203DEE40B046BD
:100FF000202B04D04025EB1A9940084381464E46E9
:101000004346711E8E411E4367E7861896429B41F8
:1010100061445B42C9183D008CE547463743CED05A
:1010200007224146324049E600273A00E6E5C0463D
:10103000FF070000FFFF7FFF30B5144D0A034B0090
:10104000120B5B0DC90F0024AB4211DD104CA34203
:1010500010DC8024640322430E4CE41A1F2C0CDDA8
:101060000D48C31ADA4013005C42002900D11C006D
:10107000200030BD094BCC18FAE7094DE040AC46E2
:1010800063449A4013000343EEE7C046FE030000AA
:101090001D0400003304000013040000FFFFFF7F65
:1010A000EDFBFFFF70B500282DD0C317C5185D40BC
:1010B000C40F280000F06EF8154B1B1A5B055B0D82
:1010C0000A2815DD0B38854000222D032D0B002149
:1010D00010002D030A0D2D0B12052A430D4D1B0583
:1010E0002A4013435B00E4075B082343190070BDEB
:1010F00002002900153291400A000B21081AC54050
:101100002D032D0BE3E70024002300250022DEE75A
:101110001E040000FFFF0F808446101C62468C46B0
:10112000191C634600E0C0461FB500F0F1F8002826
:1011300001D40021C8421FBD10B500F049F840425B
:10114000013010BD10B500F0E3F8002801DB0020ED
:1011500010BD012010BDC04610B500F0D9F8002820
:1011600001DD002010BD012010BDC04610B500F00B
:101170006BF8002801DC002010BD012010BDC04626
:1011800010B500F061F8002801DA002010BD012040
:1011900010BDC0461C2101231B04984201D3000C42
:1011A00010391B0A984201D3000A08391B099842DA
:1011B00001D30009043902A2105C40187047C046F0
:1011C0000403020201010101000000000000000010
:1011D000F0B54F464646D6468446C0B58046194EC1
:1011E00018030F034D00000B5C0082463F0B6D0D92
:1011F000C90F9146640DDB0F0120B5420AD0B442FD
:1012000003D0A54201D157450CD01CBC904699464D
:10121000A246F0BD66463E43F7D1AC42F5D15446F6
:101220001443F2D10120C845EFD1994207D0002DD7
:10123000EBD163461F433800471EB841E5E7002065
:10124000E3E7C046FF070000F0B54F464646D646E6
:101250004D00C0B50E03C90F8A462C491F035C0020
:101260008046360B6D0D91463F0B640DDB0F8D42B2
:101270001ED08C4216D0002D1ED130438446002C47
:1012800001D13A4323D06246002A1AD09A4529D088
:10129000514602200139084001381CBC904699464D
:1012A000A246F0BD39001143E5D002204042F4E7E8
:1012B0003043FAD1AC420FD0002C0FD13A43E7D0E3
:1012C0000CE00122013B934318000130E5E763463F
:1012D0000020002BE1D0DBE73A43E6D19A45D7D195
:1012E000A542D5DCA54205DBBE42D1D808D00020FE
:1012F000BE42D2D250460123013898430130CCE798
:10130000C845C5D80020C845F4D3C6E7FF0700008C
:10131000F0B54F464646D6464D00C0B50E03C90F40
:101320008A462E491F035C008046360B6D0D9146A0
:101330003F0B640DDB0F8D4218D08C4211D0002D75
:1013400018D130438446002C1ED13A431CD1634649
:101350000020002B30D051460220013908400138CE
:101360002AE039001143EAD0022025E03043FBD1C6
:10137000AC4226D0002C26D13A4324D1514602203B
:1013800001390840013817E06246002A0FD09A451B
:10139000E1D1A54205DBBE42DDD819D00020BE4216
:1013A0000AD25046012301389843013004E001225B
:1013B000013B9343180001301CBC90469946A2465D
:1013C000F0BD3A43D0D19A45C5D1A542C3DCE0E790
:1013D000C845C0D80020C845E3D3EDE7FF070000AB
:1013E00010B5040001F040F8FA218900FEF7A0FED4
:1013F00000F060F8012000222100404200F030F8A7
:10140000002010BD1023064A10B5116800200B43C0
:101410001360FFF7E5FF01F0C3FB002010BDC046DD
:1014200000200240024A1368013313607047C0462F
:1014300058000020014B18687047C0465800002033
:1014400037B50190FFF7F6FF019C0500631C5A1E9B
:101450009341E418FFF7EEFF401BA042FAD337BDDB
:1014600030B5FF2503242A00C3B21C40E400A2408B
:1014700089012940D243A14000280BDA0F20034004
:10148000083B0A489B089B001B18D869024011437F
:10149000D96130BD064B80088000C018C0239B0076
:1014A000C45822401143C150F3E7C04600ED00E0AC
:1014B00000E100E0094A431E012093420DD8C021FB
:1014C000074A08485360036A09061B021B0A0B43BC
:1014D000036200200723906013607047FFFFFF0046
:1014E00010E000E000ED00E010B504000120002C49
:1014F0000DD02379DBB2002B03D16371200001F002
:1015000067FB022300202371013B2061237110BD82
:1015100013B50024006801940190A14207D10199FC
:1015200008318A180192019A0020136016BD0199B2
:101530001431F6E7022330B5457904001800012D77
:1015400010D03C309040256823712B6883431800ED
:101550000B6849680B43934003432B600020012331
:101560006071237130BD022230B544790300100050
:10157000012C16D0013804008C401A711A68587179
:1015800015682C431460002907D13C2411682140C0
:10159000A14202D1516808435060012200201A7113
:1015A000587130BD10210C4B30B5D868002208426C
:1015B00005D00A480232C4692243C2610A000420ED
:1015C000D968014205D00121044C0243E569294351
:1015D000E161DA6030BDC0460020024060000020BA
:1015E000054B01201A69120604D50020034A5A60EF
:1015F000034A5A607047C0460020024023016745F5
:10160000AB89EFCD8023034A002011690B4313619E
:101610007047C0460020024070B50400FFF70AFF83
:1016200001250600104B1A00D96829420FD120214C
:10163000D868084200D0D9601023D068184002D181
:10164000D3685B0708D5FFF7ADFF012004E0611CFC
:10165000EAD0002C01D1032070BDFFF7EBFE801B08
:10166000A042DFD9F7E7C04600200240F0B585B0C0
:10167000029203931B4B01911A7E04000220012A5F
:101680002ED0012218481A76FFF7C6FF002824D171
:101690002600012C02D0022C00D00426002402983F
:1016A00003992201FEF7BAFE002201270D4B0F4DD0
:1016B000DA612B69019A3B432B6163009B1880B26E
:1016C00018800948FFF7A8FF2B69BB432B6100284E
:1016D00003D1E419E3B29E42E1D80022014B1A760D
:1016E00005B0F0BD6000002050C3000000200240A3
:1016F0000022064BDA61064B043219690A431A616B
:10170000402219690A431A617047C04660000020F0
:10171000002002400022064BDA61064B02321969B2
:101720000A431A614022586119690A431A617047D5
:101730006000002000200240F8B5214E0500337EF5
:101740000F000220012B0CD0012333762B681D489B
:10175000012B12D1FFF760FF002803D001200023E6
:101760003376F8BDFFF7C4FF1648FFF755FF042195
:10177000154A13698B431361F1E7FFF74DFF00280A
:10178000ECD101235B423B606C680130AB686A6856
:101790009B029B18A342E2D92000FFF7BBFF094838
:1017A000FFF73AFF0221084A13698B4313610028AF
:1017B00001D03C60D3E78023DB00E418E6E7C046B5
:1017C0006000002050C3000000200240F0B50B680C
:1017D00087B0039300230191039ADA4001D107B047
:1017E000F0BD01229A4002920299039A0A400092A7
:1017F00000D18CE0019A1021526816008E43022E0F
:101800000ED107251D40AD000139A940DC08A40018
:101810000419276A8F4301990969A9400F43276278
:1018200003245F00BC40E4430568013E2540AC460C
:1018300003251540BD4061460D430560012E0FD8BC
:1018400001998668CD682640BD403543856046686D
:10185000029915098E4301210D409D403543456095
:10186000C56801992C408D688021BD4049052C43F5
:10187000C4600A424BD00121264C0326A5691E40B4
:101880000D43A561A4699D080C400594059C0F2497
:101890002149AD00B6006D18B4409021AF68C9056C
:1018A000A743002488420CD01C490134884208D048
:1018B0001B490134884204D01A490334884200D1BC
:1018C000023CB44000993C430E00AC60164CCD4342
:1018D00027683E43D10301D43E002E40266067684E
:1018E000009E3E43910301D43E002E406660A768EF
:1018F000009E3E43D10201D43E002E40A660E66821
:10190000009F3743920201D42E403700E760013335
:1019100062E7C04600100240000001400004004899
:1019200000080048000C004800040140002A01D0D3
:10193000816170478162FCE703689A69920701D56B
:1019400000229A6201229969114202D199690A43DF
:101950009A617047006830B54568064C12042C4007
:10196000039D89052B431A43890D0A432243426094
:1019700030BDC046009800FCF8B504000E0017000A
:101980001D002268936933409B1B59424B41BB4267
:1019900001D000200EE06B1CF4D0002D0BD12300F1
:1019A000202241331A7022000023032042324034A7
:1019B00013702370F8BDFFF73DFD069BC01AA842C7
:1019C000DFD9ECE7F8B503680400986910230E002E
:1019D000170018402025002815D1F8BD721C13D01F
:1019E000002E04D0FFF726FDC01B86420BD2230039
:1019F000202241331A7022000023423240341370F7
:101A000003202370E9E723689A692A42E6D010226E
:101A10002000DA61DD61FFF78FFF22680849536813
:101A200001200B40536004236364230022004133F0
:101A30001D7000234232403413702370CDE7C0463E
:101A400000E800FEF8B504000D0016000227236828
:101A50009B693B4201D0002018E0320029002000A1
:101A6000FFF7B0FF002818D16B1CF0D0002D0ED16D
:101A70002022636C032013436364230041331A70F4
:101A8000220000234232403413702370F8BDFFF768
:101A9000D1FC801BA842DAD9EAE70120F6E7000072
:101AA000F8B504000D0017002026042223689B6966
:101AB000134201D0002025E03A0029002000FFF762
:101AC00081FF00280FD123689A6932420DD0DE6170
:101AD0005A6810490A405A60230060644133403418
:101AE0001E705870207001200CE0002D0BD12022B8
:101AF000636C032013436364230041331A70002393
:101B000040342370F8BDFFF795FCC01BA842CCD928
:101B1000EDE7C04600E800FEF8B504000D00160031
:101B2000202723689B693B4201D0002016E0320049
:101B300029002000FFF746FF002816D1002D0ED106
:101B40002022636C032013436364230041331A7023
:101B5000220000234232403413702370F8BDFFF797
:101B600069FC801BA842DCD9EAE70120F6E7000007
:101B700070B504000120002C3FD0250041352B78A2
:101B8000DBB2002B05D1220040321370200001F09F
:101B90004DF8242301212B702368E0681A68A66899
:101BA0008A431A6061681A4A0A401A619968194A98
:101BB00011409960012821D18021090231439960A7
:101BC0005868154901435960D96800200A40DA6015
:101BD000616922690A43A16909020A43DA60216A3C
:101BE000E2690A431A60012219680A431A60202335
:101BF00060642B7020634234207070BD8421090220
:101C0000314399600228DBD1802109015960D7E76F
:101C1000FFFFFFF0FF7FFFFF00800002F0B505002F
:101C200087B003910492059341352B78040002207C
:101C3000202B56D1230040331A78012A51D0012697
:101C40001E70FFF7F7FB8021070000901923320078
:101C500009022000FFF790FE002841D121232B70BC
:101C6000113BAD192B70049B60646362059B60633C
:101C700063858023628D9B01FF2A21D9FF22228563
:101C8000009380235B0403992000FFF763FEFF2687
:101C9000638D3A000C992000002B19D1FFF73CFF0F
:101CA000002819D120212368274ED9615A68324073
:101CB0005A6023004034413319702870207010E0BE
:101CC000628D92B2228500938023D2B29B04DAE720
:101CD000FFF7B8FE002806D0636C0120042B00D06B
:101CE000032007B0F0BD636A5A1C62621B78226849
:101CF0009362638D228D013B013A9BB292B2638560
:101D00002285002AC4D1638D002BC1D000970C9B83
:101D100080212000FFF730FE0028E1D1638DFF2BEA
:101D200009D98023FF2226855B04009003992000B7
:101D3000FFF710FEACE78023628D9B0492B22285F0
:101D4000D2B20090F2E7C04600E800FEF0B5050010
:101D500087B003910492059341352B78040002204B
:101D6000202B56D1230040331A78012A51D0012666
:101D70001E70FFF75FFB80210700009019233200DF
:101D800009022000FFF7F8FD002841D122232B7023
:101D9000123BAD192B70049B60646362059B60630A
:101DA00063859023628D9B01FF2A21D9FF22228522
:101DB000009380235B0403992000FFF7CBFDFF26EF
:101DC000638D3A000C992000002B19D1FFF7A4FE77
:101DD000002819D120212368274ED9615A68324042
:101DE0005A6023004034413319702870207010E08D
:101DF000628D92B2228500938023D2B29B04DAE7EF
:101E0000FFF74EFE002806D0636C0120042B00D0A3
:101E1000032007B0F0BD23685A6A636A591C6162E7
:101E20001A70228D638D013A013B92B29BB22285DA
:101E30006385002AC4D1638D002BC1D000970C9B11
:101E400080212000FFF798FD0028E1D1638DFF2B52
:101E500009D98023FF2226855B0400900399200086
:101E6000FFF778FDACE78023628D9B0492B2228558
:101E7000D2B20090F2E7C04600E800FEF0B50400E0
:101E8000413422780300D2B20220202A18D11D004A
:101E900040352E78012E13D01B68223020701E682A
:101EA000233886431E601E68064F3E401E601E6833
:101EB00031431960196808431860002022702870A7
:101EC000F0BDC046FFEFFFFFF0B5050041352A78B1
:101ED0000300D2B20220202A17D11C0040342678F9
:101EE000012E12D01B68223028701E6823388643CA
:101EF0001E601E68054F09023E4031431960196893
:101F00000843186000202A702070F0BDFFF0FFFF2A
:101F1000F0B5036885B00500DB072FD42B689B075D
:101F200000D581E02B681B0700D5BCE02B685B0760
:101F300000D5DFE02B68DB061AD56A69B54C0423AF
:101F4000012A00D04BE1616B02260B436363636B94
:101F50001A436263FFF76EFA0700636B334200D1E6
:101F600036E1F821626BAB698A43DB00134363639C
:101F7000296A002900D059E1002013E00C21A54C6A
:101F800062680A40042A06D063680B40082B0BD114
:101F90006368DB0308D523689B03BFD56B68002B00
:101FA000BCD1012005B0F0BD6B68012B13D180239B
:101FB00022685B0213432360FFF73CFA8026070088
:101FC000B60223683342A9D1FFF734FAC01B642854
:101FD000F7D90320E6E7002B16D123688E4A802626
:101FE0001340236023688D4AB60213402360FFF735
:101FF00021FA07002368334200D18FE7FFF71AFA6E
:10200000C01B6428F6D9E4E7052B05D1802322689C
:10201000DB0213432360CAE723687F4A134023602F
:1020200023687E4A1340C6E70C227A4C6368134249
:1020300006D063681340082B10D16368DB030DD40E
:1020400023689B0702D5EB68012BAAD1F8212268EF
:102050002B698A43DB001343236063E7EA680123AB
:10206000002A0FD02268022613432360FFF7E2F90B
:10207000070023683342E9D1FFF7DCF9C01B0228CF
:10208000F7D9A6E7226802269A432260FFF7D2F921
:1020900007002368334200D144E7FFF7CBF9C01BA8
:1020A0000228F6D995E7EA6901235A4C002A10D094
:1020B000626A022613436362FFF7BCF90700636A92
:1020C000334200D032E7FFF7B5F9C01B0228F6D93A
:1020D0007FE7626A02269A436262FFF7ABF9070064
:1020E000636A334200D121E7FFF7A4F9C01B02283D
:1020F000F6D96EE780220021464C5205E369009133
:10210000134208D1E3691343E361E3691340039386
:10211000039B012300938027414E7F0033683B429D
:1021200006D0AB68012B13D1226A1343236230E03F
:1021300033683B433360FFF77DF9019033683B42DE
:10214000EFD1FFF777F9019BC01A6428F6D940E771
:102150000122002B14D1236A022793432362236AAE
:10216000033293432362FFF765F90600236A3B427B
:1021700025D0FFF75FF92B4B801B9842F6D928E753
:10218000052B0BD1216A013B0B432362236A1A43BF
:102190002262FFF74FF9022706000DE0236A9343FE
:1021A00004222362236A9343C0E7FFF743F91D4BE0
:1021B000801B984200D90CE7236A3B42F5D0009B74
:1021C000012B00D0B6E6E369174A1340E361B1E69C
:1021D000FFF730F9C01B022800D8BEE6F9E6053249
:1021E00003D1626B9A436263BBE6626B02261343C0
:1021F00001226363636B93436363FFF71BF907007B
:10220000636B334200D1B3E6FFF714F9C01B022819
:10221000F6D9DEE600100240FFFFFEFFFFFFFBFFE6
:102220000070004088130000FFFFFFEF0C22264CD7
:10223000012063681340082B00D1B3E62368234ACA
:102240001340236002292FD1FFF7F4F880260700FE
:10225000B6042368334221D10F22E36A9343EA6A2A
:102260001343E362696AAB6A62680B4318498025CD
:102270000A4013436360802322685B041343236096
:10228000FFF7D8F80600AD0423682B4200D073E6B0
:10229000FFF7D0F8801B0228F6D99AE6FFF7CAF8B4
:1022A000C01B0228D5D994E6FFF7C4F880250600A4
:1022B000AD0423682B4200D15EE6FFF7BBF8801B1C
:1022C0000228F6D985E6C04600100240FFFFFFFE57
:1022D000FFFFC2FF70B5144C88B010222100684681
:1022E00003F018FF210004AD10221031280003F084
:1022F00011FF0C220D4E73681A40082A11D10F20CD
:102300006A46990C0140545CF26A0240A95CDB0306
:1023100005D50748FDF70CFF604308B070BD0548C0
:10232000FAE70348F9E7C046786100080010024068
:1023300000127A0000093D00F7B50122444C060066
:1023400023680F0013408B421DD33268930724D4B7
:10235000D3072AD4012322681A40BA4268D83368C6
:102360003C4C5B0700D56BE0FFF7B4FF63683A4A6B
:102370001B061B0FD35CD840384B18600020FFF7BA
:102380002FF8002008E0236893430B432360236861
:1023900013408B42D9D00120FEBDF0202D494B685F
:1023A0008343B06803434B60D2E72A4D72682B68C1
:1023B000012A1AD19B03EED503216B688B4313438B
:1023C0006B60FFF737F873680190012B15D10C2271
:1023D0006B681340042BBDD0FFF72CF8019BC01A8B
:1023E0001F4B9842F3D90320D6E7022A02D19B0162
:1023F000E2D4D0E79B07DFD4CDE7022B12D00C222A
:102400006B681342A6D0FFF715F8019BC01A144B56
:102410009842F4D9E7E7FFF70DF8019BC01A104B7B
:102420009842E0D80C226B681340082BF3D191E757
:1024300022689A43226022681A4200D18FE7AAE7F5
:102440006368084A1340F268134363608CE7C04630
:102450000020024000100240DE6100080800002059
:1024600088130000FFF8FFFF014B18687047C04653
:1024700008000020F0B5036885B00500DB0328D50F
:10248000802200213B4C5205E3690091134208D1A0
:10249000E3691343E361E36913400393039B01235F
:1024A00000938027344E7F0033683B422FD0C022F8
:1024B000236A92001340314E3BD1236A1E406B6861
:1024C0001E43009B2662012B03D1E3692C4A134073
:1024D000E3612A68D30706D5032026490B6B8343A3
:1024E000A86803430B63930606D5102021490B6BA4
:1024F0008343E86803430B630020530517D540214D
:102500001C4A136B8B4329690B4313630FE0336839
:102510003B433360FEF78EFF019033683B42C6D1E8
:10252000FEF788FF019BC01A6428F6D9032005B086
:10253000F0BD69680A409A42BFD08023226A206AAF
:1025400011005B0203432362236A0E4831400340BB
:1025500023622162D307B0D5FEF76CFF0700022289
:10256000236A1342A9D1FEF765FF074BC01B9842AF
:10257000F5D9DBE70010024000700040FFFCFFFFD0
:10258000FFFFFFEFFFFFFEFF881300001FB50123D1
:10259000039300230290694601A80193FFF7CCF84A
:1025A000002801D000F0FAFA05B000BD10B5FFF721
:1025B00029F8002801D000F0F1FA10BD02000368EC
:1025C00001CB1360704710B50A00040001680023B6
:1025D0000220FFF74BF8002801D000F0DFFA236853
:1025E0000433236010BD10B5FEF7FAFF002801D0B8
:1025F00000F0D4FA10BD70B5102696B02C22002140
:102600000BA803F090FD3200002101A803F08BFD20
:102610001422002105A803F086FDA0230224012531
:102620009B030AA80A94129414930D950E96FFF733
:102630006FFC072302940024290001A8019303944E
:102640000494FFF779FE202305A805930894FFF76B
:1026500011FF16B070BD0000F8B5154D07002B78BE
:102660000E00144C934218D2FEF7E4FE2368C01A01
:10267000B84211D910490B785A425A41D2B20A7065
:10268000002B02D02B7801332B7001210B48FFF770
:102690004DF9FEF7CFFE2060F8BDFEF7CBFE2368B4
:1026A000C01AB042F8D900232B702360F4E7C0466B
:1026B00054000020500000204E000020001400486C
:1026C0000D4B70B51B78002B15D00C4B0C4C0D4EE0
:1026D0003361FFF788FF2000FFF758FF0A4D2C6099
:1026E0000024A300F15828000134FFF76CFF052CEB
:1026F000F7D1FFF75BFF70BD4D0000207856341214
:1027000000C70008A404002040040020F0B5234BBB
:102710009DB01B7802AC224F224E632B09D82100BA
:10272000386801F084F83060002802D069231B4A21
:1027300013701D4DFF216B6838680193019BE37294
:10274000019B1B0A2373019B1B0C2371019B1B0E16
:102750006371AB680193019BA371019B1B0AE37139
:10276000019B1B0C2372019B1B0E6372EB68019390
:10277000019A019B0A401B0A0B402100A283E283BD
:10278000236101F00DF83060002802D06A23034A6B
:1027900013702A68054B1A701DB0F0BD4C00002064
:1027A00000000020BC040020A4040020040000203D
:1027B000012230B511009DB03848FFF7B7F8384C0A
:1027C000206800F076FD206800F08EFE354D286010
:1027D000002804D08D22344B1A701DB030BD33490F
:1027E000206800F045FB2860002802D02E4B8E2286
:1027F000F2E72821206800F06BFC2860002802D056
:10280000294B8F22E8E78C21206800F033FF2860F5
:10281000002802D0244B9022DEE78C21206801F0B2
:102820004FF82860002802D01F4B9122D4E702A95C
:10283000206800F0FCFF021E286002D01A4B922292
:10284000CAE7FF231A49086898430300194800782B
:1028500003430B6002A802AB00791B7B00041B0240
:10286000034302A8C07A034302A840790006034349
:102870004B6002ABDC881B8902A81B0423438B60DE
:10288000069B01931C24005F1B020343CB600121C4
:10289000094B02481970FFF749F89EE700140048F9
:1028A00000000020BC0400204C0000203075000017
:1028B000A4040020040000204D000020F8B50C4DB9
:1028C0000026286800F050FD0A4C2060B0420CD170
:1028D000094F2868390000F04DFD2060B04200D15A
:1028E0003E8B286800F0F0FC20603000F8BDC04648
:1028F00000000020BC0400202404002070B51A4C05
:102900002378632B16D8194E0221306800F06AFA3A
:10291000174D2860002801D06B2323702378632B88
:1029200008D81449306800F0A3FA2860002801D0C4
:102930006C2323702378632B15D80C4E3721306815
:1029400000F0C6FB0A4D2860002801D06D232370DB
:102950002378632B07D8306800F074FC28600028C7
:1029600001D06E23237070BD4C00002000000020B9
:10297000BC04002050C30000E82370B51B4D1C4A66
:1029800028689B00C25052221A4C083BC25423783C
:10299000632B07D800F01FFA174B1860002801D0EE
:1029A000662323702378632B13D8286800F0ECFB90
:1029B000114E3060002801D0672323702378632BE9
:1029C00007D8286800F000FB3060002801D0682399
:1029D00023700A4A0A4B12699A4204D1FFF796FE05
:1029E000FFF78CFF70BDFFF7E3FEF9E70000002062
:1029F000580400204C000020BC040020A404002047
:102A000078563412F0B589B0FEF7FCFCFFF7F3FD01
:102A10001422002103A803F086FB80204F4BC00343
:102A200059690024014359615A69012702408020F5
:102A30000092009A596980020143596180215A69C4
:102A4000C90202400192019A5A6945480A435A61F3
:102A50005B6900220B4002930121029BFEF766FF97
:102A600003A93F480397049705940694FEF7AEFE2A
:102A70000822210003A803F056FB3A4D3A4B2800E8
:102A80002B60FEF731FD220003A928000394049473
:102A9000FEF750FD354E364B30003360354BB46099
:102AA0007360F76034617461B461F4613462FFF79C
:102AB0005FF821003000FFF7E1F921003000FFF757
:102AC00003FA21002800FEF74EFDE82252212A4B8E
:102AD00092001B689E50083A9954284E284B336048
:102AE0003000FFF76BFD274AA3000134D050052CBE
:102AF000F6D1FFF741FFFFF7E3FD234EFFF7DEFEC0
:102B0000224F34003B78632B18D8FA22031C1201A1
:102B1000904201D91E4B1B8898B2FEF7C3FA1D4A9A
:102B20001D4BFDF7CFFCFDF7AFFC84B2A64205D0EC
:102B30000022230011002800FEF7EAFC3B78012266
:102B4000002B03D00222632B00D90322FA210A2092
:102B50008900FFF781FD2600D0E7C0460010024043
:102B60000014004844040020007400405804002071
:102B7000005400400E090020000000204004002006
:102B800000C70008A4040020FFFF00004C00002044
:102B9000DC610008E17A14AE4761F03F7047000045
:102BA00001200A4B82B099690143996180219A6999
:102BB000490502400092009ADA690A43DA61DB694A
:102BC0000B400193019B02B07047C04600100240C9
:102BD00010B5040088B01422002103A803F0A3FA62
:102BE000104B22689A421BD180200F4B8005D96977
:102BF0000143D9618021DA69890202400192019A78
:102C00005A6990200A435A615B69C0050B400293E0
:102C1000029B102303A903930D3B0493FEF7D6FDFB
:102C200008B010BD007400400010024010B5040050
:102C300088B01422002103A803F075FA124B226811
:102C40009A421FD18021114CC902626910480A437F
:102C50006261636903220B400193019BC0230393CC
:102C6000AE3B049303A9113B059306920793FEF72D
:102C7000ADFD8021E26989030A43E261E3690B400B
:102C80000293029B08B010BD0054004000100240A7
:102C9000000400487047FEE77047704710B5FEF724
:102CA000C1FB10BD0121114B11481A680A431A607B
:102CB0005A6802405A601A680E4802401A601A6840
:102CC0000D4802401A605A680C4802400F205A60B2
:102CD000DA6A8243DA621A6B094802401A635A6B55
:102CE0008A435A6300229A607047C046001002402F
:102CF0000CB8FFF8FFFFF6FEFFFFFBFFFFFFC0FF72
:102D0000ACFEFFFFF0B58BB005000C00059340272B
:102D1000032903D0203F082900D12037812107ABA8
:102D200049001980FF3999701F4908A801800821BE
:102D30001E4E817009A90E8026268E700026012A5B
:102D400003D0023A561EB241561C042C07D0082C60
:102D500028D0032C24D0082040420BB0F0BD9E5D4B
:102D600008AA00921222019102A9521828003100EB
:102D700001F092F80028F0D102AB5A8A059B31008D
:102D80000293099B28000193089B0093079B01F085
:102D9000C4F80028E1D1DF239B00AF70EC54DCE7DE
:102DA000865DDDE78E5DDBE7070600002425000079
:102DB00010B5002904D0012908D00420404204E0C5
:102DC000920B91B201F03CFA002010BD520A91B270
:102DD00001F041FAF8E7FA2110B5490003F003F9D0
:102DE00010BD0000DF23F0B59B00C35C87B00193EA
:102DF0004B1EDBB204000E00022B30D80D00022B5C
:102E000000D1032505A9200000F0C3FF002824D12C
:102E100002AB03AA04A92000676900F056FF00284E
:102E20001BD13B002A0001992000FFF76BFF00280F
:102E300013D10C4B039AE5540B4B0499E5540B4BFF
:102E40002000E654029B00F026FF002805D1029BDB
:102E500005A92361200000F089FF07B0F0BD042020
:102E60004042FAE77E0300007F0300007D0300007C
:102E7000F0B5394B87B004000D00994203D9042006
:102E8000404207B0F0BD6B469F1D3A00052100F09F
:102E900057FF0028F5D16B46DE1D320006212000C9
:102EA00000F04EFF0028ECD102AB03AA04A92000D9
:102EB00000F00BFF0028E4D1DF239B00E35C042B30
:102EC0000DD0082B2BD0032B3BD13B78012B3FD0CF
:102ED0003378012B3CD0214B0221214809E039787D
:102EE000012932D031781F4B01292FD0FA2001213E
:102EF00080008542C3D9281A9842C0D8FDF718F936
:102F0000039A030002900499200000F0C4FE0028F8
:102F1000B7D1029B2361E0239B00E550B1E705AAEE
:102F20001149200001F0C6FBF523059A1800002A7C
:102F300002DD53431800F5300C4B0221C018074B3B
:102F4000D7E7002D9BD008209AE7064B0848D0E72A
:102F5000024B02210748CCE780969800E0C8100099
:102F6000605400007064080036800000DC0D000032
:102F700088130000E8670000FA2370B59B00032265
:102F800004000D00FFF7BEFE002812D10A4B0B4AC9
:102F9000E252EB1E012B01D9082D0BD1084920006C
:102FA000FFF766FF002804D185212000C90000F04A
:102FB00051FE70BD0349F2E77E03000003030000E9
:102FC00028A0000035820000DE220323920010B505
:102FD000835420228270054A08218354044A835472
:102FE000044A8354FFF7C8FF10BDC0467F030000AA
:102FF0007E0300007D030000F0B589B002AB9F1D89
:10300000002302AA0191D61D0B603A00052105009C
:103010003B70337004930593069300F091FE041EF9
:1030200048D132000621280000F08AFE041E41D15A
:1030300005AB04AA06A9280000F047FE041E39D1FA
:10304000DF239B00EB5C042B0ED0082B1DD0032B41
:103050002ED13A78059B012A02D03278012A12D16A
:10306000164A9B185B000BE03B78059A012B05D0B4
:10307000FA2331789B00D318012901D1104BD318C2
:10308000019A136016E00F4AEBE707AA0E492800E1
:1030900001F010FBF522079B1100002B02DD5A43C3
:1030A00052181100059B094A5B009B185B18E7E763
:1030B00008246442200009B0F0BDC046F43300008B
:1030C00088130000302A000036800000DC0D00006C
:1030D00070B505000C008801FA218900FDF728F879
:1030E0000119280000F0B6FD70BD73B50E0001A9EE
:1030F00000F0BFFDFA21019C05008900A001FDF749
:1031000017F8241A3460280076BD70B504000E004C
:103110001500012915D80022954204D00B00E03398
:103120009B00C3189A6831002000FFF741FE002879
:1031300006D1E123A4199B00E4186B1E9D41257064
:1031400070BD04204042FBE770B505000C0016007E
:10315000012916D8E122431892009B1818780028FC
:1031600004D1E034A4002D19AE6070BD32002800F7
:10317000FFF71EFE0028F8D1E034A4002C19A66049
:10318000F3E704204042F0E770B50121040000F0AD
:10319000B1FF002822D1DE23012508229B00E5543F
:1031A0000433E25401002A002000FFF7AEFF00289C
:1031B00014D12A0029002000FFF7A7FF00280DD115
:1031C0009022010052032000FFF7BEFF002805D126
:1031D00080222900D2012000FFF7B6FF70BDF7B5AD
:1031E00005000C001600002904D0012919D0042084
:1031F000404215E06B469F1D390001F01BF83B88EB
:103200009B0300280CD122002C19E032002B0FD197
:103210009200AD18AB683360E1239B00E418207086
:10322000FEBD01AF390001F010F83B885B02E8E712
:103230009200AA1833609360E1239B00E4180123F5
:103240002370EDE7DE2337B59B00C35C0400DAB2E0
:10325000052A05D8042A01D2022A07D80E2003E045
:10326000623B0320012BF9D940421FE08578402DB5
:1032700011D16946FFF7C0FEFA2100988900FCF7DA
:1032800057FF01A900902000FFF72FFF009B019A34
:10329000043393420BD806222900200000F0E0FFFF
:1032A000002803D1DE2304229B00E2543EBD04200B
:1032B000DAE710B5040001F0C5F8002803D1DE23D9
:1032C00003229B00E25410BDF0B5254D254E425D12
:1032D000835D85B004009A423ED0694600F059FDF6
:1032E000002837D1DF239B00E75C02AA01AB03A9CA
:1032F0002000A65D00F0E9FC00282BD1200001F0A1
:10330000A1F8002826D1FA212000490002F026F970
:1033100000281FD16369320039002000FFF7F2FC5A
:10332000002817D1019B029A0399200000F0B3FCFA
:1033300000280FD1019B69462361200000F016FD93
:10334000002807D1A1780622200000F089FF00287C
:1033500000D1665505B0F0BD817801F0CAF8F9E7F3
:103360007E0300007F030000FA2110B5C90002F0BF
:1033700053FE10BDF0B50C000500A5B01C22FF21C6
:10338000200003AE02F0CFFE32000221280001F03F
:103390003DF9002800D093E0B37802AA2371B36806
:1033A000F778236046239B181A781F231A4002AB34
:1033B000009206333E229B5E009A01933223072A35
:1033C0001BD02C23019AFF339A422EDD3E495143F4
:1033D0003E48B38F43434808C018FCF7A9FE3C4B56
:1033E0000004984224D8181A000C322820D9031C53
:1033F000C0B2642800D96423DBB20199B28E218364
:1034000000215202E260B28A63712282338EB28F4F
:103410005B025202A3606261A1760D2F0ED009D823
:10342000013F022F08D8052106E0F0214903CFE72C
:103430003223E2E7112FF6D0E17600E0E776E17E75
:10344000002908D10099FF200439C9B20F2901D8F9
:103450002048405CE076E42189006A50E522920031
:10346000AB50002102AA2800FFF7B9FEE1239B0020
:10347000EA5C0023012A03D1009B063B5A425341D8
:10348000154A0121AB54280002AAFFF7A8FE134BEE
:103490000022EB5C012B03D1009B043B5A425A41B2
:1034A0000F4BEA54E37E002B09D11821625E002AFB
:1034B00005DA0C4949688A4204DA0E33E3760020C3
:1034C00025B0F0BD2383FAE79A190000CDCC300077
:1034D00033B37500EE610008860300008503000029
:1034E000870300000C000020F0B589B004005B49A0
:1034F000022201A802F00EFEDF239B00E55C6B4672
:103500002000D91C00F0B2FA002803D129002000C5
:10351000FFF732FD03001D3332D1200001F03EFDE4
:1035200000282DD1200001F047FD002828D1FA21E4
:10353000200002F013F8002822D10122484920007F
:1035400001F0A6FF00281BD105224649200001F00A
:103550009FFF002814D13221200001F0FFFF002836
:103560000ED1F0210122C900200001F091FF0028B6
:1035700006D104223C49200001F09CFF002869D0BC
:1035800009B0F0BD002821D132003849200001F0F7
:103590007FFF00281AD102003549200001F078FF92
:1035A000002813D10521200001F0D8FF00280DD1FB
:1035B00001222F49200001F06BFF002806D1F221E3
:1035C00004233A00C900200001F046FF0136F6B29C
:1035D00004372E2ED6D10028D2D101222449200032
:1035E00001F056FF0028CBD102001D49200001F058
:1035F0004FFF0028C4D1200001F0E3FC0028BFD118
:10360000200001F0C6FC0028BAD1022301AA14212F
:10361000200001F0FFFE0028B2D16B4626001B7986
:103620004236F3716B465B7906AA33720D2106238D
:10363000200001F0EFFE0028A2D12B7C33706B7CC0
:103640007370AB7CB370EB7CF3702B7D33716B7D4F
:10365000737195E702AF28263D0095E79861000851
:103660008107000083060000840700009407000023
:1036700083070000F0B5002603000500340058332E
:1036800046651E80454B91B007911C215A5E5969D1
:1036900003920BB2DA0FD2185210049393B25A1C51
:1036A0005B1812B21BB2059206930196039B002B86
:1036B00026DC019A33049B1B934253D2202464429C
:1036C00068E02800FFF750FE041E14D109A9280065
:1036D000FFF750FE041E0ED108ABDB7F002B06D196
:1036E00008AB1C229B5E019A0137D3180193280076
:1036F000FFF7EAFD0400029B0133DBB202931AE0FC
:10370000002CD6D12800FFF79DFD00270400B84209
:103710001AD12800FFF728FE0400B84214D109A9E5
:103720002800FFF727FE0400B8420DD12800FFF75C
:10373000CBFD04000297002C06D1049BBB4203DDA5
:10374000029B069A9342BCDB059BF619BB4201DD46
:10375000182464422800FFF7ACFD039B013B1BB219
:103760000393A3E7002C15D1002E13D0019B7010FA
:10377000C0183100FCF766FD079B2900181A2B00C2
:1037800000B254331C80588098804231280002F0E7
:1037900038F80400200011B0F0BDC0460C00002035
:1037A000F0B50C000B689BB0103B060020310822DE
:1037B00008A80193022702F0ADFC21003A0028314D
:1037C0000AA802F0A7FC21002A203A002A31684406
:1037D00002F0A0FC21003A222C310BA802F09AFC46
:1037E000236901ADEB81237929002B7163793000C6
:1037F0006B71A379AB71E379EB71237A2B72637AE6
:103800006B72A37AAB72E37AEB72237B2B73A38A7E
:103810002B82E38A6B82238BAB82638BEB82A38B3D
:103820002B83E38B6B8300F08FF91BB0F0BDF0B5F9
:103830009BB001AD0C00290000F0D0F9060020007B
:10384000019B08A9103323600822203002F062FC9B
:10385000022720003A000AA9283002F05BFC200071
:103860002A213A0069442A3002F054FC20003A220E
:103870000BA92C3002F04EFC2B79300023716B79B0
:103880006371AB79A371EB79E3712B7A23726B7A55
:103890006372AB7AA372EB7AE3722B7B23732B8A6E
:1038A000A3826B8AE382AB8A2383EB8A63832B8BAD
:1038B000A3836B8BE383EB8923611BB0F0BD000016
:1038C000F0B50700A7B0002900DC8CE0474B9960F9
:1038D000DB680393DF239B00C35CDA1E012A03D954
:1038E0000820082B00D07CE0380000F093FC002872
:1038F00054D13800FFF7A6FC00284FD10400060081
:103900000090029001906B461B7B3800A34247D881
:10391000FFF7CFFC009B002B62D030041900FCF7AE
:1039200007FC802300241B02C518304B2D0C9E6819
:10393000A5421ED0A6421CD0019A00991004FCF7A3
:10394000F7FB33040190984213D200990298FCF7D8
:10395000EFFB2900FCF7ECFB310004000198FCF7B9
:10396000E7FB80235B02181A802344431B02E41800
:10397000240C0CA93800FFF75AFF00280ED1FA23B7
:103980004034E4099B005C430CA938001094FFF715
:1039900007FF002802D1380000F00CFC27B0F0BD72
:1039A00005ADFFF7E1FC29003800FFF7E3FC380024
:1039B000FFF78AFCEB7E002B0FD11822AB5E019A39
:1039C000D318AA6801939446029B634402932B8AFE
:1039D0001B0AF618009B013300930134E4B292E70E
:1039E00016204042DAE70420FBE7C0460C00002026
:1039F000F7B56B46DE1C00230F00320030210400B7
:103A00003370D02501F06AFDFF3500281DD1B823A1
:103A100032785B00E2543900200001F0ABFA002854
:103A200013D1200002F008FB00280ED101AE0223C2
:103A300032008921200001F00FFD002805D13378E4
:103A40006355E82372785B00E2541F22635D1340E4
:103A50006355002808D1200001F0B8FA002803D1EE
:103A60000100200001F086FAFEBD000070B586B0AE
:103A700004000E0001F0A0FA00285ED122005F30A1
:103A8000FF30205A1132FF32138951780290508949
:103A90000190908900905268200001F07CFB002882
:103AA0004BD188235B00E15C2000FFF7A1FF0028D9
:103AB00043D104AD02232A00D921200001F0CCFC1F
:103AC00000283AD12A781E4B1421E2546A78013337
:103AD000E254200002232A0001F09CFC00282CD193
:103AE00023002A7849331A706A78AC215A70200072
:103AF00006232A0001F0B0FC00281ED106232A006C
:103B00000D21200001F086FC002816D123002A7820
:103B100042331A706A785A70AA789A70EA78DA7022
:103B20002A791A716A795A71D023FF33E35C0E3B0C
:103B3000DBB2022B01D8034AD056307006B070BDFC
:103B4000AF020000FE610008224B0A6870B5040055
:103B50000D009A423BD104311822423002F0DAFAC9
:103B6000290020001C310822943002F0D3FA2900E9
:103B70002000263102229C3002F0CCFA29002000DD
:103B8000250028313A225A3002F0C4FA23004C357D
:103B90002888FC331863AE3B1A88B0335A8622005B
:103BA0005032118899869E235B00E35C002B03D181
:103BB000E3641380002070BD9F235B00E15E01F091
:103BC00059FA054B984200D918002880F2E70420E2
:103BD0004042F0E70201ABECFFFF000070B50500CA
:103BE0000C0008002900194B182208C0423102F0CD
:103BF00091FA2B00FC331B6B154A934201D9012328
:103C00005B42E3812B0029002000FE335A8E943161
:103C100022829B8E082263821C3002F07BFA2900EC
:103C20002000A2310222243002F074FA2900200080
:103C30009C310222263002F06DFA290020005A3110
:103C40003A22283002F066FA002070BD0201ABEC87
:103C5000FFFF0000AD239B00C35A002B06D041613B
:103C60005943D6235B00C150002070470F204042CB
:103C7000FBE7AD2310B59B000C00C15A002907D00B
:103C8000093BFF3BC058FCF753FA2060002010BDF1
:103C90000F204042FBE737B50D0011001A00AF239B
:103CA0005B00C35A002B0DD004008560C160026127
:103CB0009D348530FF30FF3400900194280001F0DE
:103CC00016FA3EBD0F204042FBE7F7B51D00AF23BB
:103CD0005B000400C05A0F00160000282DD04433AA
:103CE000E15C01F07CF98C230190FF33E05C0199E9
:103CF00001F0B0F9CE2338605B00E05C9E23FF3317
:103D0000E35C0002C018019980B201F0DDF9D02314
:103D100030605B00E05CA223FF33E35C0002C0186C
:103D200080B2019901F0D0F9286000203B68A360BF
:103D30003368E3602B682361FEBD0F204042FBE740
:103D400010B507290FD80124002901D08C40E4B216
:103D5000C623FF33C35C2340002902D10020137027
:103D600010BD0B41FAE704204042F9E7020070B5AC
:103D70000D000400C4326878FF32097801F0F5F9CB
:103D80002200C532A878E978FF3201F000FA00205D
:103D900070BDC42370B50C00FF3305002200C05C69
:103DA000013101F006FBE2235B00E85CE21CA11C90
:103DB00001F0E7F9002070BDF0B500250C0085B0DA
:103DC00002AB9F1D9D71DE1DDD710B4B0190C05C30
:103DD0003A00310001F0EDFA3B78019A2370337814
:103DE00028006370054BD35C1A09E2700F22134060
:103DF000A37005B0F0BDC0462A0200002B020000EF
:103E00000100593170B5FF31040001F04BFC00286E
:103E10001BD121002000423101F005FD002814D102
:103E20002500FB35FF352900200002F0ADF8002801
:103E30000BD121002800F03100F0DDFFAD239B0005
:103E4000E218DE21200001F063FBAF235B00104A83
:103E5000E15A914201D80F4AE252002804D12100D0
:103E600020009E31FFF7A8FF2200A232537811787C
:103E70001B020B430AD123009E331B781B011370D6
:103E800023009F331B78A3341B01237070BDC046F1
:103E9000FF0F0000CCBCFFFF30B5039D049C082938
:103EA00014D806292BD2002915D00100CA3109885F
:103EB00011800200D03212681A600300D8331B68E8
:103EC000E4302B6003680020236030BD122916D037
:103ED00004D81129E9D004204042F6E72439022908
:103EE000F9D80100CC31098811800200D43212685F
:103EF0001A600300E0331B68EC302B60E2E701003E
:103F0000CC31098811800200D43212681A60030093
:103F1000DC331B68E8302B60D4E7F0B58DB00B9331
:103F200003009D33FF3305932C330693253BFF3B62
:103F30000793B92307000400050006009B00C3187F
:103F40000893129B7970C360139B09910361149BC2
:103F5000032143610A9200F0A7FE099B6534853571
:103F6000B536581EFF34FF35FF36252800D9BDE091
:103F7000FCF7D4F813323D48535E6974BCBCBCBC3A
:103F8000BCBCBCBC7F8ABCBCBCBCBCBCBCBCBCBCE0
:103F9000BCBCBCBCBCBCBC95A2AF079B059A019342
:103FA000069B290000932000330000F0D7FC002876
:103FB00010D1B2230A9A5B00FA520B993A83139BF1
:103FC000129A3800FFF767FE002803D114993800D1
:103FD000FFF740FE0DB0F0BD079B059A0193069BCD
:103FE000290000932000330000F03AFDDFE7079B33
:103FF000059A0193069B290000932000330000F0EE
:1040000051FDD4E7079B059A0193069B2900009375
:104010002000330000F068FDC9E7079B059A019373
:10402000069B290000932000330000F06EFDBEE7E0
:10403000079B059A0193069B2900009320003300FB
:1040400000F074FDB3E7079B059A0193069B2900D6
:1040500000932000330000F085FDA8E7079B059A38
:104060000193069B290000932000330000F098FD87
:104070009DE7079B059A0193069B2900009320006A
:10408000330000F0F9FD92E7079B059A0193069B28
:10409000290000932000330000F0D4FD87E7089B3F
:1040A000059A0293079B29000193069B2000009329
:1040B000330000F0A3FD7AE7089B059A0293079B63
:1040C00029000193069B20000093330000F084FD3B
:1040D0006DE7089B059A0293079B29000193069BB5
:1040E00020000093330000F09BFD60E70420404275
:1040F00070E7000030B5040085B00D00622100F0CB
:10410000D3FD294B0022236001232371FA239B0056
:10411000A360FA23DB00E360244B200023616423C7
:104120006361A0231B012383A31CDA77204A9A33FF
:104130001A8000F0ADFD002D02D02000FFF760FED8
:1041400020001130FF3000F06DFB20002130FF30E7
:1041500000F078FB210020002D31FF31423000F0CB
:104160007DFB20004530FF3000F0A0FB2000A43094
:1041700000F0B0FBB02203215200A35C20000B40F2
:10418000803BA3546369228B029323696178019376
:10419000E3680093A368FFF7C0FE0500200001F06C
:1041A0004DF8280005B030BD00010001C832000004
:1041B000DB07000070B59F2305005B00FC35C15E86
:1041C0000400286B00F056FF114B984200D91800EC
:1041D00023004C331880B2333222995E22004E32D3
:1041E000118034229A5E230050331A809E230120CE
:1041F0005B00E0540433E35C286B00F001FFA12373
:1042000021005B00E0524231200001F0FAFA70BD5B
:10421000FFFF000002000023503210B5C36413807A
:104220009E2201005200835406328352423101F033
:10423000E8FA10BDD3235B00C35A00200B807047FF
:10424000D3235B00C15200207047D4235B00C35AC4
:1042500000200B807047D4235B00C15200207047C0
:10426000F0B50700817004000F20C937FF373B7994
:10427000C1B003401943A12339715B00E15A3A33BD
:10428000E1526C4BE15CFF2901D10021E154B923DB
:1042900080209B00E158684B40001940814219D1B1
:1042A000C3214900655C6548255420206054C6211F
:1042B0002000FF31655C6639FF3954300D4218D15A
:1042C00021005831098889000180111C052A00D27B
:1042D0000521CAB2B921890061580B4058498B4267
:1042E00009D1564BE25C623BFF3BE25406220125BA
:1042F0000BE00021E8E7501E8325052805D8FBF7D1
:1043000003FF3C3A383603F60D25002388261800B3
:10431000761BB6B269465854013399B28E42F9D829
:10432000052A59D901222000521B92B259306A4401
:104330000B21FF3001F060F9002816D10D2220007A
:10434000521B92B26A441721423001F0BBF9002897
:104350000BD124222000521B92B265306A442021E6
:10436000FF3001F071FA00283CD041B0F0BD2425A7
:10437000CBE74425C9E75A25C7E77125C5E7022AD7
:104380003CD0002A46D18322521B92B26A440521B6
:10439000380001F07EFB0028E7D133006A4629008F
:1043A000200001F037F80028DFD1200000F088FC61
:1043B0000028DAD1200000F0EEFCD6E723002C33F1
:1043C0009878DA2101234900034363542100B53171
:1043D000FF310B73887423E0052AAFD0042AB8D0CC
:1043E000032ACCD144222000521B92B285306A4469
:1043F0001621FF3001F08BFA0028B6D15A22200096
:10440000521B92B29D306A441721FF3001F0C3FA6B
:104410000028AAD171223B79521B92B29B06CDD4BF
:104420002000B5306A441221FF3001F0F4FA002870
:104430009BD1A8E7E602000000FFFF00E7020000B2
:1044400000010100F8B5E6250F27802301006D006B
:10445000425D04003A405B421343C9314355FF318A
:1044600001F02EFB635D06003B40635503212000F5
:1044700000F01AFC044BE35C012B02D1200000F099
:10448000EFFE3000F8BDC046E502000030B54D2318
:10449000C1B004000D00012903D03933022900D036
:1044A0005A3B6A468821200000F0D6FF012D13D91F
:1044B00000281CD1AB234E219B00E2186944383000
:1044C00001F0DAFB002812D1A2239B00E2180BA90D
:1044D000213001F096FB01E0002DF3D1002806D138
:1044E0002200CF32FF3269462C3001F0F9FA41B098
:1044F00030BD10B50322FFF7B3FE10BDF7B500279E
:104500000190CC7800949C701C1D0025277065607C
:104510004E781F352E40250000983E35002841D1A9
:10452000092E3FD11330287036488446012F41D0E0
:104530008D78072D38D14D8A25820D8AA585CD8AA3
:10454000E5850D8925864D896D01654500D92D4D7F
:1045500025878D8901986587CD8945438020C000D6
:104560008446AC446046C51750686D05606290682B
:104570006D0DA062D06865446061ED121068A5877A
:1045800020624034012F0BD10022DA70112E06D8A0
:10459000B7401D490F4202D0DE7042331A70F7BD9A
:1045A0000127B2E72E70BFE7082D01D18D8AC3E73E
:1045B0008D88C1E701200D8B404225824D8BE0851F
:1045C000A5858D8B2586CD8B6D01654500D965460A
:1045D00025870D8C019865874D8C45438020C00050
:1045E0008446AC446046C51750696D0560629069A9
:1045F0006D0DA062D0696544ED126061A5871069F8
:10460000BEE7C046FFFF00000E200200BD23F0B54C
:104610009B0085B004000392C718FFF737FF019095
:10462000051E0BD12300A22221009C339200CF3122
:104630001888A2183B00FF31FFF760FF1B4BE35CBB
:104640000293012B15D1019B194E002B08D1A35DBC
:10465000002B26D1200000F037FE0500029BA35559
:10466000A35DFF2B05D0002D03D1200000F058FEE4
:10467000050023002C331A78BD239B00E25423004D
:1046800030331B7884227B703900039801F042FD9F
:10469000002D03D1200000F055FB0500280005B0D7
:1046A000F0BD012BDCD10133D9E7C046E5020000A3
:1046B000E60200000300594800B50818382800D960
:1046C000A7E0FBF72BFD1D222426292B2D2F3133AC
:1046D0003537393B3D3F414347494B4D5153555782
:1046E000595B5D5F6164676A6D7073777A7D808204
:1046F0008587898B8E90929597999B9D9FA2A40008
:10470000A4331B880020136000BDA633F9E7A8334B
:10471000F7E7B0331B78F5E7B133FBE7B233F0E7E7
:104720009C33EEE7B433F5E7B633EAE7B833E8E7AE
:10473000BA33E6E7BC33E4E7BE33E2E7C033E0E791
:10474000C233E7E7C333E5E7C433E3E7A021490019
:104750005B5CD7E7C533DDE7C733DBE7C833D9E7B1
:104760009F2149005B5ECDE7AA33D3E7AB33D1E7A6
:10477000AC33CFE7AD33CDE7AE33CBE7AF33C9E7EB
:10478000C633C7E7B021E2E7FF335B7CBAE7FF330C
:104790009B7CB7E7FC339B69B4E7FE335B8BB1E7E7
:1047A000FE339B8BAEE7FE33DB8BABE7A2214900E8
:1047B0005B5AA7E7FC33DB6CA4E7FC335B6DA1E736
:1047C000FC331B6D9EE7AA21C1E75621FF31BFE7ED
:1047D000AB21BCE72221F9E79121B8E7FE335B8DDD
:1047E00090E7CA338DE7CC338BE7D0331B6889E77A
:1047F000D433FBE7D833F9E7DC33F7E7E433F5E705
:10480000E833F3E7B9218900A2E7E033EEE7EC33C0
:10481000ECE70420024B4042136075E70080FFFF85
:10482000FFFFFF7F054B0380FA239B004360044B8F
:104830008360A0235B01838100207047080B000088
:10484000000A0005034B0360034B43600C23038104
:104850000020704700120F02A08C0000030010B56A
:104860000C00408908600C22995EA1800E229A5E9D
:10487000002363824033E280A060A181E28123753E
:1048800000280CD16368002B09D12074237C012BF4
:1048900008D13F3300F0B4FBE082002010BD0123BB
:1048A0002374F3E70023E382F7E70000A0231B0152
:1048B0000380FA239B004360044B8360C360044B76
:1048C00003820923837400207047C046C832000069
:1048D00008280000184A03000260184A4260184A7B
:1048E0008260184AC260B422002052005A829A8222
:1048F000DA82A83A1A835A839A83134A1874DA839D
:10490000124A1A845A845A1DD077A0221201DA84DE
:104910001A850F4ADA62FA2292001A63FA22D2004A
:104920005A639A630B4A1A640B4A5A640122DA6387
:10493000FA2252019A6470470380018041800E0A76
:10494000060E0A0602210000081000000102000005
:104950003080000018F60000C8320000F0B50400F6
:10496000A020000120800020354E069DA681113E2A
:10497000E681F93EFF3E6080A080E080208160817A
:104980002682AE7FFF27A674EE7FE6746E1CF67F4C
:10499000A07526750126E07566752083A7762F7CA5
:1049A000E7762F7B60772777A077E077B224240122
:1049B00008804C80EC898C80224CCC806C7B8E7281
:1049C0000C72214C48720C82E024A4014C821F4CD2
:1049D0008881C8818C821E4911601E4951601E4920
:1049E0001181A98A5181698B10619181082191738C
:1049F00078211075D1731E70588098809871AA1C08
:104A0000D27FDA71154A1A81EA799A72AA7ADA7231
:104A10006A1D1E73D27F04355A73EA7F9A73C722C8
:104A2000DA7338321A74DB225A74D93A9A74059BB5
:104A3000059A9E70DE70587021231371F0BDC04638
:104A400011020000020D0000008CFFFFFF010000BA
:104A5000001A002001CC0B01F50900000B09000031
:104A600073B51E00079D069B01950093330014004B
:104A7000FFF774FF00280FD10723A371023B637275
:104A8000EB8A6381AB8BA381044BE381044B3381BD
:104A90002B7AB372EB7AF37276BDC0460838000009
:104AA0000705000073B51E00079D069B0195009346
:104AB00033001400FFF752FF00280FD10F23A3711A
:104AC000023B63726B8A63812B8BA381044BE3816E
:104AD000044B3381AB79B3726B7AF37276BDC04607
:104AE00008B8FFFF0F0D000037B51C00079B0D0035
:104AF0000193069B00932300FFF730FF002803D1AA
:104B00000223AB72393363743EBD37B51C00079B7B
:104B10000D000193069B00932300FFF71FFF002861
:104B200003D10223AB72593363743EBDF7B5089FBE
:104B3000099D0097019514001E00FFF70FFF002844
:104B40000DD1074BB074A380D4232372C023DB00A4
:104B5000E07123610335EB7FF37140233B71FEBDB0
:104B600000B1FFFFF7B5089F099D0097019514005C
:104B70001E00FFF775FF00280ED1084BB074A3800C
:104B80000123E371B0332372C023DB0023610335BB
:104B9000EB7FF37140233B71FEBDC0460184FFFFF4
:104BA000F7B5089F099D0097019514001E00FFF7B7
:104BB00079FF00280DD1074BB074A380B123237275
:104BC000C023DB00E07123610335EB7FF3714023E9
:104BD0003B71FEBD0097FFFF37B51D00079B0C0022
:104BE0000193069B00932B00FFF7A0FF002804D140
:104BF000089A2900200000F059FB3EBD37B51D0082
:104C0000079B0C000193069B00932B00FFF7AAFF64
:104C1000002804D1089A2900200000F047FB3EBD7F
:104C200037B51D00079B0C000193069B00932B00DA
:104C3000FFF7B6FF002804D1089A2900200000F0F1
:104C400035FB3EBDF7B5089F099C00970194150000
:104C50001E00FFF783FE00280AD1064BB074AB801C
:104C6000D423E8712B720334E37FF37110233B717B
:104C7000FEBDC04600B1FFFF37B5069C079D0094FE
:104C80000195FFF76BFE002801D1012363703EBD43
:104C9000E623DB004362034B0385F83B2A30FF3BEE
:104CA0000370704701020000002302222C300170C3
:104CB00043708270C370017143718271C371704718
:104CC000E62300B55B00C25CBE3BFF3B9A4303009A
:104CD00001002C33002A05D10321197102215A71D8
:104CE00099711CE05A79FF2A0ED17F3A5A7102223B
:104CF0009879424018799A71033805281ED8FBF735
:104D00000DFA051D1D1214180132EFE7E3225200BF
:104D10008A5C920705D506221A7100225A71DA714F
:104D200005E00822F8E700225A7108221A710020D3
:104D300000BD0122D9794A40DA71F6E703221A71DF
:104D40000022CBE7E62330B55B00C35C00229B0664
:104D50000DD5010004002C31CF340D79FF34637878
:104D6000062D06D11F210B40122B00D0113A100046
:104D700030BD4D79E3789D4201D012225242E723A3
:104D80005B00C35C022089791B1103409942EED07D
:104D900013225242EBE7E6230F225B00C35C2C3068
:104DA000934305D10C3A02704370013A827020E0BF
:104DB0004378FF2B0FD17F3B02224370837853400F
:104DC00083700378032B08D0042B0FD003230370C8
:104DD00000234370EAE70133EEE70122C378427013
:104DE0005340C37004230370002070470123C2782E
:104DF0005340C370F8E7037C0B70437C4B70837C9B
:104E00008B70C37CCB70037D0B71437D4B71837DB5
:104E10008B71C37DCB71037E0B72437E4B72837E9D
:104E20008B72C37ECB72037F0B73437F4B73837F85
:104E30008B73C37FCB73431CDB7F0B74831CDB7FC3
:104E40004B74C31CDB7F8B74031DDB7FCB74431D52
:104E5000DB7F0B75831DDB7F4B75C31DDB7F8B7584
:104E600003000833DB7FCB75030028331B780B76F8
:104E7000030029331B784B7603002A331B788B768B
:104E800003002B331B78CB7603002C331B780B7776
:104E900003002D331B784B7703002E331B782F3004
:104EA0008B770378CB77704701395118013A9142DB
:104EB00000D170470870000A0139F8E7002310B5E7
:104EC000064C013880B2A04201D1180010BD0A780A
:104ED0001B0213439BB20131F3E7C046FFFF000002
:104EE00001395118013A914200D1704708700012FF
:104EF0000139F8E7002310B5CB56074ADB171BB280
:104F0000013880B2904201D1180010BD0C781B020C
:104F10001BB223430131F3E7FFFF000001395118B1
:104F2000013A914200D170470870000A0139F8E750
:104F3000002310B5054A013880B2904201D1180013
:104F400010BD0C781B0223430131F4E7FFFF000082
:104F5000002310B5CB56064ADB17013880B29042C9
:104F600001D1180010BD0C781B0223430131F4E776
:104F7000FFFF000010B50A00272100F089FA10BDDC
:104F8000E52310B55B000A00C154852100F080FACA
:104F900010BD10B50121FFF7F3FF10BD10B50021C2
:104FA000FFF7EEFF10BDE42310B55B000A00C1540B
:104FB000832100F06DFA10BD10B50121FFF7F3FF5A
:104FC00010BD10B50021FFF7EEFF10BDCC2301226C
:104FD00010B5FF33C254862100F05AFA10BD70B5E7
:104FE0000D0000F0DBF90400280000F0DEF90300FA
:104FF00090200001604380095843800970BD000083
:10500000F8B50F00FA210001890015001E00FBF71A
:1050100019F904000020874201DA7F4238B20027E4
:10502000BD4201DA6D422FB2FA21C0194001890058
:10503000FBF708F91F22231873431033D8171040C9
:10504000C018034B4011984200DD180080B2F8BD33
:10505000FFFF00000A00002110B50B00FBF7EAF982
:10506000802200231201801859410B05000B1843C0
:1050700010BD000009180348814202DCC843C01774
:1050800008407047FFFF03000023984207D0FF212C
:10509000013802008A4304D11B021B189BB218007E
:1050A0007047013340089BB2F3E710B54B0800038B
:1050B0001818FBF73DF8FFF7E7FF10BD0300C0B27B
:1050C0001B0A98400130704710B50C00FFF7F6FF3F
:1050D000002102000B002000FBF7ACF98022002326
:1050E0001201801859410B05000B184310BDF7B58C
:1050F000099C01900F0000921E1E33D0A179180068
:10510000FFF76DFF0500019B40081B03C018290035
:10511000FBF70EF8FF2800D9FF20089B2900D87163
:105120003800FFF7C2FF030A29002370607000985F
:10513000FFF7BBFF030A23716071617A3000FFF74C
:105140004EFF010005003800FFF7AFFF030AA37010
:10515000E07029000098FFF7A8FF030A20720020E2
:10516000E371FEBD0F204042FBE7072804D9C900C8
:105170007139091A117070470F23591AC900411863
:10518000F8E7030913700F231840087070470901EE
:10519000401810707047F0B585B01E000AAB1B8830
:1051A000040000930BAB1B88150001930CAB18880F
:1051B0000F00FFF714FF2D03010040084019FAF714
:1051C000B7FF8C23FF33FF2835D9FF22E254D125C6
:1051D0006D006755E25C4B21200000F059F9002872
:1051E00004D1625D6021200000F052F9635D03AAE2
:1051F00013705370002804D102237821200000F09E
:1052000009F9230052331E80002812D132001C21DC
:10521000200000F04FF900280BD1009A64212000F3
:1052200000F048F9002804D1019A6621200000F01E
:1052300041F905B0F0BDE054C9E70000B9230322ED
:105240009B00C250BA22002392008352034A835427
:10525000023283500432835218007047EA02000081
:10526000FF210F4A0300815400220E4942540231AB
:10527000425004314252BA229200825C002A02D08B
:105280006421FF314254084A9A5C002A02D0B021BE
:1052900049005A548E220020FF3298547047C0466D
:1052A000E6020000EA020000E90200000123537058
:1052B000002393708B224A74024A02820222827275
:1052C0001800704700C8FFFF30B56424BA22B0212F
:1052D000FF34035D920083544900425C0D4D4255FA
:1052E0007F252B400355B9239B00C35C613CFF3CE9
:1052F00022409B009B1843548E230122FF33C2544B
:10530000054B064AC35C83548822FF328354002035
:1053100030BDC046E9020000AE020000EA02000013
:10532000E92370B55B00C15A0400002925D00C3375
:10533000C05A083BE35A174DC018A84200DD2800A8
:105340000004FAF7F5FEBB239B00011EE05014D0C9
:10535000893BFF3BE05A0004FAF7EAFEA84200D975
:105360000C48BC23022280B29B00E0525D3BFF3B15
:10537000E052063B0020E25470BDBC22064B920076
:10538000A3525D3AFF3AA352C723933A5B00FF3A18
:10539000F0E7C046FFFF00000080FFFF0100802013
:1053A00010B5C005FAF74EFF10BD01304000C0B285
:1053B000704710B544B20723002C06DA8343083344
:1053C0000B708038C010107010BD03400B707F232D
:1053D000181AF7E713B50C00E62193B289000A32D8
:1053E000415C00922200E824A4000059FCF716FC5E
:1053F00016BD37B50D00E62101248900415C93B24A
:105400002143E8240A320092A4002A000059FCF744
:105410009DFC3EBD70B506001C001000FF2B13D88C
:105420000B4D0B0A6970220001000A482B7000F036
:1054300071FEA21C29003000FFF7CCFF0023984228
:1054400000D00D3B180070BD04235B42FAE7C04654
:10545000C0040020C2040020F8B51F000B4B16004A
:105460000A0A1A705970022219000500FFF7B2FFEC
:10547000041E06D13A0031002800FFF7BAFF0028C9
:1054800001D00D2464422000F8BDC046C0040020B5
:10549000074B10B559709A700C0A032219001C7042
:1054A000FFF798FF0023984200D00D3B180010BD75
:1054B000C0040020084B10B559700C0A110A9970ED
:1054C000DA70190004221C70FFF784FF0023984251
:1054D00000D00D3B180010BDC00400200B4B70B570
:1054E00016000A0A1A705970022219000500FFF707
:1054F00071FF041E06D1012231002800FFF779FF59
:10550000002801D00D246442200070BDC00400209A
:1055100070B50E4C0B0A15006170022221000600C6
:105520002370FFF757FF002802D00D20404270BDC6
:10553000022221003000FFF75CFF0028F5D122781D
:10554000637812029B182B80F1E7C046C00400204C
:1055500010B50800FBF774FF002010BD0800FA2109
:1055600010B58900FAF76EFEFBF76AFF002010BD48
:10557000F0B51E4C0700A544002402938CAB1B78A9
:105580000D00019203931A4A04AB1A4906A8DC7174
:1055900000F0D1FD002D22D0002C05D000231800F2
:1055A00087239B009D44F0BD04ABDE1D32000199B2
:1055B0003800FFF793FF0399327803000A400299FD
:1055C0008A4203D10028EAD10124E3E70028E6D18A
:1055D0008D9B002BDED01800FBF732FFDAE72B00A3
:1055E000002CDCD107235B42D9E7C046E4FDFFFF76
:1055F000FF0100000162000870B5050014000A29CF
:1056000022D97F220F2103781340237043780B4067
:10561000637083780C391340A370C3780B40E37038
:105620000379013913402371621DC088FFF73CFCE8
:105630003F2200202B7AE3716B7A2372AB7A1340FE
:105640006372EB7AA37270BD0A204042FBE770B52B
:105650000D0014000A2822D97F220B780220134063
:1056600023704B780F210B406370AB780C391340DB
:10567000A370EB780B40E3702B79691D1340237105
:10568000FFF71CFC3F22E0800020EB7923722B7A8D
:1056900063726B7A1340A372AB7AE37270BD0A2017
:1056A0004042FBE71FB50C000B2301AA0121FFF7C5
:1056B000D3FE002804D1220001A90B30FFF7C7FF59
:1056C00004B010BD70B505001400162949D903783F
:1056D000022113704378537083789370C378D3702A
:1056E000037913710F224379134063718379303248
:1056F000A371C3791340E371037A3C3A134022004B
:10570000237209324089FFF7CFFB22000C23E85EA9
:105710000B320221FFF7E4FB22000E23E85E0D327C
:105720000221FFF7DDFB2200288A0F320221FFF75A
:10573000BBFB2200688A1132C004C00C0221FFF7B3
:10574000CFFB22001423E85E13320221FFF7C8FBCF
:1057500022001623E85E15320221FFF7C1FB00206C
:1057600070BD0A204042FBE770B50C0015001628FA
:1057700044D90B78022013704B7853708B78937058
:10578000CB78D3700B7913710F224B7913406B7167
:105790008B793032AB71CB791340EB710B7A3C3A99
:1057A00013402B720931FFF789FB210068810B310F
:1057B0000220FFF79FFB2100A8810D310220FFF797
:1057C00099FB2100E8810F310220FFF777FB2100D0
:1057D000288211310220FFF78DFB2100C004C00C8C
:1057E000688213310220FFF785FB2100A882153162
:1057F0000220FFF77FFBE882002070BD0A204042B4
:10580000FBE710B586B004006A4608001721FFF7D1
:1058100059FF002805D117236A460D212000FFF704
:10582000F9FD06B010BD10B586B00C0017236A460E
:105830000D21FFF711FE002804D122006946173020
:10584000FFF792FF06B010BDF8B5050014001F2940
:105850005AD900880221FFF727FB01230F261F21B9
:105860007F27AA781A40A270EA783240E2702A793B
:10587000324022716A790A406271A8793840A07179
:105880000320EA793A40E2712A7A1A4022726A7A4F
:105890006272AA7A1A40A272EA7A0240E2722A7B03
:1058A0000A4022736A7B02406273AA7B0240A273A1
:1058B000EA7B04300240E2732A7C0A4022746A7C4C
:1058C0001D39134022006374AB7C1832A374EB7C47
:1058D000E3742B7D23756B7D6375AB7DA375EB7DC9
:1058E000E375288BFFF7E0FA0020AB7EA376EB7E12
:1058F000E3762B7F334023776B7F6377AB7F1E404C
:10590000A677EB7FE377F8BD0A204042FBE770B54E
:105910000500140015293BD97F2603780221137056
:105920004378537083789370C3783340D370808802
:1059300004320005000DFFF7B7FA0122AB7902210E
:105940001E40A671EB79E3712B7A23726B7A1340B8
:105950006372AB7A063213402200E3720C32A889DC
:10596000FFF7A2FA2200E8890E320221FFF79CFA23
:105970002200288A10320221FFF796FA0020AB7C21
:10598000A374EB7CE3742B7D23756B7D637570BD15
:105990000A204042FBE770B505001400162937D9EC
:1059A0000F233F2102781A40227042786270827879
:1059B0001A40A270C278E27002791A4022714279CC
:1059C000627182790A40A271C27913402200E371A8
:1059D000037A0A322372437A0B40637240893D395D
:1059E000FFF762FA2200A8890C320221FFF75CFA65
:1059F0002200AB7B1232A373EB7B0421E373286993
:105A0000FFF78CFA012200202B7D1340A37570BD97
:105A10000A204042FBE770B505001400112935D972
:105A20000326037802213340137040880132FFF7C8
:105A30003BFAA219A8880221FFF736FA01227F213A
:105A4000AB79002013406371EB7906321340A371E8
:105A50002B7AE3716B7A2372AA7A0A4062720F2260
:105A6000EB7A0B40A3722B7B3340E3726B7B3340AA
:105A70002373AB7B13406373EB7BA3732B7CE373C8
:105A80006B7C2374AB7C1E40667470BD0A20404260
:105A9000FBE7042911D9012103780B4013704378E7
:105AA0000B40537083780B409370C37802310B40E6
:105AB000D37003790020137170470A204042FBE73E
:105AC00013B504006A4608000521FFF7E2FF00282D
:105AD00005D105236A4683212000FFF79BFC16BDF4
