:020000040800F2
:10000000FF1700204D760008497500085375000859
:1000100000000000000000000000000000000000E0
:1000200000000000000000000000000059750008FA
:100030000000000000000000637500086D750008F6
:10004000CD760008CD760008CD760008CD76000884
:10005000CD760008CD760008CD760008CD76000874
:10006000CD7600087D750008CD760008CD760008B5
:1000700095750008CD760008CD760008CD7600088D
:10008000CD7600080000000000000000CD760008DA
:1000900000000000CD760008CD760008CD7600087F
:1000A00000000000CD760008CD760008CD7600086F
:1000B000CD76000800000000AD750008CD76000880
:1000C00010B5064C2378002B07D1054B002B02D02E
:1000D000044800E000BF0123237010BD3000002061
:1000E00000000000DC770008044B10B5002B03D0A3
:1000F0000349044800E000BF10BDC04600000000F6
:1001000034000020DC770008002243088B4274D3BF
:1001100003098B425FD3030A8B4244D3030B8B4208
:1001200028D3030C8B420DD3FF22090212BA030C11
:100130008B4202D31212090265D0030B8B4219D3F2
:1001400000E0090AC30B8B4201D3CB03C01A524112
:10015000830B8B4201D38B03C01A5241430B8B425A
:1001600001D34B03C01A5241030B8B4201D30B0343
:10017000C01A5241C30A8B4201D3CB02C01A52416A
:10018000830A8B4201D38B02C01A5241430A8B422D
:1001900001D34B02C01A5241030A8B4201D30B0216
:1001A000C01A5241CDD2C3098B4201D3CB01C01A30
:1001B000524183098B4201D38B01C01A524143093A
:1001C0008B4201D34B01C01A524103098B4201D328
:1001D0000B01C01A5241C3088B4201D3CB00C01A95
:1001E000524183088B4201D38B00C01A524143080D
:1001F0008B4201D34B00C01A5241411A00D2014632
:10020000524110467047FFE701B5002000F006F8A4
:1002100002BDC0460029F7D076E770477047C04658
:100220008446100062468C461900634600E0C046D2
:100230001FB500F009FD002801D40021C8421FBDF0
:1002400010B500F059FC4042013010BD10B500F06F
:10025000FBFC002801DB002010BD012010BDC046C2
:1002600010B500F0F1FC002801DD002010BD0120D8
:1002700010BDC04610B500F081FC002801DC002054
:1002800010BD012010BDC04610B500F077FC00285D
:1002900001DA002010BD012010BDC04684460800D0
:1002A0006146FFE71FB500F0D1F9002801D4002115
:1002B000C8421FBD10B500F05DF94042013010BDCD
:1002C00010B500F0C3F9002801DB002010BD0120AB
:1002D00010BDC04610B500F0B9F9002801DD0020BE
:1002E00010BD012010BDC04610B500F069F900280E
:1002F00001DC002010BD012010BDC04610B500F08B
:100300005FF9002801DA002010BD012010BDC046B1
:100310009E2110B5C905041CFFF7F0FF002803D18A
:10032000201C00F077FB10BD9E21201CC90500F0A9
:10033000D1F900F06FFB80231B069C466044F2E776
:10034000F0B54F464646D6464502C0B547000C1CA0
:100350006D0A3F0EC60F002F00D16FE0FF2F00D1B6
:1003600074E00023802299469A46ED00D20415439A
:100370007F3F63025B0A984663001B0EE40F002B6D
:100380004DD0FF2B45D042468021D200C9041143F5
:10039000884600227F3B3100FF1A4B466140C9B2BC
:1003A0000F2B00D9B8E070489B00C3589F4600232C
:1003B00098462600454692465346022B00D18DE0D2
:1003C000032B00D1A1E0012B18D03B007F33002B81
:1003D0006DDD6A0704D00F222A40042A00D00435BC
:1003E0002A0103D5614B1D403B008033FE2B00DD0D
:1003F00074E0AA01520AD8B202E00E0000200022E6
:10040000C005F60710433043E0BCBA46B146A846E3
:10041000F0BD4346002B3FD10222FF3F03E043469D
:10042000002B2DD1012231004B466140C9B213434C
:100430000F2B38D84E489B00C3589F46002D13D130
:1004400004239946033B00279A4692E7002D05D1E5
:1004500008239946063BFF279A468AE70C239946CC
:10046000093BFF279A4684E7280000F0B7FC76276F
:10047000431F9D4000237F4299469A463F1A78E7E2
:10048000404600F0ABFC4246431F9A4076235B4255
:1004900090461B1A00227EE703234A461A439146E0
:1004A000FC33032277E70E00FF200022A8E7012299
:1004B000D31A1B2BA2DC9E372A00BD40DA406B1EEC
:1004C0009D4115436A0704D00F222A40042A00D018
:1004D00004356A0144D50120002291E7FF20002263
:1004E0008EE780220026FF20D20389E7002398466A
:1004F0008022D203154208D04346134205D11A4345
:1005000052022600FF20520A7AE78022D2032A43B1
:100510005202FF20520A73E742466B015501AB427B
:100520001AD21B200022013F01261C0052005B0052
:10053000002C01DB9D4201D85B1B324301380028AF
:10054000F3D1581E834113431D003B007F330E003F
:10055000002B00DD3DE7AAE71A2001225B1BE3E741
:10056000AA010020520A4BE728780008FFFFFFF796
:100570006878000870B5420045024E024C00C30F77
:100580006D0A0120120E760A240EC90FFF2A06D02A
:10059000FF2C03D0A24201D1B54206D070BD002D80
:1005A000FCD1FF2CFAD1002EF8D18B4206D00120CD
:1005B000002AF3D12800431E9841EFE70020EDE721
:1005C00070B5420045024E024C00C30F6D0A120E78
:1005D000760A240EC80FFF2A1BD0FF2C0ED0002A4B
:1005E0001BD1002C01D1002E1CD0002D0CD0834239
:1005F0001CD00221581E0840013870BD002E22D1A7
:10060000002AF4D1002DF2D10028F6D10120404279
:10061000F3E7002D17D1FF2CF0D0002CE7D1002EEE
:10062000E5D1E6E70020002DE7D0E2E7A24205DCB5
:10063000EADBB54202D8E7D30020DEE74342584167
:1006400040000138D9E702204042D6E770B54200A9
:1006500045024E024C00C30F6D0A120E760A240E9C
:10066000C80FFF2A0BD0FF2C0DD0002A1FD1002C61
:1006700016D1002E14D10020002D10D009E0002D3D
:100680000CD1FF2C13D1002E08D1002A08D08342B0
:1006900012D00221581E0840013800E0022070BD2F
:1006A000002DF4D10028FAD101204042F7E7002CB8
:1006B000EDD1002EEBD1ECE7A24205DCF2DBB54236
:1006C00002D8EFD30020EAE7434258414000013806
:1006D000E5E7C046F0B5C64643025B0A4500DA00CE
:1006E000C40F48024F009446420A1E00904600B5CF
:1006F0002D0E3F0EC90F8009FF2F59D00122514006
:100700008C4239D0EA1B002A58DD002F68D0FF2D1B
:1007100000D1D1E08023DB0418431B2A00DCE3E096
:1007200001236246D31A5A0100D4ACE09B019E0912
:10073000300000F053FB330005388340854200DC75
:10074000C6E0B24A2D1A13405A0704D00F221A40AD
:10075000042A00D004335A0100D497E06A1CFE2D0D
:1007600000D184E09B015E0AD2B2D0053043E40799
:10077000204380BCB846F0BDEA1B002A41DD002FB3
:100780006BD0FF2D00D197E08023DB0418431B2A98
:1007900000DCCCE0012363445A0174D50135FF2D00
:1007A00065D001229A491A405B080B401343CBE7FE
:1007B00000281FD08C4222D02A00FF3A002A35D0D0
:1007C0007A1B002D00D099E06346002B00D1DDE0BC
:1007D000531E012A00D105E1FF2A6BD01A0094E0D4
:1007E000002873D0511E012A00D1DFE0FF2A63D018
:1007F0000A0092E701225140A14200D082E72A007C
:10080000FF3A002A36D07A1B002D00D1AAE0FF2F34
:1008100000D1DAE080236146DB0419438C461B2AB1
:1008200000DCD4E001233D001B18B5E7FE276A1C5D
:10083000174271D1002D00D09EE06346002B00D1FD
:10084000D5E00022002800D18FE71B1A5E0100D4FA
:10085000D6E063460C00C31A76E7002836D0511E56
:10086000012A00D19AE0FF2A26D00A008FE7FF2252
:1008700000267AE7FE276A1C174262D0FF2AF6D0CC
:100880001500604443085A0700D05FE7DB08FF2DDE
:1008900012D05B025E0AEAB267E76246002A00D124
:1008A00093E0002808D08022D203134204D04046AF
:1008B000104201D10C004346002BD8D08026F6030D
:1008C0001E437602FF22760A4FE743461500DEE715
:1008D0002022401B0130121A19009340C1405A1EB9
:1008E000934100250B432FE720239B1A01009840DA
:1008F0000300D1405A1E93410B4312E7FF2FD9D07A
:1009000080236446DB041C43A4461B2A52DD0123DA
:100910000C003D00C31A06E763461E1A730139D462
:10092000002E00D004E70024002200261DE720232B
:100930009B1A010098400300D1405A1E93410B437B
:1009400029E7002DA9D16346002B56D000220028AC
:1009500000D10AE7030063445A0194D52B4A0135BC
:10096000134090E76346002BAFD0531E012A15D0E9
:10097000FF2A2AD01A0052E76246002A91D10028A5
:1009800098D180260024FF22F603EEE60C004346B1
:1009900015007CE763460C00C61AC9E603006344F1
:1009A00001255A0100D46EE70225FAE663460125C7
:1009B0001B1AB8E664462023D4409B1A62469A402C
:1009C00013005A1E93412343A2E7434674E761464E
:1009D0002023D1409B1A62469A4013005A1E93412D
:1009E0000B4320E763460C000125C31A9BE6002851
:1009F00099D00C0046460022B7E646460022B4E6EF
:100A0000002B00D03FE700240026AEE6FFFFFFFBEF
:100A1000FFFFFF7D41024200C30F490A0020120E72
:100A20007E2A03DD9D2A02DD094A9818704780203E
:100A300000040143952A07DC9620821AD1404842DF
:100A4000002BF3D10800F1E7963A9140F7E7C04652
:100A5000FFFFFF7F70B5002813D0C317C5185D4096
:100A6000C40F280000F0BAF99E2301001B1A962B30
:100A70000FDC082831D008398D406D026D0AD8B2DC
:100A800002E0002400200025C0052843E40720439D
:100A900070BD992B0CDD0522121A2800D0400200EF
:100AA00008001B3085402800451EA8410243150060
:100AB000052916DC2A000F4802406E0709D00F26D0
:100AC0003540042D05D00432550102D59F23024044
:100AD0005B1A9201550AD8B2D6E76D0296206D0ACC
:100AE000D2E74A1F95402A00024802406E07F0D024
:100AF000E5E7C046FFFFFFFBF0B54E464546DE4644
:100B000057469046E0B517001A03120B05008446BD
:100B100019480E034C0091465A00DB0F9B46360BDA
:100B2000640DC90F520D844219D0824210D00120A9
:100B300094420ED14E450CD10120C44509D15945EE
:100B400017D0002C05D130002843431E984100E007
:100B50000120F0BCBB46B246A946A046F0BD33001A
:100B600001202B43F5D1A242F3D14B463B43F0D1B8
:100B7000E2E70020EDE7C046FF070000F0B547467A
:100B8000CE460400180016001B031B0B2D4D4A0017
:100B9000994680B543000F03A446B0463F0B520D63
:100BA000C90F5B0DC00FAA4221D0AB4213D0002A5F
:100BB00022D13C43002B02D14D462E4322D0002CA3
:100BC00010D0814222D00220013908400138C0BC37
:100BD000B946B046F0BD4D462E4329D1002AF0D18A
:100BE0003C43EED10028F2D101204042EFE73D0026
:100BF00025431DD19342EED0002BE2D14C46264333
:100C0000DFD1E0E70020002CE1D0DCE79A420ADCEB
:100C1000E8DB4F45D7D80ED000204F45D7D200296A
:100C2000E2D00800D3E74342584140000138CEE704
:100C300002204042CBE7C445C5D80020C445C6D2F7
:100C4000EDE7C046FF070000F0B54746CE4604007A
:100C5000180016001B031B0B2C4D4A00994680B54B
:100C600043000F03A446B0463F0B520DC90F5B0D66
:100C7000C00FAA420DD0AB4210D0002A27D13C436E
:100C8000002B11D14D462E430ED10020002C15D043
:100C90000EE03D00254310D1934218D14D462E431E
:100CA0000BD1002A02D13C43002C0BD0814214D03E
:100CB000022001390840013800E00220C0BCB946DA
:100CC000B046F0BD0028F9D101204042F6E7002BE4
:100CD000ECD14C462643E9D1EAE79A4204DD43428F
:100CE000584140000138E9E79A42EBDB4F45DFD835
:100CF00006D000204F45E1D20029E5D00800DDE70D
:100D0000C445D5D80020C445D8D2F5E7FF07000078
:100D10000A0030B5134C530009030500090B0020ED
:100D20005B0DD20FA34204DD0F48834202DD0F4B5F
:100D3000D01830BD8020400301430D48C01A1F2841
:100D400008DD0C48C31AD9400B005842002AF0D1E4
:100D50001800EEE7084CC540A446634499400B00D8
:100D60002B43F2E7FE0300001D040000FFFFFF7F9E
:100D70003304000013040000EDFBFFFF70B50028F2
:100D800016D0C317C5185D40C40F280000F026F820
:100D9000114B1B1A0A2816DC02002E001532964051
:100DA0000B22121AD5405B052D032D0B5B0D03E0C2
:100DB00000240023002500261B052B43E4072343C2
:100DC0003000190070BD0B3885405B052D030026EF
:100DD0002D0B5B0DF0E7C0461E0400001C21012313
:100DE0001B04984201D3000C10391B0A984201D30E
:100DF000000A08391B09984201D30009043902A2EC
:100E0000105C40187047C046040302020101010152
:100E1000000000000000000080B500AF074B1A681A
:100E2000064B10210A431A60002000F009F806F072
:100E30001BFA00231800BD4680BDC04600200240BA
:100E400090B583B000AF7860144B1C68144B1B78CE
:100E50001900FA239800FFF757F903001900200042
:100E6000FFF752F90300180001F053FC031E01D0F4
:100E700001230FE07B68032B0BD8796801235B42C9
:100E80000022180001F01CFC064B7A681A6000234F
:100E900000E001231800BD4603B090BD28000020EB
:100EA000040000200000002080B500AF054B1B7837
:100EB0001A00054B1B68D218034B1A60C046BD468A
:100EC00080BDC046040000204C00002080B500AF6B
:100ED000024B1B681800BD4680BDC0464C00002078
:100EE00080B584B000AF7860FFF7F0FF0300BB600F
:100EF0007B68FB60FB68013305D00A4B1B781A0046
:100F0000FB689B18FB60C046FFF7E0FF0200BB6870
:100F1000D31AFA689A42F7D8C046C046BD4604B014
:100F200080BDC0460400002080B584B000AF78606A
:100F30000F23FB1800221A700023BB607B68002B74
:100F400001D1012325E17B689B6B002B0AD17B68D3
:100F50000022DA637B683422002199547B681800F0
:100F600006F0AEF97B689B6B1022134000D003E1C2
:100F70000F23FB181B78002B00D0FDE07B681B685B
:100F80009B680422134000D0F6E07B689B6B834A89
:100F9000134002221A437B689A637B681B689B6834
:100FA00003221340012B12D17B681B681B680122AE
:100FB0001340012B09D07B681B68DA6880231B0271
:100FC0001A4080231B029A4201D1012300E0002332
:100FD000002B16D17B681B68DB681822934319002D
:100FE0007B689A687B681B680A43DA607B681B68C9
:100FF0001B699B0099087B685A687B681B680A43D9
:101000001A617B681B68DA687B681B6864490A4060
:10101000DA607B681B7E9A037B685B7EDB031A4386
:101020007B689B7E5B031A437B689B6A012B02D023
:1010300080235B0100E000231A437B68DB681A43CE
:101040007B681B69022B01D1042300E000231A43B3
:101050007B6824215B5C5B001343BA681343BB606D
:101060007B68DB7E012B15D17B689B7E002B05D135
:10107000BB68802252021343BB600BE07B689B6B12
:1010800020221A437B689A637B68DB6B01221A4338
:101090007B68DA637B68DA69C223FF339A4207D040
:1010A0007B68DA697B681B6A1343BA681343BB60C9
:1010B0007B681B68D9687B681B68BA680A43DA607A
:1010C0007B68DA6A80235B059A421BD07B68DB6A07
:1010D000012B17D07B68DB6A022B13D07B68DB6A9D
:1010E000032B0FD07B68DB6A042B0BD07B68DB6A99
:1010F000052B07D07B68DB6A062B03D07B68DB6A95
:10110000072B12D17B681B685A697B681B68072113
:101110008A435A617B681B6859697B68DB6A0722CE
:101120001A407B681B680A435A617B681B68DB684E
:101130001C4A1340BA689A420BD17B680022DA63DA
:101140007B689B6B0322934301221A437B689A635B
:101150001CE07B689B6B1222934310221A437B682E
:101160009A637B68DB6B01221A437B68DA630F2387
:10117000FB1801221A7009E07B689B6B10221A434E
:101180007B689A630F23FB1801221A700F23FB1848
:101190001B781800BD4604B080BDC046FDFEFFFFB1
:1011A0001902FEFFE7FF3F8390B587B000AFF860FC
:1011B000B9607A601723FB1800221A70FB681B685D
:1011C0009B68042213405ED1FB6834229B5C012B98
:1011D00001D102235EE0FB68342201219954FB68AF
:1011E0005B7E012B07D01723FC18FB68180000F06A
:1011F0003BFA030023701723FB181B78002B46D102
:10120000FB689B6B254A1340802252001A43FB68FF
:101210009A63FB680022DA63FB6834220021995448
:10122000FB681B6B1E4A9A62FB681B6B1D4ADA62E5
:10123000FB681B6B1C4A1A63FB681B681C221A6044
:10124000FB681B685A68FB681B6810210A435A60D8
:10125000FB681B68DA68FB681B6801210A43DA60D7
:10126000FB68186BFB681B6840331900BA687B6821
:1012700001F0A4FAFB681B689A68FB681B680421EC
:101280000A439A6003E01723FB1802221A701723FF
:10129000FB181B781800BD4607B090BDFEF0FFFF9D
:1012A00061170008151800083318000880B582B0CF
:1012B00000AF78607B681B681B6804221340042B16
:1012C00006D17B681B685B6804221340042B0DD099
:1012D0007B681B681B6808221340082B4FD17B6872
:1012E0001B685B6808221340082B48D17B689B6B06
:1012F0001022134006D17B689B6B802292001A4318
:101300007B689A637B681B68DA68C0231B01134003
:101310002DD17B689B7E002B29D17B681B681B68C5
:1013200008221340082B22D17B681B689B6804228B
:10133000134010D17B681B685A687B681B680C21BE
:101340008A435A607B689B6B334A134001221A43DD
:101350007B689A630BE07B689B6B20221A437B6857
:101360009A637B68DB6B01221A437B68DA637B68D4
:10137000180005F049FC7B681B680C221A607B682A
:101380001B681B6880221340802B15D17B681B686B
:101390005B6880221340802B0ED17B689B6B802280
:1013A00052021A437B689A637B68180000F03EF88B
:1013B0007B681B6880221A607B681B681B68102290
:1013C0001340102B23D17B681B685B6810221340ED
:1013D000102B1CD17B689B6A012B06D07B681B6895
:1013E000DB6801221340012B0DD17B68DB6B0222ED
:1013F0001A437B68DA637B681B6810221A607B687B
:10140000180000F01BF87B681B6810221A60C046A9
:10141000BD4602B080BDC046FEFEFFFF80B582B073
:1014200000AF7860C046BD4602B080BD80B582B0D6
:1014300000AF7860C046BD4602B080BD80B582B0C6
:1014400000AF7860C046BD4602B080BD80B584B0B4
:1014500000AF786039600F23FB1800221A70002358
:10146000BB607B68DA6A80235B059A4211D07B6897
:10147000DB6A012B0DD07B68DB6A022B09D07B680D
:10148000DB6A032B05D07B68DB6A042B01D07B6809
:10149000DB6A7B6834229B5C012B01D10223D0E004
:1014A0007B683422012199547B681B689B68042265
:1014B000134000D0B4E03B685B68644A934200D1BB
:1014C00082E07B681B68996A3B681B6801229A402E
:1014D0007B681B680A439A627B68DA6A80235B0533
:1014E0009A4237D07B68DB6A012B33D07B68DB6A9A
:1014F000022B2FD07B68DB6A032B2BD07B68DB6A47
:10150000042B27D07B68DB6A052B23D07B68DB6A42
:10151000062B1FD07B68DB6A072B1BD03B689A68C1
:101520007B681B685B6907210B409A4212D07B687D
:101530001B685A697B681B6807218A435A617B686C
:101540001B6859693B689B6807221A407B681B68C7
:101550000A435A613B681B68102B07D03B681B6825
:10156000112B03D03B681B68122B63D1384B1968D1
:101570003B681B68102B09D03B681B68112B02D1FC
:101580008023DB0304E080235B0401E080231B0451
:101590002F4A0B4313603B681B68102B4AD12D4B1D
:1015A0001B682D491800FEF7AFFD03001A00130059
:1015B0009B009B185B00BB6002E0BB68013BBB600B
:1015C000BB68002BF9D135E07B681B689A6A3B68E1
:1015D0001B68012199400B00D9437B681B680A40B6
:1015E0009A623B681B68102B07D03B681B68112B65
:1015F00003D03B681B68122B1CD1154B19683B6844
:101600001B68102B07D03B681B68112B01D1134BB3
:1016100002E0134B00E0134B0D4A0B40136009E04E
:101620007B689B6B20221A437B689A630F23FB180D
:1016300001221A707B683422002199540F23FB1871
:101640001B781800BD4604B080BDC04601100000E4
:10165000082701402800002040420F00FFFFBFFF85
:10166000FFFFFFFEFFFF7FFF80B584B000AF786013
:101670000023FB600023BB607B681B689B68032220
:101680001340012B12D17B681B681B680122134099
:10169000012B09D07B681B68DA6880231B021A4083
:1016A00080231B029A4201D1012300E00023002B7A
:1016B0004BD17B681B689B68264A13400DD07B6822
:1016C0009B6B10221A437B689A637B68DB6B012259
:1016D0001A437B68DA63012338E07B681B689A68E9
:1016E0007B681B6801210A439A601B4B1B681B49DE
:1016F0001800FEF709FD0300BB6002E0BB68013B78
:10170000BB60BB68002BF9D1FFF7E0FB0300FB6077
:1017100014E0FFF7DBFB0200FB68D31A022B0DD9A4
:101720007B689B6B10221A437B689A637B68DB6B38
:1017300001221A437B68DA63012307E07B681B6898
:101740001B6801221340012BE3D100231800BD4682
:1017500004B080BD170000802800002040420F0028
:1017600080B584B000AF78607B685B6AFB60FB6823
:101770009B6B5022134040D1FB689B6B80229200F0
:101780001A43FB689A63FB681B68DA68C0231B0175
:1017900013402DD1FB689B7E002B29D1FB681B6871
:1017A0001B6808221340082B22D1FB681B689B682A
:1017B0000422134010D1FB681B685A68FB681B6841
:1017C0000C218A435A60FB689B6B114A134001222B
:1017D0001A43FB689A630BE0FB689B6B20221A4359
:1017E000FB689A63FB68DB6B01221A43FB68DA63D0
:1017F000FB68180005F008FA05E0FB681B6B1B6B23
:101800007A6810009847C046BD4604B080BDC04607
:10181000FEFEFFFF80B584B000AF78607B685B6A36
:10182000FB60FB681800FFF7F9FDC046BD4604B039
:1018300080BD80B584B000AF78607B685B6AFB6078
:10184000FB689B6B40221A43FB689A63FB68DB6B67
:1018500004221A43FB68DA63FB681800FFF7EEFD09
:10186000C046BD4604B080BD80B584B000AF78608E
:101870007B68002B01D10123F0E07B6820229B5C78
:10188000DBB2002B03D17B68180005F093FD7B6869
:101890001B681A687B681B6802218A431A60FFF77D
:1018A00015FB0300FB6013E0FFF710FB0200FB6871
:1018B000D31A0A2B0CD97B685B6A802292021A43E6
:1018C0007B685A627B682022052199540123C5E078
:1018D0007B681B685B6802221340E5D17B681B684C
:1018E0001A687B681B6801210A431A60FFF7EEFA49
:1018F0000300FB6013E0FFF7E9FA0200FB68D31A6C
:101900000A2B0CD97B685B6A802292021A437B689F
:101910005A627B6820220521995401239EE07B684E
:101920001B685B6801221340E5D07B681B7E012B9E
:1019300008D17B681B681A687B681B6880210A4392
:101940001A6007E07B681B681A687B681B68802147
:101950008A431A607B685B7E012B08D17B681B6819
:101960001A687B681B6840210A431A6007E07B689D
:101970001B681A687B681B6840218A431A607B6871
:101980009B7E012B08D17B681B681A687B681B68EB
:1019900020210A431A6007E07B681B681A687B688D
:1019A0001B6820218A431A607B68DB7E012B08D1EB
:1019B0007B681B681A687B681B6810218A431A6061
:1019C00007E07B681B681A687B681B6810210A4364
:1019D0001A607B681B7F012B08D17B681B681A6823
:1019E0007B681B6808210A431A6007E07B681B6854
:1019F0001A687B681B6808218A431A607B685B7FD2
:101A0000012B08D17B681B681A687B681B6804215E
:101A10000A431A6007E07B681B681A687B681B68CA
:101A200004218A431A607B689A687B68DB681A43E2
:101A30007B681B691A437B685B691A4311007B68EA
:101A40005B685A1E7B681B680A43DA617B68002268
:101A50005A627B6820220121995400231800BD4658
:101A600004B080BD80B586B000AF786039607B6817
:101A70001B687B6113203B187A682021525C1A7026
:101A80000200BB181B78012B04D0BB181B78022B5B
:101A900000D0CDE07A6980239B00D35801221A43FD
:101AA00011007A6980239B00D1503B685B691F223B
:101AB000134001229A401300FB607A6987239B0040
:101AC000D358FA68D2431A4011007A6987239B00E1
:101AD000D1503B68DB69002B29D17A6983239B00B5
:101AE000D358FA68D2431A4011007A6983239B00C5
:101AF000D1503B68DB6818043B685B681B04190C19
:101B00003B685A6901437B694832D200D1503B6837
:101B10009B6819043B681B681B041A0C3B685B69D3
:101B20000A4379694833DB00CB1804331A603B68F9
:101B3000DB69012B28D17A6983239B00D258FB688B
:101B40001A4311007A6983239B00D1503B681B68BC
:101B500018043B685B681B04190C3B685A69014315
:101B60007B694832D200D1503B689B6819043B68BE
:101B7000DB681B041A0C3B685B690A4379694833CC
:101B8000DB00CB1804331A603B689B69002B0CD137
:101B90007A6981239B00D358FA68D2431A40110016
:101BA0007A6981239B00D1500AE07A6981239B00E6
:101BB000D258FB681A4311007A6981239B00D150E7
:101BC0003B681B69002B0CD17A6985239B00D35895
:101BD000FA68D2431A4011007A6985239B00D150DC
:101BE0000AE07A6985239B00D258FB681A431100EA
:101BF0007A6985239B00D1503B681B6A012B0AD16F
:101C00007A6987239B00D258FB681A4311007A69CE
:101C100087239B00D1507A6980239B00D3580122EF
:101C2000934319007A6980239B00D150002307E079
:101C30007B685B6A8022D2021A437B685A62012366
:101C40001800BD4606B080BD80B584B000AF786096
:101C50007B6820229B5CDBB2012B2FD17B6820228A
:101C6000022199547B681B681A687B681B680121F4
:101C70008A431A60FFF72AF90300FB6013E0FFF7BD
:101C800025F90200FB68D31A0A2B0CD97B685B6A22
:101C9000802292021A437B685A627B6820220521C7
:101CA0009954012312E07B681B685B680122134092
:101CB000E5D17B6800225A62002307E07B685B6AFB
:101CC000802212031A437B685A6201231800BD4622
:101CD00004B080BD80B588B000AFF860B9607A60AC
:101CE0003B601F203B18FA682021525C1A70FB6889
:101CF0001B689B68BB613B181B78012B04D03B1809
:101D00001B78022B00D0B7E0BA698023DB041340B4
:101D10000AD1BA6980231B05134005D1BA69802313
:101D20005B05134000D19EE0BB691B0E03221340EC
:101D30007B617B69022B08D9FB685B6A80221204F5
:101D40001A43FB685A6201239EE001227B699A4094
:101D50003B681A60BB689B68002B0CD1BB681B6892
:101D60005905BB68DA68FB681B6811437A69183249
:101D70001201D1500FE0BB685B68DA00BB689B685A
:101D80001A431100BB68DA68FB681B6811437A6963
:101D900018321201D150FB681968BB681A697B6957
:101DA00018331B01CB1804331A60BB681B7D012B51
:101DB00012D1FB681A687B6918331B01D3180433EE
:101DC0001A68FB68196880235B001A437B69183323
:101DD0001B01CB1804331A607B6807331B781A0683
:101DE0007B6806331B781B041A437B6805331B781A
:101DF0001B021A437B6804331B781900FB681868C0
:101E00000A437969C6235B0009014118CB181A609F
:101E10007B6803331B781A067B6802331B781B042C
:101E20001A437B6801331B781B021A437B681B78BB
:101E30001900FB6818680A437969C4235B0009012B
:101E40004118CB181A60FB681B687A6918321201B6
:101E5000D258FB681B68012111437A6918321201BC
:101E6000D150002310E0FB685B6A802292031A4382
:101E7000FB685A62012307E0FB685B6A8022D2029A
:101E80001A43FB685A6201231800BD4608B080BDA2
:101E900080B586B000AFF860B9607A603B6017200B
:101EA0003B18FA682021525C1A700200BB181B789C
:101EB000012B04D0BB181B78022B00D0F8E0BB68C4
:101EC000002B0ED1FB681B68DB680322134017D17F
:101ED000FB685B6A802292031A43FB685A62012303
:101EE000EEE0FB681B681B690322134008D1FB6806
:101EF0005B6A802292031A43FB685A620123DFE087
:101F0000FB681B68BA681B321201D35804221A40BE
:101F10007B689A607B689B68002B0BD1FB681B6811
:101F2000BA681B321201D3585B0D5B055A0D7B68F2
:101F30001A600AE0FB681B68BA681B321201D358AA
:101F4000DB08DB00DA087B685A60FB681B68BA684C
:101F50001B321201D35802221A407B68DA60FB68F8
:101F60001A68BB681B331B01D31804331B680F228C
:101F70001A407B681A61FB681A68BB681B331B0137
:101F8000D31804331B681B0AFF221A407B689A612E
:101F9000FB681A68BB681B331B01D31804331B682A
:101FA0001B0C1B041A0C7B685A61FB681968BA6821
:101FB000DC235B0012018A18D3181B68DAB23B6875
:101FC0001A70FB681968BA68DC235B0012018A1872
:101FD000D3181B681A0A3B680133D2B21A70FB6827
:101FE0001968BA68DC235B0012018A18D3181B68D1
:101FF0001A0C3B680233D2B21A70FB681968BA68CF
:10200000DC235B0012018A18D3181B681A0E3B6888
:102010000333D2B21A70FB681968BA68DE235B001A
:1020200012018A18D3181A683B680433D2B21A70A6
:10203000FB681968BA68DE235B0012018A18D3189E
:102040001B681A0A3B680533D2B21A70FB6819681C
:10205000BA68DE235B0012018A18D3181B681A0CB9
:102060003B680633D2B21A70FB681968BA68DE237F
:102070005B0012018A18D3181B681A0E3B680733DD
:10208000D2B21A70BB68002B08D1FB681B68DA68F3
:10209000FB681B6820210A43DA6007E0FB681B68C5
:1020A0001A69FB681B6820210A431A61002307E0B4
:1020B000FB685B6A8022D2021A43FB685A620123E2
:1020C0001800BD4606B080BD80B584B000AF786012
:1020D00039600F203B187A682021525C1A70020088
:1020E000BB181B78012B03D0BB181B78022B09D11E
:1020F0007B681B6859697B681B683A680A435A61A8
:10210000002307E07B685B6A8022D2021A437B6867
:102110005A6201231800BD4604B080BD80B58AB064
:1021200000AF786000237B627B681B685B693B6261
:102130007B681B685B68FB617B681B689B68BB6195
:102140007B681B68DB687B617B681B681B693B6184
:102150007B681B689B69FB603B6A0122134000D1CE
:1021600084E0BB690122134024D07B681B680122F4
:102170009A60BB690222134004D07B68180000F00B
:1021800081F917E0BB690422134005D07B6A8022E5
:10219000120113437B620DE0BB690822134005D096
:1021A0007B6A8022520113437B6203E07B68180044
:1021B00000F080F9BA6980235B00134028D07B6867
:1021C0001B68802252009A60BA6980239B001340EA
:1021D00004D07B68180000F05DF919E0BA6980232B
:1021E000DB00134005D07B6A8022920113437B629F
:1021F0000EE0BA6980231B01134005D07B6A802260
:10220000D20113437B6203E07B68180000F05AF9A7
:10221000BA6980235B02134028D07B681B68802248
:1022200052029A60BA6980239B02134004D07B68F3
:10223000180000F037F919E0BA698023DB02134077
:1022400005D07B6A8022120213437B620EE0BA69DA
:1022500080231B03134005D07B6A80225202134364
:102260007B6203E07B68180000F034F93B6A0822C7
:1022700013400CD07B691022134008D07B6A802267
:10228000920013437B627B681B681022DA603B6A12
:10229000042213400BD07B690822134007D07B68CF
:1022A0001B680822DA607B68180000F01BF93B6AA3
:1022B0000222134009D07B681B68DB6803221340AD
:1022C00003D07B68180004F0A7FC3B6A402213404F
:1022D0000CD03B691022134008D07B6A8022D200C8
:1022E00013437B627B681B6810221A613B6A2022C1
:1022F00013400BD03B690822134007D07B681B6852
:1023000008221A617B68180000F0FCF83B6A102272
:10231000134009D07B681B681B690322134003D05C
:102320007B68180000F0E6F83A6A80239B021340AD
:102330000BD0FB691022134007D07B681B6810226A
:102340005A607B68180000F0E5F83A6A80235B0267
:1023500013400BD0FB690822134007D07B681B6831
:1023600008225A607B68180000F0DCF83A6A802383
:102370001B02134000D174E0FB690422134000D11A
:102380006BE03A6A80235B00134007D0FB680122B0
:10239000134003D07B6A012213437B623A6A802395
:1023A0009B00134007D0FB680222134003D07B6AD6
:1023B000022213437B623A6A8023DB00134007D07A
:1023C000FB680422134003D07B6A042213437B6220
:1023D0003A6A80231B0113403FD0FB6870221340F0
:1023E0003BD0FB6870221340602B27D02CD8502B99
:1023F0001FD029D8402B17D026D8302B0FD023D868
:10240000102B02D0202B05D01EE07B6A082213433C
:102410007B621AE07B6A102213437B6215E07B6AC1
:10242000202213437B6210E07B6A402213437B62CD
:102430000BE07B6A802213437B6206E07B6A80228A
:10244000520013437B6200E0C0467B681B689A69B8
:102450007B681B6870218A439A617B681B68042231
:102460005A607B6A002B09D07B685A6A7B6A1A43E0
:102470007B685A627B68180000F05CF8C046BD4675
:102480000AB080BD80B582B000AF7860C046BD465E
:1024900002B080BD80B582B000AF7860C046BD4656
:1024A00002B080BD80B582B000AF7860C046BD4646
:1024B00002B080BD80B582B000AF7860C046BD4636
:1024C00002B080BD80B582B000AF7860C046BD4626
:1024D00002B080BD80B582B000AF7860C046BD4616
:1024E00002B080BD80B582B000AF7860C046BD4606
:1024F00002B080BD80B582B000AF7860C046BD46F6
:1025000002B080BD80B582B000AF7860C046BD46E5
:1025100002B080BD80B582B000AF7860C046BD46D5
:1025200002B080BD80B582B000AF7860C046BD46C5
:1025300002B080BD80B582B000AF7860C046BD46B5
:1025400002B080BD80B582B000AF0200FB1D1A70E2
:10255000FB1D1B787F2B09D8FB1D1B781A001F233E
:102560001A40044B012191400A001A60C046BD4642
:1025700002B080BD00E100E090B583B000AF020082
:102580003960FB1D1A70FB1D1B787F2B28D82F4A42
:10259000FB1D1B785BB29B08C0339B009B58FA1D48
:1025A0001278110003220A40D200FF2191400A0054
:1025B000D2431A4011003B689B01FF221A40FB1DC9
:1025C0001B78180003230340DB009A401F48FB1DC3
:1025D0001B785BB29B080A43C0339B001A5031E062
:1025E0001B4AFB1D1B7819000F230B40083B9B085F
:1025F00006339B00D31804331B68FA1D12781100B0
:1026000003220A40D200FF2191400A00D2431A401F
:1026100011003B689B01FF221A40FB1D1B7818002C
:1026200003230340DB009A400948FB1D1B781C0074
:102630000F232340083B9B080A4306339B00C31823
:1026400004331A60C046BD4603B090BD00E100E00F
:1026500000ED00E080B500AFBFF34F8FC046044BE4
:10266000044ADA60BFF34F8FC046C046FDE7C0465C
:1026700000ED00E00400FA0580B582B000AF78609C
:102680007B685A1E80235B049A4201D3012310E029
:102690000A4B7A68013A5A6001235B420321180011
:1026A000FFF76AFF054B00229A60044B07221A606D
:1026B00000231800BD4602B080BDC04610E000E017
:1026C00080B584B000AFB9607A600F217B18021C1E
:1026D0001A70BA687B181B785BB211001800FFF7FC
:1026E0004BFFC046BD4604B080BD80B582B000AF90
:1026F0000200FB1D1A70FB1D1B785BB21800FFF770
:1027000021FFC046BD4602B080BD80B500AFFFF7D7
:10271000A1FF80B582B000AF78607B681800FFF73A
:10272000ABFF03001800BD4602B080BD80B584B089
:1027300000AF78600023FB607B68002B01D1012390
:1027400036E07B682122022199547B681B681B6854
:10275000FB60FB68184A1340FB607B685A687B6823
:102760009B681A437B68DB681A437B681B691A43C2
:102770007B685B691A437B689B691A437B68DB69EA
:102780001343FA681343FB607B681B68FA681A609E
:102790007B68180000F098F97B6800229A637B68D8
:1027A0002122012199547B68202200219954002381
:1027B0001800BD4604B080BD0FC0FFFF80B586B0D5
:1027C00000AFF860B9607A603B601723FB18002205
:1027D0001A70FB6820229B5C012B01D102234FE081
:1027E000FB68202201219954FB6821229B5CDBB20B
:1027F000012B3AD1FB68212202219954FB68002267
:102800009A63FB681B681A68FB681B6801218A438E
:102810001A603B687A68B968F86800F028F9FB68C4
:10282000DB6A002B08D0FB681B681A68FB681B6812
:102830000E210A431A600FE0FB681B681A68FB68E8
:102840001B680A210A431A60FB681B681A68FB6848
:102850001B6804218A431A60FB681B681A68FB68BE
:102860001B6801210A431A6007E0FB68202200214F
:1028700099541723FB1802221A701723FB181B7890
:102880001800BD4606B080BD80B584B000AF78604A
:102890000F217B1800221A707B6821229B5CDBB21F
:1028A000022B06D07B6804229A637B1801221A70DF
:1028B00028E07B681B681A687B681B680E218A43C6
:1028C0001A607B681B681A687B681B6801218A4351
:1028D0001A607B681A6C7B68DB6B012191400A00EF
:1028E0005A607B682122012199547B6820220021B3
:1028F00099547B685B6B002B04D07B685B6B7A68B8
:10290000100098470F23FB181B781800BD4604B031
:1029100080BD80B584B000AF78607B68DB6B1B68DE
:10292000FB607B681B681B68BB607B681B6C0422B8
:102930009A401300FA68134024D0BB680422134065
:1029400020D07B681B681B682022134007D17B685E
:102950001B681A687B681B6804218A431A607B68BD
:102960001A6C7B68DB6B042191400A005A607B681B
:10297000DB6A002B00D16AE07B68DB6A7A681000B2
:10298000984764E07B681B6C02229A401300FA6847
:1029900013402BD0BB680222134027D07B681B68F2
:1029A0001B68202213400BD17B681B681A687B6868
:1029B0001B680A218A431A607B68212201219954ED
:1029C0007B681A6C7B68DB6B022191400A005A60BD
:1029D0007B682022002199547B689B6A002B36D0AB
:1029E0007B689B6A7A681000984730E07B681B6CB4
:1029F00008229A401300FA68134028D0BB680822C6
:102A0000134024D07B681B681A687B681B680E2102
:102A10008A431A607B681A6C7B68DB6B01219140EA
:102A20000A005A607B6801229A637B682122012197
:102A300099547B682022002199547B681B6B002BE2
:102A400005D07B681B6B7A6810009847FFE7C0468B
:102A5000BD4604B080BD80B582B000AF78607B68B1
:102A600021229B5CDBB21800BD4602B080BD80B560
:102A700084B000AFF860B9607A603B60FB681A6CA4
:102A8000FB68DB6B012191400A005A60FB681B6800
:102A90003A685A60FB685B68102B08D1FB681B68BA
:102AA0007A689A60FB681B68BA68DA6007E0FB68BE
:102AB0001B68BA689A60FB681B687A68DA60C0466F
:102AC000BD4604B080BD000080B582B000AF786024
:102AD0007B681B68084A9446634414211800FDF77C
:102AE00013FB03009A007B681A647B68034ADA636D
:102AF000C046BD4602B080BDF8FFFDBF00000240E9
:102B0000F0B587B000AFF860B9603A607B6017231A
:102B1000FB1801221A701623FB1800221A701523C5
:102B2000FB1800221A703E4B1B7E012B01D10223A1
:102B300072E03B4B01221A761723FE18394B18001E
:102B400000F0C4F8030033701723FB181B78002B28
:102B50005CD1FB68012B04D11523FB1801221A70EC
:102B60000BE0FB68022B04D11523FB1802221A701C
:102B700003E01523FB1804221A701623FB18002209
:102B80001A7039E016217B181B785A00BB68D018E0
:102B90007B181B781B011A00203A002A03DB796896
:102BA000D1400C0008E02022D21A796891400A0036
:102BB0003968D9400C0014437A68DA401500A3B292
:102BC000190000F067F81723FE18164B180000F0E4
:102BD0007DF803003370144B1A69134B01218A43AB
:102BE0001A611723FB181B78002B0ED116217B18B6
:102BF0001A787B1801321A701623FA181523FB185D
:102C000012781B789A42BDD300E0C046044B0022E4
:102C10001A761723FB181B781800BD4607B0F0BDC5
:102C20005000002050C300000020024080B582B058
:102C300000AFFB1D00221A700C4B1B698022134051
:102C40000DD00A4B0A4A5A60084B0A4A5A60074B91
:102C50001B698022134002D0FB1D01221A70FB1D4C
:102C60001B781800BD4602B080BDC046002002405F
:102C700023016745AB89EFCD80B500AF044B1A69DE
:102C8000034B80210A431A6100231800BD4680BD12
:102C90000020024080B582B000AF78600A00BB1C03
:102CA0001A80084B0022DA61074B1A69064B012192
:102CB0000A431A617B68BA1C12881A80C046BD4656
:102CC00002B080BD500000200020024080B584B0DA
:102CD00000AF7860FEF7FAF80300FB600FE07B6856
:102CE00001330CD07B68002B07D0FEF7EFF8020011
:102CF000FB68D31A7A689A4201D203231FE0124B71
:102D0000DB6801221340012BE9D00F4BDB68202246
:102D10001340202B02D10C4B2022DA600A4BDB68D7
:102D200010221340102B05D0074BDB680422134000
:102D3000042B03D100F00AF8012300E0002318005F
:102D4000BD4604B080BDC0460020024080B582B0C0
:102D500000AF00237B60134BDB6810221340102B65
:102D600009D1114BDB6902221A430F4BDA617B68F0
:102D7000102213437B600B4BDB6804221340042BAF
:102D800009D1094BDB6901221A43074BDA617B68E1
:102D9000042213437B60034B7A68DA60C046BD4669
:102DA00002B080BD0020024050000020B0B584B0C9
:102DB00000AF786039600F23FB1801221A700023DE
:102DC000BB60324B1B7E012B01D102235AE02F4BFB
:102DD00001221A767B681B68012B16D12C4B180038
:102DE000FFF774FF031E47D100F056F80F23FC18BD
:102DF000274B1800FFF76AFF03002370254B1A6961
:102E0000244B04218A431A6136E0214B1800FFF756
:102E10005DFF031E30D13B68012252421A607B687D
:102E20005B68BB601FE0BB68180000F04DF80F2521
:102E30007C19174B1800FFF749FF03002370154B4F
:102E40001A69144B02218A431A617B191B78002BE3
:102E500003D03B68BA681A600EE0BB688022D200DB
:102E600094466344BB607B689B689A027B685B689E
:102E7000D318BA689A42D6D3044B00221A760F238D
:102E8000FB181B781800BD4604B0B0BD50000020F0
:102E900050C300000020024080B500AF084B002264
:102EA000DA61084B1A69074B04210A431A61054B82
:102EB0001A69044B40210A431A61C046BD4680BDD1
:102EC000500000200020024080B582B000AF786042
:102ED0000A4B0022DA610A4B1A69094B02210A43A4
:102EE0001A61074B7A685A61054B1A69044B4021F5
:102EF0000A431A61C046BD4602B080BD50000020A2
:102F00000020024080B586B000AF786039600023B1
:102F10007B6149E13B681B6801217A6991400A00A5
:102F20001340FB60FB68002B00D13AE13B685B6813
:102F3000012B0BD03B685B68022B07D03B685B68BA
:102F4000112B03D03B685B68122B30D17B689B68E8
:102F50003B617B695B0003229A401300DA433B69C3
:102F600013403B613B68DA687B695B009A40130061
:102F70003A6913433B617B683A699A607B685B6896
:102F80003B6101227B699A401300DA433B6913409D
:102F90003B613B685B681B0901221A407B699A40D0
:102FA00013003A6913433B617B683A695A607B6856
:102FB000DB683B617B695B0003229A401300DA43C4
:102FC0003B6913403B613B689A687B695B009A40B0
:102FD00013003A6913433B617B683A69DA603B68E6
:102FE0005B68022B03D03B685B68122B23D17B69A3
:102FF000DA087B6808329200D3583B617B6907226C
:1030000013409B000F229A401300DA433B691340A0
:103010003B613B681A697B6907210B409B009A4022
:1030200013003A6913433B617B69DA087B68083215
:1030300092003969D1507B681B683B617B695B00FA
:1030400003229A401300DA433B6913403B613B681B
:103050005B6803221A407B695B009A4013003A695F
:1030600013433B617B683A691A603B685A68802366
:103070005B05134000D194E0514B9A69504B0121FC
:103080000A439A614E4B9B6901221340BB60BB68A7
:103090004C4A7B699B0802339B009B583B617B69D0
:1030A000032213409B000F229A401300DA433B692E
:1030B00013403B617A689023DB059A420DD07B6810
:1030C000414A934207D07B68404A934201D1022390
:1030D00004E0052302E0012300E000237A690321D4
:1030E0000A40920093403A6913433B6135497B693A
:1030F0009B0802339B003A695A50354B1B683B6171
:10310000FB68DA433B6913403B613B685A688023A4
:103110005B02134003D03A69FB6813433B612C4BBD
:103120003A691A602A4B5B683B61FB68DA433B698A
:1031300013403B613B685A6880239B02134003D0D5
:103140003A69FB6813433B61214B3A695A60204B53
:103150009B683B61FB68DA433B6913403B613B681A
:103160005A6880235B03134003D03A69FB6813431A
:103170003B61174B3A699A60154BDB683B61FB6812
:10318000DA433B6913403B613B685A6880239B03E9
:10319000134003D03A69FB6813433B610C4B3A6917
:1031A000DA607B6901337B613B681A687B69DA40CE
:1031B000131E00D0AEE6C046C046BD4606B080BD78
:1031C00000100240000001400004004800080048D0
:1031D0000004014080B582B000AF786008001100A3
:1031E000BB1C021C1A807B1C0A1C1A707B1C1B78DF
:1031F000002B04D0BB1C1A887B689A6103E0BB1CBF
:103200001A887B689A62C046BD4602B080BD000045
:1032100080B582B000AF78607B68002B01D10123BC
:1032200082E07B6841229B5CDBB2002B07D17B688C
:103230004022002199547B68180004F037F97B681C
:103240004122242199547B681B681A687B681B689B
:1032500001218A431A607B685A687B681B6834497D
:103260000A401A617B681B689A687B681B68314951
:103270000A409A607B68DB68012B08D17B689A68FA
:103280007B681B68802109020A439A6007E07B681B
:103290009A687B681B68842109020A439A607B68EC
:1032A000DB68022B04D17B681B68802212015A6004
:1032B0007B681B685A687B681B681F490A435A6011
:1032C0007B681B68DA687B681B681A490A40DA6009
:1032D0007B681A697B685B691A4311007B689B698C
:1032E0001A027B681B680A43DA607B68D9697B68CD
:1032F0001A6A7B681B680A431A607B681B681A6835
:103300007B681B6801210A431A607B6800225A64AB
:103310007B684122202199547B6800221A637B68D4
:1033200042220021995400231800BD4602B080BDFE
:10333000FFFFFFF0FF7FFFFF0080000280B582B03B
:1033400000AF78607B6841229B5CDBB2202B0FD101
:103350007B684122282199547B68084A5A6380235C
:103360001A027B681100180001F01EF8002300E02B
:1033700002231800BD4602B080BDC046C13300081C
:1033800080B582B000AF7860C046BD4602B080BD57
:1033900080B582B000AF7860C046BD4602B080BD47
:1033A00080B582B000AF7860C046BD4602B080BD37
:1033B00080B582B000AF7860C046BD4602B080BD27
:1033C00080B586B000AFF860B9607A60FB68DB6AF0
:1033D0007B61BB683B61FB6840229B5C012B01D198
:1033E0000223E6E0FB684022012199543B69202238
:1033F000134009D07B682022134005D03A69FB684E
:103400001100180000F0D6FC3B691022134052D086
:103410007B68102213404ED0FB685B8D9BB2002B63
:103420002DD1FB6841229B5CDBB2282B0BD17A6942
:1034300080239B049A4206D13A69FB681100180068
:1034400000F0D8FD36E0FB6841229B5CDBB2292B03
:1034500010D17B69594A93420CD0FB681B6810223B
:10346000DA61FB68180000F028FFFB68180000F024
:103470006FFB1FE0FB681B681022DA6191E0FB68BC
:103480001B681022DA61FB685B6C04221A43FB683C
:103490005A647B69002B05D07A6980235B049A42C9
:1034A00000D07EE0FB685A6CFB681100180000F049
:1034B000F9FD76E075E03B69042213402FD07B686C
:1034C000042213402BD0FB685B8D9BB2002B18D0DD
:1034D000FB681B685A6AFB685B6AD2B21A70FB68A9
:1034E0005B6A5A1CFB685A62FB681B8D013B9AB2EF
:1034F000FB681A85FB685B8D9BB2013B9AB2FB6847
:103500005A85FB685B8D9BB2002B4CD17B692B4AA3
:10351000934248D0FB68180000F01AFB43E03B6977
:10352000082213400AD07B680822134006D03A696B
:10353000FB681100180000F025FA35E03B69022213
:10354000134031D07B68022213402DD0FB685B8D85
:103550009BB2002B18D0FB685B6A1A78FB681B686B
:103560009A62FB685B6A5A1CFB685A62FB685B8D57
:103570009BB2013B9AB2FB685A85FB681B8D013BED
:103580009AB2FB681A850FE07A6980235B049A423D
:1035900002D07B69002B07D1FB68180000F0D8FA35
:1035A00002E0C04600E0C046FB684022002199547A
:1035B00000231800BD4606B080BDC0460000FFFFD6
:1035C00090B589B002AFF860B9607A60FB684022BC
:1035D0009B5C012B01D10223E7E0FB684022012123
:1035E0009954BB681022134017D07B6810221340F7
:1035F00013D0FB681B681022DA61FB685B6C042245
:103600001A43FB685A64FB682021180000F0CCFEC6
:10361000FB68180000F051FEC2E0BB688022134036
:1036200000D17CE07B684022134000D177E0FB684A
:103630001B681A68FB681B6840218A431A60FB6894
:103640005B8D9BB2002B55D0FB681B685B689AB200
:103650001223FB189205920D1A80FB685B8D9BB2BA
:10366000FF2B06D9FB68FF221A8580235B047B6150
:1036700010E0FB685B8D9AB2FB681A85FB68DB6A19
:103680004C4A934203D0FB68DB6A7B6102E08023F3
:103690009B047B61FB681B8DDAB27C691223FB18EB
:1036A0001988F86800230093230000F047FEFB68A8
:1036B0005B8D9AB2FB681B8DD31A9AB2FB685A8550
:1036C000FB6841229B5CDBB2222B09D1FB681B68A3
:1036D0001A68FB681B68802109020A431A605FE0D0
:1036E000FB681B681A68FB681B688021C9010A43D4
:1036F0001A6055E0FB681B685A6880239B041A40D7
:1037000080239B049A4204D0FB68180000F0DEF985
:1037100046E0FB684021180000F0C4FC40E0BB68B4
:10372000402213402CD07B684022134028D0FB68F5
:103730005B8D9BB2002B1DD1FB681B685A688023F0
:103740009B041A4080239B049A4228D0FB68DB6AC2
:10375000184A934209D1FB681B685A68FB681B68CA
:103760008021C9010A435A6019E0FB68180000F083
:10377000ADF914E0FB684021180000F093FC0EE066
:10378000BB68202213400BD07B682022134007D057
:10379000BA68FB681100180000F03EFA00E0C0466D
:1037A000FB6840220021995400231800BD4607B051
:1037B00090BDC0460000FFFF80B588B000AFF86044
:1037C000B9607A60FB68DB6ABB610023FB61FB6860
:1037D00040229B5C012B01D10223CDE0FB684022FB
:1037E00001219954BB682022134009D07B68202214
:1037F000134005D0BA68FB681100180000F0DAFA2F
:10380000BB681022134000D1A3E07B681022134054
:1038100000D19EE07A688023DB01134005D17A68ED
:1038200080231B02134000D18CE0FB68DB6B002B74
:103830000CD07A6880231B02134007D0FB68DB6B37
:103840001B685B68002B01D10123FB61FB689B6B4C
:10385000002B0CD07A688023DB01134007D0FB6873
:103860009B6B1B685B68002B01D10123FB61FB692B
:10387000012B2DD1FB6841229B5CDBB2282B0BD1A5
:10388000BA6980239B049A4206D1BA68FB6811008A
:10389000180000F0AFFB54E0FB6841229B5CDBB2F8
:1038A000292B10D1BB69364A93420CD0FB681B68A8
:1038B0001022DA61FB68180000F0FFFCFB681800BA
:1038C00000F046F93DE0FB681B681022DA613EE03B
:1038D000FB681B681022DA61FB685B6C04221A43E8
:1038E000FB685A641723FB18FA684121525C1A706E
:1038F000BB69002B04D0BA6980235B049A4226D1AD
:103900001722BB181B78212B03D0BB181B78292B3F
:1039100003D1FB6821221A630BE01722BB181B7826
:10392000222B03D0BB181B782A2B02D1FB68222242
:103930001A63FB685A6CFB681100180000F0B2FBB8
:1039400005E004E0FB681B681022DA610FE0C04666
:103950000DE0BB680822134009D07B6808221340A1
:1039600005D0BA68FB681100180000F00BF8FB687E
:1039700040220021995400231800BD4608B080BDA4
:103980000000FFFFB0B584B000AF786039607B689D
:1039900041229B5CDBB21A0028231340282B00D065
:1039A00088E07B681B689B691B0CDAB20F257B19CA
:1039B00001210A401A707B681B689B691B0C9AB234
:1039C0000C203B18FE210A401A807B681B689B680C
:1039D0009AB20A243B199205920D1A807B681B68E3
:1039E000DB689AB20823FB18FE210A401A807B6824
:1039F000DB68022B48D121007B181B88DB099AB2B7
:103A00003B181B8853409BB21A000623134020D159
:103A10003B187A1812881A807B689B6C5A1C7B684A
:103A20009A647B689B6C022B4CD17B6800229A6461
:103A30007B681B680822DA617B6840220021995468
:103A40003B181A887B1919787B68180003F00AF96B
:103A500038E00C243B190822BA1812881A808023F7
:103A60001A027B681100180000F006FD7B684022F6
:103A7000002199543B191A880F23FB1819787B6889
:103A8000180003F0EFF81DE080231A027B68110094
:103A9000180000F0F1FC7B684022002199540C23AF
:103AA000FB181A880F23FB1819787B68180003F09D
:103AB000D9F807E07B681B680822DA617B6840223E
:103AC00000219954C046BD4604B0B0BD80B582B057
:103AD00000AF78607B684222002199547B684122C4
:103AE0009B5CDBB2212B17D17B68412220219954AA
:103AF0007B6811221A637B6800225A637B6801216C
:103B0000180000F0B9FC7B684022002199547B68C2
:103B10001800FFF735FC16E07B68412220219954FC
:103B20007B6812221A637B6800225A637B68022139
:103B3000180000F0A1FC7B684022002199547B68AA
:103B40001800FFF725FCC046BD4602B080BD00004E
:103B500080B584B000AF78607B681B681B68FB6031
:103B60007B68422200219954FA688023DB011340CC
:103B700008D07B681B681A687B681B6824490A4068
:103B80001A600CE0FA6880231B02134007D07B68A0
:103B90001B681A687B681B681E490A401A607B68AC
:103BA00041229B5CDBB2292B14D17B684122282166
:103BB00099547B6821221A637B680121180000F068
:103BC0005BFC7B684022002199547B68180003F05D
:103BD000ADF819E07B6841229B5CDBB22A2B13D144
:103BE0007B684122282199547B6822221A637B68D2
:103BF0000221180000F040FC7B684022002199540B
:103C00007B68180003F084F8C046BD4604B080BD50
:103C1000FFBFFFFFFF7FFFFF80B586B000AF78607A
:103C200039603B687B617B681B682022DA617B68B6
:103C300041229B5CDBB2212B08D17B68012118005B
:103C400000F01AFC7B6811221A630DE07B684122A8
:103C50009B5CDBB2222B07D17B680221180000F0AD
:103C60000BFC7B6812221A637B681B685A687B68AE
:103C70001B684E490A405A607B6800225A637B6881
:103C80004B4ADA627B691022134009D07B681B68BB
:103C90001022DA617B685B6C04221A437B685A64E9
:103CA0007B6841229B5CDBB2602B09D17B690422DB
:103CB000134005D07B681B685B6ADBB2FB60FB6866
:103CC0007B68180000F0F9FA7B685B6C3B617B68ED
:103CD00041229B5CDBB2602B02D03B69002B07D0FA
:103CE0007B685A6C7B681100180000F0DBF958E023
:103CF0007B6841229B5CDBB2212B26D17B68412271
:103D0000202199547B6800221A637B6842229B5CC5
:103D1000DBB2402B0CD17B684222002199547B6896
:103D20004022002199547B681800FFF739FB38E0E6
:103D30007B684222002199547B68402200219954DB
:103D40007B681800FFF71CFB2BE07B6841229B5C23
:103D5000DBB2222B25D17B684122202199547B683C
:103D600000221A637B6842229B5CDBB2402B0CD1A1
:103D70007B684222002199547B684022002199549B
:103D80007B681800FFF714FB0BE07B6842220021E0
:103D900099547B684022002199547B681800FFF7F2
:103DA000F7FAC046BD4606B080BDC04600E800FE3A
:103DB0000000FFFF80B586B000AF786039607B6897
:103DC0001B681B683B613B687B610F203B187A686E
:103DD0004121525C1A707B681B682022DA613B1813
:103DE0001B78212B03D03B181B78292B09D17B4A48
:103DF0007B681100180000F03FFB7B6821221A63EA
:103E000011E00F22BB181B78222B03D0BB181B78A4
:103E10002A2B08D1724A7B681100180000F02CFB95
:103E20007B6822221A637B681B685A687B681B6860
:103E3000802109020A435A607B681B685A687B68C4
:103E40001B6868490A405A607B68180000F035FA20
:103E50003A698023DB01134013D07B681B681A6822
:103E60007B681B6860490A401A607B689B6B002B6B
:103E70001FD07B689B6B1B685B689AB27B685A8516
:103E800017E03A6980231B02134012D07B681B683D
:103E90001A687B681B6855490A401A607B68DB6BAF
:103EA000002B06D07B68DB6B1B685B689AB27B6873
:103EB0005A857B690422134020D07B6904229343F6
:103EC0007B617B681B685A6A7B685B6AD2B21A7036
:103ED0007B685B6A5A1C7B685A627B681B8D002B6F
:103EE0000CD07B681B8D013B9AB27B681A857B687E
:103EF0005B8D9BB2013B9AB27B685A857B685B8D78
:103F00009BB2002B05D07B685B6C04221A437B6854
:103F10005A647B684222002199547B6800225A63CC
:103F20007B685B6C002B13D07B685A6C7B6811003C
:103F3000180000F0B7F87B6841229B5CDBB2282BAD
:103F400047D17A697B681100180000F053F840E00F
:103F50007B68DB6A264A934216D07B681800FFF71D
:103F6000F7FD7B68224ADA627B684122202199545E
:103F70007B6800221A637B684022002199547B6889
:103F8000180002F0A3FE24E07B6841229B5CDBB2B8
:103F9000222B0FD17B684122202199547B6800227B
:103FA0001A637B684022002199547B68180002F054
:103FB000AFFE0EE07B684122202199547B680022ED
:103FC0001A637B684022002199547B68180002F034
:103FD000ADFEC046BD4606B080BDC04601800000B3
:103FE0000280000000E800FEFFBFFFFFFF7FFFFF31
:103FF0000000FFFF80B582B000AF786039607B6859
:10400000264ADA627B6800221A637B6841222021FB
:1040100099547B684222002199547B6800225A639C
:104020003B680422134022D07B681B685A6A7B6875
:104030005B6AD2B21A707B685B6A5A1C7B685A62F0
:104040007B681B8D002B12D07B681B8D013B9AB2C5
:104050007B681A857B685B8D9BB2013B9AB27B685B
:104060005A857B685B6C04221A437B685A640C4A4D
:104070007B681100180000F0FFF97B681B681022B4
:10408000DA617B684022002199547B68180002F0B5
:104090001DFEC046BD4602B080BDC0460000FFFF09
:1040A0000380000080B584B000AF786039600F20D5
:1040B0003B187A684121525C1A707B6842220021C9
:1040C00099547B68624ADA627B6800225A857B6871
:1040D0005A6C3B681A437B685A643B181B78282B40
:1040E00007D03B181B78292B03D03B181B782A2BB1
:1040F0000CD17B680321180000F0BEF97B684122D7
:10410000282199547B68534A5A6312E0524A7B68CB
:104110001100180000F0B0F97B6841229B5CDBB213
:10412000602B03D07B684122202199547B680022B8
:104130005A637B681B6BBB607B689B6B002B3BD01F
:10414000BB68112B02D0BB68212B35D17B681B6863
:104150001A688023DB011A408023DB019A4207D1D1
:104160007B681B681A687B681B683C490A401A60B8
:104170007B689B6B1800FEF76EFC0300012B16D0CA
:104180007B689B6B364A5A637B68402200219954B6
:104190007B689B6B1800FEF777FB031E51D07B6892
:1041A0009B6B5A6B7B689B6B1800904749E07B6860
:1041B000180000F059F844E07B68DB6B002B3BD023
:1041C000BB68122B02D0BB68222B35D17B681B68E1
:1041D0001A6880231B021A4080231B029A4207D1CF
:1041E0007B681B681A687B681B681E490A401A6056
:1041F0007B68DB6B1800FEF72EFC0300012B16D04A
:104200007B68DB6B164A5A637B6840220021995415
:104210007B68DB6B1800FEF737FB031E13D07B684F
:10422000DB6B5A6B7B68DB6B180090470BE07B689D
:10423000180000F019F806E07B68180000F014F888
:1042400002E0C04600E0C046C046BD4604B080BDA6
:104250000000FFFFC133000803800000FFBFFFFF25
:10426000FF420008FF7FFFFF80B582B000AF78609B
:104270007B6841229B5CDBB2602B0FD17B684122C3
:10428000202199547B6800221A637B684022002118
:1042900099547B68180002F0DDFC0AE07B6800227C
:1042A0001A637B684022002199547B68180002F051
:1042B000FFFCC046BD4602B080BD80B582B000AFF5
:1042C00078607B681B689B6902221340022B03D134
:1042D0007B681B6800229A627B681B689B690122CD
:1042E0001340012B07D07B681B689A697B681B68A9
:1042F00001210A439A61C046BD4602B080BD80B527
:1043000084B000AF78607B685B6AFB60FB689B6B86
:10431000002B03D0FB689B6B00225A63FB68DB6BAE
:10432000002B03D0FB68DB6B00225A63FB6818008C
:10433000FFF79AFFC046BD4604B080BD90B585B07A
:1043400000AFF860080011007B600A243B19021CD2
:104350001A8009203B180A1C1A70FB681B685B68EE
:104360003A6A510D8022D2000A400E490A43D243D4
:104370001A4011003B191B889B059A0D3B181B78AE
:104380001804FF231B0403401A437B681A433B6A4B
:104390001A43FB681B680A435A60C046BD4605B015
:1043A00090BDC046FF63FF0380B584B000AF786066
:1043B0000A00BB1C1A800023FB607B685A6B2C4BE5
:1043C0009A4204D07B685A6B2A4B9A4221D1BB1C7B
:1043D00000229B5E002B03DAFB68B8221343FB60CC
:1043E000BB1C1B88102B03D1FB6890221343FB607E
:1043F000BB1C1B88202B03D1FB6860221343FB608E
:10440000BB1C1B88402B27D1FB6840221343FB6059
:1044100022E0BB1C00229B5E002B03DAFB68B82263
:104420001343FB60BB1C1B880122134003D0FB68B5
:10443000F2221343FB60BB1C1B880222134003D0F3
:10444000FB68F4221343FB60BB1C1B88202B03D1A9
:10445000FB6820221343FB607B681B6819687B683C
:104460001B68FA680A431A60C046BD4604B080BDA6
:10447000C1350008B937000880B584B000AF786056
:104480000A00BB1C1A800023FB60BB1C1B88012296
:10449000134010D0FB6842221343FB607B6841222B
:1044A0009B5CDBB21A0028231340282B03D0FB6847
:1044B000B0221343FB60BB1C1B880222134010D0A8
:1044C000FB6844221343FB607B6841229B5CDBB2A8
:1044D0001A0028231340282B03D0FB68B022134373
:1044E000FB60BB1C00229B5E002B03DAFB68B8223A
:1044F0001343FB60BB1C1B88102B03D1FB6890226D
:104500001343FB60BB1C1B88202B03D1FB682022BC
:104510001343FB60BB1C1B88402B03D1FB6840226C
:104520001343FB607B681B681A68FB68D9437B6890
:104530001B680A401A60C046BD4604B080BD00003A
:1045400080B582B000AF786039607B6841229B5CA7
:10455000DBB2202B38D17B6840229B5C012B01D140
:10456000022332E07B684022012199547B6841227A
:10457000242199547B681B681A687B681B68012199
:104580008A431A607B681B681A687B681B6811493C
:104590000A401A607B681B6819687B681B683A6868
:1045A0000A431A607B681B681A687B681B680121D4
:1045B0000A431A607B684122202199547B6840227B
:1045C00000219954002300E002231800BD4602B0E8
:1045D00080BDC046FFEFFFFF80B584B000AF7860BC
:1045E00039607B6841229B5CDBB2202B39D17B6830
:1045F00040229B5C012B01D1022333E07B684022E7
:10460000012199547B684122242199547B681B68BD
:104610001A687B681B6801218A431A607B681B68E3
:104620001B68FB60FB68114A1340FB603B681B0280
:10463000FA681343FB607B681B68FA681A607B6842
:104640001B681A687B681B6801210A431A607B6833
:104650004122202199547B68402200219954002353
:1046600000E002231800BD4604B080BDFFF0FFFF4C
:1046700080B588B000AF78607B68002B02D1012341
:1046800000F076FB7B681B680122134000D18EE0AE
:10469000C54B5B680C221340042B0ED0C24B5B68E9
:1046A0000C221340082B17D1BF4B5A68C0235B0262
:1046B0001A4080235B029A420ED1BB4B1A688023BA
:1046C0009B02134000D171E07B685B68002B00D037
:1046D0006CE0012300F04CFB7B685B68012B07D189
:1046E000B14B1A68B04B802149020A431A602FE08F
:1046F0007B685B68002B0CD1AB4B1A68AA4BAB49AB
:104700000A401A60A84B1A68A74BA9490A401A60C8
:104710001EE07B685B68052B0ED1A34B1A68A24B89
:104720008021C9020A431A609F4B1A689E4B802160
:1047300049020A431A600BE09B4B1A689A4B9B494B
:104740000A401A60984B1A68974B99490A401A60B8
:104750007B685B68002B14D0FCF7B8FB0300BB61DF
:1047600008E0FCF7B3FB0200BB69D31A642B01D944
:104770000323FDE28C4B1A6880239B021340F0D088
:1047800015E0FCF7A3FB0300BB6108E0FCF79EFB10
:104790000200BB69D31A642B01D90323E8E2824BE0
:1047A0001A6880239B021340F0D100E0C0467B686A
:1047B0001B680222134000D16CE07B4B5B680C222B
:1047C00013400ED0784B5B680C221340082B1FD18E
:1047D000754B5A68C0235B021A4080231B029A4221
:1047E00016D1714B1B680222134005D07B68DB6831
:1047F000012B01D00123BBE26B4B1B68F8229343D2
:1048000019007B681B69DA00674B0A431A6041E0B4
:104810007B68DB68002B24D0634B1A68624B012154
:104820000A431A60FCF752FB0300BB6108E0FCF787
:104830004DFB0200BB69D31A022B01D9032397E277
:10484000594B1B6802221340F1D0574B1B68F822CA
:10485000934319007B681B69DA00534B0A431A60C3
:1048600018E0514B1A68504B01218A431A60FCF73B
:104870002DFB0300BB6108E0FCF728FB0200BB69CD
:10488000D31A022B01D9032372E2474B1B68022281
:104890001340F1D17B681B680822134036D07B6837
:1048A000DB69002B19D0404B5A6A3F4B01210A4368
:1048B0005A62FCF70BFB0300BB6108E0FCF706FB48
:1048C0000200BB69D31A022B01D9032350E2364BF5
:1048D0005B6A02221340F1D018E0334B5A6A324B24
:1048E00001218A435A62FCF7F1FA0300BB6108E038
:1048F000FCF7ECFA0200BB69D31A022B01D903239F
:1049000036E2294B5B6A02221340F1D17B681B68B7
:104910000422134000D1B5E01F203B1800221A707A
:10492000214BDA6980235B05134010D11E4BDA69F5
:104930001D4B802149050A43DA611B4BDA6980234C
:104940005B051340FB60FB683B1801221A70194B92
:104950001A6880235B0013401AD1164B1A68154B56
:10496000802149000A431A60FCF7B0FA0300BB61DA
:1049700008E0FCF7ABFA0200BB69D31A642B01D93B
:104980000323F5E10B4B1A6880235B001340F0D042
:104990007B689B68012B0FD1034B1A6A024B0121E4
:1049A0000A431A6236E0C04600100240FFFFFEFFD5
:1049B000FFFFFBFF007000407B689B68002B0CD161
:1049C000CA4B1A6AC94B01218A431A62C74B1A6A39
:1049D000C64B04218A431A621CE07B689B68052B46
:1049E0000CD1C24B1A6AC14B04210A431A62BF4B55
:1049F0001A6ABE4B01210A431A620BE0BB4B1A6ACA
:104A0000BA4B01218A431A62B84B1A6AB74B042188
:104A10008A431A627B689B68002B14D0FCF756FA15
:104A20000300BB6109E0FCF751FA0200BB69D31A2D
:104A3000AF4A934201D903239AE1AC4B1B6A02228D
:104A40001340F0D013E0FCF741FA0300BB6109E02A
:104A5000FCF73CFA0200BB69D31AA54A934201D97C
:104A6000032385E1A14B1B6A02221340F0D11F23CF
:104A7000FB181B78012B05D19C4BDA699B4B9D4998
:104A80000A40DA617B681B681022134063D07B68A0
:104A90005B69012B2AD1954B5A6B944B04210A4335
:104AA0005A63924B5A6B914B01210A435A63FCF7AC
:104AB0000DFA0300BB6108E0FCF708FA0200BB69CD
:104AC000D31A022B01D9032352E1884B5B6B0222DC
:104AD0001340F1D0854B5B6BF822934319007B6840
:104AE0009B69DA00814B0A435A6334E07B685B6957
:104AF000053311D17D4B5A6B7C4B04218A435A6399
:104B00007A4B5B6BF822934319007B689B69DA0050
:104B1000764B0A435A631EE0744B5A6B734B042165
:104B20000A435A63714B5A6B704B01218A435A6393
:104B3000FCF7CCF90300BB6108E0FCF7C7F9020001
:104B4000BB69D31A022B01D9032311E1674B5B6BBD
:104B500002221340F1D17B681B68202213405CD0F5
:104B6000624B5B680C2213400C2B0ED05F4B5B68D2
:104B70000C221340082B14D15C4B5A68C0235B02F3
:104B80001A40C0235B029A420BD1584B5A6B8023C8
:104B90005B02134040D07B681B6A012B3CD0012391
:104BA000E6E07B681B6A002B1BD0504B5A6B4F4BC7
:104BB000802149020A435A63FCF788F90300BB616C
:104BC00008E0FCF783F90200BB69D31A022B01D974
:104BD0000323CDE0454B5A6B80235B021340F0D09A
:104BE0001BE0424B5A6B414B43490A405A63FCF766
:104BF0006DF90300BB6108E0FCF768F90200BB69CE
:104C0000D31A022B01D90323B2E0384B5A6B80230D
:104C10005B021340F0D100E0C0467B685B6A002B6A
:104C200000D1A4E0314B5B680C221340082B00D16B
:104C300078E07B685B6A022B4CD12C4B1A682B4BBB
:104C40002E490A401A60FCF741F90300BB6108E0F5
:104C5000FCF73CF90200BB69D31A022B01D90323EC
:104C600086E0224B1A6880239B041340F0D11F4B2F
:104C7000DB6A0F22934319007B681A6B1B4B0A43B4
:104C8000DA621A4B5B681E4A134019007B68DA6AC5
:104C90007B689B6A1A43154B0A435A60134B1A6888
:104CA000124B802149040A431A60FCF70FF90300F4
:104CB000BB6108E0FCF70AF90200BB69D31A022BBA
:104CC00001D9032354E0094B1A6880239B04134045
:104CD000F0D04CE0054B1A68044B08490A401A60B2
:104CE000FCF7F4F80300BB6115E0C0460010024079
:104CF00088130000FFFFFFEFFFFFFEFFFFFFFFFE37
:104D0000FF7FC2FFFCF7E2F80200BB69D31A022B57
:104D100001D903232CE0184B1A6880239B0413400D
:104D2000F0D124E07B685B6A012B01D101231FE0F5
:104D3000114B5B687B61104BDB6A3B617A69C02376
:104D40005B021A407B689B6A9A420ED13B690F2234
:104D50001A407B681B6B9A4207D17A69F0239B0348
:104D60001A407B68DB6A9A4201D0012300E00023ED
:104D70001800BD4608B080BD0010024080B584B068
:104D800000AF786039607B68002B01D10123BFE060
:104D9000614B1B68012213403A689A4211D95E4B5D
:104DA0001B680122934319005B4B3A680A431A605F
:104DB000594B1B68012213403A689A4201D00123E3
:104DC000A6E07B681B680222134015D07B681B6835
:104DD0000422134006D0514B5A68504BE021C900C1
:104DE0000A435A604D4B5B68F022934319007B687D
:104DF0009A684A4B0A435A607B681B680122134039
:104E00004CD07B685B68012B07D1444B1A68802328
:104E10009B02134020D101237AE07B685B68022B60
:104E200007D13E4B1A6880239B04134014D1012301
:104E30006EE07B685B68032B07D1384B5A6B80238D
:104E40005B02134008D1012362E0344B1B6802224D
:104E5000134001D101235BE0304B5B680322934395
:104E600019007B685A682D4B0A435A60FCF72EF8EC
:104E70000300FB6009E0FCF729F80200FB68D31A85
:104E8000274A934201D9032342E0244B5B680C225A
:104E90001A407B685B689B009A42ECD11E4B1B68F2
:104EA000012213403A689A4211D21B4B1B6801221F
:104EB00093431900184B3A680A431A60164B1B6853
:104EC000012213403A689A4201D0012320E07B6816
:104ED0001B680422134009D0104B5B68114A134031
:104EE00019007B68DA680D4B0A435A6000F020F81D
:104EF00001000A4B5B681B090F2213400A4AD35C6E
:104F00000A00DA40094B1A600020FBF799FF0023E2
:104F10001800BD4604B080BD0020024000100240D1
:104F200088130000FFF8FFFF2C7A000828000020FB
:104F300090B58FB000AF1423FB18384A13CA13C3BF
:104F400012681A603B1D364A13CA13C312681A60EE
:104F50000023FB620023BB6200237B6300237B6290
:104F600000233B632F4B5B68FB62FB6A0C22134000
:104F70000C2B47D049D8042B02D0082B03D044E097
:104F8000294B3B6344E0FB6A9B0C0F221340142225
:104F9000BA18D35C7B62234BDB6A0F2213403A1DA5
:104FA000D35CBB62FA6AC0235B021A4080235B02B7
:104FB0009A4209D1B96A1C48FBF7A6F803001A0007
:104FC0007B6A53437B631AE0FA6AC0235B021A4090
:104FD000C0235B029A4209D1B96A1448FBF794F8DE
:104FE00003001A007B6A53437B6308E0B96A1048E8
:104FF000FBF78AF803001A007B6A53437B637B6BE1
:105000003B6305E0094B3B6302E0094B3B63C04651
:105010003B6B1800BD460FB090BDC046F47700084A
:1050200004780008001002400024F400006CDC0248
:1050300000127A0080B586B000AF786000233B6133
:105040000023FB607B681A6880235B02134000D159
:105050008EE017203B1800221A70674BDA69802314
:105060005B05134010D1644BDA69634B802149051D
:105070000A43DA61604BDA6980235B051340BB6049
:10508000BB683B1801221A705C4B1A6880235B00D6
:1050900013401AD1594B1A68584B802149000A43D2
:1050A0001A60FBF713FF03003B6108E0FBF70EFFFC
:1050B00002003B69D31A642B01D9032397E04F4BBD
:1050C0001A6880235B001340F0D04B4B1A6AC02350
:1050D0009B001340FB60FB68002B34D07B685A6850
:1050E000C0239B001340FA689A422CD0424B1B6AA3
:1050F000434A1340FB60404B1A6A3F4B80214902F0
:105100000A431A623C4B1A6A3B4B3E490A401A62F8
:10511000394BFA681A62FB680122134013D0FBF77F
:10512000D5FE03003B6109E0FBF7D0FE02003B69BE
:10513000D31A354A934201D9032358E02E4B1B6AF8
:1051400002221340F0D02C4B1B6A2D4A1340190049
:105150007B685A68284B0A431A621723FB181B788E
:10516000012B05D1244BDA69234B28490A40DA6127
:105170007B681B680122134009D01F4B1B6B032265
:10518000934319007B689A681B4B0A431A637B6838
:105190001B682022134009D0174B1B6B102293432E
:1051A00019007B68DA68144B0A431A637B681A6833
:1051B00080239B02134009D00F4B1B6B802293432B
:1051C00019007B685A690C4B0A431A637B681A689A
:1051D0008023DB00134009D0074B1B6B4022934315
:1051E00019007B681A69044B0A431A6300231800EC
:1051F000BD4606B080BDC0460010024000700040B1
:10520000FFFCFFFFFFFFFEFF88130000FFFFFFEF23
:1052100080B586B000AFF8607A600B203B180A1C9E
:105220001A70194BFA681A603B181A78164B1A61F3
:105230001723FB1800221A700EE017203B181B786A
:105240007A68D2183B181B781178104AD1543B1851
:105250001A783B1801321A701723FA180B23FB181F
:1052600012781B789A42E8D3094B084A0649094844
:10527000FCF730FD031E02D0074B0B221A700123EE
:105280001800BD4606B080BDC40100200002002009
:1052900008020020000100201C02002080B500AFA1
:1052A000C046BD4680BDB0B588B000AF7860102163
:1052B0007B1801229A607B187A685A607B1800225A
:1052C0001A601F257C190C23FA187B18110018008E
:1052D000FDF76CFD030023707B191B78002B01D0B8
:1052E00001F0BCFFC046BD4608B0B0BD90B583B06C
:1052F00000AFFC1DFDF7C0FC03002370FB1D1B78F5
:10530000002B01D001F0AAFFC046BD4603B090BDFE
:1053100080B584B000AF78607B681B681B68FB6059
:105320007B681B681A1D7B681A60FB681800BD4605
:1053300004B080BDB0B584B000AF786039607968E2
:10534000096838680200002003000F257C1902203C
:10535000FDF7D6FB030023707B191B78002B01D0CF
:1053600001F07CFF7B681B681A1D7B681A60C046D1
:10537000BD4604B0B0BD90B583B000AFFC1DFDF7D5
:1053800055FC03002370FB1D1B78002B01D001F09E
:1053900065FFC046BD4603B090BD000080B582B039
:1053A00000AF7860144B1B687A68D21AFA239B000E
:1053B0009A4217D9114B1A6813005B019B1A9B0084
:1053C0009B18DB0018000C4B1B687A68D31A190075
:1053D000FAF79AFE03009AB2094B1A80064B7A68D4
:1053E0001A6004E0054B1B685A1C044B1A60C04647
:1053F000BD4602B080BDC04678000020700000208D
:105400007400002080B500AF024B1B881800BD4619
:1054100080BDC04674000020B0B58EB000AFFBF771
:10542000FBFC00F0CBFD00F061FF00F041FF00F05D
:105430002BFE00F0FDFE00F0C3FED34B012208213D
:105440001800FDF7C7FEFA239B001800FBF748FD84
:10545000CD4B002208211800FDF7BCFEC820FBF749
:105460003FFD01F0ABFB01F045F901F05DFB031ED0
:1054700001D001F0CFF8C54B1B78632B08D8C44B83
:105480001800FDF75BFF031E02D0C04B91221A707B
:10549000BE4B1B78632B22D825257C19BD49BE4BFA
:1054A00006221800FBF780FE030023707B191B788F
:1054B000032B0FD013DC022B08D010DC002B0DD0F7
:1054C000012B0CD1B14B69221A7008E0AF4B0322BB
:1054D0001A7004E0AD4B04221A7000E0C04601F0DF
:1054E00035FBAE4B1B78002B00D10DE2AC4B1B788B
:1054F0009AB2AC4B1A80AB4B1B88552B0BDC042BA0
:1055000000DA95E1043B512B00D991E19A00A64BBA
:10551000D3181B689F46FF2B00D1C5E088E100F03F
:10552000ABFFCEE1A14B01221A70CAE1A04B0122D0
:105530001A70C6E19F4B1B68002B04D09D4B1B6863
:10554000013300D0B0E19C4B23221A709B4B1B7897
:105550001A009B4B5200D35A1800974B1A00012196
:10556000FFF756FE03001A0001235340DBB2002B65
:1055700000D199E1854B07221A7095E18E4B1A22D2
:105580001A708D4B09225A708B4B00229A708B4BEC
:105590001B781A008B4B5200D35A1800864B1A0006
:1055A0000321FFF735FE03001A0001235340DBB24D
:1055B000002B00D17AE1754B25221A7076E17E4BE3
:1055C00031221A70FFF71EFF0300DAB27A4B5A70CD
:1055D000FFF718FF03001B0A9BB2DAB2764B9A70F2
:1055E000764B1B781A00774B5200D35A1800724B37
:1055F0001A000321FFF70CFE03001A000123534099
:10560000DBB2002B00D153E1604B25221A704FE131
:10561000634B5B78082B03D95C4B32221A7050E144
:105620005F4B5A78654B1A7001F0E4F9634B1B78B5
:105630001A00634B5200D35A180001F095F940E16B
:10564000002001F0E3FD3CE1012001F0DFFD38E145
:10565000594B33221A705C4B1A78574B5A70574B80
:105660001B781A00574B5200D35A1800524A622333
:10567000022101F0DDF9031E00D01BE1434B612242
:105680001A7017E1464B5A78504B1A7019E1444B87
:105690005B781AB2424B9B781B021BB213431BB2BE
:1056A0009AB24B4B1A800CE1434BFF221A70434BCA
:1056B0001B781A00434B5200D35A18003E4B1A0075
:1056C0000121FFF7A5FD03001A0001235340DBB2BF
:1056D000002B00D1F0E02D4B07221A70ECE0364B86
:1056E000FF221A703B4B344A3B493C48FCF7F2FA24
:1056F000031E00D1E2E0254B5C221A70DEE0FDF7CC
:1057000004F8DEE0364B01221A70364B00221A7084
:10571000354B06221A70D4E0314B01221A70314BFE
:1057200001221A70314B01221A70CAE0304B01225B
:105730001A702C4B00221A702B4B06221A70C0E0F4
:105740002B4B01221A70274B00221A70264B06227F
:105750001A70194B41221A70184B1B781A00194BFA
:105760005200D35A1800144B1A000121FFF750FDC4
:1057700003001A0001235340DBB2002B00D19FE04D
:10578000024B39221A709BE0000400481C020020E2
:1057900028010020740100207C0000206C02002001
:1057A000F801002098010020C87800089601002028
:1057B00016020020180200200002002094010020A0
:1057C000A8780008B8780008190000206D020020B1
:1057D0001A00002008020020C4010020000100205F
:1057E0006402002066020020060000201400002051
:1057F000650200208C4B01221A708C4B01221A701A
:105800008B4B01221A708B4B01221A7059E0864B88
:1058100001221A70854B01221A70854B01221A70E1
:10582000844B00221A704CE07F4B00221A7048E033
:10583000814B27221A700C23F918804A0B0031CAB9
:1058400031C30B000C3308220021180001F090FF37
:105850007B4B1B8818000823FB181022190001F04D
:105860004EFF3723FB1800221A7010E037203B1838
:105870001A783B181B78013308217918895C0C22AF
:10588000BA18D1543B181A783B1801321A703723D2
:10589000FB181B78022BE9D90C23FB18180001F028
:1058A00055FC0EE0C0460CE0C0460AE0C04608E0E9
:1058B000C04606E0C04604E0C04602E0C04600E044
:1058C000C046604B1B69022B1BD95D4B1B88102BFC
:1058D0000BD05B4B1B88142B07D0594B1B88172B05
:1058E00003D0574B1B88182B0BD1574B5B781AB240
:1058F000554B9B781B021BB213431BB29AB2534BFE
:105900001A80534B00221A7000233B6356E0514B20
:105910001B78002B12D04F4B1B78022B05D14E4B1E
:105920003A6B52004D49D15208E04A4B1B78012B8B
:1059300004D1494B3A6B52000021D152454B1B78A0
:10594000012B16D0022B29D1454B3A6B5200D35A6A
:105950001AB2414B396B4900CB5E9A4228DA404B70
:105960003A6B5200D35A19B23B4B3A6B5200D152A8
:105970001EE03B4B3A6B5200D35A1AB2364B396B8E
:105980004900CB5E9A4215DD354B3A6B5200D35A33
:1059900019B2314B3A6B5200D1520BE0304B3A6B9B
:1059A0005200D35A19B22C4B3A6B5200D15202E03A
:1059B000C04600E0C0463B6B01333B633B6B052BAD
:1059C000A5DD244B1B78002B02D0224B00221A703D
:1059D00001F0BAF903001AB2224B1A80124B1B785D
:1059E000002B04D1204B1B78002B00D186E1FBF764
:1059F0006DFA02001D4B1B68D31A144A1288934299
:105A000000D87BE1184B00221A70084B1B78002B42
:105A100000D1DFE02F23FB1800221A702E23FB1881
:105A200000221A7044E0C046650200206602002091
:105A300014000020050000201C020020147800083B
:105A400098010020DC010020F80100201A0000204D
:105A50006C02002018000020800100200F270000A9
:105A6000740100206202002064020020680200200D
:105A70002E257B191C787B191B78180001F028F85B
:105A800003001A003B001A557B191B783A00D25CC0
:105A90007B191B78DE49CB5C9A4203D02F23FB187D
:105AA00001221A702E217B181A787B1801321A7085
:105AB0002E23FB181B78052B07D82F23FB181B78E8
:105AC00001225340DBB2002BD2D12F23FB181B78CD
:105AD000002B0CD1CF4B00229B5E1A00CE4B1B88B3
