:020000040800F2
:10000000FF170020917200088D7100089771000899
:1000100000000000000000000000000000000000E0
:100020000000000000000000000000009D710008BA
:100030000000000000000000A7710008B171000876
:100040001173000811730008117300081173000880
:100050001173000811730008117300081173000870
:1000600011730008C17100081173000811730008B2
:10007000D97100081173000811730008117300088A
:100080001173000800000000000000001173000858
:1000900000000000117300081173000811730008BC
:1000A00000000000117300081173000811730008AC
:1000B0001173000800000000F171000811730008BE
:1000C00010B5064C2378002B07D1054B002B02D02E
:1000D000044800E000BF0123237010BD3800002059
:1000E000000000001C740008044B10B5002B03D066
:1000F0000349044800E000BF10BDC04600000000F6
:100100003C0000201C740008002243088B4274D37A
:1001100003098B425FD3030A8B4244D3030B8B4208
:1001200028D3030C8B420DD3FF22090212BA030C11
:100130008B4202D31212090265D0030B8B4219D3F2
:1001400000E0090AC30B8B4201D3CB03C01A524112
:10015000830B8B4201D38B03C01A5241430B8B425A
:1001600001D34B03C01A5241030B8B4201D30B0343
:10017000C01A5241C30A8B4201D3CB02C01A52416A
:10018000830A8B4201D38B02C01A5241430A8B422D
:1001900001D34B02C01A5241030A8B4201D30B0216
:1001A000C01A5241CDD2C3098B4201D3CB01C01A30
:1001B000524183098B4201D38B01C01A524143093A
:1001C0008B4201D34B01C01A524103098B4201D328
:1001D0000B01C01A5241C3088B4201D3CB00C01A95
:1001E000524183088B4201D38B00C01A524143080D
:1001F0008B4201D34B00C01A5241411A00D2014632
:10020000524110467047FFE701B5002000F006F8A4
:1002100002BDC0460029F7D076E770477047C04658
:100220008446101C62468C46191C634600E0C0469A
:100230001FB500F02BFD002801D40021C8421FBDCE
:1002400010B500F083FC4042013010BD10B500F045
:100250001DFD002801DB002010BD012010BDC0469F
:1002600010B500F013FD002801DD002010BD0120B5
:1002700010BDC04610B500F0A5FC002801DC002030
:1002800010BD012010BDC04610B500F09BFC002839
:1002900001DA002010BD012010BDC0468446081CB4
:1002A0006146FFE71FB500F0D3F9002801D4002113
:1002B000C8421FBD10B500F055F94042013010BDD5
:1002C00010B500F0C5F9002801DB002010BD0120A9
:1002D00010BDC04610B500F0BBF9002801DD0020BC
:1002E00010BD012010BDC04610B500F063F9002814
:1002F00001DC002010BD012010BDC04610B500F08B
:1003000059F9002801DA002010BD012010BDC046B7
:100310009E2110B5C905041CFFF7F0FF002803D18A
:10032000201C00F0A9FB10BD9E21201CC90500F077
:10033000DFF900F0A1FB80231B069C466044F2E736
:10034000F8B557464E464546DE464402E0B54600FF
:100350008846640A360EC70F002E63D0FF2E24D0C5
:100360008023E400DB041C43002399469B467F3E28
:10037000434642465D02D20F5B006D0A1B0E90465B
:10038000924665D0FF2B55D080220021ED00D2048B
:100390007F3B1543F61A43464A467B400F2A00D955
:1003A0008DE06D48920082589746002C54D1082366
:1003B0009946063BFF269B46DAE70025534602296D
:1003C0001BD0032900D1BFE0012928D030007F30A5
:1003D000002820DD6A0704D00F222A40042A00D01A
:1003E00004352A0103D530005C4A80301540FE28D0
:1003F00003DCAC01640AC2B201E0FF220024640203
:10040000D205600ADB07104318433CBC904699466E
:10041000A246AB46F8BD0122101A1B287CDD002243
:100420000024ECE7002C1DD104239946033B002651
:100430009B469DE7FF3E002D20D1022143464A46C0
:100440007B400A430F2AD8D84548920082589746E5
:10045000002D19D10121F1E70C239946093BFF2614
:100460009B4685E7200000F0E9FC7626431F9C4070
:1004700000237642361A99469B4679E74A4603237B
:100480001A439146032186E7280000F0D7FC431F5A
:1004900036189D40763600217DE780240023E40352
:1004A000FF22ACE700258023DB031C4228D01D423D
:1004B00026D12B435C02640A4346FF229FE7620178
:1004C0006C01A24224D21B210025013E012710000D
:1004D0006D005200002801DB944201D8121B3D43FD
:1004E00001390029F3D11400621E944125436DE7C0
:1004F000BA46594625005346022900D061E77CE7F9
:100500008023DB031C436402640A3B00FF2276E77E
:10051000121B1A210125D9E79E362A00B5402C006E
:10052000C240651EAC411443620704D00F22224032
:10053000042A00D00434620103D4A401640A002216
:100540005DE7012200245AE78024E4032C4364027F
:10055000640AFF2253E7C04668740008FFFFFFF7F4
:10056000A874000870B542004E024C0045026D0AA6
:10057000120EC30F760A240EC90FFF2A0FD0FF2CCC
:1005800011D00120A24200D070BDB542FCD18B42F7
:100590000DD0002AF8D12800451EA841F4E701201B
:1005A000002DF1D1EBE70120002EEDD1E9E700208D
:1005B000EAE7C04670B54A004E02450244006D0AA3
:1005C000240EC30F760A120EC90FFF2C15D0FF2A76
:1005D0000ED0002C15D1002A01D1002E1CD0002DE8
:1005E00014D08B4227D00220013B1840013870BD47
:1005F000002EEED002204042F9E7002DFAD1FF2A6A
:100600000ED0002A0ED1002EEDD00BE001230139CF
:10061000994308000130EAE70020002DE7D0E2E727
:10062000002EE7D18B42DED1944205DD0221581E17
:1006300008400138DBE70024A24204DCB542D2D8EE
:100640000020B542D3D2581E012398430130CEE793
:1006500030B5420044024D02C30F4800640A120E36
:100660006D0A000EC90FFF2A12D0FF280CD0002AF5
:1006700012D1002819D1002D17D1002C2BD0022027
:10068000013B1840013826E0002DF0D0022022E086
:10069000002CFBD1FF281FD000281FD1002D1DD119
:1006A0000220013B1840013815E0002C0ED08B428F
:1006B000E5D10022904204DCAC42E0D80020AC42FC
:1006C00009D2581E01239843013004E00123013967
:1006D00099430800013030BD002DD7D18B42CED1D7
:1006E0008242E7DD0221581E08400138F3E7C04688
:1006F000F8B54746CE464400C20F80B547024802CF
:10070000400A8446664648007F0A240EF60025000B
:100710009046FB00000EC90FB146FF2800D185E0CE
:1007200001267140261A914257D0002E43DD002841
:1007300000D07FE04946002900D1AAE0013E002E0A
:1007400000D0F7E05B1A5A0100D48BE09B019C09B2
:10075000200000F073FB05388440854200DDD3E0C3
:10076000451B230020200135EB40451BAC40621E99
:1007700094412343072400251C40012241460A409E
:10078000002C04D00F211940042900D00433590152
:1007900000D480E00135ECB2FF2D00D0A3E0FF24AF
:1007A00000235B02E405580AD207204310430CBC27
:1007B00090469946F8BD002E74D1601CC0B2012845
:1007C00000DCA7E04A469C1A620100D5B6E0002C86
:1007D000BED1002200240023E3E7002E00DC85E0E8
:1007E000002846D0FF2C49D080224846D20410432E
:1007F000814601221B2E09DC20204C46801B8440B0
:100800004A462000F240441EA04102439B185A0170
:1008100028D50135FF2D00D1A8E0012207249449F5
:100820001A405B080B4013431C40A6E7002E00D083
:1008300078E775E7FF2C54D080224946D204114353
:10084000894601221B2E09DC20214846891B88404D
:100850004A460100F240481E81410A439B1A5A0150
:1008600000D573E7012241460A40590700D089E7C5
:1008700011E04846002858D1FF2C0CD1DB08002B92
:1008800000D18CE78020C00303435B025B0AFF2496
:1008900087E7FF2C25D0DB08FF2DF0D05B025B0A39
:1008A000ECB27EE7002C4DD0FF2818D08024E40461
:1008B000724223431B2A00DDC4E01C002025D440E3
:1008C000AA1A93405A1E934123434A460500D31A5D
:1008D000884638E7721CF8D0F243FF28EAD10A00B4
:1008E0004B46FF25D7E79B015B0A5AE7002E41D113
:1008F000651CE9B2012945DDFF2D00D14FE7072432
:100900004B445B081C4038E707225A4B2D1A234002
:10091000144032E7002C1DD1002B7AD14B46002B1E
:1009200000D191E00A000025B5E7013E002E19D163
:100930004B446CE7FF2C84D1FF25ACE74A46884640
:10094000D41A05E7002BC5D10A00FF28C8D005003E
:100950004B46A0E7002B49D14B46002B77D00A002D
:10096000FF2598E7FF2C00D043E787E70A00FF2424
:10097000002316E7002C15D1002B57D1FF28E6D114
:100980004B467BE7002C20D1002B57D0494600294D
:1009900053D04B445A0168D50724364A1C400125E0
:1009A0001340EAE6FF28EBD08022D20476421343BC
:1009B0001B2E53DC2025AD1B1A00AB40F2405C1E01
:1009C000A34113434B44050021E7002BD8D04946EF
:1009D000002900D152E78021C9030F4200D14DE721
:1009E0006046084200D049E74B4647E74846FF25A6
:1009F000002800D14FE78022D203174204D060467E
:100A0000104201D14B46884601224146FF250A404B
:100A100041E7484600281FD01A1A500120D54A46FF
:100A20000724D31A1C4088460025A6E6741CC9D0AA
:100A3000F643FF28BCD14B4620E799464B4600259C
:100A4000DB082BE7012340E700220023A9E68023EF
:100A50000022DB03FF24A4E600251CE70123B1E705
:100A6000002AF1D013000025FCE60025FAE6C04676
:100A7000FFFFFF7DFFFFFFFB41024200C30F490A5A
:100A8000120E00207E2A0DD99D2A0CD88020000449
:100A90000143952A0ADC9620821AD1404842002B55
:100AA00000D108007047034A9818FBE7963A914036
:100AB000F4E7C046FFFFFF7F70B500283DD0C317A5
:100AC000C5185D40C40F280000F0B8F99E22121A24
:100AD000962A07DCD2B2082833DD08388540680240
:100AE000400A23E0992A0BDD052329001B1AD9406F
:100AF00003001B339D402B005D1EAB4119430D00CD
:100B0000052801DD431F9D402B000F490B406E0758
:100B100009D00F263540042D05D004335D0102D5E0
:100B20009F220B40121A9B01580AD2B24002D205F2
:100B3000400AE4071043204370BD00240022002037
:100B4000F4E76802400AF1E7FFFFFFFBF0B54F460C
:100B50004646D6468446C0B58046194E18030F0354
:100B60004D00000B5C0082463F0B6D0DC90F914696
:100B7000640DDB0F0120B5420AD0B44203D0A54278
:100B800001D157450CD01CBC90469946A246F0BDF9
:100B900066463E43F7D1AC42F5D154461443F2D1F8
:100BA0000120C845EFD1994207D0002DEBD1634613
:100BB0001F433800471EB841E5E70020E3E7C04681
:100BC000FF070000F0B54F464646D6464D00C0B57B
:100BD0000E03C90F8A462C491F035C008046360B62
:100BE0006D0D91463F0B640DDB0F8D421ED08C4284
:100BF00016D0002D1ED130438446002C01D13A433B
:100C000023D06246002A1AD09A4529D051460220A4
:100C10000139084001381CBC90469946A246F0BDF7
:100C200039001143E5D002204042F4E73043FAD1C5
:100C3000AC420FD0002C0FD13A43E7D00CE0012298
:100C4000013B934318000130E5E763460020002B89
:100C5000E1D0DBE73A43E6D19A45D7D1A542D5DCCE
:100C6000A54205DBBE42D1D808D00020BE42D2D278
:100C700050460123013898430130CCE7C845C5D818
:100C80000020C845F4D3C6E7FF070000F0B54F4683
:100C90004646D6464D00C0B50E03C90F8A462E49BA
:100CA0001F035C008046360B6D0D91463F0B640DB3
:100CB000DB0F8D4218D08C4211D0002D18D130435B
:100CC0008446002C1ED13A431CD163460020002BE1
:100CD00030D0514602200139084001382AE039005D
:100CE0001143EAD0022025E03043FBD1AC4226D0AC
:100CF000002C26D13A4324D1514602200139084024
:100D0000013817E06246002A0FD09A45E1D1A5428A
:100D100005DBBE42DDD819D00020BE420AD25046C3
:100D2000012301389843013004E00122013B934341
:100D3000180001301CBC90469946A246F0BD3A43CB
:100D4000D0D19A45C5D1A542C3DCE0E7C845C0D89B
:100D50000020C845E3D3EDE7FF07000030B5144D90
:100D60000A034B00120B5B0DC90F0024AB4211DDCF
:100D7000104CA34210DC8024640322430E4CE41A7E
:100D80001F2C0CDD0D48C31ADA4013005C42002909
:100D900000D11C00200030BD094BCC18FAE7094DEA
:100DA000E040AC4663449A4013000343EEE7C0467C
:100DB000FE0300001D0400003304000013040000C3
:100DC000FFFFFF7FEDFBFFFF70B500282DD0C3179D
:100DD000C5185D40C40F280000F030F8154B1B1AF1
:100DE0005B055B0D0A2815DD0B38854000222D03BD
:100DF0002D0B002110002D030A0D2D0B12052A4387
:100E00000D4D1B052A4013435B00E4075B08234399
:100E1000190070BD02002900153291400A000B2113
:100E2000081AC5402D032D0BE3E7002400230025FD
:100E30000022DEE71E040000FFFF0F801C210123BB
:100E40001B04984201D3000C10391B0A984201D3AD
:100E5000000A08391B09984201D30009043902A28B
:100E6000105C40187047C0460403020201010101F2
:100E7000000000000000000080B500AF074B1A68BA
:100E8000064B10210A431A60002000F009F805F013
:100E9000EBFF00231800BD4680BDC0460020024085
:100EA00080B582B000AF786003F084FF0200FA23BF
:100EB00099001000FFF728F90300180001F02EFC3C
:100EC000796801235B420022180001F0FBFB00233C
:100ED0001800BD4602B080BD80B500AF034B1B6853
:100EE0005A1C024B1A60C046BD4680BDA8000020B7
:100EF00080B500AF024B1B681800BD4680BDC046E0
:100F0000A800002080B584B000AF7860FFF7F0FF44
:100F10000300BB607B68FB60FB68013302D0FB68A9
:100F20000133FB60C046FFF7E3FF0200BB68D31A42
:100F3000FA689A42F7D8C046BD4604B080BD0000AA
:100F400080B584B000AF78600F23FB1800221A70C0
:100F50000023BB607B68002B01D1012324E17B6867
:100F60005B6C002B0AD17B6800229A647B6840226C
:100F7000002199547B68180005F0A2FF7B685B6C28
:100F80001022134000D002E10F23FB181B78002B26
:100F900000D0FCE07B681B689B680422134000D0F3
:100FA000F5E07B685B6C824A134002221A437B683F
:100FB0005A647B681B689B6803221340012B12D183
:100FC0007B681B681B6801221340012B09D07B68DA
:100FD0001B68DA6880231B021A4080231B029A4296
:100FE00001D1012300E00023002B16D17B681B6890
:100FF000DB681822934319007B689A687B681B683A
:101000000A43DA607B681B681B699B0099087B6850
:101010005A687B681B680A431A617B681B68DA6838
:101020007B681B6863490A40DA607B689B699A03A6
:101030007B68DB69DB031A437B681B6A5B031A432B
:101040007B685B6B012B02D080235B0100E00023F7
:101050001A437B68DB681A437B681B69022B01D14A
:10106000042300E000231A437B681B6B5B001343DF
:10107000BA681343BB607B685B6A012B15D17B6840
:101080001B6A002B05D1BB68802252021343BB6050
:101090000BE07B685B6C20221A437B685A647B6898
:1010A0009B6C01221A437B689A647B689A6AC2230C
:1010B000FF339A4207D07B689A6A7B68DB6A1343E6
:1010C000BA681343BB607B681B68D9687B681B6880
:1010D000BA680A43DA607B689A6B80235B059A42A0
:1010E0001BD07B689B6B012B17D07B689B6B022B03
:1010F00013D07B689B6B032B0FD07B689B6B042BFF
:101100000BD07B689B6B052B07D07B689B6B062BFA
:1011100003D07B689B6B072B12D17B681B685A69D5
:101120007B681B6807218A435A617B681B68596981
:101130007B689B6B07221A407B681B680A435A61D5
:101140007B681B68DB681C4A1340BA689A420BD163
:101150007B6800229A647B685B6C032293430122C4
:101160001A437B685A641CE07B685B6C12229343D1
:1011700010221A437B685A647B689B6C01221A43D5
:101180007B689A640F23FB1801221A7009E07B68C0
:101190005B6C10221A437B685A640F23FB180122F0
:1011A0001A700F23FB181B781800BD4604B080BDD1
:1011B000FDFEFFFF1902FEFFE7FF3F8390B587B0FA
:1011C00000AFF860B9607A601723FB1800221A702C
:1011D000FB681B689B68042213405ED1FB684022B9
:1011E0009B5C012B01D102235EE0FB6840220121C0
:1011F0009954FB68DB69012B07D01723FC18FB68A7
:10120000180000F039FA030023701723FB181B782D
:10121000002B46D1FB685B6C254A134080225200AC
:101220001A43FB685A64FB6800229A64FB684022F8
:1012300000219954FB68DB6B1E4A9A62FB68DB6BEA
:101240001D4ADA62FB68DB6B1C4A1A63FB681B6889
:101250001C221A60FB681B685A68FB681B68102117
:101260000A435A60FB681B68DA68FB681B68012147
:101270000A43DA60FB68D86BFB681B6840331900CF
:10128000BA687B6801F0ACFAFB681B689A68FB6877
:101290001B6804210A439A6003E01723FB1802220B
:1012A0001A701723FB181B781800BD4607B090BDB5
:1012B000FEF0FFFF7117000825180008431800080A
:1012C00080B582B000AF78607B681B681B68042221
:1012D0001340042B06D17B681B685B680422134013
:1012E000042B0DD07B681B681B6808221340082B59
:1012F0004FD17B681B685B6808221340082B48D1DC
:101300007B685B6C1022134006D17B685B6C80228B
:1013100092001A437B685A647B681B68DA68C023B2
:101320001B0113402DD17B681B6A002B29D17B68E0
:101330001B681B6808221340082B22D17B681B689E
:101340009B680422134010D17B681B685A687B6835
:101350001B680C218A435A607B685B6C324A1340DD
:1013600001221A437B685A640BE07B685B6C202285
:101370001A437B685A647B689B6C01221A437B6822
:101380009A647B68180005F011FA7B681B680C22D0
:101390001A607B681B681B6880221340802B15D164
:1013A0007B681B685B6880221340802B0ED17B68B2
:1013B0005B6C802252021A437B685A647B68180077
:1013C00000F03CF87B681B6880221A607B681B6811
:1013D0001B6810221340102B22D17B681B685B68AE
:1013E00010221340102B1BD17B685B6B012B05D0A7
:1013F0007B681B68DB68012213400DD07B689B6C07
:1014000002221A437B689A647B681B6810221A6068
:101410007B68180000F01AF87B681B6810221A60BD
:10142000C046BD4602B080BDFEFEFFFF80B582B063
:1014300000AF7860C046BD4602B080BD80B582B0C6
:1014400000AF7860C046BD4602B080BD80B582B0B6
:1014500000AF7860C046BD4602B080BD80B584B0A4
:1014600000AF786039600F23FB1800221A70002348
:10147000BB607B689A6B80235B059A4211D07B68C6
:101480009B6B012B0DD07B689B6B022B09D07B687B
:101490009B6B032B05D07B689B6B042B01D07B6877
:1014A0009B6B7B6840229B5C012B01D10223D0E027
:1014B0007B684022012199547B681B689B68042249
:1014C000134000D0B4E03B685B68644A934200D1AB
:1014D00082E07B681B68996A3B681B6801229A401E
:1014E0007B681B680A439A627B689A6B80235B0562
:1014F0009A4237D07B689B6B012B33D07B689B6B08
:10150000022B2FD07B689B6B032B2BD07B689B6BB4
:10151000042B27D07B689B6B052B23D07B689B6BB0
:10152000062B1FD07B689B6B072B1BD03B689A68F0
:101530007B681B685B6907210B409A4212D07B686D
:101540001B685A697B681B6807218A435A617B685C
:101550001B6859693B689B6807221A407B681B68B7
:101560000A435A613B681B68102B07D03B681B6815
:10157000112B03D03B681B68122B63D1384B1968C1
:101580003B681B68102B09D03B681B68112B02D1EC
:101590008023DB0304E080235B0401E080231B0441
:1015A0002F4A0B4313603B681B68102B4AD12D4B0D
:1015B0001B682D491800FEF7A7FD03001A00130051
:1015C0009B009B185B00BB6002E0BB68013BBB60FB
:1015D000BB68002BF9D135E07B681B689A6A3B68D1
:1015E0001B68012199400B00D9437B681B680A40A6
:1015F0009A623B681B68102B07D03B681B68112B55
:1016000003D03B681B68122B1CD1154B19683B6833
:101610001B68102B07D03B681B68112B01D1134BA3
:1016200002E0134B00E0134B0D4A0B40136009E03E
:101630007B685B6C20221A437B685A640F23FB187B
:1016400001221A707B684022002199540F23FB1855
:101650001B781800BD4604B080BDC04601100000D4
:10166000082701403000002040420F00FFFFBFFF6D
:10167000FFFFFFFEFFFF7FFF80B584B000AF786003
:101680000023FB600023BB607B681B689B68032210
:101690001340012B12D17B681B681B680122134089
:1016A000012B09D07B681B68DA6880231B021A4073
:1016B00080231B029A4201D1012300E00023002B6A
:1016C0004BD17B681B689B68264A13400DD07B6812
:1016D0005B6C10221A437B685A647B689B6C012206
:1016E0001A437B689A64012338E07B681B689A6818
:1016F0007B681B6801210A439A601B4B1B681B49CE
:101700001800FEF701FD0300BB6002E0BB68013B6F
:10171000BB60BB68002BF9D1FFF7EAFB0300FB605D
:1017200014E0FFF7E5FB0200FB68D31A022B0DD98A
:101730007B685B6C10221A437B685A647B689B6CE5
:1017400001221A437B689A64012307E07B681B68C7
:101750001B6801221340012BE3D100231800BD4672
:1017600004B080BD170000803000002040420F0010
:1017700080B584B000AF78607B685B6AFB60FB6813
:101780005B6C5022134040D1FB685B6C802292005E
:101790001A43FB685A64FB681B68DA68C0231B01A4
:1017A00013402DD1FB681B6A002B29D1FB681B68F5
:1017B0001B6808221340082B22D1FB681B689B681A
:1017C0000422134010D1FB681B685A68FB681B6831
:1017D0000C218A435A60FB685B6C114A134001225A
:1017E0001A43FB685A640BE0FB685B6C20221A43C7
:1017F000FB685A64FB689B6C01221A43FB689A647D
:10180000FB68180004F0D2FF05E0FB68DB6B1B6B84
:101810007A6810009847C046BD4604B080BDC046F7
:10182000FEFEFFFF80B584B000AF78607B685B6A26
:10183000FB60FB681800FFF7F9FDC046BD4604B029
:1018400080BD80B584B000AF78607B685B6AFB6068
:10185000FB685B6C40221A43FB685A64FB689B6C14
:1018600004221A43FB689A64FB681800FFF7EEFD38
:10187000C046BD4604B080BD80B584B000AF78607E
:101880007B68002B01D10123F0E07B6820229B5C68
:10189000DBB2002B03D17B68180005F0ABFB7B6843
:1018A0001B681A687B681B6802218A431A60FFF76D
:1018B0001FFB0300FB6013E0FFF71AFB0200FB684D
:1018C000D31A0A2B0CD97B685B6A802292021A43D6
:1018D0007B685A627B682022052199540123C5E068
:1018E0007B681B685B6802221340E5D17B681B683C
:1018F0001A687B681B6801210A431A60FFF7F8FA2F
:101900000300FB6013E0FFF7F3FA0200FB68D31A51
:101910000A2B0CD97B685B6A802292021A437B688F
:101920005A627B6820220521995401239EE07B683E
:101930001B685B6801221340E5D07B681B7E012B8E
:1019400008D17B681B681A687B681B6880210A4382
:101950001A6007E07B681B681A687B681B68802137
:101960008A431A607B685B7E012B08D17B681B6809
:101970001A687B681B6840210A431A6007E07B688D
:101980001B681A687B681B6840218A431A607B6861
:101990009B7E012B08D17B681B681A687B681B68DB
:1019A00020210A431A6007E07B681B681A687B687D
:1019B0001B6820218A431A607B68DB7E012B08D1DB
:1019C0007B681B681A687B681B6810218A431A6051
:1019D00007E07B681B681A687B681B6810210A4354
:1019E0001A607B681B7F012B08D17B681B681A6813
:1019F0007B681B6808210A431A6007E07B681B6844
:101A00001A687B681B6808218A431A607B685B7FC1
:101A1000012B08D17B681B681A687B681B6804214E
:101A20000A431A6007E07B681B681A687B681B68BA
:101A300004218A431A607B689A687B68DB681A43D2
:101A40007B681B691A437B685B691A4311007B68DA
:101A50005B685A1E7B681B680A43DA617B68002258
:101A60005A627B6820220121995400231800BD4648
:101A700004B080BD80B586B000AF786039607B6807
:101A80001B687B6113203B187A682021525C1A7016
:101A90003B181B78012B05D01323FB181B78022B56
:101AA00000D0CDE07A6980239B00D35801221A43ED
:101AB00011007A6980239B00D1503B685B691F222B
:101AC000134001229A401300FB607A6987239B0030
:101AD000D358FA68D2431A4011007A6987239B00D1
:101AE000D1503B68DB69002B29D17A6983239B00A5
:101AF000D358FA68D2431A4011007A6983239B00B5
:101B0000D1503B68DB6818043B685B681B04190C08
:101B10003B685A6901437B694832D200D1503B6827
:101B20009B6819043B681B681B041A0C3B685B69C3
:101B30000A4379694833DB00CB1804331A603B68E9
:101B4000DB69012B28D17A6983239B00D258FB687B
:101B50001A4311007A6983239B00D1503B681B68AC
:101B600018043B685B681B04190C3B685A69014305
:101B70007B694832D200D1503B689B6819043B68AE
:101B8000DB681B041A0C3B685B690A4379694833BC
:101B9000DB00CB1804331A603B689B69002B0CD127
:101BA0007A6981239B00D358FA68D2431A40110006
:101BB0007A6981239B00D1500AE07A6981239B00D6
:101BC000D258FB681A4311007A6981239B00D150D7
:101BD0003B681B69002B0CD17A6985239B00D35885
:101BE000FA68D2431A4011007A6985239B00D150CC
:101BF0000AE07A6985239B00D258FB681A431100DA
:101C00007A6985239B00D1503B681B6A012B0AD15E
:101C10007A6987239B00D258FB681A4311007A69BE
:101C200087239B00D1507A6980239B00D3580122DF
:101C3000934319007A6980239B00D150002307E069
:101C40007B685B6A8022D2021A437B685A62012356
:101C50001800BD4606B080BD80B584B000AF786086
:101C60007B6820229B5CDBB2012B2FD17B6820227A
:101C7000022199547B681B681A687B681B680121E4
:101C80008A431A60FFF734F90300FB6013E0FFF7A3
:101C90002FF90200FB68D31A0A2B0CD97B685B6A08
:101CA000802292021A437B685A627B6820220521B7
:101CB0009954012312E07B681B685B680122134082
:101CC000E5D17B6800225A62002307E07B685B6AEB
:101CD000802212031A437B685A6201231800BD4612
:101CE00004B080BD80B588B000AFF860B9607A609C
:101CF0003B601F203B18FA682021525C1A70FB6879
:101D00001B689B68BB613B181B78012B05D01F2308
:101D1000FB181B78022B00D0B7E0BA698023DB04E4
:101D200013400AD1BA6980231B05134005D1BA6953
:101D300080235B05134000D19EE0BB691B0E03228C
:101D400013407B617B69022B08D9FB685B6A8022A8
:101D500012041A43FB685A6201239EE001227B6948
:101D60009A403B681A60BB689B68002B0CD1BB682B
:101D70001B685905BB68DA68FB681B6811437A6900
:101D800018321201D1500FE0BB685B68DA00BB6803
:101D90009B681A431100BB68DA68FB681B68114333
:101DA0007A6918321201D150FB681968BB681A6948
:101DB0007B6918331B01CB1804331A60BB681B7D89
:101DC000012B12D1FB681A687B6918331B01D318E9
:101DD00004331A68FB68196880235B001A437B6927
:101DE00018331B01CB1804331A607B6807331B7848
:101DF0001A067B6806331B781B041A437B6805337D
:101E00001B781B021A437B6804331B781900FB689C
:101E100018680A437969C6235B0009014118CB1889
:101E20001A607B6803331B781A067B6802331B78C1
:101E30001B041A437B6801331B781B021A437B681F
:101E40001B781900FB6818680A437969C4235B0092
:101E500009014118CB181A60FB681B687A691832AF
:101E60001201D258FB681B68012111437A691832AC
:101E70001201D150002310E0FB685B6A80229203BC
:101E80001A43FB685A62012307E0FB685B6A802201
:101E9000D2021A43FB685A6201231800BD4608B0FB
:101EA00080BD80B586B000AFF860B9607A603B60F5
:101EB00017203B18FA682021525C1A703B181B78D7
:101EC000012B05D01723FB181B78022B00D0F9E05B
:101ED000BB68002B0ED1FB681B68DB680322134034
:101EE00017D1FB685B6A802292031A43FB685A622F
:101EF0000123EFE0FB681B681B690322134008D134
:101F0000FB685B6A802292031A43FB685A620123D2
:101F1000E0E0FB681B68BA681B321201D358042248
:101F20001A407B689A607B689B68002B0BD1FB682A
:101F30001B68BA681B321201D3585B0D5B055A0D42
:101F40007B681A600AE0FB681B68BA681B321201E2
:101F5000D358DB08DB00DA087B685A60FB681B6833
:101F6000BA681B321201D3585B0801221A407B6801
:101F7000DA60FB681A68BB681B331B01D318043393
:101F80001B680F221A407B681A61FB681A68BB68DD
:101F90001B331B01D31804331B681B0AFF221A4092
:101FA0007B689A61FB681A68BB681B331B01D318F6
:101FB00004331B681B0C1B041A0C7B685A61FB68FA
:101FC0001968BA68DC235B0012018A18D3181B68F1
:101FD000DAB23B681A70FB681968BA68DC235B00E8
:101FE00012018A18D3181B681A0A3B680133D2B24F
:101FF0001A70FB681968BA68DC235B0012018A1842
:10200000D3181B681A0C3B680233D2B21A70FB68F3
:102010001968BA68DC235B0012018A18D3181B68A0
:102020001A0E3B680333D2B21A70FB681968BA689B
:10203000DE235B0012018A18D3181A683B68043348
:10204000D2B21A70FB681968BA68DE235B0012010D
:102050008A18D3181B681A0A3B680533D2B21A7063
:10206000FB681968BA68DE235B0012018A18D3186E
:102070001B681A0C3B680633D2B21A70FB681968E9
:10208000BA68DE235B0012018A18D3181B681A0E87
:102090003B680733D2B21A70BB68002B08D1FB68CB
:1020A0001B68DA68FB681B6820210A43DA6007E0D6
:1020B000FB681B681A69FB681B6820210A431A61C8
:1020C000002307E0FB685B6A8022D2021A43FB68A8
:1020D0005A6201231800BD4606B080BD80B584B0A9
:1020E00000AF786039600F203B187A682021525C7D
:1020F0001A703B181B78012B04D00F23FB181B7898
:10210000022B09D17B681B6859697B681B683A6898
:102110000A435A61002307E07B685B6A8022D2028F
:102120001A437B685A6201231800BD4604B080BD83
:1021300080B58AB000AF786000237B627B681B6843
:102140005B693B627B681B685B68FB617B681B6843
:102150009B68BB617B681B68DB687B617B681B6875
:102160001B693B617B681B689B69FB603B6A0122C2
:10217000134000D184E0BB690122134024D07B6866
:102180001B6801229A60BB690222134004D07B685D
:10219000180000F07EF917E0BB690422134005D057
:1021A0007B6A8022120113437B620DE0BB69082227
:1021B000134005D07B6A8022520113437B6203E007
:1021C0007B68180000F07DF9BA6980235B0013403A
:1021D00028D07B681B68802252009A60BA698023ED
:1021E0009B00134004D07B68180000F05AF919E0F6
:1021F000BA698023DB00134005D07B6A80229201FC
:1022000013437B620EE0BA6980231B01134005D0A3
:102210007B6A8022D20113437B6203E07B68180053
:1022200000F057F9BA6980235B02134028D07B681D
:102230001B68802252029A60BA6980239B02134075
:1022400004D07B68180000F034F919E0BA698023E3
:10225000DB02134005D07B6A8022120213437B62AB
:102260000EE0BA6980231B03134005D07B6A8022ED
:10227000520213437B6203E07B68180000F031F9DF
:102280003B6A082213400CD07B691022134008D00F
:102290007B6A8022920013437B627B681B6810225A
:1022A000DA603B6A042213400BD07B69082213409A
:1022B00007D07B681B680822DA607B68180000F092
:1022C00018F93B6A0222134009D07B681B68DB685F
:1022D0000322134003D07B68180004F06FFA3B6AB6
:1022E000402213400CD03B691022134008D07B6A77
:1022F0008022D20013437B627B681B6810221A6124
:102300003B6A202213400BD03B690822134007D0C0
:102310007B681B6808221A617B68180000F0F9F8D6
:102320003B6A1022134009D07B681B681B6903229B
:10233000134003D07B68180000F0E3F83A6A80236A
:102340009B0213400BD0FB691022134007D07B681F
:102350001B6810225A607B68180000F0E2F83A6AA5
:1023600080235B0213400BD0FB690822134007D087
:102370007B681B6808225A607B68180000F0D9F857
:102380003A6A80231B02134000D171E0FB690422EA
:10239000134000D168E03A6A80235B00134007D005
:1023A000FB680122134003D07B6A012213437B6246
:1023B0003A6A80239B00134007D0FB680222134037
:1023C00003D07B6A022213437B623A6A8023DB00DC
:1023D000134007D0FB680422134003D07B6A042219
:1023E00013437B623A6A80231B0113403CD0FB6895
:1023F0007022134038D0FB6870221340302B16D067
:1024000004D8102B09D0202B0CD025E0502B18D04D
:10241000602B1BD0402B0FD01EE07B6A0822134399
:102420007B6219E07B6A102213437B6214E07B6AB3
:10243000202213437B620FE07B6A402213437B62BE
:102440000AE07B6A802213437B6205E07B6A80227C
:10245000520013437B62C0467B681B689A697B68A5
:102460001B6870218A439A617B681B6804225A604A
:102470007B6A002B09D07B685A6A7B6A1A437B68A7
:102480005A627B68180000F05CF8C046BD460AB08E
:1024900080BD80B582B000AF7860C046BD4602B056
:1024A00080BD80B582B000AF7860C046BD4602B046
:1024B00080BD80B582B000AF7860C046BD4602B036
:1024C00080BD80B582B000AF7860C046BD4602B026
:1024D00080BD80B582B000AF7860C046BD4602B016
:1024E00080BD80B582B000AF7860C046BD4602B006
:1024F00080BD80B582B000AF7860C046BD4602B0F6
:1025000080BD80B582B000AF7860C046BD4602B0E5
:1025100080BD80B582B000AF7860C046BD4602B0D5
:1025200080BD80B582B000AF7860C046BD4602B0C5
:1025300080BD80B582B000AF7860C046BD4602B0B5
:1025400080BD80B582B000AF7860C046BD4602B0A5
:1025500080BD000080B582B000AF0200FB1D1A7084
:10256000FB1D1B781A001F231A40044B01219140C8
:102570000A001A60C046BD4602B080BD00E100E01E
:1025800090B583B000AF02003960FB1D1A70FB1DCF
:102590001B787F2B32D92F4AFB1D1B7819000F2384
:1025A0000B40083B9B0806339B00D31804331B6881
:1025B000FA1D1278110003220A40D200FF21914037
:1025C0000A00D2431A4011003B689B01FF221A40C7
:1025D000FB1D1B78180003230340DB009A401D48B5
:1025E000FB1D1B781C000F232340083B9B080A435C
:1025F00006339B00C31804331A6027E0164AFB1DFC
:102600001B785BB29B08C0339B009B58FA1D127865
:10261000110003220A40D200FF2191400A00D24358
:102620001A4011003B689B01FF221A40FB1D1B78DA
:10263000180003230340DB009A400748FB1D1B786A
:102640005BB29B080A43C0339B001A50C046BD468C
:1026500003B090BD00ED00E000E100E080B500AF08
:10266000BFF34F8F034B044ADA60BFF34F8FC0466E
:10267000FDE7C04600ED00E00400FA0580B582B039
:1026800000AF78607B68013B0C4A934201D901237B
:1026900010E00B4B7A68013A5A6001235B42032138
:1026A0001800FFF76DFF064B00229A60044B0722CB
:1026B0001A6000231800BD4602B080BDFFFFFF0076
:1026C00010E000E080B584B000AFB9607A600F21FF
:1026D0007B18021C1A70BA687B181B785BB2110059
:1026E0001800FFF74DFFC046BD4604B080BD80B561
:1026F00082B000AF0200FB1D1A70FB1D1B785BB29D
:102700001800FFF727FFC046BD4602B080BD80B568
:1027100000AFFFF7A3FFC046BD4680BD80B582B0C5
:1027200000AF78607B681800FFF7A8FF030018006F
:10273000BD4602B080BD000080B584B000AF7860B7
:102740000023FB607B68002B01D1012342E07B6802
:102750002122022199547B681B681B68FB60FB687F
:102760001E4A1340FB607B685A687B689B681A436B
:102770007B68DB681A437B681B691A437B685B696B
:102780001A437B689B691A437B68DB691343FA68C9
:102790001343FB607B681B68FA681A607B6818004B
:1027A00000F098F97B6800229A627B680022DA6266
:1027B0007B6800221A637B6800225A637B680022D0
:1027C0009A637B682122012199547B682022002191
:1027D000995400231800BD4604B080BD0FC0FFFF10
:1027E00080B586B000AFF860B9607A603B601723AF
:1027F000FB1800221A70FB6820229B5C012B01D180
:1028000002234FE0FB68202201219954FB6821221A
:102810009B5CDBB2012B3AD1FB6821220221995447
:10282000FB6800229A63FB681B681A68FB681B68D8
:1028300001218A431A603B687A68B968F86800F039
:102840001DF9FB68DB6A002B08D0FB681B681A685F
:10285000FB681B680E210A431A600FE0FB681B68C7
:102860001A68FB681B680A210A431A60FB681B6828
:102870001A68FB681B6804218A431A60FB681B689E
:102880001A68FB681B6801210A431A6007E0FB68AD
:102890002022002199541723FB1802221A701723B3
:1028A000FB181B781800BD4606B080BD80B584B00B
:1028B00000AF78600F23FB1800221A707B6821227A
:1028C0009B5CDBB2022B07D07B6804229A630F2348
:1028D000FB1801221A7028E07B681B681A687B6865
:1028E0001B680E218A431A607B681B681A687B6824
:1028F0001B6801218A431A607B681A6C7B68DB6B5A
:10290000012191400A005A607B68212201219954DB
:102910007B682022002199547B685B6B002B04D0DC
:102920007B685B6B7A68100098470F23FB181B7855
:102930001800BD4604B080BD80B584B000AF78609B
:102940007B68DB6B1B68FB607B681B681B68BB607C
:102950007B681B6C04229A401300FA68134024D051
:10296000BB680422134020D07B681B681B682022B0
:10297000134007D17B681B681A687B681B680421B9
:102980008A431A607B681A6C7B68DB6B0421914078
:102990000A005A607B68DB6A002B00D16AE07B6822
:1029A000DB6A7A681000984764E07B681B6C02223F
:1029B0009A401300FA6813402BD0BB6802221340E0
:1029C00027D07B681B681B68202213400BD17B68D3
:1029D0001B681A687B681B680A218A431A607B6837
:1029E0002122012199547B681A6C7B68DB6B0221E0
:1029F00091400A005A607B682022002199547B682C
:102A00009B6A002B36D07B689B6A7A6810009847D7
:102A100030E07B681B6C08229A401300FA68134070
:102A200028D0BB680822134024D07B681B681A6832
:102A30007B681B680E218A431A607B681A6C7B686E
:102A4000DB6B012191400A005A607B6801229A6386
:102A50007B682122012199547B682022002199540E
:102A60007B681B6B002B05D07B681B6B7A681000A2
:102A70009847FFE7C046BD4604B080BD80B584B02E
:102A800000AFF860B9607A603B60FB681A6CFB6865
:102A9000DB6B012191400A005A60FB681B683A68B1
:102AA0005A60FB685B68102B08D1FB681B687A686A
:102AB0009A60FB681B68BA68DA6007E0FB681B680D
:102AC000BA689A60FB681B687A68DA60C046BD46DF
:102AD00004B080BD80B582B000AF78607B681B68B1
:102AE000084A9446634414211800FDF70DFB0300C7
:102AF0009A007B681A647B68034ADA63C046BD4665
:102B000002B080BDF8FFFDBF00000240F0B587B005
:102B100000AFF860B9603A607B601723FB180122B0
:102B20001A701623FB1800221A701523FB180022B6
:102B30001A703E4B1B7E012B01D1022372E03B4BEE
:102B400001221A761723FE18394B180000F0C4F83A
:102B5000030033701723FB181B78002B5CD1FB6834
:102B6000012B04D11523FB1801221A700BE0FB681E
:102B7000022B04D11523FB1802221A7003E015233F
:102B8000FB1804221A701623FB1800221A7039E071
:102B900016217B181B785A00BB68D0187B181B784D
:102BA0001B011A00203A002A03DB7968D1400C008F
:102BB00008E02022D21A796891400A003968D94089
:102BC0000C0014437A68DA401500A3B2190000F033
:102BD00067F81723FE18164B180000F07DF8030065
:102BE0003370144B1A69134B01218A431A6117235E
:102BF000FB181B78002B0ED116217B181A787B1836
:102C000001321A701623FA181523FB1812781B7854
:102C10009A42BDD300E0C046044B00221A76172327
:102C2000FB181B781800BD4607B0F0BDB0000020AF
:102C300050C300000020024080B582B000AFFB1DF1
:102C400000221A700C4B1B69802213400DD00A4BD6
:102C50000A4A5A60084B0A4A5A60074B1B6980228D
:102C6000134002D0FB1D01221A70FB1D1B781800B7
:102C7000BD4602B080BDC04600200240230167452A
:102C8000AB89EFCD80B500AF044B1A69034B8021AF
:102C90000A431A6100231800BD4680BD002002408F
:102CA00080B582B000AF78600A00BB1C1A80084B68
:102CB0000022DA61074B1A69064B01210A431A61A7
:102CC0007B68BA1C12881A80C046BD4602B080BD1F
:102CD000B00000200020024080B584B000AF7860D2
:102CE000FEF706F90300FB600FE07B6801330CD0B0
:102CF0007B68002B07D0FEF7FBF80200FB68D31AB5
:102D00007A689A4201D203231FE0124BDB6801224A
:102D10001340012BE9D00F4BDB6820221340202BFE
:102D200002D10C4B2022DA600A4BDB6810221340E0
:102D3000102B05D0074BDB6804221340042B03D172
:102D400000F00AF8012300E000231800BD4604B09B
:102D500080BDC0460020024080B582B000AF002395
:102D60007B60134BDB6810221340102B09D1114BF1
:102D7000DB6902221A430F4BDA617B68102213438E
:102D80007B600B4BDB6804221340042B09D1094BF9
:102D9000DB6901221A43074BDA617B680422134383
:102DA0007B60034B7A68DA60C046BD4602B080BDE6
:102DB00000200240B0000020B0B584B000AF7860C1
:102DC00039600F23FB1801221A700023BB60324BBD
:102DD0001B7E012B01D102235AE02F4B01221A76D0
:102DE0007B681B68012B16D12C4B1800FFF774FF72
:102DF000031E47D100F056F80F23FC18274B18008C
:102E0000FFF76AFF03002370254B1A69244B042146
:102E10008A431A6136E0214B1800FFF75DFF031E5D
:102E200030D13B68012252421A607B685B68BB600C
:102E30001FE0BB68180000F04DF80F257C19174BF8
:102E40001800FFF749FF03002370154B1A69144B54
:102E500002218A431A617B191B78002B03D03B683F
:102E6000BA681A600EE0BB688022D20094466344C0
:102E7000BB607B689B689A027B685B68D318BA6802
:102E80009A42D6D3044B00221A760F23FB181B78E4
:102E90001800BD4604B0B0BDB000002050C3000013
:102EA0000020024080B500AF084B0022DA61084BD9
:102EB0001A69074B04210A431A61054B1A69044B2E
:102EC00040210A431A61C046BD4680BDB0000020C3
:102ED0000020024080B582B000AF78600A4B00222B
:102EE000DA610A4B1A69094B02210A431A61074B3E
:102EF0007A685A61054B1A69044B40210A431A61EA
:102F0000C046BD4602B080BDB00000200020024097
:102F100080B586B000AF7860396000237B61002304
:102F2000FB6000233B6149E13B681B6801217A6932
:102F300091400A001340FB60FB68002B00D13AE18E
:102F40003B685B68022B03D03B685B68122B23D184
:102F50007B69DA087B6808329200D3583B617B6951
:102F6000072213409B000F229A401300DA433B696B
:102F700013403B613B681A697B6907210B409B004A
:102F80009A4013003A6913433B617B69DA087B6816
:102F9000083292003969D1507B681B683B617B69BC
:102FA0005B0003229A401300DA433B6913403B6104
:102FB0003B685B6803221A407B695B009A40130000
:102FC0003A6913433B617B683A691A603B685B6806
:102FD000012B0BD03B685B68022B07D03B685B681A
:102FE000112B03D03B685B68122B30D17B689B6848
:102FF0003B617B695B0003229A401300DA433B6923
:1030000013403B613B68DA687B695B009A401300C0
:103010003A6913433B617B683A699A607B685B68F5
:103020003B6101227B699A401300DA433B691340FC
:103030003B613B685B681B0901221A407B699A402F
:1030400013003A6913433B617B683A695A607B68B5
:10305000DB683B617B695B0003229A401300DA4323
:103060003B6913403B613B689A687B695B009A400F
:1030700013003A6913433B617B683A69DA603B6845
:103080005A6880235B05134000D194E0514B9A6944
:10309000504B01210A439A614E4B9B690122134018
:1030A000BB60BB684C4A7B699B0802339B009B5802
:1030B0003B617B69032213409B000F229A4013005F
:1030C000DA433B6913403B617A689023DB059A42FF
:1030D0000DD07B68414A934207D07B68404A9342B7
:1030E00001D1022304E0052302E0012300E00023D4
:1030F0007A6903210A40920093403A6913433B6185
:1031000035497B699B0802339B003A695A50354B1D
:103110001B683B61FB68DA433B6913403B613B68DA
:103120005A6880235B02134003D03A69FB6813435B
:103130003B612C4B3A691A602A4B5B683B61FB6828
:10314000DA433B6913403B613B685A6880239B022A
:10315000134003D03A69FB6813433B61214B3A6942
:103160005A60204B9B683B61FB68DA433B69134024
:103170003B613B685A6880235B03134003D03A6984
:10318000FB6813433B61174B3A699A60154BDB6848
:103190003B61FB68DA433B6913403B613B685A681B
:1031A00080239B03134003D03A69FB6813433B61C0
:1031B0000C4B3A69DA607B6901337B613B681A68C2
:1031C0007B69DA40131E00D0AEE6C046BD4606B0AD
:1031D00080BDC046001002400000014000040048CD
:1031E000000800480004014080B582B000AF78605C
:1031F00008001100BB1C021C1A807B1C0A1C1A70E0
:103200007B1C1B78002B04D0BB1C1A887B689A613E
:1032100003E0BB1C1A887B689A62C046BD4602B0B8
:1032200080BD000080B582B000AF78607B68002B65
:1032300001D1012382E07B6841229B5CDBB2002B41
:1032400007D17B684022002199547B68180003F065
:103250004FFF7B684122242199547B681B681A68C0
:103260007B681B6801218A431A607B685A687B6807
:103270001B6834490A401A617B681B689A687B683E
:103280001B6831490A409A607B68DB68012B08D1D2
:103290007B689A687B681B68802109020A439A60F0
:1032A00007E07B689A687B681B68842109020A43EF
:1032B0009A607B68DB68022B04D17B681B688022E4
:1032C00012015A607B681B685A687B681B681F493B
:1032D0000A435A607B681B68DA687B681B681A4976
:1032E0000A40DA607B681A697B685B691A431100DF
:1032F0007B689B691A027B681B680A43DA607B68FB
:10330000D9697B681A6A7B681B680A431A607B6804
:103310001B681A687B681B6801210A431A607B6876
:1033200000225A647B684122202199547B68002244
:103330001A637B6842220021995400231800BD467D
:1033400002B080BDFFFFFFF0FF7FFFFF00800002A3
:1033500080B584B000AFF860B9603B60BB1D1A80D7
:10336000FB6841229B5CDBB21A0028231340282B08
:103370005FD1BB68002B03D0BB1D1B88002B01D184
:10338000012357E0FB680521180000F025FFFB68CA
:1033900040229B5C012B01D102234BE0FB684022C1
:1033A00001219954FB6841229B5CDBB22A2B04D19A
:1033B000FB680221180000F00FFFFB684122292161
:1033C0009954FB68422220219954FB6800225A64D8
:1033D000FB681B685A68FB681B6818490A405A60FA
:1033E000FB68BA685A62FB68BA1D12885A85FB6886
:1033F0005B8D9AB2FB681A85FB683A68DA62FB68F3
:103400000F4A5A63FB681B689B691B0C012213401F
:10341000012B03D1FB681B680822DA61FB6840229C
:1034200000219954FB680521180000F063FE002379
:1034300000E001231800BD4604B080BDFF7FFFFF00
:10344000C534000880B582B000AF78607B68412247
:103450009B5CDBB2202B0DD17B6841222821995443
:103460007B68074A5A637B680421180000F042FE1B
:10347000002300E002231800BD4602B080BDC04614
:10348000C534000880B582B000AF7860C046BD4644
:1034900002B080BD80B582B000AF7860C046BD4646
:1034A00002B080BD80B582B000AF7860C046BD4636
:1034B00002B080BD80B582B000AF7860C046BD4626
:1034C00002B080BD80B584B000AFF860B9607A60AA
:1034D000FB6840229B5C012B01D10223DBE0FB68EF
:1034E000402201219954BB68102213404AD07B68C6
:1034F0001022134046D0FB685B8D9BB2002B35D168
:10350000FB68DA6A80239B049A4205D0FB68DA6A7A
:1035100080239B049A420CD1FB6841229B5CDBB266
:10352000282B06D1BA68FB681100180000F040FC97
:1035300027E0FB68DB6A5A4A934212D0FB684122BB
:103540009B5CDBB2292B0CD1FB681B681022DA6173
:10355000FB68180000F046FDFB68180000F06DFAEB
:103560000FE0FB681B681022DA6181E0FB681B68D2
:103570001022DA61FB685B6C04221A43FB685A6410
:1035800076E075E0BB68042213402ED07B680422ED
:1035900013402AD0FB685B8D9BB2002B16D0FB68D2
:1035A0001B68586AFB685B6A591CFA685162C2B2B0
:1035B0001A70FB681B8D013B9AB2FB681A85FB6889
:1035C0005B8D9BB2013B9AB2FB685A85FB685B8DB1
:1035D0009BB2002B4BD1FB68DB6A314A934246D049
:1035E000FB68180000F029FA41E0BB68082213408C
:1035F0000AD07B680822134006D0BA68FB68110025
:10360000180000F065F933E0BB68022213402FD0A8
:103610007B68022213402BD0FB685B8D9BB2002B92
:1036200016D0FB685B6A591CFA6851621A78FB680D
:103630001B689A62FB685B8D9BB2013B9AB2FB6888
:103640005A85FB681B8D013B9AB2FB681A850FE017
:10365000FB68DA6A80235B049A4203D0FB68DB6A6A
:10366000002B05D1FB68180000F0E7F900E0C04628
:10367000BB682022134009D07B682022134005D06C
:10368000BA68FB681100180000F0B6FAFB68402227
:103690000021995400231800BD4604B080BDC046E7
:1036A0000000FFFF90B589B002AFF860B9607A60A2
:1036B0001223FB1800221A8000237B61FB68402242
:1036C0009B5C012B01D102239AE0FB68402201217F
:1036D0009954BB681022134017D07B681022134006
:1036E00013D0FB681B681022DA61FB685B6C042254
:1036F0001A43FB685A64FB681221180000F0FAFCB8
:10370000FB68180000F06EFC75E0BB688022134077
:1037100063D07B68402213405FD0FB681B681A6847
:10372000FB681B6840218A431A60FB685B8D9BB273
:10373000002B4CD0FB681B685B689AB21223FB1805
:103740009205920D1A80FB685B8D9BB2FF2B06D908
:10375000FB68FF221A8580235B047B6107E0FB681E
:103760005B8D9AB2FB681A8580239B047B61FB68A2
:103770001B8DDAB27C691223FB181988F8680023C4
:103780000093230000F080FCFB685B8D9AB2FB681D
:103790001B8DD31A9AB2FB685A85FB6841229B5C49
:1037A000DBB2222B09D1FB681B681A68FB681B6817
:1037B000802109020A431A601DE0FB681B681A6831
:1037C000FB681B688021C9010A431A6013E0FB688B
:1037D0004021180000F03EFB0DE0BB6820221340A2
:1037E00009D07B682022134005D0BA68FB6811001D
:1037F000180000F063F9FB6840220021995400236F
:103800001800BD4607B090BD80B584B000AFF86029
:10381000B9607A60FB6840229B5C012B01D10223D6
:1038200052E0FB68402201219954BB6810221340EA
:103830002AD07B681022134026D0FB6841229B5C73
:10384000DBB2212B07D1FB689B6B1B685B685A427C
:103850005341DBB206E0FB68DB6B1B685B685A42D6
:103860005341DBB2002B04D0FB681B681022DA61E5
:1038700025E0FB681B681022DA61FB685B6C0422A0
:103880001A43FB685A641AE0BB680822134008D048
:103890007B680822134004D0FB681B680822DA61A9
:1038A0000DE0BB682022134009D07B682022134022
:1038B00005D0BA68FB681100180000F09DF9FB689C
:1038C00040220021995400231800BD4604B080BD59
:1038D00090B585B000AF786039600F23FB180022E7
:1038E0001A700C23FB1800221A800A23FB180022EE
:1038F0001A800823FB1800221A807B6841229B5CF7
:10390000DBB21A0028231340282B00D089E07B6803
:103910001B689B691B0CDAB20F23FB1801210A40BC
:103920001A707B681B689B691B0C9AB20C23FB18EE
:10393000FE210A401A807B681B689B689AB20A23A2
:10394000FB189205920D1A807B681B68DB689AB29F
:103950000823FB18FE210A401A807B68DB68022BD3
:103960004BD10A23FB181B88DB099AB20C23FB18E6
:103970001B8853409BB21A000623134024D10C230A
:10398000FB180A22BA1812881A807B689B6C5A1C92
:103990007B689A647B689B6C022B4AD17B6800220F
:1039A0009A647B681B680822DA617B6840220021E8
:1039B00099540C23FB181A880F23FB1819787B687D
:1039C000180002F021FF34E00C243B190822BA1839
:1039D00012881A807B680421180000F0FDFB7B68C8
:1039E0004022002199543B191A880F23FB1819789B
:1039F0007B68180002F008FF1BE07B6804211800B8
:103A000000F0EAFB7B684022002199540C23FB184C
:103A10001A880F23FB1819787B68180002F0F4FE4F
:103A200007E07B681B680822DA617B68402200217E
:103A30009954C046BD4605B090BD80B582B000AF78
:103A400078607B684222002199547B6841229B5C0C
:103A5000DBB2292B14D17B684122282199547B6841
:103A600021221A637B680121180000F0B5FB7B68F6
:103A70004022002199547B68180002F071FF19E080
:103A80007B6841229B5CDBB22A2B13D17B684122ED
:103A9000282199547B6822221A637B68022118002E
:103AA00000F09AFB7B684022002199547B68180043
:103AB00002F048FFC046BD4602B080BD80B582B06E
:103AC00000AF786039607B681B682022DA617B6810
:103AD0001B685A687B681B6845490A405A607B68C6
:103AE00000221A637B6800225A637B68414ADA62CB
:103AF0003B681022134009D07B681B681022DA61F2
:103B00007B685B6C04221A437B685A647B681800EC
:103B100000F068FA7B680321180000F05DFB7B6809
:103B20005B6C002B05D17B6841229B5CDBB2602B78
:103B300007D17B685A6C7B681100180000F08AF985
:103B400052E07B6841229B5CDBB2212B23D17B6856
:103B50004122202199547B6842229B5CDBB2402B9E
:103B60000CD17B684222002199547B6840220021BD
:103B700099547B681800FFF795FC35E07B6842227A
:103B8000002199547B684022002199547B681800D9
:103B9000FFF778FC28E07B6841229B5CDBB2222B9C
:103BA00022D17B684122202199547B6842229B5C70
:103BB000DBB2402B0CD17B684222002199547B68F8
:103BC0004022002199547B681800FFF773FC0BE03A
:103BD0007B684222002199547B684022002199543D
:103BE0007B681800FFF756FCC046BD4602B080BD9A
:103BF00000E800FE0000FFFF80B582B000AF7860F3
:103C000039607B681B682022DA617B681B680822A8
:103C1000DA617B680721180000F0DEFA7B681B6818
:103C20005A687B681B68802109020A435A607B68D6
:103C30001B685A687B681B685B490A405A607B684E
:103C4000180000F0CFF97B681B681A688023DB013D
:103C50001A408023DB019A4209D07B681B681A68EE
:103C600080231B021A4080231B029A4212D17B68D8
:103C700041229B5CDBB2212B05D17B689B6B1B68CF
:103C80005B689BB204E07B68DB6B1B685B689BB284
:103C90007A6853857B685B8D9BB2002B05D07B686F
:103CA0005B6C04221A437B685A643B68042213400D
:103CB00020D07B681B68586A7B685B6A591C7A68ED
:103CC0005162C2B21A707B681B8D002B12D07B68C8
:103CD0001B8D013B9AB27B681A857B685B8D9BB21A
:103CE000013B9AB27B685A857B685B6C04221A435D
:103CF0007B685A647B6800221A637B684222002139
:103D000099547B6800225A637B685B6C002B13D04C
:103D10007B685A6C7B681100180000F09BF87B6888
:103D200041229B5CDBB2282B3AD13A687B681100B8
:103D3000180000F03DF833E07B68DB6A1B4A9342D1
:103D40000FD07B68194ADA627B684122202199549E
:103D50007B684022002199547B68180002F0D0FD56
:103D60001EE07B6841229B5CDBB2222B0CD17B687E
:103D70004122202199547B684022002199547B687C
:103D8000180002F0DFFD0BE07B68412220219954EE
:103D90007B684022002199547B68180002F0E0FD06
:103DA000C046BD4602B080BD00E800FE0000FFFF37
:103DB00080B582B000AF786039607B68244ADA62EF
:103DC0007B6800221A637B684122202199547B681A
:103DD0004222002199547B6800225A633B680422E6
:103DE000134020D07B681B68586A7B685B6A591C4B
:103DF0007A685162C2B21A707B681B8D002B12D098
:103E00007B681B8D013B9AB27B681A857B685B8D52
:103E10009BB2013B9AB27B685A857B685B6C04223B
:103E20001A437B685A647B680721180000F0D4F9B4
:103E30007B681B681022DA617B684022002199545C
:103E40007B68180002F05CFDC046BD4602B080BD34
:103E50000000FFFF80B582B000AF786039607B68FA
:103E60004222002199547B68594ADA627B68002219
:103E70005A857B685A6C3B681A437B685A647B6836
:103E800041229B5CDBB2282B0BD07B6841229B5CE0
:103E9000DBB2292B05D07B6841229B5CDBB22A2B4D
:103EA0000FD17B680321180000F096F97B6841224E
:103EB000282199547B6800221A637B68454A5A631B
:103EC00014E07B680721180000F086F97B68412226
:103ED0009B5CDBB2602B03D07B684122202199548C
:103EE0007B6800221A637B6800225A637B681B6828
:103EF0001A688023DB011A408023DB019A421ED11D
:103F00007B681B681A687B681B6833490A401A6023
:103F10007B689B6B314A5A637B684022002199542D
:103F20007B689B6B1800FEF7C1FC031E4BD07B68BF
:103F30009B6B5A6B7B689B6B1800904743E07B68D8
:103F40001B681A6880231B021A4080231B029A42B6
:103F50001ED17B681B681A687B681B6820490A4071
:103F60001A607B68DB6B1D4A5A637B684022002124
:103F700099547B68DB6B1800FEF798FC031E22D077
:103F80007B68DB6B5A6B7B68DB6B180090471AE031
:103F90007B6841229B5CDBB2602B0CD17B684122A9
:103FA000202199547B684022002199547B68180095
:103FB00002F022FC07E07B684022002199547B68D4
:103FC000180002F08FFCC046BD4602B080BDC0465E
:103FD0000000FFFFC5340008FFBFFFFF29400008B5
:103FE000FF7FFFFF80B582B000AF78607B681B6801
:103FF0009B6902221340022B03D17B681B680022BD
:104000009A627B681B689B6901221340012B07D0D1
:104010007B681B689A697B681B6801210A439A6167
:10402000C046BD4602B080BD80B584B000AF7860A8
:104030007B685B6AFB60FB681B685A68FB681B68EF
:10404000802109020A435A60FB689B6B00225A6375
:10405000FB68DB6B00225A63FB6841229B5CDBB28E
:10406000602B08D1FB68412220219954FB6818007D
:1040700002F0C2FB03E0FB68180002F033FCC0460C
:10408000BD4604B080BD000090B587B000AFF860B9
:10409000080011007B600A243B19021C1A800920C9
:1040A0003B180A1C1A7000237B61FB681B685B6865
:1040B0007B617B690E4A13407B613B191B889B0522
:1040C0009A0D3B181B781904FF231B040B401A435D
:1040D0007B681A43BB6A13437A6913437B61FB68AD
:1040E0001B687A695A60C046BD4607B090BDC0469D
:1040F000009800FC80B584B000AF78600A00BB1C5B
:104100001A800023FB607B685A6B314B9A4204D0C3
:104110007B685A6B2F4B9A4227D1BB1C1B88042209
:10412000134003D0FB68B8221343FB60BB1C1B8801
:1041300011221340112B03D1FB6890221343FB6023
:10414000BB1C1B8812221340122B03D1FB682022B8
:104150001343FB60BB1C1B8812221340122B29D176
:10416000FB6840221343FB6024E0BB1C1B88042235
:10417000134003D0FB68B8221343FB60BB1C1B88B1
:104180000122134003D0FB68F2221343FB60BB1CE7
:104190001B880222134003D0FB68F4221343FB6008
:1041A000BB1C1B8812221340122B03D1FB68202258
:1041B0001343FB607B681B6819687B681B68FA689F
:1041C0000A431A6000231800BD4604B080BDC046F3
:1041D000A53600080938000880B584B000AF7860C3
:1041E0000A00BB1C1A800023FB60BB1C1B88012239
:1041F000134010D0FB6842221343FB607B684122CE
:104200009B5CDBB21A0028231340282B03D0FB68E9
:10421000B0221343FB60BB1C1B880222134010D04A
:10422000FB6844221343FB607B6841229B5CDBB24A
:104230001A0028231340282B03D0FB68B022134315
:10424000FB60BB1C1B880422134003D0FB68B82210
:104250001343FB60BB1C1B8811221340112B03D19D
:10426000FB6890221343FB60BB1C1B881222134087
:10427000122B03D1FB6820221343FB60BB1C1B885D
:1042800012221340122B03D1FB6840221343FB6020
:104290007B681B681A68FB68D9437B681B680A4007
:1042A0001A6000231800BD4604B080BD80B582B0FE
:1042B00000AF786039607B6841229B5CDBB2202BC9
:1042C00038D17B6840229B5C012B01D1022332E074
:1042D0007B684022012199547B6841222421995412
:1042E0007B681B681A687B681B6801218A431A6017
:1042F0007B681B681A687B681B6811490A401A6052
:104300007B681B6819687B681B683A680A431A60F7
:104310007B681B681A687B681B6801210A431A6066
:104320007B684122202199547B68402200219954C6
:10433000002300E002231800BD4602B080BDC04645
:10434000FFEFFFFF80B584B000AF786039600023D5
:10435000FB607B6841229B5CDBB2202B39D17B6800
:1043600040229B5C012B01D1022333E07B68402279
:10437000012199547B684122242199547B681B6850
:104380001A687B681B6801218A431A607B681B6876
:104390001B68FB60FB68114A1340FB603B681B0213
:1043A000FA681343FB607B681B68FA681A607B68D5
:1043B0001B681A687B681B6801210A431A607B68C6
:1043C0004122202199547B684022002199540023E6
:1043D00000E002231800BD4604B080BDFFF0FFFFDF
:1043E00080B586B000AF786000233B617B681B68B6
:1043F0000122134000D18DE0C54B5B680C221340B5
:10440000042B0ED0C24B5B680C221340082B16D134
:10441000BF4B5A68C0235B021A4080235B029A425A
:104420000DD1BB4B1A6880239B02134000D170E072
:104430007B685B68002B00D06BE0012329E37B687D
:104440005B68012B07D1B24B1A68B14B802149023E
:104450000A431A602FE07B685B68002B0CD1AC4BE1
:104460001A68AB4BAB490A401A60A94B1A68A84BB3
:10447000A9490A401A601EE07B685B68052B0ED1D3
:10448000A34B1A68A24B8021C9020A431A60A04BB1
:104490001A689F4B802149020A431A600BE09C4B2B
:1044A0001A689B4B9B490A401A60994B1A68984BB3
:1044B00099490A401A607B685B68002B14D0FCF7AE
:1044C00017FD03003B6108E0FCF712FD02003B69A9
:1044D000D31A642B01D90323DBE28D4B1A688023A6
:1044E0009B021340F0D015E0FCF702FD03003B6196
:1044F00008E0FCF7FDFC02003B69D31A642B01D9EC
:104500000323C6E2824B1A6880239B021340F0D13A
:1045100000E0C0467B681B680222134000D16CE0BB
:104520007B4B5B680C2213400ED0794B5B680C22EE
:104530001340082B1FD1764B5A68C0235B021A40E8
:1045400080231B029A4216D1714B1B680222134032
:1045500005D07B68DB68012B01D0012399E26C4B0D
:104560001B68F822934319007B681B69DA00684BCB
:104570000A431A6041E07B68DB68002B24D0644B5F
:104580001A68634B01210A431A60FCF7B1FC03006F
:104590003B6108E0FCF7ACFC02003B69D31A022B3C
:1045A00001D9032375E25A4B1B6802221340F1D054
:1045B000574B1B68F822934319007B681B69DA008C
:1045C000534B0A431A6018E0514B1A68504B0121B3
:1045D0008A431A60FCF78CFC03003B6108E0FCF79F
:1045E00087FC02003B69D31A022B01D9032350E256
:1045F000474B1B6802221340F1D17B681B680822DD
:10460000134036D07B68DB69002B19D0404B5A6AC7
:104610003F4B01210A435A62FCF76AFC03003B61ED
:1046200008E0FCF765FC02003B69D31A022B01D9B4
:1046300003232EE2364B5B6A02221340F1D018E0CE
:10464000334B5A6A324B01218A435A62FCF750FCC1
:1046500003003B6108E0FCF74BFC02003B69D31A06
:10466000022B01D9032314E2294B5B6A0222134077
:10467000F1D17B681B680422134000D1B6E01723F8
:10468000FB1800221A70224BDA6980235B05134065
:1046900011D11F4BDA691E4B802149050A43DA61AB
:1046A0001B4BDA6980235B051340FB60FB68172313
:1046B000FB1801221A70194B1A6880235B00134003
:1046C0001AD1164B1A68154B802149000A431A600B
:1046D000FCF70EFC03003B6108E0FCF709FC02005C
:1046E0003B69D31A642B01D90323D2E10B4B1A681F
:1046F00080235B001340F0D07B689B68012B0FD1B7
:10470000034B1A6A024B01210A431A6236E0C04683
:1047100000100240FFFFFEFFFFFFFBFF00700040A4
:104720007B689B68002B0CD1CA4B1A6AC94B0121CC
:104730008A431A62C74B1A6AC64B04218A431A621B
:104740001CE07B689B68052B0CD1C24B1A6AC14BDD
:1047500004210A431A62BF4B1A6ABE4B01210A4365
:104760001A620BE0BB4B1A6ABA4B01218A431A62E8
:10477000B84B1A6AB74B04218A431A627B689B685C
:10478000002B14D0FCF7B4FB03003B6109E0FCF7FD
:10479000AFFB02003B69D31AAF4A934201D903230E
:1047A00077E1AC4B1B6A02221340F0D013E0FCF718
:1047B0009FFB03003B6109E0FCF79AFB02003B69A9
:1047C000D31AA54A934201D9032362E1A14B1B6A84
:1047D00002221340F0D11723FB181B78012B05D1BF
:1047E0009C4BDA699B4B9D490A40DA617B681B68E8
:1047F0001022134063D07B685B69012B2AD1954B53
:104800005A6B944B04210A435A63924B5A6B914B57
:1048100001210A435A63FCF76BFB03003B6108E08C
:10482000FCF766FB02003B69D31A022B01D9032374
:104830002FE1884B5B6B02221340F1D0854B5B6B01
:10484000F822934319007B689B69DA00814B0A4385
:104850005A6334E07B685B69053311D17D4B5A6B39
:104860007C4B04218A435A637A4B5B6BF822934357
:1048700019007B689B69DA00764B0A435A631EE095
:10488000744B5A6B734B04210A435A63714B5A6B36
:10489000704B01218A435A63FCF72AFB03003B61FA
:1048A00008E0FCF725FB02003B69D31A022B01D973
:1048B0000323EEE0674B5B6B02221340F1D17B6870
:1048C0001B68202213405CD0624B5B680C221340B3
:1048D0000C2B0ED05F4B5B680C221340082B14D1BD
:1048E0005C4B5A68C0235B021A40C0235B029A42A9
:1048F0000BD1584B5A6B80235B02134040D07B682E
:104900001B6A012B3CD00123C3E07B681B6A002B90
:104910001BD0504B5A6B4F4B802149020A435A63BC
:10492000FCF7E6FA03003B6108E0FCF7E1FA02005D
:104930003B69D31A022B01D90323AAE0454B5A6BDA
:1049400080235B021340F0D01BE0424B5A6B414B7B
:1049500043490A405A63FCF7CBFA03003B6108E085
:10496000FCF7C6FA02003B69D31A022B01D90323D4
:104970008FE0384B5A6B80235B021340F0D100E08C
:10498000C0467B685B6A002B00D181E0314B5B68DD
:104990000C221340082B00D178E07B685B6A022B65
:1049A0004CD12C4B1A682B4B2E490A401A60FCF74D
:1049B0009FFA03003B6108E0FCF79AFA02003B69AA
:1049C000D31A022B01D9032363E0224B1A688023F8
:1049D0009B041340F0D11F4BDB6A0F229343190055
:1049E0007B681A6B1B4B0A43DA621A4B5B681E4AE0
:1049F000134019007B68DA6A7B689B6A1A43154B7F
:104A00000A435A60134B1A68124B802149040A4327
:104A10001A60FCF76DFA03003B6108E0FCF768FAE6
:104A200002003B69D31A022B01D9032331E0094B61
:104A30001A6880239B041340F0D029E0054B1A68C4
:104A4000044B08490A401A60FCF752FA03003B6124
:104A500015E0C0460010024088130000FFFFFFEF82
:104A6000FFFFFEFFFFFFFFFEFF7FC2FFFCF740FAE4
:104A700002003B69D31A022B01D9032309E0074B3B
:104A80001A6880239B041340F0D101E0012300E069
:104A900000231800BD4606B080BDC046001002408D
:104AA00080B584B000AF786039600023FB607B4B39
:104AB0001B68012213403A689A4211D9774B1B6850
:104AC000012293431900754B3A680A431A60734BED
:104AD0001B68012213403A689A4201D00123D8E0B2
:104AE0007B681B680222134009D06D4B5B68F02283
:104AF000934319007B689A68694B0A435A607B6844
:104B00001B680122134000D189E07B685B68012BA0
:104B100007D1634B1A6880239B02134020D10123E5
:104B2000B7E07B685B68022B07D15D4B1A68802376
:104B30009B04134014D10123ABE07B685B68032B1B
:104B400007D1574B5A6B80235B02134008D10123D6
:104B50009FE0534B1B680222134001D1012398E0D0
:104B60004F4B5B680322934319007B685A684C4B98
:104B70000A435A60FCF7BCF90300FB607B685B6882
:104B8000012B11D109E0FCF7B3F90200FB68D31A3D
:104B9000444A934201D903237BE0414B5B680C22DA
:104BA0001340042BEFD13AE07B685B68022B11D1F4
:104BB00009E0FCF79DF90200FB68D31A394A9342D9
:104BC00001D9032365E0364B5B680C221340082BA8
:104BD000EFD124E07B685B68032B1BD109E0FCF775
:104BE00087F90200FB68D31A2E4A934201D90323A6
:104BF0004FE02B4B5B680C2213400C2BEFD10EE0E7
:104C0000FCF776F90200FB68D31A264A934201D9D1
:104C100003233EE0224B5B680C221340F0D11F4B74
:104C20001B68012213403A689A4211D21B4B1B6841
:104C3000012293431900194B3A680A431A60174B33
:104C40001B68012213403A689A4201D0012320E0F8
:104C50007B681B680422134009D0114B5B68124A21
:104C6000134019007B68DA680D4B0A435A6000F064
:104C700021F801000A4B5B681B090F2213400B4A05
:104C8000D35C0A00DA400A4B1A600020FCF708F9EE
:104C900000231800BD4604B080BDC046002002407D
:104CA0000010024088130000FFF8FFFF2475000881
:104CB0003000002090B58FB000AF1423FB18374AA6
:104CC00013CA13C312681A603B1D354A13CA13C3B3
:104CD00012681A600023FB620023BB6200237B631F
:104CE00000237B6200233B632E4B5B68FB62FB6A05
:104CF0000C221340082B06D00C2B43D0042B44D19C
:104D0000294B3B6344E0FB6A9B0C0F2213401422A7
:104D1000BA18D35C7B62234BDB6A0F2213403A1D27
:104D2000D35CBB62FA6AC0235B021A4080235B0239
:104D30009A4209D1B96A1C48FBF7E6F903001A0048
:104D40007B6A53437B631AE0FA6AC0235B021A4012
:104D5000C0235B029A4209D1B96A1448FBF7D4F91F
:104D600003001A007B6A53437B6308E0B96A10486A
:104D7000FBF7CAF903001A007B6A53437B637B6B22
:104D80003B6305E0094B3B6302E0094B3B63C046D4
:104D90003B6B1800BD460FB090BDC0463474000890
:104DA00044740008001002400024F400006CDC028F
:104DB00000127A0080B500AF024B1B681800BD4698
:104DC00080BDC0463000002080B586B000AF78605E
:104DD00000233B610023FB607B681A6880235B0231
:104DE000134000D18FE01723FB1800221A70674B85
:104DF000DA6980235B05134011D1644BDA69634B98
:104E0000802149050A43DA61604BDA6980235B053A
:104E10001340BB60BB681723FB1801221A705C4B60
:104E20001A6880235B0013401AD1594B1A68584BFB
:104E3000802149000A431A60FCF75AF803003B61DD
:104E400008E0FCF755F802003B69D31A642B01D93E
:104E5000032397E04E4B1A6880235B001340F0D089
:104E60004A4B1A6AC0239B001340FB60FB68002B6F
:104E700034D07B685A68C0239B001340FA689A427A
:104E80002CD0424B1B6A434A1340FB603F4B1A6ACB
:104E90003E4B802149020A431A623C4B1A6A3B4B43
:104EA0003D490A401A62394BFA681A62FB680122CE
:104EB000134013D0FCF71CF803003B6109E0FCF73A
:104EC00017F802003B69D31A344A934201D90323ED
:104ED00058E02E4B1B6A02221340F0D02B4B1B6A6A
:104EE0002C4A134019007B685A68284B0A431A62FF
:104EF0001723FB181B78012B05D1244BDA69234BB0
:104F000027490A40DA617B681B680122134009D0F7
:104F10001E4B1B6B0322934319007B689A681B4B43
:104F20000A431A637B681B682022134009D0174B81
:104F30001B6B1022934319007B68DA68134B0A43FA
:104F40001A637B681A6880239B02134009D00F4BB9
:104F50001B6B8022934319007B685A690B4B0A43F1
:104F60001A637B681A688023DB00134009D0074B63
:104F70001B6B4022934319007B681A69034B0A4359
:104F80001A6300231800BD4606B080BD0010024021
:104F900000700040FFFCFFFFFFFFFEFF88130000D2
:104FA000FFFFFFEF80B586B000AFF8607A600B209E
:104FB0003B180A1C1A70194BFA681A603B181A78C9
:104FC000164B1A611723FB1800221A700EE01720E7
:104FD0003B181B787A68D2183B181B781178104A56
:104FE000D1543B181A783B1801321A701723FA185B
:104FF0000B23FB1812781B789A42E8D3094B084A16
:1050000006490948FCF76EFE031E02D0074B0B222F
:105010001A7001231800BD4606B080BDD8000020DC
:10502000D00000204C0200206C01002078000020FD
:1050300080B500AFC046BD4680BDB0B588B000AFFA
:10504000786010217B1801229A607B187A685A6078
:105050007B1800221A601F257C190C23FA187B1874
:1050600011001800FDF7A8FE030023707B191B78C0
:10507000002B01D001F0F2FEC046BD4608B0B0BD25
:1050800090B583B000AFFC1DFDF7FCFD030023705D
:10509000FB1D1B78002B01D001F0E0FEC046BD4691
:1050A00003B090BD80B584B000AF78607B681B68AA
:1050B0001B68FB607B681B681A1D7B681A60FB68B5
:1050C0001800BD4604B080BDF0B585B000AF786073
:1050D00039607B6819683B681D0000231E000F23A0
:1050E000FC182A0033000220FDF710FD0300237096
:1050F0000F23FB181B78002B01D001F0AFFE7B685B
:105100001B681A1D7B681A60C046BD4605B0F0BD1D
:1051100090B583B000AFFC1DFDF78EFD030023703A
:10512000FB1D1B78002B01D001F098FEC046BD4648
:1051300003B090BD80B582B000AF7860144B1B689F
:105140007A68D21AFA239B009A4217D9114B1A682F
:1051500013005B019B1A9B009B18DB0018000C4B93
:105160001B687A68D31A1900FAF7CEFF03009AB2C7
:10517000094B1A80064B7A681A6004E0054B1B68DD
:105180005A1C044B1A60C046BD4602B080BDC046E2
:105190005C000020540000205800002080B500AFC3
:1051A000024B1B881800BD4680BDC0465800002039
:1051B000B0B58EB000AFFBF75FFE00F02DFD00F044
:1051C000E9FE00F0C9FE00F04FFE00F08BFD00F09C
:1051D00083FEC94B012208211800FEF705F8FA23C7
:1051E0009B001800FBF78EFEC34B0022082118001D
:1051F000FDF7FAFFC820FBF785FE01F0B3FA01F0D6
:10520000BFF801F065FA031E01D001F049F8BB4B6D
:105210001B78632B08D8BA4B1800FEF713F9031E4E
:1052200002D0B64B91221A70B44B1B78632B20D856
:1052300025257C19B349B44B09221800FBF7BEFFA2
:10524000030023707B191B78012B05D010DD022B86
:1052500006D0032B08D00CE0A84B69221A7008E096
:10526000A64B03221A7004E0A44B04221A7000E03B
:10527000C04601F03FFAA54B1B78002B00D1F1E1AD
:10528000A34B1B789AB2A34B1A80A24B1B88172BF7
:1052900000D15FE117DC0F2B00D1D7E007DC092B31
:1052A0002CD00D2B2DD0042B00D1ECE070E1112B74
:1052B00000D1DEE000DAF0E0122B00D164E1142B23
:1052C00000D1F4E064E1232B1FD009DC192B40D07E
:1052D00000DA4CE11B2B00D1C8E0222B19D057E19A
:1052E000302B57D003DC242B00D18BE150E1402B35
:1052F00000D178E0FF2B00D18DE049E100F0FEFE07
:105300008DE1854B01221A7089E1844B01221A70CC
:1053100085E1834B1B68002B00D075E1814B232274
:105320001A70814B1B781A00804B5200D35A180018
:105330007C4B1A000121FFF735FE03001A00012300
:105340005340DBB2002B00D15EE16C4B07221A7098
:105350005AE1744B1A221A70724B03225A70714B25
:1053600000229A70704B1B781A00704B5200D35A6F
:1053700018006C4B1A000321FFF714FE03001A00FB
:1053800001235340DBB2002B00D13FE15B4B2522D0
:105390001A703BE1634B31221A70FFF7FFFE0300E6
:1053A000DAB2604B5A70FFF7F9FE03001B0A9BB29A
:1053B000DAB25C4B9A705C4B1B781A005B4B520064
:1053C000D35A1800574B1A000321FFF7EBFD0300D7
:1053D0001A0001235340DBB2002B00D118E1474BE8
:1053E00025221A7014E14A4B5B78082B03D9434BF2
:1053F00032221A7013E1464B5A784B4B1A7001F067
:105400001DF9494B1B781A00494B5200D35A18001A
:1054100001F0CEF803E1434BFF221A70424B1B7898
:105420001A00424B5200D35A18003E4B1A00012179
:10543000FFF7B8FD03001A0001235340DBB2002B35
:1054400000D1E7E02D4B07221A70E3E0354BFF2235
:105450001A70384B334A38493848FCF743FC031E6E
:1054600000D1D9E0254B5C221A70D5E0FDF74FF949
:10547000D5E0334B01221A70324B00221A70324BA6
:1054800006221A70CBE02E4B01221A702D4B0122FE
:105490001A702E4B01221A70C1E02D4B01221A7096
:1054A000284B00221A70284B06221A70B7E0284BAE
:1054B00001221A70234B00221A70234B06221A7005
:1054C000184B41221A70184B1B781A00174B5200C8
:1054D000D35A1800134B1A000121FFF763FD030094
:1054E0001A0001235340DBB2002B00D196E0034B9E
:1054F00039221A7092E0C04600040048780000206B
:105500001C01002098010020CC020020880000200F
:105510005002002064000020630000207100002081
:1055200074000020D000002061000020F874000802
:10553000E87400084C020020D80000206C01002014
:1055400081000020830000200100002016000020C0
:1055500082000020D94B01221A70D94B01221A7007
:10556000D84B01221A70D84B01221A7057E0D34B46
:1055700001221A70D24B01221A70D24B01221A70EA
:10558000D14B00221A704AE0CC4B00221A7046E040
:10559000CE4B27221A701023F918CD4A0B0031CABE
:1055A00031C30B000C3308220021180001F0F2FE79
:1055B000C84B1B8818000C23FB181022190001F09F
:1055C000E5FE3723FB1800221A7010E037203B1845
:1055D0001A783B181B7801330C217918895C10224A
:1055E000BA18D1543B181A783B1801321A70372375
:1055F000FB181B78022BE9D91023FB18180001F0C7
:10560000CDFB0CE0C0460AE0C04608E0C04606E01C
:10561000C04604E0C04602E0C04600E0C046AE4BD3
:105620001B69022B1BD9AB4B1B88102B0BD0A94B32
:105630001B88142B07D0A74B1B88172B03D0A54B17
:105640001B88182B0BD1A54B5B781AB2A34B9B7808
:105650001B021BB213431BB29AB2A14B1A80A14B7F
:1056600000221A7000233B630BE09F4B3A6B520001
:10567000D35A19B29D4B3A6B5200D1523B6B013356
:105680003B633B6B082BF0DD01F078F903001AB2A5
:10569000974B1A80894B1B78002B04D1954B1B78B4
:1056A000002B00D186E1FBF723FC0200924B1B6824
:1056B000D31A8B4A1288934200D87BE18D4B00228B
:1056C0001A707F4B1B78002B00D1C7E02F23FB18EB
:1056D00000221A702E23FB1800221A701FE02E25BC
:1056E0007B191C787B191B78180000F0C5FF03009C
:1056F0001A003B001A557B191B783A00D25C7B19C3
:105700001B787E49CB5C9A4203D02F23FB180122E1
:105710001A702E217B181A787B1801321A702E23EA
:10572000FB181B78082B07D82F23FB181B780122A6
:105730005340DBB2002BD2D12F23FB181B78002B58
:105740000CD16B4B00229B5E1A006D4B1B889A425A
:1057500004D15C4B1B78002B00D12BE1694B0E224E
:105760001A70634B00229B5EDAB2664B5A70604B34
:1057700000229B5E1B121BB2DAB2624B9A703B0096
:105780001B78DB015AB23B005B789B015BB2134391
:105790005AB23B009B785B015BB213435AB23B00A9
:1057A000DB781B015BB213435AB23B001B79DB0071
:1057B0005BB213435AB23B005B799B005BB213436D
:1057C0005AB23B009B795B005BB213435AB23B0079
:1057D000DB795BB213435BB2DAB24A4BDA703B005F
:1057E0001B7A1A00474B1A71474B1B781A00474B1C
:1057F0005200D35A1800434B1A000521FFF7D2FB81
:1058000003001A0001235340DBB2002B02D02F4BC0
:1058100012221A70364B00229B5E9AB2384B1A80C5
:105820002D23FB1800221A700DE02D203B181A784A
:105830003B181B783900895C304AD1543B181A78E0
:105840003B1801321A702D23FB181B78082BECD95A
:10585000FBF74EFB0200284B1A60ABE02C4B1A788A
:10586000284B1A702C23FB1800221A70284B1B7827
:10587000072B0BD0082B11D0062B17D12C23FB188C
:1058800000221A70224B07221A7012E02C23FB18F8
:1058900003221A701E4B08221A700AE02C23FB18F0
:1058A00006221A701A4B06221A7002E0074B0722D2
:1058B0001A702B23FB1800221A7052E0820000207D
:1058C0008300002016000020000000207800002047
:1058D0005474000864000020B00200205002002030
:1058E0001A000020880000209801002058020020A3
:1058F0009401002081000020840000206800002026
:1059000018000020D000002061000020F87400087A
:10591000010000202C243B191A782B203B181B78FF
:10592000D218B14B5200D35E1B121AB23B181B782F
:105930005B000133D1B2AD4AD1543B191A783B1800
:105940001B78D218A84B5200D25E3B181B7801334B
:105950005B00D1B2A54AD1543B181A783B180132EA
:105960001A702B23FB181B78022BD3D9A04B1B7862
:105970001A00A04B5200D35A18009C4B1A00082161
:10598000FFF710FB03001A0001235340DBB2002B8A
:1059900002D0994B08221A70984B03211800FCF78B
:1059A0009DFB031E01D001F059FAFBF7A1FA02009A
:1059B000934B1A60934B1B78002B00D1BFE02A2336
:1059C000FB1800221A702923FB1801221A708D4B34
:1059D0001B78062B52D89A008B4BD3181B689F4616
:1059E0002A23FB1800221A70864B02221A707F4B62
:1059F0000A221A702923FB1800221A7041E02A2378
:105A0000FB1803221A707F4B03221A70774B0B226C
:105A10001A702923FB1800221A7032E02A23FB187F
:105A200006221A70774B04221A70704B0C221A70DF
:105A30002923FB1800221A7023E02A23FB180022D6
:105A40001A70704B05221A70684B0F221A7018E0FA
:105A50002A23FB1803221A706A4B06221A70634B22
:105A600050221A700DE02A23FB1806221A70654B8B
:105A700000221A705D4B51221A7002E05E4B262202
:105A80001A702823FB1800221A703AE02923FB1809
:105A90001B78002B0DD02A23FB181A782823FB181B
:105AA0001B78D218594B5200D25E2623FB181A805D
:105AB0000CE02A23FB181A782823FB181B78D2182D
:105AC000534B5200D25E2623FB181A8026243B1922
:105AD0001B881B0A9AB228203B181B785B000133F5
