:020000040800F2
:10000000FF2F00206D4900087D4800088B4800083C
:1000100091480008974800089D480008000000002B
:10002000000000000000000000000000A3480008DD
:10003000B148000800000000BF480008CD48000893
:10004000BD490008BD490008BD490008BD49000878
:10005000BD490008BD490008BD490008BD49000868
:10006000BD490008BD490008BD490008BD49000858
:10007000BD490008BD490008BD490008BD49000848
:10008000BD490008BD490008BD490008BD49000838
:10009000BD490008BD490008BD490008BD49000828
:1000A000BD490008BD490008BD490008BD49000818
:1000B000BD490008BD49000800000000BD49000816
:1000C000BD4900080000000000000000BD49000814
:1000D00000000000BD490008BD490008BD490008F6
:1000E000BD490008BD4900080000000000000000F4
:1000F0000000000000000000000000000000000000
:1001000000000000000000000000000000000000EF
:100110000000000000000000BD490008BD490008C3
:1001200000000000000000000000000000000000CF
:1001300000000000000000000000000000000000BF
:10014000BD490008BD49000800000000BD49000885
:10015000BD490008BD490008BD490008BD49000867
:10016000BD490008BD490008000000000000000073
:10017000000000000000000000000000000000007F
:0801800000000000BD49000869
:1001880010B5054C237833B9044B13B10448AFF3C9
:1001980000800123237010BD0C0000200000000027
:1001A800184A000808B5034B1BB103490348AFF3CD
:1001B800008008BD0000000010000020184A000858
:1001C80081F0004102E000BF83F0004330B54FEA00
:1001D80041044FEA430594EA050F08BF90EA020F6D
:1001E8001FBF54EA000C55EA020C7FEA645C7FEA00
:1001F800655C00F0E2804FEA5454D4EB5555B8BF23
:100208006D420CDD2C4480EA020281EA030382EA93
:10021800000083EA010180EA020281EA0303362D25
:1002280088BF30BD11F0004F4FEA01314FF4801CF8
:100238004CEA113102D0404261EB410113F0004F0A
:100248004FEA03334CEA133302D0524263EB4303C1
:1002580094EA050F00F0A780A4F10104D5F1200E5F
:100268000DDB02FA0EFC22FA05F2801841F10001BA
:1002780003FA0EF2801843FA05F359410EE0A5F18E
:1002880020050EF1200E012A03FA0EFC28BF4CF0BF
:10029800020C43FA05F3C01851EBE37101F0004575
:1002A80007D54FF0000EDCF1000C7EEB00006EEB82
:1002B8000101B1F5801F1BD3B1F5001F0CD349080C
:1002C8005FEA30004FEA3C0C04F101044FEA445263
:1002D80012F5800F80F09A80BCF1004F08BF5FEAEA
:1002E800500C50F1000041EB045141EA050130BDCA
:1002F8005FEA4C0C404141EB010111F4801FA4F16D
:100308000104E9D191F0000F04BF01460020B1FAC1
:1003180081F308BF2033A3F10B03B3F120020CDAF9
:100328000C3208DD02F1140CC2F10C0201FA0CF0D7
:1003380021FA02F10CE002F11402D8BFC2F1200C3C
:1003480001FA02F120FA0CFCDCBF41EA0C019040F2
:10035800E41AA2BF01EB0451294330BD6FEA04043B
:100368001F3C1CDA0C340EDC04F11404C4F1200226
:1003780020FA04F001FA02F340EA030021FA04F338
:1003880045EA030130BDC4F10C04C4F1200220FA8F
:1003980002F001FA04F340EA0300294630BD21FACD
:1003A80004F0294630BD94F0000F83F4801306BF93
:1003B80081F480110134013D4EE77FEA645C18BF87
:1003C8007FEA655C29D094EA050F08BF90EA020F1E
:1003D80005D054EA000C04BF1946104630BD91EA16
:1003E800030F1EBF0021002030BD5FEA545C05D119
:1003F8004000494128BF41F0004130BD14F5800458
:100408003CBF01F5801130BD01F0004545F0FE41CB
:1004180041F470014FF0000030BD7FEA645C1ABF00
:10042800194610467FEA655C1CBF0B46024650EA37
:10043800013406BF52EA033591EA030F41F4002163
:1004480030BD00BF90F0000F04BF0021704730B5E9
:100458004FF4806404F132044FF000054FF00001BE
:1004680050E700BF90F0000F04BF0021704730B57F
:100478004FF4806404F1320410F0004548BF404254
:100488004FF000013EE700BF42004FEAE2014FEAA9
:1004980031014FEA02701FBF12F07F4393F07F4F84
:1004A80081F06051704732F07F4208BF704793F087
:1004B8007F4F04BF41F40021704730B54FF460749A
:1004C80001F0004521F000411CE700BF50EA01029D
:1004D80008BF704730B54FF000050AE050EA010246
:1004E80008BF704730B511F0004502D5404261EBB6
:1004F80041014FF4806404F132045FEA915C3FF4F7
:10050800D8AE4FF003025FEADC0C18BF03325FEA93
:10051800DC0C18BF033202EBDC02C2F1200300FA44
:1005280003FC20FA02F001FA03FE40EA0E0021FA69
:1005380002F11444BDE600BF70B54FF0FF0C4CF457
:10054800E06C1CEA11541DBF1CEA135594EA0C0F09
:1005580095EA0C0F00F0DEF82C4481EA030621EA44
:100568004C5123EA4C5350EA013518BF52EA03357F
:1005780041F4801143F4801338D0A0FB02CE4FF031
:100588000005E1FB02E506F00042E0FB03E54FF061
:100598000006E1FB03569CF0000F18BF4EF0010E59
:1005A800A4F1FF04B6F5007F64F5407404D25FEA55
:1005B8004E0E6D4146EB060642EAC62141EA555108
:1005C8004FEAC52040EA5E504FEACE2EB4F1FD0C4A
:1005D80088BFBCF5E06F1ED8BEF1004F08BF5FEAC8
:1005E800500E50F1000041EB045170BD06F000467A
:1005F80046EA010140EA020081EA0301B4EB5C0427
:10060800C2BFD4EB0C0541EA045170BD41F480111E
:100618004FF0000E013C00F3AB8014F1360FDEBF43
:10062800002001F0004170BDC4F10004203C35DA1F
:100638000C341BDC04F11404C4F1200500FA05F3A2
:1006480020FA04F001FA05F240EA020001F0004243
:1006580021F0004110EBD37021FA04F642EB0601B9
:100668005EEA430E08BF20EAD37070BDC4F10C04E3
:10067800C4F1200500FA04F320FA05F001FA04F2A7
:1006880040EA020001F0004110EBD37041F1000193
:100698005EEA430E08BF20EAD37070BDC4F120059E
:1006A80000FA05F24EEA020E20FA04F301FA05F206
:1006B80043EA020321FA04F001F0004121FA04F2AE
:1006C80020EA020000EBD3705EEA430E08BF20EA7E
:1006D800D37070BD94F0000F0FD101F000464000B8
:1006E80041EB010111F4801F08BF013CF7D041EA3A
:1006F800060195F0000F18BF704703F0004652003E
:1007080043EB030313F4801F08BF013DF7D043EA0E
:100718000603704794EA0C0F0CEA135518BF95EAC4
:100728000C0F0CD050EA410618BF52EA4306D1D14B
:1007380081EA030101F000414FF0000070BD50EA6A
:10074800410606BF1046194652EA430619D094EAF4
:100758000C0F02D150EA013613D195EA0C0F05D1DE
:1007680052EA03361CBF104619460AD181EA030132
:1007780001F0004141F0FE4141F470014FF00000EA
:1007880070BD41F0FE4141F4780170BD70B54FF085
:10079800FF0C4CF4E06C1CEA11541DBF1CEA135505
:1007A80094EA0C0F95EA0C0F00F0A7F8A4EB0504E7
:1007B80081EA030E52EA03354FEA013100F08880DE
:1007C8004FEA03334FF0805545EA131343EA1263A7
:1007D8004FEA022245EA111545EA10654FEA00265C
:1007E8000EF000419D4208BF964244F1FD0404F515
:1007F800407402D25B084FEA3202B61A65EB030571
:100808005B084FEA32024FF480104FF4002CB6EB2D
:10081800020E75EB030E22BFB61A754640EA0C00AD
:100828005B084FEA3202B6EB020E75EB030E22BFED
:10083800B61A754640EA5C005B084FEA3202B6EB2E
:10084800020E75EB030E22BFB61A754640EA9C00ED
:100858005B084FEA3202B6EB020E75EB030E22BFBD
:10086800B61A754640EADC0055EA060E18D04FEA7B
:10087800051545EA16754FEA06164FEAC30343EA1B
:1008880052734FEAC2025FEA1C1CC0D111F4801FE8
:100898000BD141EA00014FF000004FF0004CB6E7E1
:1008A80011F4801F04BF01430020B4F1FD0C88BF80
:1008B800BCF5E06F3FF6AFAEB5EB030C04BFB6EB8B
:1008C800020C5FEA500C50F1000041EB045170BD7E
:1008D8000EF0004E4EEA113114EB5C04C2BFD4EBAB
:1008E8000C0541EA045170BD41F480114FF0000E2F
:1008F800013C90E645EA060E8DE60CEA135594EAAB
:100908000C0F08BF95EA0C0F3FF43BAF94EA0C0FAD
:100918000AD150EA01347FF434AF95EA0C0F7FF422
:1009280025AF104619462CE795EA0C0F06D152EA76
:1009380003353FF4FDAE1046194622E750EA41065A
:1009480018BF52EA43067FF4C5AE50EA41047FF46B
:100958000DAF52EA43057FF4EBAE12E74FEA4102CE
:10096800B2F1E04324BFB3F5001CDCF1FE5C0DD905
:1009780001F0004C4FEAC0024CEA5070B2F1004F4F
:1009880040EB830008BF20F00100704711F0804F52
:1009980021D113F13872BCBF01F00040704741F417
:1009A80080114FEA5252C2F11802C2F1200C10FA1B
:1009B8000CF320FA02F018BF40F001004FEAC123FF
:1009C8004FEAD32303FA0CFC40EA0C0023FA02F3A3
:1009D8004FEA4303CCE77FEA625307D150EA013379
:1009E8001EBF4FF0FE4040F44000704701F0004049
:1009F80040F0FE4040F40000704700BF80B500AFF3
:100A0800084B1B68074A43F010031360032000F0EB
:100A18002FF9002000F008F803F03AFE00231846EA
:100A280080BD00BF0020024080B582B000AF786072
:100A3800124B1A68124B1B7819464FF47A73B3FBA2
:100A4800F1F3B2FBF3F3184600F039F90346002B33
:100A580001D001230EE07B680F2B0AD800227968A9
:100A68004FF0FF3000F00FF9064A7B68136000234F
:100A780000E0012318460837BD4680BD0800002065
:100A8800040000200000002080B400AF064B1B7853
:100A98001A46064B1B681344044A136000BFBD4640
:100AA8005DF8047B704700BF040000203800002078
:100AB80080B400AF034B1B681846BD465DF8047B45
:100AC800704700BF3800002080B584B000AF786060
:100AD800FFF7EEFFB8607B68FB60FB68B3F1FF3F90
:100AE80005D0094B1B781A46FB681344FB6000BF0E
:100AF800FFF7DEFF0246BB68D31AFA689A42F7D8B6
:100B080000BF1037BD4680BD0400002080B485B00A
:100B180000AF78607B6803F00703FB600C4BDB6871
:100B2800BB60BA684FF6FF031340BB60FB681A024C
:100B3800BB68134343F0BF6343F40033BB60044A0C
:100B4800BB68D36000BF1437BD465DF8047B7047AF
:100B580000ED00E080B400AF044BDB681B0A03F033
:100B680007031846BD465DF8047B704700ED00E0BA
:100B780080B483B000AF03463960FB7197F9073042
:100B8800002B0BDA3B68DAB20C49FB7903F00F0350
:100B9800043B1201D2B20B441A7609E03B68DAB280
:100BA800074997F907301201D2B20B4483F80023A2
:100BB80000BF0C37BD465DF8047B704700ED00E0D0
:100BC80000E100E080B489B000AFF860B9607A60F5
:100BD800FB6803F00703FB61FB69C3F10703042B00
:100BE80028BF0423BB61FB690433062B02D9FB69C8
:100BF800033B00E000237B614FF0FF32BB6902FA40
:100C080003F3DA43BB681A407B699A404FF0FF311F
:100C18007B6901FA03F3D9437B680B4013431846F9
:100C28002437BD465DF8047B7047000080B582B06C
:100C380000AF78607B68013BB3F1807F01D301236B
:100C48000FE00A4A7B68013B53600F214FF0FF30E9
:100C5800FFF78EFF054B00229A60044B07221A60AB
:100C6800002318460837BD4680BD00BF10E000E0ED
:100C780080B582B000AF78607868FFF747FF00BFA3
:100C88000837BD4680BD80B586B000AF0346B96061
:100C98007A60FB7300237B61FFF75CFF78617A68F9
:100CA800B9687869FFF78EFF024697F90F30114649
:100CB8001846FFF75DFF00BF1837BD4680BD80B5F9
:100CC80082B000AF78607868FFF7B0FF0346184637
:100CD8000837BD4680BD80B582B000AF78607B68BC
:100CE800002B01D1012314E07B681B79DBB2002BB8
:100CF80005D17B6800225A71786803F0EDFC7B68A7
:100D080002221A717B6800221A617B6801221A711B
:100D1800002318460837BD4680BD80B487B000AFB1
:100D2800F860B9607A603B6000237B61FB681B68F0
:100D38007B61BB68002B05D17A697B681344083353
:100D48007B6104E07A697B68134414337B617B69B7
:100D58001A463B681360002318461C37BD465DF8E9
:100D6800047B704780B483B000AF786039607B68DB
:100D78005B79012B01D1022339E07B6801225A718A
:100D88007B6802221A717B681B68196801223B681C
:100D98009A407B681B680A431A603B68002B0FD196
:100DA8007B681B681B6803F03C033C2B18D17B68ED
:100DB8001B685A687B681B6842F001025A600FE0A2
:100DC8007B681B681B6803F47013B3F5701F07D1A9
:100DD8007B681B685A687B681B6842F002025A608D
:100DE8007B6801221A717B6800225A710023184619
:100DF8000C37BD465DF8047B7047000080B487B0AF
:100E080000AFF860B9607A6000237B6100233B6122
:100E1800FB685B79012B01D102234EE0FB680122BC
:100E28005A71FB6802221A71FB681B681B687B6198
:100E3800FB681B68244A934212D17B68002B0FD1B0
:100E480040F6FE727B6802FA03F3DB437A691340CB
:100E58007B61BB681A68BB685B6813433B610EE043
:100E680040F6FE727B6802FA03F3DB437A691340AB
:100E78007B61BB681A68BB689B6813433B613A692E
:100E88007B6802FA03F37A6913437B61FB681B688A
:100E98007A691A60FB681B681968C0227B6802FAC5
:100EA80003F3DA43FB681B680A401A60FB680122F7
:100EB8001A71FB6800225A71002318461C37BD4678
:100EC8005DF8047B704700BF0074004080B487B0B1
:100ED80000AF7860396000237B610023FB6000234A
:100EE8003B614EE13B681A6801217B6901FA03F313
:100EF8001340FB60FB68002B00F040813B685B6897
:100F0800022B03D03B685B68122B23D17B69DA087C
:100F18007B68083253F822303B617B6903F0070392
:100F28009B000F2202FA03F3DB433A6913403B614B
:100F38003B681A697B6903F007039B0002FA03F315
:100F48003A6913433B617B69DA087B68083239697F
:100F580043F822107B681B683B617B695B000322B6
:100F680002FA03F3DB433A6913403B613B685B6871
:100F780003F003027B695B0002FA03F33A69134347
:100F88003B617B683A691A603B685B68012B0BD050
:100F98003B685B68022B07D03B685B68112B03D06A
:100FA8003B685B68122B30D17B689B683B617B692F
:100FB8005B00032202FA03F3DB433A6913403B6107
:100FC8003B68DA687B695B0002FA03F33A6913430A
:100FD8003B617B683A699A607B685B683B61012288
:100FE8007B6902FA03F3DB433A6913403B613B68D0
:100FF8005B681B0903F001027B6902FA03F33A6993
:1010080013433B617B683A695A607B68DB683B61E4
:101018007B695B00032202FA03F3DB433A6913405E
:101028003B613B689A687B695B0002FA03F33A69A3
:1010380013433B617B683A69DA603B685B6803F09D
:101048008053002B00F09A80554B9B69544A43F01B
:1010580001039361524B9B6903F00103BB60BB68BA
:10106800504A7B699B08023352F823303B617B6905
:1010780003F003039B000F2202FA03F3DB433A69F0
:1010880013403B617B68B3F1904F13D07B68464AAD
:1010980093420DD07B68454A934207D07B68444A07
:1010A800934201D1032306E0052304E0022302E072
:1010B800012300E000237A6902F0030292009340C2
:1010C8003A6913433B6137497B699B0802333A69A4
:1010D80041F82320374B1B683B61FB68DB433A69C7
:1010E80013403B613B685B6803F48033002B03D0FB
:1010F8003A69FB6813433B612E4A3B6913602D4BE9
:101108005B683B61FB68DB433A6913403B613B68C2
:101118005B6803F40033002B03D03A69FB68134380
:101128003B61244A3B695360224B9B683B61FB68E7
:10113800DB433A6913403B613B685B6803F4801307
:10114800002B03D03A69FB6813433B61194A3B699A
:101158009360184BDB683B61FB68DB433A691340DB
:101168003B613B685B6803F40013002B03D03A69CA
:10117800FB6813433B610F4A3B69D3607B690133CA
:101188007B613B681A687B6922FA03F3002B7FF4C2
:10119800A9AE00BF1C37BD465DF8047B704700BF91
:1011A8000010024000000140000400480008004808
:1011B800000C00480004014080B483B000AF7860A0
:1011C8000B467B8013467B707B78002B03D07A8894
:1011D8007B689A6102E07A887B689A6200BF0C3764
:1011E800BD465DF8047B704780B582B000AF78607B
:1011F8007B68002B01D1012381E07B6893F84130A3
:10120800DBB2002B06D17B68002283F84020786887
:1012180003F0CEFA7B68242283F841207B681B68A0
:101228001A687B681B6822F001021A607B685A689A
:101238007B681B6822F070621A617B681B689A6879
:101248007B681B6822F400429A607B68DB68012B8C
:1012580007D17B689A687B681B6842F400429A60F1
:1012680006E07B689A687B681B6842F404429A60CF
:101278007B68DB68022B04D17B681B684FF4006233
:101288005A607B681B685B687A68126843F0007371
:1012980043F4004353607B681B68DA687B681B680B
:1012A80022F40042DA607B681A697B685B6942EA6B
:1012B80003017B689B691A027B681B680A43DA6032
:1012C8007B68D9697B681A6A7B681B680A431A605D
:1012D8007B681B681A687B681B6842F001021A6009
:1012E8007B6800225A647B68202283F841207B684F
:1012F80000221A637B68002283F8422000231846E4
:101308000837BD4680BD000080B588B002AFF860E0
:101318007A601A460B467B8113463B8100237B612A
:10132800FB6893F84130DBB2202B40F0E480FB6887
:1013380093F84030012B01D10223DDE0FB68012244
:1013480083F84020FFF7B4FB78617B690093192389
:1013580001224FF40041F86800F0E6FA0346002B3A
:1013680001D00323C8E0FB68212283F84120FB68F1
:10137800102283F84220FB6800225A64FB687A68CE
:101388005A62FB683A895A85FB6800225A63FB68EF
:101398005B8D9BB2FF2B0ED9FB68FF221A85FB6879
:1013A8001B8DDAB27989564B00934FF08073F86839
:1013B80000F03AFC70E0FB685B8D9AB2FB681A8516
:1013C800FB681B8DDAB279894D4B00934FF000739F
:1013D800F86800F029FC5FE07A69396AF86800F07B
:1013E800DDFA0346002B07D0FB685B6C042B01D1A8
:1013F800012381E003237FE0FB685B6A591CFA68DC
:1014080051621A78FB681B689A62FB685B8D9BB215
:10141800013B9AB2FB685A85FB681B8D013B9AB267
:10142800FB681A85FB681B8D002B35D1FB685B8D2B
:101438009BB2002B30D07B6900933B6A002280214D
:10144800F86800F071FA0346002B01D0032353E03B
:10145800FB685B8D9BB2FF2B0ED9FB68FF221A85B8
:10146800FB681B8DDAB27989002300934FF08073F3
:10147800F86800F0D9FB0FE0FB685B8D9AB2FB6857
:101488001A85FB681B8DDAB27989002300934FF027
:101498000073F86800F0C8FBFB685B8D9BB2002BFB
:1014A8009AD17A69396AF86800F0B8FA0346002BCD
:1014B80007D0FB685B6C042B01D101231CE00323DC
:1014C8001AE0FB681B682022DA61FB681B68596810
:1014D800FB681A680B4B0B405360FB68202283F8AB
:1014E8004120FB68002283F84220FB68002283F831
:1014F8004020002300E0022318461837BD4680BD6F
:101508000020008000E800FE80B588B002AFF860D7
:101518007A601A460B467B8113463B8100237B6128
:10152800FB6893F84130DBB2202B40F0E580FB6884
:1015380093F84030012B01D10223DEE0FB68012241
:1015480083F84020FFF7B4FA78617B690093192388
:1015580001224FF40041F86800F0E6F90346002B39
:1015680001D00323C9E0FB68222283F84120FB68ED
:10157800102283F84220FB6800225A64FB687A68CC
:101588005A62FB683A895A85FB6800225A63FB68ED
:101598005B8D9BB2FF2B0ED9FB68FF221A85FB6877
:1015A8001B8DDAB27989574B00934FF08073F86836
:1015B80000F03AFB71E0FB685B8D9AB2FB681A8514
:1015C800FB681B8DDAB279894E4B00934FF000739C
:1015D800F86800F029FB60E07A69396AF86800F079
:1015E80059FA0346002B07D0FB685B6C042B01D12A
:1015F800012382E0032380E0FB681B68586AFB68CC
:101608005B6A591CFA685162C2B21A70FB681B8D7A
:10161800013B9AB2FB681A85FB685B8D9BB2013B64
:101628009AB2FB685A85FB681B8D002B35D1FB6885
:101638005B8D9BB2002B30D07B6900933B6A002204
:101648008021F86800F070F90346002B01D00323CD
:1016580053E0FB685B8D9BB2FF2B0ED9FB68FF2222
:101668001A85FB681B8DDAB27989002300934FF045
:101678008073F86800F0D8FA0FE0FB685B8D9AB2C7
:10168800FB681A85FB681B8DDAB279890023009301
:101698004FF00073F86800F0C7FAFB685B8D9BB2E7
:1016A800002B99D17A69396AF86800F0B7F90346CE
:1016B800002B07D0FB685B6C042B01D101231CE0D5
:1016C80003231AE0FB681B682022DA61FB681B68A9
:1016D8005968FB681A680C4B0B405360FB68202262
:1016E80083F84120FB68002283F84220FB6800222F
:1016F80083F84020002300E0022318461837BD462F
:1017080080BD00BF0024008000E800FE80B588B0DE
:1017180002AFF8607A603B600B467B8100237B61F7
:1017280000233B61FB6893F84130DBB2202B40F08B
:10173800C680FB681B689B6903F40043B3F5004F40
:1017480001D10223BCE0FB6893F84030012B01D1A2
:101758000223B5E0FB68012283F84020FB682422BD
:1017680083F84120FB6800225A64FB68DB68012B80
:1017780007D17B89C3F3090343F0007343F4005393
:1017880004E07B89C3F3090343F42053FA68126821
:101798005360FFF78DF9786118E03B68B3F1FF3FBC
:1017A80014D03B68002B07D0FFF782F902467B690B
:1017B800D31A3A689A4209D2FB68202283F841205A
:1017C800FB68002283F84020032379E0FB681B684C
:1017D8009B6903F02003202B0CD0FB681B689B69D6
:1017E80003F01003102B05D0FB6893F84130DBB2EF
:1017F800A02BD2D1FB681B689B6903F01003102B48
:101808001AD07B6900933B6800222021F86800F019
:101818008BF80346002B01D0032351E0FB681B68BB
:101828002022DA61FB68202283F84120FB6800222D
:1018380083F84020002343E07B6900933B68002243
:101848002021F86800F070F80346002B01D003232C
:1018580036E0FB681B681022DA61FB681B682022EF
:10186800DA613B695A1C3A617A689A4218D1FB6876
:101878001B685A68FB681B6842F480425A607B699F
:1018880000933B6800222021F86800F04DF80346D9
:10189800002B01D0032313E0FB681B682022DA61C8
:1018A8003B697A689A423FF660AFFB68202283F86A
:1018B8004120FB68002283F84020032300E0022334
:1018C80018461837BD4680BD80B483B000AF786035
:1018D8007B685B6C18460C37BD465DF8047B704727
:1018E80080B483B000AF78607B681B689B6903F0A5
:1018F8000203022B03D17B681B6800229A627B6873
:101908001B689B6903F00103012B07D07B681B68E8
:101918009A697B681B6842F001029A6100BF0C3724
:10192800BD465DF8047B704780B584B000AFF860B1
:10193800B9603B601346FB711CE03B68B3F1FF3FA5
:1019480018D03B68002B07D0FFF7B2F80246BB69F6
:10195800D31A3A689A420DD2FB68202283F84120B4
:10196800FB68002283F84220FB68002283F84020AD
:1019780003230FE0FB681B689A69BB681340BA68C9
:101988009A420CBF01230023DBB21A46FB799A4224
:10199800D3D0002318461037BD4680BD80B584B02B
:1019A80000AFF860B9607A602CE07A68B968F868C6
:1019B80000F0DCF80346002B01D001232AE0BB68C5
:1019C800B3F1FF3F1ED0BB68002B07D0FFF770F8BC
:1019D80002467B68D31ABA689A4213D2FB685B6CDA
:1019E80043F02002FB685A64FB68202283F84120F8
:1019F800FB68002283F84220FB68002283F840201D
:101A0800032307E0FB681B689B6903F00203022BB2
:101A1800CBD1002318461037BD4680BD80B584B0B1
:101A280000AFF860B9607A6028E07A68B968F86849
:101A380000F09CF80346002B01D0012326E0BB6888
:101A4800002B07D0FFF734F802467B68D31ABA6830
:101A58009A4213D2FB685B6C43F02002FB685A641D
:101A6800FB68202283F84120FB68002283F842208B
:101A7800FB68002283F84020032307E0FB681B680B
:101A88009B6903F02003202BCFD100231846103781
:101A9800BD4680BD80B584B000AFF860B9607A609B
:101AA80055E07A68B968F86800F060F80346002BDA
:101AB80001D0012353E0FB681B689B6903F02003F6
:101AC800202B29D1FB681B689B6903F00403042BB6
:101AD80005D1FB681B8D002B01D000233FE0FB687C
:101AE8001B682022DA61FB681B685968FB681A6862
:101AF8001D4B0B405360FB6800225A64FB68202290
:101B080083F84120FB68002283F84220FB6800220A
:101B180083F84020012322E0BB68002B07D0FEF7A2
:101B2800C7FF02467B68D31ABA689A420FD2FB688D
:101B38005B6C43F02002FB685A64FB68202283F840
:101B48004120FB68002283F84020032307E0FB685C
:101B58001B689B6903F00403042BA2D100231846D9
:101B68001037BD4680BD00BF00E800FE80B584B0D8
:101B780000AFF860B9607A60FB681B689B6903F086
:101B88001003102B48D11CE0BB68B3F1FF3F18D0FD
:101B9800BB68002B07D0FEF78BFF02467B68D31A81
:101BA800BA689A420DD2FB68202283F84120FB686C
:101BB800002283F84220FB68002283F84020032398
:101BC8002BE0FB681B689B6903F02003202BDBD10B
:101BD800FB681B681022DA61FB681B682022DA6147
:101BE800F868FFF77DFEFB681B685968FB681A6890
:101BF8000C4B0B405360FB6804225A64FB6820229C
:101C080083F84120FB68002283F84220FB68002209
:101C180083F84020012300E0002318461037BD4612
:101C280080BD00BF00E800FE80B485B000AFF8605A
:101C38007B600B467B8113467B72FB681B685A6886
:101C4800BB695B0D03F480610D4B0B43DB4302EA78
:101C580003017B89C3F309027B7A1B0403F47F0326
:101C68001A437B681A43BB691A43FB681B680A431B
:101C78005A6000BF1437BD465DF8047B704700BF4B
:101C8800FF63FF0380B483B000AF786039607B687E
:101C980093F84130DBB2202B38D17B6893F8403081
:101CA800012B01D1022332E07B68012283F8402016
:101CB8007B68242283F841207B681B681A687B684C
:101CC8001B6822F001021A607B681B681A687B682F
:101CD8001B6822F480521A607B681B6819687B684D
:101CE8001B683A680A431A607B681B681A687B6835
:101CF8001B6842F001021A607B68202283F84120A9
:101D08007B68002283F84020002300E00223184665
:101D18000C37BD465DF8047B704780B485B000AFD2
:101D2800786039600023FB607B6893F84130DBB250
:101D3800202B39D17B6893F84030012B01D1022345
:101D480033E07B68012283F840207B68242283F8F3
:101D580041207B681B681A687B681B6822F00102B7
:101D68001A607B681B681B68FB60FB6823F4706360
:101D7800FB603B681B02FA681343FB607B681B68C7
:101D8800FA681A607B681B681A687B681B6842F0EF
:101D980001021A607B68202283F841207B680022B8
:101DA80083F84020002300E0022318461437BD467C
:101DB8005DF8047B7047000080B5ADF5007D00AF8D
:101DC8003B1D18603B1D1B68002B02D1012300F04E
:101DD800DABE3B1D1B681B6803F00103002B00F0F3
:101DE8006E81B54B5B6803F00C03042B0CD0B24B2F
:101DF8005B6803F00C03082B5AD1AF4B5B6803F404
:101E08008033B3F5803F53D14FF40033C7F8F43132
:101E1800D7F8F43193FAA3F3C7F8F031D7F8F031D3
:101E2800B3FA83F3DBB25B09DBB243F00103DBB245
:101E3800012B02D1A04B1B6815E04FF40033C7F803
:101E4800EC31D7F8EC3193FAA3F3C7F8E8314FF443
:101E58000033C7F8E431D7F8E43193FAA3F3C7F8AD
:101E6800E031954B5B6A4FF40032C7F8DC21D7F8B4
:101E7800DC2192FAA2F2C7F8D821D7F8D821B2FA11
:101E880082F252B242F0200252B2D2B202F01F02E3
:101E9800012101FA02F21340002B00F00F813B1DD3
:101EA8001B685B68002B40F00981012300F06BBEC2
:101EB8003B1D1B685B68B3F5803F06D17E4B1B68F2
:101EC8007D4A43F48033136030E03B1D1B685B6838
:101ED800002B0CD1784B1B68774A23F480331360AE
:101EE800754B1B68744A23F4802313601EE03B1D66
:101EF8001B685B68B3F5A02F0CD16F4B1B686E4A4B
:101F080043F4802313606C4B1B686B4A43F48033A3
:101F180013600BE0684B1B68674A23F48033136037
:101F2800654B1B68644A23F480231360624BDB6AA9
:101F380023F00F023B1D1B689B685F491343CB626C
:101F48003B1D1B685B68002B5AD0FEF7B1FDC7F834
:101F5800F8010AE0FEF7ACFD0246D7F8F831D31ACB
:101F6800642B02D9032300F00EBE4FF40033C7F8E8
:101F7800D431D7F8D43193FAA3F3C7F8D031D7F8CE
:101F8800D031B3FA83F3DBB25B09DBB243F0010370
:101F9800DBB2012B02D1484B1B6815E04FF400332C
:101FA800C7F8CC31D7F8CC3193FAA3F3C7F8C831C6
:101FB8004FF40033C7F8C431D7F8C43193FAA3F308
:101FC800C7F8C0313C4B5B6A4FF40032C7F8BC21FC
:101FD800D7F8BC2192FAA2F2C7F8B821D7F8B821ED
:101FE800B2FA82F252B242F0200252B2D2B202F0F7
:101FF8001F02012101FA02F21340002BAAD05EE071
:10200800FEF756FDC7F8F8010AE0FEF751FD024653
:10201800D7F8F831D31A642B02D9032300F0B3BDE3
:102028004FF40033C7F8B431D7F8B43193FAA3F3B7
:10203800C7F8B031D7F8B031B3FA83F3DBB25B0934
:10204800DBB243F00103DBB2012B02D11A4B1B6850
:1020580015E04FF40033C7F8AC31D7F8AC3193FA38
:10206800A3F3C7F8A8314FF40033C7F8A431D7F861
:10207800A43193FAA3F3C7F8A0310F4B5B6A4FF46E
:102088000032C7F89C21D7F89C2192FAA2F2C7F82F
:102098009821D7F89821B2FA82F252B242F020027F
:1020A80052B2D2B202F01F02012101FA02F2134029
:1020B800002BAAD103E000BF0010024000BF3B1D67
:1020C8001B681B6803F00203002B00F07081D04BE3
:1020D8005B6803F00C03002B0BD0CD4B5B6803F05F
:1020E8000C03082B6DD1CA4B5B6803F48033002BBB
:1020F80067D10223C7F89431D7F8943193FAA3F340
:10210800C7F89031D7F89031B3FA83F3DBB25B09A3
:10211800DBB243F00103DBB2012B02D1BC4B1B68DD
:1021280013E00223C7F88C31D7F88C3193FAA3F364
:10213800C7F888310223C7F88431D7F8843193FA75
:10214800A3F3C7F88031B24B5B6A0222C7F87C213F
:10215800D7F87C2192FAA2F2C7F87821D7F878212B
:10216800B2FA82F252B242F0200252B2D2B202F075
:102178001F02012101FA02F21340002B07D03B1D78
:102188001B681B69012B02D0012300F0FCBCA04B8B
:102198001B6823F0F8023B1D1B685969F823C7F830
:1021A8007431D7F8743193FAA3F3C7F87031D7F8BC
:1021B8007031B3FA83F301FA03F3954913430B60C3
:1021C800F5E03B1D1B681B69002B00F0858001238F
:1021D800C7F86C31D7F86C3193FAA3F3C7F86831B4
:1021E800D7F86831B3FA83F303F1845303F5841302
:1021F8009B001A4601231360FEF75AFCC7F8F80142
:102208000AE0FEF755FC0246D7F8F831D31A022B3C
:1022180002D9032300F0B7BC0223C7F86431D7F80A
:10222800643193FAA3F3C7F86031D7F86031B3FA91
:1022380083F3DBB25B09DBB243F00103DBB2012BB2
:1022480002D1734B1B6813E00223C7F85C31D7F83F
:102258005C3193FAA3F3C7F858310223C7F8543115
:10226800D7F8543193FAA3F3C7F85031684B5B6A37
:102278000222C7F84C21D7F84C2192FAA2F2C7F8EB
:102288004821D7F84821B2FA82F252B242F020022D
:1022980052B2D2B202F01F02012101FA02F2134037
:1022A800002BAED05A4B1B6823F0F8023B1D1B686D
:1022B8005969F823C7F84431D7F8443193FAA3F39E
:1022C800C7F84031D7F84031B3FA83F301FA03F382
:1022D8004F4913430B606AE00123C7F83C31D7F834
:1022E8003C3193FAA3F3C7F83831D7F83831B3FA49
:1022F80083F303F1845303F584139B001A460023E8
:102308001360FEF7D5FBC7F8F8010AE0FEF7D0FB2B
:102318000246D7F8F831D31A022B02D9032300F06A
:1023280032BC0223C7F83431D7F8343193FAA3F317
:10233800C7F83031D7F83031B3FA83F3DBB25B0931
:10234800DBB243F00103DBB2012B02D1304B1B6837
:1023580013E00223C7F82C31D7F82C3193FAA3F3F2
:10236800C7F828310223C7F82431D7F8243193FA63
:10237800A3F3C7F82031264B5B6A0222C7F81C2159
:10238800D7F81C2192FAA2F2C7F81821D7F8182119
:10239800B2FA82F252B242F0200252B2D2B202F043
:1023A8001F02012101FA02F21340002BAED13B1D9E
:1023B8001B681B6803F00803002B00F0D8803B1D46
:1023C8001B689B69002B67D00123C7F81431D7F825
:1023D800143193FAA3F3C7F81031D7F81031B3FAD0
:1023E80083F31A460B4B13449B001A4601231360D0
:1023F800FEF75EFBC7F8F8010EE0FEF759FB024650
:10240800D7F8F831D31A022B06D90323BBE300BF50
:1024180000100240208190100223C7F80C31D7F831
:102428000C3193FAA3F3C7F808310223C7F8043133
:10243800D7F8043193FAA3F207F580731A6007F10D
:10244800FC0302221A6007F1FC031B6893FAA3F24B
:1024580007F1F8031A60A54B5A6A07F1F403022141
:10246800196007F1F4031B6893FAA3F107F1F0036D
:10247800196007F1F0031B68B3FA83F35BB243F00A
:1024880060035BB2DBB203F01F03012101FA03F31F
:102498001340002BB1D06AE007F1EC0301221A6067
:1024A80007F1EC031B6893FAA3F207F1E8031A603B
:1024B80007F1E8031B68B3FA83F31A468C4B1344FD
:1024C8009B001A4600231360FEF7F2FAC7F8F801DA
:1024D80009E0FEF7EDFA0246D7F8F831D31A022BD5
:1024E80001D903234FE307F1E40302221A6007F13D
:1024F800E4031B6893FAA3F207F1E0031A6007F1FB
:10250800DC0302221A6007F1DC031B6893FAA3F2CA
:1025180007F1D8031A6007F1D40302221A6007F101
:10252800D4031B6893FAA3F207F1D0031A606F4B28
:102538005A6A07F1CC030221196007F1CC031B6822
:1025480093FAA3F107F1C803196007F1C8031B68E0
:10255800B3FA83F35BB243F060035BB2DBB203F020
:102568001F03012101FA03F31340002BB1D13B1DD6
:102578001B681B6803F00403002B00F0598100233B
:1025880087F8FF31594BDB6903F08053002B12D1D8
:10259800564BDB69554A43F08053D361534BDB6993
:1025A80003F0805207F10C031A6007F10C031B6853
:1025B800012387F8FF314F4B1B6803F48073002B0E
:1025C8001AD14C4B1B684B4A43F480731360FEF7D7
:1025D8006FFAC7F8F80109E0FEF76AFA0246D7F879
:1025E800F831D31A642B01D90323CCE2414B1B6881
:1025F80003F48073002BEFD03B1D1B68DB68012BB5
:1026080006D13A4B1B6A394A43F0010313622FE0A3
:102618003B1D1B68DB68002B0CD1344B1B6A334A0B
:1026280023F001031362314B1B6A304A23F0040381
:1026380013621DE03B1D1B68DB68052B0CD12B4B7F
:102648001B6A2A4A43F004031362284B1B6A274A71
:1026580043F0010313620BE0244B1B6A234A23F067
:1026680001031362214B1B6A204A23F004031362FF
:102678003B1D1B68DB68002B6BD0FEF719FAC7F807
:10268800F8010BE0FEF714FA0246D7F8F831D31A2E
:1026980041F28832934201D9032374E207F1C4035B
:1026A80002221A6007F1C4031B6893FAA3F207F128
:1026B800C0031A6007F1BC0302221A6007F1BC03C9
:1026C8001B6893FAA3F207F1B8031A6007F1B8037D
:1026D8001B68B3FA83F3DBB25B09DBB243F0020396
:1026E800DBB2022B08D1014B1B6A13E00010024039
:1026F800208190100070004007F1B40302221A6094
:1027080007F1B4031B6893FAA3F207F1B0031A6048
:10271800BB4B5B6A07F1AC020221116007F1AC0206
:10272800126892FAA2F107F1A802116007F1A80253
:102738001268B2FA82F252B242F0400252B2D2B2F7
:1027480002F01F02012101FA02F21340002B99D076
:1027580064E0FEF7ADF9C7F8F8010BE0FEF7A8F959
:102768000246D7F8F831D31A41F28832934201D998
:10277800032308E207F1A40302221A6007F1A40365
:102788001B6893FAA3F207F1A0031A6007F19C03F0
:1027980002221A6007F19C031B6893FAA3F207F15F
:1027A80098031A6007F198031B68B3FA83F3DBB246
:1027B8005B09DBB243F00203DBB2022B02D1904B80
:1027C8001B6A0DE007F1940302221A6007F19403D3
:1027D8001B6893FAA3F207F190031A60884B5B6AAF
:1027E80007F18C020221116007F18C02126892FA3B
:1027F800A2F107F18802116007F188021268B2FAA3
:1028080082F252B242F0400252B2D2B202F01F0239
:10281800012101FA02F21340002B9FD197F8FF31F2
:10282800012B05D1764BDB69754A23F08053D361C0
:102838003B1D1B68DB69002B00F0A481704B5B68B3
:1028480003F00C03082B00F09B813B1D1B68DB6920
:10285800022B40F0138107F184034FF080721A6055
:1028680007F184031B6893FAA3F207F180031A6047
:1028780007F180031B68B3FA83F303F1845303F56C
:1028880084139B001A4600231360FEF711F9C7F85A
:10289800F80109E0FEF70CF90246D7F8F831D31A27
:1028A800022B01D903236EE107F17C034FF000727C
:1028B8001A6007F17C031B6893FAA3F207F1780307
:1028C8001A6007F178031B68B3FA83F3DBB25B097C
:1028D800DBB243F00103DBB2012B02D1484B1B688A
:1028E8001BE007F174034FF000721A6007F17403DC
:1028F8001B6893FAA3F207F170031A6007F16C03DF
:102908004FF000721A6007F16C031B6893FAA3F288
:1029180007F168031A603A4B5B6A07F164024FF0EB
:102928000071116007F16402126892FAA2F107F1CE
:102938006002116007F160021268B2FA82F252B2C4
:1029480042F0200252B2D2B202F01F02012101FA73
:1029580002F21340002B9DD1294B5B6823F47412BB
:102968003B1D1B68596A3B1D1B681B6A0B432449A6
:1029780013434B6007F15C034FF080721A6007F154
:102988005C031B6893FAA3F207F158031A6007F176
:1029980058031B68B3FA83F303F1845303F58413D4
:1029A8009B001A4601231360FEF782F8C7F8F80166
:1029B80009E0FEF77DF80246D7F8F831D31A022B62
:1029C80001D90323DFE007F154034FF000721A60C6
:1029D80007F154031B6893FAA3F207F150031A6036
:1029E80007F150031B68B3FA83F3DBB25B09DBB270
:1029F80043F00103DBB2012B04D1014B1B681DE03E
:102A08000010024007F14C034FF000721A6007F102
:102A18004C031B6893FAA3F207F148031A6007F105
:102A280044034FF000721A6007F144031B6893FADD
:102A3800A3F207F140031A60554B5B6A07F13C02A9
:102A48004FF00071116007F13C02126892FAA2F18E
:102A580007F13802116007F138021268B2FA82F2FF
:102A680052B242F0200252B2D2B202F01F02012149
:102A780001FA02F21340002B9BD083E007F13403E4
:102A88004FF080721A6007F134031B6893FAA3F2BF
:102A980007F130031A6007F130031B68B3FA83F3B8
:102AA80003F1845303F584139B001A460023136033
:102AB800FDF7FEFFC7F8F80109E0FDF7F9FF024648
:102AC800D7F8F831D31A022B01D903235BE007F1B9
:102AD8002C034FF000721A6007F12C031B6893FA5D
:102AE800A3F207F128031A6007F128031B68B3FA59
:102AF80083F3DBB25B09DBB243F00103DBB2012BEA
:102B080002D1234B1B681BE007F124034FF000722E
:102B18001A6007F124031B6893FAA3F207F1200354
:102B28001A6007F11C034FF000721A6007F11C03CA
:102B38001B6893FAA3F207F118031A60144B5B6A37
:102B480007F114024FF00071116007F114021268C6
:102B580092FAA2F107F11002116007F1100212684F
:102B6800B2FA82F252B242F0200252B2D2B202F06B
:102B78001F02012101FA02F21340002B9DD101E04E
:102B8800012300E00023184607F50077BD4680BD05
:102B98000010024080B59EB000AF78603960002315
:102BA8007B677B68002B01D1012364E1924B1B6892
:102BB80003F007033A689A4210D98F4B1B6823F039
:102BC80007028D493B6813430B608B4B1B6803F06E
:102BD80007033A689A4201D001234CE17B681B68DD
:102BE80003F00203002B08D0844B5B6823F0F0024B
:102BF8007B689B68814913434B607B681B6803F0C3
:102C08000103002B00F0DF807B685B68012B3DD15E
:102C18004FF400333B673B6F93FAA3F3FB66FB6EFD
:102C2800B3FA83F3DBB25B09DBB243F00103DBB237
:102C3800012B02D1714B1B680FE04FF40033BB66C8
:102C4800BB6E93FAA3F37B664FF400333B663B6E8F
:102C580093FAA3F3FB65694B5B6A4FF40032BA65DC
:102C6800BA6D92FAA2F27A657A6DB2FA82F252B22B
:102C780042F0200252B2D2B202F01F02012101FA40
:102C880002F21340002B7DD10123F4E07B685B68DE
:102C9800022B3DD14FF000733B653B6D93FAA3F3D4
:102CA800FB64FB6CB3FA83F3DBB25B09DBB243F082
:102CB8000103DBB2012B02D1504B1B680FE04FF030
:102CC8000073BB64BB6C93FAA3F37B644FF000738F
:102CD8003B643B6C93FAA3F3FB63484B5B6A4FF08E
:102CE8000072BA63BA6B92FAA2F27A637A6BB2FA9A
:102CF80082F252B242F0200252B2D2B202F01F0265
:102D0800012101FA02F21340002B3BD10123B2E06A
:102D180002233B633B6B93FAA3F3FB62FB6AB3FAB0
:102D280083F3DBB25B09DBB243F00103DBB2012BB7
:102D380002D1324B1B680DE00223BB62BB6A93FAD7
:102D4800A3F37B6202233B623B6A93FAA3F3FB6122
:102D58002A4B5B6A0222BA61BA6992FAA2F27A61D4
:102D68007A69B2FA82F252B242F0200252B2D2B278
:102D780002F01F02012101FA02F21340002B01D1D7
:102D8800012378E01D4B5B6823F003027B685B68D6
:102D98001A4913434B60FDF78BFE78670AE0FDF78D
:102DA80087FE02467B6FD31A41F28832934201D9DB
:102DB800032360E0114B5B6803F00C027B685B68DF
:102DC8009B009A42EBD10C4B1B6803F007033A684F
:102DD8009A4215D2084B1B6823F0070206493B6844
:102DE80013430B60044B1B6803F007033A689A42CD
:102DF80006D001233FE000BF00200240001002403F
:102E08007B681B6803F00403002B08D01C4B5B682D
:102E180023F4E0627B68DB68194913434B607B68E5
:102E28001B6803F00803002B09D0154B5B6823F4DB
:102E380060527B681B69DB00114913434B6000F04B
:102E480025F801460E4B5B6803F0F002F0233B6166
:102E58003B6993FAA3F3FB60FB68B3FA83F322FAA6
:102E680003F3084AD35C21FA03F3074A13600020EE
:102E7800FDF7DAFD002318467837BD4680BD00BF50
:102E880000100240E04A00080800002080B48BB01F
:102E980000AF0023FB610023BB6100237B6200239A
:102EA8007B6100233B62294B5B68FB61FB6903F094
:102EB8000C03042B02D0082B03D03CE0244B3B62CC
:102EC8003CE0FB6903F470124FF47013BB60BB68FD
:102ED80093FAA3F37B607B68B3FA83F322FA03F3D4
:102EE8001C4AD35C7B61194BDB6A03F00F020F238A
:102EF8003B613B6993FAA3F3FB60FB68B3FA83F386
:102F080022FA03F3144AD35CBB61FB6903F48033F0
:102F1800002B08D00E4ABB69B2FBF3F27B6902FBB7
:102F280003F37B6204E07B690C4A02FB03F37B62D8
:102F38007B6A3B6202E0064B3B6200BF3B6A184675
:102F48002C37BD465DF8047B704700BF0010024077
:102F580000127A00C04A0008D04A000800093D0063
:102F680080B592B000AF786000233B640023FB6318
:102F78007B681B6803F48033002B00F0CF800023AC
:102F880087F847308D4BDB6903F08053002B0ED157
:102F98008A4BDB69894A43F08053D361874BDB69ED
:102FA80003F08053BB60BB68012387F84730844B2C
:102FB8001B6803F48073002B18D1814B1B68804A6F
:102FC80043F480731360FDF773FD386408E0FDF780
:102FD8006FFD02463B6CD31A642B01D90323E9E049
:102FE800774B1B6803F48073002BF0D0734B1B6A7C
:102FF80003F44073FB63FB6B002B7CD07B685B683E
:1030080003F44073FA6B9A4275D06C4B1B6A23F435
:103018004073FB634FF480333B633B6B93FAA3F33A
:10302800FB62FB6AB3FA83F31A46664B13449B00B0
:103038001A46012313604FF48033BB63BB6B93FACA
:10304800A3F37B637B6BB3FA83F31A465D4B13449C
:103058009B001A4600231360584AFB6B1362FB6BF4
:1030680003F00103002B46D0FDF722FD38640AE087
:10307800FDF71EFD02463B6CD31A41F2883293429B
:1030880001D9032396E00223BB62BB6A93FAA3F338
:103098007B6202233B623B6A93FAA3F3FB61FB6901
:1030A800B3FA83F3DBB25B09DBB243F00203DBB2B2
:1030B800022B02D1414B1B6A07E00223BB61BB69AB
:1030C80093FAA3F37B613D4B5B6A02223A613A694A
:1030D80092FAA2F2FA60FA68B2FA82F252B242F0B6
:1030E800400252B2D2B202F01F02012101FA02F2EA
:1030F8001340002BBCD0314B1B6A23F440727B6811
:103108005B682E4913430B6297F84730012B05D1B2
:103118002A4BDB69294A23F08053D3617B681B68FB
:1031280003F00103002B08D0244B1B6B23F0030290
:103138007B689B68214913430B637B681B6803F01A
:103148002003002B08D01D4B1B6B23F010027B685B
:10315800DB681A4913430B637B681B6803F0800321
:10316800002B08D0154BDB6A23F4F8727B681B69C7
:1031780012491343CB627B681B6803F48053002B0E
:1031880008D00E4B1B6B23F480727B685B690B497C
:1031980013430B637B681B6803F48043002B08D040
:1031A800064B1B6B23F480527B689B6903491343CE
:1031B8000B63002318464837BD4680BD0010024007
:1031C800007000400081901090B585B000AF786025
:1031D800FF23FB730023BB7300237B7300233B7225
:1031E80000237B72584A7B681360574B1B68DC6866
:1031F800554B1B68587A07F10D0201230721A04798
:103208000346FB73504B1B681C694F4B1B68587A6D
:1032180007F10E0201230021A0470346DAB2FB7B27
:103228001344DBB2FB73484B1B68BA7B1A70464BDE
:103238001B681C69444B1B68587A07F10E0201236E
:103248000121A0470346DAB2FB7B1344DBB2FB73D0
:103258003D4B1B68BA7B5A713B4B1B681C693A4B48
:103268001B68587A07F10E0201230221A047034682
:10327800DAB2FB7B1344DBB2FB73334B1B68BA7BBC
:103288009A71314B1B681C692F4B1B68587A07F1E0
:103298000E0201230321A0470346DAB2FB7B134445
:1032A800DBB2FB73284B1B68BA7BDA71264B1B68B1
:1032B8001C69254B1B68587A07F10E020123062169
:1032C800A0470346DAB2FB7B1344DBB2FB731E4B09
:1032D8001B68BA7B1A721C4B1B681C691A4B1B684B
:1032E800587A07F1080202230421A0470346DAB2FC
:1032F800FB7B1344DBB2FB733B7A3B727B7A9BB25A
:103308001B0299B23B7A9AB20F4B1B680A4392B2DE
:103318005A800D4B1B681C690B4B1B68587A07F1C8
:103328000E0201230721A0470346DAB2FB7B1344B0
:10333800DBB2FB73044B1B68BA7B1A7197F90F3029
:1033480018461437BD4690BD2800002090B585B0BA
:1033580000AF03463960FB711346BB71FF23FB7353
:103368000C4B1B68002B02D16FF07E030DE0094B5C
:103378001B68DC68074B1B68587ABB79F9793A688F
:10338800A0470346FB7397F90F3018461437BD461C
:1033980090BD00BF2800002090B585B000AF7860D0
:1033A800FF23FB7300237B73FF23BB73194B1B683D
:1033B800002B02D16FF07E0327E0164B1B681B79A8
:1033C800002B04D0002000F027F80346BB7397F9C0
:1033D8000E30002B04D00F4B1B681B79002B10D12B
:1033E8000C4B1B681C690B4B1B68587A07F10D02C4
:1033F80001230021A0470346FB737A7B7B681A7080
:1034080001E0FF23FB7397F90F3018461437BD46C8
:1034180090BD00BF2800002090B585B000AF0346DE
:10342800FB71FF23FB730023BB731E4B1B68002B30
:1034380002D16FF07E0330E01A4B1B681C69194BF0
:103448001B68587A07F10E0201230721A04703469B
:10345800FB7397F90F30002B1BD1FB79BB73114B12
:103468001B68DC680F4B1B68587A07F10E020123B2
:103478000721A0470346DAB2FB7B1344DBB2FB7398
:1034880097F90F30002B06D1064B1B68FA791A7191
:1034980001E0FF23FB7397F90F3018461437BD4638
:1034A80090BD00BF2800002090B585B000AF7860BF
:1034B800FF23FB7300233B7300237B73FF23BB7342
:1034C8001E4B1B68002B02D16FF07E0332E01B4BB2
:1034D8001B681B79002B04D00020FFF79DFF0346D3
:1034E800BB7397F90E30002B04D0144B1B681B7963
:1034F800002B1BD1114B1B681C69104B1B68587A99
:1035080007F10C0202231A21A0470346FB733B7BF9
:103518003B737B7B7B737B7B5BB21B021AB23B7B6F
:103528001BB213431AB27B681A8001E0FF23FB73B6
:1035380097F90F3018461437BD4690BD2800002073
:1035480090B585B000AF7860FF23FB7300233B7311
:1035580000237B73FF23BB731E4B1B68002B02D118
:103568006FF07E0332E01B4B1B681B79002B04D0E5
:103578000020FFF751FF0346BB7397F90E30002B6D
:1035880004D0144B1B681B79002B1BD1114B1B68F3
:103598001C69104B1B68587A07F10C0202231C2186
:1035A800A0470346FB733B7B3B737B7B7B737B7B37
:1035B8005BB21B021AB23B7B1BB213431AB27B6885
:1035C8001A8001E0FF23FB7397F90F301846143770
:1035D800BD4690BD2800002090B585B000AF78604A
:1035E800FF23FB7300233B7300237B73FF23BB7311
:1035F8001E4B1B68002B02D16FF07E0332E01B4B81
:103608001B681B79002B04D00020FFF705FF034639
:10361800BB7397F90E30002B04D0144B1B681B7931
:10362800002B1BD1114B1B681C69104B1B68587A67
:1036380007F10C0202231E21A0470346FB733B7BC4
:103648003B737B7B7B737B7B5BB21B021AB23B7B3E
:103658001BB213431AB27B681A8001E0FF23FB7385
:1036680097F90F3018461437BD4690BD2800002042
:1036780090B589B000AF7860FF23FB770023FB810A
:103688004FF000034FF00004C7E9043400237B73B4
:1036980007F10D03184600F0F3F80346FB777B7B30
:1036A800002B08D0002000F02FF90346DAB2FB7F88
:1036B8001344DBB2FB7797F91F30002B25D107F1B4
:1036C8000E031846FFF7F0FE0346DAB2FB7F1344F9
:1036D800DBB2FB7797F91F30002B13D1B7F90E3007
:1036E8001846FCF7BFFE4FF000020C4BFDF74EF8F2
:1036F80003460C46C7E904347A68D7E90434C2E9BA
:10370800003404E0FF23FB7701E0FF23FB7797F900
:103718001F3018462437BD4690BD00BF000030401A
:1037280090B589B000AF7860FF23FB770023FB8159
:103738004FF000034FF00004C7E9043400237B7303
:1037480007F10D03184600F09BF80346FB777B7BD7
:10375800002B08D0002000F0D7F80346DAB2FB7F30
:103768001344DBB2FB7797F91F30002B25D107F103
:103778000E031846FFF7E4FE0346DAB2FB7F134454
:10378800DBB2FB7797F91F30002B13D1B7F90E3056
:103798001846FCF767FE4FF000020C4BFCF7F6FFEB
:1037A80003460C46C7E904347A68D7E90434C2E909
:1037B800003404E0FF23FB7701E0FF23FB7797F950
:1037C8001F3018462437BD4690BD00BF000030406A
:1037D80090B589B000AF7860FF23FB770023FB81A9
:1037E8004FF000034FF00004C7E9043400237B7353
:1037F80007F10D03184600F043F80346FB777B7B7F
:10380800002B08D0002000F07FF80346DAB2FB7FD7
:103818001344DBB2FB7797F91F30002B25D107F152
:103828000E031846FFF7D8FE0346DAB2FB7F1344AF
:10383800DBB2FB7797F91F30002B13D1B7F90E30A5
:103848001846FCF70FFE4FF000020C4BFCF79EFFEA
:1038580003460C46C7E904347A68D7E90434C2E958
:10386800003404E0FF23FB7701E0FF23FB7797F99F
:103878001F3018462437BD4690BD00BF00003040B9
:1038880090B585B000AF7860FF23FB7300237B738E
:10389800FF23BB731B4B1B68002B02D16FF07E0309
:1038A8002CE0184B1B681B79002B04D00020FFF775
:1038B800B3FD0346BB7397F90E30002B04D0114BB0
:1038C8001B681B79002B15D10E4B1B681C690D4B0F
:1038D8001B68587A07F10D0201233B21A0470346D4
:1038E800FB737B7B9B10DBB203F00103DAB27B68CE
:1038F8001A7001E0FF23FB7397F90F30184614374D
:10390800BD4690BD2800002090B585B000AF0346A5
:10391800FB71FF23FB7300237B7300233B73FF239F
:10392800BB73364B1B68002B02D16FF07E0360E03F
:1039380007F10C03184600F063F80346BB7397F9C8
:103948000E30002B44D13B7B002B08D0002000F028
:1039580099F80346DAB2BB7B1344DBB2BB7397F921
:103968000E30002B31D1254B1B681C69234B1B687B
:10397800587A07F10D0201233B21A0470346FB7348
:1039880097F90F30002B25D17B7B5BB223F0040322
:103998005AB2FB799B005BB203F004035BB213439A
:1039A8005BB2DBB27B73154B1B68DC68134B1B687F
:1039B800587A07F10D0201233B21A0470346DAB2EA
:1039C800FB7B1344DBB2FB7304E0FF23FB7301E0D2
:1039D800FF23FB733B7B002B09D03B7B184600F091
:1039E80051F80346DAB2FB7B1344DBB2FB7397F959
:1039F8000F3018461437BD4690BD00BF2800002080
:103A080090B585B000AF7860FF23FB7300237B730C
:103A1800FF23BB731A4B1B68002B02D16FF07E0388
:103A28002AE0174B1B681B79002B04D00020FFF7F6
:103A3800F3FC0346BB7397F90E30002B04D0104BF0
:103A48001B681B79002B13D10D4B1B681C690C4B91
:103A58001B68587A07F10D0201233D21A047034650
:103A6800FB737B7B03F00F03DAB27B681A7001E00B
:103A7800FF23FB7397F90F3018461437BD4690BDE6
:103A88002800002090B585B000AF0346FB71FF23E6
:103A9800FB7300237B7300233B73FF23BB735C4BD7
:103AA8001B68002B02D16FF07E03ACE007F10C031A
:103AB8001846FFF7A5FF0346BB7397F90E30002B96
:103AC80040F09D803B7B002B37D1514B1B681C6914
:103AD8004F4B1B68587A07F10D0201233D21A0477F
:103AE8000346FB7397F90F30002B40F08A807B7BED
:103AF8005BB223F00F035AB297F9073003F00F03B4
:103B08005BB213435BB2DBB27B73414B1B68DC686F
:103B18003F4B1B68587A07F10D0201233D21A0474E
:103B28000346DAB2FB7B1344DBB2FB73384B1B68EA
:103B38005B694FF41670984763E0354B1B681C6946
:103B4800334B1B68587A07F10D0201233D21A0472A
:103B58000346FB7397F90F30002B16D17B7B23F0BC
:103B68000F03DBB27B7307F10D03012219463D20D9
:103B7800FFF7ECFB0346DAB2FB7B1344DBB2FB73C3
:103B8800234B1B685B6914209847FB79002B38D0BE
:103B98001F4B1B681C691E4B1B68587A07F10D02E6
:103BA80001233D21A0470346FB7397F90F30002BF3
:103BB80027D17B7B5BB223F00F035AB297F907300A
:103BC80003F00F035BB213435BB2DBB27B73104BA2
:103BD8001B68DC680E4B1B68587A07F10D0201233D
:103BE8003D21A0470346DAB2FB7B1344DBB2FB73EB
:103BF800074B1B685B694FF41670984701E0FF2379
:103C0800FB7397F90F3018461437BD4690BD00BFB7
:103C18002800002090B585B000AF0346FB71FF2354
:103C2800FB7300237B7300233B73FF23BB73354B6C
:103C38001B68002B02D16FF07E035FE007F10C03D5
:103C48001846FFF7DDFE0346BB7397F90E30002BCD
:103C580043D13B7B002B08D00020FFF713FF03461E
:103C6800DAB2BB7B1344DBB2BB7397F90E30002B7F
:103C780030D1244B1B681C69224B1B68587A07F10A
:103C88000D0201233E21A0470346FB7397F90F302D
:103C9800002B24D17B7B5BB223F003035AB297F944
:103CA800073003F003035BB213435BB2DBB27B73F1
:103CB800144B1B68DC68134B1B68587A07F10D021C
:103CC80001233E21A0470346DAB2FB7B1344DBB253
:103CD800FB7304E0FF23FB7301E0FF23FB733B7BD3
:103CE800002B09D03B7B1846FFF7CCFE0346DAB21F
:103CF800FB7B1344DBB2FB7397F90F30184614377C
:103D0800BD4690BD2800002080B582B000AF0346B4
:103D18003960FB711346BB80BB88F9793A68034860
:103D280000F02EF800BF0837BD4680BD64000020B3
:103D380080B582B000AF03463960FB711346BB8083
:103D4800BB88F9793A68034800F054F800BF08378F
:103D5800BD4680BD6400002080B582B000AF034638
:103D68000A46FB711346BB71BA79FB7919460348B9
:103D780000F02AF800BF0837BD4680BD6400002067
:103D880080B588B002AFF8607A601A460B46FB72BD
:103D980013463B81FB7A99B23A8942F21073009339
:103DA80013467A68F868FDF7AFFB0346FB75FB7DA1
:103DB800002B02D0034800F0EFFB00BF1837BD46C8
:103DC80080BD00BF304A000880B584B000AF78607D
:103DD8000B46FB701346BB70BB783B7307F10C02B4
:103DE800F9780123786800F005F800BF1037BD4660
:103DF80080BD000080B586B002AFF8607A601A46D0
:103E08000B46FB7213463B8108E0F868FDF75CFD42
:103E18000346042B02D00A4800F0BEFBFB7A99B295
:103E28003A8942F21073009313467A68F868FDF7EE
:103E38006BFA0346002BE8D100BF1037BD4680BDA2
:103E4800544A000898B500AFFCF7D8FD00F00CF90B
:103E580000F006FA00F062F900F098F900F0C0F9F5
:103E680000217648FCF77EFF0346002B02D0744BF6
:103E780065221A7010217148FCF774FF0346002B65
:103E880002D06F4B66221A7000216E48FCF76AFF59
:103E98000346002B02D06A4B67221A7001220121C7
:103EA8006948FDF789F94FF47A70FCF70DFE002098
:103EB80000F014FB00F0CFFBB0EE407ADFED637A40
:103EC80067EE277A9FED622ADFED621A9FED601A8E
:103ED800DFED610AB0EE670A00F063FBF0EE407AAE
:103EE800FCEEE77A17EE903A9AB25C4B1A805B4B7D
:103EF8001B88002200215348FCF70FFF0346002BC4
:103F080002D04F4B01221A7000F079FB10EE103AE4
:103F18001846FCF7B9FA4FF00002514BFCF756F976
:103F280003460C46184621464FF000024D4BFCF75D
:103F380003FB03460C4618462146FCF70FFD0346D3
:103F48009FED432ADFED431A9FED411ADFED420A48
:103F580000EE103A00F025FBF0EE407AFCEEE77A2E
:103F680017EE903A9AB23D4B1A803C4B1B880022C0
:103F780010213248FCF7D1FE0346002B02D0304B0B
:103F880002221A7000F052FB10EE103A1846FCF7A5
:103F98007BFA4FF00002324BFCF718F903460C4647
:103FA800184621464FF000022E4BFCF7C5FA03468F
:103FB8000C4618462146FCF7D1FC03469FED242AFF
:103FC800DFED241A9FED221ADFED230A00EE103AE6
:103FD80000F0E7FAF0EE407AFCEEE77A17EE903A56
:103FE8009AB21E4B1A801D4B1B88002200211348D1
:103FF800FCF793FE0346002B02D0114B03221A70E4
:104008000F4B1B78002B06D101224FF47A716420E4
:1040180000F064F94EE70A4B1B78632B06D802229E
:104028004FF47A71642000F059F943E703224FF402
:104038007A71642000F052F93CE700BF500000207C
:104048002C0000203C0000200004004800003641FD
:1040580000F07F450000484400000000CA0000202E
:104068000080564000C0364080B596B000AF07F1DA
:10407800300328220021184600F0C2FC07F11C0377
:1040880000221A605A609A60DA601A613B46002280
:104098001A605A609A60DA601A615A619A6102235A
:1040A8003B6301233B6410237B640223FB640023EE
:1040B8003B654FF460137B6507F130031846FDF745
:1040C8007BFE0346002B01D000F0DAFA0F23FB61D8
:1040D80002233B6200237B624FF48063BB620023B0
:1040E800FB6207F11C0302211846FEF753FD034645
:1040F800002B01D000F0C4FA20233B600023FB60B2
:104108003B461846FEF72CFF0346002B01D000F073
:10411800B7FA00BF5837BD4680BD000080B584B0EF
:1041280000AF3B1D00221A605A609A60154B164A70
:104138001A601448FCF7CFFD0346002B01D000F0AD
:104148009FFA00237B600023BB603B1D00221946B9
:104158000C48FCF753FE0346002B01D000F090FA00
:104168000223FB603B1D102219460648FCF746FE59
:104178000346002B01D000F083FA00BF1037BD467C
:1041880080BD00BF500000200074004080B584B09E
:1041980000AF3B1D00221A605A609A600E4B0F4A0E
:1041A8001A600D48FCF797FD0346002B01D000F07C
:1041B80067FA00237B600223FB603B1D002219463F
:1041C8000548FCF71BFE0346002B01D000F058FA07
:1041D80000BF1037BD4680BD3C000020009800405D
:1041E80080B500AF1B4B1C4A1A601A4B1B4A5A6019
:1041F800184B00229A60174B0122DA60154B0022F7
:104208001A61144B00225A61124B00229A61114B19
:104218000022DA610F4B00221A620E48FCF7E4FF15
:104228000346002B01D000F02BFA00210948FDF7C6
:1042380029FD0346002B01D000F022FA0021054891
:10424800FDF76BFD0346002B01D000F019FA00BF03
:1042580080BD00BF64000020005400400E0900200B
:1042680080B588B000AF07F10C0300221A605A60CD
:104278009A60DA601A61174B5B69164A43F4003397
:104288005361144B5B6903F40033BB60BB68114B8B
:104298005B69104A43F4802353610E4B5B6903F456
:1042A80080237B607B68002221210B48FCF784FF78
:1042B8002123FB6001233B6100237B610023BB6159
:1042C80007F10C0319460448FCF700FE00BF20372D
:1042D800BD4680BD001002400004004880B582B091
:1042E80000AF0346FB800B46BB801346FB70234B95
:1042F8001B78FA789A422ED9FCF7DAFB0246204B53
:104308001B68D21AFB889A4234D91E4B1B78002BA3
:104318000CBF01230023DBB21A461A4B1A70194B43
:104328001B78002B05D1154B1B780133DAB2134BE0
:104338001A70144B1B78002B14BF01230023DBB227
:104348001A4620211048FCF737FFFCF7B1FB02465C
:104358000B4B1A600EE0FCF7ABFB0246084B1B68E0
:10436800D21ABB889A4205D9044B00221A70044B12
:1043780000221A6000BF0837BD4680BD2D0000200E
:1043880030000020340000200004004880B582B0CE
:1043980000AF78607868FCF797FB00BF0837BD4628
:1043A80080BD80B586B000AF3A601A460346FB71FF
:1043B8000B46BB7113467B71FB795B00DBB2BA79A4
:1043C80011461846FFF7C8FC00233B6107F10803B4
:1043D80000221A605A600023FB75BB793B72FB7997
:1043E8005B00DBB27A7992B207F108011846FFF751
:1043F8008BFC0023FB750CE0FA7DFB7D39680B44D0
:1044080007F118010A4412F8102C1A70FB7D0133C9
:10441800FB75FA7D7B799A42EED33B695BB218460D
:104428001837BD4680BD80B586B000AF3A601A46E1
:104438000346FB710B46BB7113467B7100233B613E
:104448000023FB75BB793B720023FB750DE0FB7DF8
:104458003A681A44FB7D0133127807F118010B44BE
:1044680003F8102CFB7D0133FB75FA7D7B799A42AA
:10447800EDD3FB795B00D8B27B799BB201339AB25A
:1044880007F108031946FFF753FC3B695BB218466E
:104498001837BD4680BD000080B483B000AF034626
:1044A800FB800A4B0A4ADA60084B0A4A1A61074B32
:1044B800094A5A61FB88DAB2044B5A72002318463B
:1044C8000C37BD465DF8047B704700BFB000002084
:1044D8002F440008AB4300089543000880B586B018
:1044E80000AF0346FB71FB79002B01D0282300E0C5
:1044F8002923FB82FB8A5B0099B2642302222048AD
:10450800FDF704F90346002B03D01E4B68221A70EE
:1045180032E04FF0FF333B610023FB73FB8A184600
:10452800FFF7BAFF1848FEF74FFE03463B613B69A9
:10453800002B02D0154800F02FF80023FB73FB7BFB
:104548001846FFF767FB03461A463B6913443B616D
:104558003B69002B02D00E4800F01EF80C20FFF734
:1045680091FA07F10E031846FEF716FFBB7BA02B46
:1045780002D0084800F010F81837BD4680BD00BFCB
:10458800640000202C000020B00000209C4A000895
:10459800A84A0008B44A000880B483B000AF786025
:1045A800FEE780B487B000AF87ED050AC7ED040ABF
:1045B80087ED031AC7ED021A87ED012A97ED057AF0
:1045C800D7ED047A37EE677AD7ED016AD7ED027A2C
:1045D80076EEE77A67EE276A97ED037AD7ED047AE5
:1045E80077EE677A86EEA77AD7ED027A77EE277AA2
:1045F800B0EE670A1C37BD465DF8047B704790B57E
:1046080083B000AF3B461846FFF7E2F8D7E900341D
:1046180018462146FCF7A2F9034607EE903AF1EE58
:10462800677AB0EE670A0C37BD4690BD90B583B087
:1046380000AF3B461846FFF773F8D7E90034184631
:104648002146FCF78BF9034607EE903AB0EE670A6D
:104658000C37BD4690BD90B583B000AF3B461846B9
:10466800FFF706F8D7E9003418462146FCF776F933
:10467800034607EE903AB0EE670A0C37BD4690BD88
:1046880080B400AF00BFBD465DF8047B70470000F2
:1046980080B483B000AF0F4B9B690E4A43F001030F
:1046A80093610C4B9B6903F001037B607B68094BAA
:1046B800DB69084A43F08053D361064BDB6903F09A
:1046C80080533B603B6800BF0C37BD465DF8047BF8
:1046D800704700BF0010024080B58CB000AF786012
:1046E80007F11C0300221A605A609A60DA601A61A6
:1046F8007B681B682B4A934225D12B4BDB692A4ADE
:1047080043F00053D361284BDB6903F00053BB61CE
:10471800BB69254B5B69244A43F400335361224B40
:104728005B6903F400337B617B693023FB610323FE
:104738003B6200237B6207F11C0319464FF090404F
:10474800FCF7C4FB29E07B681B68184A934224D114
:10475800154BDB69144A43F08063D361124BDB6964
:1047680003F080633B613B690F4B5B690E4A43F47E
:10477800003353610C4B5B6903F40033FB60FB6847
:104788004023FB6103233B6200237B6207F11C0388
:1047980019464FF09040FCF799FB00BF3037BD46F3
:1047A80080BD00BF00740040001002400098004027
:1047B80080B58AB000AF786007F1140300221A6050
:1047C8005A609A60DA601A617B681B68264A9342CD
:1047D80045D1264B5B69254A43F400335361234B8B
:1047E8005B6903F400333B613B69204B5B691F4AFB
:1047F80043F4802353611D4B5B6903F48023FB6002
:10480800FB684FF400437B611223BB610123FB610A
:1048180003233B6204237B6207F1140319464FF01C
:104828009040FCF753FB80237B611223BB6101237B
:10483800FB6103233B6204237B6207F114031946DF
:104848000B48FCF743FB094BDB69084A43F40013A8
:10485800D361064BDB6903F40013BB60BB6800BF80
:104868002837BD4680BD00BF0054004000100240FC
:104878000004004880B400AF00BFBD465DF8047B6B
:10488800704780B400AFFEE780B400AFFEE780B4A5
:1048980000AFFEE780B400AFFEE780B400AF00BF12
:1048A800BD465DF8047B704780B400AF00BFBD46CD
:1048B8005DF8047B704780B400AF00BFBD465DF86B
:1048C800047B704780B500AFFCF7DEF800BF80BD01
:1048D80080B400AF1F4BD3F888301E4A43F47003EE
:1048E800C2F888301C4B1B681B4A43F00103136055
:1048F800194B5A681849194B13404B60164B1B68E3
:10490800154A23F0847323F480331360124B1B6819
:10491800114A23F4802313600F4B5B680E4A23F47B
:10492800FE0353600C4BDB6A0B4A23F00F03D36280
:10493800094B1A6B08490A4B13400B63064B0022BC
:104948009A60044B4FF000629A6000BFBD465DF864
:10495800047B704700ED00E0001002400CC07FF8B7
:10496800CCFC00FFDFF834D0002103E00C4B5B588F
:10497800435004310B480C4B42189A42F6D30B4A69
:1049880002E0002342F8043B094B9A42F9D3FFF7AF
:104998009FFF00F011F8FFF755FAFEE7FF2F002000
:1049A800F84A0008000000200C0000200C0000203D
:1049B800CC000020FEE7000070B50D4E0D4CA41B86
:1049C800A4100025A54209D10B4E0C4C00F020F88C
:1049D800A41BA4100025A54205D170BD56F82530AA
:1049E80098470135EEE756F8253098470135F2E744
:1049F800F04A0008F04A0008F04A0008F44A0008A3
:104A080002440346934200D1704703F8011BF9E7BB
:104A1800F8B500BFF8BC08BC9E467047F8B500BFA3
:084A2800F8BC08BC9E46704773
:104A3000693263526561644E4279746573000000A7
:104A4000693263526561645265714E42797465736F
:104A500000000000693263577269746531427974ED
:104A60006500000069326357726974655265673189
:104A70004279746500000000693263577269746599
:104A80005265674E4279746573000000424E4F20B4
:104A9000303535204465696E69740000424E4F2000
:104AA0003035352041000000424E4F203035352052
:104AB00042000000424E4F203035352043000000B8
:104AC00002030405060708090A0B0C0D0E0F10104F
:104AD0000102030405060708090A0B0C0D0E0F104E
:104AE000000000000000000001020304060708099E
:044AF000AD0100080C
:044AF400890100082C
:0C4AF800100000000100000000127A0015
:040000050800496D39
:00000001FF
