:020000040800F2
:100000000020002069240008F9230008FB230008D1
:1000100000000000000000000000000000000000E0
:10002000000000000000000000000000FD230008A8
:100030000000000000000000FF2300080124000869
:10004000B9240008B9240008B9240008B92400081C
:10005000B9240008B9240008B9240008B92400080C
:10006000B9240008B9240008B9240008B9240008FC
:10007000B9240008B9240008B9240008B9240008EC
:10008000B9240008B924000800000000B9240008C1
:10009000B9240008B9240008B9240008B9240008CC
:1000A000B9240008B9240008B9240008B9240008BC
:1000B000B924000800000000B92400080000000076
:1000C00010B5064C2378002B07D1054B002B02D02E
:1000D000044800E000BF0123237010BD040000208D
:1000E0000000000028250008044B10B5002B03D0A9
:1000F0000349044800E000BF10BDC04600000000F6
:100100000800002028250008002243088B4274D3F1
:1001100003098B425FD3030A8B4244D3030B8B4208
:1001200028D3030C8B420DD3FF22090212BA030C11
:100130008B4202D31212090265D0030B8B4219D3F2
:1001400000E0090AC30B8B4201D3CB03C01A524112
:10015000830B8B4201D38B03C01A5241430B8B425A
:1001600001D34B03C01A5241030B8B4201D30B0343
:10017000C01A5241C30A8B4201D3CB02C01A52416A
:10018000830A8B4201D38B02C01A5241430A8B422D
:1001900001D34B02C01A5241030A8B4201D30B0216
:1001A000C01A5241CDD2C3098B4201D3CB01C01A30
:1001B000524183098B4201D38B01C01A524143093A
:1001C0008B4201D34B01C01A524103098B4201D328
:1001D0000B01C01A5241C3088B4201D3CB00C01A95
:1001E000524183088B4201D38B00C01A524143080D
:1001F0008B4201D34B00C01A5241411A00D2014632
:10020000524110467047FFE701B5002000F006F8A4
:1002100002BDC0460029F7D076E770477047C04658
:100220008446081C6146FFE71FB500F0F9F9002875
:1002300001D40021C8421FBD10B500F08BF9404227
:10024000013010BD10B500F0EBF9002801DB0020F3
:1002500010BD012010BDC04610B500F0E1F9002826
:1002600001DD002010BD012010BDC04610B500F01A
:1002700097F9002801DC002010BD012010BDC04608
:1002800010B500F08DF9002801DA002010BD012022
:1002900010BDC0469E2110B5C905041CFFF7F0FF34
:1002A000002803D1201C00F0B9FC10BD9E21201CA9
:1002B000C90500F017FB00F0B1FC80231B069C462B
:1002C0006044F2E7F0B557464E46DE464546E0B597
:1002D00044024300C60F83B00F1C640A1B0EB246D3
:1002E00053D0FF2B27D08022E400D20414437F2276
:1002F000524290469844002399469B467D027800DE
:10030000FB0F6D0A000E009324D0FF2846D08023F7
:100310000021ED00DB041D437F384746381A4F4665
:100320000F43BF00B9463300009A874F53404A46F7
:10033000BA5801939746002C4ED108239946F733BB
:100340009846FD3B9B467D027800FB0F6D0A000E30
:100350000093DAD1002D26D1002001213300009A2C
:100360007A4F53404246101A4A460A439200BA58FE
:100370001D009746009B2C009A468B465B46022B3D
:1003800031D15346FF21002438E0002C17D104233B
:1003900099460023984601339B46AFE7FF20002D86
:1003A0000BD10221DAE7280000F09EFC431F9D409C
:1003B00076235B42181A0021AFE70321ADE7200046
:1003C00000F092FC431F9C4076235B421B1A984628
:1003D000002399469B4691E70C239946F3339846B0
:1003E000FC3B9B468AE7032B00D1A5E05546012B39
:1003F00000D081E00123002100242B406402C905C4
:10040000600ADB070843184303B03CBC904699469A
:10041000A246AB46F0BD80240023E403FF21EDE7B4
:10042000FF210024EAE70123591A1B2966DD019AFE
:10043000134000210024E1E78023DB031C4238D075
:100440001D4251D01C436402640A3300FF21D5E7EA
:1004500063016C01A3423BD21B2600210138012518
:100460001F0049005B00002F01DB9C4201D81B1BD1
:100470002943013E002EF3D11C00631E9C410C4316
:1004800001007F310029CEDD630704D00F23234014
:10049000042B00D00434230103D501002C4B803100
:1004A0001C40FE290DDD0123019AFF211340002489
:1004B000A4E78023DB031C436402640A3300FF21AA
:1004C0009CE70123019AA401640AC9B2134095E78D
:1004D0001B1B1A260121C2E7009B8B469A4600246B
:1004E0004CE76302E5D500258024E4032C43640235
:1004F000640A009BFF2181E70195C1E723002020CA
:10050000CB40411A8C40611E8C411C43630704D0D0
:100510000F232340042B00D00434630105D50123AD
:10052000019A01211340002468E70123019AA401E4
:10053000640A1340002161E78023DB031C4364024B
:10054000640A5346FF2159E760250008A0250008EA
:10055000FFFFFFF770B5420045024E024C00C30F8B
:100560006D0A120E760A240EC90F0120FF2A06D04A
:10057000FF2C03D0A24201D1B54206D070BD002DA0
:10058000FCD1FF2CFAD1002EF8D18B4206D00120ED
:10059000002AF3D12800451EA841EFE70020EDE72F
:1005A000F0B5420045024C02C30F48006D0A120E1E
:1005B000640A000EC90FFF2A1ED0FF2821D0002A8E
:1005C0000AD16E426E41F6B200280FD1002C0DD137
:1005D0000020002D09D005E0002801D1002C01D019
:1005E0008B4211D0012158420843F0BD002EF7D0B4
:1005F000012001390843F8E7002DDED002204042F7
:10060000F3E7002CDBD0F9E78242EBDC04DBA54208
:10061000E8D80020A542E8D20121581E0843E4E7AB
:10062000F0B542004D024C004602760A120EC30F8E
:100630006D0A240EC90FFF2A16D0FF2C18D0002AED
:100640000AD170427041C0B2002C15D0002805D0EC
:10065000012001390843F0BD002C13D0994214D079
:1006600001205B421843F6E70220002EF3D1E4E7B5
:100670000220002DEFD1E2E7002DE7D10020002E6F
:10068000E9D0EDE7002DE9D1EAE7A24206DCDFDBA5
:10069000AE4203D80020AE42DAD3DCE70120494263
:1006A0000843D8E7F8B557464E464546DE46E0B51E
:1006B0004702460088467F0A360EC40F002E47D0F8
:1006C000FF2E24D0FB008027FF041F430023994600
:1006D0009A467F3E43465D025800DB0F6D0A000ECE
:1006E000984643D0FF283BD0EB0080250022ED0444
:1006F0001D437F383618731C41469B464B4661406C
:1007000013430F2B64D875489B00C3589F46002F96
:1007100042D108239946063BFF269A46DAE741462E
:10072000022A28D0032A00D1CEE0012A00D0ACE072
:10073000114000200022CCB24002D205400AE4075A
:10074000104320433CBC90469946A246AB46F8BDB8
:10075000002F15D104239946033B00269A46B9E79A
:10076000FF200222002DC5D00322C3E7002D19D19E
:1007700000200122BEE70124FF220C400020DBE71D
:10078000380000F0B1FA7626431F9F4000237642DE
:10079000361A99469A469DE70C239946093BFF264F
:1007A0009A4697E7280000F09FFA431F9D40762362
:1007B0005B42181A00229DE780200024C003FF221C
:1007C000BAE73D005246ABE73D0021005246A7E79D
:1007D0003B0C9C462A04120C2B0C14006046654608
:1007E0003F043F0C7C4342435D437B43270C9B18F3
:1007F000FF18BA4203D980235B029C466544240457
:100800003A04240C121993015C1EA3413F0C920E72
:100810007D191A43AD0115432B0104D501235E4612
:100820006A081D40154332007F32002A25DD6B0720
:1008300004D00F232B40042B00D004352B0103D50B
:100840003200274B80321D40FE2A94DC0124A8018F
:10085000400AD2B20C406FE78020C003074207D0A5
:10086000054205D128434002400A4446FF2263E77F
:1008700038434002400AFF225EE70124A31A1B2BE3
:1008800005DD0C400022002056E75E46CBE72A003B
:100890002020DA40C31A9D402B005D1EAB4113435C
:1008A0005A0704D00F221A40042A00D004335A01F8
:1008B00004D5012401220C4000203DE701249B01C6
:1008C000580A0C40002237E780200124C003284347
:1008D0004002400A0C40FF222EE7C046E0250008F7
:1008E000FFFFFFF7F0B54F46D64646464400C0B579
:1008F000C20F47024802400A844666467B0A480007
:10090000C90F9A46240E1500DB00000E8946F6003A
:10091000FF2800D18FE001214F464F40390091421E
:1009200066D0221A002A00DC9DE000283DD1002E6E
:1009300000D18BE0511E002900D0B5E001249B1BA3
:100940005A0144D59B019F09380000F0CDF90538C4
:100950008740844200DD96E0041B3A0020200134E9
:10096000E240041BA7403B005F1EBB410024134331
:100970005A0704D00F221A40042A00D004335A0127
:1009800027D50134FF2C00D179E001229B015B0ABD
:10099000E4B22A405B02E405580AD2072043104320
:1009A0001CBC90469946A246F0BDFF2CE0D08021A9
:1009B000C9040E431B2A7BDC31002020D140821A5F
:1009C0009640721E96410E439B1B5A01BAD45A0799
:1009D000D0D10122DF082A40FF2C33D1002F00D1D3
:1009E000A8E08023DB033B435B025B0AFF24D1E7E3
:1009F000211A00294CDD00282AD0FF2CB8D08020F5
:100A0000C00406431B2900DDAFE030002027C840AA
:100A1000791A8E40711E8E4106439B195901D6D515
:100A20000134FF2C00D185E001227A491A405B088D
:100A30000B4013439CE7002E00D070E76BE73B1E92
:100A4000C5D100227B025B0AE4B2A3E714008FE762
:100A5000002E4DD0481E002857D19B1901245A0161
:100A6000B5D50224E0E7002A25D1621CD2B2012AC2
:100A700072DD9F1B7A0135D5F71A0D0064E701225C
:100A800000232A4086E73B00634A241A13406FE79D
:100A900000296CD1611CC8B201284EDDFF2949D064
:100AA0009B195B080C0063E7FF2A41D00A0081E72D
:100AB00001269B1B89E7002C1CD0FF2821D0802415
:100AC000E404524223431B2A00DD96E01C0020254B
:100AD000D440AA1A93405A1E93412343F31A0400A8
:100AE0000D002DE7002F00D02EE700220024A9E7FB
:100AF0000C003DE7002B58D0D243002AEED0FF284F
:100B0000E1D13300FF240D0032E7FF2910D00100AE
:100B100078E7002B6ED0FF24002E00D128E780223A
:100B20005146D203114203D06146114200D1330035
:100B3000FF241DE7FF2400232CE7002CE9D1002B24
:100B400063D0002E00D113E79B195A0100D43EE771
:100B5000314A0C0013400BE7002C1ED1002B2FD183
:100B6000002E4FD033000D0002E7012655E7002C80
:100B70001FD1002B43D0C94300290BD0FF2839D007
:100B80001B2944DC1C002027CC40791A8B40591EBD
:100B90008B4123439B19040040E7002B1AD1002E00
:100BA00024D180270022FF031BE7330004000D003F
:100BB000DEE6FF281ED08024E40449422343DFE719
:100BC000002E00D1D4E69F1B7A0100D437E7F31A38
:100BD0000D00CDE6FF24002E00D1C9E6802250464C
:100BE000D2031042A4D060461042A1D133000D00C0
:100BF000FF24BDE63300FF24BAE601236EE733008D
:100C00000400B5E6002700221CE73300B0E601230C
:100C1000C0E7C046FFFFFF7DFFFFFFFB410243002F
:100C2000C20F490A1B0E00207E2B0DDD9D2B0CDC14
:100C3000802000040143952B0ADC9620C31AD9407A
:100C40004842002A00D108007047034BD018FBE748
:100C5000963B9940F4E7C046FFFFFF7F10B5041EA6
:100C600027D000F041F89E231B1A962B0ADC96220F
:100C7000D21A94406402640ADBB26402DB05600AA3
:100C8000184310BD992B17DC9922D21A002A27DDB0
:100C900094402200134C1440510704D00F210A4005
:100CA000042A00D00434620112D4A401640ADBB225
:100CB000E3E700230024E0E7B9222100D21A9140A3
:100CC0000A00511E8A410521091ACC401443DBE772
:100CD000044B1C409F23A4011B1A640ADBB2CCE71F
:100CE0002200D7E7FFFFFFFB1C2101231B049842D2
:100CF00001D3000C10391B0A984201D3000A0839AD
:100D00001B09984201D30009043902A2105C401863
:100D10007047C04604030202010101010000000007
:100D20000000000010B5040001F03CF8FA21890031
:100D3000FFF7EAF900F066F80120002221004042A6
:100D400000F030F8002010BD1023064A10B51168DD
:100D500000200B431360FFF7E5FF01F0D3FA0020FA
:100D600010BDC04600200240024A136801331360E0
:100D70007047C04628000020014B18687047C046E5
:100D80002800002037B50190FFF7F6FF019C050011
:100D9000631C5A1E9341E418FFF7EEFF401BA0426C
:100DA000FAD337BD70B58901002814DA0F23C0B219
:100DB0000340083B114A9B089B009B1803221040EC
:100DC0009040FC321500114085408140DC69AC4305
:100DD0002143D96170BD032583082840A840FC3514
:100DE0002E00074A9B009B18C02286402940814064
:100DF00092009C58B44321439950EBE700ED00E08A
:100E000000E100E0094A431E012093420DD8C021B1
:100E1000074A08485360036A09061B021B0A0B4372
:100E2000036200200723906013607047FFFFFF00FC
:100E300010E000E000ED00E010B504000120002CFF
:100E40000DD02379DBB2002B03D16371200001F0B8
:100E500071FA022300202371013B2061237110BD30
:100E600013B50024006801940190A14207D10199B3
:100E700008318A180192019A0020136016BD019969
:100E80001431F6E730B5437904000220012B10D06D
:100E900020713C30904025682B68834318000B6814
:100EA00049680B43934003432B600020012360718A
:100EB000237130BD022230B5447903001000012CAB
:100EC00016D0013804008C401A711A6858711568E0
:100ED0002C431460002907D13C2411682140A14211
:100EE00002D1516808435060012200201A715871E4
:100EF00030BD0000F0B50B6887B00293002301916C
:100F0000029ADA4001D107B0F0BD01229A40039263
:100F10000399029A0A40009200D18CE0019A1021B4
:100F2000526816008E43022E0ED107251D40AD00DB
:100F30000139A940DC08A4000419276A8F430199EC
:100F40000969A9400F43276203245F00BC40E443C2
:100F50000568013E2540AC4603251540BD4061466D
:100F60000D430560012E0FD801998668CD68264093
:100F7000BD40354385604668039915098E430121BC
:100F80000D409D4035434560C56801992C408D68F2
:100F90008021BD4049052C43C4600A424BD0012149
:100FA000264C0326A5691E400D43A561A4699D0832
:100FB0000C400594059C0F242149AD00B6006D1826
:100FC000B4409021AF68C905A743002488420CD0E3
:100FD0001C490134884208D01B490134884204D09E
:100FE0001A490334884200D1023CB44000993C4382
:100FF0000E00AC60164CCD4327683E43D10301D4AC
:101000003E002E4026606768009E3E43910301D457
:101010003E002E406660A768009E3E43D10201D488
:101020003E002E40A660E668009F3743920201D43E
:101030002E403700E760013362E7C04600100240EF
:10104000000001400004004800080048000C00486F
:1010500000040140002A01D0816170478162FCE7F1
:1010600003689A69920701D500229A620122996960
:10107000114202D199690A439A61704730B50468F8
:101080000648656889052840039D890D2B4319434F
:1010900012040A430243626030BDC046009800FC5F
:1010A000F8B504000E0017001D0022689369334054
:1010B0009B1B59424B41BB4201D000200EE06B1CF0
:1010C000F4D0002D0BD12300202241331A702200CE
:1010D000002303204232403413702370F8BDFFF721
:1010E0004BFE069BC01A8542DFD2ECE7F8B50368D9
:1010F0000400986910230E001700184020250028CE
:1011000015D1F8BD721C13D0002E0BD12300202264
:1011100041331A70220000234232403413700320FE
:101120002370EEE7FFF728FEC01B8642EED323684C
:101130009A692A42E6D010222000DA61DD61FFF7C9
:101140008FFF22680849536801200B405360042335
:1011500063642300220041331D7000234232403477
:1011600013702370CDE7C04600E800FEF8B5040018
:101170000D001600022723689B693B4201D0002026
:1011800018E0320029002000FFF7B0FF002818D136
:101190006B1CF0D0002D0ED12022636C0320134372
:1011A0006364230041331A7022000023423240342A
:1011B00013702370F8BDFFF7DFFD801B8542DAD284
:1011C000EAE70120F6E773B515001E00DAB28023C6
:1011D0009B010093802304005B04FFF74FFF079AF5
:1011E00006992000FFF7C2FF002805D0636C01209C
:1011F000042B00D0032076BD2368012E0CD1EDB264
:101200009D62079B002200938021069B2000FFF730
:1012100047FF0028EED1EEE72A0A9A620699079A5C
:101220002000FFF7A3FF0028E0D12368E7E773B5AC
:1012300015001E00DAB2802304009B0100930023F6
:10124000FFF71CFF079A06992000FFF78FFF002881
:1012500005D0636C0120042B00D0032076BD2368E9
:10126000012E0CD1EDB29D62079B0022009340211C
:10127000069B2000FFF714FF0028EED1EEE72A0AB4
:101280009A620699079A2000FFF770FF0028E0D1C4
:101290002368E7E7F8B504000D001600202723684F
:1012A0009B693B4201D0002016E03200290020005B
:1012B000FFF71CFF002816D1002D0ED12022636CF1
:1012C000032013436364230041331A702200002378
:1012D0004232403413702370F8BDFFF74DFD801B80
:1012E0008542DCD2EAE70120F6E7000070B5040091
:1012F0000120002C3FD0250041352B78DBB2002B9C
:1013000005D1220040321370200001F041F824235F
:1013100001212B702368E0681A68A6688A431A6066
:1013200061681A4A0A401A619968194A114099601D
:10133000012821D18021090231439960586815495B
:1013400001435960D96800200A40DA606169226966
:101350000A43A16909020A43DA60216AE2690A4381
:101360001A60012219680A431A60202360642B70F6
:1013700020634234207070BD84210902314399609A
:101380000228DBD1802109015960D7E7FFFFFFF078
:10139000FF7FFFFF00800002F0B589B007930EAB1E
:1013A000069204CB04001B8803920493030041338C
:1013B00005931B780D000220202B02D1002A02D1B8
:1013C000012009B0F0BD049B002BF9D02700403765
:1013D0003B78012BF5D001233B70FFF7CDFC80213A
:1013E000029000901923012209022000FFF758FE05
:1013F000061E1FD12123059A2900137023004233B2
:1014000005934023059A1370039B606463626B46E7
:101410001B8A60636385029B069A0193109B2000E0
:101420000093079BFFF7CFFE002805D0636C3E704A
:10143000042BC5D00320C4E7638DFF2B14D9FF22F2
:10144000802322855B040090290020008026FFF77E
:1014500015FEFF27B604029A10992000FFF786FEBA
:10146000002809D0636CE3E78023628D9B0492B26D
:101470002285D2B20090E7E7636A2268591C616254
:101480001B789362638D228D013B013A9BB292B22D
:1014900063852285002A17D1638D002B14D0029B0F
:1014A000802100932000109BFFF7FAFD0028C1D196
:1014B000638DFF2B21D98023FF2227855B040090B9
:1014C00029002000FFF7DAFD638D002BC3D1029ABB
:1014D00010992000FFF7DEFE0028C3D120212368E9
:1014E000094DD9615A682A405A6023004133197066
:1014F000059B40341870207063E7628D330092B210
:101500002285D2B20090DBE700E800FEF0B589B09A
:1015100007930EAB069204CB04001B88039204933E
:101520000300413305931B780D000220202B02D1CC
:10153000002A02D1012009B0F0BD049B002BF9D094
:10154000270040373B78012BF5D001233B70FFF794
:1015500013FC80210290009019230122090220002F
:10156000FFF79EFD061E1FD12223059A2900137046
:101570002300423305934023059A1370039B606454
:1015800063626B461B8A60636385029B069A0193C4
:10159000109B20000093079BFFF749FE002805D011
:1015A000636C3E70042BC5D00320C4E79023628D8A
:1015B0009B01FF2A49D9FF222285009380235B04E7
:1015C000290020008026FFF759FDFF27B604029B63
:1015D000002200930421109B2000FFF761FD0028EA
:1015E000E2D1636A5A1C62622268526A1A70228DC2
:1015F000638D013A013B92B29BB222856385002A3A
:1016000017D1638D002B14D0029B80210093200002
:10161000109BFFF745FD0028C6D1638DFF2B1CD919
:101620008023FF2227855B04009029002000FFF71C
:1016300025FD638D002BCAD1029A10992000FFF777
:1016400029FE002810D0636CACE7628D92B222852F
:1016500000938023D2B29B04B2E7628D330092B232
:101660002285D2B20090E0E720212368064DD9619F
:101670005A682A405A60230041331970059B403450
:101680001870207057E7C04600E800FEF0B589B03A
:1016900005911D00010000230492079341310B784E
:1016A0000400DBB20220202B55D1226896698022EB
:1016B000120232404FD1260040363778012F4AD0EF
:1016C000013830701E00233008706264059BE168A9
:1016D0009B0522689B0D01291AD136490B435360A3
:1016E000FFF74AFB03902700236841379A6932428B
:1016F00018D010279A693A402FD1039B20210093DC
:1017000020002B00FFF7CCFC00281CD0032022E097
:10171000A0218901E2E7FFF72FFB039BC01A854256
:10172000E1D20AE010219A690A42E2D13A78A02A6D
:10173000DFD06A1CDAD0002DEDD120233B700023CE
:1017400040342370E2E720232268D3612200403432
:1017500041321370207009B0F0BD039B002200934A
:1017600031002B002000FFF79BFC021ECED1236826
:10177000DF61DE610799481C0790049881420FD110
:1017800080215868C90101435960039B31000093CF
:1017900020002B00FFF784FC0028B7D12368DE610E
:1017A000079B049A9A4200D990E7230020224133F4
:1017B0001A70C4E700200002406C7047F0B50400C6
:1017C000413422780300D2B20220202A18D11D0011
:1017D00040352E78012E13D01B68223020701E68F1
:1017E000233886431E601E68064F3E401E601E68FA
:1017F000314319601968084318600020227028706E
:10180000F0BDC046FFEFFFFFF0B5050041352A7877
:101810000300D2B20220202A17D11C0040342678BF
:10182000012E12D01B68223028701E682338864390
:101830001E601E68054F09023E4031431960196859
:101840000843186000202A702070F0BDFFF0FFFFF1
:10185000F0B5036885B00500DB072FD42B689B0724
:1018600000D581E02B681B0700D5BCE02B685B0727
:1018700000D5DFE02B68DB061AD56A69B54C042376
:10188000012A00D04BE1616B02260B436363636B5B
:101890001A436263FFF770FA0700636B334200D1AB
:1018A00036E1F821626BAB698A43DB001343636363
:1018B000296A002900D059E1002013E00C21A54C31
:1018C00062680A40042A06D063680B40082B0BD1DB
:1018D0006368DB0308D523689B03BFD56B68002BC7
:1018E000BCD1012005B0F0BD6B68012B13D1802362
:1018F00022685B0213432360FFF73EFA802607004D
:10190000B60223683342A9D1FFF736FAC01B642818
:10191000F7D90320E6E7002B16D123688E4A8026EC
:101920001340236023688D4AB60213402360FFF7FB
:1019300023FA07002368334200D18FE7FFF71CFA30
:10194000C01B6428F6D9E4E7052B05D18023226863
:10195000DB0213432360CAE723687F4A13402360F6
:1019600023687E4A1340C6E70C227A4C6368134210
:1019700006D063681340082B10D16368DB030DD4D5
:1019800023689B0702D5EB68012BAAD1F8212268B6
:101990002B698A43DB001343236063E7EA68012372
:1019A000002A0FD02268022613432360FFF7E4F9D0
:1019B000070023683342E9D1FFF7DEF9C01B022894
:1019C000F7D9A6E7226802269A432260FFF7D4F9E6
:1019D00007002368334200D144E7FFF7CDF9C01B6D
:1019E0000228F6D995E7EA6901235A4C002A10D05B
:1019F000626A022613436362FFF7BEF90700636A57
:101A0000334200D032E7FFF7B7F9C01B0228F6D9FE
:101A10007FE7626A02269A436262FFF7ADF9070028
:101A2000636A334200D121E7FFF7A6F9C01B022801
:101A3000F6D96EE780220021464C5205E3690091F9
:101A4000134208D1E3691343E361E369134003934D
:101A5000039B012300938027414E7F0033683B4264
:101A600006D0AB68012B13D1226A1343236230E006
:101A700033683B433360FFF77FF9019033683B42A3
:101A8000EFD1FFF779F9019BC01A6428F6D940E736
:101A90000122002B14D1236A022793432362236A75
:101AA000033293432362FFF767F90600236A3B4240
:101AB00025D0FFF761F92B4B801B9842F6D928E718
:101AC000052B0BD1216A013B0B432362236A1A4386
:101AD0002262FFF751F9022706000DE0236A9343C3
:101AE00004222362236A9343C0E7FFF745F91D4BA5
:101AF000801B984200D90CE7236A3B42F5D0009B3B
:101B0000012B00D0B6E6E369174A1340E361B1E662
:101B1000FFF732F9C01B022800D8BEE6F9E605320D
:101B200003D1626B9A436263BBE6626B0226134386
:101B300001226363636B93436363FFF71DF907003F
:101B4000636B334200D1B3E6FFF716F9C01B0228DE
:101B5000F6D9DEE600100240FFFFFEFFFFFFFBFFAD
:101B60000070004088130000FFFFFFEF0C22264C9E
:101B7000012063681340082B00D1B3E62368234A91
:101B80001340236002292FD1FFF7F6F880260700C3
:101B9000B6042368334221D10F22E36A9343EA6AF1
:101BA0001343E362696AAB6A62680B431849802594
:101BB0000A4013436360802322685B04134323605D
:101BC000FFF7DAF80600AD0423682B4200D073E675
:101BD000FFF7D2F8801B0228F6D99AE6FFF7CCF877
:101BE000C01B0228D5D994E6FFF7C6F88025060069
:101BF000AD0423682B4200D15EE6FFF7BDF8801BE1
:101C00000228F6D985E6C04600100240FFFFFFFE1D
:101C1000FFFFC2FF70B5144C88B010222100684647
:101C200000F070FC210004AD10221031280000F0FB
:101C300069FC0C220D4E73681A40082A11D10F203E
:101C40006A46990C0140545CF26A0240A95CDB03CD
:101C500005D50748FEF758FA604308B070BD05483F
:101C6000FAE70348F9E7C0464025000800100240A3
:101C700000127A0000093D00F7B50122434C06002E
:101C800023680F0013408B421CD33268930723D480
:101C9000D30729D4012322681A40974267D33368B7
:101CA0003B4C5B076AD4FFF7B5FF6368394A1B06F4
:101CB0001B0FD35CD840384B18600020FFF732F878
:101CC000002008E0236893430B43236023681340FC
:101CD0009942DAD00120FEBDF0202D494B688343A4
:101CE000B06803434B60D3E7294D72682B68012A23
:101CF0001AD19B03EED503216B688B4313436B60B2
:101D0000FFF73AF873680190012B15D10C226B682C
:101D10001340042BBED0FFF72FF8019BC01A1F4BB6
:101D20009842F3D90320D6E7022A02D19B01E2D4DC
:101D3000D0E79B07DFD4CDE7022B12D00C226B68D3
:101D40001342A7D0FFF718F8019BC01A134B984213
:101D5000F4D9E7E7FFF710F8019BC01A0F4B984240
:101D6000E0D80C226B681340082BF3D192E722686D
:101D70009A43226022681A42ACD190E76368084A0D
:101D80001340F268134363608DE7C04600200240B1
:101D900000100240592600080000002088130000AF
:101DA000FFF8FFFF014B18687047C0460000002095
:101DB000F0B5036885B00500DB0328D5802200213B
:101DC0003B4C5205E3690091134208D1E369134388
:101DD000E361E36913400393039B0123009380278E
:101DE000344E7F0033683B422FD0C022236A9200DA
:101DF0001340314E3BD1236A1E406B681E43009B4B
:101E00002662012B03D1E3692C4A1340E3612A685F
:101E1000D30706D5032026490B6B8343A8680343E9
:101E20000B63930606D5102021490B6B8343E868AA
:101E300003430B630020530517D540211C4A136B45
:101E40008B4329690B4313630FE033683B433360D3
:101E5000FEF792FF019033683B42C6D1FEF78CFF3C
:101E6000019BC01A6428F6D9032005B0F0BD69684B
:101E70000A409342BFD08023226A206A11005B028D
:101E800003432362236A0E483140034023622162E8
:101E9000D307B0D5FEF770FF07000222236A134272
:101EA000A9D1FEF769FF074BC01B9842F5D9DBE7C4
:101EB0000010024000700040FFFCFFFFFFFFFFEF3B
:101EC000FFFFFEFF88130000F0B504000F001500AF
:101ED00087B01E000CAB1B8805930C4BB9B2029364
:101EE000059B009601932A0001232000FFF70EFBBB
:101EF000002801D107B0F0BD2000FFF75DFC0428E9
:101F0000EBD0034800F0ECF8E7E7C04610270000EC
:101F100020260008F0B504000F00150087B01E0051
:101F20000CAB1B8805930C4BB9B20293059B009632
:101F300001932A0001232000FFF72EFA002801D187
:101F400007B0F0BD2000FFF737FC0428EBD00348B2
:101F500000F0C6F8E7E7C046102700003126000869
:101F6000044B1878044B40001B7818430323184097
:101F70007047C0469A0100209B01002070B51026D2
:101F800096B0302200210AA800F0C5FA32000021E4
:101F900001A800F0C0FA1422002105A800F0BBFA45
:101FA000A023022401259B030AA80A9412941493E7
:101FB0000D950E96FFF74CFC072302940024290090
:101FC00001A8019303940494FFF756FE202305A86B
:101FD00005930894FFF7ECFE16B070BD70B5FEF7E0
:101FE000CBFE134D2B68C01AFA239B00984214D9DC
:101FF000104B1B78002B10D10124802190200D4E16
:1020000049003278C0056240FFF724F833785C401D
:102010003470FEF7B1FE286070BDFEF7ADFE2B6890
:10202000C01A6428F8D9034B1B78002BE4D1F3E7DE
:10203000240000202000002007B50B00044980B2D6
:102040000978009202000348FFF73EFF07BDC04633
:10205000980100204801002007B50B00044980B218
:102060000978009202000348FFF754FF07BDC046FD
:10207000980100204801002007B56B46D97107334D
:1020800001221900FFF7E8FF07BD00000022054B01
:1020900010B51A70FFF764FF01000320FFF7ECFF93
:1020A00010BDC0469B01002000210B4B10B51870DD
:1020B0000800FFF7E1FF3F210120FFF7DDFFFFF7F9
:1020C000E5FF0021054B02201970FFF7D5FF6420C2
:1020D000FEF758FE012010BD980100209D01002050
:1020E000002310B51A0019000148FEF7B9FEFEE7FB
:1020F000340100200200400512B210B5400D002A44
:1021000006DAFEF7ABFD011C0020FEF7EBFB10BD6D
:10211000FEF7A4FDFBE70000F7B54B00DBB200AF14
:1021200006000D001A1C802B01D9134B1A78694642
:10213000D2B2D31DDB08DB00CB1A9D468020694656
:102140007B600024FFF778FFAC4201DBBD46F7BDA2
:1021500063007A68DBB2D21879685278C85C1202E0
:102160001043FFF7C7FFFA218905FEF79BFAA3008A
:10217000F0500134E8E7C04643260008F0B58BB0C4
:10218000FEF7E2FDFFF7FAFE1422002105A800F099
:10219000C2F980204E4B8002596980240143596165
:1021A00080215A69C902024090200392039A5A6919
:1021B00064000A435A615B6900220B4004932100CA
:1021C000C005049BFEF746FF9020059401260024DD
:1021D00005A9C005069607940894FEF78BFE082211
:1021E000210005A800F097F93A4F3B4B38003B60BF
:1021F000FEF722FE220005A9380005940694FEF79A
:1022000041FE364D364B28002B60364BAC606B6080
:10221000EE602C616C61AC61EC612C62FFF766F8DA
:1022200021002800FFF7CAFA21002800FFF7ECFA86
:1022300021003800FEF73EFEFA204000FEF7A2FD26
:1022400064230222D0212800FFF720FAA04202D006
:102250002548FFF745FFD020FFF726FF234E4021FA
:102260003000FFF759FF0025214C7359211C181C21
:102270000193FDF7FBFF002800D0019C802304356B
:102280005B009D42F1D11B49201CFDF7DBFF0028BC
:102290001AD11949201CFDF7E9FF002816D115496C
:1022A000201CFEF71FFB1549FEF7FCF91449FEF749
:1022B00009F8FDF7EFFF0022030011003800FEF7D8
:1022C000CFFDFFF78BFEC9E70A4CE8E70A4CE6E7CB
:1022D000001002403401002000740040480100203A
:1022E00000540040FE090020442600083000002071
:1022F00000C079C4000070410000484200F07F45F2
:1023000000000C4201200A4B82B099690143996197
:1023100080219A69490502400092009ADA690A43CD
:10232000DA61DB690B400193019B02B07047C04644
:102330000010024010B5040088B01422002103A848
:1023400000F0E9F8104B22689A421BD180200F4B15
:102350008005D9690143D9618021DA698902024087
:102360000192019A5A6990200A435A615B69C0053B
:102370000B400293029B102303A903930D3B04938C
:10238000FEF7B8FD08B010BD007400400010024018
:1023900010B5040088B01422002103A800F0BBF897
:1023A000124B22689A421FD18021114CC9026269E6
:1023B00010480A436261636903220B400193019B49
:1023C000C0230393AE3B049303A9113B05930692EC
:1023D0000793FEF78FFD8021E26989030A43E261DA
:1023E000E3690B400293029B08B010BD005400400B
:1023F00000100240000400487047FEE77047704735
:1024000010B5FEF7B1FC10BD0121114B11481A683F
:102410000A431A605A6802405A601A680E4802401D
:102420001A601A680D4802401A605A680C48024047
:102430000F205A60DA6A8243DA621A6B0948024056
:102440001A635A6B8A435A6300229A607047C046E7
:10245000001002400CB8FFF8FFFFF6FEFFFFFBFF85
:10246000FFFFC0FFACFEFFFF0D4885460D480E493B
:102470000E4A002302E0D458C4500433C4188C42DE
:10248000F9D30B4A0B4C002301E013600432A24243
:10249000FBD3FFF7B9FF00F011F8FFF76FFEFEE77F
:1024A0000020002000000020040000207426000806
:1024B00004000020A4010020FEE7000070B5002603
:1024C0000C4D0D4C641BA410A64209D1002600F04F
:1024D0002BF80A4D0A4C641BA410A64205D170BD0E
:1024E000B300EB5898470136EEE7B300EB58984736
:1024F0000136F2E76C2600086C2600086C260008FE
:1025000070260008002310B59A4200D110BDCC5CA3
:10251000C4540133F8E703008218934200D1704796
:1025200019700133F9E70000F8B5C046F8BC08BCE3
:102530009E467047F8B5C046F8BC08BC9E4670473A
:1025400002030405060708090A0B0C0D0E0F1010F4
:102550000102030405060708090A0B0C0D0E0F10F3
:102560005004000820040008320400087403000826
:10257000320400081604000832040008740300083E
:102580002004000820040008160400087403000852
:102590007C0300087C0300087C0300083804000862
:1025A0002004000820040008F4030008D8040008F0
:1025B000F403000816040008F4030008D804000817
:1025C000200400082004000816040008D8040008AD
:1025D0007C0300087C0300087C030008E204000878
:1025E000D007000820070008200700081E07000881
:1025F000C2070008C2070008B80700081E07000845
:10260000C2070008B8070008C20700081E07000834
:10261000C8070008C8070008C807000858080008CD
:10262000693263526561645265714E4279746573B3
:102630000069326357726974655265674E427974F6
:1026400065730080414D4738383333206E6F7420F6
:1026500070726573656E742E00000000000000004B
:0C26600000010203040607080900000046
:04266C00E900000879
:04267000C10000089D
:0426740000127A00D6
:040000050800246962
:00000001FF
