:020000040800F2
:10000000FF3F002099390008DD380008E738000874
:1000100000000000000000000000000000000000E0
:10002000000000000000000000000000ED380008A3
:100030000000000000000000F73800080139000847
:10004000E9390008E9390008E9390008E939000808
:10005000E9390008E9390008E9390008E9390008F8
:10006000E9390008E9390008E9390008E9390008E8
:10007000E9390008E9390008E9390008E9390008D8
:10008000E9390008E9390008E9390008E9390008C8
:10009000E9390008E9390008E9390008E9390008B8
:1000A000E9390008E9390008E9390008E9390008A8
:1000B000E9390008E9390008E9390008E939000898
:1000C00010B5064C2378002B07D1054B002B02D02E
:1000D000044800E000BF0123237010BD340000205D
:1000E00000000000443A0008044B10B5002B03D078
:1000F0000349044800E000BF10BDC04600000000F6
:1001000038000020443A0008002243088B4274D390
:1001100003098B425FD3030A8B4244D3030B8B4208
:1001200028D3030C8B420DD3FF22090212BA030C11
:100130008B4202D31212090265D0030B8B4219D3F2
:1001400000E0090AC30B8B4201D3CB03C01A524112
:10015000830B8B4201D38B03C01A5241430B8B425A
:1001600001D34B03C01A5241030B8B4201D30B0343
:10017000C01A5241C30A8B4201D3CB02C01A52416A
:10018000830A8B4201D38B02C01A5241430A8B422D
:1001900001D34B02C01A5241030A8B4201D30B0216
:1001A000C01A5241CDD2C3098B4201D3CB01C01A30
:1001B000524183098B4201D38B01C01A524143093A
:1001C0008B4201D34B01C01A524103098B4201D328
:1001D0000B01C01A5241C3088B4201D3CB00C01A95
:1001E000524183088B4201D38B00C01A524143080D
:1001F0008B4201D34B00C01A5241411A00D2014632
:10020000524110467047FFE701B5002000F006F8A4
:1002100002BDC0460029F7D076E770477047C04658
:100220008446101C62468C46191C634600E0C0469A
:100230001FB501F039FB002801D40021C8421FBDC1
:1002400010B501F091FA4042013010BD10B501F037
:100250002BFB002801DB002010BD012010BDC04693
:1002600010B501F021FB002801DD002010BD0120A8
:1002700010BDC04610B501F0B3FA002801DC002023
:1002800010BD012010BDC04610B501F0A9FA00282C
:1002900001DA002010BD012010BDC0468446081CB4
:1002A0006146FFE71FB500F06DFB002801D4002177
:1002B000C8421FBD10B500F0EFFA4042013010BD3A
:1002C00010B500F05FFB002801DB002010BD01200D
:1002D00010BDC04610B500F055FB002801DD002020
:1002E00010BD012010BDC04610B500F0FDFA002879
:1002F00001DC002010BD012010BDC04610B500F08B
:10030000F3FA002801DA002010BD012010BDC0461C
:100310009E2110B5C905041CFFF7F0FF002803D18A
:10032000201C00F075FE10BD9E21201CC90500F0A8
:10033000ABFC00F06DFE80231B069C466044F2E798
:10034000F8B54746CE4643025B0A4400C20F9C46BE
:100350004800DD004B02240E5B0A000E80B5984673
:1003600026009146C90FDB00271A8A4229D0002FA8
:1003700015DD00284AD1002B00D095E0ED08FF2CB8
:1003800000D188E06B025B0AE6B25B02F605580A10
:100390003043D20710430CBC90469946F8BD002F5D
:1003A00000D087E0601CC0B2012800DCB6E0EE1A85
:1003B000720100D5C5E0002E3DD1002200260023A9
:1003C000E3E7002F00DC96E000285DD0FF2C60D032
:1003D0008022D20413431B2F00DDECE02022D21B2D
:1003E00018009340F8405A1E93410343ED186B01E7
:1003F0007BD50134FF2C00D1B7E0012207262A402B
:100400006B089A4D1D4015432E4029E0FF2CB5D0B6
:100410008022D20413431B2F00DDB2E02022D21B26
:1004200019009340F9405A1E93410B43ED1A6B019A
:100430005BD5AD01AE09300001F026FB05388640E2
:10044000844265DC041B330020200134E340041B9C
:10045000A640751EAE41334307261D0000241E40F2
:1004600001224B461A40002E04D00F232B40042BB0
:1004700000D004356B0100D480E70134E6B2FF2CD4
:100480002FD1FF26002380E7002B52D1FF2C00D074
:1004900074E70A00ED08002DF3D08023DB032B4323
:1004A0005B025B0AFF2670E7013F002FBED0FF2CE6
:1004B000B1D163E7002C47D0FF2869D08024E40441
:1004C0007A4225431B2A00DDC5E02C002026D440BB
:1004D000B21A95406A1E954125435D1B040089466A
:1004E000A5E7AB015B0A50E7002401224B461A4006
:1004F0006B07BAD142E7002F3BD10134E0B20128AB
:100500004ADDFF2CBDD00726ED186D082E40A7E769
:100510000723574D241A35401E40A1E7002C1BD15C
:10052000002D6ED1002B00D19AE00A001D003C0086
:1005300024E7013F002F00D158E7FF2C00D04AE705
:10054000A7E75E1B894676E7002D1CD10A00FF282D
:100550001FD004001D0011E7002D5DD1002B17D125
:1005600080230022DB03FF260FE70A00FF2600237B
:100570000BE7002C21D1002D66D1FF28E9D11D0009
:1005800087E7012352E77A1CA7D0FA43FF2899D1C5
:100590000A001D00FF24F1E6002E21D1002D4FD0CE
:1005A000002B4CD0ED186B019ED5314B07362E40F9
:1005B00001241D4054E7012318E7FF28DFD08024E1
:1005C000E4047F4225431B2F4DDC2026F61B2C0024
:1005D000B540FC406A1E95412543ED18040006E72E
:1005E000002DCCD0002B00D153E780216046C903F9
:1005F000084203D04046084200D11D0001211140AD
:1006000047E7002B00D1B9E6EA1A500125D50726A5
:100610005D1B2E40894623E7FF24002B00D1ADE669
:1006200080226046D203104204D04046104201D1DD
:100630001D00894601224B46FF241A409EE62B00EE
:10064000DD080A0000249DE67A1CC6D0FF43FF287F
:10065000B9D11D001DE701253FE7151E00D044E775
:100660000022002391E60125B7E7C046FFFFFF7D8A
:10067000FFFFFFFBF8B557464E464546DE464402AF
:10068000E0B546008846640A360EC70F002E63D0D8
:10069000FF2E24D08023E400DB041C430023994672
:1006A0009B467F3E434642465D02D20F5B006D0A89
:1006B0001B0E9046924665D0FF2B55D0802200211C
:1006C000ED00D2047F3B1543F61A43464A467B4071
:1006D0000F2A00D98DE06D48920082589746002C71
:1006E00054D108239946063BFF269B46DAE70025AE
:1006F000534602291BD0032900D1BFE0012928D08D
:1007000030007F30002820DD6A0704D00F222A4005
:10071000042A00D004352A0103D530005C4A803019
:100720001540FE2803DCAC01640AC2B201E0FF22DE
:1007300000246402D205600ADB07104318433CBC66
:1007400090469946A246AB46F8BD0122101A1B28D6
:100750007CDD00220024ECE7002C1DD10423994607
:10076000033B00269B469DE7FF3E002D20D1022142
:1007700043464A467B400A430F2AD8D84548920050
:1007800082589746002D19D10121F1E70C23994693
:10079000093BFF269B4685E7200001F075F9762688
:1007A000431F9C4000237642361A99469B4679E7C0
:1007B0004A4603231A439146032186E7280001F0A5
:1007C00063F9431F36189D40763600217DE780246B
:1007D0000023E403FF22ACE700258023DB031C4257
:1007E00028D01D4226D12B435C02640A4346FF22D7
:1007F0009FE762016C01A24224D21B210025013E29
:10080000012710006D005200002801DB944201D83E
:10081000121B3D4301390029F3D11400621E94419B
:1008200025436DE7BA46594625005346022900D0B4
:1008300061E77CE78023DB031C436402640A3B001E
:10084000FF2276E7121B1A210125D9E79E362A00DE
:10085000B5402C00C240651EAC411443620704D071
:100860000F222240042A00D00434620103D4A401E0
:10087000640A00225DE7012200245AE78024E40391
:100880002C436402640AFF2253E7C0467C3A000806
:10089000FFFFFFF7BC3A000870B542004E024C0063
:1008A00045026D0A120EC30F760A240EC90FFF2AE5
:1008B0000FD0FF2C11D00120A24200D070BDB54254
:1008C000FCD18B420DD0002AF8D12800451EA8414A
:1008D000F4E70120002DF1D1EBE70120002EEDD14E
:1008E000E9E70020EAE7C04670B54A004E0245023B
:1008F00044006D0A240EC30F760A120EC90FFF2C96
:1009000015D0FF2A0ED0002C15D1002A01D1002EBF
:100910001CD0002D14D08B4227D00220013B184060
:10092000013870BD002EEED002204042F9E7002DC4
:10093000FAD1FF2A0ED0002A0ED1002EEDD00BE006
:1009400001230139994308000130EAE70020002D16
:10095000E7D0E2E7002EE7D18B42DED1944205DDFD
:100960000221581E08400138DBE70024A24204DCC3
:10097000B542D2D80020B542D3D2581E01239843A5
:100980000130CEE730B5420044024D02C30F4800AB
:10099000640A120E6D0A000EC90FFF2A12D0FF283A
:1009A0000CD0002A12D1002819D1002D17D1002C0B
:1009B0002BD00220013B1840013826E0002DF0D05A
:1009C000022022E0002CFBD1FF281FD000281FD1DD
:1009D000002D1DD10220013B1840013815E0002CEC
:1009E0000ED08B42E5D10022904204DCAC42E0D82C
:1009F0000020AC4209D2581E01239843013004E084
:100A00000123013999430800013030BD002DD7D1B1
:100A10008B42CED18242E7DD0221581E08400138C8
:100A2000F3E7C046F0B54E4657464546DE46E0B5CC
:100A300043025B0A450083B00F1C99462D0EC60F7A
:100A4000002D57D0FF2D24D08020DB00C004184398
:100A5000002381469A469B467F3D7C027A00FB0F2D
:100A6000640A120E984623D0FF2A4BD0E30080245C
:100A70000020E4047F3A1C43AD186B1C47460193E9
:100A8000534677403A000F2B48D87D499B00CB58FE
:100A90009F46002B00D085E008339A46063B9B46D4
:100AA0007C027A00FB0FFF25640A120E9846DBD108
:100AB000002C00D090E0524601231A4392460120B8
:100AC000DBE74C4658461700022824D0032800D103
:100AD000CFE00022002301284DD15802D205400A60
:100AE000FF071043384303B03CBC90469946A246EA
:100AF000AB46F0BD002B5BD104239A46033B002597
:100B00009B46AAE7FF35002C60D1524602231A43C8
:100B100092460220B1E7FF220023DEE74B461B0C82
:100B20009C464B462604360C180461463300220CC2
:100B30006446000C43434E435043544380191A0CFF
:100B40001218964203D9802149028C4664441B0442
:100B50001B0C1004C01883015E1EB341800E1843A5
:100B6000130C1B199B0103431C00230179D501239E
:100B700062081C401443019A7F32002A4DDD63074E
:100B800004D00F232340042B00D00434230103D5C9
:100B90003C4B019A1C408032FE2ABCDCA3015B0A5C
:100BA000D2B29AE70C239A46093BFF259B4654E7AD
:100BB000180000F069FF4A46431F76259A4000233B
:100BC0006D4291462D1A9A469B4646E752460323AC
:100BD0001A439246032050E7200000F055FF431FC0
:100BE0002D1A9C40763D002047E780230027DB0339
:100BF000FF2272E7424666E74C463200584662E7FB
:100C000080234A46DB031A4222D01C4220D12343D0
:100C10005B025B0A4746FF225FE701239A1A1B2A01
:100C200021DC23000199D3409E318C401A0023001F
:100C30005C1EA34113435A0704D00F221A40042A12
:100C400000D004335A0111D49B015B0A002244E70F
:100C500080234A46DB0313435B025B0A3700FF2213
:100C60003BE7019587E70022002336E701220023B6
:100C700033E78023DB0323435B025B0AFF222CE77D
:100C8000FC3A0008FFFFFFF7F8B54746CE464400A0
:100C9000C20F80B547024802400A844666464800B3
:100CA0007F0A240EF60025009046FB00000EC90FB7
:100CB000B146FF2800D185E001267140261A9142F5
:100CC00057D0002E43DD002800D07FE049460029A0
:100CD00000D1AAE0013E002E00D0F7E05B1A5A01D5
:100CE00000D48BE09B019C09200000F0CDFE05386C
:100CF0008440854200DDD3E0451B230020200135E0
:100D0000EB40451BAC40621E944123430724002561
:100D10001C40012241460A40002C04D00F211940FA
:100D2000042900D00433590100D480E00135ECB22D
:100D3000FF2D00D0A3E0FF2400235B02E405580A46
:100D4000D207204310430CBC90469946F8BD002EB4
:100D500074D1601CC0B2012800DCA7E04A469C1A8E
:100D6000620100D5B6E0002CBED100220024002391
:100D7000E3E7002E00DC85E0002846D0FF2C49D0B8
:100D800080224846D2041043814601221B2E09DCF2
:100D900020204C46801B84404A462000F240441EDE
:100DA000A04102439B185A0128D50135FF2D00D1DF
:100DB000A8E00122072494491A405B080B40134322
:100DC0001C40A6E7002E00D078E775E7FF2C54D032
:100DD00080224946D2041143894601221B2E09DC98
:100DE00020214846891B88404A460100F240481E9F
:100DF00081410A439B1A5A0100D573E701224146FB
:100E00000A40590700D089E711E04846002858D128
:100E1000FF2C0CD1DB08002B00D18CE78020C00315
:100E200003435B025B0AFF2487E7FF2C25D0DB0826
:100E3000FF2DF0D05B025B0AECB27EE7002C4DD0B8
:100E4000FF2818D08024E404724223431B2A00DDCB
:100E5000C4E01C002025D440AA1A93405A1E934196
:100E600023434A460500D31A884638E7721CF8D057
:100E7000F243FF28EAD10A004B46FF25D7E79B0142
:100E80005B0A5AE7002E41D1651CE9B2012945DD14
:100E9000FF2D00D14FE707244B445B081C4038E787
:100EA00007225A4B2D1A2340144032E7002C1DD143
:100EB000002B7AD14B46002B00D191E00A0000258F
:100EC000B5E7013E002E19D14B446CE7FF2C84D1CD
:100ED000FF25ACE74A468846D41A05E7002BC5D162
:100EE0000A00FF28C8D005004B46A0E7002B49D1D7
:100EF0004B46002B77D00A00FF2598E7FF2C00D047
:100F000043E787E70A00FF24002316E7002C15D1EA
:100F1000002B57D1FF28E6D14B467BE7002C20D190
:100F2000002B57D04946002953D04B445A0168D56D
:100F30000724364A1C4001251340EAE6FF28EBD07F
:100F40008022D204764213431B2E53DC2025AD1B96
:100F50001A00AB40F2405C1EA34113434B44050012
:100F600021E7002BD8D04946002900D152E7802143
:100F7000C9030F4200D14DE76046084200D049E75F
:100F80004B4647E74846FF25002800D14FE780221F
:100F9000D203174204D06046104201D14B46884626
:100FA00001224146FF250A4041E7484600281FD05C
:100FB0001A1A500120D54A460724D31A1C408846E5
:100FC0000025A6E6741CC9D0F643FF28BCD14B46C9
:100FD00020E799464B460025DB082BE7012340E735
:100FE00000220023A9E680230022DB03FF24A4E6DD
:100FF00000251CE70123B1E7002AF1D013000025EA
:10100000FCE60025FAE6C046FFFFFF7DFFFFFFFB81
:1010100041024200C30F490A120E00207E2A0DD958
:101020009D2A0CD8802000040143952A0ADC9620D2
:10103000821AD1404842002B00D108007047034A71
:101040009818FBE7963A9140F4E7C046FFFFFF7F10
:1010500070B500283DD0C317C5185D40C40F2800E7
:1010600000F012FD9E22121A962A07DCD2B208283E
:1010700033DD083885406802400A23E0992A0BDDF9
:10108000052329001B1AD94003001B339D402B0068
:101090005D1EAB4119430D00052801DD431F9D4036
:1010A0002B000F490B406E0709D00F263540042D49
:1010B00005D004335D0102D59F220B40121A9B011B
:1010C000580AD2B24002D205400AE4071043204336
:1010D00070BD002400220020F4E76802400AF1E716
:1010E000FFFFFFFB70B5041E34D000F0CDFC9E2244
:1010F000121A962A07DCD2B208282EDD083884405E
:101100006002400A21E0992A09DD030021001B3317
:1011100099404B1E994105231B1ADC400C430528BE
:1011200001DD431F9C4023000D490B40650709D09A
:101130000F252C40042C05D004335C0102D59F22DE
:101140000B40121A9B01580AD2B24002D205400A43
:10115000104370BD00220020F7E76002400AF4E768
:10116000FFFFFFFBF0B55746DE464E464546E0B56D
:10117000834607000E03480085B092461C00360BDC
:10118000400DCD0F002800D19DE0954B984239D0FD
:101190008023F6001B041E43924A7B0F334399467B
:1011A000944603006344009300230026FF0002934B
:1011B00023031B0B98466300E40F52465B0D01941A
:1011C00000D1B3E086498B4200D19EE04246D10077
:1011D000802212040A435146490F11438B4681492C
:1011E00052468C4600996344CB1A0021D2000093EA
:1011F0002B0063409A460F2E00D905E17A4BB600CA
:101200009B599F465B463343994600D0B8E0022382
:101210000826002700900293CAE7CB463A000299BD
:101220000195019B9A46022927D0032900D180E22B
:10123000012944D06D49009B8C4663441C00002C5E
:1012400038DD530700D013E2D2085B46DB0109D535
:101250005946674B19408B468021C9008C46009B3C
:1012600063441C00634B9C4207DC5B4664055F07DC
:101270005B0217431B0B620D02E000230027584A54
:1012800000211B031C0B0B0D1B05234314055A4A9D
:10129000380013401C4353466400DB0764081C43BA
:1012A000210005B03CBC90469946A246AB46F0BD35
:1012B0000122524201231B1B382B00DCADE100222E
:1012C00000230027DCE75B46334399465ED0002EBF
:1012D00000D18AE1300000F0D7FB03000B3B1C2B50
:1012E00000DD7BE11D22D31A5A460100DA4008399D
:1012F0008E4013005F46334399468F403F4B002694
:101300001B1A00930023029352E7414653460B43B6
:101310003B499B468C46009B634400935B46002BF5
:101320003BD1022300221E43022161E743461343BF
:101330009B4637D04346002B00D162E1404600F087
:10134000A3FB03000B3B1C2B00DD53E102004146D5
:10135000083A914088461D21CB1A5146D9400B00CE
:1013600041460B439B46534693401A00009B254938
:101370009C46604403008C4663440093002137E799
:101380000323B14600900C26029311E7002300933B
:1013900001330426002702930AE70323C3461E43B2
:1013A000032125E701331E430022012120E700230A
:1013B0009A46802300271B03094A61E78023494698
:1013C0001B03194200D1E2E05946194200D0DEE089
:1013D0000B431B0317001B0BA246014A50E7C046F4
:1013E000FF07000001FCFFFF3C3B0008FF0300007B
:1013F000FFFFFFFEFE070000FFFF0F800DFCFFFF59
:1014000001F8FFFFF3030000D94500D9CBE000D17C
:10141000C6E03C0048460027009B013B00935B462A
:10142000160E1B021E431302984633041B0C9946EA
:10143000310C0191FEF7EEFE4A4642430B04210CAB
:10144000050019438A4207D98919013D8E4203D804
:101450008A4201D9851E8919881A0199FEF7DAFE98
:1014600009048C464A46210464464243090C0300A1
:1014700021438A4204D98919013B8E4200D8F1E008
:101480002D041D43AB464346891A4246280C1204DC
:101490001D0C5B46140C22001B041B0C5A430394C6
:1014A0006B434443029568431B19150CEB189C428F
:1014B00003D980246402A44660441C0C15041B0458
:1014C0002D0C20185D19814277D373D00C1AA24AD3
:1014D0007D1BAF42BF419446009B7F426344E01BAB
:1014E0001C00864200D1DBE00199FEF793FE4A46DC
:1014F00042430B04290C070019438A4207D9891972
:10150000013F8E4203D88A4201D9871E8919881A61
:101510000199FEF77FFE09044A46894629044D4693
:101520004243090C030029438A4207D98919013B28
:101530008E4203D88A4201D9831E89193F04891A31
:101540003A00039F1A43380013041B0C584381468A
:101550000298150C6F43434345434846000C8446AC
:10156000DB1963449F4203D98020400284466544CE
:1015700048461F0C00041B04000C7D191818A942D2
:1015800000D284E000D17FE001231A4357E6802394
:101590004A461B0313431B031B0BAA466F4A6FE605
:1015A000BA4200D935E74B46DC0758087B081C4394
:1015B000FF0734E70024AF4289D247444745A4419E
:1015C0005B466442A4196418013BA6421ED2A042A5
:1015D0006DD800D1B6E0241A9B4678E703005A463E
:1015E000283B9A400027914688E6584600F04CFA7E
:1015F000203072E603005246283B9A409346002270
:10160000B4E6504600F040FA20309AE6A642E2D115
:10161000B845DCD9341A9B4659E71F2B65DC504C82
:101620000099A4465C46614408008C401100824049
:10163000D940501E82410C4314435A46DA401300ED
:10164000620709D00F222240042A05D02200141D6F
:101650009442894149425B181A0262D50122002353
:1016600000270DE68A4200D80AE7831E891907E79A
:101670000F231340042B00D1E6E5171D974292413A
:1016800053429B44FA08E0E5002800D1D7E57118E1
:10169000531EB14227D3A94215D358D01A0073E77D
:1016A000002B00DC04E6012300229B44CDE502234D
:1016B0004744474589415B429C46494289190C1978
:1016C000E344241A03E743465F0047459B41B8467D
:1016D0005B429E19023A8919A94200D054E740455D
:1016E00000D051E7ABE51A00F6E71F215F464942FB
:1016F0000C1BE740202B07D01A49009B8C46634403
:1017000018005B4683401A43501E82413A43072724
:101710000023174009D00F21002311401400042991
:1017200095D122005F075B021B0BD20817430022F2
:10173000A6E5802359461B030B431B0317001B0B15
:10174000064A9DE5BD42B2D89B460024BFE68045CF
:10175000B9D31A00C3E7C046FF030000FF0700002B
:101760001E0400003E040000F0B54F464646D64633
:101770008446C0B58046194E18030F034D00000B78
:101780005C0082463F0B6D0DC90F9146640DDB0F67
:101790000120B5420AD0B44203D0A54201D1574539
:1017A0000CD01CBC90469946A246F0BD66463E430E
:1017B000F7D1AC42F5D154461443F2D10120C845CB
:1017C000EFD1994207D0002DEBD163461F4338007B
:1017D000471EB841E5E70020E3E7C046FF070000E9
:1017E000F0B54F464646D6464D00C0B50E03C90F6C
:1017F0008A462C491F035C008046360B6D0D9146CE
:101800003F0B640DDB0F8D421ED08C4216D0002D95
:101810001ED130438446002C01D13A4323D0624686
:10182000002A1AD09A4529D0514602200139084091
:1018300001381CBC90469946A246F0BD39001143C0
:10184000E5D002204042F4E73043FAD1AC420FD059
:10185000002C0FD13A43E7D00CE00122013B934327
:1018600018000130E5E763460020002BE1D0DBE7FC
:101870003A43E6D19A45D7D1A542D5DCA54205DB4E
:10188000BE42D1D808D00020BE42D2D25046012359
:10189000013898430130CCE7C845C5D80020C84579
:1018A000F4D3C6E7FF070000F0B54F464646D646DC
:1018B0004D00C0B50E03C90F8A462E491F035C00B8
:1018C0008046360B6D0D91463F0B640DDB0F8D424C
:1018D00018D08C4211D0002D18D130438446002CF2
:1018E0001ED13A431CD163460020002B30D0514614
:1018F00002200139084001382AE039001143EAD0BA
:10190000022025E03043FBD1AC4226D0002C26D16A
:101910003A4324D15146022001390840013817E0EA
:101920006246002A0FD09A45E1D1A54205DBBE42AE
:10193000DDD819D00020BE420AD25046012301381A
:101940009843013004E00122013B93431800013029
:101950001CBC90469946A246F0BD3A43D0D19A4568
:10196000C5D1A542C3DCE0E7C845C0D80020C845C2
:10197000E3D3EDE7FF07000030B5144D0A034B0039
:10198000120B5B0DC90F0024AB4211DD104CA342BA
:1019900010DC8024640322430E4CE41A1F2C0CDD5F
:1019A0000D48C31ADA4013005C42002900D11C0024
:1019B000200030BD094BCC18FAE7094DE040AC4699
:1019C00063449A4013000343EEE7C046FE03000061
:1019D0001D0400003304000013040000FFFFFF7F1C
:1019E000EDFBFFFF4100090E4B1C70B5DBB2460258
:1019F000750AC40F012B14DDE0239B006D07360B25
:101A0000CB1800210A0D280012051C4D32435B053E
:101A10002A405B0813435B00E4075B08234319007B
:101A200070BD002914D1002D1ED0280000F02CF824
:101A30000A281CDC0B232A001B1ADA40030015338A
:101A40009D400F4B12031B1A5B05160B5B0DD8E76D
:101A5000002D06D0320B802636036D071643094B46
:101A6000CFE7084B0026CCE700230026C9E7030098
:101A70002A000B3B9A400025E3E7C046FFFF0F809A
:101A800089030000FF0700001C2101231B0498426A
:101A900001D3000C10391B0A984201D3000A0839FF
:101AA0001B09984201D30009043902A2105C4018B6
:101AB0007047C0460403020201010101000000005A
:101AC0000000000080B500AF074B1A68064B1021DC
:101AD0000A431A60002000F009F801F047FE0023D5
:101AE0001800BD4680BDC0460020024080B582B0CF
:101AF00000AF786001F080F90200FA23990010002D
:101B0000FEF702FB0300180000F0C9F87968012312
:101B10005B420022180000F0ADF800231800BD461B
:101B200002B080BD80B500AF034B1B685A1C024B4E
:101B30001A60C046BD4680BD5800002080B500AF89
:101B4000024B1B681800BD4680BDC04658000020EF
:101B500090B583B000AF02003960FB1D1A70FB1D09
:101B60001B787F2B32D92F4AFB1D1B7819000F23BE
:101B70000B40083B9B0806339B00D31804331B68BB
:101B8000FA1D1278110003220A40D200FF21914071
:101B90000A00D2431A4011003B689B01FF221A4001
:101BA000FB1D1B78180003230340DB009A401D48EF
:101BB000FB1D1B781C000F232340083B9B080A4396
:101BC00006339B00C31804331A6027E0164AFB1D36
:101BD0001B785BB29B08C0339B009B58FA1D1278A0
:101BE000110003220A40D200FF2191400A00D24393
:101BF0001A4011003B689B01FF221A40FB1D1B7815
:101C0000180003230340DB009A400748FB1D1B78A4
:101C10005BB29B080A43C0339B001A50C046BD46C6
:101C200003B090BD00ED00E000E100E080B582B0BF
:101C300000AF78607B68013B0C4A934201D90123D5
:101C400010E00B4B7A68013A5A6001235B42032192
:101C50001800FFF77DFF064B00229A60044B072215
:101C60001A6000231800BD4602B080BDFFFFFF00D0
:101C700010E000E080B584B000AFB9607A600F2159
:101C80007B18021C1A70BA687B181B785BB21100B3
:101C90001800FFF75DFFC046BD4604B080BD80B5AB
:101CA00082B000AF78607B681800FFF7BFFF0300C9
:101CB0001800BD4602B080BD80B582B000AF78602C
:101CC0007B68002B01D1012315E07B681B79DBB217
:101CD000002B06D17B6800225A717B68180001F046
:101CE00069FD7B6802221A717B6800221A617B6899
:101CF00001221A7100231800BD4602B080BD80B5D4
:101D000086B000AFF860B9607A603B6000237B6109
:101D1000FB681B687B61BB68002B05D17A697B6817
:101D2000D31808337B6104E07A697B68D3181433D5
:101D30007B617B693A681A6000231800BD4606B0D3
:101D400080BD000080B586B000AFF860B9607A60F1
:101D500000237B6100233B61FB685B79012B01D190
:101D6000022329E0FB6801225A71FB6802221A71E2
:101D7000FB681B681B687B61114A7B689A401300F3
:101D8000DA437B6913407B61BB681A68BB685B6898
:101D900013433B613A697B689A4013007A691343A5
:101DA0007B61FB681B687A691A60FB6801221A7103
:101DB000FB6800225A7100231800BD4606B080BDA2
:101DC000FE0F000080B582B000AF786039607B689C
:101DD0005B79012B01D102233BE07B6801225A7120
:101DE0007B6802221A717B681B68196801223B68B4
:101DF0009A407B681B680A431A603B68002B0FD12E
:101E00007B681B681B683C2213403C2B1AD17B6803
:101E10001B685A687B681B6801210A435A6011E0FD
:101E20007B681B681A68F0239B031A40F0239B030E
:101E30009A4207D17B681B685A687B681B6802213D
:101E40000A435A607B6801221A717B6800225A712A
:101E500000231800BD4602B080BD000080B586B0EA
:101E600000AF7860396000237B610023FB600023B2
:101E70003B6155E13B681B6801217A6991400A008A
:101E80001340FB60FB68002B00D146E13B685B68B8
:101E9000022B03D03B685B68122B23D17B69DA08E5
:101EA0007B6808329200D3583B617B69072213405C
:101EB0009B000F229A401300DA433B6913403B61B9
:101EC0003B681A697B6907210B409B009A4013000D
:101ED0003A6913433B617B69DA087B6808329200F8
:101EE0003969D1507B681B683B617B695B000322C9
:101EF0009A401300DA433B6913403B613B685B68DF
:101F000003221A407B695B009A4013003A6913432D
:101F10003B617B683A691A603B685B68012B0BD0B8
:101F20003B685B68022B07D03B685B68112B03D0D2
:101F30003B685B68122B30D17B689B683B617B6997
:101F40005B0003229A401300DA433B6913403B6174
:101F50003B68DA687B695B009A4013003A69134377
:101F60003B617B683A699A607B685B683B610122F0
:101F70007B699A401300DA433B6913403B613B683D
:101F80005B681B0901221A407B699A4013003A6979
:101F900013433B617B683A695A607B68DB683B614D
:101FA0007B695B0003229A401300DA433B691340CC
:101FB0003B613B689A687B695B009A4013003A6911
:101FC00013433B617B683A69DA603B685A68802357
:101FD0005B05134000D1A0E0574B9A69564B012195
:101FE0000A439A61544B9B6901221340BB60BB6852
:101FF000524A7B699B0802339B009B583B617B697B
:10200000032213409B000F229A401300DA433B69DE
:1020100013403B617A689023DB059A4219D07B68B4
:10202000474A934213D07B68464A93420DD07B685F
:10203000454A934207D07B68444A934201D1042326
:1020400008E0052306E0032304E0022302E0012365
:1020500000E000237A6903210A40920093403A6924
:1020600013433B6135497B699B0802339B003A6906
:102070005A50374B1B683B61FB68DA433B6913409E
:102080003B613B685A6880235B02134003D03A6986
:10209000FB6813433B612E4B3A691A602C4B5B681B
:1020A0003B61FB68DA433B6913403B613B685A681C
:1020B00080239B02134003D03A69FB6813433B61C2
:1020C000234B3A695A60224B9B683B61FB68DA43B9
:1020D0003B6913403B613B685A6880235B031340B4
:1020E00003D03A69FB6813433B61194B3A699A6024
:1020F000174BDB683B61FB68DA433B6913403B618C
:102100003B685A6880239B03134003D03A69FB68FD
:1021100013433B610E4B3A69DA607B6901337B61A3
:102120003B681A687B69DA40131E00D0A2E6C046FD
:10213000BD4606B080BDC046001002400000014010
:102140000004004800080048000C00480010004847
:102150000004014080B584B000AF78600A00BB1C69
:102160001A807B681B69BA1C1288134004D00F23A5
:10217000FB1801221A7003E00F23FB1800221A70CB
:102180000F23FB181B781800BD4604B080BD80B536
:1021900082B000AF786008001100BB1C021C1A80DE
:1021A0007B1C0A1C1A707B1C1B78002B04D0BB1CE8
:1021B0001A887B689A6103E0BB1C1A887B689A6264
:1021C000C046BD4602B080BD80B582B000AF786029
:1021D0007B68002B01D1012382E07B6841229B5C5C
:1021E000DBB2002B07D17B684022002199547B6829
:1021F000180001F025FB7B684122242199547B685B
:102200001B681A687B681B6801218A431A607B6817
:102210005A687B681B6834490A401A617B681B68EE
:102220009A687B681B6831490A409A607B68DB6862
:10223000012B08D17B689A687B681B6880210902A2
:102240000A439A6007E07B689A687B681B68842170
:1022500009020A439A607B68DB68022B04D17B6821
:102260001B68802212015A607B681B685A687B6871
:102270001B681F490A435A607B681B68DA687B68E1
:102280001B681A490A40DA607B681A697B685B69D7
:102290001A4311007B689B691A027B681B680A431A
:1022A000DA607B68D9697B681A6A7B681B680A43B5
:1022B0001A607B681B681A687B681B6801210A43E7
:1022C0001A607B6800225A647B684122202199545D
:1022D0007B6800221A637B68422200219954002304
:1022E0001800BD4602B080BDFFFFFFF0FF7FFFFF7B
:1022F0000080000280B582B000AF786039607B68F2
:1023000041229B5CDBB2202B38D17B6840229B5C56
:10231000012B01D1022332E07B6840220121995434
:102320007B684122242199547B681B681A687B686A
:102330001B6801218A431A607B681B681A687B68E6
:102340001B6811490A401A607B681B6819687B6822
:102350001B683A680A431A607B681B681A687B68C6
:102360001B6801210A431A607B684122202199548D
:102370007B68402200219954002300E002231800CA
:10238000BD4602B080BDC046FFEFFFFF80B584B000
:1023900000AF786039600023FB607B6841229B5C62
:1023A000DBB2202B39D17B6840229B5C012B01D111
:1023B000022333E07B684022012199547B6841224B
:1023C000242199547B681B681A687B681B6801216B
:1023D0008A431A607B681B681B68FB60FB68114AB4
:1023E0001340FB603B681B02FA681343FB607B6889
:1023F0001B68FA681A607B681B681A687B681B6830
:1024000001210A431A607B684122202199547B688C
:10241000402200219954002300E002231800BD4609
:1024200004B080BDFFF0FFFF80B586B000AF7860DC
:1024300000233B617B681B680122134000D18DE0C3
:10244000C54B5B680C221340042B0ED0C24B5B685B
:102450000C221340082B16D1BF4B5A68C0235B02D5
:102460001A4080235B029A420DD1BB4B1A6880232D
:102470009B02134000D170E07B685B68002B00D0AA
:102480006BE0012329E37B685B68012B07D1B24B2A
:102490001A68B14B802149020A431A602FE07B6819
:1024A0005B68002B0CD1AC4B1A68AB4BAB490A40B4
:1024B0001A60A94B1A68A84BA9490A401A601EE085
:1024C0007B685B68052B0ED1A34B1A68A24B802159
:1024D000C9020A431A60A04B1A689F4B8021490227
:1024E0000A431A600BE09C4B1A689B4B9B490A40BD
:1024F0001A60994B1A68984B99490A401A607B6890
:102500005B68002B14D0FFF719FB03003B6108E068
:10251000FFF714FB02003B69D31A642B01D9032394
:10252000DBE28D4B1A6880239B021340F0D015E04C
:10253000FFF704FB03003B6108E0FFF7FFFA02002E
:102540003B69D31A642B01D90323C6E2824B1A6874
:1025500080239B021340F0D100E0C0467B681B68DB
:102560000222134000D16CE07B4B5B680C221340CD
:102570000ED0794B5B680C221340082B1FD1764B91
:102580005A68C0235B021A4080231B029A4216D16C
:10259000714B1B680222134005D07B68DB68012B5E
:1025A00001D0012399E26C4B1B68F8229343190078
:1025B0007B681B69DA00684B0A431A6041E07B685C
:1025C000DB68002B24D0644B1A68634B01210A435B
:1025D0001A60FFF7B3FA03003B6108E0FFF7AEFAB9
:1025E00002003B69D31A022B01D9032375E25A4B2F
:1025F0001B6802221340F1D0574B1B68F82293430B
:1026000019007B681B69DA00534B0A431A6018E013
:10261000514B1A68504B01218A431A60FFF78EFA1A
:1026200003003B6108E0FFF789FA02003B69D31A17
:10263000022B01D9032350E2474B1B6802221340AF
:10264000F1D17B681B680822134036D07B68DB69B8
:10265000002B19D0404B5A6A3F4B01210A435A6262
:10266000FFF76CFA03003B6108E0FFF767FA02002E
:102670003B69D31A022B01D903232EE2364B5B6A46
:1026800002221340F1D018E0334B5A6A324B012139
:102690008A435A62FFF752FA03003B6108E0FFF7F2
:1026A0004DFA02003B69D31A022B01D9032314E22D
:1026B000294B5B6A02221340F1D17B681B6804221C
:1026C000134000D1B6E01723FB1800221A70224BEA
:1026D000DA6980235B05134011D11F4BDA691E4B69
:1026E000802149050A43DA611B4BDA6980235B05C7
:1026F0001340FB60FB681723FB1801221A70194B6B
:102700001A6880235B0013401AD1164B1A68154BC8
:10271000802149000A431A60FFF710FA03003B6169
:1027200008E0FFF70BFA02003B69D31A642B01D9CA
:102730000323D2E10B4B1A6880235B001340F0D0D7
:102740007B689B68012B0FD1034B1A6A024B012156
:102750000A431A6236E0C04600100240FFFFFEFF47
:10276000FFFFFBFF007000407B689B68002B0CD1D3
:10277000CA4B1A6AC94B01218A431A62C74B1A6AAB
:10278000C64B04218A431A621CE07B689B68052BB8
:102790000CD1C24B1A6AC14B04210A431A62BF4BC7
:1027A0001A6ABE4B01210A431A620BE0BB4B1A6A3C
:1027B000BA4B01218A431A62B84B1A6AB74B0421FB
:1027C0008A431A627B689B68002B14D0FFF7B6F926
:1027D00003003B6109E0FFF7B1F902003B69D31A3E
:1027E000AF4A934201D9032377E1AC4B1B6A022223
:1027F0001340F0D013E0FFF7A1F903003B6109E0BB
:10280000FFF79CF902003B69D31AA54A934201D90C
:10281000032362E1A14B1B6A02221340F0D117236C
:10282000FB181B78012B05D19C4BDA699B4B9D490A
:102830000A40DA617B681B681022134063D07B6812
:102840005B69012B2AD1954B5A6B944B04210A43A7
:102850005A63924B5A6B914B01210A435A63FFF71B
:102860006DF903003B6108E0FFF768F902003B697E
:10287000D31A022B01D903232FE1884B5B6B022271
:102880001340F1D0854B5B6BF822934319007B68B2
:102890009B69DA00814B0A435A6334E07B685B69C9
:1028A000053311D17D4B5A6B7C4B04218A435A630B
:1028B0007A4B5B6BF822934319007B689B69DA00C3
:1028C000764B0A435A631EE0744B5A6B734B0421D8
:1028D0000A435A63714B5A6B704B01218A435A6306
:1028E000FFF72CF903003B6108E0FFF727F902002E
:1028F0003B69D31A022B01D90323EEE0674B5B6BD4
:1029000002221340F1D17B681B68202213405CD067
:10291000624B5B680C2213400C2B0ED05F4B5B6844
:102920000C221340082B14D15C4B5A68C0235B0265
:102930001A40C0235B029A420BD1584B5A6B80233A
:102940005B02134040D07B681B6A012B3CD0012303
:10295000C3E07B681B6A002B1BD0504B5A6B4F4B5C
:10296000802149020A435A63FFF7E8F803003B61FC
:1029700008E0FFF7E3F802003B69D31A022B01D904
:102980000323AAE0454B5A6B80235B021340F0D02F
:102990001BE0424B5A6B414B43490A405A63FFF7D5
:1029A000CDF803003B6108E0FFF7C8F802003B697F
:1029B000D31A022B01D903238FE0384B5A6B8023A3
:1029C0005B021340F0D100E0C0467B685B6A002BDD
:1029D00000D181E0314B5B680C221340082B00D101
:1029E00078E07B685B6A022B4CD12C4B1A682B4B2E
:1029F0002E490A401A60FFF7A1F803003B6108E086
:102A0000FFF79CF802003B69D31A022B01D903237C
:102A100063E0224B1A6880239B041340F0D11F4BC4
:102A2000DB6A0F22934319007B681A6B1B4B0A4326
:102A3000DA621A4B5B681E4A134019007B68DA6A37
:102A40007B689B6A1A43154B0A435A60134B1A68FA
:102A5000124B802149040A431A60FFF76FF8030004
:102A60003B6108E0FFF76AF802003B69D31A022BCA
:102A700001D9032331E0094B1A6880239B041340DA
:102A8000F0D029E0054B1A68044B08490A401A6047
:102A9000FFF754F803003B6115E0C0460010024008
:102AA00088130000FFFFFFEFFFFFFEFFFFFFFFFEA9
:102AB000FF7FC2FFFFF742F802003B69D31A022BE7
:102AC00001D9032309E0074B1A6880239B041340B4
:102AD000F0D101E0012300E000231800BD4606B05C
:102AE00080BDC0460010024080B584B000AF786061
:102AF00039600023FB607B4B1B68012213403A685E
:102B00009A4211D9774B1B68012293431900754BE8
:102B10003A680A431A60734B1B68012213403A68F3
:102B20009A4201D00123D8E07B681B68022213403F
:102B300009D06D4B5B68F022934319007B689A685B
:102B4000694B0A435A607B681B680122134000D11D
:102B500089E07B685B68012B07D1634B1A6880238F
:102B60009B02134020D10123B7E07B685B68022BF6
:102B700007D15D4B1A6880239B04134014D10123B5
:102B8000ABE07B685B68032B07D1574B5A6B802304
:102B90005B02134008D101239FE0534B1B680222C4
:102BA000134001D1012398E04F4B5B68032293430C
:102BB00019007B685A684C4B0A435A60FEF7BEFF07
:102BC0000300FB607B685B68012B11D109E0FEF715
:102BD000B5FF0200FB68D31A444A934201D903238C
:102BE0007BE0414B5B680C221340042BEFD13AE0B1
:102BF0007B685B68022B11D109E0FEF79FFF0200A2
:102C0000FB68D31A394A934201D9032365E0364B56
:102C10005B680C221340082BEFD124E07B685B68D3
:102C2000032B1BD109E0FEF789FF0200FB68D31AD2
:102C30002E4A934201D903234FE02B4B5B680C22B1
:102C400013400C2BEFD10EE0FEF778FF0200FB687B
:102C5000D31A264A934201D903233EE0224B5B68F4
:102C60000C221340F0D11F4B1B68012213403A681D
:102C70009A4211D21B4B1B68012293431900194B36
:102C80003A680A431A60174B1B68012213403A68DE
:102C90009A4201D0012320E07B681B680422134084
:102CA00009D0114B5B68124A134019007B68DA683F
:102CB0000D4B0A435A6000F021F801000A4B5B6893
:102CC0001B090F2213400B4AD35C0A00DA400A4B5F
:102CD0001A600020FEF70AFF00231800BD4604B06A
:102CE00080BDC04600200240001002408813000052
:102CF000FFF8FFFFAC3B00083000002090B58FB01C
:102D000000AF1423FB18374A13CA13C312681A60A2
:102D10003B1D354A13CA13C312681A600023FB62B5
:102D20000023BB6200237B6300237B6200233B63A1
:102D30002E4B5B68FB62FB6A0C221340082B06D00B
:102D40000C2B43D0042B44D1294B3B6344E0FB6A5A
:102D50009B0C0F2213401422BA18D35C7B62234BC6
:102D6000DB6A0F2213403A1DD35CBB62FA6AC023B0
:102D70005B021A4080235B029A4209D1B96A1C485F
:102D8000FDF7C2F903001A007B6A53437B631AE024
:102D9000FA6AC0235B021A40C0235B029A4209D13F
:102DA000B96A1448FDF7B0F903001A007B6A53436F
:102DB0007B6308E0B96A0E48FDF7A6F903001A0024
:102DC0007B6A53437B637B6B3B6305E0094B3B634F
:102DD00002E0074B3B63C0463B6B1800BD460FB09B
:102DE00090BDC0465C3A00086C3A000800100240F2
:102DF00000127A00006CDC0280B500AF024B1B6849
:102E00001800BD4680BDC0463000002080B586B0A9
:102E100000AF786000233B610023FB607B681A6889
:102E200080235B02134000D18FE01723FB180022A0
:102E30001A706F4BDA6980235B05134011D16C4B1C
:102E4000DA696B4B802149050A43DA61684BDA691C
:102E500080235B051340BB60BB681723FB1801226E
:102E60001A70644B1A6880235B0013401AD1614BBF
:102E70001A68604B802149000A431A60FEF75EFE23
:102E800003003B6108E0FEF759FE02003B69D31ADC
:102E9000642B01D90323A6E0564B1A6880235B00FC
:102EA0001340F0D0524B1A6AC0239B001340FB60C2
:102EB000FB68002B34D07B685A68C0239B0013400A
:102EC000FA689A422CD04A4B1B6A4B4A1340FB606B
:102ED000474B1A6A464B802149020A431A62444B07
:102EE0001A6A434B45490A401A62414BFA681A6212
:102EF000FB680122134013D0FEF720FE03003B6164
:102F000009E0FEF71BFE02003B69D31A3C4A9342DC
:102F100001D9032367E0364B1B6A02221340F0D02D
:102F2000334B1B6A344A134019007B685A68304B94
:102F30000A431A621723FB181B78012B05D12C4B6F
:102F4000DA692B4B2F490A40DA617B681B68012242
:102F5000134009D0264B1B6B0322934319007B6857
:102F60009A68234B0A431A637B681B68022213404A
:102F700009D01F4B1B6B244A134019007B68DA6889
:102F80001B4B0A431A637B681B682022134009D03D
:102F9000174B1B6B1022934319007B681A69144B63
:102FA0000A431A637B681A6880239B02134009D086
:102FB0000F4B1B6B8022934319007B689A690C4B63
:102FC0000A431A637B681A688023DB00134009D028
:102FD000074B1B6B4022934319007B685A69044BD3
:102FE0000A431A6300231800BD4606B080BDC046E0
:102FF0000010024000700040FFFCFFFFFFFFFEFFDB
:1030000088130000FFFFFFEFFFFFFCFF90B593B0B8
:1030100000AFFEF757FD00F0BFF900F08FFA00F0A7
:1030200015FA00F04BFACF4B00211800FEF7CAFE4C
:10303000CC4B10211800FEF7C5FE0023FB630023D4
:10304000FB6207E0C84BFA6A52000021D152FB6ACA
:103050000133FB62FB6A0B2BF4DD2A23FB180022F1
:103060001A8007E000F046FB2A217B181A887B189B
:1030700001321A802A23FB181A882C23FF339A4224
:10308000F0D901235B427B6300233B630023BB60D9
:1030900000237B623BE0B44B7A6A5200D35A1A0099
:1030A000BB68D318BB60B04B7A6A5200D35A1C007D
:1030B0007B6ADBB2180000F0F5FA03001A00AA4B95
:1030C0005200D35AE4187B6ADBB2180000F0FEFA13
:1030D00003001A00A44B5200D35AE3181800FDF75E
:1030E000B7FF031CFB60786BFDF7B2FF031C191CD4
:1030F000F868FDF7F9F8031E06D0F868FDF788FFB9
:1031000003007B637B6A3B637B6A01337B627B6A80
:103110000B2BC0DD00237B6400233B647B6B0133FE
:1031200000D1B5E02323FB1800221A708F4B3A6BB5
:103130005200D35E593304DA2323FB18FF221A709E
:1031400009E08A4B3A6B5200D35E772B03DD2323D1
:10315000FB1801221A7003235B42FB6160E03A6BAB
:10316000FB69D318BB61BB69002B02DABB690C3366
:10317000BB61BB690B2B02DDBB690C3BBB617B4BAD
:10318000BA695200D35E1800FDF762FF031C7B6131
:103190002323FB181B787F2B0CD900217869FDF7BE
:1031A000A3F8031E06D072497869FDF76DFD031C74
:1031B0007B6111E02323FB181B785BB2002B0BDD36
:1031C00000217869FDF77CF8031E05D0684978690D
:1031D000FDF7B6F8031C7B61634BBA695200D35A02
:1031E0001800FDF735FF031C7969181CFDF71AFC60
:1031F000031C191C786CFDF7A3F8031C7B645A4B65
:10320000BA695200D35A1800FDF722FF031C191C9B
:10321000386CFDF795F8031C3B64FB690133FB61D7
:10322000FB69032B9BDD3B6C5B005B08181CFEF706
:10323000D9FB504A504BFDF709F8031E04D03B233D
:10324000FB1800221A7029E0396C786CFDF712FA2D
:10325000031CFB634949F86BFDF732F8031E06D0E7
:103260004349F86BFDF76CF8031CFB630BE0444922
:10327000F86BFDF739F8031E05D03D49F86BFDF7F3
:1032800003FD031CFB633B23FB1801221A7005E0BE
:103290000023FB633B23FB1800221A70394B3B6170
:1032A0003B23FB181B78002B06D1FE2189053869CA
:1032B000FDF700F8031E20D03149F86BFDF740F808
:1032C000031C3149181CFDF7ADFB031C3969181CA0
:1032D000FDF7A8FB031C181CFEF784FB00222B4BF8
:1032E000FDF740FF03000C0018002100FEF744FB2F
:1032F00003009AB2BB1D1A8002E0BB1D244A1A804B
:10330000BB1D1B889BB2174800220021FEF7F7FC6B
:10331000BB681800FDF7E6FE031C1E49181CFDF7EC
:10332000A9F9031C1849181CFDF77CFB031C181C89
:10333000FCF7EEFF03009AB23B1D1A803B1D1B8871
:103340009BB2134A934202D93B1D114A1A803B1D7E
:103350001B889BB2034800221021FEF7D0FC00F02E
:1033600059F96CE6C0000020A8000020943B00083A
:103370000000B4437B14AE47E17A843F000034C3BD
:10338000000034436666663F00F07F45008076406B
:10339000FF0F00000000614590B599B000AF2C24EC
:1033A0003B19180034231A00002100F043FB1C23B2
:1033B000FB18180010231A00002100F03BFB3B0013
:1033C00018001C231A00002100F034FB21007B1898
:1033D00022221A607B180122DA607B1801221A620D
:1033E0007B1810221A617B1800225A627B18180081
:1033F000FFF71AF8031E01D000F0B2F91C217B1868
:1034000007221A607B1803225A607B1800229A60F8
:103410007B180022DA607B1801211800FFF764FB9B
:10342000031E01D000F09CF93B0020221A603B00F3
:1034300000221A613B001800FFF7E8FC031E01D0D0
:1034400000F08EF9C046BD4619B090BD80B582B07F
:1034500000AF3B00180008231A00002100F0EAFA30
:10346000144B154A1A60134B1800FEF725FC031E77
:1034700001D000F075F93B0000221A603B000022E9
:103480005A6039000B4B00221800FEF75BFC031E4C
:1034900001D000F065F93900064B10221800FEF744
:1034A00051FC031E01D000F05BF9C046BD4602B0DE
:1034B00080BDC046C00000200074004080B500AF51
:1034C0001B4B1C4A1A601A4B1B4A5A60184B0022AD
:1034D0009A60174B0122DA60154B00221A61144BD7
:1034E00000225A61124B00229A61114B0022DA61CC
:1034F0000F4B00221A620E4B1800FEF765FE031EEA
:1035000001D000F02DF90A4B00211800FEF7F2FE61
:10351000031E01D000F024F9054B00211800FEF72E
:1035200035FF031E01D000F01BF9C046BD4680BD2B
:103530005C000020005400400E09002090B589B0C6
:1035400000AF0C243B19180014231A00002100F0CE
:1035500071FA2D4B5A692C4B802189020A435A611A
:10356000294B5A6980239B021340BB60BB68264BE2
:103570005A69254B8021C9020A435A61224B5A6974
:103580008023DB0213407B607B6880235B011F4844
:1035900000221900FEF7FBFD3B191D4A1A603B197A
:1035A00000225A603B1900229A603A199023DB05E9
:1035B00011001800FEF752FC3B1903221A603B1958
:1035C00000225A603B1900229A603B190F4A1900E9
:1035D0001000FEF743FC21007B18802252011A6084
:1035E0007B1801225A607B1800229A607B18002207
:1035F000DA607B18054A19001000FEF72FFCC04660
:10360000BD4609B090BDC04600100240000400480D
:10361000CF0F000080B500AFFEF790FA02001E4BFE
:103620001B68D21AFA239B009A4206D91B4B1B78BF
:1036300001225340DBB2002B0BD1FEF77FFA0200D0
:10364000154B1B68D31A642B22D9144B1B78002B03
:103650001ED0124B1B7801225340DBB21A0080238C
:103660005B010F481900FEF792FD0C4B1B785A1EA8
:103670009341DBB201225340DBB21A1C01231340F9
:10368000DAB2064B1A70FEF759FA0200024B1A60C2
:10369000C046BD4680BDC0465000002054000020FA
:1036A0000004004880B582B000AF0200FB1D1A7014
:1036B000FB1D1B78002B01D10B2303E0FB1D1B78A6
:1036C000013BDBB21800BD4602B080BD80B582B0C0
:1036D00000AF0200FB1D1A70FB1D1B780B2B01D1E4
:1036E000002303E0FB1D1B780133DBB21800BD464D
:1036F00002B080BD80B582B000AF00237B6021E0C6
:10370000144B7A689200D058134B7A685200D35AFF
:103710001900FEF71FFD031E11D1104B7A685200ED
:10372000D25A2C23FF339A4209D80C4B7A685200A4
:10373000D35A013399B2094B7A685200D1527B684F
:1037400001337B607B680B2BDADDC046BD4602B0DF
:1037500080BDC046000000207C3B0008A80000207F
:1037600080B500AFC046BD4680BD000080B582B0C8
:1037700000AF0F4B9A690E4B01210A439A610C4B23
:103780009B69012213407B607B68094BDA69084B17
:10379000802149050A43DA61054BDA6980235B051C
:1037A00013403B603B68C046BD4602B080BDC0468A
:1037B0000010024080B58AB000AF78601423FB1877
:1037C000180014231A00002100F034F97B681B68EC
:1037D000194A93422CD1194BDA69184B802189057B
:1037E0000A43DA61154BDA6980239B0513403B617C
:1037F0003B69124B5A69114B802189020A435A6175
:103800000E4B5A6980239B021340FB60FB68142116
:103810007B1830221A607B1803225A607B18002222
:103820009A607A189023DB0511001800FEF716FB4A
:10383000C046BD460AB080BD007400400010024082
:1038400080B58AB000AF78601423FB1818001423E9
:103850001A00002100F0EEF87B681B681C4A9342B6
:1038600031D11C4B5A691B4B8021C9020A435A6152
:10387000184B5A698023DB0213403B613B691421DA
:103880007B18C0221A607B1812225A607B18012212
:103890009A607B180322DA607B1801221A617B1878
:1038A0000D4A19001000FEF7D9FA0A4BDA69094BE4
:1038B000802189030A43DA61064BDA6980239B037E
:1038C0001340FB60FB68C046BD460AB080BDC046E1
:1038D00000540040001002400004004880B500AFD2
:1038E000C046BD4680BD80B500AFFEE780B500AFE5
:1038F000C046BD4680BD80B500AFC046BD4680BD58
:1039000080B500AFFEF70EF9C046BD4680BD000091
:1039100080B500AF1A4B1A68194B01210A431A608F
:10392000174B5A68164B17490A405A60144B1A68CD
:10393000134B15490A401A60114B1A68104B134972
:103940000A401A600E4B5A680D4B11490A405A60E2
:103950000B4BDA6A0A4B0F218A43DA62084B1A6B67
:10396000074B0C490A401A63054B5A6B044B012163
:103970008A435A63024B00229A60C046BD4680BD0E
:10398000001002400CB8FF08FFFFF6FEFFFFFBFF30
:10399000FFFFC0FF2CFEFCFF0D4885460D480E4979
:1039A0000E4A002302E0D458C4500433C4188C4299
:1039B000F9D30B4A0B4C002301E013600432A242FE
:1039C000FBD3FFF7A5FF00F011F8FFF71FFBFEE7A1
:1039D000FF3F00200000002034000020C43B00080E
:1039E00034000020D4000020FEE7000070B500265F
:1039F0000C4D0D4C641BA410A64209D1002600F00A
:103A000021F80A4D0A4C641BA410A64205D170BDD2
:103A1000B300EB5898470136EEE7B300EB589847F0
:103A20000136F2E7BC3B0008BC3B0008BC3B000889
:103A3000C03B000803001218934200D17047197070
:103A40000133F9E7F8B5C046F8BC08BC9E4670479C
:0C3A5000F8B5C046F8BC08BC9E467047A4
:103A5C0002030405060708090A0B0C0D0E0F1010C3
:103A6C000102030405060708090A0B0C0D0E0F10C2
:103A7C00F20700082E07000852070008F00600089D
:103A8C0052070008CE07000852070008F00600088D
:103A9C002E0700082E070008CE070008F0060008C5
:103AAC00240800082408000824080008DA07000885
:103ABC002E0700082E07000852070008EE06000823
:103ACC0052070008CE07000852070008EE0600084F
:103ADC002E0700082E070008CE070008EE06000887
:103AEC00240800082408000824080008D807000847
:103AFC001C0B0008C60A0008C60A0008F40B0008D4
:103B0C00C20A0008C20A0008EA0B0008F40B0008FD
:103B1C00C20A0008EA0B0008C20A0008F40B0008ED
:103B2C00F80B0008F80B0008F80B0008000C000854
:103B3C00081400087A120008BE12000822120008AD
:103B4C00BE120008AE130008BE12000822120008B4
:103B5C007A1200087A120008AE130008221200082C
:103B6C001A1200081A1200081A120008BC130008D6
:103B7C000100020004000800400080000100020067
:103B8C0000010002000400086AFF88FFA6FFC4FFC2
:103B9C00E2FF00001E003C005A0078009600B400C2
:103BAC0000000000000000000102030406070809E1
:043BBC00E900000814
:043BC000C100000838
:103BC40000000048000000480000004800000048D1
:103BD40000000048000000480004004800040048B9
:103BE40000000048000000480000004800000048B1
:043BF40000127A0041
:04000005080039991D
:00000001FF
