:020000040800F2
:10000000FF17002089470008B1460008B3460008E2
:1000100000000000000000000000000000000000E0
:10002000000000000000000000000000B5460008CD
:100030000000000000000000B7460008B9460008B4
:10004000094800080948000809480008094800084C
:10005000094800080948000809480008094800083C
:1000600009480008C1460008D146000809480008B0
:10007000E94600080948000809480008094800083E
:1000800009480008000000000000000009480008BE
:10009000000000000948000809480008F946000867
:1000A0000000000009480008094800080948000845
:1000B0000948000800000000194700080948000826
:1000C00010B5064C2378002B07D1054B002B02D02E
:1000D000044800E000BF0123237010BD4000002051
:1000E0000000000018490008044B10B5002B03D095
:1000F0000349044800E000BF10BDC04600000000F6
:10010000440000201849000802B47146490849001B
:10011000095C49008E4402BC7047C04603B4714676
:10012000490840004900095A49008E4403BC704701
:10013000002243088B4274D303098B425FD3030A26
:100140008B4244D3030B8B4228D3030C8B420DD339
:10015000FF22090212BA030C8B4202D312120902C7
:1001600065D0030B8B4219D300E0090AC30B8B4205
:1001700001D3CB03C01A5241830B8B4201D38B03B3
:10018000C01A5241430B8B4201D34B03C01A524158
:10019000030B8B4201D30B03C01A5241C30A8B429B
:1001A00001D3CB02C01A5241830A8B4201D38B0286
:1001B000C01A5241430A8B4201D34B02C01A52412A
:1001C000030A8B4201D30B02C01A5241CDD2C3099C
:1001D0008B4201D3CB01C01A524183098B4201D318
:1001E0008B01C01A524143098B4201D34B01C01A03
:1001F000524103098B4201D30B01C01A5241C3087B
:100200008B4201D3CB00C01A524183088B4201D3E9
:100210008B00C01A524143088B4201D34B00C01AD5
:100220005241411A00D20146524110467047FFE741
:1002300001B5002000F006F802BDC0460029F7D045
:1002400076E770477047C046D0400B00D1409C46CF
:10025000203AD340184352426346934018437047B4
:10026000844608006146FFE71FB500F0D1F9002879
:1002700001D40021C8421FBD10B500F05DF9404215
:10028000013010BD10B500F0C3F9002801DB0020DB
:1002900010BD012010BDC04610B500F0B9F900280E
:1002A00001DD002010BD012010BDC04610B500F0DA
:1002B00069F9002801DC002010BD012010BDC046F6
:1002C00010B500F05FF9002801DA002010BD012010
:1002D00010BDC0469E2110B5C905041CFFF7F0FFF4
:1002E000002803D1201C00F077FB10BD9E21201CAC
:1002F000C90500F0D1F900F06FFB80231B069C4676
:100300006044F2E7F0B54F464646D6464502C0B5D2
:1003100047000C1C6D0A3F0EC60F002F00D16FE086
:10032000FF2F00D174E00023802299469A46ED0009
:10033000D20415437F3F63025B0A984663001B0E9D
:10034000E40F002B4DD0FF2B45D042468021D20038
:10035000C9041143884600227F3B3100FF1A4B46F7
:100360006140C9B20F2B00D9B8E070489B00C35858
:100370009F46002398462600454692465346022B48
:1003800000D18DE0032B00D1A1E0012B18D03B0060
:100390007F33002B6DDD6A0704D00F222A40042A28
:1003A00000D004352A0103D5614B1D403B0080334A
:1003B000FE2B00DD74E0AA01520AD8B202E00E0062
:1003C00000200022C005F60710433043E0BCBA46C7
:1003D000B146A846F0BD4346002B3FD10222FF3F65
:1003E00003E04346002B2DD1012231004B466140F2
:1003F000C9B213430F2B38D84E489B00C3589F46B1
:10040000002D13D104239946033B00279A4692E717
:10041000002D05D108239946063BFF279A468AE717
:100420000C239946093BFF279A4684E7280000F0F1
:1004300045FB7627431F9D4000237F4299469A46FD
:100440003F1A78E7404600F039FB4246431F9A4086
:1004500076235B4290461B1A00227EE703234A461E
:100460001A439146FC33032277E70E00FF20002257
:10047000A8E70122D31A1B2BA2DC9E372A00BD401D
:10048000DA406B1E9D4115436A0704D00F222A40B3
:10049000042A00D004356A0144D50120002291E7E6
:1004A000FF2000228EE780220026FF20D20389E76A
:1004B000002398468022D203154208D043461342B7
:1004C00005D11A4352022600FF20520A7AE7802201
:1004D000D2032A435202FF20520A73E742466B01BD
:1004E0005501AB421AD21B200022013F01261C00FD
:1004F00052005B00002C01DB9D4201D85B1B3243A4
:1005000001380028F3D1581E834113431D003B00DE
:100510007F330E00002B00DD3DE7AAE71A20012201
:100520005B1BE3E7AA010020520A4BE7444900089D
:10053000FFFFFFF78449000870B5420045024E02F4
:100540004C00C30F6D0A0120120E760A240EC90F4B
:10055000FF2A06D0FF2C03D0A24201D1B54206D01B
:1005600070BD002DFCD1FF2CFAD1002EF8D18B42AA
:1005700006D00120002AF3D12800431E9841EFE75E
:100580000020EDE770B5420045024E024C00C30F5B
:100590006D0A120E760A240EC80FFF2A1BD0FF2CFC
:1005A0000ED0002A1BD1002C01D1002E1CD0002D12
:1005B0000CD083421CD00221581E0840013870BD67
:1005C000002E22D1002AF4D1002DF2D10028F6D13C
:1005D00001204042F3E7002D17D1FF2CF0D0002C72
:1005E000E7D1002EE5D1E6E70020002DE7D0E2E7D5
:1005F000A24205DCEADBB54202D8E7D30020DEE701
:100600004342584140000138D9E702204042D6E732
:1006100070B5420045024E024C00C30F6D0A120E27
:10062000760A240EC80FFF2A0BD0FF2C0DD0002A0B
:100630001FD1002C16D1002E14D10020002D10D077
:1006400009E0002D0CD1FF2C13D1002E08D1002A77
:1006500008D0834212D00221581E0840013800E021
:10066000022070BD002DF4D10028FAD101204042B3
:10067000F7E7002CEDD1002EEBD1ECE7A24205DC30
:10068000F2DBB54202D8EFD30020EAE743425841FB
:1006900040000138E5E7C046F0B5C64643025B0AB4
:1006A0004500DA00C40F48024F009446420A1E007B
:1006B000904600B52D0E3F0EC90F8009FF2F59D06F
:1006C000012251408C4239D0EA1B002A58DD002F0C
:1006D00068D0FF2D00D1D1E08023DB0418431B2A12
:1006E00000DCE3E001236246D31A5A0100D4ACE0F7
:1006F0009B019E09300000F0E1F93300053883408A
:10070000854200DCC6E0B24A2D1A13405A0704D0D5
:100710000F221A40042A00D004335A0100D497E073
:100720006A1CFE2D00D184E09B015E0AD2B2D00586
:100730003043E407204380BCB846F0BDEA1B002AE2
:1007400041DD002F6BD0FF2D00D197E08023DB042B
:1007500018431B2A00DCCCE0012363445A0174D502
:100760000135FF2D65D001229A491A405B080B40E4
:100770001343CBE700281FD08C4222D02A00FF3A37
:10078000002A35D07A1B002D00D099E06346002B5B
:1007900000D1DDE0531E012A00D105E1FF2A6BD014
:1007A0001A0094E0002873D0511E012A00D1DFE026
:1007B000FF2A63D00A0092E701225140A14200D0F3
:1007C00082E72A00FF3A002A36D07A1B002D00D19A
:1007D000AAE0FF2F00D1DAE080236146DB04194351
:1007E0008C461B2A00DCD4E001233D001B18B5E732
:1007F000FE276A1C174271D1002D00D09EE063468F
:10080000002B00D1D5E00022002800D18FE71B1A71
:100810005E0100D4D6E063460C00C31A76E70028D8
:1008200036D0511E012A00D19AE0FF2A26D00A00B4
:100830008FE7FF2200267AE7FE276A1C174262D064
:10084000FF2AF6D01500604443085A0700D05FE73E
:10085000DB08FF2D12D05B025E0AEAB267E7624650
:10086000002A00D193E0002808D08022D20313424E
:1008700004D04046104201D10C004346002BD8D092
:100880008026F6031E437602FF22760A4FE7434690
:100890001500DEE72022401B0130121A1900934098
:1008A000C1405A1E934100250B432FE720239B1A7A
:1008B000010098400300D1405A1E93410B4312E7B8
:1008C000FF2FD9D080236446DB041C43A4461B2A97
:1008D00052DD01230C003D00C31A06E763461E1AD1
:1008E000730139D4002E00D004E700240022002632
:1008F0001DE720239B1A010098400300D1405A1E97
:1009000093410B4329E7002DA9D16346002B56D014
:100910000022002800D10AE7030063445A0194D55D
:100920002B4A0135134090E76346002BAFD0531E8E
:10093000012A15D0FF2A2AD01A0052E76246002A5F
:1009400091D1002898D180260024FF22F603EEE6FC
:100950000C00434615007CE763460C00C61AC9E646
:100960000300634401255A0100D46EE70225FAE62C
:10097000634601251B1AB8E664462023D4409B1A1F
:1009800062469A4013005A1E93412343A2E743460E
:1009900074E761462023D1409B1A62469A401300B7
:1009A0005A1E93410B4320E763460C000125C31AEE
:1009B0009BE6002899D00C0046460022B7E6464642
:1009C0000022B4E6002B00D03FE700240026AEE66C
:1009D000FFFFFFFBFFFFFF7D41024200C30F490AFB
:1009E0000020120E7E2A03DD9D2A02DD094A981896
:1009F0007047802000040143952A07DC9620821A64
:100A0000D1404842002BF3D10800F1E7963A9140DB
:100A1000F7E7C046FFFFFF7F70B5002813D0C3176C
:100A2000C5185D40C40F280000F048F89E2301005F
:100A30001B1A962B0FDC082831D008398D406D0227
:100A40006D0AD8B202E0002400200025C00528432A
:100A5000E407204370BD992B0CDD0522121A2800F3
:100A6000D040020008001B3085402800451EA841E8
:100A700002431500052916DC2A000F4802406E07C4
:100A800009D00F263540042D05D00432550102D57A
:100A90009F2302405B1A9201550AD8B2D6E76D0235
:100AA00096206D0AD2E74A1F95402A00024802406C
:100AB0006E07F0D0E5E7C046FFFFFFFB1C210123D6
:100AC0001B04984201D3000C10391B0A984201D331
:100AD000000A08391B09984201D30009043902A20F
:100AE000105C40187047C046040302020101010176
:100AF000000000000000000070B50500FA200D4B5A
:100B000080001978FFF714FB0B4C01002068FFF7F9
:100B10000FFB00F043FE04000120002C09D1032D3F
:100B200007D802382200290000F0F4FD2000034B12
:100B30001D6070BD0000002038000020040000206F
:100B40001023064A10B5116800200B431360FFF70D
:100B5000D3FF03F067FC002010BDC0460020024018
:100B6000034A044B11681B785B1813607047C0463A
:100B70005C00002000000020014B18687047C04650
:100B80005C00002070B50400FFF7F6FF0500631C51
:100B900002D0044B1B78E418FFF7EEFF401BA04285
:100BA000FAD370BD00000020002373B50321019328
:100BB000036804009A680A40012A07D119681142A3
:100BC00001D0002076BDDA681204FAD499681B4A75
:100BD000114208D010230120A26B1343A363E36BDF
:100BE0000343E363EEE7012299680A439A60144BDA
:100BF00014491868FFF79CFA0190019B002B19D14A
:100C0000FFF7BAFF0125060023681B682B42D8D1E5
:100C1000FFF7B2FF801B0228F6D923681B682B421E
:100C2000F2D11023A26B01201343A363E36B2B4388
:100C3000E363C7E7019B013B0193DEE717000080F8
:100C40003800002040420F0070B504000120002C45
:100C50007ED0A36B002B06D122003432E363200048
:100C6000137003F0FDFBA36BDB0600D584E0226864
:100C700093685B0700D57FE0A16B424B19400633B8
:100C8000FF330B430321A36393680B40012B05D172
:100C9000116819420ED1D3681B040BD41821D368F4
:100CA0008B43A1680B43D360136961689B009B0869
:100CB0000B431361D36834490B40D360237E607EBD
:100CC0009B03C0030343A17EE0680343480303433F
:100CD000601DC07F40000343A06A0138451EA84143
:100CE0000003034320690238454268418000034302
:100CF000E07E012804D100292BD1802149020B4339
:100D0000C220E169FF30814202D0206A01430B43D7
:100D10008020D16840051943D160E16A814202D048
:100D2000481E062807D8072550692940A843506166
:100D3000506901435161D26814490A409A4210D166
:100D400000200323E063A26B9A43023B1343A36397
:100D500070BD2021A56B2943A163E16B0843E063CB
:100D6000CEE712230120A26B9A43023B1343A363F5
:100D7000E36B0343E363EBE71023A26B0120134310
:100D8000A363E5E7FDFEFFFF1902FEFFE7FF3F83D8
:100D9000F7B5036804009B680E00022001925B0710
:100DA00030D4270034373B78012B2BD001233B7004
:100DB000637E012B27D1A26B164B00251A4080239E
:100DC0005B001343A363E5633D70206B124B216806
:100DD0008362124BC362124B03631C230B604A688D
:100DE0000C3B13434B600123CA681343CB603200B2
:100DF000019B403100F01EFD042328002268916809
:100E00000B439360FEBD2000FFF7CEFE0028D2D03A
:100E1000F8E7C046FEF0FFFF250E0008970E000819
:100E2000A50E00085022436A10B5996B11422BD1D0
:100E3000996BB132FF320A43C0219A631A680901E3
:100E4000D068084213D1997E002910D11168090792
:100E50000DD5916849070ED40C205168814351602B
:100E6000996B0B4A11400432FF320A439A6318000F
:100E700002F063FB10BD2022996B0A439A630122A2
:100E8000D96B0A43DA63F2E71B6B1B6B9847F1E7F8
:100E9000FEFEFFFF704710B5406AFFF7FBFF10BD75
:100EA000704770474023406A10B5826B13438363D9
:100EB0000423C26B1343C363FFF7F3FF10BD0000AD
:100EC0000422036870B519680400114202D0596801
:100ED000114206D108221968114229D059681142DD
:100EE00026D0A26BD20604D48022A16B92000A43C2
:100EF000A263C022D9681201114213D1A27E002A36
:100F000010D11A6812070DD59A6852073DD40C21EA
:100F10005A688A435A60A26B204B1A400433FF334D
:100F20001343A363200002F008FB0C2223681A601D
:100F3000802523681A682A420CD05B682B4209D0AE
:100F40008023A26B5B021343A3632000FFF7A8FF7B
:100F500023681D60102223681968114214D0596853
:100F6000114211D0A26A012A02D0DA68D20708D54C
:100F70000222E16B20000A43E26310221A60FFF7AD
:100F800090FF102223681A6070BD2023A26B1343C8
:100F9000A3630123E26B1343E363C3E7FEFEFFFF9A
:100FA000F7B5002204000192343422780300C56AA8
:100FB0000220012A2AD0013820701A689668760724
:100FC0005FD40B684F681E00BC46304F9840103EFF
:100FD000BC453FD0976A38439062802040058542E7
:100FE0000FD0013D062D0CD90720556989680540B1
:100FF000A94206D055690140854355615569294389
:101000005161022E03D9002000232370FEBD204829
:101010000168102B1BD01A00113A55426A411D4D30
:1010200052422A4080256D0452190A430260102B57
:10103000E9D1194B19491868FFF77AF80A23434395
:101040000193019B002BDED0019B013BF8E780223E
:101050001204EAE7916A81439162022ED3D80C4AC6
:101060001168102B0BD0113B58424341C0205B420A
:10107000000403400A481B180B401360C3E7094BE8
:10108000FAE72022996B0A439A63BDE7011000003A
:1010900008270140000040FF3800002040420F00B8
:1010A000FFFFFFFEFFFF7FFFF8B504000120002CCB
:1010B00064D02518EB7F002B02D1200003F036FA14
:1010C0000127226813683B431360FFF755FD0600B4
:1010D00023685A683A4244D002271A68BA431A6011
:1010E000FFF74AFD060023685A683A4247D1217E3D
:1010F0008022012949D119680A431A60617E402281
:10110000012946D119680A431A60A17E20220129CB
:1011100043D119680A431A60E17E1022012940D1A7
:10112000196891431960217F082201293DD119686E
:101130000A431A60617F042201293AD119680A43DF
:101140001A60E168A26800200A4321690A436169C4
:101150000A43616801390A43DA6101236062EB776F
:101160000CE0FFF709FD801B0A28B1D98023626AD1
:101170009B021343636205230120EB77F8BDFFF761
:10118000FBFC801B0A28AED9F0E71968914319606F
:10119000B4E7196891431960B7E71968914319607A
:1011A000BAE719680A431A60BDE7196891431960E4
:1011B000C0E7196891431960C3E770B5421CD27F3C
:1011C0000368013A012A64D880240120A4001A5936
:1011D000872602431A514A69E23CFF3C1440A04072
:1011E000B6009C59C54384439C51CC69002C35D131
:1011F000103E9C59D2002C409C51CC684E6824046F
:10120000B6B2344390269A18B60094518C680E6892
:101210002404B6B234439126B600945181228C69DD
:101220009200002C2FD19C582C409C5085220C6998
:101230009200002C2AD19C582C409C500A6A012A0A
:1012400004D1872189005A5802435A508021012035
:1012500089005A58824300205A5070BD012CDDD1BC
:101260008326B6009C59D20004439C510C684E68FA
:101270002404B6B2344390269A18B60094518C6870
:10128000CE682404C5E79C580443CEE79C58044329
:10129000D3E78023426ADB02134343620120DCE789
:1012A000F7B5461CF37F0400DDB2012B21D10133D9
:1012B000F37702682F001368AB431360FFF75CFC01
:1012C000019023685A6813003B403A4202D11D0046
:1012D00063620CE0FFF750FC019BC01A0A28F0D9AA
:1012E0008023626A9B02134363620523F37728001D
:1012F000FEBD8023426A1B03134301254362F6E7C8
:10130000F0B51D00431CDE7F0368013E9C68012E82
:1013100056D8E026760534424ED0A401A40F032C03
:1013200006D18023426A1B041343436201203DE03F
:101330000120A040286020008F68CE681830002F60
:1013400035D10D686D0535430001C550C2250E69C4
:10135000240118196D004651097D012903D1465910
:10136000FF31314341511B191C0051791579090294
:10137000294395798D342D040D43D179FF34090625
:10138000294321605478117824020C439178D27853
:1013900009042143120689330A43FF331A60C0222D
:1013A0000123520081580B4383500020F0BD4D684B
:1013B0003743ED003D43C7E78023426A9B03B3E711
:1013C0008023426ADB02AFE7F7B504000800611C26
:1013D000C97F0139012900D977E021680191019D78
:1013E0000321002809D1EE680E4208D18023626AE9
:1013F0009B031343012063625DE02E69F4E7D82666
:10140000019D01016918042576008F592F409760CE
:1014100052D18F597F0D176002270F258E593E40FC
:10142000B337FF37D660CE592E401661CE59C95911
:10143000360A090C5161F6B20199966102018D18C4
:10144000B935FF352968197021688918B931FF311C
:101450000968090A597021688918B931FF3109688A
:10146000090C997021688918B931FF310968090E92
:10147000D97021688918BD31FF3109681971216857
:101480008918BD31FF310968090A59712168891825
:10149000BD31FF310968090C997121688A18BD3284
:1014A000FF321268120EDA7122682023002807D159
:1014B000D1680B43D360FEBD8F59FF085760ABE77F
:1014C000116900200B431361F5E78023626ADB0298
:1014D0008FE7421CD27F0B00013A012A05D802682F
:1014E000002051691943516170478023426ADB0231
:1014F000134343620120F7E7704770477047704716
:101500007047704770477047704770477047704723
:10151000F0B5036885B05E695A689F680192DA6821
:10152000340002921A69050003929A69009201221E
:101530001440164222D03C001440174206D09A6054
:10154000BB0700D4AAE0FFF7D7FF002480235B008D
:101550001F4207D02A689360BB0500D4AEE0280084
:10156000FFF7CBFF80235B021F4207D02A689360FE
:10157000BA0300D4B1E02800FFF7C0FF330708D555
:101580001023029A1A4204D08022920014432A683F
:10159000D360730708D50823029A1A4204D02A6838
:1015A0002800D360FFF7AEFFB30706D52B68DB68D2
:1015B0009B0702D0280001F0C1FF730608D5102355
:1015C000039A1A4204D08022D20014432A6813617D
:1015D000B30608D50823039A1A4204D02A682800C3
:1015E0001361FFF791FFF30606D52B681B699B0774
:1015F00002D02800FFF787FFB30308D51023019A14
:101600001A4204D02A6828005360FFF77EFFF303D4
:1016100008D50823019A1A4204D02A68280053608A
:10162000FFF774FF33042FD5019B2A685B0729D588
:10163000F30504D501230099194200D01C43B305DA
:1016400004D502230099194200D01C43730504D528
:1016500004230099194200D01C43360512D570218D
:10166000009B00980B4008420CD0402B49D040D83A
:10167000202B48D0302B48D0102B41D070219369BB
:101680008B43936104235360002C05D06B6A2800C0
:1016900023436B62FFF73BFF05B0F0BD7B0707D428
:1016A00008233C001C401F4205D1FFF728FF4DE7EF
:1016B000802424014AE78024640147E77B0503D5A1
:1016C00080239B011C434DE73B0502D58023DB01B2
:1016D000F8E72800FFF714FF44E77A0303D58023D7
:1016E0001B021C434AE73F03FBD42800FFF709FF16
:1016F00044E7502B0BD0602BC0D180235B0000E06F
:1017000008231C43BAE71023FBE72023F9E78023D3
:10171000F7E7000030B5FF2503242A000440E40069
:10172000A24089012940D243A140C3B200280ADB6C
:10173000C0240B4B80088000C018A400035913403C
:101740000B43035130BD0F200340083B05489B0865
:101750009B001B18D86902400A43DA61F2E7C046D1
:1017600000E100E000ED00E0002805DB1F23184049
:101770001E3B8340014A13607047C04600E100E011
:10178000BFF34F8F034B044ADA60BFF34F8FC0465D
:10179000FDE7C04600ED00E00400FA058022431E8C
:1017A0005204012093420DD2C021074A07485360DA
:1017B000036A09061B021B0A0B430362002007236E
:1017C000906013607047C04610E000E000ED00E05C
:1017D00070B504000120002C24D00223A51CEB7757
:1017E0002068114B0268A1681A4063680B43E168E6
:1017F0000B4321690B4361690B43A1690B43E16909
:101800000B4313430360094B1421C018FEF790FCEF
:10181000074B80002064E36300200123A063E418E9
:10182000EB77E07770BDC0460FC0FFFFF8FFFDBF4C
:1018300000000240F7B5451C0193EB7F0400022035
:10184000012B27D001232718EB77FB7F00269C462E
:101850006046DBB2012828D10130F8772068A66302
:101860000568266C9D43B3400560E56B6B60019B8A
:1018700043606368102B0ED18260C160E36A026826
:10188000002B0BD00E231343036001230268134384
:1018900003600020FEBD8160C260EFE70A231343AE
:1018A0000422036003689343EEE70220EE77F1E73A
:1018B00070B5841CE37F022B04D004238363033BB5
:1018C000180070BD0E2103681A688A431A6001224D
:1018D0001500196891431960016CC36B8D405D6000
:1018E000E27700248318DC77426B1300A242E7D032
:1018F00090472300E4E7F8B504273E00016CC26B73
:101900008E40156803681C6835420DD03C420BD0F0
:101910001968890602D41968B9431960C36A566008
:10192000002B19D0984717E002273E008E40354221
:1019300013D03C4211D01968890606D40A241968CC
:10194000A14319600121C319D97756600022431CB5
:10195000DA77836A9342E5D1F8BD082637008F40D5
:101960003D42F9D03442F7D00E251C68AC431C60D0
:1019700001231C008C405460821C8363D3770022B7
:10198000C318DA77036BE5E70230C07FC0B2704757
:101990000C4A1021D06830B503000B40084205D036
:1019A00002230948C4692343C3610B000420D168A2
:1019B000014205D00121044C0343E5692943E1615B
:1019C000D36030BD0020024060000020064B0020A4
:1019D0001A69120606D5054A5A60054A5A601869FE
:1019E0000006C00F7047C046002002402301674533
:1019F000AB89EFCD8023034A002011690B431361AB
:101A00007047C0460020024070B50400FFF7B4F8EC
:101A100001260500104BDA68324211D12022D96824
:101A2000114200D0DA60D96810220800104011423B
:101A300002D1DB685B0708D5FFF7AAFF012004E0AD
:101A4000621CE8D0002C01D1032070BDFFF794F890
:101A5000401BA042DED9F7E700200240F0B585B078
:101A600003931D4B009102921A7E04000220012A6A
:101A700030D0012219481A76FFF7C6FF002826D178
:101A80002600012C02D0022C00D004260024124B88
:101A90000193029803992201FEF7D6FB0022012749
:101AA000019B0F4DDA612B69009A3B432B61630068
:101AB0009B1880B218800948FFF7A6FF2B69BB432B
:101AC0002B61002803D1E419E3B29E42E1D8002241
:101AD000014B1A7605B0F0BD6000002050C3000035
:101AE000002002400022064BDA61064B04321969DD
:101AF0000A431A61402219690A431A617047C046B5
:101B000060000020002002400022064BDA61064BF4
:101B1000023219690A431A614022586119690A435D
:101B20001A6170476000002000200240F8B5214F84
:101B300004003B7E0E000220012B0CD001233B76DB
:101B400023681D48012B12D1FFF75EFF002803D048
:101B5000012000233B76F8BDFFF7C4FF1648FFF7CE
:101B600053FF0421154A13698B431361F1E7FFF713
:101B70004BFF0028ECD101235B42336065680130E4
:101B8000A36862689B029B18AB42E2D92800FFF76A
:101B9000BBFF0948FFF738FF0221084A13698B434E
:101BA0001361002801D03560D3E78023DB00ED18F6
:101BB000E6E7C0466000002050C30000002002405D
:101BC0000023F0B587B00A681400DC4001D107B0EB
:101BD000F0BD012514009D402C4000942A4200D104
:101BE00094E04A685F00944603226446224003243E
:101BF000BC40E4430194541E012C2ED88668019CFD
:101C00002640CC68BC403443846044680126AC4321
:101C100025006446240934409C402C434460C56838
:101C2000019C25408C68BC402C43C460022A16D11C
:101C300007250F261D40AD00AE40DC08A4000419A6
:101C40000294246A03962600039CA64334000E697E
:101C5000AE402643029C266201E0032ADFD1BA404F
:101C60000468019D25402A43C02402606246A40204
:101C700022424BD00125264A90279469FF052C4328
:101C8000946192699C082A400592059A214AA40011
:101C9000A4180F2202351D40AD00AA40A668964345
:101CA0000022B84208D01C4F0132B84204D01B4F6A
:101CB0000132B84200D00332AA4067463243A260E4
:101CC000174A009C1668009DE4433543FF0301D486
:101CD00035002540674615605668009D3543BF03B3
:101CE00001D435002540674655609668009D354310
:101CF000FF0201D43500254067469560D568009EF7
:101D00002E43BF0201D425402E00D66001335AE78E
:101D10000010024000000140000400480008004894
:101D200000040140002A01D0816170478162FCE714
:101D300003689A69920701D500229A620122996983
:101D4000114202D199690A439A61704730B5039CE8
:101D50001204006822431A43054B4568640D890547
:101D6000890D23439D430A432A43426030BDC04648
:101D7000FF63FF0310B5436B144C0AB2A34202D0B9
:101D8000134CA3420ED1002A0ADB9023102917D04E
:101D9000303B202914D00023402911D10B430FE000
:101DA000B823F9E700239A4200DAB833CA0701D50D
:101DB000F22213438A0701D5F42213432029EDD0E0
:101DC00001680A6813430B6010BDC0463126000845
:101DD000D9280008002310B5CA0708D503004133ED
:101DE0001A7828231A401A33282A00D0B0338A07D9
:101DF00008D502002824413212782240A2420BD199
:101E00004422134309B2002901DAB82213430168BE
:101E10000A689A430A6010BDF422F2E770B5040024
:101E20000120002C3FD0250041352B78DAB2002B61
:101E300005D12300403320001A7002F0C9FB24238F
:101E400001212B702368E0681A68A6688A431A602B
:101E50001A4962680A401A619A6819490A409A60E8
:101E6000012821D18022120232439A605868154A13
:101E700002435A60DA6800200A40DA606169226928
:101E80000A43A16909020A43DA60216AE2690A4346
:101E90001A60012219680A431A60202360642B70BB
:101EA00020634234207070BD8422120232439A6053
:101EB0000228DBD1802212015A60D7E7FFFFFFF032
:101EC000FF7FFFFF00800002F0B5060085B00292A0
:101ED00028220091039341363378040001251340F2
:101EE000934208D1002902D0029B002B06D1802307
:101EF0009B0063640125280005B0F0BD030040335A
:101F00001A78012A00D18EE01D704849FFF762FF60
:101F10003378474D2A2B4BD102212000FFF75AFF7F
:101F200023681A6812040ED5E06B00280BD01A68DB
:101F30002A401A603F4B4363FFF7BAFC002802D0E7
:101F4000E06B436B9847292333702300423301939E
:101F500020230027019A039913702268676453684D
:101F6000A06B2B405360009B6362029B6385638D73
:101F7000E16231499BB223856163B8422ED02F497B
:101F8000283281622E49C762016347630099FFF7D7
:101F900051FC220005004032B8422AD02823337079
:101FA000019B1F701023616C0B4363641770A1E7E2
:101FB00032782368A06B292AC5D11A685204C2D589
:101FC0001A6820490A401A600028BCD0194B4363A4
:101FD000FFF76EFC0028B6D0A06BB2E72823337061
:101FE000019B403418708023626813436360207043
:101FF00080E7638D218D26685B1A9BB26385B36988
:102000002085DB030CD400238021137020000902FB
:10201000FFF7B0FE80233268DB01134333606AE7C9
:102020000823F361EFE7022565E7C0460180000061
:10203000FF7FFFFF0D2B0008D9280008D1220008E0
:1020400039270008FFBFFFFFF0B5060085B00292F8
:102050002822009103934136337804000125134070
:10206000934208D1002902D0029B002B06D1802385
:102070009B0063640125280005B0F0BD4B49FFF7C4
:10208000A9FE230040331A78012A00D18BE01D708D
:102090003378292B4DD129002000FFF79BFE2368C0
:1020A0001A6852040FD5A06B00280CD01A6840495A
:1020B0000A401A603F4B4363FFF7FAFB002802D047
:1020C000A06B436B98472A2333702300423301935C
:1020D00020230027019A1370216867644B68364AF1
:1020E000E06B13404B60009B039A6362029B638525
:1020F000638DE262314A9BB223856263B8422ED07F
:102100002F4AC76282622F4A476302632431009AD2
:10211000FFF790FB220005004032B8422AD0282366
:102120003370019B1F701023616C0B436364177045
:10213000A0E732782368E06B2A2AC4D11A68120417
:10214000C1D51A681C490A401A600028BBD0194B37
:102150004363FFF7ADFB0028B5D0E06BB1E7282360
:102160003370019B403418708023626813436360AE
:1021700020707FE7638D218D26685B1A9BB2638593
:10218000B3692085DB030BD50023200013700749BA
:10219000FFF7F0FD802332681B02134333606AE7C8
:1021A0000823F361F0E7022565E7C04602800000DE
:1021B000FFBFFFFF0D2B0008FF7FFFFFD92800089E
:1021C000F522000839270008020010B541321178C5
:1021D0000223202908D1802126331370034B0902E2
:1021E0004363FFF7C7FD0023180010BDE92900086D
:1021F000036810B599691A68436B002B00D09847A3
:1022000010BD70477047030070B5002520220600FE
:1022100042331D70013B1978040040361A702129A1
:102220000AD11123456303632039FFF7D3FD200052
:102230003570FFF7E6FF70BD12234563036302218B
:10224000FFF7C8FD20003570FFF7DCFFF3E7000063
:102250000100036810B5040000201A6842310870BC
:10226000510418D51A6818490A401A6023004133EE
:102270001A78292A14D1013A1A70212320002363E5
:102280000121FFF7A7FD23000022403320001A7030
:1022900001F0D8F910BD1204E8D51A680B49E3E73C
:1022A0001A782A2AF6D1023A1A70222320002363D0
:1022B0000221FFF78FFD23000022403320001A7017
:1022C00001F0A6F9E6E7C046FFBFFFFFFF7FFFFF73
:1022D000406A064BC26A10B51A4206D10268044928
:1022E00013680B401360FFF7B3FF10BDFFFFFFFE45
:1022F000FFBFFFFF406A10B5C36BC26A1B685B6813
:10230000002B09D1054B9A4206D002680449136894
:102310000B401360FFF79CFF10BDC0460000FFFF9D
:10232000FF7FFFFF0300F7B5282241331B7804002D
:102330000168134093423CD1FE278D698E698B68FA
:10234000CA68ED030192C268360CED0F3E40022AC6
:1023500025D19B059A0D5B0F73401800062630406F
:10236000334210D1A36C0133A364A36C022B09D1B7
:102370009B19A064CB612300403318702900200012
:1023800001F0F6F8F7BD802120000902FFF722FDD9
:102390002300002240331A70019A3A40EEE7802170
:1023A0000902FFF717FD2300002240331A703200A4
:1023B000E4E70823CB61002340342370E2E7000008
:1023C000184B10B5C36200230200036304002020F1
:1023D00041321070537004226363114212D023689B
:1023E000596A636A1970636A01336362238D002B33
:1023F00008D0013B2385638D013B9BB26385636CF1
:102400001A43626420000849FFF7E4FC10222368A5
:102410002000DA612300002240331A7001F0EAF84C
:1024200010BDC0460000FFFF0380000070477047EA
:102430000100020010B541310C7800234032602CBD
:1024400006D1403C0C700363137001F08FF810BD8F
:102450000363137001F0FCF8F9E7000070B50500A4
:1024600000220400413542302B7802703148283B6D
:10247000E0626285626C0A436264022B2BD80321FE
:102480002000FFF7A7FC28232B702B4BA06B636366
:10249000236B00282ED01A001021113A8A4329D12B
:1024A00023681A68520403D51A6824490A401A603E
:1024B000FFF76AFA012819D0A06B214B0022436371
:1024C000230040331A70FFF7F3F9002811D0A06BF6
:1024D000436B98470DE020001A49FFF77BFC2B78EF
:1024E000602B01D020232B700023CFE72000FFF7C3
:1024F0009FFF70BDE06B0028F8D01022123B934381
:10250000F4D123681A68120403D51A680E490A40E8
:102510001A60FFF739FA0128E8D0E06B084B002277
:102520004363230040331A70FFF7C2F90028E0D05C
:10253000E06BCDE70000FFFFE9290008FFBFFFFFC8
:102540000D2B000803800000FF7FFFFFF7B520235D
:10255000050006684135F3612B7804000F00212B3C
:102560002BD10121FFF736FC1123236373682E4A18
:1025700013407360002363632C4BE36210231F42FC
:1025800004D0F361626C0C3B134363642B78602BC3
:1025900005D17F0703D5736ADBB20193019B20004D
:1025A000FFF7C6FB636C2A78602A01D0002B0CD0A1
:1025B0002000616CFFF752FFF7BD2B78222BD5D19D
:1025C0000221FFF707FC1223CFE72A78212A13D133
:1025D000013A2A70220021002363423210784031F0
:1025E00013700B70402803D12000FFF71FFFE3E7B3
:1025F0002000FFF706FEDFE72A78222ADCD1023A24
:102600002A70220021002363423210784031137077
:102610000B70402803D12000FFF709FFCCE7200012
:10262000FFF7F0FDC8E7C04600E800FE0000FFFF2E
:10263000F7B506004036337804000220012B15D090
:10264000012333700F33194211D01A420FD0226880
:102650002000D361626C0C3B134320216364FFF7BD
:1026600089FB2000FFF764FB00203070FEBD402393
:10267000080641D51A423FD025682A689A432A6045
:10268000638D002B2CD06968638D8905890DFF2B24
:1026900018D9FF23238580235B040020278D009019
:1026A000FAB22000FFF752FB638DDB1B9BB2638500
:1026B000413423782A68222B0FD180231B02134335
:1026C0002B60D1E7638DE26A23851A4B9A4201D0D1
:1026D000E36AE2E780239B04DFE78023DB01EEE788
:1026E0006B689B0103D42000FFF78DFDBCE7402100
:1026F0002000FFF7B3FEB7E7194212D01A4210D0FC
:10270000638D002BF3D1226853689B01ACD4E16A3E
:10271000084B9942E7D180235168DB010B4353609A
:10272000A2E7202319429FD01A429DD02000FFF734
:102730000DFF99E70000FFFF8023406A10B5026893
:102740001B0251680B4353601021FFF787FE10BD39
:1027500070B5802503686D0099691A68294206D012
:10276000140604D50124466C34434464DD6180259D
:10277000ED00294206D0140604D50824466C3443E3
:102780004464DD618024A400214206D0120604D5F1
:102790000222416C0A434264DC610B23416C194202
:1027A00001D0FFF75BFE70BDF7B5056806002B682A
:1027B00000910193202341363778EB61183B0400E8
:1027C0009F43212F4ED13E492000FFF703FB276393
:1027D00080276B683F023B436B606B68394A20007F
:1027E00013406B60FFF7A4FA019B5B043ED52B6896
:1027F000354A13402B60A36B002B03D01B685B682A
:102800009BB263850423009A1A4210D09A43009227
:10281000636A6A6A1A70636A01336362238D002BEC
:1028200005D0013B2385638D013B9BB26385638D9E
:10283000002B03D00423626C134363642300002243
:1028400042331A70656C6263954218D02000616C47
:10285000FFF704FE3378282B03D120000099FFF7FF
:10286000AFFDF7BD222FB3D11849ADE7019B3B4225
:10287000C8D02B68164A13402B60E36BBCE72700D7
:10288000E36A144A403793420CD02000FFF7E0FC83
:102890002023104A2000E262337025633D7000F06F
:1028A000A9FEDEE7202332782000337025633D70D7
:1028B000222A02D100F0ACFED3E700F0C3FED0E73D
:1028C0000180000000E800FEFFBFFFFF0280000063
:1028D000FF7FFFFF0000FFFF0300F7B540330193C8
:1028E0001B780400C76A0E0015000220012B3BD0A4
:1028F0000123019A13701F33194204D01D4202D0E4
:102900002000FFF751FF10231E4260D01D425ED011
:10291000C0221202154257D0E26B131E09D080214B
:102920002B0009020B400D4203D013685B685A422A
:1029300053412200A16B4132002905D06D0403D51B
:1029400009684968002901D0012B1ED11378282B72
:102950000BD180239B049F4207D131002000FFF759
:102960002FFD0020019B1870FEBD117810222368F6
:10297000DA612929F5D11A498F42F2D02000FFF7F8
:10298000D7F92000FFF764FCEBE710212368D96139
:102990000423616C0B4363641078124BC0B21F4276
:1029A000DFD12138092808D8FDF7AEFB050C070751
:1029B00007070707050C212323632000616CFFF73D
:1029C0004DFDCEE72223F7E72268D361C9E708234C
:1029D0001E42C6D01D42C4D02000FFF7A3FCC0E7B2
:1029E0000000FFFFFFFFFFFE0300F7B54033019338
:1029F0001B780400C76A0D0016000220012B22D0AC
:102A00000123019A13701F33194204D01E4202D0D1
:102A10002000FFF7C9FE10231D4233D01E4231D0E3
:102A2000628D002A20D1230041331A78282A0BD145
:102A300080229204974207D129002000FFF7C0FCB2
:102A40000020019B1870FEBD102219782368DA61FE
:102A50002929F5D12B498F42F2D02000FFF768F9E0
:102A60002000FFF7F5FBEBE72268D3610423626CDB
:102A700013436364244B1F42E2D12000616CFFF7D3
:102A8000EDFCDDE704231D4219D01E4217D0638DF3
:102A9000002B0DD023685A6A636A1A70636A013387
:102AA0006362238D013B2385638D013B9BB263856C
:102AB000638D002BC4D1134B9F42C1D0D0E70823B4
:102AC0001D4205D01E4203D02000FFF72BFCB7E7C4
:102AD00002231D42B4D01E42B2D0638D002B0DD014
:102AE000636A22681978013391626362638D013BE6
:102AF0009BB26385238D013B2385A1E7024B1F42D7
:102B0000AED09DE70000FFFFFFFFFFFE406A10B55B
:102B1000836B002B01D000225A63C36B002B01D0C2
:102B200000225A63FFF784FC10BD0000F0B50400DA
:102B30004134227803000F000220D6B2202A18D197
:102B40001D0040352A78012A13D0242222701B68E8
:102B5000233A196807489143196019680140002019
:102B6000196019683943196019680A431A60267098
:102B70002870F0BDFFEFFFFF0200F0B5413214787E
:102B80000300E5B20220202C17D11C004034267827
:102B9000012E12D0223010701B6823381E68074F98
:102BA00086431E601E6809023E4031431960196861
:102BB00008431860002015702070F0BDFFF0FFFF83
:102BC000F0B5040085B000284ED00368DB0733D48D
:102BD00023689B0700D58AE023681B0700D5CAE05D
:102BE00023685B0700D5EDE02368DB061AD5626930
:102BF0000423BB4D012A00D056E1696B02270B4329
:102C00006B636B6B1A436A63FDF7B6FF06006B6B71
:102C10003B4200D141E1F8216A6BA3698A43DB00A2
:102C200013436B6323689B0600D565E1636A002B41
:102C300000D0A2E100202FE00C22A94D6B681340C8
:102C4000042B0BD06B681340082B0FD1C0226B688C
:102C50005202134080225202934207D12B689B03F9
:102C6000B6D56368002BB3D1012015E06368012B52
:102C700014D180232A685B0213432B60FDF77CFF8D
:102C800080270600BF022B683B42A1D1FDF774FFED
:102C9000801B6428F7D9032005B0F0BD002B16D1A6
:102CA0002B68904A802713402B602B688E4ABF0206
:102CB00013402B60FDF760FF06002B683B4200D1FC
:102CC00086E7FDF759FF801B6428F6D9E3E7052B5B
:102CD00005D180232A68DB0213432B60C9E72B68E8
:102CE000804A13402B602B687F4A1340C5E70C22B3
:102CF0007B4D6B6813420BD06B681340082B15D1CA
:102D0000C0226B68520213408022120293420DD1FE
:102D10002B689B0702D5E368012BA5D1F8212A680F
:102D200023698A43DB0013432B6055E7E2680123E4
:102D3000002A0FD02A68022713432B60FDF71CFFDF
:102D400006002B683B42E9D1FDF716FF801B0228E5
:102D5000F7D9A0E72A6802279A432A60FDF70CFFFB
:102D600006002B683B4200D136E7FDF705FF801BCC
:102D70000228F6D98FE7E2690123594D002A10D0C5
:102D80006A6A022713436B62FDF7F6FE06006B6A60
:102D90003B4200D024E7FDF7EFFE801B0228F6D966
:102DA00079E76A6A02279A436A62FDF7E5FE060040
:102DB0006B6A3B4200D113E7FDF7DEFE801B022861
:102DC000F6D968E780220021454D5205EB69009154
:102DD000134208D1EB691343EB61EB691340039392
:102DE000039B012300938027404E7F0033683B42C2
:102DF00015D0A368012B22D12A6A13432B62FDF759
:102E0000BBFE022706002B6A3B423FD0009B012BF2
:102E100000D0E9E6EB69364A1340EB61E4E633683B
:102E20003B433360FDF7A8FE019033683B42E0D19D
:102E3000FDF7A2FE019BC01A6428F6D92BE70122F8
:102E4000002B14D12B6A022793432B622B6A033287
:102E500093432B62FDF790FE06002B6A3B42D5D0D0
:102E6000FDF78AFE234B801B9842F6D913E7052B0A
:102E700005D1296A013B0B432B622B6ABDE72B6A04
:102E8000934304222B622B6A9343B7E7FDF774FE4A
:102E9000184B801B9842B6D9FDE6FDF76DFE801BEE
:102EA000022800D8B3E6F6E6053203D16A6B9A43EE
:102EB0006A63B0E66A6B0227134301226B636B6B94
:102EC00093436B63FDF758FE06006B6B3B4200D1EA
:102ED000A8E6FDF751FE801B0228F6D9DBE6C046C6
:102EE00000100240FFFFFEFFFFFFFBFF00700040ED
:102EF000FFFFFFEF881300000C22544D6B68134056
:102F0000934209D06B681340082B0ED1C0226B6826
:102F100052021340934208D16B6BDB0300D485E669
:102F2000236A012B00D09FE680E6236A002B11D094
:102F300080276B6B7F023B436B63FDF71DFE060032
:102F40006B6B3B4200D071E6FDF716FE801B02283A
:102F5000F6D9A0E66B6B3E4A802713406B63FDF702
:102F60000BFE06007F026B6B3B4200D15EE6FDF775
:102F700003FE801B0228F6D98DE60C21334D6A68CA
:102F80000A40082A47D0334A022B32D12B688027C7
:102F900013402B60FDF7F0FD0600BF042B683B4299
:102FA00021D10F22EB6A80269343226BB604134390
:102FB000EB62A16AE36A6A680B4327490A4013433C
:102FC0006B6080232A685B0413432B60FDF7D4FDFC
:102FD00004002B68334200D02CE6FDF7CDFD001B2A
:102FE0000228F6D957E6FDF7C7FD801B0228D5D980
:102FF00051E62B68802613402B60FDF7BDFD0400D1
:10300000B6042B68334200D114E6FDF7B5FD001B72
:103010000228F6D93FE6012B00D125E6C0216B68D6
:10302000A06A4902EA6A1940814200D01CE60F21D9
:103030000A40216B8A4200D016E6F0229203134028
:10304000E26A934200D1F5E50EE6C0460010024068
:10305000FFFFFEFFFFFFFFFEFF7FC2FF70B588B0DE
:1030600010221C49684604AD01F04CFC10222800D7
:10307000194901F047FC0C20184E736818400828C5
:103080000BD00C2823D00438431E9841144B4042E7
:103090001840144BC01808B070BD0F2168469A0C38
:1030A0000A40845CF26A80200A40A95CC022520275
:1030B00013404002834204D10A48FDF739F86043C7
:1030C000E9E7934201D10848F7E70848F5E70648E1
:1030D000E1E7C046C4490008D54900080010024095
:1030E00000EE85FF0024F400006CDC0200127A0080
:1030F000F7B504000F00002801D10120FEBD012218
:103100003B4D2B6813408B421CD32268930722D47B
:10311000D2072FD401232A681A40BA4259D823680B
:10312000344D5B075CD4FFF799FF6B68324A1B068E
:103130001B0FD35C3149D84008600020FDF7DCFC50
:103140000020DBE72B6893430B432B602B68134075
:103150008B42D2D1D9E72749530704D5E0234868E9
:10316000DB0003434B60F0204B688343A0680343BC
:103170004B60CDE762681F4E012A1AD133689B036A
:10318000BBD5032173688B4313437360FDF7F4FCD5
:1031900001900C2372681A4063689B009A42B9D070
:1031A000FDF7EAFC019BC01A154B9842F1D90320A8
:1031B000A4E7022A03D133689B01E2D49DE7032AE6
:1031C00003D1736BDB03DCD497E733689B07D8D458
:1031D00093E72A689A432A602A681A429FD08CE7AC
:1031E0006B68084A1340E26813436B609BE7C04674
:1031F0000020024000100240064A0008380000206B
:1032000088130000FFF8FFFFF0B50368050085B0E4
:10321000DB032BD580220021414C5205E36900914C
:10322000134208D1E3691343E361E3691340039355
:10323000039B0123009380273A4E7F0033683B4273
:103240003BD0216AC022080092006B68364E1040C5
:10325000114244D1236A6A68334013432362009BBE
:10326000012B03D1E369314A1340E3612B68DA078C
:1032700006D503202A490A6B8243A86802430A63E1
:103280009A0606D5102026490A6B8243E868024355
:103290000A639A0306D5802021490A6B8243686934
:1032A00002430A6300205B0517D540211C4A136BBB
:1032B0008B4329690B4313630FE033683B4333604F
:1032C000FDF75AFC019033683B42BAD1FDF754FC3C
:1032D000019BC01A6428F6D9032005B0F0BD134045
:1032E0008342B7D08022236A206A19005202024327
:1032F0002262226A0E483140024022622162DB07CC
:10330000A8D5FDF739FC07000222236A1342A1D198
:10331000FDF732FC074BC01B9842F5D9DCE7C046ED
:103320000010024000700040FFFCFFFFFFFFFFEFB6
:10333000FFFFFEFF88130000012300220B4940011C
:1033400010B58B61CB61086048608860C8600B6213
:1033500007480D334A610A614B62FDF72EFF0028D2
:1033600002D09822034B1A7010BDC04620030020E3
:10337000AC0100200C01002030B5124B85B01B7849
:10338000002B1CD0104B114D114C6B60FEF71EFB37
:10339000012303930023694601A802940193FEF7D9
:1033A000C5FB0C4B2100EB181A5902200023FEF735
:1033B00055FB094B04349C42F3D1FEF71BFB05B0CF
:1033C00030BDC0460E010020785634121001002096
:1033D000007C00080084FFF7507C0008002370B5D3
:1033E000084A094C0948195F08321160195E023316
:1033F0005160122BF7D10122054B1A70FFF7BCFF69
:1034000070BDC046100100202400002048030020A9
:103410000E0100200A00084910B51C0008600A616E
:10342000064B074A0748FDF76BFF002802D0012032
:10343000054B1C7010BDC046D0000020E8000020E5
:10344000C8000020AC0100200C010020F8B50600E7
:103450000F00FDF791FB194B1B68984227D9184DB7
:10346000184C2B78BB4218D2FDF786FB2368C01A94
:10347000642811D914490B785A425A41D2B20A70C1
:10348000002B02D02B7801332B7008210F48FEF758
:1034900049FCFDF771FB2060F8BDFDF76DFB23686B
:1034A000C01AB042F8D900232B702360F4E7064B12
:1034B0001A78002AF0D101321A70EDE7F0000020EE
:1034C0001D0300200C030020090300200004004815
:1034D00030B5102499B02C2200210DA801F0E6F996
:1034E0002200002101A801F0E1F91822002105A81D
:1034F00001F0DCF903230B9380235B0215938023F7
:1035000001250F94DB020E3C0BA8149416930C9526
:103510000E95FFF755FB072302940024290001A80C
:10352000019303940494FFF7E3FD202305A805937A
:103530000894FFF769FE19B030BD704710B500213F
:10354000064B074AFDF740FF002802D05A22054BE0
:103550001A700122044B1A7010BDC046A40000204E
:10356000AC0000200C0100201C030020704700006C
:1035700070B51A4B1A4C012925D11B782170002BEC
:103580000FD1184D184E59008A5B013312B2121236
:103590002A708A5B6A700235092BF4D11222134B10
:1035A0001A70124B1A78002A06D102232370104B8E
:1035B0001A70FEF709FE70BD80230A4992B29B047F
:1035C000FEF782FCF7E700222270094A11780122F7
:1035D000591880235B04FEF737FDECE7EC0200206E
:1035E0001D000020F60200208000002008030020BB
:1035F000F50200200222044B10B51A700022034B82
:103600001A70FEF7E1FD10BD1D000020F50200203C
:1036100010B5094A1378082B0DD80133DBB21370AB
:10362000064A1278002A06D105490132C9188023BA
:103630005B04FEF709FD10BDF50200201D0000200F
:10364000EC0200200022014B1A7070470803002092
:1036500010B5FEF7B9FD10BD8021084A10B51368FA
:1036600004008B43C1010B4313600122044B1A7009
:10367000FFF782FE034B1C7010BDC04610010020F6
:103680000E010020210000200023F0B597B0049324
:103690000893FDF755FAFFF71BFF1422002111A82C
:1036A00001F004F98022C14CD2026369082113435E
:1036B00063616369BE48134080220E930E9B636969
:1036C000D2031343636163690126134080220F9381
:1036D0000F9B63699202134363616369082513407A
:1036E00010930022109BFEF71DFB0023B04811A988
:1036F0001195139314931296FEF762FA00226369F0
:103700001100334363616369092033400D930D9BBE
:10371000FEF700F80920FEF727F800220C27110019
:103720000A20FDF7F7FF0A20FEF71EF83A000021F5
:1037300011A801F0BBF89F4C9F4B0022236080230F
:103740001B0663600023E3600433636180235B0234
:10375000A361C223FF33E3612000631DA5602262E1
:10376000DE772661A662FDF76FFA002280231192B0
:103770005B01073211A9200013921293FDF710FC90
:1037800011A920001196FDF70BFC022311A92000BE
:103790001193FDF705FC032311A920001193FDF7F8
:1037A000FFFB042311A920001193FDF7F9FB05236A
:1037B00011A920001193FDF7F3FB062311A92000A6
:1037C0001193FDF7EDFB072211A920001192FDF7DF
:1037D000E7FB11A920001195FDF7E2FB774D784B2F
:1037E00028002B600023AB60EB60C0231B032B6120
:1037F00080235B036B6180235B00AB610023AB83A1
:103800006F60FDF751FC6F4F6F4B38003B606F4BA3
:10381000FE607B601223BB6000233B617B61BB6168
:1038200080231B03FB6100233B62FEF7F7FA0021B4
:103830003800FFF77BF900213800FFF79DF9644954
:10384000644A654B5018654940CBC6508B42FBD14A
:10385000136863491806C00F0870624F51686248C8
:103860001E0E3E70814201D1072E0ED90021012685
:103870001B023970190A1160DB0B594A33403000C2
:103880001370FFF7E9FE594B1E703A78584B5200FF
:10389000D05AFFF751FD4948FDF702FD002802D03C
:1038A0004C22544B1A7003212800FDF712FE00230E
:1038B0000121514A4C485160D360936013754F4ABF
:1038C00011704F4A1370434A516881425ED0494D8E
:1038D0002B78642B14D83B48FEF776FC9123002804
:1038E00060D12B78642B0BD8092220004549FDF7C5
:1038F0004FFA022855D0032856D06923012851D009
:10390000FFF73AFD404B1B78002B00D116E13F4DED
:103910003F4F2C783C80322C00D97FE0032C00D81C
:1039200086E0201F2E2800D982E0FCF7F7FB70020A
:103930008100810081008100C5008100810081003B
:10394000B0018100810078026702A00281007A0242
:10395000810081008D029602C60181001D02810056
:1039600081008100810081008100B601B401F10075
:103970008100810081000302FF018100810081003C
:10398000810081008100D50181000502214D22497D
:10399000906808325853506858520233122BF7D1AE
:1039A00095E703232B70ABE70423FBE700100240ED
:1039B000000400486C01002000240140AC010020FC
:1039C00000640040A0020020005400400E090020C6
:1039D000FC83FFF710010020007C0008507C0008E9
:1039E00021000020F6000020785634120E0100203D
:1039F000E64900080C010020D0000020120300203E
:103A000013030020800000201C030020A4000020DD
:103A1000F80000202400002048030020552C00D18D
:103A20009BE13ED8402C00D165E1542C00D191E1BE
:103A30002722CF4B11AE1A70CE491B3A300000F04E
:103A400061FF0822002114A800F030FF20000024AC
:103A500010220CA900F0F1FE0CAB1B7873700CABBC
:103A60005B78B3700CAB9B78F37007212300614344
:103A7000C14A1C33137011ABC9180023CE5CD01897
:103A800001334670072BF9D1BC49BD4B097801348D
:103A90004900C85A4D230821FFF7BCFC042CE4D18F
:103AA00036E0FF2CC4D1B549B54B0978B24A49007C
:103AB000C85A14702F2328E000220821B148FEF7CD
:103AC00031F912220021B04800F0F0FEAF4BB04AAD
:103AD0000193013CE4B21A800233002CF9D1FDF7C6
:103AE0004BF80290FDF748F8029BC01AA94B984288
:103AF00000D8ADE0FFF772FCFF23A0499E4A097889
:103B000013709F4B4900C85A48230121FFF782FCDC
:103B1000A14B1B69022B0ED93B880422190091434B
:103B2000102902D0173B012B05D8AB7869789B4A46
:103B30001B020B4313800022994B1A7000229446FB
:103B4000984B99491C78994E994B9A4F5000002CEC
:103B500000D197E1022C00D08BE10D5A1E802DB2CE
:103B6000BD4200DC8EE101320233092AEED1002C85
:103B700002D000228B4B1A700022012094461100C3
:103B80008D4B814E1B78814D0A938C4B06921B788E
:103B9000079205938A4B09920393854B01920293F6
:103BA000029C4B001C5F0A9B002B0DD00027F35F8B
:103BB000A34201DA844634800027EB5FA34203DD91
:103BC000002C01D084462C800027F35F0B93002348
:103BD000EF5E0B9BDF19FB0FDB195B101B1B039CBC
:103BE0001BB2A34200DC50E1059C002C00D054E144
:103BF000002B00DD55E10790002900D053E1DC17D0
:103C0000E41AE30F089306900131023602350929C0
:103C1000C6D1002A02D06B4B049A1A70069B002B67
:103C200002D0694B089A1A70079B002B02D0012220
:103C3000664B1A70099B664C002B00D13CE10123B6
:103C400023706346002B00D13DE1FFF7C7FB37E14E
:103C5000554B00229C464C480199644653001B5B1F
:103C60000026845F1BB29C4200DA038000268C5F32
:103C70009C4202DD002B00D00B8001320230023169
:103C8000092AEAD119215348FFF7E0FB2AE7524BF2
:103C900001221A703CE7514BFAE7514B1B68013B7C
:103CA000033300D834E723233449334A09781370A7
:103CB0004C4B4900C85A072327E71A232E4A2F499D
:103CC0001370123B53700023097893702C4B4900FA
:103CD000C85A2523032119E73123274A274913709E
:103CE000414B09781B88490053701B0A9370244B81
:103CF000C85A2623EEE76978082902D932221C4BDC
:103D0000C7E73A4A1D4C136821701B0209061B0ABB
:103D10000B4313600122364B1A70FFF72DFB2278FC
:103D2000304B5200D05AFFF707FBF1E60020FFF7B7
:103D300093FCEDE60120FAE733230F4A0F49137095
:103D40002C4B09781B78490053700D4BC85A6123DE
:103D50000221DBE6284B6A789BE7AB7869780F4A4B
:103D60001B020B431380D3E6FDF70AFDD0E6C046E5
:103D70000C01002030490008C8000020F600002097
:103D8000F6490008000400484803002024000020F1
:103D9000FF03000087130000AC0000202200002079
:103DA0001C03002020000020800000200F270000BE
:103DB000920000200E270000EC00002008000020E8
:103DC000F0D8FFFFFB000020FA000020F4000020E4
:103DD000FC00002088130000F500002006010020F0
:103DE00008010020E64900086401002010010020BD
:103DF0000E010020210000201E030020BB4B0122E9
:103E00001A700022BA4B1A70BA4B063241E70123EE
:103E1000B64A1370B64A1370B74A137078E6B74BB8
:103E2000EDE701210022B54BB5481970B04B007881
:103E30001A70B04B06321A7041238840B14A137091
:103E4000B14BC05A392361E60122AC4B1A70A84B22
:103E50001A70A94B1A70AD4B1BE70123A74A1370C8
:103E6000A34A1370A44A1370A84B002211E7A34B76
:103E7000FBE7012C06D165461D800D5A2DB2002DA1
:103E800000DC70E6085A18806DE6039CA34200DB54
:103E9000AEE6059C002C00D0AAE6CCB201940393B8
:103EA000A6E60990A8E6082900D0ADE6DA17D21AEE
:103EB000D30F04930200A7E66346002B00D0C4E6AC
:103EC0002378002B03D0914B1B78002B08D1904B0B
:103ED0001B78181E33D000208C4B1B7883422ED1C8
:103EE0000199019B894A01311278013B0691894968
:103EF0005BB2059200241A008C46874E874F0699C4
:103F00008A4200DC89E0834A00250792824A0395B1
:103F10000992824A0A92824A9446069A9A4200DBA1
:103F20009AE00398FCF778FD041C2800FCF774FD68
:103F3000011C201CFCF7E6F9FCF7CCF980B26F4BB2
:103F40006A4E784C1B7832782080134300D1BDE054
:103F5000FCF712FE744D2B68C01A744B1B889842F4
:103F600000D8B3E00023624A33701178994200D13F
:103F7000E8E06A4A67499446674862465F00BE5E69
:103F80007A5E3F5ED719FA0FD21952100127964276
:103F900000DB002711AE9F55654EFAB29E5D082BDF
:103FA00000D181E001339642E7D00E23554A11AD8E
:103FB00013700021635E53701B12937069782B7825
:103FC0008901DB010B43A97849010B43E978090119
:103FD0000B432979C9000B43697989000B43A979FF
:103FE00049000B43E9790B43D37045492B7A097893
:103FF0001371454B4900C85A12230521FFF70AFAED
:104000004C4B228829001A804948092200F07AFC8A
:10401000FCF7B2FD444B186055E0D0B2082816D822
:1040200061465200515E0391955F0399D25B4D1931
:10403000E90F4919059D491089B2002D0AD08A1A45
:1040400092B2111C12B2A24200DD211C0CB201304E
:1040500042B254E7521AF3E7DEB2082E1FD8079A8D
:104060005F00B95E099ABA5E05988A18D10F89185F
:104070000A9A4910BA5A89B2002813D08A1A0199AB
:1040800092B25B1A0133022B09D86346121BD95B2B
:1040900013B24B4303995519CB1803932DB2013634
:1040A00073B23AE7521AEAE70023E15E964200D083
:1040B0007BE7204B1B88994200D076E70E4B1B789C
:1040C000002B00D071E701221B4B1A701B491C4DBD
:1040D0000878002800D198E001380A4A052800D95C
:1040E000CEE0FCF711F866ACB1B7BDC714030020F1
:1040F00013030020090000201C00002012030020F0
:10410000F6000020C8000020F64900080800002042
:10411000F40000204803002024000020920000202A
:104120000A000020100300201803002022000020B5
:10413000FD0000201E00002020000020F5000020CF
:104140000C0100209D489E4A03781370072B26D04F
:10415000082B28D00724062B28D1047002984B0086
:10416000C35E18125070937002984B1C5B00C35EC4
:10417000023118121371029B49005B5ED070191254
:1041800051719049937109788F4B4900C85A08239F
:104190001900FFF73FF9FCF7EFFC286093E70823CD
:1041A00003210370DAE706210170D7E7874B1C7003
:1041B000D4E702230B70083313700023844958009E
:1041C000415A00200C0A9170591C54704900804CCF
:1041D000002800D07F4C615A02330C0A1171D47050
:1041E0007C495B00002800D17949CB5A190A5171EA
:1041F000744993710978744B4900C85A44230821C3
:10420000FFF708F90120FCF7BDFC734B1B78002B6E
:104210005FD0724C23685A1C5BD0002B33D0704B9C
:1042200001931B78002B00D087E0FCF7A5FC2368E6
:10423000C01A64284DD901235B42236049E003235F
:104240000B700B211170B9E704230B700833137046
:10425000063BB3E705230B700A331370002304E019
:1042600006230B704A3313704D3B5A495800415A8C
:104270000120A7E700230B70513313704B3BF4E789
:1042800026232B70EAE7FCF777FC564B06001868EC
:10429000554B56491B68C018554B1B68C018554BE9
:1042A0001B68C018FBF7CAFFC8318E420ED9FCF755
:1042B00063FC22234349424A097813704E4B49005C
:1042C0002060C85A13230121FFF7A4F82368002BAC
:1042D000A5D14A4C2B7822789A420ED0EE21384A4A
:1042E0001170384953700978374B4900C85A0A236E
:1042F0000221FFF78FF82B7823702B780121002BF8
:1043000003D00221632B00D90321FA208000FFF79C
:104310009DF8FCF731FC3A4E04003168394B411AE4
:10432000FA208000814243D91B68374D5843FBF780
:10433000FFFE34602880FFF7E5FA344A1378013332
:10434000DBB21370082B07D16A332B70733B2360E9
:104350000023019A1370BCE71A4A13780133DBB2C9
:10436000082B23D001261370294A164F1368397879
:104370001B0209061B0A0B431360264B1E70FEF737
:10438000FBFF3A781C4BB240D05AFEF7D5FF002312
:104390003200082120482360FDF7C4FCFCF7ECFB49
:1043A00096221E4B920080181860D1E70023D9E7AF
:1043B0001A6801321A60FFF7A5FAC046090000200A
:1043C000C8000020F6000020F64900080C0100207B
:1043D00024000020480300202100002008010020C4
:1043E00006010020ACF7FF1FB0F7FF1F03260000F7
:1043F000B4F7FF1FB8F7FF1FE64900080D010020C2
:10440000680100206001002064010020F700002006
:10441000100100200E01002000040048F0000020E0
:104420007047000001210C4B82B09A690A439A61DF
:104430009A690A4080210092009ADA6949050A4384
:10444000DA61DB69054A0B400193019B1023116877
:104450000B43136002B0704700100240000001409F
:1044600070B5050088B01422002103A800F01EFAE0
:10447000294B2A689A424DD18021284B89009A699C
:1044800090200A439A619A6903240A40802100928D
:10449000009A5A6989020A435A615A69C0050A405A
:1044A00080210192019A5A69C9020A435A615B69E3
:1044B00000260B400293029BFF2303A9039304945D
:1044C000FDF77EFB0123164803A903930494059688
:1044D000FDF776FB134C144B200023608023E36030
:1044E000DB1823618023DB00636120236660A66004
:1044F000A361E661FDF76CF9B04201D0FFF790FFD0
:1045000000220C2011002C636562FDF703F90C20DA
:10451000FDF72AF908B070BD0024014000100240E8
:1045200000040048D40100200800024070B50400D7
:1045300088B01422002103A800F0B8F9214B2268AA
:104540009A423DD18021204B8904DA6902240A4332
:10455000DA61DA6903260A4080210092009A5A69DA
:10456000C9020A435A615A6904250A40802101920E
:10457000019A5A6989020A435A615B6913480B40E0
:104580000293029B802303A95B0003930494069685
:104590000795FDF715FB80239020049400245B0110
:1045A00003A9C0050393059406960795FDF708FB3C
:1045B0001E2022002100FDF7ADF81E20FDF7D4F8E3
:1045C00008B070BD006400400010024000040048C4
:1045D00030B5050089B01422002103A800F066F967
:1045E0002C4B2A689A4252D180222B4CD20263690A
:1045F0002A4813436361636903A913400193019B34
:10460000C02303220393AE3B0493113B0593069210
:104610000793FDF7D5FA8022E36992031343E36120
:10462000E3691F4C13400293029B1E4B80222360C0
:10463000002320006360A360E26023616361A361E3
:10464000E361FDF7C5F8002801D0FFF7E9FE164B3E
:10465000EC636562154C80222360102363600023A5
:104660002000A360E26023616361A361E361FDF761
:10467000AFF8002801D0FFF7D3FE00221720110069
:10468000AC636562FDF746F81720FDF76DF809B0D9
:1046900030BDC046005400400010024000040048F5
:1046A00018020020300002401C0002405C02002082
:1046B0007047FEE77047704710B5FCF751FA10BD20
:1046C00010B50248FDF717F910BDC046D40100200F
:1046D00010B50348FDF70FF90248FDF70CF910BDBE
:1046E0005C0200201802002010B50248FCF7E8FB2D
:1046F00010BDC0466C010020064810B503689A69D9
:10470000E023DB001A4202D0FEF722F810BDFDF7CD
:104710006FFDFBE7A002002010B50248FCF7F8FE91
:1047200010BDC046AC0100200121114B11481A6890
:104730000A431A605A6802405A601A680E480240DA
:104740001A601A680D4802401A605A680C48024004
:104750000F205A60DA6A8243DA621A6B0948024013
:104760001A635A6B8A435A6300229A607047C046A4
:10477000001002400CB8FF08FFFFF6FEFFFFFBFF32
:10478000FFFFC0FF2CFEFFFF13488546134801685A
:10479000090E134A914205D112481349016013488A
:1047A0001349016013481449144A002302E0D45805
:1047B000C4500433C4188C42F9D3114A114C00235D
:1047C00001E013600432A242FBD3FFF7ADFF00F01B
:1047D00075F8FEF759FFFEE7FF1700200400000000
:1047E0001F000000181002400100000000000140FE
:1047F00000000000000000203C000020444A0008A7
:10480000400000205C030020FEE7931E10B50C0062
:10481000222B04D900231C000B70200010BD0A2A93
:1048200009D1002807DA2D230B70012140426118BD
:1048300000F008F8F1E70021F9E710B5FFF7E5FF10
:1048400010BD0000F0B50C0016008DB02522070049
:10485000154902A800F056F8621EB31E0025019209
:10486000222B04D925702C0020000DB0F0BD38009B
:104870003100FBF7E3FC0B0002AAD35C019A29008C
:10488000013553553B0007009E42F0D9002322001A
:1048900063550B00C81A8342E6DD1078E55C15709D
:1048A000E0540132013BF5E7164A00080300821884
:1048B000934200D1704719700133F9E770B50026B3
:1048C0000C4C0D4D641BA410A64209D1002600F02B
:1048D00023F80A4C0A4D641BA410A64205D170BDF2
:1048E000B300EB5898470136EEE7B300EB58984712
:1048F0000136F2E73C4A00083C4A0008404A0008FA
:104900003C4A0008002310B59A4200D110BDCC5C8F
:10491000C4540133F8E70000F8B5C046F8BC08BC41
:104920009E467047F8B5C046F8BC08BC9E46704726
:10493000436F6D6D616E643A2030780000000000B6
:1049400000000000DC0400086A040008BE03000840
:1049500076030008BE030008A6040008BE03000892
:10496000760300086A0400086A040008A604000828
:10497000760300087C0300087C0300087C03000821
:10498000B40400086A0400086A040008BE030008B2
:1049900072030008BE030008A6040008BE03000856
:1049A000720300086A0400086A040008A6040008EC
:1049B000720300087C0300087C0300087C030008E5
:1049C000B004000802030405060708090A0B0C0DD1
:1049D0000E0F1010000102030405060708090A0B58
:1049E0000C0D0E0F10006001620164016601680188
:1049F0006A016C016E016101630165016701690172
:104A00006B016D016F010000000000000000010259
:104A10000304060708093031323334353637383964
:104A20006162636465666768696A6B6C6D6E6F70FE
:0C4A30007172737475767778797A0000E3
:044A3C00E900000885
:044A4000C1000008A9
:104A440001000000040000000106E803D007B80BD1
:104A5400A00F88137017581B401F28230102FFFF63
:104A640001010A00FF03FF03FF03FF03FF03FF032A
:0C4A7400FF03FF03FF03000000127A00A4
:04000005080047891F
:00000001FF
