:020000040800F2
:10000000FF170020214B0008494A00084B4A00080E
:1000100000000000000000000000000000000000E0
:100020000000000000000000000000004D4A000831
:1000300000000000000000004F4A0008514A00087C
:10004000A14B0008A14B0008A14B0008A14B0008E0
:10005000A14B0008A14B0008A14B0008A14B0008D0
:10006000A14B0008594A0008694A0008A14B000842
:10007000814A0008A14B0008A14B0008A14B0008D1
:10008000A14B00080000000000000000A14B000888
:1000900000000000A14B0008A14B0008914A000895
:1000A00000000000A14B0008A14B0008A14B000874
:1000B000A14B000800000000B14A0008A14B000855
:1000C00010B5064C2378002B07D1054B002B02D02E
:1000D000044800E000BF0123237010BD3800002059
:1000E00000000000B04C0008044B10B5002B03D0FA
:1000F0000349044800E000BF10BDC04600000000F6
:100100003C000020B04C000802B471464908490088
:10011000095C49008E4402BC7047C04603B4714676
:10012000490840004900095A49008E4403BC704701
:10013000002243088B4274D303098B425FD3030A26
:100140008B4244D3030B8B4228D3030C8B420DD339
:10015000FF22090212BA030C8B4202D312120902C7
:1001600065D0030B8B4219D300E0090AC30B8B4205
:1001700001D3CB03C01A5241830B8B4201D38B03B3
:10018000C01A5241430B8B4201D34B03C01A524158
:10019000030B8B4201D30B03C01A5241C30A8B429B
:1001A00001D3CB02C01A5241830A8B4201D38B0286
:1001B000C01A5241430A8B4201D34B02C01A52412A
:1001C000030A8B4201D30B02C01A5241CDD2C3099C
:1001D0008B4201D3CB01C01A524183098B4201D318
:1001E0008B01C01A524143098B4201D34B01C01A03
:1001F000524103098B4201D30B01C01A5241C3087B
:100200008B4201D3CB00C01A524183088B4201D3E9
:100210008B00C01A524143088B4201D34B00C01AD5
:100220005241411A00D20146524110467047FFE741
:1002300001B5002000F006F802BDC0460029F7D045
:1002400076E770477047C046D0400B00D1409C46CF
:10025000203AD340184352426346934018437047B4
:100260009E2110B5C905041C00F02CFC002803D108
:10027000201C00F087FB10BD9E21201CC90500F04A
:100280001DF900F07FFB80231B069C466044F2E7CB
:10029000F0B546464F46D6464502C0B5C30F4700A7
:1002A00098460E1C6D0A3F0E5BD0FF2F21D0802395
:1002B000ED00DB041D43002399469A467F3F7402FC
:1002C0007300640A1B0EF60F002B20D0FF2B43D0C7
:1002D00080220020E400D20414437F3B4246FF1AF0
:1002E0004B4672400F2B00D99DE071499B00CB58C3
:1002F0009F46002D5AD108239946063B74029A4620
:100300007300FF27640A1B0EF60F002BDED1002CB2
:100310003BD1012342464946724019430E2918D861
:100320006448890041588F465346022B00D1B8E0FB
:10033000032B6ED042462C00012B40D1002000241C
:10034000C0052043D2071043E0BCBA46B146A846D8
:10035000F0BDFF200024F3E7002C20D10223FF3F53
:10036000D8E7002D05D104239946033B00279A4680
:10037000A5E7280000F0B0FB7627431F9D4000232F
:100380007F4299469A463F1A99E7200000F0A4FB65
:10039000431F9C4076235B421B1A00209EE70323E9
:1003A0004A461A4391460320FC3397E70C239946AB
:1003B000093BFF279A4682E703282CD032003800F9
:1003C0007F30002847DD630704D00F232340042B30
:1003D00000D00434230103D53800374B80301C4053
:1003E000FE28B6DCA401640AC0B2A9E7802400227A
:1003F000FF20E403A4E78023DB031D4201D01C425D
:100400000BD08024E4032C4364024246FF20640A9C
:1004100096E746462C008023DB031C43640232002F
:10042000FF20640A8CE76D01600185422DD21B23F9
:100430000024013F0126290064006D00002901DB32
:10044000854201D32D1A3443013B002BF3D16B1E9F
:100450009D412C43B3E701231B1A1B2B00DD6DE7E5
:1004600021009E37D940BC400B00611E8C412343C4
:10047000590704D00F211940042900D00433590131
:1004800013D49B0100205C0A5AE71A2301242D1A79
:10049000D0E7981E43425841404232000024C0B287
:1004A0004EE74246FF2000244AE70120002447E7A8
:1004B000DC4C00081C4D0008FFFFFFF7F8B547466D
:1004C000CE46430280B55F0A9B0945004A009C4620
:1004D0004B02C40FCE0F2D0E580A120E9909FF2A97
:1004E0006BD001235E40AB1AB4424BD0002B00DC32
:1004F000FFE0002A00D188E0FF2D00D1EFE080224C
:10050000D204114301201B2B08DC08002022D84014
:10051000D31A99400B005A1E9341184363461B1A85
:100520009C4663465B0100D4CDE063469F01BF0952
:10053000380000F0D1FA3B0005388340854200DCEA
:10054000A2E0B74A2D1A1A4094465A0700D1C3E0D8
:100550000F221340042B00D1BEE004239846C4446C
:1005600063465B0100D4B7E0681CFE2D00D0A5E017
:10057000FF200022C0051043E4072043C0BCB94659
:10058000B046F8BD002B00DCEBE1002A46D0FF2D81
:1005900000D1A4E08022D20411431B2B00DCFBE03D
:1005A000052398462B00C4446246D708FF2B00D190
:1005B00095E07A02520AD8B2DCE72B00FF3B99465D
:1005C000002918D101235E40B44200D1CAE04B4655
:1005D000002B2DD0002D00D03CE1FF236446002CE1
:1005E00000D15FE15D1E012B00D174E13400FF2BCF
:1005F00074D02B0003E1B44200D19CE0002B17D053
:10060000002DEAD0070034006CE00029CCD05A1E3F
:10061000012B2BD0FF2B62D0130073E70029C3D02E
:100620005A1E012B00D11EE1FF2B58D01300B4E756
:10063000FE226B1C1A420DD1002D60D06346002BA8
:1006400000D020E1002900D028E180220024FF20F2
:10065000D2038FE763465F1A7B0100D5FEE0002FCF
:1006600000D065E700240020002283E76346591A82
:100670004B0100D419E18F01BF09380000F02CFABA
:100680003B000538834001252022401B0130121A0F
:1006900019009340C1405A1E934119438C460B1ECA
:1006A000E1D05B0700D152E10F2300250B40042B62
:1006B00000D052E701204A0100D492E0C0B2634664
:1006C0009A01520A56E763465B0705D00F2362463C
:1006D0001340042B00D040E72B0065E70700002FF4
:1006E00000D145E78022D2033A435202FF20520A4A
:1006F00040E7002B79D1FE226B1C1A42AAD1634637
:10070000002B00D1F5E0002900D1D1E05F1A802351
:10071000DB041F4200D10EE1624601248A1A94468E
:1007200000203440002A00D124E701201A42C6D11B
:100730000023D7083DE7002B17D0002D00D0AFE0F5
:10074000FF236546002D00D1ADE05E1E012B00D1D8
:1007500089E0FF2BC2D01B2E00DCABE04B1D9C467A
:10076000130021E74B46002B70D1FE226B1C1A426E
:100770005ED1002D00D0C3E06346002B00D1D0E055
:10078000002900D194E00A006244530100D4D8E06B
:1007900092010120520AEDE608002022D840D31A27
:1007A00099400B005A1E934103439C4463465B01EE
:1007B00089D50135FF2D00D1DAE6624601231949BA
:1007C000134052080A401A43130094465B0704D0B2
:1007D0000F231340042B00D0BFE663465B0100D516
:1007E000C2E66346DF082B00E3E6531B002D00D171
:1007F000F4E680206446C0040443A446340001208B
:100800001B2B09DC20256046D840EB1A65469D402D
:100810002B005D1EAB4118430B1A9C46150080E669
:10082000FFFFFFFBFFFFFF7DFE226B1C1342A3D0E7
:10083000FF2B00D19CE6614449084A0749D00F22AA
:100840000A40042A45D00A1D9446ADE6002D00D189
:1008500076E78DE63400FF2000228BE66346012414
:10086000CF1A344064E661444B016DD548084449D1
:10087000014043072CD00F230340042B28D00B1D2D
:100880009C46022390E6002900D12BE78023DB035E
:100890009F4200D226E7984200D323E70124344048
:1008A00007001FE734008C467EE60123CF0880E670
:1008B00000237EE620206546801B85406346280095
:1008C000F340451EA84103439C4615008C446DE748
:1008D0000223CF086DE60F1B7B0128D5BF01BF099E
:1008E000380000F0F9F83B0005388340340001255A
:1008F000CAE6002900D1B5E601240700344058E6D5
:100900006346002B00D1E9E6002900D1EAE6802306
:10091000DB039F4200D2E5E6984200D3E2E60700FF
:10092000E0E6002900D19EE60023CF0841E634002E
:100930000123FF083DE6002F00D193E60023FF08C6
:1009400037E60023D70834E60123CF0831E68022BA
:100950000B00D20401201340114200D0AEE6CF08B4
:1009600027E6002B00D15FE7561B002D01D1330095
:10097000E7E680236046DB0418438446EBE6C04686
:10098000FFFFFF7D41024200C30F490A0020120E03
:100990007E2A03DD9D2A02DD094A981870478020CF
:1009A00000040143952A07DC9620821AD140484270
:1009B000002BF3D10800F1E7963A9140F7E7C046E3
:1009C000FFFFFF7F70B5002812D0C317C5185D4028
:1009D000C40F280000F080F89E231B1A962B0FDC12
:1009E000082838D0083885406D026D0AD8B202E078
:1009F000002400200025C0052843E407204370BDE3
:100A0000992B14DC421F95402A00154911405507C7
:100A10001CD00F252A40042A18D00431CA084901E5
:100A200015D59F235202181A550AC0B2E3E70522D2
:100A30002900121AD14002001B3295402A00551E8F
:100A4000AA410A43064911405507E2D1CA08520299
:100A5000550AD8B2CFE76D026D0A8E30CBE7C0469B
:100A6000FFFFFFFB844608006146FFE71FB500F06B
:100A7000C1F8002801D40021C8421FBD10B500F004
:100A800049F84042013010BD10B500F0B3F800281D
:100A900001DB002010BD012010BDC04610B500F0E4
:100AA000A9F8002801DD002010BD012010BDC046BE
:100AB00010B500F057F8002801DC002010BD01201F
:100AC00010BDC04610B500F04DF8002801DA002036
:100AD00010BD012010BDC0461C2101231B049842FB
:100AE00001D3000C10391B0A984201D3000A0839BF
:100AF0001B09984201D30009043902A2105C401876
:100B00007047C04604030202010101010000000019
:100B10000000000070B542004E024C0045026D0A14
:100B2000120EC30F760A240EC90FFF2A10D0FF2C15
:100B30000CD00120A2420AD1B54208D18B420FD07D
:100B4000002A04D12800431E984100E0012070BD16
:100B50000120FF2CFBD13543F9D14B401800F6E7BB
:100B60000020F4E730B5420044024D02C30F4800B4
:100B7000640A120E6D0A000EC90FFF2A18D0FF2852
:100B80000AD0002A1ED100280AD1002D29D0002C1D
:100B90002DD14800013830BD002D25D1002A01D1CA
:100BA000002CF6D08B4219D001205B421843F2E7AB
:100BB000002C19D1FF28F7D1002D15D100208B4230
:100BC000F2D1E8E70028EFD08B42EDD18242EBDC96
:100BD00004DBAC42E8D80020AC42DCD2580001383B
:100BE000D9E7002CD7D0DFE702204042D3E78B4281
:100BF000DAD1EEE730B5420044024D02C30F48009F
:100C0000640A120E6D0A000EC90FFF2A17D0FF28C2
:100C10000AD0002A1BD100280AD1002D1DD0002C9B
:100C20002DD14800013811E0002D0ED1002A01D14C
:100C3000002CF6D08B420CD15800013806E0002C75
:100C400003D1FF2805D1002D15D0022030BD00288A
:100C500006D101205B421843F8E7002CF6D0F8E7F4
:100C60008B42F6D18242F4DCE6DBAC42F1D80020C4
:100C7000AC42EBD2E0E700208B42EAD1E6E78B42C0
:100C8000E7D1F2E770B50500FA200D4B8000197826
:100C9000FFF74EFA0B4C01002068FFF749FA00F00D
:100CA00023FE04000120002C09D1032D07D80238AF
:100CB0002200290000F0D4FD2000034B1D6070BD10
:100CC0000000002034000020040000201023064A09
:100CD00010B5116800200B431360FFF7D3FF03F03A
:100CE0006DFD002010BDC04600200240034A044BA9
:100CF00011681B785B1813607047C04654000020D1
:100D000000000020014B18687047C04654000020C6
:100D100070B50400FFF7F6FF0500631C02D0044B1A
:100D20001B78E418FFF7EEFF401BA042FAD370BD1A
:100D300000000020002373B5032101930368040021
:100D40009A680A40012A07D11968114201D000208F
:100D500076BDDA681204FAD499681B4A114209D0A8
:100D60001023A26B1343A3630123E26B13430120FF
:100D7000E363EDE7012299680A439A60134B144933
:100D80001868FFF7D5F90190019B002B17D1FFF7E9
:100D9000B9FF0125060023681B682B42D7D1FFF756
:100DA000B1FF801B0228F6D923681B682B42F2D1C1
:100DB0001023A26B1343A363E36B2B43D7E7019B81
:100DC000013B0193E0E7C04617000080340000209B
:100DD00040420F0070B5041E00D190E0836B002BE1
:100DE00005D102003432C363137003F005FDA36B19
:100DF000DB0600D585E0226893685B0700D580E0BC
:100E0000A16B424B19400633FF330B430321A3630D
:100E100093680B40012B05D1116819420ED1D3689C
:100E20001B040BD41821D3688B43A1680B43D360F8
:100E3000136961689B009B080B431361D3683449B5
:100E40000B40D360237E607E9B03C0030343A17EDF
:100E5000E068034348030343601DC07F4000034331
:100E6000A06A0138451EA8410003034320690238E7
:100E70004542684180000343E07E012804D10029F7
:100E80002BD1802149020B43C220E169FF3081420E
:100E900002D0206A01430B438020D16840051943EA
:100EA000D160E16A814202D0481E062807D8072592
:100EB00050692940A8435061506901435161D2688B
:100EC00014490A409A4210D100200323E063A26B28
:100ED0009A43023B1343A36370BD2021A56B2943B2
:100EE000A163E16B0843E063CEE71223A26B9A4350
:100EF000023B1343A3630123E26B1343E36301202B
:100F0000EAE71023A26B1343A363F8E7FDFEFFFF9C
:100F10001902FEFFE7FF3F83F7B5036804009B68F3
:100F20000E00022001925B0730D4270034373B7853
:100F3000012B2BD001233B70637E012B27D1A26BA9
:100F4000164B00251A4080235B001343A363E5631F
:100F50003D70206B124B21688362124BC362124BAF
:100F600003631C230B604A680C3B13434B60012353
:100F7000CA681343CB603200019B403100F000FD92
:100F800004232800226891680B439360FEBD200073
:100F9000FFF7D0FE0028D2D0F8E7C046FEF0FFFFF2
:100FA000AD0F00081F1000082D1000085022436AE2
:100FB00010B5996B11422BD1996BB132FF320A43B4
:100FC000C0219A631A680901D068084213D1997E3A
:100FD000002910D1116809070DD5916849070ED471
:100FE0000C20516881435160996B0B4A11400432C7
:100FF000FF320A439A63180003F04EFB10BD202213
:10100000996B0A439A630122D96B0A43DA63F2E7C8
:101010001B6B1B6B9847F1E7FEFEFFFF704710B597
:10102000406AFFF7FBFF10BD704770474023406ADE
:1010300010B5826B134383630423C26B1343C363F2
:10104000FFF7F3FF10BD00000422F8B503680400A9
:101050001D685E68154201D0164204D1082215426F
:1010600027D0164225D0A26BD20604D48022A16BD1
:1010700092000A43A263C022D9681201114212D120
:10108000A27E002A0FD12A070DD59A68520738D4BC
:101090000C215A688A435A60A26B1E4B1A400433D3
:1010A000FF331343A363200003F0F6FA0C222368F6
:1010B0001A6080273D420BD03E4209D08023A26BAC
:1010C0005B021343A3632000FFF7AEFF23681F609A
:1010D00010231D4214D01E4212D0A36A2268012B95
:1010E00002D0D368DB0708D50223E16B20000B4355
:1010F000E36310231360FFF798FF102223681A6040
:10110000F8BD2023A26B1343A3630123E26B1343B7
:10111000E363C8E7FEFEFFFFF7B50022040001927B
:10112000343422780300C66A0220012A2CD0013808
:1011300020701A6895686D075BD40B684F681D00B6
:10114000BC462E4F9840103DBC453CD0976A384372
:101150009062072E0FD8002E11D10720566989689A
:101160000640B1420BD0566901408643566156692C
:101170003143516103E0802040058642EDD1022DCC
:1011800003D9002000232370FEBD1D488021026882
:10119000102B14D0112B14D1C9030A430260102B59
:1011A000EFD1184B18491868FEF7C2FF0A234343D2
:1011B0000193019B002BE4D0019B013BF8E709045C
:1011C000EBE74904E9E7916A81439162022DD8D89F
:1011D0000B4A1168102B0AD0113B581E83410B4853
:1011E0005B4203400A481B180B401360C9E7094BD8
:1011F000FAE72022996B0A439A63C3E701100000C3
:10120000082701403400002040420F00000040FF4A
:10121000FFFFBFFFFFFF7FFFF8B5041E62D0451C34
:10122000EB7F002B01D103F04DFB012722681368EF
:101230003B431360FFF766FD060023685A683A4295
:1012400044D002271A68BA431A60FFF75BFD060014
:1012500023685A683A4247D1217E8022012949D128
:1012600019680A431A60617E4022012946D1196833
:101270000A431A60A17E2022012943D119680A433A
:101280001A60E17E1022012940D11968914319604A
:10129000217F082201293DD119680A431A60617F24
:1012A000042201293AD119680A431A60E168A26848
:1012B00000200A4321690A4361690A4361680139D0
:1012C0000A43DA6101236062EB770CE0FFF71AFD55
:1012D000801B0A28B1D98023626A9B021343636290
:1012E0000523EB770120F8BDFFF70CFD801B0A28D2
:1012F000AED9F0E7196891431960B4E719689143D2
:101300001960B7E7196891431960BAE719680A4389
:101310001A60BDE7196891431960C0E719689143E5
:101320001960C3E770B5421CD27F0368013A012AF5
:1013300064D880240120A4001A59872602431A5138
:101340004A69E23CFF3C1440A040B6009C59C543AA
:1013500084439C51CC69002C35D1103E9C59D2005D
:101360002C409C51CC684E682404B6B2344390267D
:101370009A18B60094518C680E682404B6B23443AF
:101380009126B600945181228C699200002C2FD1B5
:101390009C582C409C5085220C699200002C2AD12C
:1013A0009C582C409C500A6A012A04D1872189004C
:1013B0005A5802435A508021012089005A588243CA
:1013C00000205A5070BD012CDDD18326B6009C59F7
:1013D000D20004439C510C684E682404B6B23443D6
:1013E00090269A18B60094518C68CE682404C5E7FC
:1013F0009C580443CEE79C580443D3E78023426AB9
:10140000DB02134343620120DCE7F8B5471CFB7F96
:101410000400DDB2012B1ED10133FB770268136893
:10142000AB431360FFF76EFC060023685B6818008F
:1014300028402B4201D16062F8BDFFF763FC801B9E
:101440000A28F2D98023626A9B0213436362052350
:10145000FB770120F0E78023426A1B0313434362BA
:10146000F7E7F0B5441CE67F0568013EAC68012E45
:1014700050D8E0267605344245D0A0010124800FE3
:1014800084401C6004008F68CE681834002F35D16A
:101490000B685B05334324016351C2230E690001CD
:1014A0002C185B00E650097D012903D1E658FF3175
:1014B0003143E150517913790902194393791B049F
:1014C0000B43D179090619432B1818008D30FF30D2
:1014D000016050781178000208439178D2780904AD
:1014E0000143120689330A43FF331A60C0220123E5
:1014F00000205200A1580B43A350F0BD4B68374366
:10150000DB003B43C7E78023426A9B0313434362EC
:101510000120F2E78023426ADB02F7E7F7B5441CBB
:101520000191E47F013C012C00D97AE00324056895
:10153000002909D1EE68264208D18023426A9B0324
:10154000134343620120FEBD2E69F4E7D8260199BA
:1015500076000C0104212C19A7590F40976058D12F
:10156000A7597F0D17600227A6593E40D66008266E
:10157000B337FF37E159314202D10F21E6590E400E
:101580001661E659E459360A240CF6B254619661A4
:10159000019A01991201AD18B935FF352C681C70FC
:1015A0000468A418B934FF342468240A5C70046801
:1015B000A418B934FF342468240C9C700468A4185F
:1015C000B934FF342468240EDC700468A418BD34D8
:1015D000FF3424681C710468A418BD34FF342468E7
:1015E000240A5C710468A418BD34FF342468240CF8
:1015F0009C710468A218BD32FF321268120EDA71B3
:1016000002682023002908D1D1680B43D360002051
:1016100099E7A759FF085760A5E711690B431361C4
:10162000F5E78023426ADB028AE7421CD27F0B0087
:10163000013A012A05D80268002051691943516115
:1016400070478023426ADB02134343620120F7E7BD
:1016500070477047704770477047704770477047D2
:101660007047704770477047F0B5036885B05E6992
:101670005A689F680192DA68340002921A6905007C
:1016800003929A69009201221440164220D0174218
:1016900005D09A60BB0700D4A9E0FFF7D9FF00246A
:1016A00080235B001F4207D02A689360BB0500D4EB
:1016B000AAE02800FFF7CDFF80235B021F4207D07E
:1016C0002A689360BA0300D4ADE02800FFF7C2FF98
:1016D000330708D51023029A1A4204D080229200C0
:1016E00014432A68D360730708D50823029A1A4264
:1016F00004D02A682800D360FFF7B0FFB30706D5EF
:101700002B68DB689B0702D0280002F0C7FF730636
:1017100008D51023039A1A4204D08022D200144321
:101720002A681361B30608D50823039A1A4204D025
:101730002A6828001361FFF793FFF30606D52B688C
:101740001B699B0702D02800FFF789FFB30308D568
:101750001023019A1A4204D02A6828005360FFF728
:1017600080FFF30308D50823019A1A4204D02A689F
:1017700028005360FFF776FF33042ED5019B2A68BB
:101780005B0728D5F30503D5012300990B401C43C3
:10179000B30504D502230099194200D01C437305F8
:1017A00004D504230099194200D01C43360512D5F4
:1017B0007021009B00980B4008420CD0402B46D073
:1017C0003DD8202B45D0302B45D0102B3ED070215A
:1017D00093698B43936104235360002C05D06B6A9B
:1017E000280023436B62FFF73EFF05B0F0BD7B0787
:1017F00004D43B0705D4FFF72EFF50E780242401D3
:101800004EE7802464014BE77B0503D580239B01D1
:101810001C4351E73B0502D58023DB01F8E7280094
:10182000FFF71AFF48E77A0303D580231B021C4306
:101830004EE73F03FBD42800FFF70FFF48E7502B8C
:101840000BD0602BC3D180235B0000E008231C4336
:10185000BDE71023FBE72023F9E78023F7E700002B
:1018600010B5FF2403220B0021000240D20091405A
:101870009B012340C943934000280ADBC0240B4A44
:10188000800880008018A40002590A4013430351C5
:1018900010BD0F2210400838054A800880008018CB
:1018A000C26911401943C161F2E7C04600E100E09E
:1018B00000ED00E0002805DB1F2318401E3B83409D
:1018C000014A13607047C04600E100E0BFF34F8F4C
:1018D000034B044ADA60BFF34F8FC046FDE7C046B2
:1018E00000ED00E00400FA058022431E52040120AE
:1018F00093420DD2C021074A07485360036A090684
:101900001B021B0A0B430362002007239060136035
:101910007047C04610E000E000ED00E070B5040044
:101920000120002C24D00223A51CEB772068114B4A
:101930000268A1681A4063680B43E1680B432169A0
:101940000B4361690B43A1690B43E1690B431343EB
:101950000360094B1421C018FEF7EAFB074B800017
:101960002064E36300200123A063E418EB77E077B1
:1019700070BDC0460FC0FFFFF8FFFDBF0000024072
:10198000F7B5441C0193E57F012D33D00125871C59
:10199000E577FD7F0026AC466346EDB2012B28D1EA
:1019A0000224FC77046886632668076CAE43BD405A
:1019B0002660019BC66B756063604368102B0ED177
:1019C000A260E160C36A2268002B0BD00E23134390
:1019D000236001230020226813432360FEBDA16021
:1019E000E260EFE70A231343042223602368934352
:1019F000EEE7E6770220F1E770B5841CE37F022B67
:101A000003D004238363012070BD0E2103681A688C
:101A10008A431A6001221500196891431960016C0C
:101A2000C36B8D405D60E27783180022DA77436BE9
:101A3000934200D098470020E6E7F8B504273E001F
:101A4000016CC26B8E40156803681C6835420DD06E
:101A50003C420BD01968890602D41968B943196051
:101A6000C36A5660002B19D0984717E002273E0042
:101A70008E40354213D03C4211D01968890606D4F5
:101A80000A241968A14319600121C319D977566046
:101A90000022431CDA77836A9342E5D1F8BD082619
:101AA00037008F403D42F9D03442F7D00E251C68F4
:101AB000AC431C6001231C008C405460821C836377
:101AC000D3770022C318DA77036BE5E70230C07FD3
:101AD000C0B270470C4A1021D06830B503000B40EB
:101AE000084205D002230948C4692343C3610B009F
:101AF0000420D168014205D00121044C0343E5696B
:101B00002943E161D36030BD00200240580000202D
:101B1000064B00201A69120606D5054A5A60054A86
:101B20005A6018690006C00F7047C0460020024086
:101B300023016745AB89EFCD8023034A002011695B
:101B40000B4313617047C0460020024070B504008B
:101B5000FFF7D8F801260500104BDA68324211D1A0
:101B60002022D968114200D0DA60D968102208001A
:101B70001040114202D1DB685B0708D5FFF7AAFFCE
:101B8000012004E0621CE8D0002C01D1032070BDCC
:101B9000FFF7B8F8401BA042DED9F7E7002002406B
:101BA000F0B585B003931E4B009102921A7E04009B
:101BB0000220012A31D001221A481A76FFF7C6FF07
:101BC000002827D12600012C03D00426022C00D1A6
:101BD00026000024124B0193029803992201FEF77C
:101BE00033FB00220127019B0F4DDA612B69009A1C
:101BF0003B432B6163009B1880B218800948FFF7B4
:101C0000A5FF2B69BB432B61002803D1E419E3B284
:101C10009E42E1D80022024B1A7605B0F0BDC046C4
:101C20005800002050C30000002002400022064B54
:101C3000DA61064B043219690A431A6140221969B4
:101C40000A431A617047C046580000200020024035
:101C50000022064BDA61064B023219690A431A6107
:101C60004022586119690A431A61704758000020E0
:101C700000200240F8B5214F04003B7E0E000220F8
:101C8000012B0CD001233B7623681D48012B12D178
:101C9000FFF75CFF002803D0012000233B76F8BD4E
:101CA000FFF7C4FF1648FFF751FF0421154A1369D7
:101CB0008B431361F1E7FFF749FF0028ECD10123C3
:101CC0005B42336065680130A36862689B029B18C1
:101CD000AB42E2D92800FFF7BBFF0948FFF736FF08
:101CE0000221084A13698B431361002801D0356033
:101CF000D3E78023DB00ED18E6E7C046580000205C
:101D000050C30000002002400023F0B587B00A68ED
:101D10001400DC4001D107B0F0BD012514009D4046
:101D20002C4000942A4200D194E04A685F00944617
:101D30000322644622400324BC40E4430194541E21
:101D4000012C2ED88668019C2640CC68BC403443C8
:101D5000846044680126AC4325006446240934406D
:101D60009C402C434460C568019C25408C68BC4065
:101D70002C43C460022A16D107250F261D40AD0052
:101D8000AE40DC08A40004190294246A03962600DD
:101D9000039CA64334000E69AE402643029C266293
:101DA00001E0032ADFD1BA400468019D25402A439F
:101DB000C02402606246A40222424BD00125264A7A
:101DC00090279469FF052C43946192699C082A40EE
:101DD0000592059A214AA400A4180F2202351D403D
:101DE000AD00AA40A66896430022B84208D01C4F16
:101DF0000132B84204D01B4F0432B84200D1033A3A
:101E0000AA4067463243A260174A009C9668009D2C
:101E1000E4433543FF0201D4350025406746956011
:101E2000D668009D3543BF0201D435002540674682
:101E3000D5605668009D3543BF0301D43500254069
:101E4000674655601568009E2E43FF0301D4254068
:101E50002E00166001335AE70010024000000140D6
:101E6000000400480008004800040140002A01D096
:101E7000816170478162FCE703689A69920701D526
:101E800000229A6201229969114202D199690A439A
:101E90009A61704730B5039C00682343120489059A
:101EA0001A43890D054B45680A43640D23435200CC
:101EB0009D4352082A43426030BDC046FF63FF0382
:101EC00010B5426B1B4C0BB2A2421ED01A4CA24260
:101ED0001BD01A4CA24218D0B822F224DB171A40A9
:101EE000CB07DB17234013438A0701D5F4221343A2
:101EF000102906D19022134301680A6813430B602E
:101F000010BD2029F8D10B43F6E7B822F224DB17E5
:101F10001A40CB07DB17234013438A0701D5F4226D
:101F200013431029E6D0202901D16022E3E740299C
:101F3000E9D0E1E741290008912C0008CD270008ED
:101F4000002310B5CA0708D5030041331A782823A7
:101F50001A40CA33282A00D1B03B8A0708D50200AC
:101F60002824413212782240A2420BD1442213434A
:101F700009B2002901DAB822134301680A689A43BA
:101F80000A6010BDF422F2E770B504000120002CB5
:101F90004ED0250041352B78DAB2002B05D1230035
:101FA000403320001A7002F0DFFC242301212B7043
:101FB0002368E0681A68A6688A431A601D49626847
:101FC0000A401A619A681C490A409A60012807D1A0
:101FD0008022120232439A605A681848024009E08F
:101FE0008422120232439A600228F5D18022586876
:101FF000120102435A605868114A02435A60DA6873
:1020000000200A40DA60616922690A43A169090275
:102010000A43DA60216AE2690A431A6001221968F8
:102020000A431A60202360642B70206342342070BE
:1020300070BDC046FFFFFFF0FF7FFFFFFFF7FFFF10
:1020400000800002F0B5060085B0029228220091BF
:1020500003934136337804001340934207D100299B
:1020600002D0029B002B06D180239B0063640125D4
:10207000280005B0F0BD030040331A780225012A7C
:10208000F6D0012248491A70FFF75AFF3378474DBE
:102090002A2B4BD102212000FFF752FF23681A6838
:1020A00012040ED5E06B00280BD01A682A401A6083
:1020B0003F4B4363FFF7A0FC002802D0E06B436B6B
:1020C00098472923337023004233019320230027AC
:1020D000019A03991370226867645368A06B2B40C0
:1020E0005360009B6362029B6385638DE1623149AB
:1020F0009BB223856163B8422ED02F49283281627A
:102100002E49C762016347630099FFF739FC22003B
:1021100005004032B8422AD028233370019B1F703B
:102120001023616C0B4363641770A0E73278236857
:10213000A06B292AC5D11A685204C2D51A68204951
:102140000A401A600028BCD0194B4363FFF754FCC7
:102150000028B6D0A06BB2E728233370019B40342F
:102160001870802362681343636020707FE7638D7B
:10217000218D20855B1A9BB26385236898699969D4
:10218000C9030CD40021117080221968D2010A43BE
:10219000802120001A600902FFF792FE68E70821FB
:1021A0000842EFD0D961EDE701800000FF7FFFFF1B
:1021B000B92E0008912C000849240008592A00086B
:1021C000FFBFFFFFF0B5060085B002922822009104
:1021D00003934136337804001340934207D100291A
:1021E00002D0029B002B06D180239B006364012553
:1021F000280005B0F0BD4B49FFF7A2FE2300403395
:102200001A780225012AF3D0012119703378464D3E
:10221000292B4BD12000FFF793FE23681A68520444
:102220000FD5A06B00280CD01A6840490A401A60EC
:102230003F4B4363FFF7E0FB002802D0A06B436BEA
:1022400098472A2333702300423301932023002729
:10225000019A1370216867644B68039A2B404B60A6
:10226000009BE06B6362029B6385638DE262314A8F
:102270009BB223856263B8422DD02F4AC762826227
:102280002E4A476302632431009AFFF779FB22004C
:1022900005004032B84229D028233370019B1F70BB
:1022A0001023616C0B4363641770A0E732782368D6
:1022B000E06B2A2AC5D11A681204C2D51A682A40CE
:1022C0001A600028BDD01A4B4363FFF795FB002826
:1022D000B7D0E06BB3E728233370019B403418700C
:1022E0008023626813436360207080E7638D218DD3
:1022F00020855B1A9BB26385236898699969C90335
:102300000BD5002111708022196812020A432000A7
:1023100004491A60FFF7D4FD6AE708210842F0D0AB
:10232000D961EEE702800000FF7FFFFFFFBFFFFFE4
:10233000B92E0008912C00086D240008592A0008C5
:10234000020010B5413211780223202908D18021E2
:1023500026331370034B09024363FFF7B1FD0023DB
:10236000180010BD9D2D0008036810B599691A6802
:10237000436B002B00D0984710BD70477047030097
:1023800070B500252022060042331D70013B1978EC
:10239000040040361A7021290AD1112345630363D2
:1023A0002039FFF7CDFD20003570FFF7E6FF70BD47
:1023B0001223456303630221FFF7C2FD200035703D
:1023C000FFF7DCFFF3E700000100036810B504002D
:1023D00000201A6842310870510418D51A6818494B
:1023E0000A401A60230041331A78292A14D1013A8D
:1023F0001A702123200023630121FFF7A1FD230090
:102400000022403320001A7002F0D0F910BD1204EF
:10241000E8D51A680B49E3E71A782A2AF6D1023A76
:102420001A702223200023630221FFF789FD230075
:102430000022403320001A7002F09EF9E6E7C04601
:10244000FFBFFFFFFF7FFFFF406A064BC26A10B568
:102450001A4206D10268044913680B401360FFF763
:10246000B3FF10BDFFFFFFFEFFBFFFFF406A10B5C7
:10247000C36BC26A1B685B68002B09D1054B9A428B
:1024800006D00268044913680B401360FFF79CFFF5
:1024900010BDC0460000FFFFFF7FFFFF0300F7B540
:1024A000282241331B7804000168134093423CD139
:1024B000FE278D698E698B68CA68ED030192C26838
:1024C000360CED0F3E40022A25D19B059A0D5B0F7D
:1024D0007340180006263040334210D1A36C0133FC
:1024E000A364A36C022B09D19B19A064CB612300C8
:1024F000403318702900200002F0EAF8F7BD80216F
:1025000020000902FFF71CFD2300002240331A704F
:10251000019A3A40EEE780210902FFF711FD2300FE
:10252000002240331A703200E4E70823CB61002315
:1025300040342370E2E70000184B10B5C36200235B
:102540000200036304002020413210705370042203
:102550006363114212D02368596A636A1970636A0F
:1025600001336362238D002B08D0013B2385638DEB
:10257000013B9BB26385636C1A4362642000084987
:10258000FFF7DEFC102223682000DA61230000221E
:1025900040331A7002F0E2F810BDC0460000FFFFA1
:1025A00003800000704770470100020010B5413100
:1025B0000C7800234032602C06D1403C0C70036341
:1025C000137002F083F810BD0363137002F0C2F8B9
:1025D000F9E7000070B505000022040041354230E3
:1025E0002B7802703A48283BE0626285626C0A43AD
:1025F0006264022B2BD803212000FFF7A1FC2823C3
:102600002B70344BA06B6363236B002840D01A00FF
:102610001021113A8A433BD123681A68520403D52A
:102620001A682D490A401A60FFF750FA01282BD08A
:10263000A06B2A4B00224363230040331A70FFF73C
:10264000DBF9002823D0A06B436B98471FE02000E4
:102650002349FFF775FC2000FFF70EFC2B78602B59
:1026600010D020222A702368996911420AD09969F2
:10267000103A114204D0DA61616C0C3A0A43626488
:102680002022DA610023BDE72000FFF78DFF70BD37
:10269000E06B0028F8D01022123B9343F4D123685A
:1026A0001A68120403D51A680E490A401A60FFF727
:1026B0000DFA0128E8D0E06B084B002243632300A9
:1026C00040331A70FFF798F90028E0D0E06BBBE7C1
:1026D0000000FFFF9D2D0008FFBFFFFFB92E00087F
:1026E00003800000FF7FFFFFF7B520230500066889
:1026F0004135F3612B7804000F00212B2BD10121F0
:10270000FFF71EFC1123236373682E4A1340736086
:10271000002363632C4BE36210231F4204D0F36158
:10272000626C0C3B134363642B78602B05D17F07ED
:1027300003D5736ADBB20193019B2000FFF79CFB7A
:10274000636C2A78602A01D0002B0CD02000616CC9
:10275000FFF740FFF7BD2B78222BD5D10221FFF7E1
:10276000EFFB1223CFE72A78212A13D1013A2A70EE
:1027700022002100236342321078403113700B7025
:10278000402803D12000FFF70DFFE3E72000FFF70B
:10279000F4FDDFE72A78222ADCD1023A2A702200EF
:1027A0002100236342321078403113700B704028AF
:1027B00003D12000FFF7F7FECCE72000FFF7DEFD96
:1027C000C8E7C04600E800FE0000FFFF73B5050043
:1027D00040352B7804000220012B15D001232B70EB
:1027E0000F33194211D01A420FD022682000D36152
:1027F000626C0C3B134320216364FFF761FB2000F4
:10280000FFF73AFB0020287076BD0223194208D05A
:102810001A4206D02368226D9A6201235B42236527
:10282000F0E740260B0641D532423FD0012120007F
:10283000FFF786FB10212000FFF742FB638D002B82
:102840002FD0638DFF2B21D92368FF229B69DB03E7
:1028500000D5FE3A0023E16C228500938023D2B29A
:1028600089B25B042000FFF715FB638D228D9B1A54
:102870009BB26385230041331A7823681968222AA2
:102880004DD1802212020A431A60BBE70023628DF9
:10289000E16C92B2228500938023D2B289B29B046C
:1028A000E0E731002000FFF795FEABE7314239D079
:1028B000324237D0260001212000FFF741FB41368C
:1028C00010212000FFF7FCFA3378223B5A42534193
:1028D0001A4A9B029B18628DFF2A16D922689169B9
:1028E000FF22C90300D5FE3AE16C228500938023C4
:1028F000D2B289B25B042000FFF7CCFA638D228D3F
:102900009B1A9BB263853278B7E7628DE16C92B215
:10291000228500938023D2B289B29B04EBE7802208
:10292000D201B0E72023194200D16BE71A4200D14F
:1029300068E72000FFF7D8FE64E7C046002000806B
:10294000F7B506004036337804000220012B15D07D
:10295000012333700F33194211D01A420FD022686D
:102960002000D361626C0C3B134320216364FFF7AA
:10297000A7FA2000FFF780FA00203070FEBD402348
:10298000080646D51A4244D025682A689A432A6028
:10299000638D002B31D06968638D8905890DFF2B0C
:1029A0001DD9AB69DB0318D50123238580235B0484
:1029B0000020278D0090FAB22000FFF76BFA638D9C
:1029C000DB1B9BB26385413423782A68222B11D10B
:1029D00080231B0213432B60CEE7FF23E5E7638DC3
:1029E000E26A23851B4B9A4201D0E36AE0E7802329
:1029F0009B04DDE78023DB01ECE76B689B0103D4DC
:102A00002000FFF7BCFCB7E740212000FFF7E2FD04
:102A1000B2E7194212D01A4210D0638D002BF3D1C5
:102A200023685A689201A7D4E16A0A4A9142E7D121
:102A300080225968D2010A435A609DE72023194237
:102A400000D199E71A4200D196E72000FFF74CFE2B
:102A500092E7C0460000FFFF8023406A10B502687D
:102A60001B0251680B4353601021FFF7B3FD10BDEB
:102A700070B5802503686D0099691A68294206D0EF
:102A8000140604D50124466C34434464DD6180257A
:102A9000ED00294206D0140604D50824466C3443C0
:102AA0004464DD618024A400214206D0120604D5CE
:102AB0000222416C0A434264DC610B23416C1942DF
:102AC00001D0FFF787FD70BDF7B5056806002B68DC
:102AD00041360093C36A04000193202330780F002D
:102AE0002138EB6109280CD8FDF70EFB05680B0BAC
:102AF0000B0B0B6E056820005D49FFF721FA2123BF
:102B0000236380226B68120213436B606B68594A1F
:102B1000200013406B60FFF7AFF9009B5B0459D5B1
:102B20002B68554A13402B60A36B002B03D01B6806
:102B30005B689BB2638504231F420FD06A6A9F4380
:102B4000636A1A70636A01336362238D002B05D0B8
:102B5000013B2385638D013B9BB26385638D002B15
:102B600003D00423626C1343636410231F4211D00B
:102B7000009A1A420ED0628D002A49D13378282B50
:102B800033D18023019A9B049A422ED13900200030
:102B9000FFF7D2FC2300002242331A70656C626397
:102BA000954244D02000616CFFF714FD3378282B48
:102BB00003D139002000FFF7BFFCF7BD20002F49EB
:102BC000FFF7BEF922239BE720002D49FFF7B8F954
:102BD000002395E78022009B12021342ABD02B68A2
:102BE000284A13402B60E36B9FE73178102223685B
:102BF00029290BD124490198884207D02000DA61A5
:102C0000FFF73AF92000FFF7DFFBC3E7DA61C1E71E
:102C10002268D3610423626C13436364019A1B4BE3
:102C20001A42B7D12000616CFFF7D4FCB2E727004D
:102C3000E36A154A403793420CD02000FFF7C4FBEB
:102C40002023114A2000E262337025633D7001F0B9
:102C500085FDB2E7202332782000337025633D7074
:102C6000222A02D101F088FDA7E701F09FFDA4E729
:102C70000180000000E800FEFFBFFFFF02800000AF
:102C800003800000FF7FFFFF0000FFFFFFFFFFFE4C
:102C9000F8B5050040352E780400C36A0220012EE5
:102CA0000BD0013828701F30014207D0024205D0F6
:102CB0002000FFF709FF00202870F8BD10263142E0
:102CC0005ED032425CD0802750043F02C00F3A40B1
:102CD0000700174351D0E66B002E1DD0002A03D009
:102CE00032685268564272412600A76B4136002F67
:102CF00005D0002803D038684068002801D0012A98
:102D00001CD13278282A09D180229204934205D11D
:102D10002000FFF711FCCEE73200E5E71021307804
:102D20002268D1612928C6D11A488342C3D0200025
:102D3000FFF7A2F82000FFF747FBBCE7102122684D
:102D4000D1610422616C0A4362643078124AC0B2D5
:102D50001342B0D12138092808D8FDF7D5F9050C60
:102D6000070707070707050C212323632000616C71
:102D7000FFF730FC9FE72223F7E72368DE619AE73D
:102D80000823194297D01A4200D194E72000FFF798
:102D900085FB90E70000FFFFFFFFFFFE70B5050019
:102DA00040352E780400C36A0220012E0BD0013872
:102DB00028701F30014207D0024205D02000FFF7E3
:102DC00083FE0020287070BD102001422FD00242E7
:102DD0002DD0628D002A1CD1220041321078282883
:102DE00007D180208004834203D12000FFF7A4FB99
:102DF000E7E7102110782268D1612928E1D12C4819
:102E00008342DED02000FFF737F82000FFF7DCFA1E
:102E1000D7E72268D0610422616C0A436264254AC4
:102E20001342CED12000616CFFF7D4FBC9E7042028
:102E3000014219D0024217D0628D002A0DD02268BB
:102E4000516A626A1170626A01326262228D013ACD
:102E50002285628D013A92B26285628D002AB0D1DC
:102E6000134A9342ADD0D0E70820014205D0024278
:102E700003D02000FFF712FBA3E702200142A0D0FD
:102E800002429ED0628D002A0DD0636A22681978B2
:102E9000013391626362638D013B9BB26385238D35
:102EA000013B23858DE7034A134200D089E7ACE755
:102EB0000000FFFFFFFFFFFE406A10B5836B002B91
:102EC00001D000225A63C36B002B01D000225A6349
:102ED000FFF76AFB10BD0000F0B504004134227812
:102EE00003000F000220D6B2202A18D11D00403561
:102EF0002A78012A13D0242222701B68233A1968E9
:102F00000748914319601968014000201960196849
:102F10003943196019680A431A6026702870F0BD99
:102F2000FFEFFFFF0200F0B5413214780300E5B275
:102F30000220202C17D11C0040342678012E12D0FC
:102F4000223010701B6823381E68074F86431E60AE
:102F50001E6809023E403143196019680843186031
:102F6000002015702070F0BDFFF0FFFFF0B50400E9
:102F700085B0002802D1012005B0F0BD0368DB0751
:102F800033D423689B0700D587E023681B0700D54F
:102F9000C8E023685B0700D5EBE02368DB061AD5A1
:102FA00062690423B94D012A00D054E1696B0227FC
:102FB0000B436B636B6B1A436A63FDF7A3FE06005A
:102FC0006B6B3B4200D13FE1F8216A6BA3698A43F6
:102FD000DB0013436B6323689B0600D562E1636AE1
:102FE000002B00D0A1E10020C6E70C22A74D6B68A2
:102FF0001340042B0BD06B681340082B0ED1C0225A
:103000006B685202134080225202934206D12B6811
:103010009B03B6D56368002BB3D1ACE76368012B83
:1030200013D180232A685B0213432B60FDF76AFEED
:1030300080270600BF022B683B42A2D1FDF762FE4B
:10304000801B6428F7D9032096E7002B15D12B6845
:103050008F4A802713402B602B688E4ABF02134093
:103060002B60FDF74FFE06002B683B4289D0FDF731
:1030700049FE801B6428F7D9E5E7052B05D180239D
:103080002A68DB0213432B60CBE72B68804A13408E
:103090002B602B687F4A1340C7E70C227B4D6B687F
:1030A00013420BD06B681340082B16D1C0226B68FB
:1030B000520213408022120293420ED12B689B07CA
:1030C00003D5E368012B00D055E7F8212A6823696E
:1030D0008A43DB0013432B6057E7E2680123002A91
:1030E0000FD02A68022713432B60FDF70BFE060062
:1030F0002B683B42E9D1FDF705FE801B0228F7D97A
:10310000A1E72A6802279A432A60FDF7FBFD060023
:103110002B683B4200D138E7FDF7F4FD801B022805
:10312000F6D990E7E2690123584D002A10D06A6A67
:10313000022713436B62FDF7E5FD06006B6A3B4215
:1031400000D026E7FDF7DEFD801B0228F6D97AE7DE
:103150006A6A02279A436A62FDF7D4FD06006B6A29
:103160003B4200D115E7FDF7CDFD801B0228F6D9C3
:1031700069E780220021454D5205EB690091134219
:1031800008D1EB691343EB61EB6913400393039B95
:10319000012300938027404E7F0033683B4215D0C7
:1031A000A368012B22D12A6A13432B62FDF7AAFDE3
:1031B000022706002B6A3B423FD0009B012B00D028
:1031C000EBE6EB69354A1340EB61E6E633683B43D7
:1031D0003360FDF797FD019033683B42E0D1FDF786
:1031E00091FD019BC01A6428F6D92CE70122002B1F
:1031F00014D12B6A022793432B622B6A0332934329
:103200002B62FDF77FFD06002B6A3B42D5D0FDF710
:1032100079FD234B801B9842F6D914E7052B05D185
:10322000296A013B0B432B622B6ABDE72B6A934350
:1032300004222B622B6A9343B7E7FDF763FD184B1B
:10324000801B9842B6D9FEE6FDF75CFD801B022884
:1032500000D8B5E6F7E6053203D16A6B9A436A6394
:10326000B2E66A6B0227134301226B636B6B9343D5
:103270006B63FDF747FD06006B6B3B4200D1AAE68E
:10328000FDF740FD801B0228F6D9DCE60010024065
:10329000FFFFFEFFFFFFFBFF00700040FFFFFFEF9F
:1032A000881300000C22554D6B681340934209D0DF
:1032B0006B681340082B0ED1C0226B68520213407A
:1032C000934208D16B6B9B0300D488E6236A012BE1
:1032D00000D050E683E6236A002B13D080236A6B6C
:1032E0005B0213436B63FDF70DFD80270600BF02F1
:1032F0006B6B3B4200D072E6FDF704FD801B022899
:10330000F6D9A0E66B6B3E4A802713406B63FDF74E
:10331000F9FC0600BF026B6B3B4200D15FE6FDF794
:10332000F1FC801B0228F6D98DE60C21334D6A682A
:103330000A40082A47D0334A022B32D12B68802713
:1033400013402B60FDF7DEFC0600BF042B683B42F8
:1033500021D10F22EB6A80269343226BB6041343DC
:10336000EB62A16AE36A6A680B4327490A40134388
:103370006B6080232A685B0413432B60FDF7C2FC5B
:1033800004002B68334200D02DE6FDF7BBFC001B88
:103390000228F6D957E6FDF7B5FC801B0228D5D9DF
:1033A00051E62B68802613402B60FDF7ABFC040030
:1033B000B6042B68334200D115E6FDF7A3FC001BD1
:1033C0000228F6D93FE6012B00D1D4E5C022686877
:1033D000A16A5202EB6A02408A4200D0CBE50F227A
:1033E0001340226B934200D0C5E5F0239B031840A5
:1033F000E36AC01A431E9841C0B2BDE50010024006
:10340000FFFFFEFFFFFFFFFEFF7FC2FF0C2070B536
:10341000154D6B681840082809D00C2822D00438B4
:1034200043425841114B40421840C01870BD0F2014
:103430000F499A0C02408C5CEA6A0E490240895C92
:10344000C0228020520213404002834204D10A4825
:10345000FCF76EFE6043E9E7934201D10748F7E7C6
:103460000248F5E70548E1E70010024000127A0043
:10347000684D0008584D00080024F400006CDC0280
:10348000F7B504000F00002801D10120FEBD012284
:103490003A4D2B6813408B421CD32268930722D4E9
:1034A000D2072FD401232A681A40BA4257D823687A
:1034B000334D5B075AD4FFF7A9FF6B68314A1B06EF
:1034C0001B0FD35C3049D84008600020FDF7DAFBC1
:1034D0000020DBE72B6893430B432B602B681340E2
:1034E0008B42D2D1D9E72649530704D5E023486857
:1034F000DB0003434B60F0204B688343A068034329
:103500004B60CDE762681E4E012A03D133689B03EE
:1035100005D4BAE7022A1AD133689B01B5D5032135
:1035200073688B4313437360FDF7ECFB01900C232E
:1035300072681A4063689B009A42B3D0FDF7E2FBC1
:10354000019BC01A114B9842F1D903209EE7032A30
:1035500001D1736BDBE733689B07E0D495E72A68FA
:103560009A432A602A681A42A1D08EE76B68084AFB
:103570001340E26813436B609DE7C04600200240A1
:1035800000100240984D000834000020881300000D
:10359000FFF8FFFFF0B50368050085B0DB032BD50E
:1035A00080220021414C5205E3690091134208D169
:1035B000E3691343E361E36913400393039B01232E
:1035C000009380273A4E7F0033683B4234D0216A13
:1035D000C022080092006B68364E104011423DD167
:1035E000236A6A68334013432362009B012B03D193
:1035F000E369314A1340E3612B68DA0706D50320FB
:103600002A490A6B8243A86802430A639A0606D5D0
:10361000102026490A6B8243E86802430A639A0332
:1036200006D5802021490A6B8243686902430A63F8
:103630005B0533D400200FE033683B433360FDF774
:1036400061FB019033683B42C1D1FDF75BFB019BFD
:10365000C01A6428F6D9032005B0F0BD1340834298
:10366000BED08022236A206A1900520202432262DD
:10367000226A12483140024022622162DB07AFD544
:10368000FDF740FB07000222236A1342A8D1FDF791
:1036900039FB0B4BC01B9842F5D9DCE74021034AAC
:1036A000136B8B4329690B431363C3E7001002407C
:1036B00000700040FFFCFFFFFFFFFFEFFFFFFEFF7A
:1036C00088130000012300220B49400110B58B61D3
:1036D000CB61086048608860C8600B6207480D33A2
:1036E0004A610A614B62FDF71DFE002802D0982254
:1036F000034B1A7010BDC0465C01002090020020F0
:10370000D700002073B5184D2B78642B2AD8174B9F
:103710001B78002B26D0FEF7FBF90F22031E0FD1DA
:103720001348144C0E3A01A903604460826001936F
:10373000FEF7A0FA1126002804D0FEF7FDF91022AA
:103740002A700FE00C4B21001A5902200023FEF7CB
:1037500027FA002800D02E70084B04349C42F1D187
:10376000FEF7EAF973BDC046D7000020D50000205F
:1037700084000020007C0008D884FF17287C000803
:10378000002310B5084A094C0948E15A02329180D9
:10379000C15A02339182102BF7D10122054B1A70C6
:1037A000FFF7B0FF10BDC046D80000200800002081
:1037B00090000020D5000020F8B506000F00FDF7AE
:1037C000A1FA194B1B68984227D9184D184C2B7831
:1037D000BB4218D2FDF796FA2368C01A642811D9A3
:1037E00014490B785A425A41D2B20A70002B02D0C7
:1037F0002B7801332B7008210F48FEF737FBFDF7BC
:1038000081FA2060F8BDFDF77DFA2368C01AB04246
:10381000F8D900232B702360F4E7064B1A78002AAE
:10382000F0D101321A70EDE78C01002080000020F9
:103830007C00002078000020000400480B000749AD
:1038400010B5140008600B61054A064B0648FDF7E9
:1038500008FE002801D0054B1C7010BD440100205B
:10386000180100201401002090020020D700002041
:1038700030B5102499B02C2200210DA801F0E2F9F6
:103880002200002101A801F0DDF91822002105A87D
:1038900001F0D8F903230B9380235B021593802357
:1038A00001250F94DB020E3C0BA8149416930C9583
:1038B0000E95FFF75BFB072302940024290001A863
:1038C000019303940494FFF7DBFD202305A80593DF
:1038D0000894FFF75FFE19B030BD00000023F0B57B
:1038E00097B003930893FDF7F1F9FFF7C1FF142296
:1038F000002111A801F0A6F98022BF4CD202636911
:103900000821134363616369BC48134080220E930E
:103910000E9B6369D20313436361636901251340FE
:1039200080220F930F9B6369920213436361636963
:103930000826134010930022109BFEF797FA0023ED
:10394000AE4811A91196129513931493FEF7DCF962
:103950000022636911002B436361636909202B40D6
:103960000D930D9BFDF77CFF0920FDF7A3FF0022BF
:103970000A201100FDF774FF0A20FDF79BFF0C22BF
:10398000002111A801F05EF99D4C9E4B0427236095
:1039900080231B0663600023E36080235B02A36136
:1039A000C223FF33E361002320002362631DDD7720
:1039B000A66025616761A562FDF70CFA80235B01B3
:1039C0001293072311A92000119513931D00FDF7F1
:1039D000A3FB022311A920001193FDF79DFB0323F4
:1039E00011A920001193FDF797FB11A92000119751
:1039F000FDF792FB052311A920001193FDF78CFB25
:103A0000062311A920001193FDF786FB11A92000C0
:103A10001195FDF781FB11A920001196FDF77CFBA4
:103A2000794E7A4B300033600C2373600023B3600F
:103A3000F360C0231B03336180235B037361802326
:103A40005B00B3610023B383FDF7E6FB704F714B5E
:103A5000063D3B60704B38007B601223BB60002347
:103A6000FD603B617B61BB61FB613B62FEF78CFAF1
:103A700000213800FFF730FA00213800FFF752FA32
:103A8000664F674B3A0023CB23C223CB23C223CB01
:103A900023C21B6813603968624A002391420ED02A
:103AA00019003A60604810223B7101F0CBF85F4B7F
:103AB0005F4ABB61FB613B620123FA82BA845D4FBE
:103AC000564D3B7029795C4A5C4B117068791870CF
:103AD000072905D90023137001222B71584B1A7046
:103AE000554A584B12785200D05AFFF7EBFD464822
:103AF000FDF78BFC002802D04C22534B1A70032197
:103B00003000FDF792FD0122504B5A600022DA602E
:103B10009A601A753B7893425ED04B4D2B78642B9C
:103B200014D83B48FEF70CFC9123002860D12B7879
:103B3000642B0BD8082220004549FDF7EDF9022837
:103B400055D0032856D06923012851D0FFF7DAFD5C
:103B5000404B1B78002B00D110E13F4E3F4B347897
:103B60001C80322C00D97FE0032C00D886E0201F77
:103B70002E2800D982E0FCF7D1FA7F028100810073
:103B800081008100BF00810081008100A8018100C7
:103B900081008A022002B60281008C02810081002D
:103BA000A102AB02BE0181001D02810081008100E3
:103BB000810081008100AE01AC01EC008100810038
:103BC0008100FD01F20181008100810081008100FE
:103BD0008100CD01810005022148224AE988023591
:103BE000C152A98AD1520233102BF7D195E7032392
:103BF0002B70ABE70423FBE70010024000040048F1
:103C0000FC020020002401409002002000640040DB
:103C10003C020020005400402B1D2000D800002052
:103C2000007C000878563412DE000020FF03FF03FA
:103C3000FF030000D4000020880100201A000020AB
:103C4000D5000020884D0008D70000204401002046
:103C5000A2010020A10000202001002084010020FA
:103C60000800002090000020552C00D19BE138D89E
:103C7000402C00D15DE1542C00D191E12722D44B9E
:103C800011AD1A70D3491B3A280001F007F8082239
:103C9000002114A800F0D6FF20001C2410220CA93B
:103CA00000F097FF0CAB1B786B700CAB5B78AB70C4
:103CB0000CAB9B78EB70C84B29000722C7481C70DF
:103CC00000F0ECFFC64AC74B127801345200D05ABC
:103CD00008214D22E4B2FFF7B1FD0735202CEAD1CF
:103CE00037E0FF2CCAD1BE4ABB4B12781C70BD4BCB
:103CF0005200D05A2F2229E000220821BA48FEF7AC
:103D0000B5F810220021B94800F09CFFB84BB94A21
:103D10001A805A809A80DA801A815A819A81DA81CF
:103D2000FCF7F0FF0190FCF7EDFF019BC01AB24BCE
:103D3000984200D8ACE0FFF723FDFF22A64B1A7093
:103D4000A74AA84B12785200D05A48220121FFF707
:103D500075FDAA4B1B69022B0DD9A94B1A88182A8D
:103D600009D8A84BD340DB0705D5B3787178A64AAC
:103D70001B020B4313800022A44B1A7000229446AE
:103D8000A34BA4491C78A44FA44BA54E5000002C73
:103D900000D1B4E1022C00D0A8E10D5A1F802DB251
:103DA000B54200DCABE101320233082AEED1002C2F
:103DB00002D00022964B1A70002201209446110076
:103DC000984B8A4F1B788A4D0993974B07921B7823
:103DD00006920593954B04920293904B01920A939D
:103DE0000A9C4B00E45E099B002B0DD00026BB5FB4
:103DF000A34201DA84463C800026AB5FA34203DD88
:103E0000002C01D084462C800026BB5F0B9300233E
:103E1000EE5E0B9B9E19F30F9B195B101B1B029C04
:103E20001BB2A34200DC6DE1059C002C00D071E1C7
:103E3000002B00DD72E10690002900D070E1DC1754
:103E4000E41AE30F0893079001310237023508297D
:103E5000C6D1002A02D0764B039A1A70079B002B1A
:103E600002D0744B089A1A70069B002B02D00122D4
:103E7000714B1A70049B714C002B00D159E1012346
:103E800023706346002B00D15AE1FFF779FC54E11F
:103E90000022564856495F4D53005B5B0024075F84
:103EA0001BB29F4200DA038000240F5F9F4202DDB5
:103EB000002B00D00B80013202300231082AEBD1F6
:103EC00019215F48FFF778FC2DE75E4B01221A703D
:103ED0003FE75D4BFAE75D4B1B68013B033300D8BE
:103EE00037E723223C4B1A703D4A594B1278520057
:103EF000D05A07222AE71A22374B1A700E3A5A7004
:103F000000229A70364A374B12785200D05A252236
:103F100003211CE73122304B1A704E4A12885A7026
:103F2000120A9A702E4A2F4B12785200D05A26222B
:103F3000EEE77378082B02D93222254BC7E7464AB1
:103F4000274C137101222370444B1A70FFF7DAFBE0
:103F500022783F4B5200D05AFFF7B4FBF9E600221B
:103F600001213D4B5A713D4B19703D4B1A70FFF7C3
:103F7000C9FBEEE60123384A5371384A1370384AB8
:103F80001370F4E73322144B02211A70344A12786A
:103F90005A70134A134B12785200D05A6122D6E657
:103FA000304B727893E7B3787178174A1B020B4352
:103FB0001380CEE6FDF78AFCCBE62B4B01221A706C
:103FC00000220621294B1A70294B1970294B5CE0FD
:103FD000D7000020C84C000818010020190100205B
:103FE00088010020784D000800040048900000205F
:103FF00008000020FF0300008713000028010020B4
:10400000840100200000910118000020A100002080
:104010001B000020A20100200F27000092010020B9
:104020000E2700009001002033000020F0D8FFFF91
:104030000F010020100100200D0100200E010020C2
:1040400088130000860100200401002000010020E8
:10405000884D0008CC000020D8000020D5000020AA
:104060001A000020A0000020A9000020A8000020C5
:1040700032000020A40000200123BD4A1370BD4A75
:104080001370BD4A13700022BC4B1A6061E6BC4B32
:1040900094E701210022BA4B1970B64B1A70B74B46
:1040A0001A60B84B06321A70B74B3B321A70B74AD7
:1040B000B74B12788A40D05A392248E60122B04BD9
:1040C0001A70AC4B1A70AC4B1A70B24B1A70DAE71C
:1040D0000123AB4A1370A74A1370A74A137000223A
:1040E000AC4B1A7072E70022A54BF0E6012C06D10A
:1040F00065461D800D5A2DB2002D00DC53E6085A8E
:10410000188050E6029CA34200DB91E6059C002C3F
:1041100000D08DE6CCB20194029389E604908BE640
:10412000072900D090E6DA17D21AD30F03930200C2
:104130008AE66346002B00D0A7E62378002B03D045
:10414000944B1B78002B08D1934B1B78181E33D04F
:104150000020904B1B7883422ED1019B01995A1E5F
:104160008C4B01311B7805918C4952B20493002786
:1041700013008C468A4E8B4D05998B4200DCAAE0D9
:10418000864B00240693864B02940793854B099334
:10419000854B9C46059B934200DBBBE00298FCF7F5
:1041A00011FC051C2000FCF70DFC011C281CFCF771
:1041B0006FF8FCF755F880B2714B6D4E7B4C1B7855
:1041C00032782080134373D0FCF79CFD6B4D2B6835
:1041D000C01A774B1B8898426AD90023654A33700E
:1041E00012789A4200D1EFE06E49724D6B4F5A003F
:1041F000BF5E8E5E6A48825EBF18FA0FD2195210F7
:104200000127964200DB002711AE9F55FAB2EE5C03
:10421000072B00D1A6E001339642E7D00126002209
:10422000A35E654A1288934203D1534A127816431B
:104230003BD00E21544A53701B12117093700CA97D
:104240000CAB497D1B7D8901DB010B430CA9897DEA
:1042500049010B430CA9C97D09010B430CA9097E37
:10426000C9000B430CA9497E89000B430CA9897E28
:1042700049000B430CA9C97E0B43D3700023137173
:10428000424A434B127805215200D05A1222FFF7BE
:10429000D5FA494B228811A91A802800082200F07B
:1042A000FDFCFCF72FFD354B18600122434B1A70C3
:1042B000434A444D1078002800D1EBE0013805282E
:1042C00000D916E1304CFBF729FF17011B01B9009B
:1042D000FE0004010E01D8B2072816D861465B0023
:1042E000595E02919C5F02995B5B0C19E10F091901
:1042F000049C491089B2002C0AD0CB1A9BB2191C1D
:104300001BB2BB4200DD391C0FB2013043B233E7B0
:104310005B1AF3E7D5B2072D1FD8069B5600F15E56
:10432000079BF35E0498CB18D90FC918099B491055
:10433000F35A89B2002813D0CB1A01999BB2521AB2
:104340000132022A09D86246DB1B915B1AB24A434A
:1043500002991C198A18029224B201356AB219E72F
:104360005B1AEAE7B61A731E9E41F6B257E7C046DB
:10437000A9000020A800002021000020A4000020A7
:104380001C000020320000201801002088010020BD
:10439000784D0008330000200D010020900000201F
:1043A000080000209201002022000020AA00002026
:1043B00018000020050100201E0000201B00002026
:1043C00086010020D700002099489A4B0178197087
:1043D000072923D0082925D00724062925D10470D0
:1043E00095485100D41C0918E4B2082A20D10026AF
:1043F0009048467186710132D2B202310233944242
:10440000F3D18E4A8E4B12785200D05A08221100F6
:10441000FFF714FAFCF776FC286046E708220270E2
:10442000053ADDE706220270DAE786490C70D7E725
:104430000026885F06125E709870DCE704210C206D
:1044400006231170804A59002070885A0021794A49
:10445000040A9070581C547040007B4C002900D016
:104460007A4C205A0233040AD47010715B00002980
:104470004AD07649CB5A190A517193716F4A704BE1
:10448000127808215200D05A4422FFF7D7F90120B0
:10449000FCF73EFC6E4B1B78002B5DD06D4C236807
:1044A0005A1C59D0002B31D06B4F3B78002B00D0D9
:1044B00086E0FCF727FC2368C01A64284CD9012346
:1044C0005B42236048E0052313700A332370002306
:1044D00004E0062313704A3323704D3B5B4A5900B6
:1044E000885A0121B3E700231370513323704B3BEB
:1044F000F4E726232B70EAE702210A200023A0E735
:1045000003210B200B009CE74F49B3E7FCF7FAFBB4
:10451000524B06001868524B52491B68C018524B48
:104520001B68C018514B1B68C018FBF787FEC831C9
:104530008E420ED9FCF7E6FB22223E4B20601A7019
:104540003E4A4B4B127801215200D05A1322FFF7FA
:1045500075F92368002BA7D1464C2A78237893421B
:104560000ED0EE21334B5A70344A19701278344B06
:104570005200D05AEC390A22FFF760F92B782370E9
:104580002B780121002B03D00221632B00D90321BA
:10459000FA208000FFF710F9FCF7B4FB364E040058
:1045A0003168364B411AFA20800081423AD91B68A3
:1045B000334D5843FBF7BCFD34602880FFF7C8FA41
:1045C000304A13780133DBB21370082B06D16A33FB
:1045D0002B70733B236000233B70BDE7174E33788D
:1045E0000133DBB2082B00D10023274A337013714B
:1045F0000122264B1A70FFF785F832781C4B5200C7
:10460000D05AFFF75FF800230122082120482360D9
:10461000FDF72CFCFCF776FB96221E4B92008018CF
:104620001860D8E71A6801321A60FFF791FAC0469D
:104630003200002018010020920100208801002093
:10464000784D0008D70000200800002090000020CE
:104650001A0000200001002004010020ACF7FF1F19
:10466000B0F7FF1F03260000B4F7FF1FB8F7FF1FC6
:10467000884D0008D6000020C8000020D00000208F
:10468000CC00002087010020D8000020D5000020A9
:10469000000400488C0100207047000010B5002184
:1046A000064B074AFCF73AFF002802D05A22054B76
:1046B0001A700122044B1A7010BDC0462001002060
:1046C00028010020D7000020A10000207047000032
:1046D00070B51A4B1A4C012924D11B782170002B7C
:1046E0000FD1184D184E59008A5B013312B21212C5
:1046F0002A708A5B6A700235082BF4D11022134BA2
:104700001A70124B1A78002A06D102232370104B1C
:104710001A70FDF715FE70BD80230A499B04FDF752
:1047200091FCF8E700222270094A117801225918F9
:1047300080235B04FDF746FDEDE7C046BE00002088
:1047400020000020AD000020A2010020AC000020CD
:10475000BD00002010B5FDF7F3FD10BD0222044B93
:1047600010B51A700022034B1A70FDF7E9FD10BD59
:1047700020000020BD00002010B5094B1978072942
:104780000DD80131C9B21970064B1B78002B06D128
:10479000054B0122C91880235B04FDF713FD10BDF2
:1047A000BD00002020000020BE0000200022014BA0
:1047B0001A707047AC0000207047000001210C4BBC
:1047C00082B09A690A439A619A690A4080210092EC
:1047D000009ADA6949050A43DA61DB69054A0B4048
:1047E0000193019B102311680B43136002B07047C3
:1047F000001002400000014070B5050088B014228E
:10480000002103A800F01EFA294B2A689A424DD1D4
:104810008021284B89009A6990200A439A619A69FD
:1048200003240A4080210092009A5A6989020A43AF
:104830005A615A69C0050A4080210192019A5A6959
:10484000C9020A435A615B6900260B400293029B2E
:10485000FE2303A903930494FDF756FA0123164897
:1048600003A9039304940596FDF74EFA134C144BD9
:10487000200023608023E360DB1823618023DB00BA
:10488000636120236660A660A361E661FDF746F8D8
:10489000B04201D0FFF790FF00220C2011002C63E2
:1048A0006562FCF7DDFF0C20FDF704F808B070BD71
:1048B000002401400010024000040048B80200201B
:1048C0000800024070B5040088B01422002103A83B
:1048D00000F0B8F9214B22689A423DD18021204B4B
:1048E0008904DA6902240A43DA61DA6903260A4094
:1048F00080210092009A5A69C9020A435A615A6992
:1049000004250A4080210192019A5A6989020A43CA
:104910005A615B6913480B400293029B802303A9F1
:104920005B000393049406960795FDF7EDF9802349
:104930009020049400245B0103A9C005039305940F
:1049400006960795FDF7E0F91E2022002100FCF7EE
:1049500087FF1E20FCF7AEFF08B070BD006400406A
:10496000001002400004004830B5050089B0142250
:10497000002103A800F066F92C4B2A689A4252D114
:1049800080222B4CD20263692A4813436361636916
:1049900003A913400193019BC02303220393AE3B61
:1049A0000493113B059306920793FDF7ADF980221E
:1049B000E36992031343E361E3691F4C13400293DD
:1049C000029B1E4B80222360002320006360A360B3
:1049D000E26023616361A361E361FCF79FFF00284C
:1049E00001D0FFF7E9FE164BEC636562154C80229F
:1049F00023601023636000232000A360E260236132
:104A00006361A361E361FCF789FF002801D0FFF730
:104A1000D3FE002217201100AC636562FCF720FF73
:104A20001720FCF747FF09B030BDC04600540040D6
:104A30000010024000040048F8010020300002404D
:104A40001C000240B40100207047FEE77047704729
:104A500010B5FCF74BF910BD10B50248FCF7EDFF9F
:104A600010BDC046B802002010B50348FCF7E5FFB2
:104A70000248FCF7E2FF10BDB4010020F80100205D
:104A800010B50248FCF7E0FA10BDC046FC02002059
:104A9000064810B503689A69E023DB001A4202D089
:104AA000FDF7E6FF10BDFDF75FFCFBE73C020020D1
:104AB00010B50248FCF7D8FD10BDC046900200209A
:104AC0000121114B11481A680A431A605A680240C2
:104AD0005A601A680E4802401A601A680D4802406F
:104AE0001A605A680C4802400F205A60DA6A824302
:104AF000DA621A6B094802401A635A6B8A435A6396
:104B000000229A607047C046001002400CB8FF08AF
:104B1000FFFFF6FEFFFFFBFFFFFFC0FF2CFEFFFFC6
:104B20001348854613480168090E134A914205D17E
:104B3000124813490160134813490160134814498E
:104B4000144A002302E0D458C4500433C4188C42E1
:104B5000F9D3114A114C002301E013600432A24240
:104B6000FBD3FFF7ADFF00F075F8FEF7B7FEFEE7E9
:104B7000FF170020040000001F0000001810024072
:104B800001000000000001400000000000000020C3
:104B900038000020D84D0008380000203C030020D9
:104BA000FEE7931E10B50C00222B04D900231C0035
:104BB0000B70200010BD0A2A09D1002807DA2D2326
:104BC0000B7001214042611800F008F8F1E7002164
:104BD000F9E710B5FFF7E5FF10BD0000F0B50C00D8
:104BE00016008DB025220700154902A800F056F8DE
:104BF000621EB31E00250192222B04D925702C00C1
:104C000020000DB0F0BD38003100FBF717FB0B00A2
:104C100002AAD35C019A2900013553553B000700D5
:104C20009E42F0D90023220063550B00C81A83422C
:104C3000E6DD1078E55C1570E0540132013BF5E7E4
:104C4000A84D000803008218934200D170471970E4
:104C50000133F9E770B500260C4C0D4D641BA41010
:104C6000A64209D1002600F023F80A4C0A4D641B25
:104C7000A410A64205D170BDB300EB589847013689
:104C8000EEE7B300EB5898470136F2E7D04D000845
:104C9000D04D0008D44D0008D04D0008002310B5B9
:104CA0009A4200D110BDCC5CC4540133F8E7000037
:104CB000F8B5C046F8BC08BC9E467047F8B5C0467B
:084CC000F8BC08BC9E467047D9
:104CC800436F6D6D616E643A20307800000000001B
:104CD8000000000026040008520300083C030008F6
:104CE800B80300083C030008EC0300083C03000874
:104CF800B80300085203000852030008EC03000838
:104D0800B80300082803000828030008280300083F
:104D1800F603000852030008520300083C03000889
:104D2800920400083C030008EC0300083C03000858
:104D3800920400085203000852030008EC0300081C
:104D48009204000828030008280300082803000824
:104D58000102030405060708090A0B0C0D0E0F10C3
:104D680002030405060708090A0B0C0D0E0F1010A4
:104D7800610163016501670169016B016D016F01E3
:104D8800600162016401660168016A016C016E01DB
:104D980000000000000000000102030406070809E3
:104DA8003031323334353637383961626364656699
:104DB8006768696A6B6C6D6E6F7071727374757603
:084DC8007778797A0000000001
:044DD000E9000008EE
:044DD400C100000812
:104DD8000100000004000000FF03FF03FF03FF03BE
:104DE800FF03FF03FF03FF030A0001010100FFFFA8
:104DF8000201E8035F08D60C4D11C3153A1AB11E1B
:084E08002823060100127A00C4
:0400000508004B2183
:00000001FF
