:020000040800F2
:10000000FF170020B96300085D62000867620008FE
:1000100000000000000000000000000000000000E0
:100020000000000000000000000000006D620008F9
:1000300000000000000000007762000881620008F4
:10004000396400083964000839640008396400081C
:10005000396400083964000839640008396400080C
:1000600039640008916200083964000839640008A6
:10007000A96200083964000839640008396400087E
:100080003964000800000000000000003964000826
:100090000000000039640008396400083964000871
:1000A0000000000039640008396400083964000861
:1000B0003964000800000000C162000839640008CB
:1000C00010B5064C2378002B07D1054B002B02D02E
:1000D000044800E000BF0123237010BDB8000020D9
:1000E00000000000B06C0008044B10B5002B03D0DA
:1000F0000349044800E000BF10BDC04600000000F6
:10010000BC000020B06C0008002243088B4274D36E
:1001100003098B425FD3030A8B4244D3030B8B4208
:1001200028D3030C8B420DD3FF22090212BA030C11
:100130008B4202D31212090265D0030B8B4219D3F2
:1001400000E0090AC30B8B4201D3CB03C01A524112
:10015000830B8B4201D38B03C01A5241430B8B425A
:1001600001D34B03C01A5241030B8B4201D30B0343
:10017000C01A5241C30A8B4201D3CB02C01A52416A
:10018000830A8B4201D38B02C01A5241430A8B422D
:1001900001D34B02C01A5241030A8B4201D30B0216
:1001A000C01A5241CDD2C3098B4201D3CB01C01A30
:1001B000524183098B4201D38B01C01A524143093A
:1001C0008B4201D34B01C01A524103098B4201D328
:1001D0000B01C01A5241C3088B4201D3CB00C01A95
:1001E000524183088B4201D38B00C01A524143080D
:1001F0008B4201D34B00C01A5241411A00D2014632
:10020000524110467047FFE701B5002000F006F8A4
:1002100002BDC0460029F7D076E770477047C04658
:100220008446081C6146FFE71FB500F055FB002817
:1002300001D40021C8421FBD10B500F0D7FA4042DA
:10024000013010BD10B500F047FB002801DB002095
:1002500010BD012010BDC04610B500F03DFB0028C8
:1002600001DD002010BD012010BDC04610B500F01A
:10027000E5FA002801DC002010BD012010BDC046B9
:1002800010B500F0DBFA002801DA002010BD0120D3
:1002900010BDC046F8B54746CE4643025B0A44004F
:1002A000C20F9C464800DD004B02240E5B0A000E84
:1002B00080B5984626009146C90FDB00271A8A426E
:1002C00029D0002F15DD00284AD1002B00D095E061
:1002D000ED08FF2C00D188E06B025B0AE6B25B02FE
:1002E000F605580A3043D20710430CBC9046994695
:1002F000F8BD002F00D087E0601CC0B2012800DCF0
:10030000B6E0EE1A720100D5C5E0002E3DD1002204
:1003100000260023E3E7002F00DC96E000285DD0F4
:10032000FF2C60D08022D20413431B2F00DDECE0B1
:100330002022D21B18009340F8405A1E93410343D9
:10034000ED186B017BD50134FF2C00D1B7E0012201
:1003500007262A406B089A4D1D4015432E4029E080
:10036000FF2CB5D08022D20413431B2F00DDB2E056
:100370002022D21B19009340F9405A1E93410B438F
:10038000ED1A6B015BD5AD01AE09300000F054FEF3
:1003900005388640844265DC041B3300202001348C
:1003A000E340041BA640751EAE41334307261D00E3
:1003B00000241E4001224B461A40002E04D00F2379
:1003C0002B40042B00D004356B0100D480E70134AE
:1003D000E6B2FF2C2FD1FF26002380E7002B52D15D
:1003E000FF2C00D074E70A00ED08002DF3D0802325
:1003F000DB032B435B025B0AFF2670E7013F002F04
:10040000BED0FF2CB1D163E7002C47D0FF2869D0C4
:100410008024E4047A4225431B2A00DDC5E02C0039
:100420002026D440B21A95406A1E954125435D1B93
:1004300004008946A5E7AB015B0A50E700240122CE
:100440004B461A406B07BAD142E7002F3BD101342B
:10045000E0B201284ADDFF2CBDD00726ED186D085B
:100460002E40A7E70723574D241A35401E40A1E729
:10047000002C1BD1002D6ED1002B00D19AE00A0078
:100480001D003C0024E7013F002F00D158E7FF2C5E
:1004900000D04AE7A7E75E1B894676E7002D1CD10E
:1004A0000A00FF281FD004001D0011E7002D5DD1B8
:1004B000002B17D180230022DB03FF260FE70A0061
:1004C000FF2600230BE7002C21D1002D66D1FF2849
:1004D000E9D11D0087E7012352E77A1CA7D0FA4330
:1004E000FF2899D10A001D00FF24F1E6002E21D13A
:1004F000002D4FD0002B4CD0ED186B019ED5314B09
:1005000007362E4001241D4054E7012318E7FF2839
:10051000DFD08024E4047F4225431B2F4DDC2026BE
:10052000F61B2C00B540FC406A1E95412543ED1892
:10053000040006E7002DCCD0002B00D153E780212A
:100540006046C903084203D04046084200D11D005E
:100550000121114047E7002B00D1B9E6EA1A50010A
:1005600025D507265D1B2E40894623E7FF24002B57
:1005700000D1ADE680226046D203104204D040464E
:10058000104201D11D00894601224B46FF241A402A
:100590009EE62B00DD080A0000249DE67A1CC6D0EA
:1005A000FF43FF28B9D11D001DE701253FE7151EB8
:1005B00000D044E70022002391E60125B7E7C046BA
:1005C000FFFFFF7DFFFFFFFBF8B557464E46454650
:1005D000DE464402E0B546008846640A360EC70F80
:1005E000002E63D0FF2E24D08023E400DB041C43C4
:1005F000002399469B467F3E434642465D02D20F0A
:100600005B006D0A1B0E9046924665D0FF2B55D0BD
:1006100080220021ED00D2047F3B1543F61A4346A9
:100620004A467B400F2A00D98DE06D4892008258DF
:100630009746002C54D108239946063BFF269B463B
:10064000DAE70025534602291BD0032900D1BFE079
:10065000012928D030007F30002820DD6A0704D02F
:100660000F222A40042A00D004352A0103D5300085
:100670005C4A80301540FE2803DCAC01640AC2B23B
:1006800001E0FF2200246402D205600ADB07104368
:1006900018433CBC90469946A246AB46F8BD0122A1
:1006A000101A1B287CDD00220024ECE7002C1DD151
:1006B00004239946033B00269B469DE7FF3E002D01
:1006C00020D1022143464A467B400A430F2AD8D80C
:1006D0004548920082589746002D19D10121F1E733
:1006E0000C239946093BFF269B4685E7200000F036
:1006F000A3FC7626431F9C4000237642361A994677
:100700009B4679E74A4603231A439146032186E72D
:10071000280000F091FC431F36189D4076360021DA
:100720007DE780240023E403FF22ACE7002580233B
:10073000DB031C4228D01D4226D12B435C02640AF5
:100740004346FF229FE762016C01A24224D21B2193
:100750000025013E012710006D005200002801DB3A
:10076000944201D8121B3D4301390029F3D11400F2
:10077000621E944125436DE7BA465946250053460B
:10078000022900D061E77CE78023DB031C4364027D
:10079000640A3B00FF2276E7121B1A210125D9E7E4
:1007A0009E362A00B5402C00C240651EAC41144361
:1007B000620704D00F222240042A00D004346201D0
:1007C00003D4A401640A00225DE7012200245AE751
:1007D0008024E4032C436402640AFF2253E7C046EA
:1007E000F86C0008FFFFFFF7386D000870B5420095
:1007F0004E024C0045026D0A120EC30F760A240EFB
:10080000C90FFF2A0FD0FF2C11D00120A24200D027
:1008100070BDB542FCD18B420DD0002AF8D1280022
:10082000451EA841F4E70120002DF1D1EBE701209E
:10083000002EEDD1E9E70020EAE7C04670B54A0096
:100840004E02450244006D0A240EC30F760A120EB2
:10085000C90FFF2C15D0FF2A0ED0002C15D1002A6D
:1008600001D1002E1CD0002D14D08B4227D00220A5
:10087000013B1840013870BD002EEED002204042EE
:10088000F9E7002DFAD1FF2A0ED0002A0ED1002E52
:10089000EDD00BE001230139994308000130EAE76C
:1008A0000020002DE7D0E2E7002EE7D18B42DED119
:1008B000944205DD0221581E08400138DBE7002480
:1008C000A24204DCB542D2D80020B542D3D2581E91
:1008D000012398430130CEE730B5420044024D0277
:1008E000C30F4800640A120E6D0A000EC90FFF2ADA
:1008F00012D0FF280CD0002A12D1002819D1002DC7
:1009000017D1002C2BD00220013B1840013826E0E3
:10091000002DF0D0022022E0002CFBD1FF281FD0B8
:1009200000281FD1002D1DD10220013B18400138A5
:1009300015E0002C0ED08B42E5D10022904204DC61
:10094000AC42E0D80020AC4209D2581E01239843A3
:10095000013004E00123013999430800013030BD22
:10096000002DD7D18B42CED18242E7DD0221581E25
:1009700008400138F3E7C046F0B54E4657464546B5
:10098000DE46E0B543025B0A450083B00F1C994682
:100990002D0EC60F002D57D0FF2D24D08020DB0058
:1009A000C0041843002381469A469B467F3D7C0243
:1009B0007A00FB0F640A120E984623D0FF2A4BD010
:1009C000E30080240020E4047F3A1C43AD186B1C34
:1009D00047460193534677403A000F2B48D87D494C
:1009E0009B00CB589F46002B00D085E008339A46E9
:1009F000063B9B467C027A00FB0FFF25640A120E21
:100A00009846DBD1002C00D090E0524601231A43D7
:100A100092460120DBE74C4658461700022824D0B6
:100A2000032800D1CFE00022002301284DD1580235
:100A3000D205400AFF071043384303B03CBC904640
:100A40009946A246AB46F0BD002B5BD104239A46E3
:100A5000033B00259B46AAE7FF35002C60D1524698
:100A600002231A4392460220B1E7FF220023DEE769
:100A70004B461B0C9C464B462604360C180461461C
:100A80003300220C6446000C43434E43504354430E
:100A900080191A0C1218964203D9802149028C46FB
:100AA00064441B041B0C1004C01883015E1EB34178
:100AB000800E1843130C1B199B0103431C002301D8
:100AC00079D5012362081C401443019A7F32002A21
:100AD0004DDD630704D00F232340042B00D00434E2
:100AE000230103D53C4B019A1C408032FE2ABCDC1A
:100AF000A3015B0AD2B29AE70C239A46093BFF2571
:100B00009B4654E7180000F097FA4A46431F7625A3
:100B10009A4000236D4291462D1A9A469B4646E71D
:100B2000524603231A439246032050E7200000F068
:100B300083FA431F2D1A9C40763D002047E780230F
:100B40000027DB03FF2272E7424666E74C4632008D
:100B5000584662E780234A46DB031A4222D01C42F1
:100B600020D123435B025B0A4746FF225FE7012354
:100B70009A1A1B2A21DC23000199D3409E318C4014
:100B80001A0023005C1EA34113435A0704D00F220E
:100B90001A40042A00D004335A0111D49B015B0A85
:100BA000002244E780234A46DB0313435B025B0ACF
:100BB0003700FF223BE7019587E70022002336E755
:100BC0000122002333E78023DB0323435B025B0A1C
:100BD000FF222CE7786D0008FFFFFFF7F8B54746C6
:100BE000CE464400C20F80B547024802400A844600
:100BF000664648007F0A240EF60025009046FB005A
:100C0000000EC90FB146FF2800D185E001267140D2
:100C1000261A914257D0002E43DD002800D07FE0F5
:100C20004946002900D1AAE0013E002E00D0F7E09D
:100C30005B1A5A0100D48BE09B019C09200000F054
:100C4000FBF905388440854200DDD3E0451B2300D5
:100C500020200135EB40451BAC40621E94412343EC
:100C6000072400251C40012241460A40002C04D0E4
:100C70000F211940042900D00433590100D480E029
:100C80000135ECB2FF2D00D0A3E0FF2400235B026E
:100C9000E405580AD207204310430CBC90469946FD
:100CA000F8BD002E74D1601CC0B2012800DCA7E0A2
:100CB0004A469C1A620100D5B6E0002CBED1002243
:100CC00000240023E3E7002E00DC85E0002846D066
:100CD000FF2C49D080224846D2041043814601228D
:100CE0001B2E09DC20204C46801B84404A462000F5
:100CF000F240441EA04102439B185A0128D50135F9
:100D0000FF2D00D1A8E00122072494491A405B0876
:100D10000B4013431C40A6E7002E00D078E775E790
:100D2000FF2C54D080224946D20411438946012227
:100D30001B2E09DC20214846891B88404A460100B9
:100D4000F240481E81410A439B1A5A0100D573E7BD
:100D5000012241460A40590700D089E711E0484680
:100D6000002858D1FF2C0CD1DB08002B00D18CE7D8
:100D70008020C00303435B025B0AFF2487E7FF2C4C
:100D800025D0DB08FF2DF0D05B025B0AECB27EE7DA
:100D9000002C4DD0FF2818D08024E4047242234355
:100DA0001B2A00DDC4E01C002025D440AA1A934071
:100DB0005A1E934123434A460500D31A884638E712
:100DC000721CF8D0F243FF28EAD10A004B46FF25F7
:100DD000D7E79B015B0A5AE7002E41D1651CE9B2B7
:100DE000012945DDFF2D00D14FE707244B445B0867
:100DF0001C4038E707225A4B2D1A2340144032E793
:100E0000002C1DD1002B7AD14B46002B00D191E054
:100E10000A000025B5E7013E002E19D14B446CE7CE
:100E2000FF2C84D1FF25ACE74A468846D41A05E753
:100E3000002BC5D10A00FF28C8D005004B46A0E70B
:100E4000002B49D14B46002B77D00A00FF2598E7AD
:100E5000FF2C00D043E787E70A00FF24002316E7B2
:100E6000002C15D1002B57D1FF28E6D14B467BE74C
:100E7000002C20D1002B57D04946002953D04B4499
:100E80005A0168D50724364A1C4001251340EAE67A
:100E9000FF28EBD08022D204764213431B2E53DC72
:100EA0002025AD1B1A00AB40F2405C1EA34113434A
:100EB0004B44050021E7002BD8D04946002900D13A
:100EC00052E78021C9030F4200D14DE76046084236
:100ED00000D049E74B4647E74846FF25002800D1A8
:100EE0004FE78022D203174204D06046104201D15E
:100EF0004B46884601224146FF250A4041E74846C5
:100F000000281FD01A1A500120D54A460724D31AA8
:100F10001C4088460025A6E6741CC9D0F643FF286D
:100F2000BCD14B4620E799464B460025DB082BE712
:100F3000012340E700220023A9E680230022DB03EF
:100F4000FF24A4E600251CE70123B1E7002AF1D025
:100F500013000025FCE60025FAE6C046FFFFFF7DF2
:100F6000FFFFFFFB41024200C30F490A120E00209F
:100F70007E2A0DD99D2A0CD8802000040143952A91
:100F80000ADC9620821AD1404842002B00D108008A
:100F90007047034A9818FBE7963A9140F4E7C04639
:100FA000FFFFFF7F70B500283DD0C317C5185D4017
:100FB000C40F280000F040F89E22121A962A07DC7F
:100FC000D2B2082833DD083885406802400A23E0A1
:100FD000992A0BDD052329001B1AD94003001B3376
:100FE0009D402B005D1EAB4119430D00052801DD1E
:100FF000431F9D402B000F490B406E0709D00F2661
:101000003540042D05D004335D0102D59F220B40ED
:10101000121A9B01580AD2B24002D205400AE407D4
:101020001043204370BD002400220020F4E7680232
:10103000400AF1E7FFFFFFFB1C2101231B0498423C
:1010400001D3000C10391B0A984201D3000A083959
:101050001B09984201D30009043902A2105C401810
:101060007047C046040302020101010100000000B4
:101070000000000080B500AF074B1A68064B102136
:101080000A431A60002000F009F804F0DDFE002396
:101090001800BD4680BDC0460020024080B582B029
:1010A00000AF786002F082FE0200FA23990010007F
:1010B000FFF72AF80300180001F036FC79680123D5
:1010C0005B420022180001F003FC00231800BD461B
:1010D00002B080BD80B500AF034B1B685A1C024BA9
:1010E0001A60C046BD4680BD2C01002080B500AF0F
:1010F000024B1B681800BD4680BDC0462C01002075
:1011000080B584B000AF7860FFF7F0FF0300BB60EC
:101110007B68FB60FB68013302D0FB680133FB6036
:10112000C046FFF7E3FF0200BB68D31AFA689A4291
:10113000F7D8C046BD4604B080BD000080B584B07D
:1011400000AF78600F23FB1800221A700023BB60E9
:101150007B68002B01D1012324E17B685B6C002BB1
:101160000AD17B6800229A647B684022002199544E
:101170007B68180004F094FE7B685B6C10221340BF
:1011800000D002E10F23FB181B78002B00D0FCE0FD
:101190007B681B689B680422134000D0F5E07B68E5
:1011A0005B6C824A134002221A437B685A647B6854
:1011B0001B689B6803221340012B12D17B681B68BC
:1011C0001B6801221340012B09D07B681B68DA6879
:1011D00080231B021A4080231B029A4201D1012363
:1011E00000E00023002B16D17B681B68DB68182207
:1011F000934319007B689A687B681B680A43DA602E
:101200007B681B681B699B0099087B685A687B6830
:101210001B680A431A617B681B68DA687B681B6875
:1012200063490A40DA607B689B699A037B68DB69E3
:10123000DB031A437B681B6A5B031A437B685B6BA7
:10124000012B02D080235B0100E000231A437B685E
:10125000DB681A437B681B69022B01D1042300E081
:1012600000231A437B681B6B5B001343BA6813436C
:10127000BB607B685B6A012B15D17B681B6A002B06
:1012800005D1BB68802252021343BB600BE07B6830
:101290005B6C20221A437B685A647B689B6C01223A
:1012A0001A437B689A647B689A6AC223FF339A4226
:1012B00007D07B689A6A7B68DB6A1343BA6813437A
:1012C000BB607B681B68D9687B681B68BA680A4387
:1012D000DA607B689A6B80235B059A421BD07B683F
:1012E0009B6B012B17D07B689B6B022B13D07B6809
:1012F0009B6B032B0FD07B689B6B042B0BD07B6805
:101300009B6B052B07D07B689B6B062B03D07B6800
:101310009B6B072B12D17B681B685A697B681B6823
:1013200007218A435A617B681B6859697B689B6BFC
:1013300007221A407B681B680A435A617B681B6856
:10134000DB681C4A1340BA689A420BD17B680022C2
:101350009A647B685B6C0322934301221A437B6887
:101360005A641CE07B685B6C1222934310221A4380
:101370007B685A647B689B6C01221A437B689A6481
:101380000F23FB1801221A7009E07B685B6C1022A6
:101390001A437B685A640F23FB1801221A700F232B
:1013A000FB181B781800BD4604B080BDFDFEFFFF92
:1013B0001902FEFFE7FF3F8390B587B000AFF860EA
:1013C000B9607A601723FB1800221A70FB681B684B
:1013D0009B68042213405ED1FB6840229B5C012B7A
:1013E00001D102235EE0FB68402201219954FB6891
:1013F000DB69012B07D01723FC18FB68180000F0ED
:1014000041FA030023701723FB181B78002B46D1E9
:10141000FB685B6C254A1340802252001A43FB682C
:101420005A64FB6800229A64FB68402200219954A8
:10143000FB68DB6B1E4A9A62FB68DB6B1D4ADA6253
:10144000FB68DB6B1C4A1A63FB681B681C221A6072
:10145000FB681B685A68FB681B6810210A435A60C6
:10146000FB681B68DA68FB681B6801210A43DA60C5
:10147000FB68D86BFB681B6840331900BA687B684F
:1014800001F0B4FAFB681B689A68FB681B680421CA
:101490000A439A6003E01723FB1802221A701723ED
:1014A000FB181B781800BD4607B090BDFEF0FFFF8B
:1014B0007D190008311A00084F1A000880B582B063
:1014C00000AF78607B681B681B6804221340042B04
:1014D00006D17B681B685B6804221340042B0DD087
:1014E0007B681B681B6808221340082B4FD17B6860
:1014F0001B685B6808221340082B48D17B685B6C33
:101500001022134006D17B685B6C802292001A4344
:101510007B685A647B681B68DA68C0231B01134030
:101520002DD17B681B6A002B29D17B681B681B6847
:1015300008221340082B22D17B681B689B68042279
:10154000134010D17B681B685A687B681B680C21AC
:101550008A435A607B685B6C324A134001221A430B
:101560007B685A640BE07B685B6C20221A437B68C3
:101570005A647B689B6C01221A437B689A647B687F
:10158000180000F051F87B681B680C221A607B6819
:101590001B681B6880221340802B15D17B681B6859
:1015A0005B6880221340802B0ED17B685B6C8022AD
:1015B00052021A437B685A647B68180000F044F8B2
:1015C0007B681B6880221A607B681B681B6810227E
:1015D0001340102B22D17B681B685B6810221340DC
:1015E000102B1BD17B685B6B012B05D07B681B68C4
:1015F000DB68012213400DD07B689B6C02221A43EA
:101600007B689A647B681B6810221A607B681800EC
:1016100000F022F87B681B6810221A60C046BD46A5
:1016200002B080BDFEFEFFFF80B582B000AF7860E3
:10163000C046BD4602B080BD80B582B000AF7860C4
:10164000C046BD4602B080BD80B582B000AF7860B4
:10165000C046BD4602B080BD80B582B000AF7860A4
:10166000C046BD4602B080BD80B584B000AF786092
:1016700039600F23FB1800221A700023BB607B68BF
:101680009A6B80235B059A4211D07B689B6B012B80
:101690000DD07B689B6B022B09D07B689B6B032B67
:1016A00005D07B689B6B042B01D07B689B6B7B68B0
:1016B00040229B5C012B01D10223D0E07B684022B9
:1016C000012199547B681B689B680422134000D059
:1016D000B4E03B685B68644A934200D182E07B6877
:1016E0001B68996A3B681B6801229A407B681B68EB
:1016F0000A439A627B689A6B80235B059A4237D0D3
:101700007B689B6B012B33D07B689B6B022B2FD0AC
:101710007B689B6B032B2BD07B689B6B042B27D0A8
:101720007B689B6B052B23D07B689B6B062B1FD0A4
:101730007B689B6B072B1BD03B689A687B681B6898
:101740005B6907210B409A4212D07B681B685A697B
:101750007B681B6807218A435A617B681B6859694B
:101760003B689B6807221A407B681B680A435A61E2
:101770003B681B68102B07D03B681B68112B03D0FC
:101780003B681B68122B63D1384B19683B681B6898
:10179000102B09D03B681B68112B02D18023DB037F
:1017A00004E080235B0401E080231B042F4A0B43E9
:1017B00013603B681B68102B4AD12D4B1B682D49C9
:1017C0001800FEF7A1FC03001A0013009B009B18F1
:1017D0005B00BB6002E0BB68013BBB60BB68002BE9
:1017E000F9D135E07B681B689A6A3B681B68012168
:1017F00099400B00D9437B681B680A409A623B689A
:101800001B68102B07D03B681B68112B03D03B686B
:101810001B68122B1CD1154B19683B681B68102BD9
:1018200007D03B681B68112B01D1134B02E0134B0F
:1018300000E0134B0D4A0B40136009E07B685B6CC2
:1018400020221A437B685A640F23FB1801221A7066
:101850007B684022002199540F23FB181B78180045
:10186000BD4604B080BDC0460110000008270140FD
:101870004C00002040420F00FFFFBFFFFFFFFFFEB4
:10188000FFFF7FFF80B584B000AF78600023FB606E
:101890000023BB607B681B689B6803221340012BFD
:1018A00012D17B681B681B6801221340012B09D0F1
:1018B0007B681B68DA6880231B021A4080231B02A6
:1018C0009A4201D1012300E00023002B4BD17B6819
:1018D0001B689B68264A13400DD07B685B6C102206
:1018E0001A437B685A647B689B6C01221A437B68AD
:1018F0009A64012338E07B681B689A687B681B68E0
:1019000001210A439A601B4B1B681B491800FEF714
:10191000FBFB0300BB6002E0BB68013BBB60BB6834
:10192000002BF9D1FFF7E2FB0300FB6014E0FFF7A7
:10193000DDFB0200FB68D31A022B0DD97B685B6CC0
:1019400010221A437B685A647B689B6C01221A43FD
:101950007B689A64012307E07B681B681B6801228F
:101960001340012BE3D100231800BD4604B080BD15
:10197000170000804C00002040420F0080B584B06A
:1019800000AF78607B685B6AFB60FB685B6C502231
:10199000134040D1FB685B6C802292001A43FB68C5
:1019A0005A64FB681B68DA68C0231B0113402DD101
:1019B000FB681B6A002B29D1FB681B681B68082287
:1019C0001340082B22D1FB681B689B68042213403C
:1019D00010D1FB681B685A68FB681B680C218A439E
:1019E0005A60FB685B6C114A134001221A43FB6882
:1019F0005A640BE0FB685B6C20221A43FB685A6454
:101A0000FB689B6C01221A43FB689A64FB68180010
:101A1000FFF70AFE05E0FB68DB6B1B6B7A681000C2
:101A20009847C046BD4604B080BDC046FEFEFFFFDD
:101A300080B584B000AF78607B685B6AFB60FB6850
:101A40001800FFF7F9FDC046BD4604B080BD80B563
:101A500084B000AF78607B685B6AFB60FB685B6C9E
:101A600040221A43FB685A64FB689B6C04221A43A9
:101A7000FB689A64FB681800FFF7EEFDC046BD46A0
:101A800004B080BD80B584B000AF78607B68002B67
:101A900001D10123F0E07B6820229B5CDBB2002BAC
:101AA00003D17B68180004F095FA7B681B681A68FC
:101AB0007B681B6802218A431A60FFF717FB03004B
:101AC000FB6013E0FFF712FB0200FB68D31A0A2B3E
:101AD0000CD97B685B6A802292021A437B685A6247
:101AE0007B682022052199540123C5E07B681B688F
:101AF0005B6802221340E5D17B681B681A687B682B
:101B00001B6801210A431A60FFF7F0FA0300FB602B
:101B100013E0FFF7EBFA0200FB68D31A0A2B0CD98B
:101B20007B685B6A802292021A437B685A627B68F8
:101B300020220521995401239EE07B681B685B6885
:101B400001221340E5D07B681B7E012B08D17B6806
:101B50001B681A687B681B6880210A431A6007E0CB
:101B60007B681B681A687B681B6880218A431A603F
:101B70007B685B7E012B08D17B681B681A687B68D9
:101B80001B6840210A431A6007E07B681B681A68DB
:101B90007B681B6840218A431A607B689B7E012B0F
:101BA00008D17B681B681A687B681B6820210A4380
:101BB0001A6007E07B681B681A687B681B68202135
:101BC0008A431A607B68DB7E012B08D17B681B6827
:101BD0001A687B681B6810218A431A6007E07B68DB
:101BE0001B681A687B681B6810210A431A607B68AF
:101BF0001B7F012B08D17B681B681A687B681B68F8
:101C000008210A431A6007E07B681B681A687B6832
:101C10001B6808218A431A607B685B7F012B08D10F
:101C20007B681B681A687B681B6804210A431A607A
:101C300007E07B681B681A687B681B6804218A437D
:101C40001A607B689A687B68DB681A437B681B694B
:101C50001A437B685B691A4311007B685B685A1EF4
:101C60007B681B680A43DA617B6800225A627B68E2
:101C700020220121995400231800BD4604B080BDE4
:101C800080B586B000AF786039607B681B687B6187
:101C900013203B187A682021525C1A703B181B787D
:101CA000012B05D01323FB181B78022B00D0CDE0AD
:101CB0007A6980239B00D35801221A4311007A6964
:101CC00080239B00D1503B685B691F221340012297
:101CD0009A401300FB607A6987239B00D358FA6807
:101CE000D2431A4011007A6987239B00D1503B6888
:101CF000DB69002B29D17A6983239B00D358FA68CA
:101D0000D2431A4011007A6983239B00D1503B686B
:101D1000DB6818043B685B681B04190C3B685A6954
:101D200001437B694832D200D1503B689B6819045B
:101D30003B681B681B041A0C3B685B690A437969A2
:101D40004833DB00CB1804331A603B68DB69012B96
:101D500028D17A6983239B00D258FB681A4311006B
:101D60007A6983239B00D1503B681B6818043B6849
:101D70005B681B04190C3B685A6901437B69483254
:101D8000D200D1503B689B6819043B68DB681B0498
:101D90001A0C3B685B690A4379694833DB00CB184E
:101DA00004331A603B689B69002B0CD17A6981234C
:101DB0009B00D358FA68D2431A4011007A698123F4
:101DC0009B00D1500AE07A6981239B00D258FB68BE
:101DD0001A4311007A6981239B00D1503B681B692B
:101DE000002B0CD17A6985239B00D358FA68D24323
:101DF0001A4011007A6985239B00D1500AE07A6964
:101E000085239B00D258FB681A4311007A69852309
:101E10009B00D1503B681B6A012B0AD17A6987234A
:101E20009B00D258FB681A4311007A6987239B00F4
:101E3000D1507A6980239B00D35801229343190023
:101E40007A6980239B00D150002307E07B685B6A9E
:101E50008022D2021A437B685A6201231800BD46D1
:101E600006B080BD80B584B000AF78607B6820226A
:101E70009B5CDBB2012B2FD17B682022022199547D
:101E80007B681B681A687B681B6801218A431A609B
:101E9000FFF72CF90300FB6013E0FFF727F90200BE
:101EA000FB68D31A0A2B0CD97B685B6A80229202EA
:101EB0001A437B685A627B682022052199540123CA
:101EC00012E07B681B685B6801221340E5D17B68E8
:101ED00000225A62002307E07B685B6A80221203BB
:101EE0001A437B685A6201231800BD4604B080BDC6
:101EF00080B588B000AFF860B9607A603B601F20A1
:101F00003B18FA682021525C1A70FB681B689B68BA
:101F1000BB613B181B78012B05D01F23FB181B78D6
:101F2000022B00D0B7E0BA698023DB0413400AD14A
:101F3000BA6980231B05134005D1BA6980235B056C
:101F4000134000D19EE0BB691B0E032213407B614E
:101F50007B69022B08D9FB685B6A802212041A4352
:101F6000FB685A6201239EE001227B699A403B682C
:101F70001A60BB689B68002B0CD1BB681B685905B5
:101F8000BB68DA68FB681B6811437A691832120172
:101F9000D1500FE0BB685B68DA00BB689B681A43EE
:101FA0001100BB68DA68FB681B6811437A69183254
:101FB0001201D150FB681968BB681A697B69183334
:101FC0001B01CB1804331A60BB681B7D012B12D197
:101FD000FB681A687B6918331B01D31804331A682D
:101FE000FB68196880235B001A437B6918331B0167
:101FF000CB1804331A607B6807331B781A067B689A
:1020000006331B781B041A437B6805331B781B02BD
:102010001A437B6804331B781900FB6818680A436D
:102020007969C6235B0009014118CB181A607B68E7
:1020300003331B781A067B6802331B781B041A4390
:102040007B6801331B781B021A437B681B781900DD
:10205000FB6818680A437969C4235B0009014118C9
:10206000CB181A60FB681B687A6918321201D258C3
:10207000FB681B68012111437A6918321201D150A3
:10208000002310E0FB685B6A802292031A43FB681E
:102090005A62012307E0FB685B6A8022D2021A437E
:1020A000FB685A6201231800BD4608B080BD80B5A8
:1020B00086B000AFF860B9607A603B6017203B18CB
:1020C000FA682021525C1A703B181B78012B05D04E
:1020D0001723FB181B78022B00D0F9E0BB68002BFC
:1020E0000ED1FB681B68DB680322134017D1FB6825
:1020F0005B6A802292031A43FB685A620123EFE075
:10210000FB681B681B690322134008D1FB685B6AEC
:10211000802292031A43FB685A620123E0E0FB68C5
:102120001B68BA681B321201D35804221A407B681C
:102130009A607B689B68002B0BD1FB681B68BA68B0
:102140001B321201D3585B0D5B055A0D7B681A6078
:102150000AE0FB681B68BA681B321201D358DB081F
:10216000DB00DA087B685A60FB681B68BA681B32C0
:102170001201D3585B0801221A407B68DA60FB68C1
:102180001A68BB681B331B01D31804331B680F226A
:102190001A407B681A61FB681A68BB681B331B0115
:1021A000D31804331B681B0AFF221A407B689A610C
:1021B000FB681A68BB681B331B01D31804331B6808
:1021C0001B0C1B041A0C7B685A61FB681968BA68FF
:1021D000DC235B0012018A18D3181B68DAB23B6853
:1021E0001A70FB681968BA68DC235B0012018A1850
:1021F000D3181B681A0A3B680133D2B21A70FB6805
:102200001968BA68DC235B0012018A18D3181B68AE
:102210001A0C3B680233D2B21A70FB681968BA68AC
:10222000DC235B0012018A18D3181B681A0E3B6866
:102230000333D2B21A70FB681968BA68DE235B00F8
:1022400012018A18D3181A683B680433D2B21A7084
:10225000FB681968BA68DE235B0012018A18D3187C
:102260001B681A0A3B680533D2B21A70FB681968FA
:10227000BA68DE235B0012018A18D3181B681A0C97
:102280003B680633D2B21A70FB681968BA68DE235D
:102290005B0012018A18D3181B681A0E3B680733BB
:1022A000D2B21A70BB68002B08D1FB681B68DA68D1
:1022B000FB681B6820210A43DA6007E0FB681B68A3
:1022C0001A69FB681B6820210A431A61002307E092
:1022D000FB685B6A8022D2021A43FB685A620123C0
:1022E0001800BD4606B080BD80B584B000AF7860F0
:1022F00039600F203B187A682021525C1A703B1815
:102300001B78012B04D00F23FB181B78022B09D15B
:102310007B681B6859697B681B683A680A435A6185
:10232000002307E07B685B6A8022D2021A437B6845
:102330005A6201231800BD4604B080BD80B58AB042
:1023400000AF786000237B627B681B685B693B623F
:102350007B681B685B68FB617B681B689B68BB6173
:102360007B681B68DB687B617B681B681B693B6162
:102370007B681B689B69FB603B6A0122134000D1AC
:1023800084E0BB690122134024D07B681B680122D2
:102390009A60BB690222134004D07B68180000F0E9
:1023A0007EF917E0BB690422134005D07B6A8022C6
:1023B000120113437B620DE0BB690822134005D074
:1023C0007B6A8022520113437B6203E07B68180022
:1023D00000F07DF9BA6980235B00134028D07B6848
:1023E0001B68802252009A60BA6980239B001340C8
:1023F00004D07B68180000F05AF919E0BA6980230C
:10240000DB00134005D07B6A8022920113437B627C
:102410000EE0BA6980231B01134005D07B6A80223D
:10242000D20113437B6203E07B68180000F057F988
:10243000BA6980235B02134028D07B681B68802226
:1024400052029A60BA6980239B02134004D07B68D1
:10245000180000F034F919E0BA698023DB02134058
:1024600005D07B6A8022120213437B620EE0BA69B8
:1024700080231B03134005D07B6A80225202134342
:102480007B6203E07B68180000F031F93B6A0822A8
:1024900013400CD07B691022134008D07B6A802245
:1024A000920013437B627B681B681022DA603B6AF0
:1024B000042213400BD07B690822134007D07B68AD
:1024C0001B680822DA607B68180000F018F93B6A84
:1024D0000222134009D07B681B68DB68032213408B
:1024E00003D07B68180003F079FB3B6A402213405D
:1024F0000CD03B691022134008D07B6A8022D200A6
:1025000013437B627B681B6810221A613B6A20229E
:1025100013400BD03B690822134007D07B681B682F
:1025200008221A617B68180000F0F9F83B6A102253
:10253000134009D07B681B681B690322134003D03A
:102540007B68180000F0E3F83A6A80239B0213408E
:102550000BD0FB691022134007D07B681B68102248
:102560005A607B68180000F0E2F83A6A80235B0248
:1025700013400BD0FB690822134007D07B681B680F
:1025800008225A607B68180000F0D9F83A6A802364
:102590001B02134000D171E0FB690422134000D1FB
:1025A00068E03A6A80235B00134007D0FB68012291
:1025B000134003D07B6A012213437B623A6A802373
:1025C0009B00134007D0FB680222134003D07B6AB4
:1025D000022213437B623A6A8023DB00134007D058
:1025E000FB680422134003D07B6A042213437B62FE
:1025F0003A6A80231B0113403CD0FB6870221340D1
:1026000038D0FB6870221340302B16D004D8102B22
:1026100009D0202B0CD025E0502B18D0602B1BD0DC
:10262000402B0FD01EE07B6A082213437B6219E027
:102630007B6A102213437B6214E07B6A20221343DF
:102640007B620FE07B6A402213437B620AE07B6A75
:10265000802213437B6205E07B6A80225200134391
:102660007B62C0467B681B689A697B681B68702127
:102670008A439A617B681B6804225A607B6A002B3C
:1026800009D07B685A6A7B6A1A437B685A627B6806
:10269000180000F05CF8C046BD460AB080BD80B5A9
:1026A00082B000AF7860C046BD4602B080BD80B544
:1026B00082B000AF7860C046BD4602B080BD80B534
:1026C00082B000AF7860C046BD4602B080BD80B524
:1026D00082B000AF7860C046BD4602B080BD80B514
:1026E00082B000AF7860C046BD4602B080BD80B504
:1026F00082B000AF7860C046BD4602B080BD80B5F4
:1027000082B000AF7860C046BD4602B080BD80B5E3
:1027100082B000AF7860C046BD4602B080BD80B5D3
:1027200082B000AF7860C046BD4602B080BD80B5C3
:1027300082B000AF7860C046BD4602B080BD80B5B3
:1027400082B000AF7860C046BD4602B080BD80B5A3
:1027500082B000AF7860C046BD4602B080BD0000C8
:1027600080B582B000AF0200FB1D1A70FB1D1B7804
:102770001A001F231A40044B012191400A001A60DD
:10278000C046BD4602B080BD00E100E090B583B018
:1027900000AF02003960FB1D1A70FB1D1B787F2BF8
:1027A00032D92F4AFB1D1B7819000F230B40083B21
:1027B0009B0806339B00D31804331B68FA1D12785C
:1027C000110003220A40D200FF2191400A00D243A7
:1027D0001A4011003B689B01FF221A40FB1D1B7829
:1027E000180003230340DB009A401D48FB1D1B78A3
:1027F0001C000F232340083B9B080A4306339B0021
:10280000C31804331A6027E0164AFB1D1B785BB21D
:102810009B08C0339B009B58FA1D127811000322BD
:102820000A40D200FF2191400A00D2431A40110011
:102830003B689B01FF221A40FB1D1B7818000323F5
:102840000340DB009A400748FB1D1B785BB29B08E6
:102850000A43C0339B001A50C046BD4603B090BD2A
:1028600000ED00E000E100E080B500AFBFF34F8F66
:10287000034B044ADA60BFF34F8FC046FDE7C04602
:1028800000ED00E00400FA0580B582B000AF78608A
:102890007B68013B0C4A934201D9012310E00B4BAA
:1028A0007A68013A5A6001235B4203211800FFF75E
:1028B0006DFF064B00229A60044B07221A6000232A
:1028C0001800BD4602B080BDFFFFFF0010E000E031
:1028D00080B584B000AFB9607A600F217B18021C0C
:1028E0001A70BA687B181B785BB211001800FFF7EA
:1028F0004DFFC046BD4604B080BD80B582B000AF7C
:102900000200FB1D1A70FB1D1B785BB21800FFF75D
:1029100027FFC046BD4602B080BD80B500AFFFF7BF
:10292000A3FFC046BD4680BD80B582B000AF7860D1
:102930007B681800FFF7A8FF03001800BD4602B02F
:1029400080BD000080B584B000AF78600023FB60DC
:102950007B68002B01D1012342E07B682122022108
:1029600099547B681B681B68FB60FB681E4A134018
:10297000FB607B685A687B689B681A437B68DB68EE
:102980001A437B681B691A437B685B691A437B683F
:102990009B691A437B68DB691343FA681343FB6046
:1029A0007B681B68FA681A607B68180000F052F9AF
:1029B0007B6800229A627B680022DA627B680022D0
:1029C0001A637B6800225A637B6800229A637B68E3
:1029D0002122012199547B6820220021995400234F
:1029E0001800BD4604B080BD0FC0FFFF80B586B0A3
:1029F00000AFF860B9607A603B601723FB180022D3
:102A00001A70FB6820229B5C012B01D102234FE04E
:102A1000FB68202201219954FB6821229B5CDBB2D8
:102A2000012B3AD1FB68212202219954FB68002234
:102A30009A63FB681B681A68FB681B6801218A435C
:102A40001A603B687A68B968F86800F0D7F8FB68E4
:102A5000DB6A002B08D0FB681B681A68FB681B68E0
:102A60000E210A431A600FE0FB681B681A68FB68B6
:102A70001B680A210A431A60FB681B681A68FB6816
:102A80001B6804218A431A60FB681B681A68FB688C
:102A90001B6801210A431A6007E0FB68202200211D
:102AA00099541723FB1802221A701723FB181B785E
:102AB0001800BD4606B080BD80B584B000AF786018
:102AC0007B68DB6B1B68FB607B681B681B68BB60FB
:102AD0007B681B6C04229A401300FA68134024D0D0
:102AE000BB680422134020D07B681B681B6820222F
:102AF000134007D17B681B681A687B681B68042138
:102B00008A431A607B681A6C7B68DB6B04219140F6
:102B10000A005A607B68DB6A002B00D16AE07B68A0
:102B2000DB6A7A681000984764E07B681B6C0222BD
:102B30009A401300FA6813402BD0BB68022213405E
:102B400027D07B681B681B68202213400BD17B6851
:102B50001B681A687B681B680A218A431A607B68B5
:102B60002122012199547B681A6C7B68DB6B02215E
:102B700091400A005A607B682022002199547B68AA
:102B80009B6A002B36D07B689B6A7A681000984756
:102B900030E07B681B6C08229A401300FA681340EF
:102BA00028D0BB680822134024D07B681B681A68B1
:102BB0007B681B680E218A431A607B681A6C7B68ED
:102BC000DB6B012191400A005A607B6801229A6305
:102BD0007B682122012199547B682022002199548D
:102BE0007B681B6B002B05D07B681B6B7A68100021
:102BF0009847FFE7C046BD4604B080BD80B584B0AD
:102C000000AFF860B9607A603B60FB681A6CFB68E3
:102C1000DB6B012191400A005A60FB681B683A682F
:102C20005A60FB685B68102B08D1FB681B687A68E8
:102C30009A60FB681B68BA68DA6007E0FB681B688B
:102C4000BA689A60FB681B687A68DA60C046BD465D
:102C500004B080BD80B582B000AF78607B681B682F
:102C6000084A9446634414211800FDF74DFA030006
:102C70009A007B681A647B68034ADA63C046BD46E3
:102C800002B080BDF8FFFDBF00000240F0B587B084
:102C900000AFF860B9603A607B601723FB1801222F
:102CA0001A701623FB1800221A701523FB18002235
:102CB0001A703E4B1B7E012B01D1022372E03B4B6D
:102CC00001221A761723FE18394B180000F0C4F8B9
:102CD000030033701723FB181B78002B5CD1FB68B3
:102CE000012B04D11523FB1801221A700BE0FB689D
:102CF000022B04D11523FB1802221A7003E01523BE
:102D0000FB1804221A701623FB1800221A7039E0EF
:102D100016217B181B785A00BB68D0187B181B78CB
:102D20001B011A00203A002A03DB7968D1400C000D
:102D300008E02022D21A796891400A003968D94007
:102D40000C0014437A68DA401500A3B2190000F0B1
:102D500067F81723FE18164B180000F07DF80300E3
:102D60003370144B1A69134B01218A431A611723DC
:102D7000FB181B78002B0ED116217B181A787B18B4
:102D800001321A701623FA181523FB1812781B78D3
:102D90009A42BDD300E0C046044B00221A761723A6
:102DA000FB181B781800BD4607B0F0BD30010020AD
:102DB00050C300000020024080B582B000AFFB1D70
:102DC00000221A700C4B1B69802213400DD00A4B55
:102DD0000A4A5A60084B0A4A5A60074B1B6980220C
:102DE000134002D0FB1D01221A70FB1D1B78180036
:102DF000BD4602B080BDC0460020024023016745A9
:102E0000AB89EFCD80B500AF044B1A69034B80212D
:102E10000A431A6100231800BD4680BD002002400D
:102E200080B582B000AF78600A00BB1C1A80084BE6
:102E30000022DA61074B1A69064B01210A431A6125
:102E40007B68BA1C12881A80C046BD4602B080BD9D
:102E5000300100200020024080B584B000AF7860CF
:102E6000FEF744F90300FB600FE07B6801330CD0F0
:102E70007B68002B07D0FEF739F90200FB68D31AF4
:102E80007A689A4201D203231FE0124BDB680122C9
:102E90001340012BE9D00F4BDB6820221340202B7D
:102EA00002D10C4B2022DA600A4BDB68102213405F
:102EB000102B05D0074BDB6804221340042B03D1F1
:102EC00000F00AF8012300E000231800BD4604B01A
:102ED00080BDC0460020024080B582B000AF002314
:102EE0007B60134BDB6810221340102B09D1114B70
:102EF000DB6902221A430F4BDA617B68102213430D
:102F00007B600B4BDB6804221340042B09D1094B77
:102F1000DB6901221A43074BDA617B680422134301
:102F20007B60034B7A68DA60C046BD4602B080BD64
:102F30000020024030010020B0B584B000AF7860BE
:102F400039600F23FB1801221A700023BB60324B3B
:102F50001B7E012B01D102235AE02F4B01221A764E
:102F60007B681B68012B16D12C4B1800FFF774FFF0
:102F7000031E47D100F056F80F23FC18274B18000A
:102F8000FFF76AFF03002370254B1A69244B0421C5
:102F90008A431A6136E0214B1800FFF75DFF031EDC
:102FA00030D13B68012252421A607B685B68BB608B
:102FB0001FE0BB68180000F04DF80F257C19174B77
:102FC0001800FFF749FF03002370154B1A69144BD3
:102FD00002218A431A617B191B78002B03D03B68BE
:102FE000BA681A600EE0BB688022D200944663443F
:102FF000BB607B689B689A027B685B68D318BA6881
:103000009A42D6D3044B00221A760F23FB181B7862
:103010001800BD4604B0B0BD3001002050C3000010
:103020000020024080B500AF084B0022DA61084B57
:103030001A69074B04210A431A61054B1A69044BAC
:1030400040210A431A61C046BD4680BD30010020C0
:103050000020024080B582B000AF78600A4B0022A9
:10306000DA610A4B1A69094B02210A431A61074BBC
:103070007A685A61054B1A69044B40210A431A6168
:10308000C046BD4602B080BD300100200020024095
:1030900080B586B000AF7860396000237B61002383
:1030A000FB6000233B6149E13B681B6801217A69B1
:1030B00091400A001340FB60FB68002B00D13AE10D
:1030C0003B685B68022B03D03B685B68122B23D103
:1030D0007B69DA087B6808329200D3583B617B69D0
:1030E000072213409B000F229A401300DA433B69EA
:1030F00013403B613B681A697B6907210B409B00C9
:103100009A4013003A6913433B617B69DA087B6894
:10311000083292003969D1507B681B683B617B693A
:103120005B0003229A401300DA433B6913403B6182
:103130003B685B6803221A407B695B009A4013007E
:103140003A6913433B617B683A691A603B685B6884
:10315000012B0BD03B685B68022B07D03B685B6898
:10316000112B03D03B685B68122B30D17B689B68C6
:103170003B617B695B0003229A401300DA433B69A1
:1031800013403B613B68DA687B695B009A4013003F
:103190003A6913433B617B683A699A607B685B6874
:1031A0003B6101227B699A401300DA433B6913407B
:1031B0003B613B685B681B0901221A407B699A40AE
:1031C00013003A6913433B617B683A695A607B6834
:1031D000DB683B617B695B0003229A401300DA43A2
:1031E0003B6913403B613B689A687B695B009A408E
:1031F00013003A6913433B617B683A69DA603B68C4
:103200005A6880235B05134000D194E0514B9A69C2
:10321000504B01210A439A614E4B9B690122134096
:10322000BB60BB684C4A7B699B0802339B009B5880
:103230003B617B69032213409B000F229A401300DD
:10324000DA433B6913403B617A689023DB059A427D
:103250000DD07B68414A934207D07B68404A934235
:1032600001D1022304E0052302E0012300E0002352
:103270007A6903210A40920093403A6913433B6103
:1032800035497B699B0802339B003A695A50354B9C
:103290001B683B61FB68DA433B6913403B613B6859
:1032A0005A6880235B02134003D03A69FB681343DA
:1032B0003B612C4B3A691A602A4B5B683B61FB68A7
:1032C000DA433B6913403B613B685A6880239B02A9
:1032D000134003D03A69FB6813433B61214B3A69C1
:1032E0005A60204B9B683B61FB68DA433B691340A3
:1032F0003B613B685A6880235B03134003D03A6903
:10330000FB6813433B61174B3A699A60154BDB68C6
:103310003B61FB68DA433B6913403B613B685A6899
:1033200080239B03134003D03A69FB6813433B613E
:103330000C4B3A69DA607B6901337B613B681A6840
:103340007B69DA40131E00D0AEE6C046BD4606B02B
:1033500080BDC0460010024000000140000400484B
:10336000000800480004014080B584B000AF7860D8
:103370000A00BB1C1A807B681B69BA1C12881340A8
:1033800004D00F23FB1801221A7003E00F23FB184F
:1033900000221A700F23FB181B781800BD4604B0DA
:1033A00080BD80B582B000AF786008001100BB1C02
:1033B000021C1A807B1C0A1C1A707B1C1B78002BB9
:1033C00004D0BB1C1A887B689A6103E0BB1C1A8876
:1033D0007B689A62C046BD4602B080BD80B586B0AB
:1033E00000AF786000233B617B681B6801221340BB
:1033F00000D18DE0C54B5B680C221340042B0ED02E
:10340000C24B5B680C221340082B16D1BF4B5A6885
:10341000C0235B021A4080235B029A420DD1BB4B52
:103420001A6880239B02134000D170E07B685B68C0
:10343000002B00D06BE0012329E37B685B68012B44
:1034400007D1B24B1A68B14B802149020A431A6076
:103450002FE07B685B68002B0CD1AC4B1A68AB4B40
:10346000AB490A401A60A94B1A68A84BA9490A40FF
:103470001A601EE07B685B68052B0ED1A34B1A68AF
:10348000A24B8021C9020A431A60A04B1A689F4BC5
:10349000802149020A431A600BE09C4B1A689B4B3F
:1034A0009B490A401A60994B1A68984B99490A40FF
:1034B0001A607B685B68002B14D0FDF717FE0300D1
:1034C0003B6108E0FDF712FE02003B69D31A642B52
:1034D00001D90323DBE28D4B1A6880239B02134042
:1034E000F0D015E0FDF702FE03003B6108E0FDF7B8
:1034F000FDFD02003B69D31A642B01D90323C6E208
:10350000824B1A6880239B021340F0D100E0C04632
:103510007B681B680222134000D16CE07B4B5B6828
:103520000C2213400ED0794B5B680C221340082B01
:103530001FD1764B5A68C0235B021A4080231B02BE
:103540009A4216D1714B1B680222134005D07B684A
:10355000DB68012B01D0012399E26C4B1B68F82238
:10356000934319007B681B69DA00684B0A431A60B1
:1035700041E07B68DB68002B24D0644B1A68634B06
:1035800001210A431A60FDF7B1FD03003B6108E029
:10359000FDF7ACFD02003B69D31A022B01D90323CE
:1035A00075E25A4B1B6802221340F1D0574B1B683F
:1035B000F822934319007B681B69DA00534B0A43D6
:1035C0001A6018E0514B1A68504B01218A431A6067
:1035D000FDF78CFD03003B6108E0FDF787FD02006D
:1035E0003B69D31A022B01D9032350E2474B1B68D6
:1035F00002221340F1D17B681B680822134036D0A9
:103600007B68DB69002B19D0404B5A6A3F4B012184
:103610000A435A62FDF76AFD03003B6108E0FDF7CB
:1036200065FD02003B69D31A022B01D903232EE268
:10363000364B5B6A02221340F1D018E0334B5A6AD2
:10364000324B01218A435A62FDF750FD03003B6172
:1036500008E0FDF74BFD02003B69D31A022B01D9AC
:10366000032314E2294B5B6A02221340F1D17B68E9
:103670001B680422134000D1B6E01723FB18002278
:103680001A70224BDA6980235B05134011D11F4B5E
:10369000DA691E4B802149050A43DA611B4BDA695E
:1036A00080235B051340FB60FB681723FB18012296
:1036B0001A70194B1A6880235B0013401AD1164BFD
:1036C0001A68154B802149000A431A60FDF70EFD68
:1036D00003003B6108E0FDF709FD02003B69D31AD6
:1036E000642B01D90323D2E10B4B1A6880235B00C2
:1036F0001340F0D07B689B68012B0FD1034B1A6AF3
:10370000024B01210A431A6236E0C0460010024013
:10371000FFFFFEFFFFFFFBFF007000407B689B6820
:10372000002B0CD1CA4B1A6AC94B01218A431A6279
:10373000C74B1A6AC64B04218A431A621CE07B6895
:103740009B68052B0CD1C24B1A6AC14B04210A435A
:103750001A62BF4B1A6ABE4B01210A431A620BE080
:10376000BB4B1A6ABA4B01218A431A62B84B1A6AD8
:10377000B74B04218A431A627B689B68002B14D0E4
:10378000FDF7B4FC03003B6109E0FDF7AFFC02006C
:103790003B69D31AAF4A934201D9032377E1AC4B7B
:1037A0001B6A02221340F0D013E0FDF79FFC0300D8
:1037B0003B6109E0FDF79AFC02003B69D31AA54A78
:1037C000934201D9032362E1A14B1B6A02221340F9
:1037D000F0D11723FB181B78012B05D19C4BDA691C
:1037E0009B4B9D490A40DA617B681B68102213409D
:1037F00063D07B685B69012B2AD1954B5A6B944B44
:1038000004210A435A63924B5A6B914B01210A439C
:103810005A63FDF76BFC03003B6108E0FDF766FCB3
:1038200002003B69D31A022B01D903232FE1884BF5
:103830005B6B02221340F1D0854B5B6BF822934304
:1038400019007B689B69DA00814B0A435A6334E0B4
:103850007B685B69053311D17D4B5A6B7C4B04212E
:103860008A435A637A4B5B6BF822934319007B6857
:103870009B69DA00764B0A435A631EE0744B5A6B1D
:10388000734B04210A435A63714B5A6B704B0121ED
:103890008A435A63FDF72AFC03003B6108E0FDF709
:1038A00025FC02003B69D31A022B01D90323EEE069
:1038B000674B5B6B02221340F1D17B681B682022AF
:1038C00013405CD0624B5B680C2213400C2B0ED073
:1038D0005F4B5B680C221340082B14D15C4B5A6879
:1038E000C0235B021A40C0235B029A420BD1584BA3
:1038F0005A6B80235B02134040D07B681B6A012B0C
:103900003CD00123C3E07B681B6A002B1BD0504BCB
:103910005A6B4F4B802149020A435A63FDF7E6FB7D
:1039200003003B6108E0FDF7E1FB02003B69D31AAD
:10393000022B01D90323AAE0454B5A6B80235B027B
:103940001340F0D01BE0424B5A6B414B43490A40B5
:103950005A63FDF7CBFB03003B6108E0FDF7C6FBB4
:1039600002003B69D31A022B01D903238FE0384BA5
:103970005A6B80235B021340F0D100E0C0467B68A5
:103980005B6A002B00D181E0314B5B680C22134055
:10399000082B00D178E07B685B6A022B4CD12C4B62
:1039A0001A682B4B2E490A401A60FDF79FFB030053
:1039B0003B6108E0FDF79AFB02003B69D31A022B3A
:1039C00001D9032363E0224B1A6880239B04134030
:1039D000F0D11F4BDB6A0F22934319007B681A6BEF
:1039E0001B4B0A43DA621A4B5B681E4A13401900EC
:1039F0007B68DA6A7B689B6A1A43154B0A435A60F4
:103A0000134B1A68124B802149040A431A60FDF7D0
:103A10006DFB03003B6108E0FDF768FB02003B69BA
:103A2000D31A022B01D9032331E0094B1A688023F2
:103A30009B041340F0D029E0054B1A68044B084959
:103A40000A401A60FDF752FB03003B6115E0C046D7
:103A50000010024088130000FFFFFFEFFFFFFEFF92
:103A6000FFFFFFFEFF7FC2FFFDF740FB02003B6947
:103A7000D31A022B01D9032309E0074B1A688023CC
:103A80009B041340F0D101E0012300E00023180063
:103A9000BD4606B080BDC0460010024080B584B06F
:103AA00000AF786039600023FB607B4B1B6801220C
:103AB00013403A689A4211D9774B1B68012293430D
:103AC0001900754B3A680A431A60734B1B68012250
:103AD00013403A689A4201D00123D8E07B681B6802
:103AE0000222134009D06D4B5B68F022934319000A
:103AF0007B689A68694B0A435A607B681B6801229D
:103B0000134000D189E07B685B68012B07D1634BD0
:103B10001A6880239B02134020D10123B7E07B6801
:103B20005B68022B07D15D4B1A6880239B0413400E
:103B300014D10123ABE07B685B68032B07D1574BA3
:103B40005A6B80235B02134008D101239FE0534B43
:103B50001B680222134001D1012398E04F4B5B68A0
:103B60000322934319007B685A684C4B0A435A60FE
:103B7000FDF7BCFA0300FB607B685B68012B11D189
:103B800009E0FDF7B3FA0200FB68D31A444A9342F6
:103B900001D903237BE0414B5B680C221340042BCB
:103BA000EFD13AE07B685B68022B11D109E0FDF7A9
:103BB0009DFA0200FB68D31A394A934201D90323C4
:103BC00065E0364B5B680C221340082BEFD124E0F4
:103BD0007B685B68032B1BD109E0FDF787FA0200C5
:103BE000FB68D31A2E4A934201D903234FE02B4B93
:103BF0005B680C2213400C2BEFD10EE0FDF776FA38
:103C00000200FB68D31A264A934201D903233EE0FF
:103C1000224B5B680C221340F0D11F4B1B68012222
:103C200013403A689A4211D21B4B1B6801229343FE
:103C30001900194B3A680A431A60174B1B68012296
:103C400013403A689A4201D0012320E07B681B6848
:103C50000422134009D0114B5B68124A134019002B
:103C60007B68DA680D4B0A435A6000F021F80100C6
:103C70000A4B5B681B090F2213400B4AD35C0A00F6
:103C8000DA400A4B1A600020FDF708FA00231800FA
:103C9000BD4604B080BDC046002002400010024076
:103CA00088130000FFF8FFFFD86D00084C000020CB
:103CB00090B58FB000AF1423FB18374A13CA13C353
:103CC00012681A603B1D354A13CA13C312681A6082
:103CD0000023FB620023BB6200237B6300237B6223
:103CE00000233B632E4B5B68FB62FB6A0C22134094
:103CF000082B06D00C2B43D0042B44D1294B3B631B
:103D000044E0FB6A9B0C0F2213401422BA18D35CC8
:103D10007B62234BDB6A0F2213403A1DD35CBB62EC
:103D2000FA6AC0235B021A4080235B029A4209D1DF
:103D3000B96A1C48FCF7E8F903001A007B6A534390
:103D40007B631AE0FA6AC0235B021A40C0235B025D
:103D50009A4209D1B96A1448FCF7D6F903001A004F
:103D60007B6A53437B6308E0B96A0E48FCF7CCF9E1
:103D700003001A007B6A53437B637B6B3B6305E064
:103D8000094B3B6302E0074B3B63C0463B6B1800AB
:103D9000BD460FB090BDC046C86C0008D86C000886
:103DA0000010024000127A00006CDC0280B500AF07
:103DB000024B1B681800BD4680BDC0464C00002069
:103DC00080B582B000AF78607B68002B01D1012301
:103DD0001EE07B683D229B5CDBB2002B07D17B6839
:103DE0003C22002199547B68180002F071F97B682D
:103DF0003D22022199547B681A687B6804331900BC
:103E0000100000F05BF97B683D22012199540023EA
:103E10001800BD4602B080BD80B582B000AF7860AA
:103E200039607B681B6839680122180000F0B6FB16
:103E30007B681B68134A934209D07B681B68124A4F
:103E4000934204D07B681B68104A934201D101233E
:103E500000E00023002B08D07B681B685A6C7B684D
:103E60001B68802109020A435A647B681B681A6830
:103E70007B681B6801210A431A6000231800BD46B5
:103E800002B080BD002C01400044014000480140C8
:103E900080B582B000AF786039607B681B68396894
:103EA0000022180000F07AFB7B681B68214A9342CD
:103EB00009D07B681B68204A934204D07B681B684A
:103EC0001E4A934201D1012300E00023002B13D0AE
:103ED0007B681B681B6A1A4A13400DD17B681B68FC
:103EE0001B6A184A134007D17B681B685A6C7B68B1
:103EF0001B6815490A405A647B681B681B6A104A94
:103F000013400DD17B681B681B6A0E4A134007D112
:103F10007B681B681A687B681B6801218A431A60EA
:103F20007B683D220121995400231800BD4602B050
:103F300080BDC046002C01400044014000480140C3
:103F40001111000044040000FF7FFFFF80B584B022
:103F500000AFF860B9607A60FB683C229B5C012B83
:103F600001D10223A4E0FB683C2201219954FB68A3
:103F70003D22022199547B68042B29D002D8002BC2
:103F800005D08CE0082B46D00C2B65D087E0FB6871
:103F90001B68BA681100180000F008F9FB681B687C
:103FA0009A69FB681B6808210A439A61FB681B68D1
:103FB0009A69FB681B6804218A439A61FB681B6845
:103FC0009969BB681A69FB681B680A439A6166E0D5
:103FD000FB681B68BA681100180000F06BF9FB68F9
:103FE0001B689A69FB681B68802109010A439A6172
:103FF000FB681B689A69FB681B682F490A409A6135
:10400000FB681B689969BB681B691A02FB681B681F
:104010000A439A6143E0FB681B68BA681100180004
:1040200000F0CCF9FB681B68DA69FB681B680821A3
:104030000A43DA61FB681B68DA69FB681B680421C4
:104040008A43DA61FB681B68D969BB681A69FB6837
:104050001B680A43DA6122E0FB681B68BA6811003A
:10406000180000F031FAFB681B68DA69FB681B680E
:10407000802109010A43DA61FB681B68DA69FB6881
:104080001B680D490A40DA61FB681B68D969BB6887
:104090001B691A02FB681B680A43DA61C046FB68A9
:1040A0003D2201219954FB683C22002199540023B0
:1040B0001800BD4604B080BDFFFBFFFF80B584B093
:1040C00000AF786039600023FB607B681B68FB6091
:1040D0007B68304A934208D07A688023DB059A4295
:1040E00003D07B682C4A934208D1FB68702293432B
:1040F000FB603B685B68FA681343FB607B68254A9A
:10410000934214D07A688023DB059A420FD07B68F3
:10411000214A93420BD07B68204A934207D07B68A8
:104120001F4A934203D07B681E4A934208D1FB6822
:104130001D4A1340FB603B68DB68FA681343FB6071
:10414000FB68802293431A003B685B691343FB6062
:104150007B68FA681A603B689A687B68DA623B6839
:104160001A687B689A627B680A4A934207D07B6828
:104170000B4A934203D07B680A4A934203D13B68BF
:104180001A697B681A637B6801225A61C046BD4682
:1041900004B080BD002C014000040040002000401D
:1041A0000044014000480140FFFCFFFF80B586B09D
:1041B00000AF786039600023FB6000237B6100233F
:1041C0003B617B681B6A012293431A007B681A6279
:1041D0007B681B6A7B617B685B683B617B689B6972
:1041E000FB60FB6870229343FB60FB6803229343F0
:1041F000FB603B681B68FA681343FB607B69022223
:1042000093437B613B689B687A6913437B617B685E
:10421000234A934207D07B68224A934203D07B68AB
:10422000214A93420CD17B69082293437B613B680E
:10423000DB687A6913437B617B69042293437B616A
:104240007B68174A934207D07B68164A934203D093
:104250007B68154A934211D13B69144A13403B6174
:104260003B69134A13403B613B685B693A691343FE
:104270003B613B689B693A6913433B617B683A69E0
:104280005A607B68FA689A613B685A687B685A632F
:104290007B687A691A62C046BD4606B080BDC046DA
:1042A000002C01400044014000480140FFFEFFFF98
:1042B000FFFDFFFF80B586B000AF78603960002356
:1042C000FB6000237B6100233B617B681B6A10223B
:1042D00093431A007B681A627B681B6A7B617B6868
:1042E0005B683B617B689B69FB60FB682C4A134001
:1042F000FB60FB682B4A1340FB603B681B681B029A
:10430000FA681343FB607B69202293437B613B681F
:104310009B681B017A6913437B617B68224A934245
:104320000DD17B69802293437B613B68DB681B0175
:104330007A6913437B617B69402293437B617B688D
:10434000194A934207D07B68184A934203D07B688E
:10435000174A934213D13B69164A13403B613B69AC
:10436000154A13403B613B685B699B003A69134304
:104370003B613B689B699B003A6913433B617B68E7
:104380003A695A607B68FA689A613B685A687B6848
:104390009A637B687A691A62C046BD4606B080BDE2
:1043A000FF8FFFFFFFFCFFFF002C01400044014096
:1043B00000480140FFFBFFFFFFF7FFFF80B586B01D
:1043C00000AF786039600023FB6000237B6100232D
:1043D0003B617B681B6A334A1A407B681A627B68C0
:1043E0001B6A7B617B685B683B617B68DB69FB60A8
:1043F000FB6870229343FB60FB6803229343FB60DE
:104400003B681B68FA681343FB607B69264A1340CC
:104410007B613B689B681B027A6913437B617B6805
:10442000224A93420DD17B69214A13407B613B684C
:10443000DB681B027A6913437B617B691D4A134069
:104440007B617B68194A934207D07B681A4A934282
:1044500003D07B68194A934213D13B69184A134031
:104460003B613B69174A13403B613B685B691B0139
:104470003A6913433B613B689B691B013A691343EB
:104480003B617B683A695A607B68FA68DA613B682D
:104490005A687B68DA637B687A691A62C046BD46EF
:1044A00006B080BDFFFEFFFFFFFDFFFF002C0140B7
:1044B000FFF7FFFFFFFBFFFF004401400048014002
:1044C000FFEFFFFFFFDFFFFF80B586B000AF786032
:1044D000396000233B610023FB6000237B617B6824
:1044E0001B6A264A1A407B681A627B681B6AFB605B
:1044F0007B685B687B617B68DB693B613B69204A69
:1045000013403B613B691F4A13403B613B681B689A
:104510001B023A6913433B61FB681B4A1340FB6073
:104520003B689B681B03FA681343FB607B68174A70
:10453000934207D07B68164A934203D07B68154AA2
:10454000934209D17B69144A13407B613B685B69E4
:104550009B017A6913437B617B687A695A607B6847
:104560003A69DA613B685A687B681A647B68FA6862
:104570001A62C046BD4606B080BDC046FFEFFFFFD1
:10458000FF8FFFFFFFFCFFFFFFDFFFFF002C01405D
:104590000044014000480140FFBFFFFF80B586B0E6
:1045A00000AFF860B9607A6000237B610122BB68CC
:1045B0009A4013007B61FB681B6A7A69D2431A40F8
:1045C000FB681A62FB681A6A7968BB6899400B003D
:1045D0001A43FB681A62C046BD4606B080BD80B56E
:1045E00082B000AF786039607B683C229B5C012B15
:1045F00001D1022332E07B683C22012199547B687F
:104600003D22022199547B681B685A687B681B68AD
:1046100070218A435A607B681B6859683B681A6836
:104620007B681B680A435A607B681B689A687B68D2
:104630001B6880218A439A607B681B6899683B6885
:104640005A687B681B680A439A607B683D22012197
:1046500099547B683C220021995400231800BD46E0
:1046600002B080BD80B584B000AF786039600023AF
:10467000FB607B683C229B5C012B01D102234DE057
:104680007B683C22012199547B683D220221995488
:10469000FB68FF2293431A003B68DB681343FB600F
:1046A000FB68204A1A403B689B681343FB60FB6829
:1046B0001D4A1A403B685B681343FB60FB681B4A5A
:1046C0001A403B681B681343FB60FB68184A1A409A
:1046D0003B681B691343FB60FB68164A1A403B6842
:1046E0005B691343FB60FB68134A1A403B689B6994
:1046F0001343FB60FB68114A1A403B689B691343F4
:10470000FB607B681B68FA685A647B683D22012164
:1047100099547B683C220021995400231800BD461F
:1047200004B080BDFFFCFFFFFFFBFFFFFFF7FFFFB3
:10473000FFEFFFFFFFDFFFFFFFBFFFFFFF7FFFFF79
:1047400080B586B000AFF8607A600B203B180A1C79
:104750001A70194BFA681A603B181A78164B1A61CE
:104760001723FB1800221A700EE017203B181B7845
:104770007A68D2183B181B781178104AD1543B182C
:104780001A783B1801321A701723FA180B23FB18FA
:1047900012781B789A42E8D3094B084A064909481F
:1047A000FDF7A6FB031E02D0074B0B221A70012354
:1047B0001800BD4606B080BD580100205001002001
:1047C0001C02002098010020EC00002080B500AF02
:1047D000C046BD4680BD80B584B000AFF860B9600A
:1047E0007A60B968F868FBF72DFD031E01D0BB683D
:1047F00008E07968F868FBF739FD031E01D07B6893
:1048000000E0FB68181CBD4604B080BDB0B588B0A0
:1048100000AF786010217B1801229A607B187A68BB
:104820005A607B1800221A601F257C190C23FA1885
:104830007B1811001800FEF77FFB030023707B1923
:104840001B78002B01D001F0F5FAC046BD4608B038
:10485000B0BD90B583B000AFFC1DFEF7D3FA0300E6
:104860002370FB1D1B78002B01D001F0E3FAC0463A
:10487000BD4603B090BD80B584B000AF78607B6862
:104880001B681B68FB607B681B681A1D7B681A60CD
:10489000FB681800BD4604B080BDF0B585B000AF20
:1048A000786039607B6819683B681D0000231E0032
:1048B0000F23FC182A0033000220FEF7E7F903005B
:1048C00023700F23FB181B78002B01D001F0B2FAE4
:1048D0007B681B681A1D7B681A60C046BD4605B020
:1048E000F0BD90B583B000AFFC1DFEF765FA030084
:1048F0002370FB1D1B78002B01D001F09BFAC046F2
:10490000BD4603B090BD000080B582B000AF7860B6
:10491000144B1B687A68D21AFA239B009A4217D963
:10492000114B1A6813005B019B1A9B009B18DB005C
:1049300018000C4B1B687A68D31A1900FBF7E4FBCC
:1049400003009AB2094B1A80064B7A681A6004E099
:10495000054B1B685A1C044B1A60C046BD4602B08A
:1049600080BDC046DC000020D4000020D80000201C
:1049700080B500AF024B1B881800BD4680BDC04605
:10498000D800002090B585B000AFF860B9607A60BB
:104990003B60B968F868FCF721F9031C1C1C3968F6
:1049A000386AFCF71BF9031C191C201CFBF7E4FFF9
:1049B000031C1C1CB9687868FCF710F9031C191C4F
:1049C000201CFBF701FE031C3968181CFBF762FC76
:1049D000031C181CBD4605B090BD0000B0B588B0E2
:1049E00000AFFCF747FB00F0CBFB00F02DFE00F022
:1049F0000DFE00F0D3FC00F00FFC00F007FD00F00E
:104A000099FD01F0C7F800F0F7FE1F23FB18002204
:104A10001A7018E01F217B181A78C04B9200D058EA
:104A20007B181A78BE4B9200D3581900FFF7F4F99F
:104A3000031E02D0BB4B68221A701F217B181A7804
:104A40007B1801321A701F23FB181B78022BE1D947
:104A5000B44B1B78632B20D81A257C19B249B34B71
:104A600009221800FCF7A8FC030023707B191B78AF
:104A7000012B05D010DD022B06D0032B08D00CE053
:104A8000A84B69221A7008E0A64B03221A7004E0B2
:104A9000A44B04221A7000E0C04601F043F8A44B76
:104AA0001B78002B00D179E1A24B1B789AB2A24B64
:104AB0001A80A14B1B881B2B00D1D1E013DC112BDA
:104AC00000D1D0E006DC082B00D1EDE0102B00D1A6
:104AD00015E104E1142B00D1CCE0192B40D0122BAE
:104AE00000D10EE1FBE0302B5BD007DC232B0FD095
:104AF000242B00D107E1222B0ED0F0E0432B00D174
:104B000090E0FF2B00D191E0402B00D172E0E6E075
:104B10008A4B01221A7026E1894B1B68002B04D0B6
:104B2000874B1B68013300D0EFE0864B23221A70BD
:104B3000854B1B781A00854B5200D35A1800814BC5
:104B40001A000121FFF7FCFD03001A000123534066
:104B5000DBB2002B00D1D8E0724B07221A70D4E0F0
:104B6000784B1A221A70774B02225A70754B00222A
:104B70009A70754B1B781A00754B5200D35A180067
:104B8000704B1A000321FFF7DBFD03001A0001231D
:104B90005340DBB2002B00D1B9E0624B25221A70E2
:104BA000B5E0684B31221A70FFF7E2FE0300DAB27B
:104BB000644B5A70FFF7DCFE03001B0A9BB2DAB2AB
:104BC000604B9A70604B1B781A00614B5200D35AAD
:104BD00018005C4B1A000321FFF7B2FD03001A0016
:104BE00001235340DBB2002B00D192E04D4B252234
:104BF0001A708EE04F4B5B78082B03D9494B322259
:104C00001A70B0E04B4B5A784F4B1A7000F05AFFB5
:104C10004D4B1B781A004D4B5200D35A180000F030
:104C20000BFFA0E04B4B01221A709CE0454BFF228A
:104C30001A70454B1B781A00454B5200D35A180086
:104C4000404B1A000121FFF77BFD03001A000123EE
:104C50005340DBB2002B5ED0324B07221A705AE071
:104C6000FDF75BFE7FE03C4B01221A703B4B0422B8
:104C70001A7078E0334B41221A70334B1B781A00BC
:104C8000334B5200D35A18002E4B1A000121FFF764
:104C900057FD03001A0001235340DBB2002B61D003
:104CA000204B39221A705DE019217B18214A527875
:104CB0001A70204B9B781B021AB21E4BDB781BB27A
:104CC00013431AB216203B181A803B1800229A5E32
:104CD0007B181B781100180001F052F843E0114BCB
:104CE00027221A70144B1B881A001D493B0018001C
:104CF00001F0D6FB3B00180000F08EFF33E0C04609
:104D000031E0C0462FE0C0462DE0C0462BE0C04653
:104D100029E0C04627E0C04625E0C0460400002048
:104D200010000020EC000020C0010020C80200207C
:104D3000F500002020020020E2000020E400002016
:104D4000E800002050010020E0000020B86D0008BD
:104D5000C86D0008FC000020F400002000000020C6
:104D6000E86C0008C046784B00221A70774B1B692C
:104D7000022B13D9764B1B88102B03D0744B1B8846
:104D8000142B0BD1734B5B781AB2724B9B781B02BE
:104D90001BB213431BB29AB26F4B1A806F4B0022A7
:104DA0001A706E4B1B78002B34D0FCF79FF9020071
:104DB0006B4B1B68D21AFA239B009A422AD91E23F6
:104DC000FB1800221A700AE01E203B181B78654A67
:104DD0000021D1543B181A783B1801321A701E2357
:104DE000FB181B78072BEFD95E4AC0235B00082114
:104DF0001800FFF7A5FC03001A0001235340DBB2A3
:104E0000002B02D0584B25221A70FCF76FF90200D4
:104E1000534B1A604E4B1B88112B03D1534B1B78FD
:104E2000002B04D14A4B1B88102B00D040E1FCF72B
:104E30005DF902004E4B1B68D31A474A1288934211
:104E400000D835E14B4B1A78464B1A701D23FB18DE
:104E500000221A70474B1B78052B0BD0062B11D064
:104E6000042B1AD11D23FB1800221A70414B052276
:104E70001A7015E01D23FB1803221A703D4B062201
:104E80001A700DE01D23FB1806221A70394B0422FC
:104E90001A70364B00221A7002E0334B07221A7048
:104EA0001C23FB1800221A7028E01D243B191A78D5
:104EB0001C203B181B78D2182F4B5200D35A9BB2A0
:104EC0001B0A9AB23B181B785B000133D1B2254A0A
:104ED000D1543B191A783B181B78D218264B520034
:104EE000D35A9AB23B181B7801335B00D1B21D4AEA
:104EF000D1543B181A783B1801321A701C23FB1846
:104F00001B78022BD1D91D4B1B781A001C4B520069
:104F1000D35A1800134B1A000821FFF711FC0300A5
:104F20001A0001235340DBB2002B02D00E4B0822A3
:104F30001A70FCF7DBF802000D4B1A601B23FB18FC
:104F400000221A70AEE0C046F5000020AC0200203E
:104F5000E20000202002002002000020FC000020CF
:104F6000F800002050010020EC000020F400002098
:104F7000F000002000000020C0010020E000002020
:104F8000C86D0008FCF7B2F801001B23FB181A7863
:104F9000714B9200D358CB1A322B00D87CE01B24E3
:104FA0003B191A786D4B9200D0583B191A786C4B0C
:104FB0005200D35A1900FEF7D7F903001A0015233F
:104FC000FB18511E8A411A703B191B78654AD35C45
:104FD000002B1DD11B23FB181B78634AD35C0122D5
:104FE0005340DBB2002B04D01523FB181B78002B99
:104FF0000ED11B23FB181B785B4AD35C002B4BD0D4
:105000001523FB181B7801225340DBB2002B43D041
:105010001B257B191C78FCF769F801004E4BA20098
:10502000D1507B191B784F4AD35C002B05D01B2332
:10503000FB181B784B4A0021D1544C4B07221A70A5
:105040001B23FB181B785B005AB21523FB181B7837
:105050005BB213435BB2DAB2444B5A70444B1B78D9
:105060001A00444B5200D35A1800404B1A00022138
:10507000FFF766FB03001A0001235340DBB2002B4D
:1050800002D03D4B09221A701B23FB181B78364AAD
:10509000152179180978D1541B217B181A787B18AF
:1050A00001321A701B23FB181B78042B00D869E708
:1050B00000F006FC304B1A78304B1B789A4224D013
:1050C0002D4B1B78002B1CD0284BEE221A702A4B3C
:1050D0001A78264B5A70264B1B781A00254B520023
:1050E000D35A1800214B1A000221FFF729FB0300B5
:1050F0001A0001235340DBB2002B02D01E4B0A22C0
:105100001A701D4B1A781D4B1A701B4B1B78002B05
:1051100007D1FA239B0001221900642000F00EFB46
:1051200012E0154B1B78632B07D8FA239B00022251
:105130001900642000F002FB06E0FA239B00032222
:105140001900642000F0FAFAFBF7D0FF0300180002
:10515000FFF7DAFBA3E4C046000100201C0000209A
:1051600030000020440000203C00002050010020BE
:10517000E0000020C86D0008EC000020ED000020D9
:1051800090B593B000AF14243B19180034231A00D3
:10519000002101F07DF93B1D180010231A000021A9
:1051A00001F076F921007B1802221A607B18012297
:1051B000DA607B1810221A617B1802225A627B186F
:1051C000802212029A627B1880225203DA627B18D4
:1051D00000221A637B181800FEF700F9031E01D0A5
:1051E00000F028FE3B1D07221A603B1D02225A6078
:1051F0003B1D00229A603B1D0022DA603B1D01210D
:105200001800FEF74BFC031E01D000F013FEC04651
:10521000BD4613B090BD000080B584B000AF3B1D0B
:1052200018000C231A00002101F032F9594B5A4A98
:105230001A60584B802212065A60564B08229A6018
:10524000544B0022DA60534B01221A61514B042265
:105250005A61504B00229A614E4B0022DA614D4B4D
:1052600001221A624B4B00225A624A4BC222FF3281
:105270009A62484B0022DA62464B01221A63454B80
:1052800001225A63434B1800FBF758FF031E01D05D
:1052900000F0D0FD3B1D00221A603B1D8022520110
:1052A0005A603B1D07229A603A1D3A4B11001800C4
:1052B000FCF7DAF9031E01D000F0BCFD3B1D012212
:1052C0001A603A1D334B11001800FCF7CDF9031E8C
:1052D00001D000F0AFFD3B1D02221A603A1D2D4B9C
:1052E00011001800FCF7C0F9031E01D000F0A2FD68
:1052F0003B1D03221A603A1D264B11001800FCF7D3
:10530000B3F9031E01D000F095FD3B1D04221A6085
:105310003A1D204B11001800FCF7A6F9031E01D01E
:1053200000F088FD3B1D05221A603A1D194B110043
:105330001800FCF799F9031E01D000F07BFD3B1D1E
:1053400006221A603A1D134B11001800FCF78CF965
:10535000031E01D000F06EFD3B1D07221A603A1DAE
:105360000C4B11001800FCF77FF9031E01D000F070
:1053700061FD3B1D08221A603A1D064B1100180002
:10538000FCF772F9031E01D000F054FDC046BD4683
:1053900004B080BDC80200200024014080B500AFE9
:1053A000184B194A1A60174B0C225A60154B0022F1
:1053B0009A60144B0022DA60124BC02212031A6169
:1053C000104B802252035A610E4B00221A760D4B6D
:1053D00000225A760B4B00229A760A4B0022DA768C
:1053E000084B00221A77074B00225A77054B18000A
:1053F000FCF748FB031E01D000F01CFDC046BD4673
:1054000080BDC046980100200064004080B590B087
:1054100000AF3823FB18180008231A00002101F000
:1054200037F81C23FB1818001C231A00002101F078
:105430002FF83B0018001C231A00002101F028F867
:10544000394B3A4A1A60384B394A5A60364B002277
:105450009A60354BFA229200DA60334B00221A61CF
:10546000314B00225A61304B00229A612E4B1800BA
:10547000FEF7A6FC031E01D000F0DCFC38217B18EF
:1054800000221A607B1800225A607A18264B1100FD
:105490001800FFF7A4F8031E01D000F0CBFC1C217C
:1054A0007B1860221A607B1800225A607B18002249
:1054B0009A607B1800221A617B1800225A617B18BF
:1054C00000229A617918184B0C221800FEF73EFD55
:1054D000031E01D000F0AEFC3B0000221A603B002E
:1054E00000225A603B0000229A603B000022DA60F2
:1054F0003B0000221A613B00802292015A613B006E
:1055000000229A613A00084B11001800FFF7AAF830
:10551000031E01D000F08EFC034B180000F00AFEC1
:10552000C046BD4610B080BDDC010020002C01400B
:10553000BF03000080B58AB000AF2023FB1818001D
:1055400008231A00002100F0A3FF3B1D18001C23B4
:105550001A00002100F09CFF294B8022D2051A601E
:10556000274B284A5A60264B00229A60244B264A31
:10557000DA60234B00221A61214B00229A61204BF2
:105580001800FEF71DFC031E01D000F053FC202183
:105590007B1800221A607B1800225A607A18184B78
:1055A00011001800FFF71BF8031E01D000F042FCA9
:1055B0003B1D60221A603B1D00225A603B1D0022E9
:1055C0009A603B1D00221A61391D0D4B0022180004
:1055D000FEF7BCFC031E01D000F02CFC391D084B6B
:1055E00004221800FEF7B2FC031E01D000F022FCDA
:1055F000034B180000F09EFDC046BD460AB080BDBA
:1056000028020020BF030000E703000080B582B03D
:1056100000AF0C4B5A690B4B01210A435A61094BED
:105620005B69012213407B607B6800220021092016
:10563000FDF74EF90920FDF760F9C046BD4602B0FE
:1056400080BDC0460010024090B589B000AF0C2468
:105650003B19180014231A00002100F019FF344BE5
:105660005A69334B8021C9020A435A61304B5A6947
:105670008023DB021340BB60BB682D4B5A692C4B67
:105680008021C9030A435A61294B5A698023DB03ED
:1056900013407B607B68264B5A69254B8021890229
:1056A0000A435A61224B5A6980239B0213403B6094
:1056B0003B68204B0022A0211800FDF772FE21005C
:1056C0007B1803221A607B1800225A607B18022282
:1056D0009A600C007B18184A19001000FDF7D8FCDE
:1056E00021007B1852221A607B1800225A607B1816
:1056F00002229A600C007B180E4A19001000FDF778
:10570000C7FC21007B18A0221A607B1801225A6076
:105710007B1800229A607B180022DA607B18054A09
:1057200019001000FDF7B4FCC046BD4609B090BD9D
:1057300000100240000400480014004890B583B0F7
:1057400000AF040008001100BB1D221C1A803B1D85
:10575000021C1A80FB1C0A1C1A70234B1B78FA1CB3
:1057600012789A422CD9FBF7C1FC02001F4B1B6830
:10577000D21ABB1D1B889A4232D91D4B1B785A4244
:105780005341DBB21A001A4B1A70194B1B78002BCD
:1057900005D1154B1B780133DAB2134B1A70144B39
:1057A0001B785A1E9341DBB21A00124B802118005D
:1057B000FDF7F7FDFBF79AFC02000C4B1A600FE0B7
:1057C000FBF794FC0200094B1B68D21A3B1D1B8897
:1057D0009A4205D9044B00221A70044B00221A6029
:1057E000C046BD4603B090BD140100201801002042
:1057F0001C0100200004004880B500AF284B0022A7
:1058000020211800FDF7CDFDFEF7E0FF254B1B68BA
:105810001B0EDAB2244B1A7000F072F903001A0062
:1058200001235340DBB2002B03D11F4B1B78072B06
:105830000BD91D4B00221A701A4B1B681B021A0A47
:10584000184B1A60194B01221A70174B1B781A005B
:10585000174B5200D35A180000F0EEF8154B180001
:10586000FCF700FB031E02D0134B4C221A70114BA5
:1058700003211800FCF738FD031E01D000F0DAFA0E
:105880000E4B01225A600D4B0022DA600B4B0022B6
:105890009A600A4B00221A75C046BD4680BDC046BC
:1058A00000040048D4010020E0000020EE000020A9
:1058B000B86D000898010020EC000020580100207D
:1058C000B0B500AF514B1B68013300D19BE04F4B8B
:1058D0001B68002B2DD1FBF709FC04004C4B1B6807
:1058E0004C491800FAF796FC0B00FA221201944674
:1058F00063449C421DD9FBF7F9FB0200434B1A603D
:10590000454B22221A70454B1B781A00444B52001B
:10591000D35A1800404B1A000121FEF711FF030073
:105920001A0001235340DBB2002B02D03D4B07226B
:105930001A70364B1B68002B66D03B4B1B78002B34
:1059400054D03A4B1B780133DAB2384B1A70374BCC
:105950001B78082B07D1334B72221A702B4B012274
:1059600052421A603EE02D4B1B780133DAB22B4BCA
:105970001A702A4B1B78082B02D1284B00221A7070
:105980002B4B1B681B021A0A294B1A60284B1B68F9
:10599000224A127812061A43254B1A6000F0C2F808
:1059A0001E4B1B781A001E4B5200D35A180000F0F1
:1059B00043F8164B00221A601E4B0122802118006A
:1059C000FDF7EFFCFA235B001800FBF799FB194B7E
:1059D000002280211800FDF7E4FC96235B001800EC
:1059E000FBF78EFB104B00221A700DE0FBF77EFBDD
:1059F0000200064B1B68D31A642B05D9034B012206
:105A000052421A6000E0C046BD46B0BDE80000202A
:105A1000B4F7FF1FAB0A000050010020E000002097
:105A2000B86D0008EC000020E4000020E100002038
:105A3000D40100200004004880B582B000AF02000D
:105A4000BB1D1A801C4B00225A611B4B01229A611C
:105A5000194B0122DA61BB1D1B885B011A00164B32
:105A60001A60BB1D1B885B011A00134B5A60BB1DDB
:105A70001B885B011A00104B9A60BB1D1B885B01E1
:105A80001A000D4BDA600C4B00221A610A4B0122FE
:105A90001A62094B0E225A62074A084B110018007D
:105AA000FCF7EEF8031E02D0054B98221A70C04690
:105AB000BD4602B080BDC0467001002098010020A4
:105AC000EC00002080B500AF0A4B1B681B021A0ACD
:105AD000084B1A60074B1B68074A127812061A43D4
