:020000040800F2
:10000000004000200D520008595100085B510008C3
:1000100000000000000000000000000000000000E0
:100020000000000000000000000000005D5100081A
:1000300000000000000000005F510008615100084E
:100040005D5200085D5200085D5200085D520008D4
:100050005D5200085D5200085D5200085D520008C4
:100060005D5200085D5200085D5200085D520008B4
:100070005D5200085D5200085D5200085D520008A4
:100080005D5200085D5200085D5200085D52000894
:100090005D5200085D5200085D5200085D52000884
:1000A0005D5200085D5200085D5200085D52000874
:1000B0005D5200085D520008695100085D52000859
:1000C00010B5064C2378002B07D1054B002B02D02E
:1000D000044800E000BF0123237010BD7000002021
:1000E00000000000E85A0008044B10B5002B03D0B4
:1000F0000349044800E000BF10BDC04600000000F6
:1001000074000020E85A000802B47146490849000A
:10011000095649008E4402BC7047C04602B471467D
:1001200049084900095C49008E4402BC7047C0463A
:10013000002243088B4274D303098B425FD3030A26
:100140008B4244D3030B8B4228D3030C8B420DD339
:10015000FF22090212BA030C8B4202D312120902C7
:1001600065D0030B8B4219D300E0090AC30B8B4205
:1001700001D3CB03C01A5241830B8B4201D38B03B3
:10018000C01A5241430B8B4201D34B03C01A524158
:10019000030B8B4201D30B03C01A5241C30A8B429B
:1001A00001D3CB02C01A5241830A8B4201D38B0286
:1001B000C01A5241430A8B4201D34B02C01A52412A
:1001C000030A8B4201D30B02C01A5241CDD2C3099C
:1001D0008B4201D3CB01C01A524183098B4201D318
:1001E0008B01C01A524143098B4201D34B01C01A03
:1001F000524103098B4201D30B01C01A5241C3087B
:100200008B4201D3CB00C01A524183088B4201D3E9
:100210008B00C01A524143088B4201D34B00C01AD5
:100220005241411A00D20146524110467047FFE741
:1002300001B5002000F006F802BDC0460029F7D045
:1002400076E770477047C046D0400B1CD1409C46B3
:10025000203AD340184352426346934018437047B4
:100260008446081C6146FFE71FB500F0C1F800286E
:1002700001D40021C8421FBD10B500F043F8404230
:10028000013010BD10B500F0B3F8002801DB0020EC
:1002900010BD012010BDC04610B500F0A9F800281F
:1002A00001DD002010BD012010BDC04610B500F0DA
:1002B00051F8002801DC002010BD012010BDC0460F
:1002C00010B500F047F8002801DA002010BD012029
:1002D00010BDC0469E2110B5C905041CFFF7F0FFF4
:1002E000002803D1201C00F0C9FB10BD9E21201C5A
:1002F000C90500F0FFF900F0C1FB80231B069C46F6
:100300006044F2E770B542004E024C0045026D0AAF
:10031000120EC30F760A240EC90FFF2A0FD0FF2C2E
:1003200011D00120A24200D070BDB542FCD18B4259
:100330000DD0002AF8D12800451EA841F4E701207D
:10034000002DF1D1EBE70120002EEDD1E9E70020EF
:10035000EAE7C04670B54A004E02450244006D0A05
:10036000240EC30F760A120EC90FFF2C15D0FF2AD8
:100370000ED0002C15D1002A01D1002E1CD0002D4A
:1003800014D08B4227D00220013B1840013870BDA9
:10039000002EEED002204042F9E7002DFAD1FF2ACC
:1003A0000ED0002A0ED1002EEDD00BE00123013932
:1003B000994308000130EAE70020002DE7D0E2E78A
:1003C000002EE7D18B42DED1944205DD0221581E7A
:1003D00008400138DBE70024A24204DCB542D2D851
:1003E0000020B542D3D2581E012398430130CEE7F6
:1003F00030B5420044024D02C30F4800640A120E99
:100400006D0A000EC90FFF2A12D0FF280CD0002A57
:1004100012D1002819D1002D17D1002C2BD0022089
:10042000013B1840013826E0002DF0D0022022E0E8
:10043000002CFBD1FF281FD000281FD1002D1DD17B
:100440000220013B1840013815E0002C0ED08B42F1
:10045000E5D10022904204DCAC42E0D80020AC425E
:1004600009D2581E01239843013004E001230139C9
:1004700099430800013030BD002DD7D18B42CED139
:100480008242E7DD0221581E08400138F3E7C046EA
:10049000F0B54E4657464546DE46E0B543025B0A98
:1004A000450083B00F1C99462D0EC60F002D57D066
:1004B000FF2D24D08020DB00C00418430023814698
:1004C0009A469B467F3D7C027A00FB0F640A120E1F
:1004D000984623D0FF2A4BD0E30080240020E40478
:1004E0007F3A1C43AD186B1C474601935346774037
:1004F0003A000F2B48D87D499B00CB589F46002BD4
:1005000000D085E008339A46063B9B467C027A0081
:10051000FB0FFF25640A120E9846DBD1002C00D099
:1005200090E0524601231A4392460120DBE74C46F5
:1005300058461700022824D0032800D1CFE000221B
:10054000002301284DD15802D205400AFF0710436D
:10055000384303B03CBC90469946A246AB46F0BD3A
:10056000002B5BD104239A46033B00259B46AAE758
:10057000FF35002C60D1524602231A4392460220D6
:10058000B1E7FF220023DEE74B461B0C9C464B469F
:100590002604360C180461463300220C6446000C15
:1005A00043434E435043544380191A0C1218964249
:1005B00003D9802149028C4664441B041B0C10049F
:1005C000C01883015E1EB341800E1843130C1B1923
:1005D0009B0103431C00230179D5012362081C40C1
:1005E0001443019A7F32002A4DDD630704D00F23A4
:1005F0002340042B00D00434230103D53C4B019A43
:100600001C408032FE2ABCDCA3015B0AD2B29AE70E
:100610000C239A46093BFF259B4654E7180000F03F
:100620007DFD4A46431F76259A4000236D42914640
:100630002D1A9A469B4646E7524603231A43924692
:10064000032050E7200000F069FD431F2D1A9C4055
:10065000763D002047E780230027DB03FF2272E777
:10066000424666E74C463200584662E780234A46D7
:10067000DB031A4222D01C4220D123435B025B0AD7
:100680004746FF225FE701239A1A1B2A21DC230039
:100690000199D3409E318C401A0023005C1EA34177
:1006A00013435A0704D00F221A40042A00D00433FF
:1006B0005A0111D49B015B0A002244E780234A4679
:1006C000DB0313435B025B0A3700FF223BE7019524
:1006D00087E70022002336E70122002333E7802347
:1006E000DB0323435B025B0AFF222CE7205B00084D
:1006F000FFFFFFF7F8B54746CE464400C20F80B56E
:1007000047024802400A8446664648007F0A240E93
:10071000F60025009046FB00000EC90FB146FF28E9
:1007200000D185E001267140261A914257D0002E53
:1007300043DD002800D07FE04946002900D1AAE02F
:10074000013E002E00D0F7E05B1A5A0100D48BE086
:100750009B019C09200000F0E1FC053884408542A3
:1007600000DDD3E0451B230020200135EB40451B75
:10077000AC40621E94412343072400251C40012203
:1007800041460A40002C04D00F211940042900D012
:100790000433590100D480E00135ECB2FF2D00D0C4
:1007A000A3E0FF2400235B02E405580AD20720439C
:1007B00010430CBC90469946F8BD002E74D1601CC5
:1007C000C0B2012800DCA7E04A469C1A620100D5AD
:1007D000B6E0002CBED1002200240023E3E7002E67
:1007E00000DC85E0002846D0FF2C49D08022484616
:1007F000D2041043814601221B2E09DC20204C46E6
:10080000801B84404A462000F240441EA04102431F
:100810009B185A0128D50135FF2D00D1A8E00122EF
:10082000072494491A405B080B4013431C40A6E779
:10083000002E00D078E775E7FF2C54D0802249467F
:10084000D2041143894601221B2E09DC202148468F
:10085000891B88404A460100F240481E81410A43F4
:100860009B1A5A0100D573E7012241460A405907F5
:1008700000D089E711E04846002858D1FF2C0CD160
:10088000DB08002B00D18CE78020C00303435B0210
:100890005B0AFF2487E7FF2C25D0DB08FF2DF0D073
:1008A0005B025B0AECB27EE7002C4DD0FF2818D02B
:1008B0008024E404724223431B2A00DDC4E01C00B0
:1008C0002025D440AA1A93405A1E934123434A46F6
:1008D0000500D31A884638E7721CF8D0F243FF2887
:1008E000EAD10A004B46FF25D7E79B015B0A5AE78E
:1008F000002E41D1651CE9B2012945DDFF2D00D153
:100900004FE707244B445B081C4038E707225A4B4B
:100910002D1A2340144032E7002C1DD1002B7AD130
:100920004B46002B00D191E00A000025B5E7013EBF
:10093000002E19D14B446CE7FF2C84D1FF25ACE786
:100940004A468846D41A05E7002BC5D10A00FF287D
:10095000C8D005004B46A0E7002B49D14B46002BE1
:1009600077D00A00FF2598E7FF2C00D043E787E700
:100970000A00FF24002316E7002C15D1002B57D1C5
:10098000FF28E6D14B467BE7002C20D1002B57D027
:100990004946002953D04B445A0168D50724364AAA
:1009A0001C4001251340EAE6FF28EBD08022D20448
:1009B000764213431B2E53DC2025AD1B1A00AB409F
:1009C000F2405C1EA34113434B44050021E7002B7A
:1009D000D8D04946002900D152E78021C9030F42EF
:1009E00000D14DE76046084200D049E74B4647E753
:1009F0004846FF25002800D14FE78022D203174246
:100A000004D06046104201D14B468846012241463F
:100A1000FF250A4041E7484600281FD01A1A500116
:100A200020D54A460724D31A1C4088460025A6E64E
:100A3000741CC9D0F643FF28BCD14B4620E7994629
:100A40004B460025DB082BE7012340E7002200236B
:100A5000A9E680230022DB03FF24A4E600251CE78F
:100A60000123B1E7002AF1D013000025FCE60025A0
:100A7000FAE6C046FFFFFF7DFFFFFFFB4102420099
:100A8000C30F490A120E00207E2A0DD99D2A0CD8C8
:100A9000802000040143952A0ADC9620821AD14066
:100AA0004842002B00D108007047034A9818FBE722
:100AB000963A9140F4E7C046FFFFFF7FF0B55746F6
:100AC000DE464E464546E0B5834606000F03480025
:100AD00087B092461D003F0B400DCC0F002800D17F
:100AE0006FE0DE4B984238D08023FF001B041F4389
:100AF000730F3B430193DA4B0027994600239B4633
:100B0000F60081442B0369001B0B52469846490DA1
:100B1000ED0F002900D185E0D04B994200D173E060
:100B20004346DA0080231B0413435246CC48520F3D
:100B300084461343524600206144D2008944210078
:100B4000694000918C46012149448A460F2F00D903
:100B500090E0C449BF00CF59BF465B463B43019379
:100B600000D06AE102230827002681469B46C9E798
:100B700032005846019B61460091022800D175E081
:100B8000032800D1FEE1012800D02CE1002300273A
:100B9000002600253F032A0D3F0BB34812053A43B8
:100BA00002401B051343009A5B00D1075B080B430F
:100BB0003000190007B03CBC90469946A246AB46AF
:100BC000F0BD5B463B43019300D12FE1002F00D1E4
:100BD000A5E1380000F0A2FA03000B3B1C2B00DD5E
:100BE00096E11D22D31A5A460100DA405E460839C2
:100BF0008F4013008E403B4301939C4B00271B1AF0
:100C0000994600239B467DE7414653460B43934953
:100C10008C46E144002B00D01AE102220220174347
:100C200000228CE7134300D10DE14346002B00D195
:100C300081E1404600F072FA02000B3A1C2A00DD06
:100C400072E10100434608398B4098461D239A1AE9
:100C50005346D3401A004346134352468A404946FE
:100C6000081A824989468144002068E77B4B0027A7
:100C700000268EE7140C1204120C1100370C3604F7
:100C8000350C794328008C462E006043604483462F
:100C900056432100300C8046584679434044029127
:100CA000844506D98846802149028C46E044414665
:100CB00002913604010C360C00048B4681191E0C7F
:100CC0001B041B0C0391190079438C4628007543C3
:100CD0006544A8465843050C45447743A94203D9C7
:100CE000802149028C466744290C8C463900000457
:100CF000000C2D042D186144AB4405915946049114
:100D000001990F043F0C080C3900514342439046AF
:100D100002008C46090C8B4662437C4344445C448D
:100D2000A04503D98021490288464244210C8846C7
:100D300061460904090C8C4639005943434370430A
:100D40007E430F0CF6182404BE19644442448C46BA
:100D5000B34203D980235B0298464044029B61461C
:100D60009846049B370443449B46AB45AD416B42D8
:100D70000D0405992D0C8C467F196744FD18A84673
:100D80005D462D19A542A44193466442A446C3443E
:100D9000DC448F42BF4198459B4193459241A44515
:100DA000A4415B427F421F43360C52426442BF194A
:100DB0002243BF18624638184302D20D03991343E9
:100DC0006A020A43501E82416146ED0D2A434E02DB
:100DD0003243D90100D4B3E0012650083240024327
:100DE000DE0732435B08224C5444002C62DD51077D
:100DF00009D00F201040042805D0101D90429241C8
:100E000052429B180200D90104D580241948E400FD
:100E1000034054441848844200DD27E75E075B0224
:100E2000D2081F0B630516435B0DB2E600239946FB
:100E30000133042700269B4664E60323019781467D
:100E40000C279B465EE6012201201743002276E62E
:100E5000032303201F43434671E6C046FF070000FB
:100E600001FCFFFF605B0008FFFF0F800DFCFFFF30
:100E7000FF030000FFFFFFFEFE07000000238027A6
:100E800000933F030026434B83E6019B3200A446B8
:100E9000584670E6AC466EE6802701993F0339421A
:100EA0002DD03B422BD11F433F033F0B0095160033
:100EB000384B6EE601252D1B382D00DD66E61F2D13
:100EC00040DC35481C005044160082408440EE400F
:100ED000501E824134431443EB40620709D00F2275
:100EE0002240042A05D02200141D94428041404231
:100EF0001B181A023ED501230027002649E6802749
:100F0000019B3F031F433F033F0B0094214B40E6EF
:100F100003005A46283B9A40002601926DE6584647
:100F200000F0FCF8203057E603005246283B9A4078
:100F30001300002293E6504600F0F0F820307BE6E4
:100F4000CA4650E71F201E004042041BE640202DE9
:100F500003D0124C5444A3401A43501E82413243E2
:100F600007260027164009D00F2000231040140048
:100F70000428B9D122005E075B021F0BD20816437A
:100F8000002306E680273F031F433F033F0B160065
:100F9000004BFEE5FF0700001E0400003E040000B9
:100FA00070B500282DD0C317C5185D40C40F2800A8
:100FB00000F0B4F8154B1B1A5B055B0D0A2815DD14
:100FC0000B38854000222D032D0B002110002D032E
:100FD0000A0D2D0B12052A430D4D1B052A40134304
:100FE0005B00E4075B082343190070BD0200290081
:100FF000153291400A000B21081AC5402D032D0B14
:10100000E3E70024002300250022DEE71E040000A1
:10101000FFFF0F80F0B54C00640D0B03621C5B0AF0
:10102000460F5205C90F1E43C500520D012A29DD86
:10103000374BE718FE2F1CDC002F3BDD8001431EE1
:1010400098410722F3006D0F03432B431A40002AF7
:1010500004D00F221A40042A00D004338022D20484
:101060001A4024D00137FAB2FF2F02D09B01580A50
:1010700001E0FF2200204002D205400AC9071043C8
:101080000843F0BD3543002C04D1002D0AD10022C5
:101090000020F0E7002DECD08020C0033043FF2279
:1010A000E9E7002400235B02580AE2B2E3E7DB0829
:1010B0003C00F8E73B001733F3DB80231B0433438A
:1010C0001E26F61B1F2E14DD02225242D71B1A00C9
:1010D000FA401700202E04D00E4A94466444A340E0
:1010E0001D432B005D1EAB4107223B431A400027E6
:1010F000ADE7094A2800A218954093406C1EA5410F
:10110000F04007222B4303431A4000279FE7C046C5
:1011100080FCFFFFA2FCFFFF82FCFFFF1C210123DC
:101120001B04984201D3000C10391B0A984201D3CA
:10113000000A08391B09984201D30009043902A2A8
:10114000105C40187047C04604030202010101010F
:10115000000000000000000010B5040001F072FA69
:10116000FA218900FEF7E4FF00F0B0FC0120002224
:101170002100404200F068FC002010BD1023064A08
:1011800010B5116800200B431360FFF7E5FF03F073
:10119000D5FD002010BDC04600200240024A136861
:1011A000013313607047C046E0000020014B18680F
:1011B0007047C046E0000020F8B504000120002C74
:1011C0007DD0636C002B06D122004032A364200046
:1011D000137003F0CBFD636CDB0600D584E00422C2
:1011E00023689868104000D07EE0626C414911404D
:1011F00002220A43032162649A680A40012A05D147
:10120000196811420ED1DA6812040BD41821DA6879
:101210008A43A1680A43DA6019696268890089080B
:1012200011431961DA683449256A0A40DA60A26913
:101230006F039103E269D2031143626B013A561EB8
:10124000B2411603E268114322690F43022A00D11A
:101250000420226B616A52003A433243024301295F
:1012600004D1002D2CD1802149020A43C220A16A59
:10127000FF30814202D0E06A01430A438020D968EE
:1012800040051143D960A16B814202D0481E062857
:1012900007D8072558692940A84358615869014370
:1012A0005961DB6815490B40934211D1002003229C
:1012B000A064636C93431A00012313436364F8BD75
:1012C0002020656C28436064A06C0143A164CDE7D5
:1012D0001222636C012093431A00102313436364AA
:1012E000A36C0343A364EAE71023626C0120134359
:1012F0006364E4E7FDFEFFFF1902FEFFE7FF3F83A3
:10130000F7B5002204000192403422780300022045
:10131000012A2BD001221D689E6BA868227040070D
:101320005AD40B682F481F00844648689A40103FE3
:1013300060453BD0A86A10438022A86252059642BD
:101340000FD0013E062E0CD98A6807216869084033
:10135000824206D068690A4088436861686902432E
:101360006A61022F03D9002000232370FEBD1E4AAC
:1013700080201168102B15D0112B15D1C00301430B
:101380001160102BEFD1194B19491868FEF7D0FEE8
:101390000A2358430190019B002BE4D0019B013BA1
:1013A0000193F8E70004EAE74004E8E7A96A9143FB
:1013B000A962022FD7D80C4A1168102B0AD0113B12
:1013C000581E83410B485B4203400B481B180B40DF
:1013D0001360C8E7094BFAE72021586C01435964B0
:1013E0001000C1E7011000000827014004000020A0
:1013F00040420F00000040FFFFFFBFFFFFFF7FFFE5
:10140000F8B504000120002C64D02518EB7F002BD8
:1014100002D1200003F0D8FC022622681368B343EF
:101420001360FFF7C3FE070023685A68324244D1B5
:1014300001261A6832431A60FFF7B8FE07002368D6
:101440005A68324247D0217E8022012949D1196849
:101450000A431A60617E4022012946D119680A4375
:101460001A60A17E2022012943D119680A431A601B
:10147000E17E1022012940D1196891431960217F32
:10148000082201293DD119680A431A60617F0422AC
:1014900001293AD119680A431A60E168A26800205C
:1014A0000A4321690A4361690A43616801390A43B1
:1014B000DA6101236062EB770CE0FFF777FEC01B77
:1014C0000A28B1D98023626A9B0213436362052311
:1014D0000120EB77F8BDFFF769FEC01B0A28AED9E3
:1014E000F0E7196891431960B4E7196891431960EE
:1014F000B7E7196891431960BAE719680A431A6097
:10150000BDE7196891431960C0E7196891431960F4
:10151000C3E770B5431CDB7F013B012B66D88024F9
:1015200003680120A4001A59872602431A514A6908
:10153000E23CFF3C1440A040C543B6009C592C40FF
:101540009C51CC69002C35D1103E9C59D2002C40C6
:101550009C51CC684E682404B6B2344390269A1845
:10156000B60094518C680E682404B6B234439126B8
:10157000B600945181228C699200002C2FD19C5886
:101580002C409C5085220C699200002C2AD19C583A
:1015900025409D500A6A012A04D1872189005A58A2
:1015A000104358508021012089005A58824300205E
:1015B0005A5070BD012CDDD18326B6009C59D20053
:1015C00004439C510C684E682404B6B23443902600
:1015D0009A18B60094518C68CE682404C5E79C58CC
:1015E0000443CEE79C5804439C50D3E78023426ACF
:1015F000DB02134343620120DBE7F8B5461CF57FAD
:101600000400EDB2012D1CD102230268F3771368A8
:10161000AB431360FFF7CAFD0700236858682840F2
:1016200001D16062F8BDFFF7C1FDC01B0A28F4D9E3
:101630008023626A9B02134363620523F3770120D0
:10164000F0E78023426A1B0313434362F7E7F0B5D8
:10165000441CE67F0568013EAC68012E56D8E026A2
:10166000760534424ED0A401A40F032C06D180236A
:10167000426A1B041343436201203DE00120A04065
:10168000186023008E68CF681833002E35D10868A3
:10169000400538431B015851C2200E6924012B1903
:1016A00040001E50097D012903D11E58FF313143EE
:1016B0001950507911790002084391792C190904C5
:1016C0000843D1790906014320008D30FF300160C5
:1016D00051781078090208439178D27809040143BF
:1016E00012060A43C0218934FF34226001224900D6
:1016F0005858024300205A50F0BD48683E43C0008D
:101700003043C7E78023426A9B03B3E78023426AE2
:10171000DB02AFE7F7B5441CE47F013C012C00D9A4
:1017200077E004680194019D0324002909D1EE6843
:10173000264208D18023426A9B031343436201205F
:101740005EE02E69F4E7D826019D0C012C190425D2
:101750007600A7592F40976053D1A7597F0D176086
:10176000DA270F25A6597F00B607F60FD660E6598F
:101770002E401661E659E459360A240C5461F6B23B
:10178000019C96610A01A518B935FF352C681C70BB
:101790000468A418B934FF342468240A5C7004680F
:1017A000A418B934FF342468240C9C700468A4186D
:1017B000B934FF342468240EDC700468A418BD34E6
:1017C000FF3424681C710468A418BD34FF342468F5
:1017D000240A5C710468A418BD34FF342468240C06
:1017E0009C710468A218BD32FF321268120EDA71C1
:1017F00002682023002908D1D0680343D360002069
:10180000FEBDA759FF085760AAE711690B43136192
:10181000F5E78023426ADB028FE7431CDB7F02008F
:10182000013B0020012B05D813680330002902D1A9
:10183000DB68184070471B69FBE7704770477047CB
:1018400070477047704770477047704770477047E0
:101850007047F0B5036885B05E695A689F68019269
:10186000DA68050002921A69002403929A690092CC
:10187000012216421FD0174205D09A60BB0700D440
:10188000A6E002F025F880235B001F4207D02A68FB
:101890009360BB0500D4A8E02800FFF7CEFF8023AB
:1018A0005B021F4207D02A689360BA0300D4ABE002
:1018B0002800FFF7C3FF330708D51023029A1A4206
:1018C00004D08022920014432A68D360730708D59D
:1018D0000823029A1A4204D02A682800D360FFF72E
:1018E000B2FFB30706D52B68DB689B0702D0280040
:1018F000FFF7A8FF730608D51023039A1A4204D0F5
:101900008022D20014432A681361B30608D5082345
:10191000039A1A4204D02A6828001361FFF795FF42
:10192000F30606D52B681B699B0702D02800FFF73A
:101930008BFFB30308D51023019A1A4204D02A68FA
:1019400028005360FFF782FFF30308D50823019AAC
:101950001A4204D02A6828005360FFF778FF330446
:101960002CD5019B2A685B0726D5F30504D50123F6
:101970000099194200D01C43B30504D502230099F5
:10198000194200D01C43730504D504230099194261
:1019900000D01C4333050FD57023009919400B1E4E
:1019A0000AD0302948D03BD8102941D0202941D035
:1019B000702193698B43936104235360002C05D0FD
:1019C0006B6A28001C436C62FFF742FF05B0F0BD54
:1019D0007B0704D43B0705D4FFF731FF53E780248E
:1019E000240150E7802464014DE77B0503D5802363
:1019F0009B011C4353E73B0502D58023DB01F8E73D
:101A00002800FFF71DFF4AE77A0303D580231B0256
:101A10001C4350E73A03FBD42800FFF712FF4AE7C4
:101A200050290BD060290BD04029C1D11C43BFE7FE
:101A30000823FBE71023F9E72023F7E78023F5E7E6
:101A400080235B00F2E7000030B5FF2503242A0065
:101A5000C3B21C40E400A24089012940D243A14006
:101A600000280BDA0F200340083B0A489B089B0024
:101A70001B18D86902401143D96130BD064B80085C
:101A80008000C018C0239B00C45822401143C1509D
:101A9000F3E7C04600ED00E000E100E01F2318403E
:101AA0001E3B8340014A13607047C04600E100E0DE
:101AB000BFF34F8F034B044ADA60BFF34F8FC0462A
:101AC000FDE7C04600ED00E00400FA05094A431EA8
:101AD000012093420DD8C021074A08485360036A89
:101AE00009061B021B0A0B430362002007239060B8
:101AF00013607047FFFFFF0010E000E000ED00E022
:101B000010210C4B30B5D8680022084205D00A4895
:101B10000232C4692243C2610A000420D96801422A
:101B200005D00121044C0243E5692943E161DA60F3
:101B300030BDC04600200240E8000020064B0020D7
:101B40001A69120606D5054A5A60054A5A6018698C
:101B50000006C00F7047C0460020024023016745C1
:101B6000AB89EFCD8023034A002011690B43136139
:101B70007047C0460020024070B50400FFF716FB16
:101B800001250600104B1A00D96829420FD12021E7
:101B9000D868084200D0D9601023D068184002D11C
:101BA000D3685B0708D5FFF7ABFF012004E0611C99
:101BB000EAD0002C01D1032070BDFFF7F7FA801B9B
:101BC000A042DFD9F7E7C04600200240F0B585B05B
:101BD000029203931B4B01911A7E04000220012AFA
:101BE0002ED0012218481A76FFF7C6FF002824D10C
:101BF0002600012C02D0022C00D0042600240298DA
:101C000003992201FEF720FB002201270D4B0F4D07
:101C1000DA612B69019A3B432B6163009B1880B208
:101C200018800948FFF7A8FF2B69BB432B610028E8
:101C300003D1E419E3B29E42E1D80022014B1A76A7
:101C400005B0F0BDE800002050C3000000200240B5
:101C50000022064BDA61064B043219690A431A6105
:101C6000402219690A431A617047C046E800002003
:101C7000002002400022064BDA61064B023219694D
:101C80000A431A614022586119690A431A61704770
:101C9000E800002000200240F8B5214E0500337E08
:101CA0000F000220012B0CD0012333762B681D4836
:101CB000012B12D1FFF760FF002803D00120002381
:101CC0003376F8BDFFF7C4FF1648FFF755FF042130
:101CD000154A13698B431361F1E7FFF74DFF0028A5
:101CE000ECD101235B423B606C680130AB686A68F1
:101CF000DB029B18A342E2D92000FFF7BBFF094893
:101D0000FFF73AFF0221084A13698B431361002849
:101D100001D03C60D3E780231B01E418E6E7C0460E
:101D2000E800002050C3000000200240F0B5564AF1
:101D30000B688218541EA24189B003930023043219
:101D40000592039ADA4001D109B0F0BD01229A4010
:101D500094466446039A2240029200D192E04A6877
:101D600001921022019E9643022E0DD107240F27C7
:101D70001C40A400A740DA0892008218156ABD43EF
:101D80000F69A7403D431562032214005D00AC407B
:101D9000E4430768013E27400497019F3A40AA4068
:101DA000049F3A430260012E0ED8CA688668AA4092
:101DB000264032438260624646689643019AD206C4
:101DC000D20F9A4032434260C26814408A68AA40E7
:101DD0001443019AC460D20054D501262B4A1D0039
:101DE00094693443946192699C0832400792079A3F
:101DF000274AA400A418A268944603221540AD0007
:101E00000C32AA40674697439022D205944600229E
:101E100060450DD01F4A94463200604508D01E4EE2
:101E20009218B04204D01D4E0132B04200D0059A43
:101E3000AA403A43A2601A4A029C1668029D019F7A
:101E4000E4433543FF0301D435002540156056684F
:101E5000029D019F3543BF0301D4350025405560E5
:101E60009668029D019F3543FF0201D4350025404D
:101E70009560D568029E019F2E43BF0201D4254084
:101E80002E00D66001335CE700F0FFB7001002407F
:101E9000000001400004004800080048000C004811
:101EA0000004014000690840411E8841C0B27047EB
:101EB000002A01D0816170478162FCE770B504009F
:101EC0000120002C3FD0250041352B78DBB2002BC0
:101ED00005D1220040321370200002F0B1FF24230C
:101EE00001212B702368E0681A68A6688A431A608B
:101EF00061681A4A0A401A619968194A1140996042
:101F0000012821D18021090231439960586815497F
:101F100001435960D96800200A40DA60616922698A
:101F20000A43A16909020A43DA60216AE2690A43A5
:101F30001A60012219680A431A60202360642B701A
:101F400020634234207070BD8421090231439960BE
:101F50000228DBD1802109015960D7E7FFFFFFF09C
:101F6000FF7FFFFF00800002F0B5040041342278BB
:101F70000300D2B20220202A18D11D0040352E784D
:101F8000012E13D01B68223020701E682338864330
:101F90001E601E68064F3E401E601E683143196079
:101FA000196808431860002022702870F0BDC046F0
:101FB000FFEFFFFFF0B5050041352A780300D2B2EC
:101FC0000220202A17D11C0040342678012E12D07E
:101FD0001B68223028701E68233886431E601E68E6
:101FE000054F09023E4031431960196808431860E3
:101FF00000202A702070F0BDFFF0FFFFF0B50368ED
:1020000085B00500DB0733D42B689B0700D58AE039
:102010002B681B0700D5CAE02B685B0700D5EDE0F5
:102020002B68DB061AD56A69BC4C0423012A00D050
:1020300059E1616B02260B436363636B1A4362636E
:10204000FFF7B4F80700636B334200D144E1F82195
:10205000626BAB698A43DB00134363632B689B06A7
:1020600000D567E1696A002900D0A4E1002018E0EA
:102070000C21AA4C62680A40042A0BD063680B400A
:10208000082B10D1C02263685202134080225202F2
:10209000934208D123689B03B6D56B68002BB3D15C
:1020A000012005B0F0BD6B68012B13D1802322689D
:1020B0005B0213432360FFF779F880260700B6021E
:1020C00023683342A0D1FFF771F8C01B6428F7D909
:1020D0000320E6E7002B16D12368914A802613409F
:1020E000236023688F4AB60213402360FFF75EF82F
:1020F00007002368334200D186E7FFF757F8C01B7B
:102100006428F6D9E4E7052B05D180232268DB0299
:1021100013432360CAE72368814A1340236023687E
:10212000804A1340C6E70C227C4C636813420BD0F4
:1021300063681340082B15D1C02263685202134014
:102140008022120293420DD123689B0702D5EB68CF
:10215000012BA5D1F82122682B698A43DB001343A8
:10216000236055E7EA680123002A0FD0226802267F
:1021700013432360FFF71AF8070023683342E9D1BD
:10218000FFF714F8C01B0228F7D9A1E7226802263E
:102190009A432260FFF70AF807002368334200D110
:1021A00036E7FFF703F8C01B0228F6D990E7EA6983
:1021B00001235A4C002A10D0626A0226134363623C
:1021C000FEF7F4FF0700636A334200D024E7FEF70E
:1021D000EDFFC01B0228F6D97AE7626A02269A430D
:1021E0006262FEF7E3FF0700636A334200D113E740
:1021F000FEF7DCFFC01B0228F6D969E78022002128
:10220000464C5205E3690091134208D1E369134338
:10221000E361E36913400393039B01230093802749
:10222000414E7F0033683B4206D0AB68012B13D18F
:10223000226A1343236230E033683B433360FEF786
:10224000B5FF019033683B42EFD1FEF7AFFF019B32
:10225000C01A6428F6D93BE70122002B14D1236A67
:10226000022793432362236A033293432362FEF7D8
:102270009DFF0600236A3B4225D0FEF797FF2B4BBC
:10228000801B9842F6D923E7052B0BD1216A013B2D
:102290000B432362236A1A432262FEF787FF022759
:1022A00006000DE0236A934304222362236A9343CA
:1022B000C0E7FEF77BFF1D4B801B984200D907E764
:1022C000236A3B42F5D0009B012B00D0A8E6E369CE
:1022D000174A1340E361A3E6FEF768FFC01B02281C
:1022E00000D8B0E6F4E6053203D1626B9A4362632C
:1022F000ADE6626B0226134301226363636B934373
:102300006363FEF753FF0700636B334200D1A5E61A
:10231000FEF74CFFC01B0228F6D9D9E60010024098
:10232000FFFFFEFFFFFFFBFF00700040881300006F
:10233000FFFFFFEF0C21464C62680A408A4209D039
:1023400063680B40082B0ED1C02263685202134011
:10235000934208D1636BDB0300D483E62B6A012B25
:1023600000D09DE67EE62B6A002B11D08026636BA1
:10237000760233436363FEF719FF0700636B334252
:1023800000D06FE6FEF712FFC01B0228F6D99FE6C9
:10239000636B304A802613406363FEF707FF070034
:1023A0007602636B334200D15CE6FEF7FFFEC01B92
:1023B0000228F6D98CE60C22254C63681340082BC2
:1023C00000D16DE62368244A1340236002292FD1EF
:1023D000FEF7ECFE80260700B6042368334221D1C5
:1023E0000F22E36A93432A6B1343E362A96AEB6A01
:1023F00062680B43194980250A40134363608023B8
:1024000022685B0413432360FEF7D0FE0600AD0490
:1024100023682B4200D029E6FEF7C8FE801B022865
:10242000F6D955E6FEF7C2FEC01B0228D5D94FE605
:10243000FEF7BCFE80250600AD0423682B4200D1C8
:1024400014E6FEF7B3FE801B0228F6D940E6C0462C
:1024500000100240FFFFFEFFFFFFFFFEFF7FC2FFF5
:1024600030B51B4C89B010222100684602F02CFFC9
:10247000210004AD10221031280002F025FF0C20AD
:10248000144A53681840082809D00C384342584170
:10249000114B40421840114BC01809B030BD0F20FD
:1024A0006C46D26A990C01400240645CA95CC0226F
:1024B0008020520213404002834201D1074802E0CB
:1024C0009342FBD10648FDF733FE6043E5E7C04683
:1024D000005B000800100240005A620200127A00FD
:1024E000006CDC02F7B50122504C06002368019114
:1024F00013408B421FD33268930728D4D3072ED4BE
:102500000123226801991A408A4200D97EE033688B
:10251000474C5B0700D581E0FFF7A2FF6368454A9F
:102520001B061B0FD35CD840434B18600020FEF7FE
:1025300013FE00200AE02368019993430B432360B4
:1025400023681340019A9342D5D00120FEBDF020AC
:1025500037494B688343B06803434B60CEE77268EA
:10256000334D012A1AD12B689B03EED503216B68EA
:102570008B4313436B60FEF719FE73680700012B52
:102580001CD10C226B681340042BB9D0FEF70EFE51
:102590002A4BC01B9842F4D90320D7E7022A03D163
:1025A0002B689B01E2D4D0E7032A03D16B6BDB03DA
:1025B000DCD4CAE72B689B07D8D4C6E7022B0BD123
:1025C0000C226B681340082B9AD0FEF7EFFD1B4BD3
:1025D000C01B9842F4D9DFE7032B11D00C226B68A3
:1025E000134200D18CE7FEF7E1FD144BC01B98426B
:1025F000F4D9D1E7FEF7DAFD104BC01B9842CBD8D7
:102600000C226B6813409342F4D179E722689A4315
:10261000226022681A4200D179E796E76368084A87
:102620001340F2681343636076E7C046002002401F
:1026300000100240D45B0008040000208813000052
:10264000FFF8FFFF014B18687047C04604000020E8
:10265000044B054A5B685B055B0FD35C034A10685B
:10266000D840704700100240E45B000804000020DE
:10267000F0B5036885B00500DB0328D58022002172
:10268000444C5205E3690091134208D1E3691343B6
:10269000E361E36913400393039B012300938027C5
:1026A0003D4E7F0033683B4241D0C022236A9200F6
:1026B00013403A4E4DD1236A1E406B681E43009B67
:1026C0002662012B03D1E369354A1340E3612B688D
:1026D000DA0706D503202F490A6B8243A868024314
:1026E0000A639A0706D52B492E480A6B0240E86810
:1026F00002430A639A0606D5102026490A6B8243D4
:10270000286902430A639A0306D5802021490A6B8F
:102710008243A86902430A6300205B0517D5402164
:102720001C4A136B8B4369690B4313630FE03368D7
:102730003B433360FEF73AFD019033683B42B4D12E
:10274000FEF734FD019BC01A6428F6D9032005B0BA
:10275000F0BD69680A409A42ADD08023226A206A9F
:1027600011005B0203432362236A0F483140034098
:1027700023622162D3079ED5FEF718FD07000222CF
:10278000236A134297D1FEF711FD084BC01B9842F4
:10279000F5D9DBE70010024000700040FFFCFFFFAE
:1027A000FFFFFFEFFFFFFCFFFFFFFEFF88130000AE
:1027B000E021036810B55A688A435A608222416852
:1027C000520091420CD18021826809028A4203D0D2
:1027D0008021C9008A4203D140211A688A431A60C5
:1027E0008021826A89018A4206D11968074C2140FA
:1027F000196019680A431A60030001225D331A70D8
:1028000000235C300370032010BDC046FFDFFFFFD4
:10281000F8B505000C00160080272B689868384032
:1028200006D0621CFAD0002C03D12800FFF7C0FFAD
:10283000F8BDFEF7BBFC801B8442EED8F5E7F0B58F
:10284000C02706000D00140085B00193FF0002AB05
:102850003168DA1D886828400CD0BD4203D10B7B5B
:10286000DBB213701378631CF4D0002C04D1300059
:10287000FFF79EFF05B0F0BDFEF798FC019BC01A64
:102880008442E4D8F3E770B513000D0016000A0087
:10289000C02149010400FFF7D2FF002805D0202302
:1028A000226E0320134323660FE03200290020002C
:1028B000FFF7AEFF0028F2D1C02133002A00C90083
:1028C0002000FFF7BCFF0028E9D170BDF8B5040077
:1028D0000120002C4ED000232500A3625D352B780B
:1028E000DBB2002B05D122005C321370200002F015
:1028F000DDFA0223402122682B701368E0688B43C5
:10290000E0211360C9000023884234D88026760174
:10291000884201D101E01E00A362236B002B04D189
:102920000233884200D801232363A7686368A16942
:102930003B4327693B4367693B43E7693B43276A5E
:102940003B43A76A3B438027BF000F403B431360D4
:10295000636A090C1843636B18430423194001434D
:102960000E435660D369074900200B40D361012311
:1029700020662B70F8BDF0263601B042CBD11E0088
:10298000CBE7C046FFF7FFFFF7B51E00030000923C
:102990005C331A7804000D000220012A00D1AEE059
:1029A00001221A70FEF702FC230001905D331B78B0
:1029B0006268DBB2012B0CD08221022049008A42DE
:1029C00000D095E0A168002900D091E0042B00D050
:1029D0008EE00120002D00D18AE0009B002B00D169
:1029E00086E0002E00D183E023005D3319780429AE
:1029F00001D00521197027000023009908372164B0
:102A0000A11D2366FE87CE87E3642365E023E0688B
:102A1000A563E687A6872168DB00984202D8FB8F72
:102A2000012B30D94B68714E33404B6040230E6808
:102A30001E4202D10E6833430B60E0232600DB0008
:102A4000083698425CD9002A02D0E38F012B06D1C8
:102A50002B880235CB60E38F013B9BB2E3870127D4
:102A6000E38F002B14D1F38F002B11D1019A089919
:102A70002000FFF708FF002800D0B3E0206E431EBF
:102A80009841C0B234E080234E685B013343CCE709
:102A9000002F0FD0E38F002B0CD0022123689A68FF
:102AA0000A4207D000272A886D18DA60E38F013BBD
:102AB0009BB2E387F38F002B0FD0012123689A6824
:102AC0000A420AD0DB68009A0F0013801300023319
:102AD0000093F38F013B9BB2F387089B0133BFD078
:102AE000FEF764FB019BC01A089B8342B8D8032001
:102AF000230001225D331A7000235C342370FEBD75
:102B0000002A02D0E38F012B09D1E38F012B08D9D2
:102B10002B880235CB60E38F023B9BB2E387012712
:102B200045E02B7801350B73E38F013B9BB2E387C4
:102B3000F5E7002F12D0E38F002B0FD0022123687E
:102B40009A680A420AD0E28F012A37D92A886D187A
:102B5000DA60E38F023B9BB2E3870027F38F002B01
:102B60001AD00121226893680B4215D0F38F8B4253
:102B70002CD9D368009901270B800B0002330093F6
:102B8000F38F023B9BB2F387F38FBB4204D88023C1
:102B900051685B010B435360089B013307D0FEF77C
:102BA00005FB019BC01A089B834200D89FE7E38F77
:102BB000002BBED1F38F002BBBD157E72A7801350C
:102BC0001A73E38F013B9BB2E387C6E7137B009A3E
:102BD00001271370F38F013B9BB2F387130001337E
:102BE0000093D9E72023236648E7C046FFEFFFFFA5
:102BF0000122036A70B593430362036A44688569DE
:102C0000723295430A681543022293438A6813433C
:102C1000144A904208D0144EB04205D0134EB04230
:102C200002D0134EB04216D10826B343CE683343C8
:102C30000426B343904208D00B4A904205D00B4A79
:102C4000904202D00A4A904205D10A4A8E69224037
:102C50004C69344314434A684460856142630362AB
:102C600070BDC046002C01400040014000440140BE
:102C700000480140FFFCFFFF70B57325036A174A47
:102C800013400362036A4268C469AC430D682C4375
:102C9000134D2B408D682D022B43124DA8420ED1AF
:102CA000114D1D40CB681B022B43104D2B40104D86
:102CB0004E6915408A69324312012A4308E00D4DDE
:102CC000A842F4D00C4DA842F1D00C4DA842EED051
:102CD00042604A68C461C263036270BDFFFEFFFFC9
:102CE000FFFDFFFF002C0140FFF7FFFFFFFBFFFF91
:102CF000FFCFFFFF00400140004401400048014079
:102D0000036A144A30B513400362026A124C4368E6
:102D1000C56925400C6824022543104C22408C686C
:102D2000240322430E4CA04208D00E4CA04205D0F2
:102D30000D4CA04202D00D4CA04204D10C4C2340BB
:102D40004C69A401234343604B68C561036402627C
:102D500030BDC046FFEFFFFFFF8CFFFFFFDFFFFF2F
:102D6000002C014000400140004401400048014067
:102D7000FFBFFFFF70470000204A10B50368904274
:102D800006D08024E405A04202D01D4CA0420CD104
:102D90007024A3434C682343904212D08024E4055E
:102DA000A0420ED0164CA0420BD0164CA04208D028
:102DB000154CA04205D0154CA04202D0144CA042A4
:102DC00003D1144C2340CC6823438024A3434C6993
:102DD000234303608B68C3620B688362904208D010
:102DE000094B984205D0094B984202D0084B9842B3
:102DF00001D10B6903630123436110BD002C014025
:102E00000004004000200040004001400044014018
:102E100000480140FFFCFFFF70B504000120002CBA
:102E200014D025003D352B78DBB2002B05D12200D4
:102E30003C321370200002F07FF8022320682B70D0
:102E4000211DFFF799FF012300202B7070BD70B585
:102E500004000120002C14D025003D352B78DBB276
:102E6000002B05D122003C3213702000FFF782FFB7
:102E7000022320682B70211DFFF77EFF0123002015
:102E80002B7070BD1022036A70B593430362026A0F
:102E9000164D436884692C400D682D022C43202573
:102EA000AA438D682D012A43114DA8420FD18025D8
:102EB000AA431500CA6812012A434025AA430D4DB2
:102EC0004E691D408B6933439B002B4308E00A4D3C
:102ED000A842F4D0094DA842F1D0094DA842EED045
:102EE00043604B6884618363026270BDFF8CFFFFA7
:102EF000002C0140FFF3FFFF00400140004401406F
:102F000000480140F8B5060002233C360D00317838
:102F100004001800012925D0270001213D37317018
:102F20003B700C2A1AD81000FDF7F8F8071818188B
:102F30001D1818182F181818410029002068FFF7CD
:102F400057FE0822236899690A4304219A619A6905
:102F50008A439A619A6929690A439A610123002088
:102F60003B703070F8BD29002068FFF78BFF80228E
:102F70002368120199690A439A619A6915490A40BE
:102F80009A612A6999691202E6E729002068FFF729
:102F900073FE08222368D9690A430421DA61DA69D9
:102FA0008A43DA61DA6929690A43DA61D6E72900D6
:102FB0002068FFF7A5FE802223681201D9690A4321
:102FC000DA61DA6903490A40DA612A69D9691202C9
:102FD000EAE7C046FFFBFFFF30B58468034D0A43B4
:102FE0001B022C4013432343836030BDFF00FFFFCF
:102FF000F8B5050002233C352A7804001800012AA0
:1030000019D02600012720683D362F703370836861
:103010004F4A134083600B68402B00D16FE016D8F5
:10302000102B00D187E007D8002B00D17DE00123D1
:10303000002033702870F8BD202B00D181E0302BA8
:10304000F5D17022836893431A00372355E0702B23
:1030500033D01BD8502B3BD0602BE8D110244B68C9
:10306000CA68016A3B4FA1430162846912033C4074
:103070002243A024016A82617022A1431B010B43F9
:103080000362836893431A00672336E0802252016B
:1030900093420DD0802292019342C8D1CB684A68F6
:1030A0008968FFF799FF80232268DB0191680CE0B3
:1030B0000722836893438360B9E7CB684A688968CD
:1030C000FFF78AFF7721226893680B439360AEE78E
:1030D0004A68CB68016A046A1B01BC43F02704629A
:1030E0008469BC4323430A24A1430A4383610262E7
:1030F0007022836893431A0057231343DBE74A681F
:10310000CB68016A046A1B01BC43F027046284692E
:10311000BC4323430A24A1430A4383610262702211
:10312000836893431A004723E7E770228368934339
:103130001A000723E1E77022836893431A001723DC
:10314000DBE77022836893431A002723D5E7C04644
:103150008800FFFFFF0FFFFF10B501248C408A405D
:10316000036AA3430362036A1A43026210BD0000AC
:1031700010B5040001220068FFF7EEFF23680B4A38
:10318000934208D00A4A934205D00A4A934202D099
:10319000094A934204D18022596C12020A435A64AC
:1031A0000122196800200A431A6010BD002C01405A
:1031B00000400140004401400048014010B5FFF7C5
:1031C000D7FF10BD10B5040000220068FFF7C4FF50
:1031D0002368144A1449934208D0144A934205D0F4
:1031E000134A934202D0134A93420AD11A6A0A42FE
:1031F00007D1186A104A104203D15A6C0F48024096
:103200005A641A6A0A4207D1196A0B4A114203D159
:1032100001211A688A431A6001233D34002023707B
:1032200010BDC046002C01401111000000400140BB
:10323000004401400048014044040000FF7FFFFFBC
:1032400030B5040002223C34257803001000012D23
:1032500017D01D001B683D352A705A686E308243B6
:103260005A605A6808684968024380205A609A6820
:1032700082439A609A6800200A439A6001232B7067
:10328000207030BD30B5040002233C3425780200A4
:103290001800012D24D010003D30CD680370114B73
:1032A00012682B408D682B430F4D2B404D682B43EC
:1032B0000E4D2B400D682B430D4D2B400D692B43BC
:1032C0000C4D2B404D6989692B430B4D2B400B4D09
:1032D0000B432B400B4353640123037000202070E9
:1032E00030BDC046FFFCFFFFFFFBFFFFFFF7FFFF06
:1032F000FFEFFFFFFFDFFFFFFFBFFFFFFF7FFFFFCE
:10330000F8B504000568C269836800692968034349
:10331000606903435048134301400B432B606B68C3
:103320004E49206A0B40E1680B436B60A369A968B2
:1033300003434B4801400B43AB604A4B9D4213D1C2
:103340000321494B1B6B0B404849C85C80231B027F
:103350009A424AD1082800D97BE0FCF7DFFE407A88
:10336000257A6E7A7A7A73008021414B09029D4258
:103370002DD1C02080263C4B80021B6B760203407F
:10338000B34258D00F00B34206D800208342DDD0AC
:10339000BA425ED0012019E08026B602B3424FD077
:1033A0008342F5D18A4235D163685808314BC01841
:1033B0006168FCF7BDFE83B200200F221900914323
:1033C0000A001B0721685B0F1343CB60F8BD2A4B33
:1033D0009D4202D0294B9D4239D18A420ED1FFF73E
:1033E00037F9636840005B08E1E70828D2D8FCF7AA
:1033F0008BFE05D111D11AD1D1D11D00FFF728F9CB
:10340000616824684B081818FCF792FE80B2E060EF
:103410000020DBE761681A4B4808C018FCF788FEFB
:1034200080B2E860F4E7FFF71BF8E9E78023616802
:103430001B024808F1E78A42F5D1FFF711F8D0E7FF
:103440008A42F3D16368580880235B02AFE78A425F
:10345000A0D101200023B0E7F369FFEFFFCFFFFF0A
:10346000FFF4FFFF0038014000100240A05B00089D
:10347000004400400024F40000480040004C00409C
:1034800000127A00436A30B5DA0706D50168284C85
:103490004A682240846A22434A609A0706D5016836
:1034A000244C4A682240C46A22434A605A0706D51F
:1034B0000168214C4A682240046B22434A601A0783
:1034C00006D501681D4C4A682240446B22434A607D
:1034D000DA0606D501681A4C8A682240846B2243BA
:1034E0008A609A0606D50168164C8A682240C46B29
:1034F00022438A605A0610D50168134D4A68046C4D
:103500002A4022434A6080225203944205D14A68ED
:103510000E4C2240446C22434A601B0606D50268CA
:103520000B4953680B40816C0B43536030BDC04660
:10353000FFFFFDFFFFFFFEFFFFFFFBFFFF7FFFFF22
:10354000FFEFFFFFFFDFFFFFFFFFEFFFFFFF9FFF2B
:10355000FFFFF7FFF8B504000E0015001F002268FA
:10356000D36933409B1B59424B41AB4201D00020F1
:1035700018E0069B0133F3D0069B002B13D1236880
:103580000C491A6803200A401A609A68A331FF3177
:103590008A439A60220020236932137053700023FB
:1035A00068342370F8BDFDF701FE069BC01B9842EE
:1035B000D5D9E4E75FFEFFFF002337B50400C366FB
:1035C000FDF7F4FD2368184A050093420BD0174A13
:1035D000934208D0220020230020693268341370FF
:1035E000537020703EBD1B681B070FD423681B68F7
:1035F0005B07EFD580210E4B00220093C9032B00FF
:103600002000FFF7A7FF0028E4D00AE08021084B44
:103610000022009389032B002000FFF79BFF002866
:10362000E4D00320DEE7C0460038014000440040FB
:10363000FFFFFF0170B5041E01D1012070BD050020
:1036400069352B78DBB2002B04D10200683213708D
:1036500001F050FD2423012122682B701368200003
:103660008B431360FFF74CFE0128E6D0636A002B02
:1036700002D02000FFF706FF236808495A6820009F
:103680000A402A215A609A688A439A60012219687E
:103690000A431A60FFF790FFD0E7C046FFB7FFFF6D
:1036A000044B1B78181E03D0013B034A9B0098581B
:1036B0007047C0469800002008010020034A137894
:1036C000002B01D0013B13707047C04698000020CA
:1036D000F7B5104F01923C780023132C17D80E4EEB
:1036E0000E4B321F9446F56C1A68043B9A60634592
:1036F000FAD1002328602971019AE918D05C0133BE
:103700004871082BF8D1013435603C70073B180034
:10371000FEBDC04698000020080100205001002096
:10372000024B187843425841C0B2704798000020BD
:1037300010B50024102001F0BDFD034AA3000134A0
:10374000D050142CF6D110BD080100201FB5012364
:10375000039300230290694601A80193FEF79CFAA7
:10376000002801D000F0B2F905B000BD10B5FEF799
:10377000F9F9002801D000F0A9F910BD0200036892
:1037800001CB1360704710B50A00040001680023E4
:103790000220FEF71BFA002801D000F097F92368F9
:1037A0000433236010BD10B5FEF7C8F9002801D01E
:1037B00000F08CF910BD000070B50A4C0A4A23686D
:1037C0000500C11AFA2310689B00994206D9584394
:1037D000FCF7AEFC054B2560188070BD0130106011
:1037E000FBE7C046940000208C00002090000020E1
:1037F000014B18887047C04690000020F8B5154D61
:1038000007002B780E00144C934219D2FDF7CEFC22
:103810002368C01AB84212D910490B785A425A414B
:10382000D2B20A70002B02D02B7801332B7080218A
:103830000B48C900FEF73CFBFDF7B8FC2060F8BD63
:10384000FDF7B4FC2368C01AB042F8D900232B70EE
:103850002360F4E7CA000020C0000020BE00002062
:1038600000080048002210B501240C4B400149011A
:103870005A61DA61186059609860D9601A6119005C
:103880000E3207489C611C625A62FDF742FE002816
:1038900002D09822034B1A7010BDC0465801002078
:1038A00010020020A900002070B50500064CFFF7AB
:1038B0007AFF2000FFF74AFF044829000460FFF761
:1038C00062FFFFF753FF70BD00FC0108800100207C
:1038D0007047000070B505001C244D2600230D4ADA
:1038E0001470E85CD11801334870072BF9D10A4BEA
:1038F0000A491B789B00585A0821FFF7E9FE002867
:1039000001D1074B1E700134E4B20735202CE5D1FC
:1039100070BDC046EC02002099000020B45B000896
:10392000A900002070B5002501262C00954207D182
:103930008C408B400288A4B2A2431343038070BD25
:10394000640034430135A4B2EDB2EFE710B50A00CC
:10395000002805D0012809D09522064B1A7004E0F2
:10396000802149000448FEF7A3FA10BD8021890098
:10397000F8E7C046A9000020000800487FB5040011
:103980000F2A02D99425124805700E255B055B0DA0
:10399000C9031943D20211436D442980200000213C
:1039A000FFF7D4FF012303AE5B42009332000233E2
:1039B00029000848FEF7E8FF002802D09522044BB2
:1039C0001A7020000121FFF7C1FF308804B070BDDC
:1039D000A90000203C030020002337B50D0003227E
:1039E00001211800FFF7CAFF6B469C1DD8800422F6
:1039F0002B0020000021FFF795FF002123880422DF
:103A00000800FFF7BBFF37BD002337B50D000322C9
:103A100001211800FFF7B2FF6B4604229C1DD880DD
:103A200011002B002000FFF77DFF002123880422D6
:103A30000800FFF7A3FF37BD002337B50D000322B1
:103A400001211800FFF79AFF6B469C1DD8800422C5
:103A50002B0020000021FFF765FF002123880322AF
:103A60000800FFF78BFF37BD002337B50D00032299
:103A700001211800FFF782FF6B4604229C1DD880AD
:103A800011002B002000FFF74DFF002123880322A7
:103A90000800FFF773FF37BD10B501210020FFF7C5
:103AA00055FF01210800FFF751FF03210020FFF718
:103AB000C3FF03210020FFF7D7FF03210020FFF7FA
:103AC0008BFF03210020FFF79FFF10BD802110B561
:103AD000012209010548FA24FEF7EAF9A4000422AC
:103AE00021006420FFF78AFEF9E7C046000800487D
:103AF00030B5102599B0302200210CA801F0EDFB63
:103B00002A000021684601F0E8FB1C22002104A8DD
:103B100001F0E3FB012432230BA80B930E941394C2
:103B200010940F951195FEF769FA002801D0FFF760
:103B3000CDFF0723029000930390043B21006846C9
:103B40000193FEF7CFFC0028F1D1212306900890C5
:103B500004A80493FEF78CFD0028E8D119B030BD0D
:103B6000F0B5DFB0FDF70AFBFFF7C2FF142200211A
:103B700057A801F0B2FB80204C4B00035969F32693
:103B8000014359615A693601024080201492149A07
:103B90005969C003014359615A6980250240802058
:103BA0001592159A59698002014359615A69002496
:103BB000024080201692169A5969C0020143596149
:103BC00080215A69490302401792179A5A69384866
:103BD0000A435A615B6900220B4018933100189B1D
:103BE000FEF766F9002204213248FEF761F99020C1
:103BF000ED0000222900C005FEF75AF92E4B57A907
:103C00002B48579358945994FEF790F8032357A9DB
:103C10002A48579358945994FEF788F857960126E6
:103C2000042757A92248589659945A94FEF77EF8CB
:103C300057A920485797589659945A94FEF776F802
:103C40001F4B57A91B48579358945994FEF76EF889
:103C5000902057A9C0055795589659945A94FEF745
:103C600065F857A91748579758945994FEF75EF886
:103C70000C22210021A801F030FB134D134B28002A
:103C80002B60C223FF336C60AC60EC602E616F610F
:103C9000AC61EC612C626C62AB62EC622C636E63B3
:103CA000FDF78AFAA04213D0FFF710FF0010024080
:103CB00000080048000400480FF00000001400480D
:103CC00020300000000C0048C00600200024014005
:103CD00080235B012293802321905B0521A928008A
:103CE0002393FDF70DFB0028DED121A928002196A2
:103CF000FDF706FB0028D7D1022321A92800219334
:103D0000FDF7FEFA0028CFD1032321A92800219333
:103D1000FDF7F6FA0028C7D121A928002197FDF761
:103D2000EFFA0028C0D1062321A928002193FDF72E
:103D3000E7FA0028B8D1E64BE64A98601A600C22F0
:103D40005A60C02212031A618022D860520318768A
:103D500058769876D8761877587718005A61FDF714
:103D60004FFB0028A0D1DC4CDC4BA0602360DC4B77
:103D700020616061A061E061206220006360E66014
:103D8000FEF79CF8011E8FD12000FEF7EDF8002809
:103D90008AD100212000FEF70DF9002800D083E72A
:103DA000D04BD14A98601A60822252005A60F022A9
:103DB0001201DA6001225A61802292009A61C93AA6
:103DC000FF3A1861DA61186258629862313A1863F2
:103DD00058631800DA62FEF779FD051E00D063E72C
:103DE0000100102230A801F078FA082229001FA84B
:103DF00001F073FA1C22290057A801F06EFA802303
:103E0000BA4CDB0523602F23200063603433A560A8
:103E1000E3602561A561FEF7FFFF002800D043E7BE
:103E2000802330A95B0120003093FFF7E1F80028E0
:103E300000D039E72000FFF70AF8002800D033E768
:103E40001F9020901FA92000FFF7FAF9021E00D052
:103E50002AE76023589059905B9057A92000579308
:103E6000FFF750F8002800D01EE7042257A92000D1
:103E7000FFF748F8002800D016E7082257A92000CD
:103E8000FFF740F8002800D00EE70C2257A92000C9
:103E9000FFF738F8002800D006E7200001F08EF880
:103EA000102200212CA801F018FA082200211DA8D8
:103EB00001F013FA1C22002150A801F00EFA8C4CDC
:103EC0008C4B2F2623600023633520006660A3609F
:103ED000E5602361A361FEF79FFF002800D0E3E6C1
:103EE00080232CA95B0120002C93FFF781F8002888
:103EF00000D0D9E62000FEF7AAFF002800D0D3E6C4
:103F00001D901E901DA92000FFF79AF9021E00D0F7
:103F1000CAE6602351905290549050A920005093CB
:103F2000FEF7F0FF002800D0BEE6042250A92000D2
:103F3000FEF7E8FF002800D0B6E6082250A92000CE
:103F4000FEF7E0FF002800D0AEE60C2250A92000CA
:103F5000FEF7D8FF071E00D0A6E6200001F02EF8DD
:103F60006548664B8760036096231B0243600C2301
:103F7000C76007618761C761076247624361FFF7F6
:103F800059FB071E00D08FE60100102228A801F07F
:103F9000A4F9082239001BA801F09FF91C2239005E
:103FA00042A801F09AF91C22390049A801F095F9BC
:103FB000534C544B200023606660A760E560276186
:103FC0006761A761FEF728FF002800D06CE6802615
:103FD00028A9760120002896FFF70AF8002800D0CB
:103FE00062E62000FEF733FF002800D05CE61B905D
:103FF0001C901BA92000FFF723F9021E00D053E6F6
:10400000602343904490459046904790489042A941
:1040100020004293FEF776FF002800D044E60422F9
:1040200042A92000FEF76EFF002800D03CE6802366
:1040300049904A904B904C904D909B014F9049A9CC
:1040400020004E93FFF71EF9051E00D02CE620003D
:1040500000F0B4FF1022290024A801F03EF9082244
:10406000290019A801F039F91C22290034A801F00F
:1040700034F91C2229003BA801F02FF9224C234BD4
:10408000200023602F2363603433A560E360256143
:104090006561A561FEF7C0FE002800D004E624A9F2
:1040A00020002496FEF7A4FF002800D0FCE52000A5
:1040B000FEF7CDFE002800D0F6E519901A9019A958
:1040C0002000FFF7BDF8002800D0EDE520E0C04655
:1040D00010020020006400408401002000540040D1
:1040E0000E0900203C03002000300140A8030020FE
:1040F00038020020000400407C020020003801400B
:10410000F4020020002C0140D001002000400140BA
:104110000022602334A920003493359236923792DE
:10412000389239923A92FEF7EDFE002800D0BBE5B6
:10413000042234A92000FEF7E5FE002800D0B3E5F4
:1041400080233B903C903D903E903F909B0141905E
:104150003BA920004093FFF795F8051E00D0A3E58A
:10416000200000F02BFF6548654B0360FFF706FB5E
:10417000644CC0B22070072800D92570802190209F
:104180000022C900C005FDF793FEFFF7D1FA23789E
:104190005D489A0002329B00115A185AFFF762FBE1
:1041A0005A48FDF72AFA041E00D07DE50125584B38
:1041B000584FD8609860187528005D6000F0D2FAFA
:1041C0002A0010213800FDF773FE2A002021380054
:1041D000FDF76EFE504B04260C9320230B934F4BA0
:1041E0004F4A0A9380239B0109934E4B100006937C
:1041F00004934D4B310002930093089723000794DA
:104200000596039401960F940E940D9600F0B4FA5F
:104210008023DB010D9380231B020B93434B082269
:104220000893404B424806930C233E490792039261
:104230003B4A0593049102920193009223000200ED
:1042400031000A9709950F940E940C9700F094FA98
:10425000FFF722FC11952D4D00212800FDF7DDFA16
:10426000344C00280CD0344B344A00212800FDF790
:1042700051FA0023032802D0002830D1119B23706B
:104280002378002B00D181E000272B4B1C78FBB258
:1042900013931C4D294B1C4A18682B785B00DB19C3
:1042A0005B00995A88425CD1212C4DD8202C00D338
:1042B000B1E1142C00D18FE117D8102C00D18BE183
:1042C000122C00D1A4E127221D4B1E491A7057A8B9
:1042D000220001F0C5F857A8FFF7FCFA41E00522DB
:1042E000174B1A70CCE7119FD1E7192C00D13CE194
:1042F0001B2CE8D1FDF7DCFB33E0C0468001002039
:1043000000FC010899000020A45B000810020020B6
:104310008806002000080048000C004800040048FF
:10432000A803002038020020F402002000140048F6
:10433000D0010020C9000020A0030020A406002016
:10434000A9000020C45B0008302C00D11FE100D977
:10435000EFE0222C00D1F6E0232CB4D1CF4B119A00
:104360001A70CF4B1B69022B0BD9042322009A43EE
:10437000102A06D1CB498A784B7812021343CA4AD5
:104380001380012FAFD10022C84B1A70C84BC94D02
:104390001B78002B37D0FCF709FFC74C2368C01AE5
:1043A000C14B1B8898422ED9FCF700FF2060C34CFC
:1043B000C34F2078C34E8300D9599B5999421BD0D3
:1043C0001323C14A13700B0E13710B0CD3700B0A1D
:1043D0009370BE4B51701B78BD495B001B185B008E
:1043E000585A0521FFF774F9002801D14D232B708D
:1043F00023789B00FA58F25023780133DBB2022B6A
:1044000000D149E12370002000F014FB119800F066
:1044100011FBB04C2368002B1ED1FCF7C7FEAE4B3E
:104420000600AE491868FBF709FFFA231B01C918FB
:104430008E4211D9FCF7BAFE2223A34AA849137071
:10444000A24B20601B789B00585A1199FFF740F946
:10445000002801D107232B702368013B033318D8B0
:10446000FCF7A4FE2368C01A0A2812D98B4F3B78A8
:10447000002B00D15FE19B4A13780133DBB213704C
:10448000082B00D040E16A332B70733B236000237C
:104490003B70954C2B7822789A4213D0002B0FD08A
:1044A000EE21894A5370894B11701B7888499B0013
:1044B000585A0221FFF70CF9002801D10A232B706A
:1044C0002B782370FCF772FE884F3B6898421ED011
:1044D000FFF726F9041E1AD1FFF7E2F8844E0368AD
:1044E0003360FFF7DDF80379336133699C4200D212
:1044F00025E1804B744A31007F48FDF7A8F8002879
:1045000000D025E1FFF7DAF8FCF750FE38602B7891
:10451000119A002B03D00222632B00D90322FA2127
:1045200064208900FFF76AF9FCF740FEFFF744F9C1
:1045300091E6402C3DD0FF2C00D0C4E6624A64498D
:104540001470585A08E0634B1B68013B033300D8D2
:1045500007E723235C4A13701199FFF7B9F8002885
:1045600000D0FEE6534B0722FAE61A21564A117094
:1045700011995170002191705549585A0321FFF744
:10458000A7F8002800D0ECE64A4B2522E8E63123C4
:104590004D4E3370FFF72CF97070FFF729F92B7827
:1045A0004B4A5B00DB19000A5B00B070985A32007E
:1045B000E4E73C4B5B78082B02D93E4B3222CFE636
:1045C00099002B7002319B00985A895AFFF74AF9DB
:1045D0002878FFF769F9C4E600213948BA0011507C
:1045E000464AB954324A119911702E4A1278142A47
:1045F00000D0B6E64121344A11703549C85A1199A4
:10460000FFF766F8002800D0ABE62A4B3922A7E670
:10461000274B0022A4E6234B5B78180080381293C6
:10462000FCF7BEFCFE2349004E0800229B0531002A
:10463000FCF744FAFCF7EEFC6B4648229B181B780B
:104640002F4D5BB22860002B04DB80222B68120602
:104650009B182B60FE2229689205139800F066F9DA
:104660002968284ABB0099500E4B1B78212B00D09B
:1046700077E6154A20331370144B15491B785B00FD
:10468000DB195B00585A1199FFF722F8002800D077
:1046900067E6084B3A2263E60023B3E6A000002059
:1046A000A4060020A003002000000020C900002074
:1046B000A8000020A9000020C4000020C80000209D
:1046C000AC000020B4000020EC0200209900002083
:1046D000B45B0008A4000020B4F7FF1FAB0A000081
:1046E000A45B00089A000020AA0000209C00002083
:1046F000880600203403002010020020BC000020A7
:104700000C070020CC000020134E33780133DBB2BD
:10471000082B0ED033703078FFF7C6F833780F4887
:104720009A0002329B00115A185AFFF79BF8002397
:10473000ACE60023EEE701235B422360A9E6FEF727
:10474000AFFF00194379064A13550134E4B2CCE6B1
:104750000B232B70D8E6C04699000020A45B00080C
:10476000EC0200200022024B1A70024B18707047B6
:10477000A006002078020020F0B58BB01F0010AB1F
:1047800010CB01911D7813AB1B781600029315AB6B
:104790001B78039317AB1B78049319AB1B88059305
:1047A0001BAB1B8806931DAB1B8807931EAB1B78A6
:1047B00008931FAB1B780993394B1B78072B02D941
:1047C0009221384A117054225343374A0199D31821
:1047D000129A98605A61149ADE609A61169A1C6166
:1047E000DA615A1CD177DA1C0399D5775A1DD17733
:1047F0009A1C0299D7771A1DD17704999A1DD177FF
:10480000189A9A621A9ADA621C9A1A63059A9A8618
:10481000069ADA86079A1A871A0008995132117097
:1048200000229A64099A50331A700199FEF7C6FC67
:10483000002802D096221B4B1A7039003000FEF778
:10484000BDFC002802D09722164B1A7029002000C8
:10485000FEF7B4FC002802D09822124B1A7002997D
:104860001298FEF7ABFC002802D099220D4B1A706B
:1048700003991498FEF7A2FC002802D09A22094B53
:104880001A7004991698FEF799FC002802D09B2212
:10489000044B1A70024A1378013313700BB0F0BD49
:1048A000A0060020A9000020E803002070B50E1C1F
:1048B00088B004000021301C1500FBF7E3FC002841
:1048C00006D1FE21301C8905FBF7F0FC002802D040
:1048D000A122144B1A7029002000FEF773FC142249
:1048E000002103A800F0F9FC60230F49301C01935C
:1048F000FBF7CEFDFBF7EEFC2A00029001A9200099
:10490000FEF700FB002802D0A222064B1A702900F5
:104910002000FEF753FC002802D0A322014B1A709E
:1049200008B070BDA90000200000C842F7B55424AB
:104930004443154F06003C19236C0191181C151CAB
:104940000093FBF799FC002805D0291CE06CFBF7CD
:1049500093FC002816D154242300FE217343009AAF
:10496000FB189A64019A89051A64281CFBF79EFCBF
:10497000002801D0FE25AD0501236643BE19F5646C
:1049800044363370F7BDC046E80300205423434348
:1049900010B50448C018431CDA7F8068FFF786FF13
:1049A00010BDC046E80300205423434310B504481B
:1049B000C018C31CDA7F0069FFF778FF10BDC0463E
:1049C000E80300205423434310B50448C018431D96
:1049D000DA7F8069FFF76AFF10BDC046E803002058
:1049E0005423434310B50448C018831CDA7FC068C1
:1049F000FFF75CFF10BDC046E8030020542343438B
:104A000010B50448C018031DDA7F4069FFF74EFF58
:104A100010BDC046E80300205423434310B50448AA
:104A2000C018831DDA7FC069FFF740FF10BDC04684
:104A3000E8030020F0B5BD4B85B01B780400002BC7
:104A400000D108E154254543B94B5D19A98EA86AE8
:104A5000FDF728FAE98E0600E86AFDF723FA298FA8
:104A60000700286BFDF71EFA2B0044331B780290D9
:104A7000002B0ED12B003A331B78834209D12B0037
:104A80003B331B78BB4204D13C352B78B34200D179
:104A9000E1E054236343A64A0299D3181A003A323C
:104AA0001170577096701D6C50331B78002B02D01C
:104AB00080231B06ED180021281CFBF7E3FB802355
:104AC0001B06EB180193002800D1019500210198E5
:104AD000FBF7D2FB00283BD054236343944A0021C8
:104AE000D7187B1CDA7FB868FFF7E0FEFE21BB1CFD
:104AF000DA7F8905F868FFF7D9FEFB1CDA7F002111
:104B00003869FFF7D3FEFE213B1DDA7F89057869FE
:104B1000FFF7CCFE7B1DDA7F0021B869FFF7C6FEE8
:104B2000FE21BB1DDA7F8905F869FFF7BFFE029BF6
:104B3000002B00D0F3E07F4B1A5D002A00D18AE001
:104B400000221A557C4AA400A3580133A35082E0E6
:104B5000029B012B09D1012F07D1002E05D1002185
:104B6000281CFBF7A3FB00280DD1029B3B43DBB2C3
:104B7000002B22D1012EDED10021281CFBF796FB51
:104B8000002800D092E000212000FFF71BFF002149
:104B90002000FFF741FF01992000FFF705FF0021EA
:104BA0002000FFF72BFF00212000FFF7EFFEFE2182
:104BB00089052000FFF714FFB9E7029B012B20D1E4
:104BC00033003B43DBB20393002B31D10021281C7F
:104BD000FBF76CFB002821D10021281CFBF766FBAA
:104BE000002834D100212000FFF7ECFEFE21200038
:104BF0008905FFF711FF00212000FFF7D5FE0021F6
:104C000062E0029B002B26D1012F42D1012E24D13C
:104C10000021281CFBF74AFB0028E3D10199200062
:104C2000FFF7D0FE00212000FFF7F6FE0021B3E7DA
:104C3000002F52D1012E05D10021281CFBF736FB95
:104C4000002813D1039B002BC6D0002F50D0394B26
:104C50001A5D002A67D005B0F0BD002E00D06AE7CB
:104C60000021281CFBF722FB002849D101992000D4
:104C7000FFF7A8FE00212000FFF7CEFE0021200054
:104C8000FFF792FEFE2189052000FFF7B7FE002105
:104C90001EE0002F00D04EE7012E00D04BE7002190
:104CA000281CFBF703FB002800D144E7002120006B
:104CB000FFF788FE00212000FFF7AEFE0021200054
:104CC000FFF772FEFE2189052000FFF797FE01998C
:104CD0002000FFF75BFE00216BE7012FB2D1002E11
:104CE000B0D10021281CFBF7E1FA0028AAD1DDE7AA
:104CF000012EACD10021281CFBF7D8FA0028A6D140
:104D000000212000FFF75EFEFE2120008905FFF74D
:104D100083FE01992000FFF747FE0021B4E7029BC4
:104D2000012B98D193E701220BE7C04678020020BF
:104D3000E8030020BC000020AC00002001200A4B4A
:104D400082B099690143996180219A6949050240BD
:104D50000092009ADA690A43DA61DB690B40019339
:104D6000019B02B07047C0460010024010B504001D
:104D700088B01422002103A800F0AFFA104B22687B
:104D80009A421BD180200F4B8000996901439961A1
:104D900080219A69890202400192019A5A69902001
:104DA0000A435A615B69C0050B400293029B5F2373
:104DB00003A903935C3B0493FCF7B8FF08B010BD54
:104DC000002401400010024010B5040088B01422F5
:104DD000002103A800F081FA174B22689A4228D1DB
:104DE0008020164B8004D9690143D9618021DA699A
:104DF000890202400192019A5A6990200A435A613D
:104E00005B69C0050B400293029BC0235B010393C7
:104E1000022304930133069303A901330793FCF79C
:104E200085FF00221E201100FCF70EFE1E20FCF75D
:104E300035FE08B010BDC0460064004000100240BE
:104E400010B5040088B01422002103A800F045FA30
:104E5000134B22689A4220D18021124CC902626908
:104E600011480A436261636903220B400193019B6D
:104E7000C0239B000393122303A90493113B0593C2
:104E800006920793FCF752FF8021E26989030A43E7
:104E9000E261E3690B400293029B08B010BDC0467B
:104EA00000540040001002400004004830B50400E7
:104EB00089B01422002103A800F00FFA1B4B2268CE
:104EC0009A4231D180201A4B400199690225014351
:104ED00099619A690324024080200092009A5969DE
:104EE00080020143596180215A69C902024001923E
:104EF000019A5A6990200A435A615B69C0050B40C8
:104F00000293029BA02303A9039304950694FCF744
:104F10000DFF10230393002303A90648049505936E
:104F200006940793FCF702FF09B030BD0030014042
:104F3000001002400004004803681C4A84B09342F9
:104F40000BD180201A4A0001916901439161936954
:104F500003400093009B04B070478022D205934227
:104F600009D10120124AD1690143D161D3690340BB
:104F70000193019BEFE70F4A934209D102200C4AAB
:104F8000D1690143D161D36903400293029BE2E7F7
:104F9000094A9342DFD18020054A400291690143CA
:104FA0009161936903400393039BD4E7002C014074
:104FB00000100240000400400040014010B5040011
:104FC0008CB01422002107A800F087F92368424A18
:104FD000934216D18020414A8002516901435161B8
:104FE000536903400193019BC0239B000793022355
:104FF00008930B93902007A9C005FCF797FE0CB00F
:1050000010BD8022D205934224D18020334BC002B0
:10501000596902240143596180215A698902024079
:105020000292029A5A692E480A435A615B690894AF
:105030000B400393039B2B4B07A907930B94FCF79F
:1050400075FE80231B0207930023089409930A939B
:105050000B94CFE7244A934226D180201F4BC002F5
:10506000596902240143596180215A6909030240A8
:105070000492049A5A691A480A435A615B6908946F
:105080000B400593059B032307A90793023B0B9352
:10509000FCF74CFEC02307930023089409930A935E
:1050A0000B9307A91148A8E7114A9342A7D1802082
:1050B0000A4AC002516901435161536907A903407B
:1050C0000693069BC0231B02079302230893013B10
:1050D0000B93034891E7C046002C014000100240AA
:1050E00000040048080C00000004004000080048CC
:1050F0000040014010B5040088B01422002103A82C
:1051000000F0EBF8114B22689A421CD18020104B22
:10511000C00199690143996180219A69C9020240DD
:105120000192019A5A690B480A435A615B690B4024
:105130000293029BC0230393BE3B049303A9013354
:105140000693FCF7F3FD08B010BDC04600380140DF
:1051500000100240000400487047FEE770477047A7
:1051600010B5FCF71BF810BD10B50248FCF771FB39
:1051700010BDC046100200200A4B10B5196802008D
:10518000002901D1084919606946186882188A42C5
:1051900006D900F065F80C2303600120404210BDE1
:1051A0001A60FCE7D4000020140700200121114BF5
:1051B00011481A680A431A605A6802405A601A680D
:1051C0000E4802401A601A680D4802401A605A6878
:1051D0000C4802400F205A60DA6A8243DA621A6B86
:1051E000094802401A635A6B8A435A6300229A6044
:1051F0007047C046001002400CB8FF08FFFFF6FEE3
:10520000FFFFFBFFFFFFC0FF2CFEFCFF0D488546A4
:105210000D480E490E4A002302E0D458C45004330E
:10522000C4188C42F9D30B4A0B4C002301E01360E5
:105230000432A242FBD3FFF7B9FF00F017F8FEF7E4
:105240008FFCFEE700400020000000206C000020E2
:10525000285C00087000002014070020FEE7000012
:10526000014B18687047C0460800002070B5002642
:105270000C4D0D4C641BA410A64209D1002600F071
:1052800033FC0A4D0A4C641BA410A64205D170BD24
:10529000B300EB5898470136EEE7B300EB58984758
:1052A0000136F2E7205C0008205C0008205C000862
:1052B000245C000810B5034B0100186800F060F88A
:1052C00010BDC04608000020002310B59A4200D14E
:1052D00010BDCC5CC4540133F8E7030012189342AC
:1052E00000D1704719700133F9E7000070B505006F
:1052F000002910D00C1F2368002B00DAE4182800C6
:1053000000F0CEF81D4A1368002B05D163601460CD
:10531000280000F0C6F870BDA34209D921686018C2
:105320008342F3D118685B6841182160EEE71300EF
:105330005A68002A01D0A242F9D919685818A04227
:105340000BD120680918581819608242E0D1106802
:105350005268411819605A60DAE7A04202D90C235A
:105360002B60D5E721686018824203D1106852682B
:105370004118216062605C60CAE7C046D800002026
:10538000032370B5CD1C9D43083506000C2D1ED29D
:105390000C25A9421DD8300000F082F8254A146877
:1053A0002100002919D1244C2368002B03D130009F
:1053B00000F044F820602900300000F03FF8431C62
:1053C0002BD10C233000336000F06BF803E0002D8C
:1053D000DFDA0C233360002070BD0B685B1B19D42F
:1053E0000B2B03D90B60CC18256003E04B688C4273
:1053F0000DD11360300000F054F8200007220B306C
:10540000231D9043C31AE7D05A42E250E4E7636099
:105410000C00EFE70C004968C3E70323C41C9C435E
:10542000A042E1D0211A300000F008F8431CDBD183
:10543000C7E7C046D8000020DC000020002370B57C
:10544000064C050008002360FFF796FE431C03D1BD
:105450002368002B00D02B6070BDC04610070020D1
:105460000EB400B50B499CB01DAB0290069007919D
:1054700004910948094904CB0591006802A90193E8
:1054800000F072F80023029A13701CB008BC03B03D
:105490001847C046FFFFFF7F080000200802FFFFFB
:1054A00070477047F0B58E6885B007000C00039216
:1054B00001939E423CD890238A89DB001A4234D063
:1054C0000325096923685B1A0293636902985D43A7
:1054D000EB0F5D19019B6D1001331B18AB4200D916
:1054E0001D00530532D529003800FFF749FF061E7D
:1054F00009D10C233B6040230120A2894042134381
:10550000A38105B0F0BD029A2169FFF7DDFEA389F2
:10551000144A1A4080231343A381029B2661F61884
:1055200026606561019EED1AA560019B9E4200D92F
:10553000019E32000399206800F095FAA3680020CC
:105540009B1BA36023689E192660DAE72A003800B7
:1055500000F09CFA061EE0D121693800FFF7C6FE74
:10556000C7E7C0467FFBFFFFF0B5A1B003901D0069
:105570008B890F0016001B0611D50B69002B0ED16D
:105580004021FFF7FDFE38603861002805D10C236B
:10559000039A0138136021B0F0BD40237B610023E2
:1055A00008AC6361203363761033A376079535002A
:1055B0002B78002B01D0252B46D1AB1B05930CD0AB
:1055C000320039000398FFF76DFF431C00D1AEE0B5
:1055D0006269059B9446634463612B78002B00D17C
:1055E000A5E0012200235242626004A954325218FD
:1055F0006E1C2360E360A3601370A36531780522FD
:10560000534800F025FA751C00281FD12268D306E4
:1056100004D5532304A95B1820211970130704D55E
:10562000532304A95B182B21197033782A2B16D029
:10563000350000210A20E3682A786E1C303A092AD6
:105640004ED9002918D010E00135B1E7404B22684F
:10565000C01A01238340134323602E00CEE7079B2B
:10566000191D1B680791002B01DB0B9304E05B42C3
:10567000E3600223134323602B782E2B0AD16B782F
:105680002A2B35D1079B02351A1D1B680792002B68
:105690002BDB09932F4E29780322300000F0D8F934
:1056A000002806D04023801B834022680135134325
:1056B00023602978062228486E1C217600F0C8F95C
:1056C00000283CD0254B002B25D10722079B073310
:1056D0009343083307936369049A9B18636166E7F1
:1056E000434301219B183500A6E701235B42D0E725
:1056F00000230A201A000135636029786E1C3039B6
:10570000092903D9002BC5D00992C3E742430123DD
:1057100052183500F1E707AB00933A00104B210017
:10572000039800E000BF0490049B0133D3D1BB89F0
:105730000D985B0600D42EE7012040422BE707AB13
:1057400000933A00064B2100039800F079F8EAE74D
:10575000EC5B0008F25B0008F65B0008000000004C
:10576000A5540008F7B5150001938A680B690090ED
:105770000C00934200DA130022002B6043321278AF
:10578000002A01D001332B6023689B0602D52B68C9
:1057900002332B60062723681F4027D023004333A2
:1057A0001B785A1E93412268920630D42200019938
:1057B00043320098089EB047431C25D0062320683A
:1057C0002A68E16803400025042B03D18D1AEB43BE
:1057D000DB171D40A3682269934201DD9B1AED1877
:1057E0000027BD4220D1002010E00137E3682A687D
:1057F0009B1ABB42D2DD2200012319320199009885
:10580000089EB047431CF0D101204042FEBD30202D
:10581000E1184331087021005A1C45310978A2185B
:10582000433202331170C1E7220001231A32019979
:105830000098089EB047431CE6D00137D1E700002E
:10584000F0B589B004920A004332059303900292A6
:105850000A7E0C000E9B6E2A00D186E01FD8632AB8
:1058600033D008D8002A00D18CE0582A4DD025002A
:1058700042352A7030E0642A01D0692AF7D11968CC
:1058800025680A1D280629D508681A60002803DA49
:105890002D23029A404213706B4E0A274FE0732A61
:1058A00074D008D86F2A1FD0702AE0D1202209684E
:1058B0000A43226003E0752A16D0782AD7D1220045
:1058C000782145321170614E22E025001A68423578
:1058D000111D196013682B70012365E008681A60B8
:1058E0006906D3D500B2D1E719682568081D18608C
:1058F00008682E0605D5544E08276F2A1BD00A27A4
:1059000019E06D06F7D580B2F5E745314E4E0A70C5
:1059100018682268011D00681960150621D5D30793
:1059200002D520231A4322601027002803D1202308
:1059300022689A4322602300002243331A7063686E
:10594000A360002B58DB04222168914321600028CA
:1059500054D1029D002B5AD02500337842352B704C
:1059600055E05506DBD580B2D9E71A680D68101DE1
:105970004969186013682E0601D5196002E06D06AA
:10598000FBD519800023029D23614FE01A68111D89
:105990001960156800216268280000F059F8002895
:1059A00001D0401B6060636823610023029A13707A
:1059B0003CE023692A0004990398059DA847431CED
:1059C0003ED023689B0715D4079BE068984239DADC
:1059D000180037E022000123193204990398059E2C
:1059E000B047431C2CD00135E368079A9B1AAB42A1
:1059F000F0DCE9E70025F7E70028ADD0029D39008B
:105A0000FAF71CFC735C013D2B700028F7D1082FBE
:105A100009D12368DB0706D563682269934202DC5B
:105A20003023013D2B70029B5B1B2361059B07AA62
:105A300000932100049B0398FFF794FE431CB8D108
:105A40000120404209B0F0BDFD5B00080E5C00087B
:105A5000C9B28218904201D10020704703788B426E
:105A6000FBD00130F6E710B5884202D98B18984276
:105A700003D3002307E08B5C8354013AFBD210BDB3
:105A8000CC5CC45401339A42FAD1F8E7F8B5070068
:105A90000D001600002905D11100FFF771FC04006C
:105AA0002000F8BD002A03D1FFF720FC3400F7E7FF
:105AB00000F012F82C00B042F2D231003800FFF7AB
:105AC0005FFC041EECD029003200FFF7FDFB29002B
:105AD0003800FFF70BFCE3E70B1F1B68181F002BB8
