:020000040800F2
:10000000FF17002039640008656300086F6300086B
:1000100000000000000000000000000000000000E0
:1000200000000000000000000000000075630008F0
:1000300000000000000000007F63000889630008E2
:10004000B9640008B9640008B9640008B96400081C
:10005000B9640008B9640008B9640008B96400080C
:10006000B9640008B9640008B9640008B9640008FC
:10007000B9640008B9640008B9640008B9640008EC
:10008000B96400080000000000000000B964000826
:1000900000000000B9640008B9640008B9640008F1
:1000A00000000000B9640008B9640008B9640008E1
:1000B000B96400080000000099630008B9640008F2
:1000C00010B5064C2378002B07D1054B002B02D02E
:1000D000044800E000BF0123237010BD1000002081
:1000E00000000000C4650008044B10B5002B03D0CD
:1000F0000349044800E000BF10BDC04600000000F6
:1001000014000020C4650008002243088B4274D309
:1001100003098B425FD3030A8B4244D3030B8B4208
:1001200028D3030C8B420DD3FF22090212BA030C11
:100130008B4202D31212090265D0030B8B4219D3F2
:1001400000E0090AC30B8B4201D3CB03C01A524112
:10015000830B8B4201D38B03C01A5241430B8B425A
:1001600001D34B03C01A5241030B8B4201D30B0343
:10017000C01A5241C30A8B4201D3CB02C01A52416A
:10018000830A8B4201D38B02C01A5241430A8B422D
:1001900001D34B02C01A5241030A8B4201D30B0216
:1001A000C01A5241CDD2C3098B4201D3CB01C01A30
:1001B000524183098B4201D38B01C01A524143093A
:1001C0008B4201D34B01C01A524103098B4201D328
:1001D0000B01C01A5241C3088B4201D3CB00C01A95
:1001E000524183088B4201D38B00C01A524143080D
:1001F0008B4201D34B00C01A5241411A00D2014632
:10020000524110467047FFE701B5002000F006F8A4
:1002100002BDC0460029F7D076E770477047C04658
:100220008446081C6146FFE71FB500F06DFB0028FF
:1002300001D40021C8421FBD10B500F0EFFA4042C2
:10024000013010BD10B500F05FFB002801DB00207D
:1002500010BD012010BDC04610B500F055FB0028B0
:1002600001DD002010BD012010BDC04610B500F01A
:10027000FDFA002801DC002010BD012010BDC046A1
:1002800010B500F0F3FA002801DA002010BD0120BB
:1002900010BDC0469E2110B5C905041CFFF7F0FF34
:1002A000002803D1201C00F075FE10BD9E21201CEB
:1002B000C90500F0ABFC00F06DFE80231B069C46D8
:1002C0006044F2E7F8B54746CE4643025B0A440075
:1002D000C20F9C464800DD004B02240E5B0A000E54
:1002E00080B5984626009146C90FDB00271A8A423E
:1002F00029D0002F15DD00284AD1002B00D095E031
:10030000ED08FF2C00D188E06B025B0AE6B25B02CD
:10031000F605580A3043D20710430CBC9046994664
:10032000F8BD002F00D087E0601CC0B2012800DCBF
:10033000B6E0EE1A720100D5C5E0002E3DD10022D4
:1003400000260023E3E7002F00DC96E000285DD0C4
:10035000FF2C60D08022D20413431B2F00DDECE081
:100360002022D21B18009340F8405A1E93410343A9
:10037000ED186B017BD50134FF2C00D1B7E00122D1
:1003800007262A406B089A4D1D4015432E4029E050
:10039000FF2CB5D08022D20413431B2F00DDB2E026
:1003A0002022D21B19009340F9405A1E93410B435F
:1003B000ED1A6B015BD5AD01AE09300001F0CAF951
:1003C00005388640844265DC041B3300202001345C
:1003D000E340041BA640751EAE41334307261D00B3
:1003E00000241E4001224B461A40002E04D00F2349
:1003F0002B40042B00D004356B0100D480E701347E
:10040000E6B2FF2C2FD1FF26002380E7002B52D12C
:10041000FF2C00D074E70A00ED08002DF3D08023F4
:10042000DB032B435B025B0AFF2670E7013F002FD3
:10043000BED0FF2CB1D163E7002C47D0FF2869D094
:100440008024E4047A4225431B2A00DDC5E02C0009
:100450002026D440B21A95406A1E954125435D1B63
:1004600004008946A5E7AB015B0A50E7002401229E
:100470004B461A406B07BAD142E7002F3BD10134FB
:10048000E0B201284ADDFF2CBDD00726ED186D082B
:100490002E40A7E70723574D241A35401E40A1E7F9
:1004A000002C1BD1002D6ED1002B00D19AE00A0048
:1004B0001D003C0024E7013F002F00D158E7FF2C2E
:1004C00000D04AE7A7E75E1B894676E7002D1CD1DE
:1004D0000A00FF281FD004001D0011E7002D5DD188
:1004E000002B17D180230022DB03FF260FE70A0031
:1004F000FF2600230BE7002C21D1002D66D1FF2819
:10050000E9D11D0087E7012352E77A1CA7D0FA43FF
:10051000FF2899D10A001D00FF24F1E6002E21D109
:10052000002D4FD0002B4CD0ED186B019ED5314BD8
:1005300007362E4001241D4054E7012318E7FF2809
:10054000DFD08024E4047F4225431B2F4DDC20268E
:10055000F61B2C00B540FC406A1E95412543ED1862
:10056000040006E7002DCCD0002B00D153E78021FA
:100570006046C903084203D04046084200D11D002E
:100580000121114047E7002B00D1B9E6EA1A5001DA
:1005900025D507265D1B2E40894623E7FF24002B27
:1005A00000D1ADE680226046D203104204D040461E
:1005B000104201D11D00894601224B46FF241A40FA
:1005C0009EE62B00DD080A0000249DE67A1CC6D0BA
:1005D000FF43FF28B9D11D001DE701253FE7151E88
:1005E00000D044E70022002391E60125B7E7C0468A
:1005F000FFFFFF7DFFFFFFFBF8B557464E46454620
:10060000DE464402E0B546008846640A360EC70F4F
:10061000002E63D0FF2E24D08023E400DB041C4393
:10062000002399469B467F3E434642465D02D20FD9
:100630005B006D0A1B0E9046924665D0FF2B55D08D
:1006400080220021ED00D2047F3B1543F61A434679
:100650004A467B400F2A00D98DE06D4892008258AF
:100660009746002C54D108239946063BFF269B460B
:10067000DAE70025534602291BD0032900D1BFE049
:10068000012928D030007F30002820DD6A0704D0FF
:100690000F222A40042A00D004352A0103D5300055
:1006A0005C4A80301540FE2803DCAC01640AC2B20B
:1006B00001E0FF2200246402D205600ADB07104338
:1006C00018433CBC90469946A246AB46F8BD012271
:1006D000101A1B287CDD00220024ECE7002C1DD121
:1006E00004239946033B00269B469DE7FF3E002DD1
:1006F00020D1022143464A467B400A430F2AD8D8DC
:100700004548920082589746002D19D10121F1E702
:100710000C239946093BFF269B4685E7200001F004
:1007200019F87626431F9C4000237642361A9946D4
:100730009B4679E74A4603231A439146032186E7FD
:10074000280001F007F8431F36189D407636002137
:100750007DE780240023E403FF22ACE7002580230B
:10076000DB031C4228D01D4226D12B435C02640AC5
:100770004346FF229FE762016C01A24224D21B2163
:100780000025013E012710006D005200002801DB0A
:10079000944201D8121B3D4301390029F3D11400C2
:1007A000621E944125436DE7BA46594625005346DB
:1007B000022900D061E77CE78023DB031C4364024D
:1007C000640A3B00FF2276E7121B1A210125D9E7B4
:1007D0009E362A00B5402C00C240651EAC41144331
:1007E000620704D00F222240042A00D004346201A0
:1007F00003D4A401640A00225DE7012200245AE721
:100800008024E4032C436402640AFF2253E7C046B9
:1008100010660008FFFFFFF75066000870B5420041
:100820004E024C0045026D0A120EC30F760A240ECA
:10083000C90FFF2A0FD0FF2C11D00120A24200D0F7
:1008400070BDB542FCD18B420DD0002AF8D12800F2
:10085000451EA841F4E70120002DF1D1EBE701206E
:10086000002EEDD1E9E70020EAE7C04670B54A0066
:100870004E02450244006D0A240EC30F760A120E82
:10088000C90FFF2C15D0FF2A0ED0002C15D1002A3D
:1008900001D1002E1CD0002D14D08B4227D0022075
:1008A000013B1840013870BD002EEED002204042BE
:1008B000F9E7002DFAD1FF2A0ED0002A0ED1002E22
:1008C000EDD00BE001230139994308000130EAE73C
:1008D0000020002DE7D0E2E7002EE7D18B42DED1E9
:1008E000944205DD0221581E08400138DBE7002450
:1008F000A24204DCB542D2D80020B542D3D2581E61
:10090000012398430130CEE730B5420044024D0246
:10091000C30F4800640A120E6D0A000EC90FFF2AA9
:1009200012D0FF280CD0002A12D1002819D1002D96
:1009300017D1002C2BD00220013B1840013826E0B3
:10094000002DF0D0022022E0002CFBD1FF281FD088
:1009500000281FD1002D1DD10220013B1840013875
:1009600015E0002C0ED08B42E5D10022904204DC31
:10097000AC42E0D80020AC4209D2581E0123984373
:10098000013004E00123013999430800013030BDF2
:10099000002DD7D18B42CED18242E7DD0221581EF5
:1009A00008400138F3E7C046F0B54E465746454685
:1009B000DE46E0B543025B0A450083B00F1C994652
:1009C0002D0EC60F002D57D0FF2D24D08020DB0028
:1009D000C0041843002381469A469B467F3D7C0213
:1009E0007A00FB0F640A120E984623D0FF2A4BD0E0
:1009F000E30080240020E4047F3A1C43AD186B1C04
:100A000047460193534677403A000F2B48D87D491B
:100A10009B00CB589F46002B00D085E008339A46B8
:100A2000063B9B467C027A00FB0FFF25640A120EF0
:100A30009846DBD1002C00D090E0524601231A43A7
:100A400092460120DBE74C4658461700022824D086
:100A5000032800D1CFE00022002301284DD1580205
:100A6000D205400AFF071043384303B03CBC904610
:100A70009946A246AB46F0BD002B5BD104239A46B3
:100A8000033B00259B46AAE7FF35002C60D1524668
:100A900002231A4392460220B1E7FF220023DEE739
:100AA0004B461B0C9C464B462604360C18046146EC
:100AB0003300220C6446000C43434E4350435443DE
:100AC00080191A0C1218964203D9802149028C46CB
:100AD00064441B041B0C1004C01883015E1EB34148
:100AE000800E1843130C1B199B0103431C002301A8
:100AF00079D5012362081C401443019A7F32002AF1
:100B00004DDD630704D00F232340042B00D00434B1
:100B1000230103D53C4B019A1C408032FE2ABCDCE9
:100B2000A3015B0AD2B29AE70C239A46093BFF2540
:100B30009B4654E7180000F00DFE4A46431F7625F9
:100B40009A4000236D4291462D1A9A469B4646E7ED
:100B5000524603231A439246032050E7200000F038
:100B6000F9FD431F2D1A9C40763D002047E7802366
:100B70000027DB03FF2272E7424666E74C4632005D
:100B8000584662E780234A46DB031A4222D01C42C1
:100B900020D123435B025B0A4746FF225FE7012324
:100BA0009A1A1B2A21DC23000199D3409E318C40E4
:100BB0001A0023005C1EA34113435A0704D00F22DE
:100BC0001A40042A00D004335A0111D49B015B0A55
:100BD000002244E780234A46DB0313435B025B0A9F
:100BE0003700FF223BE7019587E70022002336E725
:100BF0000122002333E78023DB0323435B025B0AEC
:100C0000FF222CE790660008FFFFFFF7F8B5474684
:100C1000CE464400C20F80B547024802400A8446CF
:100C2000664648007F0A240EF60025009046FB0029
:100C3000000EC90FB146FF2800D185E001267140A2
:100C4000261A914257D0002E43DD002800D07FE0C5
:100C50004946002900D1AAE0013E002E00D0F7E06D
:100C60005B1A5A0100D48BE09B019C09200000F024
:100C700071FD05388440854200DDD3E0451B23002B
:100C800020200135EB40451BAC40621E94412343BC
:100C9000072400251C40012241460A40002C04D0B4
:100CA0000F211940042900D00433590100D480E0F9
:100CB0000135ECB2FF2D00D0A3E0FF2400235B023E
:100CC000E405580AD207204310430CBC90469946CD
:100CD000F8BD002E74D1601CC0B2012800DCA7E072
:100CE0004A469C1A620100D5B6E0002CBED1002213
:100CF00000240023E3E7002E00DC85E0002846D036
:100D0000FF2C49D080224846D2041043814601225C
:100D10001B2E09DC20204C46801B84404A462000C4
:100D2000F240441EA04102439B185A0128D50135C8
:100D3000FF2D00D1A8E00122072494491A405B0846
:100D40000B4013431C40A6E7002E00D078E775E760
:100D5000FF2C54D080224946D204114389460122F7
:100D60001B2E09DC20214846891B88404A46010089
:100D7000F240481E81410A439B1A5A0100D573E78D
:100D8000012241460A40590700D089E711E0484650
:100D9000002858D1FF2C0CD1DB08002B00D18CE7A8
:100DA0008020C00303435B025B0AFF2487E7FF2C1C
:100DB00025D0DB08FF2DF0D05B025B0AECB27EE7AA
:100DC000002C4DD0FF2818D08024E4047242234325
:100DD0001B2A00DDC4E01C002025D440AA1A934041
:100DE0005A1E934123434A460500D31A884638E7E2
:100DF000721CF8D0F243FF28EAD10A004B46FF25C7
:100E0000D7E79B015B0A5AE7002E41D1651CE9B286
:100E1000012945DDFF2D00D14FE707244B445B0836
:100E20001C4038E707225A4B2D1A2340144032E762
:100E3000002C1DD1002B7AD14B46002B00D191E024
:100E40000A000025B5E7013E002E19D14B446CE79E
:100E5000FF2C84D1FF25ACE74A468846D41A05E723
:100E6000002BC5D10A00FF28C8D005004B46A0E7DB
:100E7000002B49D14B46002B77D00A00FF2598E77D
:100E8000FF2C00D043E787E70A00FF24002316E782
:100E9000002C15D1002B57D1FF28E6D14B467BE71C
:100EA000002C20D1002B57D04946002953D04B4469
:100EB0005A0168D50724364A1C4001251340EAE64A
:100EC000FF28EBD08022D204764213431B2E53DC42
:100ED0002025AD1B1A00AB40F2405C1EA34113431A
:100EE0004B44050021E7002BD8D04946002900D10A
:100EF00052E78021C9030F4200D14DE76046084206
:100F000000D049E74B4647E74846FF25002800D177
:100F10004FE78022D203174204D06046104201D12D
:100F20004B46884601224146FF250A4041E7484694
:100F300000281FD01A1A500120D54A460724D31A78
:100F40001C4088460025A6E6741CC9D0F643FF283D
:100F5000BCD14B4620E799464B460025DB082BE7E2
:100F6000012340E700220023A9E680230022DB03BF
:100F7000FF24A4E600251CE70123B1E7002AF1D0F5
:100F800013000025FCE60025FAE6C046FFFFFF7DC2
:100F9000FFFFFFFB41024200C30F490A120E00206F
:100FA0007E2A0DD99D2A0CD8802000040143952A61
:100FB0000ADC9620821AD1404842002B00D108005A
:100FC0007047034A9818FBE7963A9140F4E7C04609
:100FD000FFFFFF7FF0B55746DE464E464546E0B57B
:100FE000834607000E03480085B092461C00360B6E
:100FF000400DCD0F002800D19DE0954B984239D08F
:101000008023F6001B041E43924A7B0F334399460C
:10101000944603006344009300230026FF000293DC
:1010200023031B0B98466300E40F52465B0D0194AB
:1010300000D1B3E086498B4200D19EE04246D10008
:10104000802212040A435146490F11438B468149BD
:1010500052468C4600996344CB1A0021D20000937B
:101060002B0063409A460F2E00D905E17A4BB6005B
:101070009B599F465B463343994600D0B8E0022314
:101080000826002700900293CAE7CB463A0002994F
:101090000195019B9A46022927D0032900D180E2BD
:1010A000012944D06D49009B8C4663441C00002CF0
:1010B00038DD530700D013E2D2085B46DB0109D5C7
:1010C0005946674B19408B468021C9008C46009BCE
:1010D00063441C00634B9C4207DC5B4664055F076E
:1010E0005B0217431B0B620D02E000230027584AE6
:1010F00000211B031C0B0B0D1B05234314055A4A2F
:10110000380013401C4353466400DB0764081C434B
:10111000210005B03CBC90469946A246AB46F0BDC6
:101120000122524201231B1B382B00DCADE10022BF
:1011300000230027DCE75B46334399465ED0002E50
:1011400000D18AE1300000F005FB03000B3B1C2BB3
:1011500000DD7BE11D22D31A5A460100DA4008392E
:101160008E4013005F46334399468F403F4B002625
:101170001B1A00930023029352E7414653460B4348
:101180003B499B468C46009B634400935B46002B87
:101190003BD1022300221E43022161E74346134351
:1011A0009B4637D04346002B00D162E1404600F019
:1011B000D1FA03000B3B1C2B00DD53E1020041463A
:1011C000083A914088461D21CB1A5146D9400B0060
:1011D00041460B439B46534693401A00009B2549CA
:1011E0009C46604403008C4663440093002137E72B
:1011F0000323B14600900C26029311E700230093CD
:1012000001330426002702930AE70323C3461E4343
:10121000032125E701331E430022012120E700239B
:101220009A46802300271B03094A61E78023494629
:101230001B03194200D1E2E05946194200D0DEE01A
:101240000B431B0317001B0BA246014A50E7C04685
:10125000FF07000001FCFFFFD0660008FF0300004D
:10126000FFFFFFFEFE070000FFFF0F800DFCFFFFEA
:1012700001F8FFFFF3030000D94500D9CBE000D10E
:10128000C6E03C0048460027009B013B00935B46BC
:10129000160E1B021E431302984633041B0C99467C
:1012A000310C0191FEF7B6FF4A4642430B04210C74
:1012B000050019438A4207D98919013D8E4203D896
:1012C0008A4201D9851E8919881A0199FEF7A2FF61
:1012D00009048C464A46210464464243090C030033
:1012E00021438A4204D98919013B8E4200D8F1E09A
:1012F0002D041D43AB464346891A4246280C12046E
:101300001D0C5B46140C22001B041B0C5A43039457
:101310006B434443029568431B19150CEB189C4220
:1013200003D980246402A44660441C0C15041B04E9
:101330002D0C20185D19814277D373D00C1AA24A64
:101340007D1BAF42BF419446009B7F426344E01B3C
:101350001C00864200D1DBE00199FEF75BFF4A46A4
:1013600042430B04290C070019438A4207D9891903
:10137000013F8E4203D88A4201D9871E8919881AF3
:101380000199FEF747FF09044A46894629044D465C
:101390004243090C030029438A4207D98919013BBA
:1013A0008E4203D88A4201D9831E89193F04891AC3
:1013B0003A00039F1A43380013041B0C584381461C
:1013C0000298150C6F43434345434846000C84463E
:1013D000DB1963449F4203D9802040028446654460
:1013E00048461F0C00041B04000C7D191818A94264
:1013F00000D284E000D17FE001231A4357E6802326
:101400004A461B0313431B031B0BAA466F4A6FE696
:10141000BA4200D935E74B46DC0758087B081C4325
:10142000FF0734E70024AF4289D247444745A4412F
:101430005B466442A4196418013BA6421ED2A04236
:101440006DD800D1B6E0241A9B4678E703005A46CF
:10145000283B9A400027914688E6584600F07AF9E2
:10146000203072E603005246283B9A409346002201
:10147000B4E6504600F06EF920309AE6A642E2D17A
:10148000B845DCD9341A9B4659E71F2B65DC504C14
:101490000099A4465C46614408008C4011008240DB
:1014A000D940501E82410C4314435A46DA4013007F
:1014B000620709D00F222240042A05D02200141D01
:1014C0009442894149425B181A0262D501220023E5
:1014D00000270DE68A4200D80AE7831E891907E72C
:1014E0000F231340042B00D1E6E5171D97429241CC
:1014F00053429B44FA08E0E5002800D1D7E5711873
:10150000531EB14227D3A94215D358D01A0073E70E
:10151000002B00DC04E6012300229B44CDE50223DE
:101520004744474589415B429C46494289190C1909
:10153000E344241A03E743465F0047459B41B8460E
:101540005B429E19023A8919A94200D054E74045EE
:1015500000D051E7ABE51A00F6E71F215F4649428C
:101560000C1BE740202B07D01A49009B8C46634494
:1015700018005B4683401A43501E82413A430727B6
:101580000023174009D00F21002311401400042923
:1015900095D122005F075B021B0BD2081743002284
:1015A000A6E5802359461B030B431B0317001B0BA7
:1015B000064A9DE5BD42B2D89B460024BFE6804561
:1015C000B9D31A00C3E7C046FF030000FF070000BD
:1015D0001E0400003E04000070B500282DD0C31783
:1015E000C5185D40C40F280000F0B4F8154B1B1A55
:1015F0005B055B0D0A2815DD0B38854000222D03A5
:101600002D0B002110002D030A0D2D0B12052A436E
:101610000D4D1B052A4013435B00E4075B08234381
:10162000190070BD02002900153291400A000B21FB
:10163000081AC5402D032D0BE3E7002400230025E5
:101640000022DEE71E040000FFFF0F80F0B54C0013
:10165000640D0B03621C5B0A460F5205C90F1E4343
:10166000C500520D012A29DD374BE718FE2F1CDC7F
:10167000002F3BDD8001431E98410722F3006D0FD0
:1016800003432B431A40002A04D00F221A40042A95
:1016900000D004338022D2041A4024D00137FAB299
:1016A000FF2F02D09B01580A01E0FF2200204002D8
:1016B000D205400AC90710430843F0BD3543002C4A
:1016C00004D1002D0AD100220020F0E7002DECD03B
:1016D0008020C0033043FF22E9E7002400235B029F
:1016E000580AE2B2E3E7DB083C00F8E73B001733B7
:1016F000F3DB80231B0433431E26F61B1F2E14DD51
:1017000002225242D71B1A00FA401700202E04D0A2
:101710000E4A94466444A3401D432B005D1EAB411A
:1017200007223B431A400027ADE7094A2800A218C8
:10173000954093406C1EA541F04007222B43034384
:101740001A4000279FE7C04680FCFFFFA2FCFFFF76
:1017500082FCFFFF1C2101231B04984201D3000CD3
:1017600010391B0A984201D3000A08391B09984214
:1017700001D30009043902A2105C40187047C0462A
:10178000040302020101010100000000000000004A
:1017900080B500AF074B1A68064B10210A431A6048
:1017A000002000F009F804F08BFC00231800BD466F
:1017B00080BDC0460020024090B583B000AF786085
:1017C000144B1C68144B1B781900FA239800FEF781
:1017D0009BFC030019002000FEF796FC0300180094
:1017E00000F08BFF031E01D001230FE07B68032B69
:1017F0000BD8796801235B420022180000F054FFE7
:10180000064B7A681A60002300E001231800BD46E9
:1018100003B090BD0800002004000020000000205C
:1018200080B500AF054B1B781A00054B1B68D2181A
:10183000034B1A60C046BD4680BDC0460400002070
:101840006800002080B500AF024B1B681800BD4641
:1018500080BDC0466800002080B584B000AF7860CD
:101860007B68002B01D10123F0E07B6820229B5C88
:10187000DBB2002B03D17B68180004F04DFC7B68C1
:101880001B681A687B681B6802218A431A60FFF78D
:10189000D9FF0300FB6013E0FFF7D4FF0200FB68F1
:1018A000D31A0A2B0CD97B685B6A802292021A43F6
:1018B0007B685A627B682022052199540123C5E088
:1018C0007B681B685B6802221340E5D17B681B685C
:1018D0001A687B681B6801210A431A60FFF7B2FF90
:1018E0000300FB6013E0FFF7ADFF0200FB68D31AB3
:1018F0000A2B0CD97B685B6A802292021A437B68B0
:101900005A627B6820220521995401239EE07B685E
:101910001B685B6801221340E5D07B681B7E012BAE
:1019200008D17B681B681A687B681B6880210A43A2
:101930001A6007E07B681B681A687B681B68802157
:101940008A431A607B685B7E012B08D17B681B6829
:101950001A687B681B6840210A431A6007E07B68AD
:101960001B681A687B681B6840218A431A607B6881
:101970009B7E012B08D17B681B681A687B681B68FB
:1019800020210A431A6007E07B681B681A687B689D
:101990001B6820218A431A607B68DB7E012B08D1FB
:1019A0007B681B681A687B681B6810218A431A6071
:1019B00007E07B681B681A687B681B6810210A4374
:1019C0001A607B681B7F012B08D17B681B681A6833
:1019D0007B681B6808210A431A6007E07B681B6864
:1019E0001A687B681B6808218A431A607B685B7FE2
:1019F000012B08D17B681B681A687B681B6804216F
:101A00000A431A6007E07B681B681A687B681B68DA
:101A100004218A431A607B689A687B68DB681A43F2
:101A20007B681B691A437B685B691A4311007B68FA
:101A30005B685A1E7B681B680A43DA617B68002278
:101A40005A627B6820220121995400231800BD4668
:101A500004B080BD80B586B000AF786039607B6827
:101A60001B687B6113203B187A682021525C1A7036
:101A70003B181B78012B05D01323FB181B78022B76
:101A800000D0CDE07A6980239B00D35801221A430D
:101A900011007A6980239B00D1503B685B691F224B
:101AA000134001229A401300FB607A6987239B0050
:101AB000D358FA68D2431A4011007A6987239B00F1
:101AC000D1503B68DB69002B29D17A6983239B00C5
:101AD000D358FA68D2431A4011007A6983239B00D5
:101AE000D1503B68DB6818043B685B681B04190C29
:101AF0003B685A6901437B694832D200D1503B6848
:101B00009B6819043B681B681B041A0C3B685B69E3
:101B10000A4379694833DB00CB1804331A603B6809
:101B2000DB69012B28D17A6983239B00D258FB689B
:101B30001A4311007A6983239B00D1503B681B68CC
:101B400018043B685B681B04190C3B685A69014325
:101B50007B694832D200D1503B689B6819043B68CE
:101B6000DB681B041A0C3B685B690A4379694833DC
:101B7000DB00CB1804331A603B689B69002B0CD147
:101B80007A6981239B00D358FA68D2431A40110026
:101B90007A6981239B00D1500AE07A6981239B00F6
:101BA000D258FB681A4311007A6981239B00D150F7
:101BB0003B681B69002B0CD17A6985239B00D358A5
:101BC000FA68D2431A4011007A6985239B00D150EC
:101BD0000AE07A6985239B00D258FB681A431100FA
:101BE0007A6985239B00D1503B681B6A012B0AD17F
:101BF0007A6987239B00D258FB681A4311007A69DF
:101C000087239B00D1507A6980239B00D3580122FF
:101C1000934319007A6980239B00D150002307E089
:101C20007B685B6A8022D2021A437B685A62012376
:101C30001800BD4606B080BD80B584B000AF7860A6
:101C40007B6820229B5CDBB2012B2FD17B6820229A
:101C5000022199547B681B681A687B681B68012104
:101C60008A431A60FFF7EEFD0300FB6013E0FFF705
:101C7000E9FD0200FB68D31A0A2B0CD97B685B6A6A
:101C8000802292021A437B685A627B6820220521D7
:101C90009954012312E07B681B685B6801221340A2
:101CA000E5D17B6800225A62002307E07B685B6A0B
:101CB000802212031A437B685A6201231800BD4632
:101CC00004B080BD80B588B000AFF860B9607A60BC
:101CD0003B601F203B18FA682021525C1A70FB6899
:101CE0001B689B68BB613B181B78012B05D01F2329
:101CF000FB181B78022B00D0B7E0BA698023DB0405
:101D000013400AD1BA6980231B05134005D1BA6973
:101D100080235B05134000D19EE0BB691B0E0322AC
:101D200013407B617B69022B08D9FB685B6A8022C8
:101D300012041A43FB685A6201239EE001227B6968
:101D40009A403B681A60BB689B68002B0CD1BB684B
:101D50001B685905BB68DA68FB681B6811437A6920
:101D600018321201D1500FE0BB685B68DA00BB6823
:101D70009B681A431100BB68DA68FB681B68114353
:101D80007A6918321201D150FB681968BB681A6968
:101D90007B6918331B01CB1804331A60BB681B7DA9
:101DA000012B12D1FB681A687B6918331B01D31809
:101DB00004331A68FB68196880235B001A437B6947
:101DC00018331B01CB1804331A607B6807331B7868
:101DD0001A067B6806331B781B041A437B6805339D
:101DE0001B781B021A437B6804331B781900FB68BD
:101DF00018680A437969C6235B0009014118CB18AA
:101E00001A607B6803331B781A067B6802331B78E1
:101E10001B041A437B6801331B781B021A437B683F
:101E20001B781900FB6818680A437969C4235B00B2
:101E300009014118CB181A60FB681B687A691832CF
:101E40001201D258FB681B68012111437A691832CC
:101E50001201D150002310E0FB685B6A80229203DC
:101E60001A43FB685A62012307E0FB685B6A802221
:101E7000D2021A43FB685A6201231800BD4608B01B
:101E800080BD80B586B000AFF860B9607A603B6015
:101E900017203B18FA682021525C1A703B181B78F7
:101EA000012B05D01723FB181B78022B00D0F8E07C
:101EB000BB68002B0ED1FB681B68DB680322134054
:101EC00017D1FB685B6A802292031A43FB685A624F
:101ED0000123EEE0FB681B681B690322134008D155
:101EE000FB685B6A802292031A43FB685A620123F3
:101EF000DFE0FB681B68BA681B321201D35804226A
:101F00001A407B689A607B689B68002B0BD1FB684A
:101F10001B68BA681B321201D3585B0D5B055A0D62
:101F20007B681A600AE0FB681B68BA681B32120102
:101F3000D358DB08DB00DA087B685A60FB681B6853
:101F4000BA681B321201D35802221A407B68DA6049
:101F5000FB681A68BB681B331B01D31804331B686A
:101F60000F221A407B681A61FB681A68BB681B3332
:101F70001B01D31804331B681B0AFF221A407B681D
:101F80009A61FB681A68BB681B331B01D3180433C2
:101F90001B681B0C1B041A0C7B685A61FB681968D0
:101FA000BA68DC235B0012018A18D3181B68DAB206
:101FB0003B681A70FB681968BA68DC235B00120181
:101FC0008A18D3181B681A0A3B680133D2B21A70F8
:101FD000FB681968BA68DC235B0012018A18D31801
:101FE0001B681A0C3B680233D2B21A70FB6819687E
:101FF000BA68DC235B0012018A18D3181B681A0E1A
:102000003B680333D2B21A70FB681968BA68DE23E2
:102010005B0012018A18D3181A683B680433D2B2E5
:102020001A70FB681968BA68DE235B0012018A180F
:10203000D3181B681A0A3B680533D2B21A70FB68C2
:102040001968BA68DE235B0012018A18D3181B686E
:102050001A0C3B680633D2B21A70FB681968BA686A
:10206000DE235B0012018A18D3181B681A0E3B6826
:102070000733D2B21A70BB68002B08D1FB681B680B
:10208000DA68FB681B6820210A43DA6007E0FB6816
:102090001B681A69FB681B6820210A431A61002328
:1020A00007E0FB685B6A8022D2021A43FB685A622F
:1020B00001231800BD4606B080BD80B584B000AFD6
:1020C000786039600F203B187A682021525C1A70C2
:1020D0003B181B78012B04D00F23FB181B78022B15
:1020E00009D17B681B6859697B681B683A680A4399
:1020F0005A61002307E07B685B6A8022D2021A43A0
:102100007B685A6201231800BD4604B080BD80B5CB
:102110008AB000AF786000237B627B681B685B69D4
:102120003B627B681B685B68FB617B681B689B6824
:10213000BB617B681B68DB687B617B681B681B6914
:102140003B617B681B689B69FB603B6A0122134013
:1021500000D184E0BB690122134024D07B681B6856
:1021600001229A60BB690222134004D07B681800E8
:1021700000F07EF917E0BB690422134005D07B6AAA
:102180008022120113437B620DE0BB6908221340D9
:1021900005D07B6A8022520113437B6203E07B6897
:1021A000180000F07DF9BA6980235B00134028D045
:1021B0007B681B68802252009A60BA6980239B006A
:1021C000134004D07B68180000F05AF919E0BA698E
:1021D0008023DB00134005D07B6A802292011343E9
:1021E0007B620EE0BA6980231B01134005D07B6A35
:1021F0008022D20113437B6203E07B68180000F069
:1022000057F9BA6980235B02134028D07B681B68AA
:10221000802252029A60BA6980239B02134004D044
:102220007B68180000F034F919E0BA698023DB02FA
:10223000134005D07B6A8022120213437B620EE0BA
:10224000BA6980231B03134005D07B6A80225202A7
:1022500013437B6203E07B68180000F031F93B6AAE
:10226000082213400CD07B691022134008D07B6AEF
:102270008022920013437B627B681B681022DA6025
:102280003B6A042213400BD07B690822134007D01D
:102290007B681B680822DA607B68180000F018F978
:1022A0003B6A0222134009D07B681B68DB6803226B
:1022B000134003D07B68180003F04AFC3B6A4022BD
:1022C00013400CD03B691022134008D07B6A802257
:1022D000D20013437B627B681B6810221A613B6A41
:1022E000202213400BD03B690822134007D07B68A3
:1022F0001B6808221A617B68180000F0F9F83B6A35
:102300001022134009D07B681B681B69032213400D
:1023100003D07B68180000F0E3F83A6A80239B0240
:1023200013400BD0FB691022134007D07B681B6859
:1023300010225A607B68180000F0E2F83A6A8023A5
:102340005B0213400BD0FB690822134007D07B6867
:102350001B6808225A607B68180000F0D9F83A6AB6
:1023600080231B02134000D171E0FB69042213405B
:1023700000D168E03A6A80235B00134007D0FB6815
:102380000122134003D07B6A012213437B623A6A25
:1023900080239B00134007D0FB680222134003D028
:1023A0007B6A022213437B623A6A8023DB0013407C
:1023B00007D0FB680422134003D07B6A0422134336
:1023C0007B623A6A80231B0113403CD0FB68702279
:1023D000134038D0FB6870221340302B16D004D83D
:1023E000102B09D0202B0CD025E0502B18D0602BBF
:1023F0001BD0402B0FD01EE07B6A082213437B6268
:1024000019E07B6A102213437B6214E07B6A20226E
:1024100013437B620FE07B6A402213437B620AE036
:102420007B6A802213437B6205E07B6A8022520034
:1024300013437B62C0467B681B689A697B681B6894
:1024400070218A439A617B681B6804225A607B6A08
:10245000002B09D07B685A6A7B6A1A437B685A62F0
:102460007B68180000F05CF8C046BD460AB080BD2D
:1024700080B582B000AF7860C046BD4602B080BD76
:1024800080B582B000AF7860C046BD4602B080BD66
:1024900080B582B000AF7860C046BD4602B080BD56
:1024A00080B582B000AF7860C046BD4602B080BD46
:1024B00080B582B000AF7860C046BD4602B080BD36
:1024C00080B582B000AF7860C046BD4602B080BD26
:1024D00080B582B000AF7860C046BD4602B080BD16
:1024E00080B582B000AF7860C046BD4602B080BD06
:1024F00080B582B000AF7860C046BD4602B080BDF6
:1025000080B582B000AF7860C046BD4602B080BDE5
:1025100080B582B000AF7860C046BD4602B080BDD5
:1025200080B582B000AF7860C046BD4602B080BDC5
:1025300080B582B000AF0200FB1D1A70FB1D1B7836
:102540007F2B09D8FB1D1B781A001F231A40044B50
:10255000012191400A001A60C046BD4602B080BD0C
:1025600000E100E090B583B000AF02003960FB1DD0
:102570001A70FB1D1B787F2B28D82F4AFB1D1B7858
:102580005BB29B08C0339B009B58FA1D1278110068
:1025900003220A40D200FF2191400A00D2431A4090
:1025A00011003B689B01FF221A40FB1D1B7818009D
:1025B00003230340DB009A401F48FB1D1B785BB2DE
:1025C0009B080A43C0339B001A5031E01B4AFB1D95
:1025D0001B7819000F230B40083B9B0806339B0018
:1025E000D31804331B68FA1D1278110003220A4025
:1025F000D200FF2191400A00D2431A4011003B68EB
:102600009B01FF221A40FB1D1B7818000323034087
:10261000DB009A400948FB1D1B781C000F23234058
:10262000083B9B080A4306339B00C31804331A6017
:10263000C046BD4603B090BD00E100E000ED00E003
:1026400080B500AFBFF34F8F034B044ADA60BFF38E
:102650004F8FC046FDE7C04600ED00E00400FA05DC
:1026600080B582B000AF78607B68013B0C4A934232
:1026700001D9012310E00B4B7A68013A5A6001231B
:102680005B4203211800FFF76DFF064B00229A60A2
:10269000044B07221A6000231800BD4602B080BD1B
:1026A000FFFFFF0010E000E080B584B000AFB9602C
:1026B0007A600F217B18021C1A70BA687B181B788D
:1026C0005BB211001800FFF74DFFC046BD4604B0D5
:1026D00080BD80B582B000AF0200FB1D1A70FB1DEB
:1026E0001B785BB21800FFF723FFC046BD4602B05F
:1026F00080BD80B500AFFFF7A3FF80B582B000AF0B
:1027000078607B681800FFF7ABFF03001800BD4638
:1027100002B080BDF0B587B000AFF860B9603A6034
:102720007B601723FB1801221A701623FB18002266
:102730001A701523FB1800221A703E4B1B7E012BCA
:1027400001D1022372E03B4B01221A761723FE18B7
:10275000394B180000F0C4F8030033701723FB183E
:102760001B78002B5CD1FB68012B04D11523FB18CF
:1027700001221A700BE0FB68022B04D11523FB1811
:1027800002221A7003E01523FB1804221A70162384
:10279000FB1800221A7039E016217B181B785A00AA
:1027A000BB68D0187B181B781B011A00203A002A3E
:1027B00003DB7968D1400C0008E02022D21A796846
:1027C00091400A003968D9400C0014437A68DA4015
:1027D0001500A3B2190000F067F81723FE18164B76
:1027E000180000F07DF803003370144B1A69134B86
:1027F00001218A431A611723FB181B78002B0ED185
:1028000016217B181A787B1801321A701623FA18D1
:102810001523FB1812781B789A42BDD300E0C046FE
:10282000044B00221A761723FB181B781800BD46AC
:1028300007B0F0BD7000002050C30000002002402F
:1028400080B582B000AFFB1D00221A700C4B1B69D3
:10285000802213400DD00A4B0A4A5A60084B0A4A9C
:102860005A60074B1B698022134002D0FB1D0122D6
:102870001A70FB1D1B781800BD4602B080BDC04613
:102880000020024023016745AB89EFCD80B500AF42
:10289000044B1A69034B80210A431A610023180074
:1028A000BD4680BD0020024080B582B000AF786098
:1028B0000A00BB1C1A80084B0022DA61074B1A6918
:1028C000064B01210A431A617B68BA1C12881A80E0
:1028D000C046BD4602B080BD70000020002002400E
:1028E00080B584B000AF7860FEF7ACFF0300FB60FA
:1028F0000FE07B6801330CD07B68002B07D0FEF71C
:10290000A1FF0200FB68D31A7A689A4201D203231E
:102910001FE0124BDB6801221340012BE9D00F4B63
:10292000DB6820221340202B02D10C4B2022DA60DE
:102930000A4BDB6810221340102B05D0074BDB68D5
:1029400004221340042B03D100F00AF8012300E015
:1029500000231800BD4604B080BDC04600200240E0
:1029600080B582B000AF00237B60134BDB68102280
:102970001340102B09D1114BDB6902221A430F4B74
:10298000DA617B68102213437B600B4BDB68042207
:102990001340042B09D1094BDB6901221A43074B71
:1029A000DA617B68042213437B60034B7A68DA6048
:1029B000C046BD4602B080BD00200240700000202D
:1029C000B0B584B000AF786039600F23FB180122E6
:1029D0001A700023BB60324B1B7E012B01D10223F6
:1029E0005AE02F4B01221A767B681B68012B16D107
:1029F0002C4B1800FFF774FF031E47D100F056F868
:102A00000F23FC18274B1800FFF76AFF0300237001
:102A1000254B1A69244B04218A431A6136E0214B65
:102A20001800FFF75DFF031E30D13B6801225242C0
:102A30001A607B685B68BB601FE0BB68180000F031
:102A40004DF80F257C19174B1800FFF749FF0300BD
:102A50002370154B1A69144B02218A431A617B19A2
:102A60001B78002B03D03B68BA681A600EE0BB6885
:102A70008022D20094466344BB607B689B689A02C4
:102A80007B685B68D318BA689A42D6D3044B00229D
:102A90001A760F23FB181B781800BD4604B0B0BD92
:102AA0007000002050C300000020024080B500AF3D
:102AB000084B0022DA61084B1A69074B04210A43CC
:102AC0001A61054B1A69044B40210A431A61C0463A
:102AD000BD4680BD700000200020024080B582B05D
:102AE00000AF78600A4B0022DA610A4B1A69094B81
:102AF00002210A431A61074B7A685A61054B1A6929
:102B0000044B40210A431A61C046BD4602B080BD55
:102B1000700000200020024080B586B000AF7860D1
:102B2000396000237B6149E13B681B6801217A69B8
:102B300091400A001340FB60FB68002B00D13AE192
:102B40003B685B68012B0BD03B685B68022B07D0AE
:102B50003B685B68112B03D03B685B68122B30D15C
:102B60007B689B683B617B695B0003229A40130092
:102B7000DA433B6913403B613B68DA687B695B0081
:102B80009A4013003A6913433B617B683A699A6043
:102B90007B685B683B6101227B699A401300DA43E2
:102BA0003B6913403B613B685B681B0901221A408B
:102BB0007B699A4013003A6913433B617B683A6929
:102BC0005A607B68DB683B617B695B0003229A404B
:102BD0001300DA433B6913403B613B689A687B69A9
:102BE0005B009A4013003A6913433B617B683A6982
:102BF000DA603B685B68022B03D03B685B68122B92
:102C000023D17B69DA087B6808329200D3583B6194
:102C10007B69072213409B000F229A401300DA437E
:102C20003B6913403B613B681A697B6907210B4094
:102C30009B009A4013003A6913433B617B69DA08B1
:102C40007B68083292003969D1507B681B683B6110
:102C50007B695B0003229A401300DA433B6913400F
:102C60003B613B685B6803221A407B695B009A40CA
:102C700013003A6913433B617B683A691A603B6809
:102C80005A6880235B05134000D194E0514B9A6948
:102C9000504B01210A439A614E4B9B69012213401C
:102CA000BB60BB684C4A7B699B0802339B009B5806
:102CB0003B617B69032213409B000F229A40130063
:102CC000DA433B6913403B617A689023DB059A4203
:102CD0000DD07B68414A934207D07B68404A9342BB
:102CE00001D1022304E0052302E0012300E00023D8
:102CF0007A6903210A40920093403A6913433B6189
:102D000035497B699B0802339B003A695A50354B21
:102D10001B683B61FB68DA433B6913403B613B68DE
:102D20005A6880235B02134003D03A69FB6813435F
:102D30003B612C4B3A691A602A4B5B683B61FB682C
:102D4000DA433B6913403B613B685A6880239B022E
:102D5000134003D03A69FB6813433B61214B3A6946
:102D60005A60204B9B683B61FB68DA433B69134028
:102D70003B613B685A6880235B03134003D03A6988
:102D8000FB6813433B61174B3A699A60154BDB684C
:102D90003B61FB68DA433B6913403B613B685A681F
:102DA00080239B03134003D03A69FB6813433B61C4
:102DB0000C4B3A69DA607B6901337B613B681A68C6
:102DC0007B69DA40131E00D0AEE6C046BD4606B0B1
:102DD00080BDC046001002400000014000040048D1
:102DE000000800480004014080B582B000AF786060
:102DF00008001100BB1C021C1A807B1C0A1C1A70E4
:102E00007B1C1B78002B04D0BB1C1A887B689A6142
:102E100003E0BB1C1A887B689A62C046BD4602B0BC
:102E200080BD000080B582B000AF78607B68002B69
:102E300001D1012382E07B6841229B5CDBB2002B45
:102E400007D17B684022002199547B68180003F069
:102E5000E1F97B684122242199547B681B681A6838
:102E60007B681B6801218A431A607B685A687B680B
:102E70001B6834490A401A617B681B689A687B6842
:102E80001B6831490A409A607B68DB68012B08D1D6
:102E90007B689A687B681B68802109020A439A60F4
:102EA00007E07B689A687B681B68842109020A43F3
:102EB0009A607B68DB68022B04D17B681B688022E8
:102EC00012015A607B681B685A687B681B681F493F
:102ED0000A435A607B681B68DA687B681B681A497A
:102EE0000A40DA607B681A697B685B691A431100E3
:102EF0007B689B691A027B681B680A43DA607B68FF
:102F0000D9697B681A6A7B681B680A431A607B6808
:102F10001B681A687B681B6801210A431A607B687A
:102F200000225A647B684122202199547B68002248
:102F30001A637B6842220021995400231800BD4681
:102F400002B080BDFFFFFFF0FF7FFFFF00800002A7
:102F500080B582B000AF786039607B6841229B5CAD
:102F6000DBB2202B38D17B6840229B5C012B01D146
:102F7000022332E07B684022012199547B68412280
:102F8000242199547B681B681A687B681B6801219F
:102F90008A431A607B681B681A687B681B68114942
:102FA0000A401A607B681B6819687B681B683A686E
:102FB0000A431A607B681B681A687B681B680121DA
:102FC0000A431A607B684122202199547B68402281
:102FD00000219954002300E002231800BD4602B0EE
:102FE00080BDC046FFEFFFFF80B584B000AF7860C2
:102FF00039607B6841229B5CDBB2202B39D17B6836
:1030000040229B5C012B01D1022333E07B684022EC
:10301000012199547B684122242199547B681B68C3
:103020001A687B681B6801218A431A607B681B68E9
:103030001B68FB60FB68114A1340FB603B681B0286
:10304000FA681343FB607B681B68FA681A607B6848
:103050001B681A687B681B6801210A431A607B6839
:103060004122202199547B68402200219954002359
:1030700000E002231800BD4604B080BDFFF0FFFF52
:1030800080B588B000AF78607B68002B02D1012347
:1030900000F076FB7B681B680122134000D18EE0B4
:1030A000C54B5B680C221340042B0ED0C24B5B68EF
:1030B0000C221340082B17D1BF4B5A68C0235B0268
:1030C0001A4080235B029A420ED1BB4B1A688023C0
:1030D0009B02134000D171E07B685B68002B00D03D
:1030E0006CE0012300F04CFB7B685B68012B07D18F
:1030F000B14B1A68B04B802149020A431A602FE095
:103100007B685B68002B0CD1AB4B1A68AA4BAB49B0
:103110000A401A60A84B1A68A74BA9490A401A60CE
:103120001EE07B685B68052B0ED1A34B1A68A24B8F
:103130008021C9020A431A609F4B1A689E4B802166
:1031400049020A431A600BE09B4B1A689A4B9B4951
:103150000A401A60984B1A68974B99490A401A60BE
:103160007B685B68002B14D0FEF76CFB0300BB612F
:1031700008E0FEF767FB0200BB69D31A642B01D994
:103180000323FDE28C4B1A6880239B021340F0D08E
:1031900015E0FEF757FB0300BB6108E0FEF752FBAA
:1031A0000200BB69D31A642B01D90323E8E2824BE6
:1031B0001A6880239B021340F0D100E0C0467B6870
:1031C0001B680222134000D16CE07B4B5B680C2231
:1031D00013400ED0784B5B680C221340082B1FD194
:1031E000754B5A68C0235B021A4080231B029A4227
:1031F00016D1714B1B680222134005D07B68DB6837
:10320000012B01D00123BBE26B4B1B68F8229343D7
:1032100019007B681B69DA00674B0A431A6041E0BA
:103220007B68DB68002B24D0634B1A68624B01215A
:103230000A431A60FEF706FB0300BB6108E0FEF7D5
:1032400001FB0200BB69D31A022B01D9032397E2C9
:10325000594B1B6802221340F1D0574B1B68F822D0
:10326000934319007B681B69DA00534B0A431A60C9
:1032700018E0514B1A68504B01218A431A60FEF73F
:10328000E1FA0300BB6108E0FEF7DCFA0200BB696B
:10329000D31A022B01D9032372E2474B1B68022287
:1032A0001340F1D17B681B680822134036D07B683D
:1032B000DB69002B19D0404B5A6A3F4B01210A436E
:1032C0005A62FEF7BFFA0300BB6108E0FEF7BAFAE4
:1032D0000200BB69D31A022B01D9032350E2364BFB
:1032E0005B6A02221340F1D018E0334B5A6A324B2A
:1032F00001218A435A62FEF7A5FA0300BB6108E088
:10330000FEF7A0FA0200BB69D31A022B01D90323EE
:1033100036E2294B5B6A02221340F1D17B681B68BD
:103320000422134000D1B5E01F23FB1800221A70BD
:10333000214BDA6980235B05134011D11E4BDA69FA
:103340001D4B802149050A43DA611B4BDA69802352
:103350005B051340FB60FB681F23FB1801221A70FA
:10336000184B1A6880235B0013401AD1154B1A685A
:10337000144B802149000A431A60FEF763FA0300E8
:10338000BB6108E0FEF75EFA0200BB69D31A642B4A
:1033900001D90323F4E10B4B1A6880235B0013402F
:1033A000F0D07B689B68012B0ED1034B1A6A024B4D
:1033B00001210A431A6235E000100240FFFFFEFFC0
:1033C000FFFFFBFF007000407B689B68002B0CD167
:1033D000CA4B1A6AC94B01218A431A62C74B1A6A3F
:1033E000C64B04218A431A621CE07B689B68052B4C
:1033F0000CD1C24B1A6AC14B04210A431A62BF4B5B
:103400001A6ABE4B01210A431A620BE0BB4B1A6ACF
:10341000BA4B01218A431A62B84B1A6AB74B04218E
:103420008A431A627B689B68002B14D0FEF70AFA65
:103430000300BB6109E0FEF705FA0200BB69D31A7D
:10344000AF4A934201D903239AE1AC4B1B6A022293
:103450001340F0D013E0FEF7F5F90300BB6109E07B
:10346000FEF7F0F90200BB69D31AA54A934201D9CD
:10347000032385E1A14B1B6A02221340F0D11F23D5
:10348000FB181B78012B05D19C4BDA699B4B9D499E
:103490000A40DA617B681B681022134063D07B68A6
:1034A0005B69012B2AD1954B5A6B944B04210A433B
:1034B0005A63924B5A6B914B01210A435A63FEF7B0
:1034C000C1F90300BB6108E0FEF7BCF90200BB696B
:1034D000D31A022B01D9032352E1884B5B6B0222E2
:1034E0001340F1D0854B5B6BF822934319007B6846
:1034F0009B69DA00814B0A435A6334E07B685B695D
:10350000053311D17D4B5A6B7C4B04218A435A639E
:103510007A4B5B6BF822934319007B689B69DA0056
:10352000764B0A435A631EE0744B5A6B734B04216B
:103530000A435A63714B5A6B704B01218A435A6399
:10354000FEF780F90300BB6108E0FEF77BF902009B
:10355000BB69D31A022B01D9032311E1674B5B6BC3
:1035600002221340F1D17B681B68202213405CD0FB
:10357000624B5B680C2213400C2B0ED05F4B5B68D8
:103580000C221340082B14D15C4B5A68C0235B02F9
:103590001A40C0235B029A420BD1584B5A6B8023CE
:1035A0005B02134040D07B681B6A012B3CD0012397
:1035B000E6E07B681B6A002B1BD0504B5A6B4F4BCD
:1035C000802149020A435A63FEF73CF90300BB61BC
:1035D00008E0FEF737F90200BB69D31A022B01D9C4
:1035E0000323CDE0454B5A6B80235B021340F0D0A0
:1035F0001BE0424B5A6B414B43490A405A63FEF76A
:1036000021F90300BB6108E0FEF71CF90200BB6969
:10361000D31A022B01D90323B2E0384B5A6B802313
:103620005B021340F0D100E0C0467B685B6A002B70
:1036300000D1A4E0314B5B680C221340082B00D171
:1036400078E07B685B6A022B4CD12C4B1A682B4BC1
:103650002E490A401A60FEF7F5F80300BB6108E046
:10366000FEF7F0F80200BB69D31A022B01D903233D
:1036700086E0224B1A6880239B041340F0D11F4B35
:10368000DB6A0F22934319007B681A6B1B4B0A43BA
:10369000DA621A4B5B681E4A134019007B68DA6ACB
:1036A0007B689B6A1A43154B0A435A60134B1A688E
:1036B000124B802149040A431A60FEF7C3F8030045
:1036C000BB6108E0FEF7BEF80200BB69D31A022B0B
:1036D00001D9032354E0094B1A6880239B0413404B
:1036E000F0D04CE0054B1A68044B08490A401A60B8
:1036F000FEF7A8F80300BB6115E0C04600100240C9
:1037000088130000FFFFFFEFFFFFFEFFFFFFFFFE3C
:10371000FF7FC2FFFEF796F80200BB69D31A022BA7
:1037200001D903232CE0184B1A6880239B04134013
:10373000F0D124E07B685B6A012B01D101231FE0FB
:10374000114B5B687B61104BDB6A3B617A69C0237C
:103750005B021A407B689B6A9A420ED13B690F223A
:103760001A407B681B6B9A4207D17A69F0239B034E
:103770001A407B68DB6A9A4201D0012300E00023F3
:103780001800BD4608B080BD0010024080B584B06E
:1037900000AF786039607B68002B01D10123BFE066
:1037A000614B1B68012213403A689A4211D95E4B63
:1037B0001B680122934319005B4B3A680A431A6065
:1037C000594B1B68012213403A689A4201D00123E9
:1037D000A6E07B681B680222134015D07B681B683B
:1037E0000422134006D0514B5A68504BE021C900C7
:1037F0000A435A604D4B5B68F022934319007B6883
:103800009A684A4B0A435A607B681B68012213403E
:103810004CD07B685B68012B07D1444B1A6880232E
:103820009B02134020D101237AE07B685B68022B66
:1038300007D13E4B1A6880239B04134014D1012307
:103840006EE07B685B68032B07D1384B5A6B802393
:103850005B02134008D1012362E0344B1B68022253
:10386000134001D101235BE0304B5B68032293439B
:1038700019007B685A682D4B0A435A60FDF7E2FF36
:103880000300FB6009E0FDF7DDFF0200FB68D31ACF
:10389000274A934201D9032342E0244B5B680C2260
:1038A0001A407B685B689B009A42ECD11E4B1B68F8
:1038B000012213403A689A4211D21B4B1B68012225
:1038C00093431900184B3A680A431A60164B1B6859
:1038D000012213403A689A4201D0012320E07B681C
:1038E0001B680422134009D0104B5B68114A134037
:1038F00019007B68DA680D4B0A435A6000F020F823
:1039000001000A4B5B681B090F2213400A4AD35C73
:103910000A00DA40094B1A600020FDF74DFF002332
:103920001800BD4604B080BD0020024000100240D7
:1039300088130000FFF8FFFF306700080800002030
:1039400090B58FB000AF1423FB18374A13CA13C3C6
:1039500012681A603B1D354A13CA13C312681A60F5
:103960000023FB620023BB6200237B6300237B6296
:1039700000233B632E4B5B68FB62FB6A0C22134007
:10398000082B06D00C2B43D0042B44D1294B3B638E
:1039900044E0FB6A9B0C0F2213401422BA18D35C3C
:1039A0007B62234BDB6A0F2213403A1DD35CBB6260
:1039B000FA6AC0235B021A4080235B029A4209D153
:1039C000B96A1C48FCF7A0FB03001A007B6A53434A
:1039D0007B631AE0FA6AC0235B021A40C0235B02D1
:1039E0009A4209D1B96A1448FCF78EFB03001A0009
:1039F0007B6A53437B6308E0B96A1048FCF784FB99
:103A000003001A007B6A53437B637B6B3B6305E0D7
:103A1000094B3B6302E0094B3B63C0463B6B18001C
:103A2000BD460FB090BDC046DC650008EC650008DF
:103A3000001002400024F400006CDC0200127A0046
:103A400080B586B000AF786000233B610023FB6047
:103A50007B681A6880235B02134000D18FE0172334
:103A6000FB1800221A70674BDA6980235B0513404C
:103A700011D1644BDA69634B802149050A43DA614D
:103A8000604BDA6980235B051340BB60BB6817237A
:103A9000FB1801221A705C4B1A6880235B001340EC
:103AA0001AD1594B1A68584B802149000A431A60B1
:103AB000FDF7C8FE03003B6108E0FDF7C3FE02000E
:103AC0003B69D31A642B01D9032397E04E4B1A6844
:103AD00080235B001340F0D04A4B1A6AC0239B003E
:103AE0001340FB60FB68002B34D07B685A68C0230E
:103AF0009B001340FA689A422CD0424B1B6A434AFF
:103B00001340FB603F4B1A6A3E4B802149020A4337
:103B10001A623C4B1A6A3B4B3D490A401A62394BC8
:103B2000FA681A62FB680122134013D0FDF78AFE7F
:103B300003003B6109E0FDF785FE02003B69D31AF3
:103B4000344A934201D9032358E02E4B1B6A0222C8
:103B50001340F0D02B4B1B6A2C4A134019007B6892
:103B60005A68284B0A431A621723FB181B78012B4B
:103B700005D1244BDA69234B27490A40DA617B6877
:103B80001B680122134009D01E4B1B6B0322934379
:103B900019007B689A681B4B0A431A637B681B6891
:103BA0002022134009D0174B1B6B1022934319009E
:103BB0007B68DA68134B0A431A637B681A688023B0
:103BC0009B02134009D00F4B1B6B802293431900BB
:103BD0007B685A690B4B0A431A637B681A68802317
:103BE000DB00134009D0074B1B6B402293431900A5
:103BF0007B681A69034B0A431A6300231800BD4609
:103C000006B080BD0010024000700040FFFCFFFFC6
:103C1000FFFFFEFF88130000FFFFFFEF80B582B0BB
:103C200000AF78607B68002B01D1012342E07B6804
:103C30003D229B5CDBB2002B07D17B683C2200213C
:103C400099547B68180002F033FB7B683D22022107
:103C500099547B681A687B6804331900100000F0DF
:103C600015FB7B684622012199547B683E22012185
:103C700099547B683F22012199547B68402201219D
:103C800099547B684122012199547B684222012189
:103C900099547B684322012199547B684422012175
:103CA00099547B684522012199547B683D2201216A
:103CB000995400231800BD4602B080BD80B582B083
:103CC00000AF78607B68002B01D1012342E07B6864
:103CD0003D229B5CDBB2002B07D17B683C2200219C
:103CE00099547B68180000F039F87B683D22022166
:103CF00099547B681A687B6804331900100000F03F
:103D0000C5FA7B684622012199547B683E22012135
:103D100099547B683F22012199547B6840220121FC
:103D200099547B684122012199547B6842220121E8
:103D300099547B684322012199547B6844220121D4
:103D400099547B684522012199547B683D220121C9
:103D5000995400231800BD4602B080BD80B582B0E2
:103D600000AF7860C046BD4602B080BD80B584B06B
:103D700000AF786039603B68002B08D17B683E2239
:103D80009B5CDBB2013B5A1E9341DBB21FE03B68F8
:103D9000042B08D17B683F229B5CDBB2013B5A1E9F
:103DA0009341DBB213E03B68082B08D17B684022CB
:103DB0009B5CDBB2013B5A1E9341DBB207E07B68A0
:103DC00041229B5CDBB2013B5A1E9341DBB2002BCC
:103DD00001D001236AE03B68002B04D17B683E22BE
:103DE0000221995413E03B68042B04D17B683F22E5
:103DF000022199540BE03B68082B04D17B684022D8
:103E00000221995403E07B684122022199547B6886
:103E10001B6839680122180000F028FD7B681B68C8
:103E2000244A934209D07B681B68234A934204D0FA
:103E30007B681B68214A934201D1012300E00023E3
:103E4000002B08D07B681B685A6C7B681B6880213C
:103E500009020A435A647B681B68164A93420AD0D7
:103E60007B681A688023DB059A4204D07B681B6854
:103E7000134A934211D17B681B689B680722134049
:103E8000FB60FB68062B10D07B681B681A687B6898
:103E90001B6801210A431A6007E07B681B681A68E7
:103EA0007B681B6801210A431A6000231800BD4685
:103EB00004B080BD002C0140004401400048014096
:103EC0000004004080B582B000AF786039607B6844
:103ED0001B6839680022180000F0C8FC7B681B686A
:103EE0002D4A934209D07B681B682C4A934204D028
:103EF0007B681B682A4A934201D1012300E000231A
:103F0000002B13D07B681B681B6A264A13400DD117
:103F10007B681B681B6A244A134007D17B681B68B7
:103F20005A6C7B681B6821490A405A647B681B688D
:103F30001B6A1C4A13400DD17B681B681B6A1A4A16
:103F4000134007D17B681B681A687B681B680121D6
:103F50008A431A603B68002B04D17B683E22012112
:103F6000995413E03B68042B04D17B683F22012164
:103F700099540BE03B68082B04D17B684022012157
:103F8000995403E07B6841220121995400231800D1
:103F9000BD4602B080BDC046002C01400044014037
:103FA000004801401111000044040000FF7FFFFFA2
:103FB00080B584B000AFF860B9607A60FB683C22DD
:103FC0009B5C012B01D102239CE0FB683C22012178
:103FD00099547B68042B29D002D8002B05D08CE0A3
:103FE000082B46D00C2B65D087E0FB681B68BA68AD
:103FF0001100180000F0C0F9FB681B689A69FB68A3
:104000001B6808210A439A61FB681B689A69FB6870
:104010001B6804218A439A61FB681B689969BB6825
:104020001A69FB681B680A439A6166E0FB681B68B3
:10403000BA681100180000F01DFAFB681B689A6945
:10404000FB681B68802109010A439A61FB681B68B1
:104050009A69FB681B682D490A409A61FB681B68D6
:104060009969BB681B691A02FB681B680A439A615D
:1040700043E0FB681B68BA681100180000F078FA8A
:10408000FB681B68DA69FB681B6808210A43DA6170
:10409000FB681B68DA69FB681B6804218A43DA61E4
:1040A000FB681B68D969BB681A69FB681B680A430F
:1040B000DA6122E0FB681B68BA681100180000F0A2
:1040C000D7FAFB681B68DA69FB681B688021090165
:1040D0000A43DA61FB681B68DA69FB681B680B49F5
:1040E0000A40DA61FB681B68D969BB681B691A0260
:1040F000FB681B680A43DA61C046FB683C2200216A
:10410000995400231800BD4604B080BDFFFBFFFF9B
:1041100080B584B000AF786039607B683C229B5CDE
:10412000012B01D10223ABE07B683C220121995491
:104130007B683D22022199547B681B689B68FB6069
:10414000FB6877229343FB60FB684F4A1340FB6098
:104150007B681B68FA689A603B681B68402B00D13B
:104160006BE00ED8102B00D177E003D8002B00D1E4
:1041700073E07CE0202B00D16FE0302B00D16CE0AD
:1041800075E0702B0ED004D8502B36D0602B44D065
:104190006DE080225201934268D0802292019342C6
:1041A00017D064E07B6818683B6899683B685A6878
:1041B0003B68DB6800F03AFB7B681B689B68FB6030
:1041C000FB6877221343FB607B681B68FA689A6080
:1041D0004DE07B6818683B6899683B685A683B68A3
:1041E000DB6800F023FB7B681B689A687B681B68B0
:1041F0008021C9010A439A6039E07B6818683B68EE
:1042000059683B68DB681A0000F096FA7B681B6807
:104210005021180000F0F0FA29E07B6818683B682C
:1042200059683B68DB681A0000F0B4FA7B681B68C9
:104230006021180000F0E0FA19E07B6818683B681C
:1042400059683B68DB681A0000F076FA7B681B68E7
:104250004021180000F0D0FA09E07B681A683B683A
:104260001B681900100000F0C7FA00E0C0467B6828
:104270003D22012199547B683C220021995400235E
:104280001800BD4604B080BDFF00FFFF80B584B0BC
:1042900000AF786039607B681B68FB607B68304AE0
:1042A000934208D07A688023DB059A4203D07B686A
:1042B0002C4A934208D1FB6870229343FB603B6811
:1042C0005B68FA681343FB607B68254A934214D00D
:1042D0007A688023DB059A420FD07B68214A93429B
:1042E0000BD07B68204A934207D07B681F4A9342D9
:1042F00003D07B681E4A934208D1FB681D4A1340D5
:10430000FB603B68DB68FA681343FB60FB68802254
:1043100093431A003B685B691343FB607B68FA6850
:104320001A603B689A687B68DA623B681A687B6847
:104330009A627B680A4A934207D07B680B4A934291
:1043400003D07B680A4A934203D13B681A697B68B1
:104350001A637B6801225A61C046BD4604B080BD25
:10436000002C0140000400400020004000440140B7
:1043700000480140FFFCFFFF80B586B000AF7860C9
:1043800039607B681B6A012293431A007B681A62BA
:104390007B681B6A7B617B685B683B617B689B69B0
:1043A000FB60FB6870229343FB60FB68032293432E
:1043B000FB603B681B68FA681343FB607B69022261
:1043C00093437B613B689B687A6913437B617B689D
:1043D000234A934207D07B68224A934203D07B68EA
:1043E000214A93420CD17B69082293437B613B684D
:1043F000DB687A6913437B617B69042293437B61A9
:104400007B68174A934207D07B68164A934203D0D1
:104410007B68154A934211D13B69144A13403B61B2
:104420003B69134A13403B613B685B693A6913433C
:104430003B613B689B693A6913433B617B683A691E
:104440005A607B68FA689A613B685A687B685A636D
:104450007B687A691A62C046BD4606B080BDC04618
:10446000002C01400044014000480140FFFEFFFFD6
:10447000FFFDFFFF80B586B000AF786039607B68D4
:104480001B6A102293431A007B681A627B681B6ABE
:104490007B617B685B683B617B689B69FB60FB6859
:1044A0002C4A1340FB60FB682B4A1340FB603B68BF
:1044B0001B681B02FA681343FB607B69202293434D
:1044C0007B613B689B681B017A6913437B617B6856
:1044D000224A93420DD17B69802293437B613B68E2
:1044E000DB681B017A6913437B617B69402293433C
:1044F0007B617B68194A934207D07B68184A9342D4
:1045000003D07B68174A934213D13B69164A134084
:104510003B613B69154A13403B613B685B699B000B
:104520003A6913433B613B689B699B003A691343BB
:104530003B617B683A695A607B68FA689A613B68BC
:104540005A687B689A637B687A691A62C046BD467E
:1045500006B080BDFF8FFFFFFFFCFFFF002C014076
:104560000044014000480140FFFBFFFFFFF7FFFF51
:1045700080B586B000AF786039607B681B6A334ACB
:104580001A407B681A627B681B6A7B617B685B6888
:104590003B617B68DB69FB60FB6870229343FB60D7
:1045A000FB6803229343FB603B681B68FA68134374
:1045B000FB607B69264A13407B613B689B681B025A
:1045C0007A6913437B617B68224A93420DD17B69F0
:1045D000214A13407B613B68DB681B027A69134305
:1045E0007B617B691D4A13407B617B68194A93425A
:1045F00007D07B681A4A934203D07B68194A9342DA
:1046000013D13B69184A13403B613B69174A134079
:104610003B613B685B691B013A6913433B613B6843
:104620009B691B013A6913433B617B683A695A6095
:104630007B68FA68DA613B685A687B68DA637B6892
:104640007A691A62C046BD4606B080BDFFFEFFFF14
:10465000FFFDFFFF002C0140FFF7FFFFFFFBFFFF07
:104660000044014000480140FFEFFFFFFFDFFFFF74
:1046700080B586B000AF786039607B681B6A264AD7
:104680001A407B681A627B681B6A3B617B685B68C7
:104690007B617B68DB69FB60FB68204A1340FB6041
:1046A000FB681F4A1340FB603B681B681B02FA68EB
:1046B0001343FB603B691B4A13403B613B689B68AB
:1046C0001B033A6913433B617B68174A934207D047
:1046D0007B68164A934203D07B68154A934209D1FE
:1046E0007B69144A13407B613B685B699B017A6973
:1046F00013437B617B687A695A607B68FA68DA6188
:104700003B685A687B681A647B683A691A62C046DB
:10471000BD4606B080BDC046FFEFFFFFFF8FFFFF25
:10472000FFFCFFFFFFDFFFFF002C014000440140C2
:1047300000480140FFBFFFFF80B586B000AFF860C2
:10474000B9607A60FB681B6A7B61FB681B6A0122A7
:1047500093431A00FB681A62FB689B693B613B69E3
:10476000F02293433B617B681B013A6913433B6131
:104770007B690A2293437B617A69BB6813437B613F
:10478000FB683A699A61FB687A691A62C046BD465D
:1047900006B080BD80B586B000AFF860B9607A60C1
:1047A000FB681B6A102293431A00FB681A62FB68BD
:1047B0009B697B61FB681B6A3B617B690D4A134007
:1047C0007B617B681B037A6913437B613B69A02291
:1047D00093433B61BB681B013A6913433B61FB6830
:1047E0007A699A61FB683A691A62C046BD4606B0AA
:1047F00080BDC046FF0FFFFF80B584B000AF78607A
:1048000039607B689B68FB60FB6870229343FB60A8
:104810003A68FB68134307221343FB607B68FA681E
:104820009A60C046BD4604B080BD000080B586B029
:1048300000AFF860B9607A603B60FB689B687B61A1
:104840007B69094A13407B613B681A027B681A4303
:10485000BB6813437A6913437B61FB687A699A608A
:10486000C046BD4606B080BDFF00FFFF80B586B0E4
:1048700000AFF860B9607A60BB681F221340012264
:104880009A4013007B61FB681B6A7A69D2431A4025
:10489000FB681A62FB681A6ABB681F210B407968C3
:1048A00099400B001A43FB681A62C046BD4606B029
:1048B00080BD000080B584B000AF786039607B684F
:1048C0003C229B5C012B01D1022342E07B683C220D
:1048D000012199547B683D22022199547B681B6811
:1048E0005B68FB607B681B689B68BB60FB68702231
:1048F0009343FB603B681B68FA681343FB607B686B
:104900001B68FA685A607B681B68144A93420AD095
:104910007B681A688023DB059A4204D07B681B6899
:104920000F4A93420CD1BB6880229343BB603B6823
:104930005B68BA681343BB607B681B68BA689A609F
:104940007B683D22012199547B683C2200219954C7
:1049500000231800BD4604B080BDC046002C0140B5
:104960000004004080B500AF074B1B78002B01D13D
:10497000002305E0044B1B785A1E044B9200D358C9
:104980001800BD4680BDC0463800002090000020C1
:1049900080B500AF064B1B78002B05D0044B1B786D
:1049A000013BDAB2024B1A70C046BD4680BDC0461C
:1049B0003800002080B586B000AFF8607A600B2028
:1049C0003B180A1C1A70194BFA681A603B181A78BF
:1049D000164B1A611723FB1800221A700EE01720DD
:1049E0003B181B787A68D2183B181B781178104A4C
:1049F000D1543B181A783B1801321A701723FA1851
:104A00000B23FB1812781B789A42E8D3094B084A0B
:104A100006490948FDF756F9031E02D0074B0B2241
:104A20001A7001231800BD4606B080BD9800002012
:104A30009000002058010020280100205000002094
:104A400080B500AF034B1B785A425341DBB21800CC
:104A5000BD4680BD3800002080B500AFC046BD46D1
:104A600080BD000080B500AF044B1B7864229A42E1
:104A70009B415B42DBB21800BD4680BD5000002068
:104A8000B0B588B000AF786010217B1801229A6021
:104A90007B187A685A607B1800221A601F257C19DF
:104AA0000C23FA187B1811001800FDF789FF03008A
:104AB00023707B191B78002B01D001F0C7F8C0468A
:104AC000BD4608B0B0BD90B583B000AFFC1DFDF78A
:104AD000DDFE03002370FB1D1B78002B01D001F0CD
:104AE000B5F8C046BD4603B090BD80B584B000AFF8
:104AF00078607B681B681B68FB607B681B681A1DFD
:104B00007B681A60FB681800BD4604B080BDF0B534
:104B100085B000AF786039607B6819683B681D001C
:104B200000231E000F23FC182A0033000220FDF78B
:104B3000F1FD030023700F23FB181B78002B01D01D
:104B400001F084F87B681B681A1D7B681A60C046F8
:104B5000BD4605B0F0BD90B583B000AFFC1DFDF7BC
:104B60006FFE03002370FB1D1B78002B01D001F0AA
:104B70006DF8C046BD4603B090BD000080B582B060
:104B800000AF7860144B1B687A68D21AFA239B0036
:104B90009A4217D9114B1A6813005B019B1A9B00AC
:104BA0009B18DB0018000C4B1B687A68D31A19009D
:104BB000FBF7AAFA03009AB2094B1A80064B7A68EF
:104BC0001A6004E0054B1B685A1C044B1A60C0466F
:104BD000BD4602B080BDC046340000202C0000203D
:104BE0003000002080B500AF024B1B881800BD4686
:104BF00080BDC0463000002090B585B000AFF860A1
:104C0000B9607A603B60B968F868FBF7FFFF031C86
:104C10001C1C3968386AFBF7F9FF031C191C201C9F
:104C2000FBF7C2FE031C1C1CB9687868FBF7EEFF9B
:104C3000031C191C201CFBF7DFFC031C3968181C23
:104C4000FBF740FB031C181CBD4605B090BD0000DF
:104C5000F0B58DB004AFFCF79BFD00F0F5FA00F065
:104C600059FC00F0CFFB00F08DFB00F053FB00F08F
:104C70004BFF00F053FDDC4B012210211800FEF722
:104C8000B3F89023DB05012202211800FEF7ACF8EF
:104C9000012000F0E5FFD54900230393012302938F
:104CA00001230193D04B00930C230C22002000F031
:104CB000EDFFCE49002303930123029304230193C4
:104CC0009023DB05009300230022002000F0DEFF8C
:104CD000FE2292050023191C002001F095F8FE2207
:104CE00092050023191C012001F08EF800F0D4FE7B
:104CF000BF4B1B78002B00D1EFE11F23FB180022D4
:104D00001A70E1E1BB4B1B68BB4A127851001F22AD
:104D1000BA1812788918B94A49008A5A934200D0C1
:104D2000B9E11C23FB18B64A12781A70B44B1B78F1
:104D3000212B10DC202B00DBF0E0122B00D1ACE1AA
:104D400003DC102B00D1D7E06EE1192B41D01B2BD7
:104D500000D1CEE068E1242B00D1A0E104DC222BBD
:104D60000FD0232B09D05FE1402B00D183E0FF2B34
:104D700000D19FE0302B51D056E1A24B01221A7096
:104D80009CE1A14B1B68002B04D09F4B1B68013397
:104D900000D086E19D4B23221A70974B1B785A0056
:104DA0001F23FB181B78D218944B5200D35A1800BB
:104DB000964B1A000121FFF7FDFD03001A000123A5
:104DC0005340DBB2002B00D16BE1914B07221A70EC
:104DD00067E18E4B1A221A708C4B05225A708B4B4E
:104DE00000229A70844B1B785A001F23FB181B78F3
:104DF000D218884B5200D35A1800844B1A00032152
:104E0000FFF7D8FD03001A0001235340DBB2002B4B
:104E100000D148E17E4B25221A7044E17B4B3122C0
:104E20001A70FFF7DFFE0300DAB2784B5A70FFF713
:104E3000D9FE03001B0A9BB2DAB2744B9A706E4B18
:104E40001B785A001F23FB181B78D218714B520095
:104E5000D35A18006D4B1A000321FFF7ABFD030076
:104E60001A0001235340DBB2002B00D11DE1684B37
:104E700025221A7019E1624B5B78042B03D9644B2D
:104E800032221A701AE15E4B5A785B4B1A7000F0AE
:104E9000D3FD594B1B785A00584B5200D05A564BF1
:104EA0001B785B005A1C554B5200D35A190000F076
:104EB0007BFD03E1554BFF221A704F4B1B785A00C4
:104EC0001F23FB181B78D218524B5200D35A1800DC
:104ED0004E4B1A000121FFF76DFD03001A0001235C
:104EE0005340DBB2002B00D1E1E0494B07221A709E
:104EF000DDE0FDF7FEFBE1E03E4B1B69022B00D835
:104F0000D7E03F4B5B781AB23D4B9B781B021BB23C
:104F100013431BB29AB2404B1A80CAE0384B5B78FD
:104F20005AB21B26BB19D2B2D2091A70344B5B7825
:104F3000803B1800FCF750FB02000B0011000C0036
:104F40005B005D080022354B20002900FCF742F889
:104F500002000B0010001900FCF778FB021C304B1C
:104F60001A60BB191B7801225340DBB2002B06D01C
:104F70002B4B1B68802212065A40294B1A60284B83
:104F80001968FE2292051F26BB191B78180000F035
:104F90003BFFBB191A78224B1968224B9200D15063
:104FA000174B1B78212B00D085E0184B41221A703B
:104FB000114B1B785A001F23FB181B78D218154B76
:104FC0005200D35A1800114B1A000121FFF7F2FCCE
:104FD00003001A0001235340DBB2002B6DD00C4BB1
:104FE0003A221A7069E0C0460004004868010020B7
:104FF00053000020B4020020400000201067000889
:1050000060010020480000204C000020900000209B
:1050100050000020206700080600002000006040CB
:10502000D0020020540000207C4B27221A703B1D28
:105030009C467B4A634643CA43C363460C330822FB
:105040000021180001F07AFA1C23FB181B783900A4
:105050001022180001F06EFA1E23FB1800221A70AD
:105060000EE01E203B181A783B181B7801333900DC
:10507000895C3A1DD1543B181A783B1801321A70DA
:105080001E23FB181B78022BEBD93B1D180000F0E8
:105090007DFDC04612E0C04610E0C0460EE0C046AE
:1050A0000CE0C0460AE0C04608E0C04606E0C04644
:1050B00004E0C04602E0C04600E0C0461F217B1865
:1050C0001A787B1801321A701F23FB181B78012BEA
:1050D00000D817E6534B00221A7000F097FB4F4B95
:1050E0001A78514B1B789A4224D04C4B1B78002BDA
:1050F0001CD04E4BEE221A70484B1A784B4B5A700C
:105100004B4B1B785A004B4B5200D35A1800474B5D
:105110001A000221FFF74EFC03001A00012353403E
:10512000DBB2002B02D03D4B0A221A703B4B1A789F
:105130003D4B1A70FCF786FB02003F4B1B689A42FE
:1051400045D0FFF77DFC03001A0001235340DBB27A
:10515000002B3CD0FFF706FC03001A68374B1A609F
:10516000FFF700FC03001B791A00344B1A611D2362
:10517000FB1800221A7010E0FFF7F4FB01001D205D
:105180003B181A783B181B788A185179274AD15452
:105190003B181A783B1801321A701D23FB181A7835
:1051A000264B1B699A42E7D3254B204A23492548C1
:1051B000FCF788FD031E02D1FFF7EAFB02E0174B64
:1051C0000B221A70FCF73EFB02001B4B1A60134BBC
:1051D0001B78002B07D1FA239B00012219006420C1
:1051E00000F02CFA12E00D4B1B78632B07D8FA2342
:1051F0009B0002221900642000F020FA06E0FA2346
:105200009B0003221900642000F018FAFCF71AFB37
:1052100003001800FFF7B2FC6AE5C046500000200A
:10522000FC65000853000020510000209000002081
:105230004000002020670008440000209800002063
:10524000580100202801002090B599B000AF2C240F
:105250003B19180034231A00002101F06FF91C23B8
:10526000FB18180010231A00002101F067F93B1DFC
:10527000180018231A00002101F060F921007B18A2
:1052800003221A607B1801225A607B180122DA601F
:105290007B1810221A617B1802225A627B18802226
:1052A00052029A627B188022D202DA627B180022B4
:1052B0001A637B181800FDF7E3FE031E01D000F00F
:1052C000C5FC1C217B1807221A607B1802225A6039
:1052D0007B1800229A607B180022DA607B1801217B
:1052E0001800FEF753FA031E01D000F0AFFC3B1D7F
:1052F00020221A603B1D0022DA603B1D1800FEF7D9
:105300009FFB031E01D000F0A1FCC046BD4619B0B2
:1053100090BD000080B500AF184B194A1A60174BBA
:105320000C225A60154B00229A60144B0022DA605E
:10533000124BC02212031A61104B802252035A6191
:105340000E4B00221A760D4B01225A760B4B00228F
:105350009A760A4B0022DA76084B00221A77074B1E
:1053600000225A77054B1800FCF776FA031E01D08D
:1053700000F06CFCC046BD4680BDC0462801002040
:105380000064004080B500AF1B4B1C4A1A601A4BEA
:105390001B4A5A60184B00229A60174B0122DA60B0
:1053A000154B00221A61144B00225A61124B002245
:1053B0009A61114B0022DA610F4B00221A620E4BE8
:1053C0001800FDF72FFD031E01D000F03FFC0A4B33
:1053D00000211800FDF7BCFD031E01D000F036FCD3
:1053E000054B00211800FDF7FFFD031E01D000F062
:1053F0002DFCC046BD4680BDDC00002000540040AE
:105400000E09002080B58EB000AF2823FB181800CD
:1054100010231A00002101F091F82023FB18180036
:1054200008231A00002101F089F83B1D18001C23F5
:105430001A00002101F082F8354B8022D2051A6053
:10544000334B2F225A60324B00229A60304B63223A
:10545000DA602F4B00221A612D4B00229A612C4BEF
:105460001800FEF7DBFB031E01D000F0EFFB282144
:105470007B18802252011A607A18254B11001800FF
:10548000FEF746FE031E01D000F0E0FB204B1800A3
:10549000FEF714FC031E01D000F0D8FB20217B187E
:1054A00000221A607B1800225A607A18184B1100EB
:1054B0001800FFF7FFF9031E01D000F0C7FB3B1DEA
:1054C00060221A603B1D00225A603B1D00229A6038
:1054D0003B1D00221A61391D0D4B00221800FEF7FA
:1054E00067FD031E01D000F0B1FB391D084B0C22F3
:1054F0001800FEF75DFD031E01D000F0A7FB044B72
:10550000180000F0F1FEC046BD460EB080BDC0469A
:105510006801002090B589B000AF0C243B19180039
:1055200014231A00002101F009F8414B5A69404B3D
:105530008021C9020A435A613D4B5A698023DB022C
:105540001340BB60BB683A4B5A69394B8021C90391
:105550000A435A61364B5A698023DB0313407B6050
:105560007B68334B5A69324B802189020A435A6166
:105570002F4B5A6980239B0213403B603B682D49A7
:105580009023DB0500221800FDF72EFC2A4B002299
:1055900031211800FDF728FC3B19264A1A603B19F7
:1055A00001225A603B1900229A603B190022DA60FE
:1055B0003A199023DB0511001800FDF7ADFA3B19ED
:1055C000F0221A603B1900225A603B1900229A60AF
:1055D0003A199023DB0511001800FDF79DFA210010
:1055E0007B1831221A607B1801225A607B18002236
:1055F0009A607B180022DA600C007B180E4A1900B2
:105600001000FDF789FA21007B180A221A607B1826
:1056100000225A607B1800229A607B18064A190003
:105620001000FDF779FAC046BD4609B090BDC046EE
:1056300000100240068000000004004890B583B0CE
:1056400000AF040008001100BB1D221C1A803B1D86
:10565000021C1A80FB1C0A1C1A70FCF7F3F80200EB
:105660002A4B1B689A4245D9294B1B78FA1C1278A1
:105670009A422ED9FCF7E6F80200264B1B68D21A94
:10568000BB1D1B889A423CD9234B1B785A4253417D
:10569000DBB21A00204B1A701F4B1B78002B05D170
:1056A0001B4B1B780133DAB2194B1A701A4B1B785B
:1056B0005A1E9341DBB21A00802319029023DB05A6
:1056C0001800FDF791FBFCF7BDF80200114B1A60C2
:1056D00017E0FCF7B7F802000E4B1B68D21A3B1D0F
:1056E0001B889A420DD90A4B00221A70094B0022DE
:1056F0001A6006E0084B1B78002B02D1064B0122F2
:105700001A70C046BD4603B090BDC0463C000020A4
:105710005C000020600000206400002080B500AF25
:10572000FFF7A0F9031E5CD1304B002220211800A6
:10573000FDF75AFBFFF790F92D4B1B681B0EDAB2F1
:105740002C4B1A7000F096F903001A000123534005
:10575000DBB2002B03D1274B1B78072B0BD9254B32
:1057600000221A70224B1B681B021A0A204B1A6077
:10577000214B01221A701F4B1B785A001F4B5200FD
:10578000D05A1C4B1B785B005A1C1C4B5200D35A3E
:10579000190000F009F9FFF765F9031E23D1184B32
:1057A0001800FCF749FA031E03D0164B82221A7028
:1057B0001AE0134B03211800FCF77FFC031E03D0F3
:1057C000104B83221A700FE00F4B01225A600E4BD0
:1057D0000022DA600C4B00229A600B4B00221A75F3
:1057E00002E0C04600E0C046BD4680BD000400485F
:1057F00050010020400000205200002010670008E7
:10580000280100205000002098000020B0B500AF13
:10581000564B1B68013300D1A5E0544B1B68002B8D
:1058200033D1FCF70FF80400514B1A68514B1B6839
:10583000D218514B1B68D218504B1B68D3185049D3
:105840001800FAF7E7FC0B00C8339C421DD9FBF7A0
:10585000F9FF0200454B1A604A4B22221A704A4B4C
:105860001B781A00494B5200D35A1800454B1A00B6
:105870000121FFF79FF803001A0001235340DBB218
:10588000002B02D0424B07221A70384B1B68002BAA
:105890006AD0404B1B78002B58D03F4B1B7801330C
:1058A000DAB23D4B1A703C4B1B78082B07D1384BB2
:1058B00072221A702D4B012252421A6042E0324B82
:1058C0001B780133DAB2304B1A702F4B1B78082B40
:1058D00002D12D4B00221A70304B1B681B021A0A92
:1058E0002E4B1A602D4B1B68274A127812061A435A
:1058F0002A4B1A602A4B01221A7000F0CDF8224B75
:105900001B785A00214B5200D05A1F4B1B785B006A
:105910005A1C1E4B5200D35A190000F045F8134B85
:1059200000221A60802319029023DB05012218004F
:10593000FDF75AFAFBF786FF0300962292009A18A9
:10594000184B1A60134B00221A700DE0FBF77AFF18
:105950000200064B1B68D31A642B05D9034B0122A6
:1059600052421A6000E0C046BD46B0BD4C00002067
:10597000ACF7FF1FB0F7FF1FB4F7FF1FB8F7FF1F0B
:10598000032600009000002040000020106700085F
:10599000500000204800002041000020500100205D
:1059A000520000203C00002080B582B000AF020011
:1059B000BB1D1A803B1D0A1C1A801C4B00225A6119
:1059C0001A4B01229A61194B0022DA61BB1D1B8818
:1059D0005B011A00154B1A603B1D1B885B011A0006
:1059E000124B5A60BB1D1B885B011A000F4B9A605B
:1059F0003B1D1B885B011A000C4BDA600B4B00222D
:105A00001A610A4B01221A62084B0E225A62074A97
:105A1000074B11001800FCF71DF8031E02D0054BC0
:105A200098221A70C046BD4602B080BDB00000206A
:105A3000280100205000002080B500AF0A4B1B68F1
:105A40001B021A0A084B1A60074B1B68074A127898
:105A500012061A43044B1A60054B01221A7000F01B
:105A60001BF8C046BD4680BD50010020400000200C
:105A70005200002080B500AF054B5B68054A944694
:105A800063445A425341DBB21800BD4680BDC04654
:105A90005001002088A9CBED80B582B000AF164B35
:105AA0001B78002B23D0154B154A5A60FFF753F88B
:105AB000144B1800FEF7E4FF124B3B60FB1D002265
:105AC0001A700EE0FB1D1A780C4B9200D2583B0066
:105AD00011001800FFF71BF8FB1D1A78FB1D01329F
