:020000040800F2
:1000000000000120C96A00082D18000833180008F4
:10001000391800083F1800084518000800000000C3
:100020000000000000000000000000004B18000865
:10003000591800080000000067180008751800082B
:10004000196B0008196B0008196B0008196B000880
:10005000196B0008196B0008196B0008196B000870
:10006000196B0008196B0008196B0008196B000860
:10007000196B0008196B0008196B0008196B000850
:10008000196B0008196B0008196B0008196B000840
:1000900081180008196B0008196B0008196B00081B
:1000A000196B0008196B0008196B0008196B000820
:1000B000196B00080000000000000000196B000828
:1000C000196B00080000000000000000196B000818
:1000D00000000000196B0008196B00080000000008
:1000E000196B0008196B00080000000000000000F8
:1000F0000000000000000000000000000000000000
:10010000000000000000000000000000196B000863
:100110000000000000000000196B0008196B0008C7
:10012000196B0008196B0008196B0008196B00089F
:10013000196B000800000000000000000000000033
:10014000196B0008196B0008196B0008196B00087F
:10015000196B0008196B0008196B0008196B00086F
:10016000196B0008196B0008196B000800000000EB
:10017000196B0008196B0008000000000000000067
:0C018000196B0008196B0008196B0008CF
:10018C0010B5054C237833B9044B13B10448AFF3C5
:10019C0000800123237010BDEC0200200000000041
:1001AC005CA0000808B5034B1BB103490348AFF32F
:1001BC00008008BD00000000F00200205CA00008D8
:1001CC0080B586B000AFF8600B467A60FB72144ABB
:1001DC00FB681360FB7A124A13610023FB7509E07C
:1001EC00FB7D7A681A44FB7D11780E4AD154FB7D55
:1001FC000133FB75FA7DFB7A9A42F1D30A4B094A1B
:10020C0007490A4806F001FF0346002B02D0084BB1
:10021C000B221A70012318461837BD4680BD00BF4B
:10022C00740300206C03002030040020A005002083
:10023C002403002080B400AF00BFBD465DF8047BF2
:10024C007047000080B400AF054B1B78642B8CBF4B
:10025C0001230023DBB21846BD465DF8047B7047D2
:10026C002403002080B485B000AF78607B681B68E5
:10027C001B68FB607B681B681A1D7B681A60FB6837
:10028C0018461437BD465DF8047B704780B483B0C4
:10029C0000AF7860124B1B687A68D31AB3F57A7F7B
:1002AC0012D9104B1B684FF47A7202FB03F20C4B01
:1002BC001B687968CB1AB2FBF3F39AB20A4B1A801B
:1002CC00074A7B68136004E0064B1B680133054A40
:1002DC00136000BF0C37BD465DF8047B704700BF50
:1002EC0010030020080300200C03002080B400AF92
:1002FC00034B1B881846BD465DF8047B704700BF56
:10030C000C03002080B588B000AF06F000FC00F0B4
:10031C00BDFA00F09FFB00F027FB00F05BFB00F048
:10032C0097FF00F09FFC01F001F8A44B9B6823F0B1
:10033C007C43A24A93600F23FB76A04B9B68FA7E0A
:10034C00D206134343F080639C4A93609C4B01227A
:10035C001A7000F079FE00F01DFE0346002B14D03D
:10036C00964B9B689B0E03F00103002B0DD0934B17
:10037C009B68DB0EFB76934B5B6823F0FE43FA7EA7
:10038C00120611468F4A0B4353608F4B1B78002B80
:10039C0000F0B5818D4B1B789AB28D4B1A808C4B2B
:1003AC001B881B2B00F0F1801B2B13DC112B00F096
:1003BC00EF80112B05DC052B21D0102B00F0F380E6
:1003CC0049E1142B00F01E81192B44D0122B00F0A4
:1003DC003E8140E1302B5DD0302B07DC232B13D03A
:1003EC00242B00F06881222B12D034E1422B00F038
:1003FC009080FF2B00F0B080402B72D02BE100F0EE
:10040C00DFFB00F021FE5FE1724B01221A705BE111
:10041C00714B1B68002B05D06F4B1B68B3F1FF3F72
:10042C0040F04B816D4B23221A706D4B1B781A4692
:10043C006C4B33F81230694A01211846FFF7C0FEA5
:10044C00034683F00103DBB2002B00F03681664BD0
:10045C0007221A7031E1614B1A221A705F4B052288
:10046C005A705E4B00229A705D4B1B781A465F4B9C
:10047C0033F81230594A03211846FFF7A1FE034600
:10048C0083F00103DBB2002B00F01981564B2522BF
:10049C001A7014E1514B31221A70FFF727FF0346F3
:1004AC00DAB24E4B5A70FFF721FF03461B0A9BB280
:1004BC00DAB24A4B9A704A4B1B781A464B4B33F8BC
:1004CC001230464A03211846FFF77AFE034683F0A2
:1004DC000103DBB2002B00F0F480434B25221A7091
:1004EC00EFE03A4B5B78102B03D93F4B32221A705A
:1004FC00EAE0364B5A783A4B1A7000F02DFD384B27
:10050C001B781A46374B33F81230184600F0DEFCD5
:10051C00DAE02E4B5B78002B1AD02C4B5B78032B3C
:10052C0016D82A4B5A78324B1A70244B1B6823F07E
:10053C00FF03224A1360214B1B682D4A1278134388
:10054C001E4A13601E4B01221A7000F07DFDBBE0A9
:10055C00254B39221A70B7E0204BFF221A70204B22
:10056C001B781A46214B33F812301C4A01211846CD
:10057C00FFF726FE034683F00103DBB2002B00F0ED
:10058C00A280194B07221A709DE007F094FA9BE0A9
:10059C00184B01221A70184B4FF6FF721A80174B2A
:1005AC0000221A6090E0144B4FF6FF721A80144B25
:1005BC0001221A70114B00221A6085E020040020E1
:1005CC002603002000100240300300209805002074
:1005DC001A0300201C030020200300206C030020C1
:1005EC0018030020B8A2000824030020D8A2000899
:1005FC00310300202B030020280300202C030020B3
:10060C002A030020924B4FF6FF721A80914B012265
:10061C001A70914B00221A60904B41221A70904B29
:10062C001B781A468F4B33F812308C4A012118462E
:10063C00FFF7C6FD034683F00103DBB2002B02D0AB
:10064C00894B39221A70844B00221A603CE0814B92
:10065C0000221A7038E0844B27221A70834A3B1D03
:10066C0007CA83E8070007F1100300221A605A60DA
:10067C007F4B1B8818463B461022194609F08CFC10
:10068C000023FB770FE0FA7FFB7F013307F120019A
:10069C000A4412F8202C07F120010B4403F81C2CFF
:1006AC00FB7F0133FB77FB7F022BECD93B1D1846FC
:1006BC0000F080FF08E000BF06E000BF04E000BFD0
:1006CC0002E000BF00E000BF6A4B00221A706A4BC8
:1006DC001B69022B13D9664B1B88102B03D0644B60
:1006EC001B88142B0BD1654B5B781AB2634B9B7830
:1006FC001B021BB213431BB29AB2614B1A80FFF759
:10070C00A1FD034683F00103DBB2002B51D0514B0A
:10071C001B78002B03D15B4B1B78002B49D006F0C8
:10072C005FFA02464C4B1B68D31A554A1288934207
:10073C003FD9544B00221A7000F040FC0346BB8397
:10074C00494B1B78632B34D8BB8BB3F5FA6F02D9AA
:10075C004FF4FA63BB833E4B1B88BA8B9A4228D06A
:10076C003E4B13221A70BB8BDAB23C4B5A70BB8BCC
:10077C001B0A9BB2DAB2394B9A70394B1B781A466A
:10078C00384B33F81230354A03211846FFF718FD61
:10079C00034683F00103DBB2002B02D0324B08225C
:1007AC001A7006F01DFA02462B4B1A60284ABB8BB6
:1007BC00138000F0C1FA2C4B1A78334B1B789A42F9
:1007CC0022D0294B1B78002B1AD0244BEE221A7006
:1007DC00254B1A78214B5A70214B1B781A46214B0A
:1007EC0033F812301D4A02211846FFF7E9FC034684
:1007FC0083F00103DBB2002B02D01B4B6E221A706C
:10080C00194B1A78204B1A70174B1B78002B06D1FA
:10081C0001224FF47A710A2000F068F910E0124BB3
:10082C001B78632B06D802224FF47A710A2000F051
:10083C005DF905E003224FF47A710A2000F056F9B5
:10084C0006F0CEF903461846FFF720FD9DE500BFE4
:10085C00280300202A0300202C0300206C03002016
:10086C0018030020D8A200082403002074A000085C
:10087C001A03002030030020C80500209805002032
:10088C00000000202B0300202503002080B5ACB015
:10089C0000AF07F16C0344220021184609F089FBD4
:1008AC0007F1580300221A605A609A60DA601A61E4
:1008BC003B1D54220021184609F07BFB0223FB66EA
:1008CC004FF48073BB674023FB670223C7F8943057
:1008DC000223C7F898300123C7F89C300A23C7F8C5
:1008EC00A0300723C7F8A4300223C7F8A83002238E
:1008FC00C7F8AC3007F16C03184608F045FA03460C
:10090C00002B01D000F0D3FE0F23BB650323FB6546
:10091C0000233B6600237B660023BB6607F158036C
:10092C000421184608F050FE0346002B01D000F0BD
:10093C00BEFE40237B6000233B633B1D184609F041
:10094C000DF80346002B01D000F0B1FE4FF40070FF
:10095C0008F0C4F90346002B01D000F0A8FE00BF3C
:10096C00B037BD4680BD000080B500AF174B184AAC
:10097C001A60164B14225A60144B00229A60134BC7
:10098C000022DA60114B4FF440221A610F4B4FF4E6
:10099C0080125A610D4B00221A760C4B01225A76AA
:1009AC000A4B00229A76094B0022DA76074B00227A
:1009BC001A77064B00225A77044806F01DF90346B5
:1009CC00002B01D000F073FE00BF80BDA0050020FD
:1009DC000064004080B500AF1B4B1C4A1A601A4BD8
:1009EC001B4A5A60184B00229A60174B0122DA609E
:1009FC00154B00221A61144B00225A61124B002233
:100A0C009A61114B0022DA610F4B00221A620E48D8
:100A1C0007F058FC0346002B01D000F048FE0021E3
:100A2C00094808F0B5F80346002B01D000F03FFE52
:100A3C000021054808F0F7F80346002B01D000F020
:100A4C0036FE00BF80BD00BFD40300200054004020
:100A5C00EC9C901080B588B000AF07F10C0300221D
:100A6C001A605A609A60DA601A611F4BDB6C1E4A7E
:100A7C0043F00403D3641C4BDB6C03F00403BB6036
:100A8C00BB68194BDB6C184A43F00103D364164B5B
:100A9C00DB6C03F001037B607B68134BDB6C124A4D
:100AAC0043F00203D364104BDB6C03F002033B6096
:100ABC003B6800224FF480714FF0904007F0EAFB46
:100ACC004FF48073FB6001233B6100237B610023A7
:100ADC00BB6107F10C0319464FF0904007F070FA18
:100AEC0000BF2037BD4680BD0010024080B582B0EB
:100AFC0000AF0346FB800B46BB801346FB7006F031
:100B0C006FF802462A4B1B689A4245D9294B1B7831
:100B1C00FA789A4230D906F063F80246264B1B68E5
:100B2C00D21AFB889A423ED9244B1B78002B0CBF5F
:100B3C0001230023DBB21A46204B1A701F4B1B7883
:100B4C00002B05D11B4B1B780133DAB2194B1A70F1
:100B5C001A4B1B78002B14BF01230023DBB21A465F
:100B6C004FF480714FF0904007F094FB06F038F88A
:100B7C000246114B1A6016E006F032F802460E4B94
:100B8C001B68D21ABB889A420DD90A4B00221A70E4
:100B9C00094B00221A6006E0084B1B78002B02D18F
:100BAC00064B01221A7000BF0837BD4680BD00BF3E
:100BBC0014030020320300203403002038030020EB
:100BCC0080B582B000AF01224FF480714FF090409D
:100BDC0007F060FB1D4B1B68BA1DF91D184601F090
:100BEC00C9FE03461A461A4B1A70194B93F900307A
:100BFC00002B03D0174B78221A7024E0164B1B687D
:100C0C0003F07F43144A1360134B1B68FA791204E8
:100C1C001343114A1360104B1B68BA791202134329
:100C2C000D4A13600C4B1B680C4A127813430A4A8A
:100C3C0013600B4B01221A7000224FF480714FF09D
:100C4C00904007F027FB0837BD4680BD34040020D8
:100C5C00E4050020240300202004002031030020A0
:100C6C002603002080B500AFFFF7ECFA0346002BFB
:100C7C004FD1FFF7DFFA294B1B681B0EDAB2284B5A
:100C8C001A7000F087F9034683F00103DBB2002BE6
:100C9C0003D1234B1B780F2B0BD9214B00221A703D
:100CAC001E4B1B6823F07F431C4A13601D4B012213
:100CBC001A701B4B1B781A461B4B33F81230184614
:100CCC0000F004F9FFF7BEFA0346002B23D11748B6
:100CDC0006F057F90346002B03D0154B82221A70ED
:100CEC001AE00321114806F07DFB0346002B03D0CC
:100CFC000F4B83221A700FE00E4B01225A600D4BE2
:100D0C000022DA600B4B00229A600A4B00221A7503
:100D1C0002E000BF00E000BF80BD00BF2004002047
:100D2C001803002026030020B8A20008A00500200C
:100D3C00240300207403002080B500AF544B1B68C3
:100D4C00B3F1FF3F00F0A180514B1B68002B37D152
:100D5C0005F046FF4F4B1A684F4B1B681A444F4B1C
:100D6C001B681A444E4B1B681A444E4BA3FB0213D0
:100D7C00D11A49080B445B0B42F2036101FB03F3EC
:100D8C00D31AC83398421BD905F02AFF0246404BB0
:100D9C001A60454B22221A70444B1B781A46444B5E
:100DAC0033F81230404A01211846FFF709FA03467E
:100DBC0083F00103DBB2002B02D03E4B07221A70EA
:100DCC00334B1B68002B61D03B4B1B78002B4FD057
:100DDC003A4B1B780133DAB2384B1A70374B1B780D
:100DEC00102B07D1334B72221A70294B4FF0FF3264
:100DFC001A6039E02D4B1B780133DAB22B4B1A7089
:100E0C002A4B1B78102B02D1284B00221A702C4B2A
:100E1C001B6823F07F432A4A1360294B1B68234A23
:100E2C00127812061343264A1360264B01221A70BD
:100E3C0000F00AF91D4B1B781A461D4B33F8123083
:100E4C00184600F043F8124B00221A6001224FF4AE
:100E5C0080714FF0904007F01DFA05F0C1FE03467B
:100E6C0003F51673184A1360134B00221A700DE029
:100E7C0005F0B6FE0246064B1B68D31A642B05D947
:100E8C00034B4FF0FF321A6000E000BF80BD00BF83
:100E9C00200300209075FF1F9475FF1F9875FF1F8E
:100EAC009C75FF1F8D6406AF6C0300201803002097
:100EBC00B8A20008240300201C0300201903002002
:100ECC0020040020260300201403002080B582B0EB
:100EDC0000AF0346FB80FFF7B5F90346002B30D17A
:100EEC001A4B00225A61194B01229A61174B0122AD
:100EFC00DA61FB885B011A46144B1A60FB885B01B4
:100F0C001A46124B5A60FB885B011A460F4B9A60CB
:100F1C00FB885B011A460D4BDA600C4B00221A6100
:100F2C000A4B01221A62094B0E225A6207490848E1
:100F3C0005F05DFF0346002B04D0064B98221A7077
:100F4C0000E000BF0837BD4680BD00BF8C03002009
:100F5C00A00500202403002080B500AF0A4B1B68BD
:100F6C0023F07F43084A1360074B1B68074A12782B
:100F7C0012061343044A1360054B01221A7000F049
:100F8C0063F800BF80BD00BF2004002018030020C0
:100F9C002603002080B400AF064B5B68064A9342E0
:100FAC000CBF01230023DBB21846BD465DF8047B61
:100FBC00704700BF200400207856341280B582B0F0
:100FCC0000AF1D4B3B600023FB801C4B1B6818467D
:100FDC0000F03AFB03461A46194B1A70184B93F95A
:100FEC000030002B20D1154B1B683968184601F0D6
:100FFC003DFE03461A46124B1A70114B93F9003002
:10100C00002B02D00F4B51221A703B681B89FB80BE
:10101C000A4B1B680421184602F0D8F8074B1B68D2
:10102C00184605F03CFD02E0064B82221A70FB8844
:10103C0018460837BD4680BDB40300203404002098
:10104C00E4050020240300202DE9904888B000AF6F
:10105C00FFF7F8F80346002B76D13E4B1B78002B9C
:10106C0073D03D4B3D4A5A6006F0A2FD0346002B5F
:10107C0003D03B4B0F221A7067E03A4B4FF40042FF
:10108C001A61394800F0A4F87861384800F0A0F8EB
:10109C0002467B69D31A01333B61354B00221A603F
:1010AC00334B00225A60324A7B699360304A3B6969
:1010BC00D36000237B603B1D19462D4806F05AFE79
:1010CC000346002B03D0264B10221A703DE0264B12
:1010DC00FB610023FB7631E0FB7E5B0001331E4A93
:1010EC0052F8233019464FF000024FF0000B4FF02E
:1010FC00000C8C464FF0000BFA7E5200164951F84A
:10110C00222011464FF000024BEA01034CEA020484
:10111C00C7E90234D7E90223F969002006F0DCFCA8
:10112C000346002B03D1FB690833FB6103E00C4B36
:10113C0011221A7009E0FB7E0133FB76FB7E012B3A
:10114C00CAD906F057FD00E000BF2037BD46BDE808
:10115C00908800BF2603002020040020785634120B
:10116C00240300200020024000F801080FF80108B9
:10117C003C03002080B582B000AF2023FB7100231C
:10118C00BB710E4B1B68BA79F979184601F0D4F98A
:10119C0003461A460A4B1A70094B93F90030002B80
:1011AC0003D0084B76221A7004E0074B1B68DAB2A6
:1011BC00064B1A700837BD4680BD00BF34040020B2
:1011CC00E40500202403002020040020310300202B
:1011DC0080B485B000AF78600023FB60194B1B68AE
:1011EC009BB24FF6FF72934207D0164B1B689A02C4
:1011FC00154B134003F1006300E0144B7A689342E3
:10120C0005D97B6803F17843DB0AFB6013E00D4BD7
:10121C001B689BB24FF6FF72934207D0094B1B68B9
:10122C009A02094B134003F1006300E0074B7A6804
:10123C00D31ADB0AFB60FB6818461437BD465DF811
:10124C00047B7047E075FF1F00FCFF0300000408DF
:10125C0090B583B000AF0E4B1B68DAB20D4B1A7011
:10126C000D4B3B600023FB710BE0FC793B461846B1
:10127C00FEF7F8FF0246064B43F82420FB790133B6
:10128C00FB71FB79032BF0D900BF0C37BD4690BD29
:10129C00200400203103002000F8010880B582B042
:1012AC0000AF7860094B0A4A0021786805F088FF86
:1012BC000346002B02D0074B5A221A70064B012210
:1012CC001A7000BF0837BD4680BD00BF98050020CE
:1012DC00C8050020240300203003002080B582B014
:1012EC0000AF0F4B1B68BA1DC021184605F099FBC7
:1012FC0003461A460B4B1A700A4B93F90030002B1D
:10130C0003D0094B7C221A7007E0FB884EF6AA62C8
:10131C00934202D0044B89221A700837BD4680BD17
:10132C0034040020E40500202403002080B584B0A0
:10133C0000AF9A4B9A4A1A60994B292283F85C2188
:10134C00FFF7CCFFFEF77EFF034683F00103DBB211
:10135C00002B10D0914B1B68184600F0DFFA0346A7
:10136C001A46904B1A708F4B93F90030002B02D019
:10137C008D4B66221A70FEF765FF034683F001035E
:10138C00DBB2002B10D0854B1B68184600F02AFCF2
:10139C0003461A46834B1A70824B93F90030002B8C
:1013AC0002D0814B67221A70FFF7F4FD0346002B25
:1013BC0002D0FFF7DFFE01E0FFF702FC774B1B6862
:1013CC0001220021184601F0CFF803461A46754B4E
:1013DC001A70744B93F90030002B03D0714B93F9B6
:1013EC000030D7E06D4B1B6801220121184601F03B
:1013FC00BBF803461A466B4B1A706A4B93F90030D4
:10140C00002B03D0674B93F90030C3E0674B1B787C
:10141C00012B1ED0022B0FD0002B28D141F6991393
:10142C00FB604FF47013BB6048F2E8037B6012233F
:10143C00FB700E23BB701DE04FF48043FB604FF438
:10144C009013BB605A4B7B600E23FB700A23BB705E
:10145C0010E04FF48043FB604FF40013BB6044F684
:10146C0020637B600E23FB700A23BB7002E06FF0DD
:10147C0002038FE0494B1B68FA680121184601F002
:10148C0023F903461A46474B1A70464B93F9003022
:10149C00002B03D0434B93F900307BE03F4B1B6890
:1014AC00BA680021184601F00FF903461A463D4B65
:1014BC001A703C4B93F90030002B03D0394B93F945
:1014CC00003067E0354B1B687968184600F016FE53
:1014DC0003461A46334B1A70324B93F90030002BEB
:1014EC0003D0304B93F9003054E02C4B1B68FA7846
:1014FC000021184600F028FE03461A46294B1A70A4
:10150C00284B93F90030002B03D0264B93F9003075
:10151C0040E0224B1B68BA780121184600F014FEFB
:10152C0003461A461F4B1A701E4B93F90030002BC2
:10153C0003D01C4B93F900302CE01B4B1B78632B16
:10154C0011D8164B1B680121184600F05DFD0346AF
:10155C001A46144B1A70134B93F90030002B02D01F
:10156C00114B8F221A700F4B93F90030002B10D1B6
:10157C000A4B1B68184601F079FA03461A46094BC8
:10158C001A70084B93F90030002B02D0064B9022B6
:10159C001A70002318461037BD4680BD3404002055
:1015AC0038040020E405002024030020310300202F
:1015BC00400D030080B584B000AF78600023FB734E
:1015CC0032E0FB7B1C33DAB21B4B1A700023BB736B
:1015DC0010E0FA7B1346DB009A1ABB7B13441A46C5
:1015EC007B681A44BB7B01331178134AD154BB7B03
:1015FC000133BB73BB7B062BEBD9104B1B781A4604
:10160C000F4B33F812300C4A08211846FEF7D8FD60
:10161C00034683F00103DBB2002B02D0094B4D22B1
:10162C001A70FB7B0133FB73FB7B032BC9D900BF07
:10163C001037BD4680BD00BF6C030020180300208E
:10164C00D8A200082403002080B586B000AF7860D3
:10165C000023FB750023FB7397F91730002B20D167
:10166C0000233B6107F10F031946786801F0BDFABE
:10167C000346FB75FB7B012B0DD097F91730002B24
:10168C0009D13B6901333B61786805F008FA3B6985
:10169C00B3F5FA6FE6D33B69B3F5FA6F01D3F923CF
:1016AC00FB7597F9173018461837BD4680BD80B4C6
:1016BC0000AF72B6FEE7000080B483B000AF0F4BF2
:1016CC001B6E0E4A43F0010313660C4B1B6E03F0AA
:1016DC0001037B607B68094B9B6D084A43F0805388
:1016EC009365064B9B6D03F080533B603B6800BFDA
:1016FC000C37BD465DF8047B704700BF00100240FC
:10170C0080B58AB000AF786007F1140300221A602C
:10171C005A609A60DA601A617B681B681C4A9342B3
:10172C0031D11C4B9B6D1B4A43F000739365194BD5
:10173C009B6D03F000733B613B69164BDB6C154AE8
:10174C0043F00103D364134BDB6C03F00103FB6028
:10175C00FB684FF4C0537B610223BB610023FB6128
:10176C0003233B6209237B6207F1140319464FF0F4
:10177C00904006F025FC00220021142006F071F99F
:10178C00142006F08AF900BF2837BD4680BD00BF83
:10179C00006400400010024080B58AB000AF786051
:1017AC0007F1140300221A605A609A60DA601A6119
:1017BC007B681B68174A934227D1174BDB6C164A80
:1017CC0043F00203D364144BDB6C03F002033B6164
:1017DC003B69C0237B611223BB610123FB610323A3
:1017EC003B6204237B6207F1140319460B4806F095
:1017FC00E7FB094B9B6D084A43F400139365064BBA
:10180C009B6D03F40013FB60FB6800BF2837BD46DB
:10181C0080BD00BF0054004000100240000400488E
:10182C0080B400AFFEE780B400AFFEE780B400AF39
:10183C00FEE780B400AFFEE780B400AFFEE780B4F3
:10184C0000AF00BFBD465DF8047B704780B400AFAD
:10185C0000BFBD465DF8047B704780B400AF00BF8D
:10186C00BD465DF8047B704780B500AF05F0A4F968
:10187C0000BF80BD80B500AF024805F0D9FD00BFA8
:10188C0080BD00BFA005002080B400AF174BD3F87B
:10189C008830164A43F47003C2F88830144B1B6826
:1018AC00134A43F001031360114B00229A60104B52
:1018BC001B680F4A23F0A85323F4102313600C4B1E
:1018CC004FF48052DA600A4B1B68094A23F48023D8
:1018DC001360074B00229A61044B4FF000629A6030
:1018EC0000BFBD465DF8047B704700BF00ED00E013
:1018FC000010024080B584B000AF786039600023DE
:10190C00FB733968786801F0C3FC0346FB7397F9E5
:10191C000F3018461037BD4680BD0000B0B596B0EC
:10192C0000AF7860002387F8573097F95730002BB9
:10193C0007D100228821786804F0D6FF034687F887
:10194C0057307B68002283F8F0207B684FF47A7262
:10195C00A3F852217B684FF4C872A3F854217B681A
:10196C009E4AC3F858217B689D4AC3F8D4207B68F3
:10197C0000221A6207F110031946786800F0B4FAD5
:10198C00034687F8573097F95730002B12D10123B3
:10199C003B7400237B747B6803F1100407F1100582
:1019AC000FCD0FC40FCD0FC40FCD0FC495E80F0092
:1019BC0084E80F007B686422A3F834217B684FF421
:1019CC006172A3F836217B684FF4FA72A3F83821C0
:1019DC007B684FF42062A3F83C217B68012283F8DA
:1019EC00502101228021786804F07EFF03461A46BC
:1019FC0097F85730134387F857300122FF21786846
:101A0C0004F072FF03461A4697F85730134387F8D1
:101A1C00573000220021786804F066FF03461A460E
:101A2C0097F85730134387F8573007F10F031A46CE
:101A3C009121786804F0D6FF03461A4697F8573080
:101A4C00134387F85730FA7B7B6883F83A210122DD
:101A5C000021786804F048FF03461A4697F857307F
:101A6C00134387F857300022FF21786804F03CFFBD
:101A7C0003461A4697F85730134387F8573000221D
:101A8C008021786804F030FF03461A4697F85730E7
:101A9C00134387F8573000233B6514E097F9573010
:101AAC00002B14D13B6D9BB201221946786800F0D3
:101ABC005BFD03461A4697F85730134387F85730A7
:101ACC003B6D01333B653B6D052BE7DD00E000BF53
:101ADC0097F95730002B07D100220221786800F0CB
:101AEC0043FD034687F8573097F95730002B07D141
:101AFC0000220321786800F037FD034687F8573041
:101B0C0097F95730002B07D100220421786800F098
:101B1C002BFD034687F8573097F95730002B07D128
:101B2C0000220521786800F01FFD034687F8573026
:101B3C0097F95730002B08D14FF490120021786898
:101B4C0000F0C2FD034687F8573097F95730002B49
:101B5C0008D14FF480420121786800F0B5FD0346AE
:101B6C0087F8573097F95730002B08D14FF40C12E7
:101B7C000221786800F0A8FD034687F8573097F9E2
:101B8C005730002B07D100220321786800F09CFD10
:101B9C00034687F8573097F95730002B0FD17B68E5
:101BAC00FF2283F83021FF220121786804F09CFE8B
:101BBC00034687F857307B68012283F8322197F966
:101BCC005730002B03D17B68002283F8152197F93D
:101BDC00573018465837BD46B0BD00BF856B010065
:101BEC00A4700900B0B59EB002AF7860002387F8EE
:101BFC006F3007F11C0340220021184608F0D9F978
:101C0C0000237B8300237B76002387F86730002337
:101C1C003B6600233B7600237B61002387F85F3013
:101C2C000121786802F0AEFA034687F86F307B68C2
:101C3C0093F813313B667B6893F8143187F85F3067
:101C4C0097F85F30012B0DD897F85F30012B02D13C
:101C5C003B6E202B06D897F85F30002B0ED13B6ED5
:101C6C000C2B0BD907F1180207F1140319467868ED
:101C7C0001F00AFD034687F86F3009E097F85F30F2
:101C8C001A46396E786801F00BFF034687F86F30FF
:101C9C00944BBB6697F96F30002B0FD17B6893F890
:101CAC00503187F8673097F86730002B04D17B6888
:101CBC00D3F84C31BB6601E08A4BBB6697F96F30A9
:101CCC00002B06D1B96E786803F000FE034687F846
:101CDC006F3097F96F30002B0AD100230093042347
:101CEC0000220021786801F017F9034687F86F305D
:101CFC0097F96F30002B21D10122FF21786804F075
:101D0C00F3FD034687F86F3007F11A031A46842156
:101D1C00786804F086FE03461A4697F86F30134332
:101D2C0087F86F300022FF21786804F0DDFD034650
:101D3C001A4697F86F30134387F86F3097F96F3066
:101D4C00002B05D17B8B1B011A467B68C3F8D42072
:101D5C0097F96F30002B08D107F11C0319467868EE
:101D6C0000F0C2F8034687F86F3097F96F30002BFC
:101D7C0010D107F119031946786800F0A0F9034651
:101D8C0087F86F3097F96F30002B03D17A7E7B6820
:101D9C0083F8312197F96F30002B0ED17B6803F15A
:101DAC00100407F11C050FCD0FC40FCD0FC40FCDC0
:101DBC000FC495E80F0084E80F0097F96F30002BE3
:101DCC0011D107F119031A460121786804F00AFEB3
:101DDC00034687F86F3097F96F30002B03D17A7E6A
:101DEC007B6883F8302197F96F30002B07D10022E4
:101DFC000021786800F0D8F9034687F86F3097F91E
:101E0C006F30002B07D100220221786800F0CCF94A
:101E1C00034687F86F3097F96F30002B03D17B683E
:101E2C00032283F8322197F96F30002B09D107F187
:101E3C0013031A460021786800F09EF9034687F8D0
:101E4C006F3097F96F30002B03D1FA7C7B6883F8E5
:101E5C00E82097F96F30002B09D107F113031A46CC
:101E6C000121786800F088F9034687F86F3097F9FC
:101E7C006F30002B03D1FA7C7B6883F8E02097F954
:101E8C006F30002B09D107F10C031A460321786837
:101E9C0002F0F8FE034687F86F3097F96F30002B8D
:101EAC0003D1FA687B68C3F8E42097F96F30002BF4
:101EBC0009D107F10C031A460421786802F0E2FEFE
:101ECC00034687F86F3097F96F30002B03D1FA680F
:101EDC007B68C3F8DC2097F96F3018467037BD4625
:101EEC00B0BD00BF0800002080B584B000AF7860A2
:101EFC0039600023FB733B681946786800F0CCF816
:101F0C000346FB7397F90F30002B07D13B6808335E
:101F1C001946786800F094FA0346FB7397F90F3072
:101F2C00002B02D13B6800221A7397F90F30002B5B
:101F3C0007D13B6810331946786800F0CAFA03469B
:101F4C00FB7397F90F30002B07D13B6814331946FC
:101F5C007868FFF7CFFC0346FB7397F90F30002B23
:101F6C0034D10023BB602AE097F90F30002B2AD123
:101F7C00BB6899B2BB6808339B003A6813440433BE
:101F8C001A46786800F002FC03461A46FB7B1343A2
:101F9C00FB7397F90F30002B17D1BB6899B2BB6854
:101FAC0018333A6813441A46786800F069FB034604
:101FBC001A46FB7B1343FB73BB680133BB60BB68E6
:101FCC00052BD1DD02E000BF00E000BF97F90F3018
:101FDC00002B07D13B683C331946786800F064FC51
:101FEC000346FB7397F90F30002B07D13B68043382
:101FFC001946786800F095F80346FB7397F90F3093
:10200C0018461037BD4680BD80B485B000AF7860EF
:10201C000B46FB700023FB73FB78152B32D801A207
:10202C0052F823F08920000889200008912000082C
:10203C0089200008912000089120000891200008B8
:10204C0091200008912000089120000891200008A0
:10205C009120000891200008912000089120000890
:10206C009120000891200008912000089120000880
:10207C009120000889200008892000087B68FA78E4
:10208C001A7401E0F823FB7397F90F3018461437D4
:10209C00BD465DF8047B704780B485B000AF7860B6
:1020AC0039600023FB737B681A7C3B681A7097F9C4
:1020BC000F3018461437BD465DF8047B704780B569
:1020CC0084B000AF786039600023FB733A68092153
:1020DC00786804F087FC0346FB7397F90F30002BEC
:1020EC0006D13B681B7803F00103DAB23B681A7027
:1020FC0097F90F3018461037BD4680BD80B584B0B7
:10210C0000AF786039600023FB733968786803F09E
:10211C004CFA0346FB7397F90F3018461037BD463F
:10212C0080BD80B584B000AF786039600023FB734C
:10213C003968786803F019FB0346FB7397F90F3085
:10214C0018461037BD4680BD80B584B000AF7860AE
:10215C000B46FB701346BB700023FB73BA78FB78FD
:10216C001946786802F061FF0346FB7397F90F304C
:10217C0018461037BD4680BD80B586B000AFF860FC
:10218C000B467A60FB720023FB75FB7A7A68194662
:10219C00F86803F0D3F90346FB7597F91730184626
:1021AC001837BD4680BD000080B586B000AF7860A2
:1021BC000B46FB701346BB700023FB750023FB73AF
:1021CC000023BB7507F10F031A460121786804F050
:1021DC0009FC0346FB75FB7BBB7597F91730002B8D
:1021EC005AD1BB78012B2BD1FB78042B25D801A21B
:1021FC0052F823F0152200081F220008292200089B
:10220C00332200083D220008BB7D43F01003BB7550
:10221C0043E0BB7D43F02803BB753EE0BB7D43F040
:10222C000403BB7539E0BB7D43F04003BB7534E060
:10223C00BB7D63F07F03BB752FE0FC23FB752CE0AB
:10224C00FB78042B25D801A252F823F06D2200084C
:10225C0077220008812200088B22000895220008B2
:10226C00BB7D23F01003BB7517E0BB7D23F0280367
:10227C00BB7512E0BB7D23F00403BB750DE0BB7D89
:10228C0023F04003BB7508E0BB7D03F07F03BB75F7
:10229C0003E0FC23FB7500E000BFFB7BBA7D9A4298
:1022AC001ED097F91730002B07D1BB7D1A460121A0
:1022BC00786804F019FB0346FB7597F91730002B6F
:1022CC0003D17B68BA7D83F8302197F91730002B46
:1022DC0006D17B685B693B6139697868FFF70EFF53
:1022EC0097F9173018461837BD4680BD80B487B0B3
:1022FC0000AFF8607B600B46FB721346BB72002389
:10230C00FB757B6800221A70FB7A042B36D801A26D
:10231C0052F823F0352300084723000859230008FE
:10232C006B2300087D230008BB7A1B11DBB203F082
:10233C000103DAB27B681A7022E0BB7ADB10DBB2E5
:10234C0003F00103DAB27B681A7019E0BB7A9B10B8
:10235C00DBB203F00103DAB27B681A7010E0BB7ACF
:10236C009B11DBB203F00103DAB27B681A7007E051
:10237C00BB7ADB09DAB27B681A7001E0FC23FB75CF
:10238C0097F9173018461C37BD465DF8047B70472B
:10239C0080B584B000AF786039600023FB730023F4
:1023AC00BB7307F10E031A460121786804F01AFB7F
:1023BC000346FB7397F90F30002B07D1BA7B3B68B0
:1023CC0000217868FFF792FF0346FB7397F90F30F3
:1023DC00002B08D1BA7B3B68023301217868FFF7E8
:1023EC0085FF0346FB7397F90F30002B08D1BA7B9E
:1023FC003B68013302217868FFF778FF0346FB73D3
:10240C0097F90F30002B08D1BA7B3B6803330321BB
:10241C007868FFF76BFF0346FB7397F90F30002BBF
:10242C0008D1BA7B3B68043304217868FFF75EFF60
:10243C000346FB7397F90F3018461037BD4680BD25
:10244C0080B584B000AF786039600023FB7307F16E
:10245C000C031A46F821786804F0E3FA0346FB7380
:10246C0097F90F30002B08D107F108031A46042105
:10247C00786804F0F5FA0346FB7397F90F30002BDC
:10248C000CD1BB89002B05D0BB68BA89B3FBF2F227
:10249C003B681A603B681A687B689A6197F90F3041
:1024AC0018461037BD4680BD80B485B000AF78604B
:1024BC0039600023FB737B681B7FBB733B68BA7B63
:1024CC001A7097F90F3018461437BD465DF8047B27
:1024DC00704780B586B000AF786039600023FB751B
:1024EC0007F10E031A462021786804F09AFA034685
:1024FC00FB7597F91730002B18D1FB89002B09D1EC
:10250C007B681B6A3B613B683A691A607B680022F6
:10251C001A770BE0FB89DB003B613B683A691A6078
:10252C007B683A691A627B6801221A7797F917302F
:10253C0018461837BD4680BD80B584B000AF7860B2
:10254C000B46FB701346BB700023FB73BA78FB7809
:10255C001946786801F026FD0346FB7397F90F3096
:10256C0018461037BD4680BD80B586B000AF786088
:10257C000B467B8013467B700023FB7500233B616D
:10258C000023FB730023BB737B88052B02D9FC2330
:10259C00FB755BE07B78002B06D100233B610023AD
:1025AC00FB730123BB730AE07B887A680C339B00B6
:1025BC0013445B683B610023BB730123FB737B8873
:1025CC00052B41D801A252F823F000BFF1250008D9
:1025DC00FB250008112600081B26000825260008EC
:1025EC003D2600087B68FA7B83F828202EE03B69A7
:1025FC005B0A9BB21A464421786804F095F90346AD
:10260C00FB7523E07B68FA7B83F82A201EE07B684D
:10261C00FA7B83F82B2019E0BB7B5B007B737B7B05
:10262C00FE226021786804F09FF90346FB750DE0EB
:10263C00BB7B1B017B737B7BEF226021786804F0F2
:10264C0093F90346FB7501E0FC23FB7597F91730F2
:10265C00002B0FD17B78002B06D17B887A68134432
:10266C00002283F8282005E07B887A681344012235
:10267C0083F8282097F9173018461837BD4680BDC7
:10268C0080B487B000AFF8600B467A607B81002382
:10269C00FB757B89052B05D9FC23FB757B68002218
:1026AC001A7008E07B89FA68134493F82830BB75DC
:1026BC007B68BA7D1A7097F9173018461C37BD46DF
:1026CC005DF8047B7047000080B586B000AFF86001
:1026DC000B467A607B810023FB757B89FA68134477
:1026EC0093F82830BB75BB7D002B07D17B89FA682A
:1026FC000C339B0013447A685A6040E07B89052BAD
:10270C0030D801A252F823F02D27000835270008F5
:10271C004B270008532700085B2700085B2700089D
:10272C00FB687A685A631FE07B685B0A9BB21A46A7
:10273C004421F86804F0F8F80346FB7514E0FB68D4
:10274C007A68DA6310E0FB687A681A640CE07B68DC
:10275C005B0A9BB21A466421F86804F0E5F803465C
:10276C00FB7501E0FC23FB7597F91730002B06D1A4
:10277C007B89FA680C339B0013447A685A6097F98A
:10278C00173018461837BD4680BD00BF80B588B0DD
:10279C0000AFF8600B467A607B810023FB77002347
:1027AC00BB777B89052B47D801A252F823F000BFD9
:1027BC00D5270008E127000807280008132800087F
:1027CC001F2800081F280008FB685B6BBB610023F7
:1027DC00BB7733E007F116031A464421F86804F07E
:1027EC0020F90346FB7797F91F30002B02D1FB8AA7
:1027FC005B02BB610123BB7720E0FB68DB6BBB6139
:10280C000023BB771AE0FB681B6CBB610023BB7712
:10281C0014E007F116031A466421F86804F001F974
:10282C000346FB7797F91F30002B02D1FB8A5B0222
:10283C00BB610023BB7701E0FC23FB7797F91F30CA
:10284C00002B2AD1BB7F012B24D1BB69002B10D1CB
:10285C007B89FA680C339B0013445B68BB617B6813
:10286C00BA691A607B89FA681344002283F828201D
:10287C0013E07B68BA691A607B89FA680C339B0099
:10288C001344BA695A607B89FA681344012283F8AD
:10289C00282002E07B68BA691A6097F91F30184645
:1028AC002037BD4680BD00BF80B584B000AF7860D6
:1028BC0039600023FB7307F10E031A460121786877
:1028CC0004F090F80346FB7397F90F30002B0ED1F0
:1028DC00BA7B7B6883F83021BB7B5BB2002B03DABD
:1028EC003B6801221A7002E03B6800221A7097F9CB
:1028FC000F30002B04D13B681A787B6883F84C208E
:10290C0097F90F3018461037BD4680BD80B584B09E
:10291C0000AF78600023FB7307F10E03194678684B
:10292C00FFF7BAFB0346FB7397F90F30002B07D167
:10293C00BB7B002B04D1786800F098F80346FB733E
:10294C0097F90F30002B04D1786801F04EFB034649
:10295C00FB7397F90F30002B06D1BB7B002B03D1F7
:10296C007B68032283F8322197F90F301846103711
:10297C00BD4680BD80B586B000AFF860B9607A60A6
:10298C000023FB7501237A68B968F86801F0CDFA69
:10299C000346FB7597F9173018461837BD4680BDAE
:1029AC0080B586B000AF78600B46FB700023FB75DA
:1029BC007B6893F8DA30BB75BB7D012B05D0BB7DF2
:1029CC00022B02D0BB7D032B47D107F10C0307F17F
:1029DC0010020121786800F0C3FB0346FB753B69CC
:1029EC00B3F57F0F03D8FB68B3F57F0F35D997F993
:1029FC001730002B31D1FB78002B06D01A497868A0
:102A0C0002F064FF0346FB7527E00422FF2178687F
:102A1C0003F06AFF03461A46FB7D1343FB75002245
:102A2C007021786803F060FF03461A46FB7D134360
:102A3C00FB750022FF21786803F056FF03461A4607
:102A4C00FB7D1343FB7500228021786803F04CFF5B
:102A5C0003461A46FB7D1343FB7597F9173018464E
:102A6C001837BD4680BD00BFFC00002080B586B085
:102A7C0000AF78600023FB750123FB7307F10E0395
:102A8C0019467868FFF708FB01228021786803F06B
:102A9C002BFF0346FB750122FF21786803F024FF0E
:102AAC000346FB7500220021786803F01DFF0346E6
:102ABC00FB757B6893F83A311A469121786803F0DC
:102ACC0013FF0346FB7501220021786803F00CFF0D
:102ADC000346FB750022FF21786803F005FF0346CF
:102AEC00FB7500228021786803F0FEFE0346FB751F
:102AFC00BB7B012B37D0032B4FD0002B67D101228E
:102B0C000021786803F0F0FE0346FB75FB7B7B73BA
:102B1C0097F91730002B5DD100233B613B69002BEB
:102B2C0008D007F10D031A460021786803F05AFF0C
:102B3C000346FB753B6901333B617A7BFB7B13409E
:102B4C00DBB2FA7B9A4207D197F91730002B03D1ED
:102B5C003B69B3F5FA6FE1D33B69B3F5FA6F39D33F
:102B6C00F923FB7536E097F91730002B05D10121BD
:102B7C007868FFF715FF0346FB7502220021786881
:102B8C0003F0B2FE0346FB7597F91730002B23D1E7
:102B9C007B68042283F832211EE097F91730002B52
:102BAC0005D101217868FFF7FBFE0346FB75042273
:102BBC000021786803F098FE0346FB7597F91730EF
:102BCC00002B0BD17B68042283F8322106E0F8231A
:102BDC00FB7504E000BF02E000BF00E000BF97F906
:102BEC00173018461837BD4680BD80B584B000AF8D
:102BFC00786039600023FB737B6893F8DA30BB7321
:102C0C00BB7B042B12D107F108031946786800F03E
:102C1C001DFB0346FB73BB68042B03D13B680122ED
:102C2C001A701CE03B6800221A7018E007F10D03C3
:102C3C001A461421786803F0D5FE0346FB7397F906
:102C4C000F30002B0BD17B7B03F00103002B03D047
:102C5C003B6801221A7002E03B6800221A7097F957
:102C6C000F3018461037BD4680BD0000B0B596B089
:102C7C0002AF78603960002387F84F3007F12802E3
:102C8C000C231421786803F00AFE034687F84F30B2
:102C9C0097F94F30002B40F0D2803B6800229A7598
:102CAC003B6800221A6097F832309BB21B029AB232
:102CBC0097F833309BB21344A7F84C303B68002292
:102CCC005A6097F82E309BB21B029AB297F82F30AD
:102CDC009BB213449BB25B027B643B687A6CDA60F8
:102CEC0097F830309BB21B029AB297F831309BB2F6
:102CFC001344A7F84230B7F842305B021A463B68DF
:102D0C001A6197F82A309BB21B029AB297F82B30B3
:102D1C009BB21344A7F840303B68B7F840209A8226
:102D2C0097F8283087F83F307B68B3F85231BB876F
:102D3C007B6893F8313187F83B30BB8FB3F57A7FE2
:102D4C0047D0BB8FB7F84C2002FB03F303F5FA73A3
:102D5C00584A82FB03129211DB17D31AA7F84C3096
:102D6C007B681B6A3B877B681B7F87F8373097F83B
:102D7C003730002B2DD03B8FB7F8402002FB03F3EC
:102D8C001B121A467B6C93420DD197F83B30002BEB
:102D9C0004D042F2B823A7F84A3016E048F6E023F4
:102DAC00A7F84A3011E0B7F84C307A6C02FB03F20A
:102DBC003B8FB7F8401001FB03F31B1219467B6CD9
:102DCC005B1AB2FBF3F3A7F84A30B7F84A30A7F80E
:102DDC004C3097F83B30002B0DD0B7F84C309B089B
:102DEC009AB23B681A81B7F84C30DBB29B01DAB26D
:102DFC003B68DA7506E03B68B7F84C201A813B68F3
:102E0C000022DA75B7F8402097F83F1007F1360327
:102E1C0001933B68009313467A6C786803F0FEF9D3
:102E2C0003461A4697F84F30134387F84F3097F9FB
:102E3C004F30002B03D197F836203B681A7697F960
:102E4C004F30002B2FD17B6807F10C0403F1500598
:102E5C000FCD0FC495E8070084E807003B681B8979
:102E6C00BB823B68DB7D87F823303B685B89FB8248
:102E7C003B685B683B613B68DB68BB613B681B691B
:102E8C00FB613B689B8A3B843B681B7E87F8243044
:102E9C007B6803F1500407F10C050FCD0FC495E8C6
:102EAC00070084E8070097F94F3018465037BD46A5
:102EBC00B0BD00BFD34D621080B584B000AF786058
:102ECC0039600023FB7300217868FFF79DF80346F7
:102EDC00FB7397F90F30002B04D17868FFF716FDC0
:102EEC000346FB7397F90F30002B05D139687868CE
:102EFC00FFF7BCFE0346FB7397F90F30002B05D18F
:102F0C000021786800F062F90346FB7397F90F30E3
:102F1C0018461037BD4680BD80B584B000AF7860D0
:102F2C00084611461A460346FB700B46BB70134607
:102F3C007B700023FB73FB78002B02D0F623FB7312
:102F4C0007E1BB78142B10D13B7E002B02D1102350
:102F5C00BB7301E00123BB73BB7B1A4684217868E9
:102F6C0003F0C2FC0346FB73F3E0BB78152B40F077
:102F7C0097800122FF21786803F0B6FC03461A46BD
:102F8C00FB7B1343FB7300220021786803F0ACFC3D
:102F9C0003461A46FB7B1343FB730022FF21786820
:102FAC0003F0A2FC03461A46FB7B1343FB7301227E
:102FBC008021786803F098FC03461A46FB7B134388
:102FCC00FB7302228521786803F08EFC03461A46B7
:102FDC00FB7B1343FB730422FF21786803F084FC12
:102FEC0003461A46FB7B1343FB730022CD21786802
:102FFC0003F07AFC03461A46FB7B1343FB73112246
:10300C00CC21786803F070FC03461A46FB7B134313
:10301C00FB730722FF21786803F066FC03461A460F
:10302C00FB7B1343FB730022BE21786803F05CFC2E
:10303C0003461A46FB7B1343FB730622FF21786879
:10304C0003F052FC03461A46FB7B1343FB73092225
:10305C00CC21786803F048FC03461A46FB7B1343EB
:10306C00FB730022FF21786803F03EFC03461A46EE
:10307C00FB7B1343FB730122FF21786803F034FCC4
:10308C0003461A46FB7B1343FB730022002178682E
:10309C0003F02AFC03461A46FB7B1343FB7358E0F0
:1030AC0097F90F30002B21D17B78042B1BD801A270
:1030BC0052F823F0D5300008DB300008E13000086E
:1030CC00E7300008ED3000080023BB730FE001234C
:1030DC00BB730CE00223BB7309E00323BB7306E054
:1030EC000423BB7303E0F523FB7300E000BF97F9E7
:1030FC000F30002B07D1BB7B1A460A21786803F0EE
:10310C00F3FB0346FB7397F90F30002B0FD13B7E7B
:10311C00002B02D10023BB7301E01023BB73BB7BDC
:10312C00EF228421786803F01FFC0346FB7397F9A8
:10313C000F30002B03D17B687A7883F8DA2097F96B
:10314C000F30002B05D10021786800F03FF80346C2
:10315C00FB7397F90F3018461037BD4680BD00BF82
:10316C0080B586B000AFF8607A603B600B46FB72AE
:10317C000023FB7507F114031A460E21F86803F0BF
:10318C0050FC0346FB75BB8A5B041A460E4B13407E
:10319C007A68136097F91730002B0FD107F11403DD
:1031AC001A460C21F86803F03CFC0346FB75BB8AFD
:1031BC005B041A46044B13403A68136097F91730B6
:1031CC0018461837BD4680BD0000FE1F80B584B080
:1031DC0000AF786039600023FB730023BB730122BE
:1031EC000B21786803F080FB0346FB7300220B2154
:1031FC00786803F079FB03461A46FB7B1343FB7399
:10320C0007F10D031A461321786803F0EBFB034614
:10321C001A46FB7B1343FB73BB7B0133BB737B7B7A
:10322C0003F00703002B06D0BB7B022B03D897F9C6
:10323C000F30002BD3D0BB7B022B01D9F423FB73B3
:10324C0097F90F3018461037BD4680BD80B584B055
:10325C0000AF786039600023FB7307F10E031A4648
:10326C001321786803F0BEFB0346FB73BB7B03F0B2
:10327C0007023B681A60BB7B03F01803002B01D0DC
:10328C00FA23FB7397F90F3018461037BD4680BDF3
:10329C0080B584B000AF786039600023FB7340F2D6
:1032AC00FF73BB814FF480537B8107F108031A46EF
:1032BC002821786803F0B5FB0346FB7397F90F30B0
:1032CC00002B1ED13B89C3F30B039BB23B813B8983
:1032DC001A46B7F90C309A420BDD3A897B89D31A1E
:1032EC009BB21BB21A46FA2303FB02F23B681A602C
:1032FC0007E03B891BB21A46FA2303FB02F23B6838
:10330C001A6097F90F3018461037BD4680BD80B44F
:10331C008BB000AFF860B9607A603B600823BB618A
:10332C000023BB773B684FF0FF321A607A68BB69A9
:10333C00B2FBF3F37B617B68BA69B3FBF2F2B96958
:10334C0001FB02F29B1A3B617B697B6230E000233C
:10335C003B62FA687B6A13441B78FB777A6A7B6959
:10336C009A421ED1FA7F3B6942FA03F3FB773B6921
:10337C003B6216E0FB7F03F00103002B0BD0012313
:10338C00BB777B6ABA6902FB03F23B6A13441A46A9
:10339C003B681A6009E0FB7F5B08FB773B6A0133F3
:1033AC003B623A6ABB699A42E4D37B6A01337B6223
:1033BC007A6ABB689A4202D2BB7F002BC7D000BF8F
:1033CC002C37BD465DF8047B7047000080B485B097
:1033DC0000AF78600123FB737B689B09BB60074AD5
:1033EC00BB6852F82330002B01D10023FB73FB7B0D
:1033FC0018461437BD465DF8047B7047B4020020B4
:10340C0080B489B000AFF860B9607A600023FB77B4
:10341C000823BB617A68BB69B2FBF3F37B617B6801
:10342C00BA69B3FBF2F2B96901FB02F29B1A3B6178
:10343C007A69BB689A4202D3CE23FB7710E0FA6814
:10344C007B6913441B785AB201213B6901FA03F3DF
:10345C005BB2134359B2FA687B691344CAB21A704F
:10346C0097F91F3018462437BD465DF8047B70472A
:10347C0080B584B000AF7860396006233A68B0211B
:10348C00786803F0E5F90346FB7397F90F3018469B
:10349C001037BD4680BD80B584B000AF7860396010
:1034AC0006233A68B021786803F0F9F90346FB73F8
:1034BC0097F90F3018461037BD4680BD80B58CB0DB
:1034CC0000AFF8607A603B600B46FB72002387F814
:1034DC002F303B6CFB613B6C3B620023BB622BE0EF
:1034EC0007F11C033A6AB96B7868FFF710FFFB69A8
:1034FC00B3F1FF3F03D1CE2387F82F3020E0FB69D7
:10350C001A46FB6B13441846FFF760FF03461A4636
:10351C00FB7A934203D0CE2387F82F3010E0FB695F
:10352C003B623A6AB96B3868FFF76AFF3B6A013352
:10353C003B62BB6A0133BB62BA6A7B6C9A42CFD3E3
:10354C00BB6C3A6A1A6097F92F30002B06D1396898
:10355C00F868FFF78DFF034687F82F3097F92F3067
:10356C00002B21D107F114031946F868FFF793FFDC
:10357C00034687F82F3000237B6211E03A687B6AA0
:10358C0013441A7807F114017B6A0B441B789A4296
:10359C0003D0CE2387F82F3006E07B6A01337B62A1
:1035AC007A6ABB6B9A42E9D397F92F3018463037B9
:1035BC00BD4680BD80B58AB000AF7860396000230D
:1035CC0087F82730002387F826307B6893F8303152
:1035DC0087F8263097F92730002B07D1C02201211C
:1035EC00786803F081F9034687F8273097F927307C
:1035FC00002B08D107F1080319467868FFF75CFC2B
:10360C00034687F8273097F92730002B07D1012282
:10361C00FF21786803F068F9034687F8273097F99B
:10362C002730002B07D13A68B621786803F0F9F9F6
:10363C00034687F8273097F92730002B07D1002253
:10364C00FF21786803F050F9034687F8273097F983
:10365C002730002B12D197F826301A4601217868B2
:10366C0003F042F9034687F8273097F92730002BEF
:10367C0004D17B6897F8262083F8302197F92730FE
:10368C0018462837BD4680BD90B59DB006AFF86092
:10369C00B9607A60002387F85730B42387F83A3042
:1036AC0003237B632C233B6300233B650023BB611B
:1036BC0000237B614FF42063FB850023FB64002314
:1036CC00BB640623BB6200237B6200237B64002364
:1036DC0087F8433000237B7400233B740023FB6387
:1036EC00002387F83B30FB68B3F83C31FB850023A3
:1036FC00BB6409E0FA68BB6C134403F592730022B7
:10370C001A70BB6C0133BB64BA6CBB6A9A42F1D3BE
:10371C000122FF21F86803F0E7F8034687F85730D9
:10372C0097F95730002B07D100224F21F86803F08E
:10373C00DBF8034687F8573097F95730002B07D141
:10374C002C224E21F86803F0CFF8034687F8573047
:10375C0097F95730002B07D10022FF21F86803F0AE
:10376C00C3F8034687F8573097F95730002B09D127
:10377C0097F83A301A46B621F86803F0B5F80346C4
:10378C0087F8573097F95730002B07D1002280214A
:10379C00F86803F0A9F8034687F8573097F95730C3
:1037AC00002B0AD107F1100207F111010023F86870
:1037BC0000F0BBFB034687F8573097F95730002BC6
:1037CC0021D100233B653B6DBB610023FB64FB6C8B
:1037DC00D9B2FB6803F59570FB6803F5927497F802
:1037EC003A3007F1180204927A6B03923A6D029206
:1037FC000193BB6A009323460246F868FFF75EFE0E
:10380C00034687F8573097F95730002B74D1BB69B2
:10381C003B6507F112031946F868FFF7CBFE034628
:10382C0087F8573097F95730002B61D17B8AFA8D86
:10383C009A425DD20023BB6409E0FA68BB6C134466
:10384C0003F5927300221A70BB6C0133BB64BA6C23
:10385C00BB6A9A42F1D302E03B6D01333B6597F8AA
:10386C003A203B6D13441846FFF7B0FD0346002B7E
:10387C0003D13A6D3B6B9A42EED30123FB64FB6C94
:10388C00D9B2FB6803F59570FB6803F5927497F851
:10389C003A3007F1180204927A6B03923A6D029255
:1038AC000193BB6A009323460246F868FFF706FEB5
:1038BC00034687F8573097F95730002B1BD1BB695B
:1038CC003B6507F112031946F868FFF773FE0346D0
:1038DC0087F8573097F95730002B0CD17B8AFA8D2B
:1038EC009A4208D2012387F83B307B6BFB6302E0E2
:1038FC000023FB6400E000BF97F95730002B40F029
:10390C00AF807B8AFA8D9A4240F2AA80FB6C87F8D2
:10391C003B307B6BFB63FB6803F5927107F11C0377
:10392C00BA6A184606F03AFB7B8A1A46FB8DD31A04
:10393C00002BB8BF5B427B64002387F8433086E0E2
:10394C00FB6803F5957007F114033A6DB96AFFF73C
:10395C00DEFC7B69B3F1FF3F03D1CE2387F85730F0
:10396C007EE097F83A307A6913441846FFF72EFD3B
:10397C0003461A46FB6C934203D0012387F843306D
:10398C006EE0FB6B0133FB637B693B65FB6803F506
:10399C0092733A6DB96A1846FFF732FD034687F801
:1039AC00573097F95730002B0CD13B6D01333B65E9
:1039BC00FB6803F592731946F868FFF759FD034647
:1039CC0087F8573097F95730002B46D107F112037F
:1039DC001946F868FFF7EEFD034687F8573097F95C
:1039EC005730002B3BD17B8A1A46FB8DD31A002B08
:1039FC00B8BF5B427B627B8AFA8D9A421CD27A6A90
:103A0C007B6C9A4214D907F11C031946F868FFF72E
:103A1C002FFD034687F85730FB6803F5927307F1C7
:103A2C001C01BA6A184606F0B9FAFB6B013BFB6342
:103A3C00012387F843300AE07B6A7B64FB6803F55B
:103A4C00927107F11C03BA6A184606F0A7FA97F8A8
:103A5C004330002B3FF474AF02E000BF00E000BF26
:103A6C0097F95730002B15D1BB68FA6B1A607B683D
:103A7C0097F83B201A70FB68012283F81521BB686C
:103A8C001B68DAB2FB6883F813217B681A78FB6831
:103A9C0083F8142197F9573018465C37BD4690BD12
:103AAC0090B593B006AFF860B9601346FB71002374
:103ABC0087F82F300023BB62B42387F8233006230A
:103ACC00FB612C23BB610122FF21F86802F00CFF83
:103ADC00034687F82F3097F92F30002B07D100229F
:103AEC004F21F86802F000FF034687F82F3097F952
:103AFC002F30002B07D12C224E21F86802F0F4FE57
:103B0C00034687F82F3097F92F30002B07D100226E
:103B1C00FF21F86802F0E8FE034687F82F3097F98A
:103B2C002F30002B09D197F823301A46B621F868AC
:103B3C0002F0DAFE034687F82F3000237B6209E09F
:103B4C00FA687B6A134403F5927300221A707B6A3D
:103B5C0001337B627A6AFB699A42F1D3FB79002BC1
:103B6C0011D002E0BB6A0133BB6297F82320BB6A19
:103B7C0013441846FFF72AFC0346002B03D1BA6AFC
:103B8C00BB699A42EED3FB6803F59570FB6803F5AD
:103B9C00927497F82330F97907F114020492BA68F9
:103BAC000392BA6A02920193FB6900932346024680
:103BBC00F868FFF783FC034687F82F3097F92F300E
:103BCC00002B0CD1FB68012283F81521BB68DAB2FB
:103BDC00FB6883F81321FB68FA7983F8142197F9B1
:103BEC002F3018463437BD4690BD80B584B000AF39
:103BFC0078600B46FB700023FB7397F90F30002B9A
:103C0C000AD1FB7843F00103DBB21A460021786835
:103C1C0002F06AFE0346FB7397F90F30002B04D1B8
:103C2C00786800F0E2F90346FB7397F90F30002B2C
:103C3C0005D100217868FFF7C9FA0346FB7397F9A1
:103C4C000F30002B06D100220021786802F04CFEC8
:103C5C000346FB7397F90F3018461037BD4680BDED
:103C6C0080B584B000AF7860084611461A4603460A
:103C7C00FB700B46BB7013467B700023FB73002359
:103C8C00BB730122FF21786802F02EFE03461A4610
:103C9C00FB7B1343FB7300220021786802F024FEA7
:103CAC0003461A46FB7B1343FB730022FF21786803
:103CBC0002F01AFE03461A46FB7B1343FB73FB7898
:103CCC00002B1ED097F82030002B09D0BA69CB21DD
:103CDC00786802F087FE03461A46FB7B1343FB739E
:103CEC0097F82430002B2AD007F10E031A46EE2148
:103CFC00786802F077FE03461A46FB7B1343FB738E
:103D0C001DE097F82030002B0AD0BB781A46CB2147
:103D1C00786802F0E9FD03461A46FB7B1343FB73FC
:103D2C0097F82430002B0AD07B788022EE2178681B
:103D3C0002F01AFE03461A46FB7B1343FB73012267
:103D4C00FF21786802F0D0FD03461A46FB7B134333
:103D5C00FB7301220021786802F0C6FD03461A4667
:103D6C00FB7B1343FB730022FF21786802F0BCFD40
:103D7C0003461A46FB7B1343FB73BB7B23F01003F8
:103D8C00DAB2FB691A7097F90F3018461037BD4636
:103D9C0080BD80B58AB004AFF860B96011461A4690
:103DAC000B46FB711346BB710023FB750023BB75DF
:103DBC0000237B7500233B750023FB74BB79002B20
:103DCC0003D0FB6893F83031BB7501220121F868F0
:103DDC0002F08AFD0346FB7597F91730002B05D1CD
:103DEC004021F868FFF701FF0346FB7597F9173080
:103DFC00002B15D1FB79012B12D1397D7A7D002353
:103E0C0003930123029307F113030193BB680093FF
:103E1C000B460121F868FFF723FF0346FB7502E010
:103E2C00BB6800221A7097F91730002B12D1BB799E
:103E3C00002B0FD0BB7D1A460121F86802F054FD0F
:103E4C000346FB7597F91730002B03D1FB68BA7D3D
:103E5C0083F8302197F9173018461837BD4680BDC6
:103E6C0080B58AB004AFF860B96011461A460B46AB
:103E7C00FB711346BB710023FB750023BB7500233C
:103E8C007B7500233B75BB79002B03D0FB6893F843
:103E9C003031BB7502220121F86802F025FD034682
:103EAC00FB7597F91730002B05D10021F868FFF747
:103EBC009CFE0346FB7597F91730002B15D1FB7947
:103ECC00012B12D1397D7A7D0123039300230293B8
:103EDC00BB68019307F1130300930B460121F868AB
:103EEC00FFF7BEFE0346FB7502E0BB6800221A70AA
:103EFC0097F91730002B12D1BB79002B0FD0BB7D5B
:103F0C001A460121F86802F0EFFC0346FB7597F99D
:103F1C001730002B03D1FB68BA7D83F8302197F959
:103F2C00173018461837BD4680BD80B586B000AF37
:103F3C00F860B9607A60FB700023FB750023BB75D9
:103F4C00FB6893F83031BB75FA780023B968F868D0
:103F5C00FFF71FFF0346FB7597F91730002B07D1AE
:103F6C00FA7800237968F868FFF77AFF0346FB7547
:103F7C0097F91730002B0FD1BB7D1A460121F86839
:103F8C0002F0B2FC0346FB7597F91730002B03D1F6
:103F9C00FB68BA7D83F8302197F91730184618372B
:103FAC00BD4680BD80B588B004AF78600B46FB7011
:103FBC001346BB700023FB73B978FA780123039383
:103FCC000123029307F10D03019307F10E030093F4
:103FDC000B4600217868FFF743FE0346FB7397F905
:103FEC000F3018461037BD4680BD80B586B000AF87
:103FFC0078600023FB750023FB7300233B6107F102
:10400C000F0319467868FEF7F0FD0346FB7597F928
:10401C001730002B10D1FB7B012B0FD03B690133E8
:10402C003B613B69B3F5FA6F02D3F923FB7506E0EC
:10403C00786802F034FDE2E700BF00E000BF97F9BA
:10404C00173018461837BD4680BD80B485B000AF18
:10405C000346FB710023FB73FB790133DBB25B007E
:10406C00FB73FB7B18461437BD465DF8047B704729
:10407C0080B485B000AF0346FB710023FB73FB7962
:10408C005B08DBB2013BFB73FB7B18461437BD4668
:10409C005DF8047B704780B485B000AF7860002376
:1040AC00FB604FF08043BB6002E0BB689B08BB60C9
:1040BC00BA687B689A42F8D817E0FA68BB68134470
:1040CC007A689A420BD3FA68BB6813447A68D31A9D
:1040DC007B60FB685B08BA681344FB6002E0FB681A
:1040EC005B08FB60BB689B08BB60BB68002BE4D122
:1040FC00FB6818461437BD465DF8047B704780B5E5
:10410C0086B000AF78600023FB75002283217868AD
:10411C0002F0EAFB03461A46FB7D1343FB7597F945
:10412C001730002B1ED100233B6107F10F031A46F9
:10413C008321786802F056FC0346FB75FB7B002B51
:10414C000AD197F91730002B06D13B6901333B613B
:10415C003B69B3F5FA6FE8D33B69B3F5FA6F01D35A
:10416C00F923FB7501228321786802F0BDFB03461D
:10417C001A46FB7D1343FB7597F917301846183711
:10418C00BD4680BD80B598B000AF78600B46FB7023
:10419C00002387F85F30002387F85E30002387F810
:1041AC005D300023BB6200237B620023BB640023D1
:1041BC00A7F85A304FF4C8537B6400237B65002367
:1041CC003B6500233B647B6893F8F03087F83F3005
:1041DC0097F83F30072B00F0088401228021786883
:1041EC0002F082FB03461A4697F85F30134387F8B8
:1041FC005F300122FF21786802F076FB03461A46F5
:10420C0097F85F30134387F85F30002200217868FD
:10421C0002F06AFB03461A4697F85F30134387F89F
:10422C005F300622FF21786802F05EFB03461A46D7
:10423C0097F85F30134387F85F3007F137031A465E
:10424C008321786802F0CEFB03461A4697F85F305C
:10425C00134387F85F3097F8373043F00403DBB231
:10426C001A468321786802F03FFB03461A4697F8FA
:10427C005F30134387F85F300722FF21786802F024
:10428C0033FB03461A4697F85F30134387F85F30C9
:10429C0001228121786802F027FB03461A4697F821
:1042AC005F30134387F85F30786802F0F8FB034601
:1042BC001A4697F85F30134387F85F30012280214C
:1042CC00786802F011FB03461A4697F85F301343E7
:1042DC0087F85F30FB7803F00103002B00F0988027
:1042EC0097F83F3003F00103002B40F091806B22D4
:1042FC009421786802F0F8FA03461A4697F85F3072
:10430C00134387F85F307868FFF7F9FE03461A46C7
:10431C0097F85F30134387F85F3007F130031A4684
:10432C009021786802F09CFB03461A4697F85F30A0
:10433C00134387F85F303B6B1B0ADBB203F07F0340
:10434C0087F85E303B6BDB0BDBB203F0010387F8C5
:10435C005D3024229421786802F0C6FA03461A468E
:10436C0097F85F30134387F85F307868FFF7C7FE24
:10437C0003461A4697F85F30134387F85F3007F10E
:10438C0030031A469021786802F06AFB03461A46FD
:10439C0097F85F30134387F85F303B6B1B0EDBB233
:1043AC003B723B6B1B0CDBB27B723B6B1B0ADBB2B5
:1043BC00BB723B6BDBB2FB7225229421786802F056
:1043CC0093FA03461A4697F85F30134387F85F3029
:1043DC007868FFF794FE03461A4697F85F3013434C
:1043EC0087F85F3007F130031A469021786802F0A5
:1043FC0037FB03461A4697F85F30134387F85F3054
:10440C003B6B1B0EDBB23B733B6B1B0CDBB27B734E
:10441C00FB7803F00203002B00F0898197F83F3002
:10442C0003F00203002B40F0828102229421786871
:10443C0002F05AFA03461A4697F85F30134387F88E
:10444C005F307868FFF75BFE03461A4697F85F30DB
:10445C00134387F85F3007F12F031A4690217868D1
:10446C0002F0C0FA03461A4697F85F30134387F8F8
:10447C005F307B229421786802F036FA03461A46A4
:10448C0097F85F30134387F85F307868FFF737FE93
:10449C0003461A4697F85F30134387F85F3007F1ED
:1044AC002E031A469021786802F09CFA03461A46AD
:1044BC0097F85F30134387F85F3077229421786840
:1044CC0002F012FA03461A4697F85F30134387F846
:1044DC005F307868FFF713FE03461A4697F85F3093
:1044EC00134387F85F3007F130031A469021786840
:1044FC0002F0B6FA03461A4697F85F30134387F872
:10450C005F303B6B5B0EDBB203F07F03DBB23B74C3
:10451C003B6B9B0CDBB203F07F03DBB27B743B6B1E
:10452C00DB0ADBB203F07F03DBB2BB743B6B1B0912
:10453C00DBB203F07F03DBB2FB743B6BDBB2DB0063
:10454C00DBB203F07803DBB287F8373078229421A2
:10455C00786802F0C9F903461A4697F85F3013439E
:10456C0087F85F307868FFF7CAFD03461A4697F85C
:10457C005F30134387F85F3007F130031A46902100
:10458C00786802F06DFA03461A4697F85F301343C9
:10459C0087F85F303B6B5B0FDBB203F07F03DAB263
:1045AC0097F837301344DBB23B753B6B9B0DDBB29A
:1045BC0003F07F03DBB27B753B6BDB0BDBB203F0F1
:1045CC007F03DBB2BB753B6B1B0ADBB203F07F03D3
:1045DC00DBB2FB753B6B5B08DBB203F07F03DBB23A
:1045EC003B763B6BDBB29B01DBB203F04003DBB2EF
:1045FC0087F8373079229421786802F075F90346F0
:10460C001A4697F85F30134387F85F307868FFF7E6
:10461C0076FD03461A4697F85F30134387F85F30F0
:10462C0007F130031A469021786802F019FA034614
:10463C001A4697F85F30134387F85F303B6B9B0E3D
:10464C00DBB203F07F03DAB297F837301344DBB2F6
:10465C007B763B6BDB0CDBB203F07F03DBB2BB7610
:10466C003B6B1B0BDBB203F07F03DBB2FB763B6BCC
:10467C005B09DBB203F07F03DBB23B773B6BDBB256
:10468C009B00DBB203F07C03DBB287F837307A2275
:10469C009421786802F028F903461A4697F85F309F
:1046AC00134387F85F307868FFF729FD03461A46F5
:1046BC0097F85F30134387F85F3007F130031A46E1
:1046CC009021786802F0CCF903461A4697F85F30CF
:1046DC00134387F85F303B6B9B0FDBB203F07F0318
:1046EC00DAB297F837301344DBB27B773B6BDB0DD8
:1046FC00DBB203F07F03DBB2BB773B6B1B0CDBB293
:10470C0003F07F03DBB2FB773B6B5B0ADBB203F09E
:10471C007F03DBB287F820303B6B9B08DBB203F0E6
:10472C007F03DBB287F82130002387F82230FB7837
:10473C0003F00403002B00F0F18097F83F3003F0F6
:10474C000403002B40F0EA807B229421786802F06D
:10475C00CBF803461A4697F85F30134387F85F305F
:10476C007868FFF7CCFC03461A4697F85F30134382
:10477C0087F85F3007F128031A469021786802F019
:10478C006FF903461A4697F85F30134387F85F308A
:10479C007C229421786802F0A7F803461A4697F811
:1047AC005F30134387F85F307868FFF7A8FC034647
:1047BC001A4697F85F30134387F85F3007F12403EC
:1047CC001A469021786802F04BF903461A4697F87E
:1047DC005F30134387F85F3073229421786802F0BE
:1047EC0083F803461A4697F85F30134387F85F3017
:1047FC007868FFF784FC03461A4697F85F3013433A
:10480C0087F85F3007F130031A469021786802F080
:10481C0027F903461A4697F85F30134387F85F3041
:10482C003B6B1B029BB23B6574229421786802F0AF
:10483C005BF803461A4697F85F30134387F85F30EE
:10484C007868FFF75CFC03461A4697F85F30134311
:10485C0087F85F3007F130031A469021786802F030
:10486C00FFF803461A4697F85F30134387F85F301A
:10487C003B6B1B0E3A6D13433B6575229421786894
:10488C0002F032F803461A4697F85F30134387F864
:10489C005F307868FFF733FC03461A4697F85F30B1
:1048AC00134387F85F3007F130031A46902178687C
:1048BC0002F0D6F803461A4697F85F30134387F890
:1048CC005F303B6B1B029BB27B6576229421786830
:1048DC0002F00AF803461A4697F85F30134387F83C
:1048EC005F307868FFF70BFC03461A4697F85F3089
:1048FC00134387F85F3007F130031A46902178682C
:10490C0002F0AEF803461A4697F85F30134387F867
:10491C005F303B6B1B0E7A6D13437B65002281214C
:10492C00786801F0E1FF03461A4697F85F301343AD
:10493C0087F85F300622FF21786801F0D5FF034627
:10494C001A4697F85F30134387F85F3007F1370347
:10495C001A468321786802F045F803461A4697F800
:10496C005F30134387F85F3097F8373023F0040338
:10497C00DBB21A468321786801F0B6FF03461A466B
:10498C0097F85F30134387F85F300122FF21786876
:10499C0001F0AAFF03461A4697F85F30134387F8D5
:1049AC005F3001220021786801F09EFF03461A4611
:1049BC0097F85F30134387F85F300022FF21786847
:1049CC0001F092FF03461A4697F85F30134387F8BD
:1049DC005F3000228021786801F086FF03461A467A
:1049EC0097F85F30134387F85F3097F95F30002BEF
:1049FC0040F08F8097F83F30072B00F08A80FB78CF
:104A0C0003F00103002B24D097F83F3003F001038F
:104A1C00002B1ED17B6897F85E2083F813217B68EE
:104A2C0097F85D2083F814210023FB640EE007F156
:104A3C000802FB6C134419787A68FB6C134403F579
:104A4C0095730A461A70FB6C0133FB64FB6C052BE7
:104A5C00EDDDFB7803F00203002B18D097F83F3004
:104A6C0003F00203002B12D197F82F207B6883F8F8
:104A7C00F12097F82E207B6883F8F2207B68F333C3
:104A8C00BB6307F110031946B86B05F09AFAFB7873
:104A9C0003F00403002B30D097F83F3003F00403ED
:104AAC00002B2AD1BA6A7B68C3F818217A6A7B6812
:104ABC00C3F81C213B6D5B023B647B683A6CC3F80A
:104ACC0020210023A7F85A307B6D002B11D07A6D72
:104ADC007B6CD31ABB64BB6C4FF47A7202FB03F38E
:104AEC001B09A7F85A30B7F85A305B429BB2A7F8AB
:104AFC005A30B7F95A207B68DA6097F83F20FB7878
:104B0C001343DBB287F8373097F837207B6883F88C
:104B1C00F02097F95F3018466037BD4680BD90B4E1
:104B2C0086B000AF78600B46FB7040F277634FF0B5
:104B3C000004C7E904344FF41063FB60FB78FA6897
:104B4C0002FB03F33A6902FB03F3BB60BB68184634
:104B5C001837BD4690BC704780B487B000AF786002
:104B6C000023FB8200233B610023FB817B68002B2D
:104B7C0017D07B68013B3B6105E03B695B083B61FF
:104B8C00FB890133FB813B6923F0FF03002BF4D13C
:104B9C00FB891B029AB23B699BB2DBB29BB21344FA
:104BAC00FB82FB8A18461C37BD465DF8047B7047B8
:104BBC0080B485B000AF0346FB800023FB60FB880C
:104BCC00DBB2FA88120A92B293400133FB60FB68A5
:104BDC0018461437BD465DF8047B704780B588B025
:104BEC0000AFF860B9601346FB710023FB61FB79E1
:104BFC001946F868FFF793FFB861BB6903F5FA73C0
:104C0C000A4AA2FB03239B097B61BB684FF47A72AF
:104C1C0002FB03F27B695B081A447B69B2FBF3F37A
:104C2C00FB61FB6918462037BD4680BDD34D621031
:104C3C0080B586B000AF78600B467B8013467B70E6
:104C4C0000237B617B7819467868FFF768FF386131
:104C5C003B6903F5FA730A4AA2FB03239B09FB6029
:104C6C007B88FA6802FB03F303F5FA73044AA2FB90
:104C7C0003239B097B617B6918461837BD4680BDB1
:104C8C00D34D621080B58CB000AFF8600B467A60E3
:104C9C00FB72002387F82F30002387F82030002385
:104CAC00BB620023FB830023BB84FB7A002B05D063
:104CBC00FB7A012B02D0FB7A022B28D107F12103BE
:104CCC001A460021F868FDF757FA034687F82F308B
:104CDC0097F92F30002B09D107F120031A464621F2
:104CEC00F86801F07FFE034687F82F3097F82030E4
:104CFC009BB21846FFF75CFF03467B8497F8212094
:104D0C007B8C1946F868FFF793FFB86292E0FB7A48
:104D1C00032B35D107F121031A460021F868FDF762
:104D2C002BFA034687F82F3097F92F30002B40F0E1
:104D3C00818007F121031A460021F868FDF71CFA5F
:104D4C00034687F82F3097F92F30002B09D107F144
:104D5C001E031A465121F86801F063FE034687F8DA
:104D6C002F30FB8B1846FFF723FF0346FB8497F885
:104D7C002120FB8C1946F868FFF75AFFB86259E0FE
:104D8C00FB7A042B56D107F114031946F868FDF78A
:104D9C00FFFA0023FB84FB7D002B1DD007F12103C0
:104DAC001A460021F868FDF7E7F9034687F82F301B
:104DBC0097F92F30002B0FD107F11E031A46512102
:104DCC00F86801F02EFE034687F82F30FB8B18464F
:104DDC00FFF7EEFE0346FB8497F92F30002B09D129
:104DEC0007F121031A460121F868FDF7C5F90346BE
:104DFC0087F82F3097F92F30002B0FD107F11C03B8
:104E0C001A467121F86801F00CFE034687F82F3022
:104E1C00BB8B1846FFF7CCFE0346BB84BA8CFB8CCD
:104E2C00D31ABB8497F82120BB8C1946F868FFF77E
:104E3C00FFFEB8627B68BA6A1A6097F92F30184681
:104E4C003037BD4680BD80B58AB000AFF8600B46E8
:104E5C007A60FB72002387F82730FB7A002B05D091
:104E6C00FB7A012B02D0FB7A022B38D107F11B0302
:104E7C001A460021F868FDF77FF9034687F82730BA
:104E8C0097F92730002B1AD1FB7E1A467968F868FF
:104E9C00FFF7A4FE0346BB83BB8BB3F5807F03D91E
:104EAC00FF2387F8263004E0BB8BDBB2013B87F88D
:104EBC00263097F826309AB2FB68A3F8D82097F9D9
:104ECC002730002B40F0AB8097F826301A4646214D
:104EDC00F86801F009FD034687F827309FE0FB7A5C
:104EEC00032B35D197F92730002B1BD107F11B036E
:104EFC001A460021F868FDF73FF9034687F827307A
:104F0C00FB7E1A467968F868FFF768FE0346BB8497
:104F1C00BB8C1846FFF720FE03463B833A8BFB689D
:104F2C00A3F8D82097F92730002B08D13B8B1A46D1
:104F3C005121F86801F0F8FC034687F8273097F9FF
:104F4C002730002B6BD1FB687A68C3F8E42066E04D
:104F5C00FB7A042B60D107F110031946F868FDF7B2
:104F6C0017FA0023BB84FB7C002B1DD007F11B031D
:104F7C001A460021F868FDF7FFF8034687F827303A
:104F8C0097F92730002B0FD107F118031A4651213E
:104F9C00F86801F046FD034687F827303B8B18462E
:104FAC00FFF706FE0346BB8497F92730002B09D187
:104FBC0007F11B031A460121F868FDF7DDF80346DB
:104FCC0087F8273097F92730002B28D1FB7E1A461B
:104FDC007968F868FFF702FE3862BB8C3A6A1344B2
:104FEC003B62386AFFF7B8FD0346FB8397F927301D
:104FFC00002B08D1FB8B1A467121F86801F094FC48
:10500C00034687F8273097F92730002B07D1FB6828
:10501C007A68C3F8DC2002E0FC2387F8273097F984
:10502C00273018462837BD4680BD80B58AB000AF02
:10503C0078600B46FB701346BB70002387F8273053
:10504C000C2387F82630122387F82530082387F89D
:10505C0024300E2387F823300023FB73BB7803F036
:10506C000103DBB2002B03D0FC2387F8273020E0B0
:10507C00FB78002B0DD1BA7897F826309A4204D3DE
:10508C00BA7897F825309A4203D9FC2387F8273051
:10509C000FE0FB78012B0CD1BA7897F824309A42A8
:1050AC0004D3BA7897F823309A4202D9FC2387F8B4
:1050BC00273097F92730002B02D097F9273039E2A7
:1050CC00FB78002B50D1BB780C2B10D11822572118
:1050DC00786801F009FC034687F82730082256212E
:1050EC00786801F001FC034687F827307FE1BB7834
:1050FC000E2B10D130225721786801F0F5FB0346B6
:10510C0087F8273008225621786801F0EDFB03461A
:10511C0087F827306BE1BB78102B10D14022572138
:10512C00786801F0E1FB034687F827300822562106
:10513C00786801F0D9FB034687F8273057E1BB7834
:10514C00122B40F0548150225721786801F0CCFB8F
:10515C00034687F8273008225621786801F0C4FBF3
:10516C00034687F8273042E1FB78012B40F03F8162
:10517C00BB78082B4CD110224821786801F0B4FB85
:10518C00034687F8273008224721786801F0ACFBEA
:10519C00034687F8273002223221786801F0A4FBFD
:1051AC0003461A4697F82730134387F827300C220A
:1051BC003021786801F098FB03461A4697F827309F
:1051CC00134387F827300122FF21786801F08CFB0C
:1051DC0003461A4697F82730134387F827303022B6
:1051EC003021786801F080FB03461A4697F8273087
:1051FC00134387F827300022FF21786801F074FBF5
:10520C0003461A4697F82730134387F82730EEE009
:10521C00BB780A2B4CD128224821786801F064FB1A
:10522C00034687F8273008224721786801F05CFB99
:10523C00034687F8273003223221786801F054FBAB
:10524C0003461A4697F82730134387F8273009226C
:10525C003021786801F048FB03461A4697F827304E
:10526C00134387F827300122FF21786801F03CFBBB
:10527C0003461A4697F82730134387F82730202225
:10528C003021786801F030FB03461A4697F8273036
:10529C00134387F827300022FF21786801F024FBA4
:1052AC0003461A4697F82730134387F827309EE0B9
:1052BC00BB780C2B4CD138224821786801F014FBB8
:1052CC00034687F8273008224721786801F00CFB49
:1052DC00034687F8273003223221786801F004FB5B
:1052EC0003461A4697F82730134387F827300822CD
:1052FC003021786801F0F8FA03461A4697F82730FF
:10530C00134387F827300122FF21786801F0ECFA6B
:10531C0003461A4697F82730134387F82730202284
:10532C003021786801F0E0FA03461A4697F82730E6
:10533C00134387F827300022FF21786801F0D4FA54
:10534C0003461A4697F82730134387F827304EE068
:10535C00BB780E2B4BD148224821786801F0C4FA57
:10536C00034687F8273008224721786801F0BCFAF9
:10537C00034687F8273003223221786801F0B4FA0B
:10538C0003461A4697F82730134387F8273007222D
:10539C003021786801F0A8FA03461A4697F82730AE
:1053AC00134387F827300122FF21786801F09CFA1B
:1053BC0003461A4697F82730134387F827302022E4
:1053CC003021786801F090FA03461A4697F8273096
:1053DC00134387F827300022FF21786801F084FA04
:1053EC0003461A4697F82730134387F8273097F966
:1053FC002730002B7FD1BB781846FEF739FE0346C9
:10540C0087F82230FB78002B02D0012B45D06EE0C0
:10541C0007F114031A4603217868FFF733FC03469F
:10542C0087F8273097F92730002B09D107F11003A3
:10543C001A4602217868FFF725FC034687F82730C7
:10544C0097F92730002B09D197F822301A465021B2
:10545C00786801F049FA034687F8273097F9273026
:10546C00002B08D17B691A4603217868FFF7EBFC07
:10547C00034687F8273097F92730002B08D13B6972
:10548C001A4602217868FFF7DEFC034687F82730BE
:10549C007B68BA7883F8E8202EE007F118031A46E7
:1054AC0004217868FFF7EEFB034687F8273097F95D
:1054BC002730002B09D197F822301A4670217868D2
:1054CC0001F012FA034687F8273097F92730002BA2
:1054DC0008D1BB691A4604217868FFF7B4FC03466F
:1054EC0087F827307B68BA7883F8E02004E0FC2347
:1054FC0087F8273000E000BF97F92730002B09D13F
:10550C007B685B69FB61F9697868FCF7F7FD03461A
:10551C0087F8273097F92730002B09D107F10F01B5
:10552C00012300227868FEF79BFC034687F827309E
:10553C0097F9273018462837BD4680BD80B586B010
:10554C0000AFF8600B467A60FB720023FB75FB7AA8
:10555C00002B02D0012B0AD013E007F116031A46D8
:10556C005021F86801F03EFA0346FB750BE007F199
:10557C0016031A467021F86801F034FA0346FB75DD
:10558C0001E0FC23FB7597F91730002B07D1BB7D8D
:10559C001846FEF75AFD03461A467B681A7097F9AF
:1055AC00173018461837BD4680BD80B592B000AF95
:1055BC0078603960002387F847304FF4FA633B6119
:1055CC0040F27673FB634FF47073BB634FF4257337
:1055DC007B6340F24E233B6340F2B223FB624FF4F9
:1055EC002573BB6240F226237B620023FB6044F6EA
:1055FC0020633B620023FB613A683B6A9A4205D206
:10560C00FC2387F8473097F94730AAE0FA6BBB6B5D
:10561C0013443A68D31A3B6407F1140319467868AB
:10562C00FCF7B6FE034687F8473097F94730002B56
:10563C005BD13B7D002B05D17B7D002B02D1BB7D4B
:10564C00002B52D007F110031A4602217868FFF79D
:10565C0019FB034687F8473097F94730002B02D0E7
:10566C0097F947307DE03B7D002B0FD03B693A6BBF
:10567C001344FB61FA693B6C9A4204D23A6CFB69A5
:10568C00D31A3B6402E0FC2387F8473097F9473084
:10569C00002B02D097F9473063E0BB7D002B11D073
:1056AC003A69FB6A13445B00FB61FA693B6C9A42F2
:1056BC0004D23A6CFB69D31A3B6416E0FC2387F8DE
:1056CC00473012E07B7D002B0FD03B697A6B134483
:1056DC00FB61FA693B6C9A4204D23A6CFB69D31AAF
:1056EC003B6402E0FC2387F8473097F94730002BE6
:1056FC0002D097F9473034E0FB7D002B19D007F12D
:10570C000C031A4603217868FFF7BCFA034687F8A6
:10571C004730FB68BA6A1344FB61FA693B6C9A42E6
:10572C0004D23A6CFB69D31A3B6402E0FC2387F881
:10573C00473097F94730002B11D13B7E002B0ED010
:10574C003A6C7B6AD31A3B643A6C04217868FFF795
:10575C007AFB034687F847307B683A685A6197F9B9
:10576C00473018464837BD4680BD80B590B000AF75
:10577C0078603960002387F83F304FF4FA633B615F
:10578C0040F27673BB634FF470737B634FF42573F5
:10579C003B6340F24E23FB6240F2B223BB624FF4F8
:1057AC0025737B6240F226233B620023FB60BA6BBD
:1057BC007B6B1A443B681A6007F11803194678682A
:1057CC00FCF7E6FD034687F83F3097F93F30002B96
:1057DC0002D097F93F3075E03B7E002B05D17B7EE4
:1057EC00002B02D1BB7E002B30D007F110031A46E0
:1057FC0002217868FFF746FA034687F83F3097F99D
:10580C003F30002B22D13B7E002B07D03B681A681F
:10581C003969FB6A0B441A443B681A60BB7E002B47
:10582C0009D03B681A683969BB6A0B445B001A449F
:10583C003B681A600AE07B7E002B07D03B681A6835
:10584C0039693B6B0B441A443B681A6097F93F303B
:10585C00002B14D1FB7E002B11D007F10C031A4640
:10586C0003217868FFF70EFA034687F83F303B6850
:10587C001A68F9687B6A0B441A443B681A6097F9FA
:10588C003F30002B14D13B7F002B11D007F11403B8
:10589C001A4604217868FFF7F5F9034687F83F307C
:1058AC003B681A6879693B6A0B441A443B681A6076
:1058BC0097F93F30002B03D13B681A687B685A611B
:1058CC0097F93F3018464037BD4680BD80B588B04B
:1058DC0000AF786039600023FB7700237B61C6E062
:1058EC007B693A6813441B78FB747B6901337B61D9
:1058FC00FB7CFF2B40F08D807B693A6813441B784E
:10590C007B747B6901337B617B7C032B7ED801A28A
:10591C0052F823F0315900086B590008A5590008BA
:10592C00DF5900087B693A6813441B783B747B6928
:10593C0001337B617B693A6813441B78FB737B6989
:10594C0001337B613B7C9BB21B029AB2FB7B9BB20B
:10595C001344BB817B68BA89A3F8342187E07B6947
:10596C003A6813441B783B747B6901337B617B6918
:10597C003A6813441B78FB737B6901337B613B7C76
:10598C009BB21B029AB2FB7B9BB21344BB817B681C
:10599C00BA89A3F836216AE07B693A6813441B780C
:1059AC003B747B6901337B617B693A6813441B78D8
:1059BC00FB737B6901337B613B7C9BB21B029AB20C
:1059CC00FB7B9BB21344BB817B68BA89A3F838215B
:1059DC004DE07B693A6813441B783B747B69013357
:1059EC007B617B693A6813441B78FB737B690133D9
:1059FC007B613B7C9BB21B029AB2FB7B9BB2134438
:105A0C00BB817B68BA89A3F83C2130E0FC23FB778F
:105A1C002DE0FB7C042B28D87B693A6813441B7857
:105A2C00BB747B6901337B610023BB610FE07B6935
:105A3C003A681344197807F10802BB6913440A4603
:105A4C001A707B6901337B61BB690133BB61FB7CE1
:105A5C00BA699A42EBDBFB7C07F10802B97C7868E7
:105A6C0000F0F6FE0346FB7701E0FC23FB777B6935
:105A7C003A6813441B78002B04D097F91F30002B85
:105A8C003FF42EAF97F91F3018462037BD4680BD26
:105A9C0080B588B000AFF860B9607A600023FB77FE
:105AAC007B6800221A6007F113031946F868FCF7AB
:105ABC00FBFC0346FB7797F91F30002B11D1FB7CC5
:105ACC00002B0ED0FB681B6ABB61BB689B8A1A4615
