:020000040800F2
:10000000FF3F0020F56F0008396F00083B6F0008C4
:1000100000000000000000000000000000000000E0
:100020000000000000000000000000003D6F00081C
:1000300000000000000000003F6F0008416F000852
:1000400045700008457000084570000845700008BC
:1000500045700008457000084570000845700008AC
:10006000457000084570000845700008496F000899
:10007000457000084570000845700008457000088C
:10008000457000084570000845700008457000087C
:10009000457000084570000845700008457000086C
:1000A000616F000845700008457000084570000841
:1000B0004570000845700008856F0008457000080D
:1000C00010B5064C2378002B07D1054B002B02D02E
:1000D000044800E000BF0123237010BD1000002081
:1000E0000000000050710008044B10B5002B03D035
:1000F0000349044800E000BF10BDC04600000000F6
:100100001400002050710008002243088B4274D371
:1001100003098B425FD3030A8B4244D3030B8B4208
:1001200028D3030C8B420DD3FF22090212BA030C11
:100130008B4202D31212090265D0030B8B4219D3F2
:1001400000E0090AC30B8B4201D3CB03C01A524112
:10015000830B8B4201D38B03C01A5241430B8B425A
:1001600001D34B03C01A5241030B8B4201D30B0343
:10017000C01A5241C30A8B4201D3CB02C01A52416A
:10018000830A8B4201D38B02C01A5241430A8B422D
:1001900001D34B02C01A5241030A8B4201D30B0216
:1001A000C01A5241CDD2C3098B4201D3CB01C01A30
:1001B000524183098B4201D38B01C01A524143093A
:1001C0008B4201D34B01C01A524103098B4201D328
:1001D0000B01C01A5241C3088B4201D3CB00C01A95
:1001E000524183088B4201D38B00C01A524143080D
:1001F0008B4201D34B00C01A5241411A00D2014632
:10020000524110467047FFE701B5002000F006F8A4
:1002100002BDC0460029F7D076E770477047C04658
:100220008446081C6146FFE71FB500F06DFB0028FF
:1002300001D40021C8421FBD10B500F0EFFA4042C2
:10024000013010BD10B500F05FFB002801DB00207D
:1002500010BD012010BDC04610B500F055FB0028B0
:1002600001DD002010BD012010BDC04610B500F01A
:10027000FDFA002801DC002010BD012010BDC046A1
:1002800010B500F0F3FA002801DA002010BD0120BB
:1002900010BDC0469E2110B5C905041CFFF7F0FF34
:1002A000002803D1201C00F075FE10BD9E21201CEB
:1002B000C90500F0ABFC00F06DFE80231B069C46D8
:1002C0006044F2E7F8B54746CE4643025B0A440075
:1002D000C20F9C464800DD004B02240E5B0A000E54
:1002E00080B5984626009146C90FDB00271A8A423E
:1002F00029D0002F15DD00284AD1002B00D095E031
:10030000ED08FF2C00D188E06B025B0AE6B25B02CD
:10031000F605580A3043D20710430CBC9046994664
:10032000F8BD002F00D087E0601CC0B2012800DCBF
:10033000B6E0EE1A720100D5C5E0002E3DD10022D4
:1003400000260023E3E7002F00DC96E000285DD0C4
:10035000FF2C60D08022D20413431B2F00DDECE081
:100360002022D21B18009340F8405A1E93410343A9
:10037000ED186B017BD50134FF2C00D1B7E00122D1
:1003800007262A406B089A4D1D4015432E4029E050
:10039000FF2CB5D08022D20413431B2F00DDB2E026
:1003A0002022D21B19009340F9405A1E93410B435F
:1003B000ED1A6B015BD5AD01AE09300001F03CFCDC
:1003C00005388640844265DC041B3300202001345C
:1003D000E340041BA640751EAE41334307261D00B3
:1003E00000241E4001224B461A40002E04D00F2349
:1003F0002B40042B00D004356B0100D480E701347E
:10040000E6B2FF2C2FD1FF26002380E7002B52D12C
:10041000FF2C00D074E70A00ED08002DF3D08023F4
:10042000DB032B435B025B0AFF2670E7013F002FD3
:10043000BED0FF2CB1D163E7002C47D0FF2869D094
:100440008024E4047A4225431B2A00DDC5E02C0009
:100450002026D440B21A95406A1E954125435D1B63
:1004600004008946A5E7AB015B0A50E7002401229E
:100470004B461A406B07BAD142E7002F3BD10134FB
:10048000E0B201284ADDFF2CBDD00726ED186D082B
:100490002E40A7E70723574D241A35401E40A1E7F9
:1004A000002C1BD1002D6ED1002B00D19AE00A0048
:1004B0001D003C0024E7013F002F00D158E7FF2C2E
:1004C00000D04AE7A7E75E1B894676E7002D1CD1DE
:1004D0000A00FF281FD004001D0011E7002D5DD188
:1004E000002B17D180230022DB03FF260FE70A0031
:1004F000FF2600230BE7002C21D1002D66D1FF2819
:10050000E9D11D0087E7012352E77A1CA7D0FA43FF
:10051000FF2899D10A001D00FF24F1E6002E21D109
:10052000002D4FD0002B4CD0ED186B019ED5314BD8
:1005300007362E4001241D4054E7012318E7FF2809
:10054000DFD08024E4047F4225431B2F4DDC20268E
:10055000F61B2C00B540FC406A1E95412543ED1862
:10056000040006E7002DCCD0002B00D153E78021FA
:100570006046C903084203D04046084200D11D002E
:100580000121114047E7002B00D1B9E6EA1A5001DA
:1005900025D507265D1B2E40894623E7FF24002B27
:1005A00000D1ADE680226046D203104204D040461E
:1005B000104201D11D00894601224B46FF241A40FA
:1005C0009EE62B00DD080A0000249DE67A1CC6D0BA
:1005D000FF43FF28B9D11D001DE701253FE7151E88
:1005E00000D044E70022002391E60125B7E7C0468A
:1005F000FFFFFF7DFFFFFFFBF8B557464E46454620
:10060000DE464402E0B546008846640A360EC70F4F
:10061000002E63D0FF2E24D08023E400DB041C4393
:10062000002399469B467F3E434642465D02D20FD9
:100630005B006D0A1B0E9046924665D0FF2B55D08D
:1006400080220021ED00D2047F3B1543F61A434679
:100650004A467B400F2A00D98DE06D4892008258AF
:100660009746002C54D108239946063BFF269B460B
:10067000DAE70025534602291BD0032900D1BFE049
:10068000012928D030007F30002820DD6A0704D0FF
:100690000F222A40042A00D004352A0103D5300055
:1006A0005C4A80301540FE2803DCAC01640AC2B20B
:1006B00001E0FF2200246402D205600ADB07104338
:1006C00018433CBC90469946A246AB46F8BD012271
:1006D000101A1B287CDD00220024ECE7002C1DD121
:1006E00004239946033B00269B469DE7FF3E002DD1
:1006F00020D1022143464A467B400A430F2AD8D8DC
:100700004548920082589746002D19D10121F1E702
:100710000C239946093BFF269B4685E7200001F004
:100720008BFA7626431F9C4000237642361A994660
:100730009B4679E74A4603231A439146032186E7FD
:10074000280001F079FA431F36189D4076360021C3
:100750007DE780240023E403FF22ACE7002580230B
:10076000DB031C4228D01D4226D12B435C02640AC5
:100770004346FF229FE762016C01A24224D21B2163
:100780000025013E012710006D005200002801DB0A
:10079000944201D8121B3D4301390029F3D11400C2
:1007A000621E944125436DE7BA46594625005346DB
:1007B000022900D061E77CE78023DB031C4364024D
:1007C000640A3B00FF2276E7121B1A210125D9E7B4
:1007D0009E362A00B5402C00C240651EAC41144331
:1007E000620704D00F222240042A00D004346201A0
:1007F00003D4A401640A00225DE7012200245AE721
:100800008024E4032C436402640AFF2253E7C046B9
:100810009C710008FFFFFFF7DC71000870B5420013
:100820004E024C0045026D0A120EC30F760A240ECA
:10083000C90FFF2A0FD0FF2C11D00120A24200D0F7
:1008400070BDB542FCD18B420DD0002AF8D12800F2
:10085000451EA841F4E70120002DF1D1EBE701206E
:10086000002EEDD1E9E70020EAE7C04670B54A0066
:100870004E02450244006D0A240EC30F760A120E82
:10088000C90FFF2C15D0FF2A0ED0002C15D1002A3D
:1008900001D1002E1CD0002D14D08B4227D0022075
:1008A000013B1840013870BD002EEED002204042BE
:1008B000F9E7002DFAD1FF2A0ED0002A0ED1002E22
:1008C000EDD00BE001230139994308000130EAE73C
:1008D0000020002DE7D0E2E7002EE7D18B42DED1E9
:1008E000944205DD0221581E08400138DBE7002450
:1008F000A24204DCB542D2D80020B542D3D2581E61
:10090000012398430130CEE730B5420044024D0246
:10091000C30F4800640A120E6D0A000EC90FFF2AA9
:1009200012D0FF280CD0002A12D1002819D1002D96
:1009300017D1002C2BD00220013B1840013826E0B3
:10094000002DF0D0022022E0002CFBD1FF281FD088
:1009500000281FD1002D1DD10220013B1840013875
:1009600015E0002C0ED08B42E5D10022904204DC31
:10097000AC42E0D80020AC4209D2581E0123984373
:10098000013004E00123013999430800013030BDF2
:10099000002DD7D18B42CED18242E7DD0221581EF5
:1009A00008400138F3E7C046F0B54E465746454685
:1009B000DE46E0B543025B0A450083B00F1C994652
:1009C0002D0EC60F002D57D0FF2D24D08020DB0028
:1009D000C0041843002381469A469B467F3D7C0213
:1009E0007A00FB0F640A120E984623D0FF2A4BD0E0
:1009F000E30080240020E4047F3A1C43AD186B1C04
:100A000047460193534677403A000F2B48D87D491B
:100A10009B00CB589F46002B00D085E008339A46B8
:100A2000063B9B467C027A00FB0FFF25640A120EF0
:100A30009846DBD1002C00D090E0524601231A43A7
:100A400092460120DBE74C4658461700022824D086
:100A5000032800D1CFE00022002301284DD1580205
:100A6000D205400AFF071043384303B03CBC904610
:100A70009946A246AB46F0BD002B5BD104239A46B3
:100A8000033B00259B46AAE7FF35002C60D1524668
:100A900002231A4392460220B1E7FF220023DEE739
:100AA0004B461B0C9C464B462604360C18046146EC
:100AB0003300220C6446000C43434E4350435443DE
:100AC00080191A0C1218964203D9802149028C46CB
:100AD00064441B041B0C1004C01883015E1EB34148
:100AE000800E1843130C1B199B0103431C002301A8
:100AF00079D5012362081C401443019A7F32002AF1
:100B00004DDD630704D00F232340042B00D00434B1
:100B1000230103D53C4B019A1C408032FE2ABCDCE9
:100B2000A3015B0AD2B29AE70C239A46093BFF2540
:100B30009B4654E7180001F07FF84A46431F76258C
:100B40009A4000236D4291462D1A9A469B4646E7ED
:100B5000524603231A439246032050E7200001F037
:100B60006BF8431F2D1A9C40763D002047E78023F9
:100B70000027DB03FF2272E7424666E74C4632005D
:100B8000584662E780234A46DB031A4222D01C42C1
:100B900020D123435B025B0A4746FF225FE7012324
:100BA0009A1A1B2A21DC23000199D3409E318C40E4
:100BB0001A0023005C1EA34113435A0704D00F22DE
:100BC0001A40042A00D004335A0111D49B015B0A55
:100BD000002244E780234A46DB0313435B025B0A9F
:100BE0003700FF223BE7019587E70022002336E725
:100BF0000122002333E78023DB0323435B025B0AEC
:100C0000FF222CE71C720008FFFFFFF7F8B54746EC
:100C1000CE464400C20F80B547024802400A8446CF
:100C2000664648007F0A240EF60025009046FB0029
:100C3000000EC90FB146FF2800D185E001267140A2
:100C4000261A914257D0002E43DD002800D07FE0C5
:100C50004946002900D1AAE0013E002E00D0F7E06D
:100C60005B1A5A0100D48BE09B019C09200000F024
:100C7000E3FF05388440854200DDD3E0451B2300B7
:100C800020200135EB40451BAC40621E94412343BC
:100C9000072400251C40012241460A40002C04D0B4
:100CA0000F211940042900D00433590100D480E0F9
:100CB0000135ECB2FF2D00D0A3E0FF2400235B023E
:100CC000E405580AD207204310430CBC90469946CD
:100CD000F8BD002E74D1601CC0B2012800DCA7E072
:100CE0004A469C1A620100D5B6E0002CBED1002213
:100CF00000240023E3E7002E00DC85E0002846D036
:100D0000FF2C49D080224846D2041043814601225C
:100D10001B2E09DC20204C46801B84404A462000C4
:100D2000F240441EA04102439B185A0128D50135C8
:100D3000FF2D00D1A8E00122072494491A405B0846
:100D40000B4013431C40A6E7002E00D078E775E760
:100D5000FF2C54D080224946D204114389460122F7
:100D60001B2E09DC20214846891B88404A46010089
:100D7000F240481E81410A439B1A5A0100D573E78D
:100D8000012241460A40590700D089E711E0484650
:100D9000002858D1FF2C0CD1DB08002B00D18CE7A8
:100DA0008020C00303435B025B0AFF2487E7FF2C1C
:100DB00025D0DB08FF2DF0D05B025B0AECB27EE7AA
:100DC000002C4DD0FF2818D08024E4047242234325
:100DD0001B2A00DDC4E01C002025D440AA1A934041
:100DE0005A1E934123434A460500D31A884638E7E2
:100DF000721CF8D0F243FF28EAD10A004B46FF25C7
:100E0000D7E79B015B0A5AE7002E41D1651CE9B286
:100E1000012945DDFF2D00D14FE707244B445B0836
:100E20001C4038E707225A4B2D1A2340144032E762
:100E3000002C1DD1002B7AD14B46002B00D191E024
:100E40000A000025B5E7013E002E19D14B446CE79E
:100E5000FF2C84D1FF25ACE74A468846D41A05E723
:100E6000002BC5D10A00FF28C8D005004B46A0E7DB
:100E7000002B49D14B46002B77D00A00FF2598E77D
:100E8000FF2C00D043E787E70A00FF24002316E782
:100E9000002C15D1002B57D1FF28E6D14B467BE71C
:100EA000002C20D1002B57D04946002953D04B4469
:100EB0005A0168D50724364A1C4001251340EAE64A
:100EC000FF28EBD08022D204764213431B2E53DC42
:100ED0002025AD1B1A00AB40F2405C1EA34113431A
:100EE0004B44050021E7002BD8D04946002900D10A
:100EF00052E78021C9030F4200D14DE76046084206
:100F000000D049E74B4647E74846FF25002800D177
:100F10004FE78022D203174204D06046104201D12D
:100F20004B46884601224146FF250A4041E7484694
:100F300000281FD01A1A500120D54A460724D31A78
:100F40001C4088460025A6E6741CC9D0F643FF283D
:100F5000BCD14B4620E799464B460025DB082BE7E2
:100F6000012340E700220023A9E680230022DB03BF
:100F7000FF24A4E600251CE70123B1E7002AF1D0F5
:100F800013000025FCE60025FAE6C046FFFFFF7DC2
:100F9000FFFFFFFB41024200C30F490A120E00206F
:100FA0007E2A0DD99D2A0CD8802000040143952A61
:100FB0000ADC9620821AD1404842002B00D108005A
:100FC0007047034A9818FBE7963A9140F4E7C04609
:100FD000FFFFFF7FF0B55746DE464E464546E0B57B
:100FE000834607000E03480085B092461C00360B6E
:100FF000400DCD0F002800D19DE0954B984239D08F
:101000008023F6001B041E43924A7B0F334399460C
:10101000944603006344009300230026FF000293DC
:1010200023031B0B98466300E40F52465B0D0194AB
:1010300000D1B3E086498B4200D19EE04246D10008
:10104000802212040A435146490F11438B468149BD
:1010500052468C4600996344CB1A0021D20000937B
:101060002B0063409A460F2E00D905E17A4BB6005B
:101070009B599F465B463343994600D0B8E0022314
:101080000826002700900293CAE7CB463A0002994F
:101090000195019B9A46022927D0032900D180E2BD
:1010A000012944D06D49009B8C4663441C00002CF0
:1010B00038DD530700D013E2D2085B46DB0109D5C7
:1010C0005946674B19408B468021C9008C46009BCE
:1010D00063441C00634B9C4207DC5B4664055F076E
:1010E0005B0217431B0B620D02E000230027584AE6
:1010F00000211B031C0B0B0D1B05234314055A4A2F
:10110000380013401C4353466400DB0764081C434B
:10111000210005B03CBC90469946A246AB46F0BDC6
:101120000122524201231B1B382B00DCADE10022BF
:1011300000230027DCE75B46334399465ED0002E50
:1011400000D18AE1300000F077FD03000B3B1C2B3F
:1011500000DD7BE11D22D31A5A460100DA4008392E
:101160008E4013005F46334399468F403F4B002625
:101170001B1A00930023029352E7414653460B4348
:101180003B499B468C46009B634400935B46002B87
:101190003BD1022300221E43022161E74346134351
:1011A0009B4637D04346002B00D162E1404600F019
:1011B00043FD03000B3B1C2B00DD53E102004146C5
:1011C000083A914088461D21CB1A5146D9400B0060
:1011D00041460B439B46534693401A00009B2549CA
:1011E0009C46604403008C4663440093002137E72B
:1011F0000323B14600900C26029311E700230093CD
:1012000001330426002702930AE70323C3461E4343
:10121000032125E701331E430022012120E700239B
:101220009A46802300271B03094A61E78023494629
:101230001B03194200D1E2E05946194200D0DEE01A
:101240000B431B0317001B0BA246014A50E7C04685
:10125000FF07000001FCFFFF5C720008FF030000B5
:10126000FFFFFFFEFE070000FFFF0F800DFCFFFFEA
:1012700001F8FFFFF3030000D94500D9CBE000D10E
:10128000C6E03C0048460027009B013B00935B46BC
:10129000160E1B021E431302984633041B0C99467C
:1012A000310C0191FEF7B6FF4A4642430B04210C74
:1012B000050019438A4207D98919013D8E4203D896
:1012C0008A4201D9851E8919881A0199FEF7A2FF61
:1012D00009048C464A46210464464243090C030033
:1012E00021438A4204D98919013B8E4200D8F1E09A
:1012F0002D041D43AB464346891A4246280C12046E
:101300001D0C5B46140C22001B041B0C5A43039457
:101310006B434443029568431B19150CEB189C4220
:1013200003D980246402A44660441C0C15041B04E9
:101330002D0C20185D19814277D373D00C1AA24A64
:101340007D1BAF42BF419446009B7F426344E01B3C
:101350001C00864200D1DBE00199FEF75BFF4A46A4
:1013600042430B04290C070019438A4207D9891903
:10137000013F8E4203D88A4201D9871E8919881AF3
:101380000199FEF747FF09044A46894629044D465C
:101390004243090C030029438A4207D98919013BBA
:1013A0008E4203D88A4201D9831E89193F04891AC3
:1013B0003A00039F1A43380013041B0C584381461C
:1013C0000298150C6F43434345434846000C84463E
:1013D000DB1963449F4203D9802040028446654460
:1013E00048461F0C00041B04000C7D191818A94264
:1013F00000D284E000D17FE001231A4357E6802326
:101400004A461B0313431B031B0BAA466F4A6FE696
:10141000BA4200D935E74B46DC0758087B081C4325
:10142000FF0734E70024AF4289D247444745A4412F
:101430005B466442A4196418013BA6421ED2A04236
:101440006DD800D1B6E0241A9B4678E703005A46CF
:10145000283B9A400027914688E6584600F0ECFB6E
:10146000203072E603005246283B9A409346002201
:10147000B4E6504600F0E0FB20309AE6A642E2D106
:10148000B845DCD9341A9B4659E71F2B65DC504C14
:101490000099A4465C46614408008C4011008240DB
:1014A000D940501E82410C4314435A46DA4013007F
:1014B000620709D00F222240042A05D02200141D01
:1014C0009442894149425B181A0262D501220023E5
:1014D00000270DE68A4200D80AE7831E891907E72C
:1014E0000F231340042B00D1E6E5171D97429241CC
:1014F00053429B44FA08E0E5002800D1D7E5711873
:10150000531EB14227D3A94215D358D01A0073E70E
:10151000002B00DC04E6012300229B44CDE50223DE
:101520004744474589415B429C46494289190C1909
:10153000E344241A03E743465F0047459B41B8460E
:101540005B429E19023A8919A94200D054E74045EE
:1015500000D051E7ABE51A00F6E71F215F4649428C
:101560000C1BE740202B07D01A49009B8C46634494
:1015700018005B4683401A43501E82413A430727B6
:101580000023174009D00F21002311401400042923
:1015900095D122005F075B021B0BD2081743002284
:1015A000A6E5802359461B030B431B0317001B0BA7
:1015B000064A9DE5BD42B2D89B460024BFE6804561
:1015C000B9D31A00C3E7C046FF030000FF070000BD
:1015D0001E0400003E040000F0B55746DE464E46AD
:1015E0004546E0B5834606000F03480087B09246A3
:1015F0001D003F0B400DCC0F002800D16FE0DE4BEB
:10160000984238D08023FF001B041F43730F3B43D5
:101610000193DA4B0027994600239B46F60081444C
:101620002B0369001B0B52469846490DED0F00290C
:1016300000D185E0D04B994200D173E04346DA00F7
:1016400080231B0413435246CC48520F8446134355
:10165000524600206144D200894421006940009133
:101660008C46012149448A460F2F00D990E0C44995
:10167000BF00CF59BF465B463B43019300D06AE1B0
:1016800002230827002681469B46C9E732005846B8
:10169000019B61460091022800D175E0032800D12A
:1016A000FEE1012800D02CE10023002700260025C0
:1016B0003F032A0D3F0BB34812053A4302401B0576
:1016C0001343009A5B00D1075B080B4330001900FD
:1016D00007B03CBC90469946A246AB46F0BD5B467F
:1016E0003B43019300D12FE1002F00D1A5E1380049
:1016F00000F0A2FA03000B3B1C2B00DD96E11D223B
:10170000D31A5A460100DA405E4608398F4013006A
:101710008E403B4301939C4B00271B1A99460023A4
:101720009B467DE7414653460B4393498C46E14433
:10173000002B00D01AE102220220174300228CE77E
:10174000134300D10DE14346002B00D181E1404617
:1017500000F072FA02000B3A1C2A00DD72E101006F
:10176000434608398B4098461D239A1A5346D34066
:101770001A004346134352468A404946081A824992
:1017800089468144002068E77B4B002700268EE7CE
:10179000140C1204120C1100370C3604350C79436A
:1017A00028008C462E006043604483465643210047
:1017B000300C80465846794340440291844506D90E
:1017C0008846802149028C46E04441460291360415
:1017D000010C360C00048B4681191E0C1B041B0CDB
:1017E0000391190079438C46280075436544A84647
:1017F0005843050C45447743A94203D98021490247
:101800008C466744290C8C4639000004000C2D04DA
:101810002D186144AB4405915946049101990F0478
:101820003F0C080C390051434243904602008C465D
:10183000090C8B4662437C4344445C44A04503D975
:101840008021490288464244210C884661460904A9
:10185000090C8C4639005943434370437E430F0CB7
:10186000F6182404BE19644442448C46B34203D99A
:1018700080235B0298464044029B61469846049B45
:10188000370443449B46AB45AD416B420D0405997B
:101890002D0C8C467F196744FD18A8465D462D190E
:1018A000A542A44193466442A446C344DC448F420B
:1018B000BF4198459B4193459241A445A4415B4259
:1018C0007F421F43360C52426442BF192243BF1865
:1018D000624638184302D20D039913436A020A4341
:1018E000501E82416146ED0D2A434E023243D9011A
:1018F00000D4B3E00126500832400243DE073243F1
:101900005B08224C5444002C62DD510709D00F20A3
:101910001040042805D0101D9042924152429B185D
:101920000200D90104D580241948E400034054443E
:101930001848844200DD27E75E075B02D2081F0BD0
:10194000630516435B0DB2E6002399460133042775
:1019500000269B4664E60323019781460C279B469D
:101960005EE6012201201743002276E603230320CE
:101970001F43434671E6C046FF07000001FCFFFF1E
:101980009C720008FFFF0F800DFCFFFFFF030000AB
:10199000FFFFFFFEFE0700000023802700933F03A8
:1019A0000026434B83E6019B3200A446584670E66E
:1019B000AC466EE6802701993F0339422DD03B4269
:1019C0002BD11F433F033F0B00951600384B6EE6AB
:1019D00001252D1B382D00DD66E61F2D40DC354826
:1019E0001C005044160082408440EE40501E82414C
:1019F00034431443EB40620709D00F222240042AEB
:101A000005D02200141D9442804140421B181A0246
:101A10003ED501230027002649E68027019B3F038E
:101A20001F433F033F0B0094214B40E603005A46FF
:101A3000283B9A40002601926DE6584600F0FCF8DB
:101A4000203057E603005246283B9A4013000022FC
:101A500093E6504600F0F0F820307BE6CA4650E7A7
:101A60001F201E004042041BE640202D03D0124CD4
:101A70005444A3401A43501E824132430726002794
:101A8000164009D00F200023104014000428B9D1BB
:101A900022005E075B021F0BD2081643002306E6F6
:101AA00080273F031F433F033F0B1600004BFEE51B
:101AB000FF0700001E0400003E04000070B500286F
:101AC0002DD0C317C5185D40C40F280000F0B4F82E
:101AD000154B1B1A5B055B0D0A2815DD0B3885407D
:101AE00000222D032D0B002110002D030A0D2D0BBC
:101AF00012052A430D4D1B052A4013435B00E407E2
:101B00005B082343190070BD020029001532914083
:101B10000A000B21081AC5402D032D0BE3E7002412
:101B2000002300250022DEE71E040000FFFF0F80D7
:101B3000F0B54C00640D0B03621C5B0A460F5205A6
:101B4000C90F1E43C500520D012A29DD374BE71886
:101B5000FE2F1CDC002F3BDD8001431E9841072235
:101B6000F3006D0F03432B431A40002A04D00F22C9
:101B70001A40042A00D004338022D2041A4024D010
:101B80000137FAB2FF2F02D09B01580A01E0FF2271
:101B900000204002D205400AC90710430843F0BDA7
:101BA0003543002C04D1002D0AD100220020F0E79B
:101BB000002DECD08020C0033043FF22E9E7002451
:101BC00000235B02580AE2B2E3E7DB083C00F8E7D7
:101BD0003B001733F3DB80231B0433431E26F61B25
:101BE0001F2E14DD02225242D71B1A00FA401700A2
:101BF000202E04D00E4A94466444A3401D432B007B
:101C00005D1EAB4107223B431A400027ADE7094A5E
:101C10002800A218954093406C1EA541F040072271
:101C20002B4303431A4000279FE7C04680FCFFFF79
:101C3000A2FCFFFF82FCFFFF1C2101231B04984232
:101C400001D3000C10391B0A984201D3000A08394D
:101C50001B09984201D30009043902A2105C401804
:101C60007047C046040302020101010100000000A8
:101C70000000000010B504000F4B1978FA20800016
:101C8000FEF742FA01000D4B1868FEF73DFA00F02E
:101C9000D3FD00280DD1032C01D901200AE0013029
:101CA00000222100404200F07BFD054B1C6000201B
:101CB00000E0012010BDC046000000200C00002004
:101CC0000400002010B5064A136810210B4313606E
:101CD0000020FFF7CFFF04F07DFF002010BDC046BD
:101CE00000200240034A1168034B1B785B18136005
:101CF0007047C0466000002000000020014B1868BB
:101D00007047C0466000002070B50400FFF7F6FF82
:101D10000500631C02D0044B1B78E418FFF7EEFFAC
:101D2000401BA042FAD370BD0000002070B5041E15
:101D300000D1B1E0836B002B7ED0A36BDB0600D516
:101D4000A4E021688B6804221A4000D09EE0A36BB7
:101D5000524803400630FF300343A36388680323DF
:101D60000340012B6ED0CB6818208343A068034347
:101D7000CB6021680B699B009B08606803430B6183
:101D80002168CB6846480340CB60237E9B03617E7D
:101D9000C9030B43A17E48030343A06A012858D01E
:101DA000802040010343E06803432069022852D0A9
:101DB00013432422A25C52001343E27E012A4CD03A
:101DC000E269C221FF318A4202D0216A0A431343E9
:101DD0002168CA681A43CA60E26A802149058A42BA
:101DE0000DD0012A0BD0022A09D0032A07D0042AD9
:101DF00005D0052A03D0062A01D0072A0AD1206877
:101E0000416907229143416120684169E56A2A409E
:101E10000A4342612268D26822490A409A422BD082
:101E2000A36B12229343023A1343A363E36B0F3A6B
:101E30001343E36301202EE0C3633422835404F090
:101E4000E1FE7AE70B68DB079AD4CB681B0497D4D2
:101E500089E71000A6E70422AAE7002903D180221F
:101E600052021343ACE7A26B20210A43A263E26B48
:101E70001F390A43E263A3E70023E363A36B032252
:101E80009343023A1343A363002004E0A36B1022A0
:101E90001343A363012070BD0120FCE7FDFEFFFF9B
:101EA0001902FEFFE7FF3F8330B583B00400002333
:101EB00001933433C35C012B00D18AE03423012227
:101EC000C25403689A68520775D4434A48689042DE
:101ED00056D09A6A01200D68A84002439A62E36ACC
:101EE0008022520593421ED0012B1CD0022B1AD007
:101EF000032B18D0042B16D0052B14D0062B12D090
:101F0000072B10D022685069072303408868984245
:101F100009D05069072398435061206842698D6851
:101F20002B40134343610B681A00103A022A4CD825
:101F30002A4A1268102B0ED0112B09D080235B0483
:101F40001343264A13600B68102B07D0002037E09C
:101F50008023DB03F4E780231B04F1E7204B1868A0
:101F60002049FEF7D1F8830018184300019302E0DE
:101F7000019B013B0193019B002BF9D100201FE045
:101F80009A6A01200D68A84082439A620B681A0081
:101F9000103A022A1BD8114A1268102B09D0112BB3
:101FA00005D0114B13400D4A1360002008E00F4B81
:101FB000F8E70F4BF6E7836B20221343836301207E
:101FC00034230022E25403B030BD0020F8E70020A3
:101FD000F6E70220F7E7C04601100000082701409D
:101FE0000C00002040420F00FFFFFFFEFFFFBFFF7D
:101FF000FFFF7FFF70B5041E00D1A0E02023C35C6B
:10200000002B1AD02268136802218B431360FFF75C
:1020100075FE050023685A68920711D5FFF76EFE1A
:10202000401B0A28F6D9626A80239B02134363622D
:1020300020230522E254012070BD04F013FEE1E7E5
:102040001A6801210A431A60FFF758FE0500236849
:102050005A68D2070ED4FFF751FE401B0A28F6D962
:10206000626A80239B021343636220230522E254A9
:102070000120E1E7227E012A3ED01A6880218A43AE
:102080001A60637E012B3CD02268136840218B4389
:102090001360A37E012B3AD02268136820218B4362
:1020A0001360E37E012B38D02268136810210B43A4
:1020B0001360237F012B36D02268136808218B43DD
:1020C0001360637F012B34D02268136804218B4393
:1020D0001360A368E26813432269134362691343E0
:1020E0006268013A21681343CB61002363622033A5
:1020F0000122E25400209FE71A6880210A431A60F7
:10210000BFE72268136840210B431360C1E72268D0
:10211000136820210B431360C3E722681368102162
:102120008B431360C5E72268136808210B431360D3
:10213000C7E72268136804210B431360C9E7012035
:102140007AE730B503682022825C013AD2B2012AD4
:1021500006D9426A8023DB0213434362012030BD6B
:102160008024A40018590122104318511F204C69E3
:10217000204082408725AD005859D4432040585113
:10218000C869002818D1103D585920405851C868D6
:10219000050448680004000C054348694830C00045
:1021A000C5508868050408680004000C05434869A8
:1021B0004830C00018184560C86901281AD08869DD
:1021C000002832D18125AD00585920405851086966
:1021D000002830D18525AD00585904405C51096A6A
:1021E00001292ED0802189005A58012082435A505B
:1021F0000020B4E78325AD005859104358510868B2
:10220000050448680004000C054348694830C000D4
:10221000C55088680504C8680004000C0543486977
:102220004830C00018184560C9E78125AD005859ED
:1022300010435851CBE78524A40018591043185176
:10224000CDE78720800019580A431A50CAE770B5B5
:1022500004002023C35C012B06D0426A80231B03A9
:1022600013434362012070BD1F330222C25402682F
:10227000136801218B431360FFF740FD05002368BD
:102280005B68DB070ED5FFF739FD401B0A28F6D93E
:10229000626A80239B021343636220230522E25477
:1022A0000120E0E7002363620020DCE770B5202412
:1022B000045D0568AD68013CE4B2012C06D9426AB0
:1022C0008023DB0213434362012070BDE0246405D8
:1022D000254266D02D0E03242540022D43D801242B
:1022E000AC401C608B68002B44D10B685B05CC684C
:1022F00023432C00183424010668A3512B00183303
:102300001B010468A44663440C695C600B7D012BCF
:102310003BD0D3791B06917909040B43517909020B
:102320000B4311790B432C01016809198D31FF31E1
:102330000B60D3781B06917809040B43517809028E
:102340000B43127813430268944664442200893296
:10235000FF321360026818352D01AB5801210B4381
:10236000AB500020B1E7426A80231B041343436251
:102370000120AAE74C68E4002343CC6823432C00E7
:10238000183424010668A351B8E72B0018331B0149
:1023900001688C4663445C68802149002143596090
:1023A000B7E7426A80239B031343436201208CE713
:1023B00070B52024045D013CE4B2012C06D9426AC8
:1023C0008023DB0213434362012070BD002976D1D4
:1023D0000468E468A4076BD00C001B342401056872
:1023E000655904242C40946074D10C001B342401E2
:1023F00005686459640D14600C001B3424010568E1
:10240000665902253540D56005682D196E680F257F
:102410003540156105682D196E68360AFF2535406F
:1024200095610568AC4664446468240C54610A01F3
:102430000468A418B934FF3424681C700468A41814
:10244000B934FF342468240A5C700468A418B934D1
:10245000FF342468240C9C700468A418B934FF3439
:102460002468240EDC700468A418BD34FF3424688A
:102470001C710468A418BD34FF342468240A5C71FC
:102480000468A418BD34FF342468240C9C710468CB
:10249000A4466244BD32FF321268120EDA7100297E
:1024A00020D10268D36820310B43D36000208CE731
:1024B000426A80239B0313434362012085E704683B
:1024C0002469A40788D1426A80239B031343436293
:1024D00001207AE70C001B34240105686459E408E4
:1024E000546089E70268136920210B4313610020BF
:1024F0006BE72023C35C013BDBB2012B06D9426AA8
:102500008023DB0213434362012070470268536952
:10251000194351610020F8E77047704770477047D2
:1025200070477047704770477047704770477047F3
:10253000F8B5DE4657464E464546E0B50500036809
:102540005C695F689E68DA6891461A6990469A6984
:102550009246E2075CD5F20715D501229A60B307CF
:1025600007D4730730D4330708D580235B019B461B
:102570000BE0FFF7D1FF00239B4606E0FFF7CFFFFC
:1025800000239B4601E000239B46F3050CD52B68F6
:10259000802252009A60B3051AD473051CD580239B
:1025A0009B015A461A439346F30333D52B68802286
:1025B00052029A60B3031BD473031DD580231B0200
:1025C0005A461A43934625E080231B019B46DCE7CD
:1025D0002800FFF7A2FFE7E7330505D58023DB01DD
:1025E0005A461A439346DFE72800FFF799FFDBE7D7
:1025F0002800FFF793FF0DE0330305D580235B022E
:102600005A461A43934605E02800FFF78AFF01E087
:1026100000239B4623070AD54B46DB0607D58023BC
:102620009B005A461A4393462B681022DA606307D0
:1026300002D54B461B0758D4A30703D52B68DB688C
:102640009B0759D163060AD54346DB0607D580238D
:10265000DB005A461A4393462B6810221A61A306E0
:1026600002D543461B074BD4E30603D52B681B69F1
:102670009B074CD1A30301D5FB064CD4E30301D542
:102680003B074FD4230469D57B0764D5E30506D502
:102690005346DB0703D501235A461A439346A30545
:1026A00006D553469B0703D502235A461A43934641
:1026B000630506D553465B0703D504235A461A43E0
:1026C0009346230547D570235246134043D0302B01
:1026D0004DD02ED9502B4FD0602B52D0402B35D11E
:1026E00040235A461A43934630E02B680822DA60AA
:1026F0002800FFF717FF9FE7280003F0B5FDA1E7CB
:102700002B6808221A612800FFF70EFFACE72800AB
:10271000FFF709FFAEE72B6810225A602800FFF789
:1027200004FFABE72B6808225A602800FFF7FEFE83
:10273000A8E7102B06D0202B08D110235A461A43A5
:10274000934603E008235A461A4393462A6893693E
:1027500070218B4393612B6804225A605B46002BE7
:1027600015D13CBC90469946A246AB46F8BD202305
:102770005A461A439346E9E780235A461A4393463A
:10278000E4E780235B005A461A439346DEE76B6A10
:102790005A4613436B622800FFF7C9FEE1E70000C9
:1027A00070B5002811DB8308144DC0339B005C59C1
:1027B00003221040C000FC3216008640B443890159
:1027C0000A40824022435A5170BDC0B20F230340D9
:1027D000083B9B0806339B00094A944663445D68A6
:1027E00003242040C000FF2214008440A543890137
:1027F0001140814029435960E6E7C04600E100E00E
:1028000000ED00E0002805DB1F2318401E3B83403D
:10281000014A13607047C04600E100E0BFF34F8FEC
:10282000034B044ADA60BFF34F8FC046FDE7C04652
:1028300000ED00E00400FA0501380A4B98420FD879
:10284000094A50600948036A1B021B0AC021090695
:102850000B4303620023936007331360002070472B
:102860000120FCE7FFFFFF0010E000E000ED00E0CA
:1028700070B5C56B0124066CB4406C60046863607D
:102880004368102B04D0036899600368DA6070BD58
:1028900003689A600368D960F9E7000010B5040086
:1028A0000368064A9446634418001421FDF72CFC83
:1028B00080002064024BE36310BDC046F8FFFDBFFB
:1028C0000000024070B5041E20D02125022343558C
:1028D00001680B680E4A1A40436880680343E06849
:1028E00003432069034360690343A0690343E0692C
:1028F000034313430B602000FFF7D0FF0023A363C3
:10290000012262551F32A354002070BD0120FCE754
:102910000FC0FFFF70B504002020205C012832D0DA
:102920002020012525540130205C012804D02023DB
:102930000022E254022070BD2030013525540020D1
:10294000A063256828680126B04328602000FFF7AF
:102950008FFFE36A002B0BD0226813680E210B4314
:1029600013602268136801210B4313600020E2E723
:10297000226813680A210B43136022681368063922
:102980008B431360EDE70220D5E710B52123C35C2C
:10299000022B03D004238363012010BD0268136857
:1029A0000E218B43136001680A6801239A430A6071
:1029B000C26B1900046CA1405160212283541F3363
:1029C0000022C254436B002B02D098470020E4E75A
:1029D0000020E2E770B5C36B1A6804682568016CD3
:1029E00004238B401A4212D06B0710D523689B0634
:1029F00003D42368042293432360C26B0423016C35
:102A00008B405360C36A002B00D0984770BD0223EF
:102A10008B401A4218D0AB0716D523689B0606D404
:102A200023680A22934323602123093AC254C26BCC
:102A30000223016C8B40536020230022C254836A1E
:102A4000002BE3D09847E1E708238B401A42DDD002
:102A50002B07DBD523680E2293432360C26B01232F
:102A60001900046CA14051608363212283541F33F9
:102A70000022C254036B002BC8D09847C6E721231D
:102A8000C05CC0B27047000010B5054B0022DA618F
:102A9000044A1369012423431361018010BDC04619
:102AA00068000020002002400C4BDB68DB0613D5D9
:102AB0000B4AD36902210B43D3611023074AD26822
:102AC000520706D50649CA6901200243CA61042299
:102AD0001343024AD36070470023EFE7002002400F
:102AE00068000020084B1B691B060BD5064B074AE4
:102AF0005A60074A5A601B691B0601D5012002E093
:102B0000002000E0002070470020024023016745BC
:102B1000AB89EFCD034A136980210B431361002079
:102B20007047C0460020024070B50400FFF7E6F889
:102B30000500134BDB68DB070AD5631CF9D0002CBA
:102B400019D0FFF7DBF8401BA042F2D9032011E0B7
:102B50000B4BDB689B0602D5094B2022DA60084B41
:102B6000DB68DB0603D4064BDB685B0705D5FFF7A4
:102B70009BFF012070BD0320FCE70020FAE7C04660
:102B800000200240F0B5C64600B504000D00904696
:102B90001E00214B1B7E012B3BD01F4B01221A76BE
:102BA0001E48FFF7C1FF00282DD1012C06D0022CB2
:102BB00002D0042700241BE00227FBE70127F9E7E6
:102BC0002022D21A310091400A004146D9401143D7
:102BD00089B24019FFF758FF1048FFF7A5FF104AC8
:102BE000136901218B43136100280CD10134E4B235
:102BF000BC4208D260002301202252429A18DFD43E
:102C00003100D140E4E7044B00221A7604BC904620
:102C1000F0BD0220FAE7C0466800002050C3000063
:102C200000200240064B0022DA61064B1A6904219B
:102C30000A431A611A693C310A431A617047C04657
:102C40006800002000200240064B0022DA61064B9B
:102C50001A6902210A431A6158611A693E310A430E
:102C60001A617047680000200020024070B505001E
:102C70000E00244B1B7E012B41D0224B01221A76E1
:102C80000368012B22D02048FFF74EFF002831D1E6
:102C900001235B4233606C680130AB68DB026A6819
:102CA00094466344A34226D92000FFF7CDFF16487F
:102CB000FFF73AFF154A136902218B43136100287D
:102CC00016D180231B019C466444E6E70E48FFF7BB
:102CD0002BFF002801D001200DE0FFF7A3FF0A48D9
:102CE000FFF722FF094A136904218B43136102E0B5
:102CF000346000E00120034B00221A7670BD0220F0
:102D0000FCE7C0466800002050C3000000200240DD
:102D1000F0B5CE46474680B583B0002333E00426A5
:102D200000E00026AE4035003D430234A400574E7B
:102D3000A551574C2568D4432E0026404F68FF0309
:102D400001D515432E00524D2E606D682E00264091
:102D50004F68BF0301D515432E004D4D6E60AD6821
:102D60002E0026404F68FF0201D515432E00484D26
:102D7000AE60ED682C404E68B60201D52A431400BF
:102D8000434AD46001330A681400DC4079D001243E
:102D90009C402240F6D04D686E1E012E03D9112DA5
:102DA00001D0122D12D185685F000326BE40B543C5
:102DB0002E00CD68BD40354385604568A5434C680D
:102DC0002609012434409C402C434460C7685E00BF
:102DD0000324B440E443A44627408D68B5403D43F6
:102DE000C5604C68022C01D0122C10D1DC080834CC
:102DF000A400A146275807251D40AD000F24AC4074
:102E0000A7430C69AC4025003D434C46255005685E
:102E10006446254003244F683C40B4402C43046082
:102E20004C68E400AED51B4DAE6901242643AE616B
:102E3000AD692C400194019C9C08A51CAD00134E6B
:102E4000AF5903261E40B5000F26AE40B74390266B
:102E5000F605B04200D164E70F4EB0420BD00F4EE2
:102E6000B0420AD00E4EB04209D00E4EB04200D150
:102E700055E7052656E7012654E7022652E70326C2
:102E800050E703B00CBC90469946F0BD00000140ED
:102E900000040140001002400004004800080048FF
:102EA000000C004800100048002A01D181627047E0
:102EB0008161FCE703689A69920701D500229A6252
:102EC00003689A69D20703D49A6901210A439A6177
:102ED00070470000F0B5059C05686868660D80279E
:102EE000FF003740054E3E43B0438905890D12046B
:102EF00011430B43234303436B60F0BDFF63FF03A8
:102F0000436B194A934213D0184A934210D00BB224
:102F1000002B27DB0023CA0701D5F22213438A07BF
:102F200001D5F422134320290CD12022134309E0B8
:102F30000BB2002B0BDB002310290AD020290BD069
:102F400040290CD001680A6813430B607047B8230E
:102F5000F2E790221343F1E760221343F0E74022A7
:102F60001343EFE7B823D6E7953C00086D3B000814
:102F700030B5CB0709D54123C35C28221340282B49
:102F800001D0F22302E01A3300E000238A0709D5BA
:102F900044241C434122825C28252A40282A0FD041
:102FA000F42213430AB2002A0CDB10290DD0202989
:102FB0000ED040290FD001680A689A430A6030BDDC
:102FC0002300EFE7B8221343EFE790221343EEE725
:102FD00020221343EDE740221343ECE710B5041E13
:102FE00059D04123C35C002B43D041232422E25417
:102FF0002268136801218B4313602268274B6168A4
:103000000B4013612268936825490B409360E36885
:10301000012B34D0226884231B02A1680B439360E8
:10302000E368022B32D0226851681E4B0B43536079
:103030002268D3681A490B40D3602369626913433D
:10304000A269120221681343CB602268E369216AF6
:103050000B4313602268136801210B4313600023A4
:10306000636441221F31A15423630132A354002021
:1030700010BD40330022C25403F048FEB5E7226879
:1030800080231B02A1680B439360C9E72368802259
:1030900012015A60C7E70120EAE7C046FFFFFFF0D0
:1030A000FF7FFFFF00800002F8B504000D0016004E
:1030B0001F004123C35C28221340282B02D0012586
:1030C0002800F8BD002958D0002E56D04023C35CFC
:1030D000012B00D1A6E040230122C2545249FFF740
:1030E00047FF4123E35C2A2B4CD04123E35C292B8F
:1030F00063D041232922E2540133093AE2540023E8
:1031000063642268536849490B4053606562668571
:10311000638D2385E762464B6363A36B002B62D00C
:10312000444A9A62A36B444A1A63A26B0023D36297
:10313000A26B536322682832238D2900A06BFFF70E
:10314000E9FB051E5DD1638D228D9B1A9BB26385C1
:103150000023238523689A69D20360D44023002288
:10316000E254802109022000FFF7CAFE226811689C
:103170008023DB010B431360A2E780239B00636481
:1031800001259DE702212000FFF7F2FE23681A685F
:103190001204AED5E26B002AABD01A6823490A406C
:1031A0001A60E36B254A5A63E06BFFF7EEFB0028D9
:1031B0009FD0E06B436B98479BE723681A685204E3
:1031C00097D51A681E490A401A60A36B002B90D04D
:1031D0001A4A5A63A06BFFF7D8FB002889D0A06B6E
:1031E000436B984785E741232822E25400220133AC
:1031F000E254636C80210B4363644023E254012555
:103200005EE741232822E25400220133E254636C3A
:1032100010210B4363644023E254012550E7082248
:10322000DA619BE702254BE701800000FF7FFFFF8B
:103230006D3B0008F5340008D13D0008473E00080A
:10324000FFBFFFFFF8B504000D0016001F0041236B
:10325000C35C28221340282B02D001252800F8BD8A
:10326000002901D0002E04D180239B006364012536
:10327000F4E75449FFF77CFE4023E35C012B00D1C7
:103280009DE040230122E2540133E35C292B46D028
:103290004123E35C2A2B5DD041232A22E2540133EF
:1032A0000A3AE254002363642268536846490B409B
:1032B000536065626685638D2385E762434B636374
:1032C000E36B002B5CD0424A9A62E36B414A1A637B
:1032D000E26B0023D362E26B536321682431238DB8
:1032E0002A00E06BFFF716FB051E57D1638D228D78
:1032F0009B1A9BB263850023238523689A69D203B6
:103300005AD540230022E2542E492000FFF7F8FD51
:103310002268116880231B020B4313609EE7012182
:103320002000FFF725FE23681A685204B4D5A26B6B
:10333000002AB1D01A6828490A401A60A36B274AAC
:103340005A63A06BFFF721FB0028A5D0A06B436B4D
:103350009847A1E723681A6812049DD51A681A498C
:103360000A401A60E36B002B96D01C4A5A63E06B4C
:10337000FFF70BFB00288FD0E06B436B98478BE780
:1033800041232822E25400220133E254636C80215D
:103390000B4363644023E25401255FE74123282265
:1033A000E25400220133E254636C10210B43636446
:1033B0004023E254012551E70822DA61A1E7022502
:1033C0004CE7C04602800000FF7FFFFF6D3B000816
:1033D0001D350008D13D0008FFBFFFFF473E000834
:1033E00010B54123C35C202B01D0022010BD213336
:1033F0002822C254034B436380210902FFF780FD5A
:103400000020F3E70939000810B5036899691A68C4
:10341000436B002B00D0984710BD7047704770B5C4
:10342000040042230022C254013BC35C212B0FD075
:1034300041232022C2542F3B036300254563022110
:10344000FFF796FD4023E5542000FFF7E7FF70BD2E
:1034500020332032C254303B0363002545630121F1
:10346000FFF786FD4023E5542000FFF7D6FFEEE787
:1034700010B5040003681A6842210020605451040A
:103480000CD51A6819490A401A604123E35C292BBC
:103490000BD04123E35C2A2B17D010BD1204F4D5C6
:1034A0001A6813490A401A60EFE718332822E254D9
:1034B000203B236301212000FFF75AFD4023002217
:1034C000E254200002F0A0FFE7E717332822E2547D
:1034D0001F3B236302212000FFF74AFD4023002207
:1034E000E254200002F074FFD7E7C046FFBFFFFFA1
:1034F000FF7FFFFF10B5406AC36A802252049342E7
:1035000001D0002B06D10268136803490B401360F9
:10351000FFF7AEFF10BDC046FFBFFFFF10B5406A0A
:10352000C26AC36B1B685B68002B09D1054B9A42CA
:1035300006D00268136804490B401360FFF798FF38
:1035400010BDC0460000FFFFFF7FFFFFF8B504007D
:103550004123C35C28221340282B06D0036808228D
:10356000DA6140230022C254F8BD03689E69360C1C
:10357000273A16409A69120CFE273A4015009A68BD
:103580009205920DD8680740E168022923D1D0093D
:1035900045400431294210D1A16C0131A164A16CD4
:1035A0000229E1D10021A1640820D8614023E1541F
:1035B0003100200002F070FED6E7802109022000D1
:1035C000FFF7D6FC40230022E2543A0031002000ED
:1035D00002F062FEC8E7802109022000FFF7C8FC64
:1035E00040230022E2542A003100200002F054FE61
:1035F000BAE7000010B50400164BC3620023036352
:1036000041222020A0540132A35463634B0713D5F9
:1036100023685B6A626A1370636A01336362238D95
:10362000002B09D0013B2385638D013B9BB2638551
:10363000636C04221343636407492000FFF798FC7E
:1036400023681022DA6140230022E254200002F0B5
:1036500067FE10BD0000FFFF038000007047704749
:10366000704710B54123C35C602B06D00023036371
:103670004022835402F0CEFE10BD1F3B2022C254D4
:103680000023036320328354FFF7EAFFF4E70000CE
:1036900010B504004123C35C0022422022543A4862
:1036A000E0626285626C11436164283BDBB2022BED
:1036B0001BD803212000FFF75BFC41232822E254A2
:1036C000324B6363236BA26B002A03D0112B1AD0F9
:1036D000212B18D0E26B002A03D0122B33D0222BDF
:1036E00031D02000FFF7BDFF10BD29492000FFF7B2
:1036F0003FFC4123E35C602B02D041232022E254B3
:1037000000236363DEE723681A68520403D51A684E
:1037100020490A401A60A06BFFF7B1F901280ED0CA
:10372000A36B1D4A5A6340230022E254A06BFFF7AB
:103730002CF90028D8D0A06B436B9847D4E7200021
:10374000FFF78FFFD0E723681A68120403D51A68C1
:1037500012490A401A60E06BFFF791F901280ED078
:10376000E36B0D4A5A6340230022E254E06BFFF7FB
:103770000CF90028B8D0E06B436B9847B4E7200001
:10378000FFF76FFFB0E7C0460000FFFF09390008F0
:1037900003800000FFBFFFFF473E0008FF7FFFFFE1
:1037A00070B504000D00026816684123C35CDBB2EB
:1037B0002021D161212B0CD0292B0AD0222B01D022
:1037C0002A2B0CD14A492000FFF7D2FB2223236386
:1037D00005E048492000FFF7CBFB21232363226843
:1037E000516880231B020B4353602268536842498F
:1037F0000B4053602000FFF75DFB730441D5226846
:1038000013683E490B401360A36B002B03D01B6869
:103810005B689BB263856B0711D504239D432368C6
:103820005B6A626A1370636A01336362238D002BE3
:1038300005D0013B2385638D013B9BB26385638D7E
:103840009BB2002B03D0636C0422134363640023F8
:103850004222A3546363636C002B21D1E26A284B9C
:103860009A422AD14123E35C222B36D041232022E5
:10387000E254002323632032A354200002F0C4FD4D
:103880002AE03304C7D5226813681E490B40136031
:10389000E36B002BBFD01B685B689BB26385BAE704
:1038A000616C2000FFF7F4FE4123E35C282B13D169
:1038B00029002000FFF79EFE0EE02000FFF7D8FD54
:1038C0000F4BE36241232022E25400232363203282
:1038D000A354200002F024FD70BD1F332022E254C7
:1038E000002323632032A354200002F071FDF3E78C
:1038F000028000000180000000E800FEFFBFFFFF23
:103900000000FFFFFF7FFFFFF8B504000D00160069
:10391000C76A4023C35C012B00D196E001234022FB
:1039200083544A09134201D0B30617D4EB0640D59D
:10393000F3063ED5638D9BB2002B28D14133E35C67
:10394000282B0ED04123E35C292B13D023681022AF
:10395000DA6140230022E2540020F8BDFFF720FF87
:10396000E4E780239B049F42ECD129002000FFF76D
:1039700041FEEEE7364B9F42E8D023681022DA6121
:103980002000FFF797FA2000FFF772FDE1E72368B8
:103990001022DA61636C0C3A13436364002F03D086
:1039A00080235B049F42D4D1616C2000FFF770FE3E
:1039B000CFE76B071ED573071CD5638D9BB2002B19
:1039C0000DD023685B6A626A1370636A01336362B5
:1039D000238D013B2385638D013B9BB26385638D02
:1039E0009BB2002BB5D11A4B9F42B2D02000FFF7FB
:1039F0003FFDAEE72B0701D5330716D4AB07A8D59B
:103A0000B307A6D5638D9BB2002B13D02368626ADF
:103A100012789A62636A01336362638D013B9BB2E1
:103A20006385238D013B238593E729002000FFF761
:103A30008DFD8EE780235B049F4202D0002F00D0D3
:103A400087E72000FFF714FD83E7022085E7C046E3
:103A50000000FFFF30B583B004000D000368202292
:103A6000DA614123C35C212B3DD04123C35C222B6F
:103A70003FD0226853683B490B4053600023636387
:103A8000394BE362EB0606D523681022DA61636CDA
:103A90000C3A134363644123E35C602B2FD0200076
:103AA000FFF708FA626C4123E35C602B30D0002AF8
:103AB0002ED14123E35C212B30D04123E35C222B28
:103AC0002AD11F332022E254002323634233E35CD4
:103AD000402B3ED000234222A354023AA35420009C
:103AE000FFF79CFC18E00121FFF742FA1123236342
:103AF000BFE70221FFF73CFA12232363B9E76B0704
:103B0000CDD523685A6AFF2313400193019BC6E772
:103B1000616C2000FFF7BCFD03B030BD20332022D4
:103B2000E254002323634233E35C402B08D000239C
:103B30004222A354023AA3542000FFF76EFCEBE7A5
:103B400000232232A354023AA3542000FFF786FD3B
:103B5000E2E700232232A354023AA3542000FFF7E5
:103B60007EFDD9E700E800FE0000FFFFF8B5040085
:103B70000D001600C76A4023C35C012B00D185E00D
:103B80000123402283544A09134201D0B30614D4BE
:103B9000EB066DD5F3066BD5B20B0123134001D1B3
:103BA000320461D5E26B002A0AD031040AD51268CA
:103BB0005268002A2DD0002105E0FFF7F1FDE7E76C
:103BC000002100E00021A26B002A05D0002B03D0C9
:103BD00013685B68002B1ED001291CD023681022BB
:103BE000DA61636C0C3A134363644123E35CDBB238
:103BF000002F03D08022520497423DD1212B2CD09C
:103C0000292B2AD0222B01D02A2B28D1222323632F
:103C100025E00121D7E74123E35C282B07D041238E
:103C2000E35C292B0CD023681022DA6124E0802386
:103C30009B049F42F3D129002000FFF7DBFC1BE02F
:103C4000134B9F42EFD023681022DA612000FFF768
:103C500031F92000FFF70CFC0EE021232363616C97
:103C60002000FFF715FD07E023681022DA6103E06A
:103C70002B0701D5330704D440230022E25400204F
:103C8000F8BD29002000FFF761FCF5E70220F7E707
:103C90000000FFFF10B582B004004023C35C012B7D
:103CA00000D191E00123402023540809034201D0B0
:103CB000D3062FD40B0660D553065ED52268136851
:103CC00040218B431360638D9BB2002B48D0236847
:103CD00059688905890D638D9BB2FF2B2ED9FF236F
:103CE000238580235B04228DD2B200200090200027
:103CF000FFF7F0F8638D228D9B1A9BB263854123F9
:103D0000E35C222B25D0226811688023DB010B4362
:103D100013600DE023681022DA61636C0C3A1343E0
:103D2000636420212000FFF7EBF82000FFF7C2F8C2
:103D300040230022E254002002B010BD638D238591
:103D4000E26A224B9A4201D0E36ACCE780239B04CB
:103D5000C9E72268116880231B020B431360E7E761
:103D600023685B689B0103D42000FFF758FBDFE763
:103D700040212000FFF78CFCDAE74B061CD55306E8
:103D80001AD5638D9BB2002B11D123685A6892011A
:103D9000CED4E16A0D4A914205D159688022D20100
:103DA0000A435A60C4E72000FFF739FBC0E740210F
:103DB0002000FFF76DFCBBE78B06B9D59306B7D59E
:103DC0002000FFF747FEB3E70220B5E70000FFFF42
:103DD00010B5406A0268516880231B020B43536090
:103DE0001021FFF755FC10BD70B50268936911688A
:103DF000DC0508D50C0606D5446C01252C4344642B
:103E000080246400D4615A0509D50A0607D5426C9E
:103E100008242243426402688024E400D4619B05A4
:103E200009D50B0607D5436C02221343436403688C
:103E3000FF32FF32DA61416C0B230B4200D170BDBF
:103E4000FFF726FCFBE710B5406A836B002B01D01F
:103E500000225A63C36B002B01D000225A63FFF784
:103E600000FC10BDF0B54123C35C202B20D12033D2
:103E7000C35C012B1ED0402401220255412524237E
:103E800043550668336893433360066833680A4FC6
:103E90003B403360066833681943316001680B6842
:103EA00013430B602023435500230355002000E0FB
:103EB0000220F0BD0220FCE7FFEFFFFFF0B5412339
:103EC000C35C202B1ED12033C35C012B1CD04024AB
:103ED0000122025541252423435506683368934344
:103EE000336006683368094F3B400902194331606B
:103EF00001680B6813430B602023435500230355CF
:103F0000002000E00220F0BD0220FCE7FFF0FFFFF0
:103F100070B582B0041E00D185E20368DB072BD5A3
:103F2000B34B5A680C231340042B1DD0B04B5A6876
:103F30000C231340082B0ED06368012B41D0002BBB
:103F400056D1AB4B1A68AB490A401A601A68AA49A5
:103F50000A401A603BE0A64B5B68C0225202134045
:103F6000802252029342E7D1A14B1B689B0303D5E9
:103F70006368002B00D159E223689B0778D59C4BDE
:103F80005B680C221A4262D0994B5A680C2313408A
:103F9000082B53D0E368002B00D18BE0944A1368C0
:103FA00001210B431360FDF7A9FE0500904B1B6830
:103FB0009B0776D4FDF7A2FE401B0228F6D903200A
:103FC00032E28B4A116880235B020B431360636803
:103FD000002B25D0FDF792FE0500854B1B689B0347
:103FE000CAD4FDF78BFE401B6428F6D903201BE2E0
:103FF000052B09D07E4B1A687E490A401A601A6860
:104000007D490A401A60E2E7794B19688022D202A2
:104010000A431A601968802252020A431A60D6E7DE
:10402000FDF76CFE0500724B1B689B03A4D5FDF7E2
:1040300065FE401B6428F6D90320F5E16C4B5B68F4
:10404000C02252021340802212029342A2D1684B36
:104050001B689B0704D5E368012B01D00120E3E135
:1040600063490B68F82293432269D20013430B6023
:1040700023681B0744D5E369002B2ED05C4A536AA2
:1040800001210B435362FDF739FE0500584B5B6A73
:104090009B0735D4FDF732FE401B0228F6D90320DA
:1040A000C2E153490B68F82293432269D2001343BB
:1040B0000B60DDE74E4A136801218B431360FDF767
:1040C0001DFE05004A4B1B689B07D1D5FDF716FE68
:1040D000401B0228F6D90320A6E1454A536A012174
:1040E0008B435362FDF70AFE0500414B5B6A9B0759
:1040F00006D5FDF703FE401B0228F6D9032093E105
:1041000023685B0700D47FE0394BDB69DB001DD4FB
:10411000374AD169802040050143D161D36903400A
:104120000193019B0125354B1B68DB0510D5A36866
:10413000012B21D0002B36D12D4B1A6A01218A4345
:104140001A621A6A03318A431A621AE00025EAE702
:104150002A4A116880235B000B431360FDF7CEFDF4
:104160000600264B1B68DB05E1D4FDF7C7FD801B6D
:104170006428F6D9032057E11D4A136A01210B4335
:104180001362A368002B24D0FDF7B8FD0600184B7E
:104190001B6A9B0736D4FDF7B1FD801B184B984274
:1041A000F5D9032040E1052B09D0114B1A6A0121F2
:1041B0008A431A621A6A03318A431A62E1E70C4B96
:1041C0001A6A04210A431A621A6A03390A431A62F4
:1041D000D7E7FDF793FD0600054B1B6A9B0711D53A
:1041E000FDF78CFD801B064B9842F5D903201BE19F
:1041F00000100240FFFFFEFFFFFFFBFF00700040CA
:1042000088130000012D3AD02368DB0610D56369BE
:10421000012B3AD0053358D1884A536B04218B4384
:104220005363536BF4318B43A169C9000B43536350
:1042300023689B0600D482E0804B5A680C2313400D
:104240000C2B60D07D4B5A680C231340082B53D0A5
:10425000236A002B60D0794A516B80235B020B43A9
:104260005363FDF74BFD0500744B5B6BDB0366D4BA
:10427000FDF744FD401B0228F6D90320D4E06F4A25
:10428000D3696F490B40D361BEE76C4B5A6B042175
:104290000A435A635A6B03390A435A63FDF72EFDEA
:1042A0000500664B5B6B9B0706D4FDF727FD401BA3
:1042B0000228F6D90320B7E060494B6BF8229343FC
:1042C000A269D20013434B63B2E75C4B5A6B0421E3
:1042D0000A435A635A6B03398A435A63FDF70EFD4A
:1042E0000500564B5B6B9B07A2D5FDF707FD401BF6
:1042F0000228F6D9032097E0504B5B68C022520297
:1043000013409342A4D14D4B5B6BDB0317D5236A5B
:10431000012B14D0012087E0484A536B49490B40D8
:104320005363FDF7EBFC0500444B5B6BDB0306D5E9
:10433000FDF7E4FC401B0228F6D9032074E0636A11
:10434000002B00D174E03D4A51680C220A40082A33
:104350004DD0022B12D0394A13683B490B401360F1
:10436000FDF7CCFC0400354B1B689B013DD5FDF7E8
:10437000C5FC001B0228F6D9032055E02F4A13681C
:1043800031490B401360FDF7B9FC05002B4B1B684E
:104390009B0106D5FDF7B2FC401B0228F6D903208D
:1043A00042E0264BDA6A0F218A43216B0A43DA6224
:1043B0005A6826490A40E16AA06A01430A435A60E2
:1043C0001968802252040A431A60FDF797FC040022
:1043D0001A4B1B689B0106D4FDF790FC001B0228BA
:1043E000F6D9032020E000201EE000201CE0012B75
:1043F00020D0124B5A68D96AC0235B021340A06ACE
:10440000834201D001200FE00F230B40216B8B4230
:1044100001D0012008E0F0239B031A40E36A9A428E
:104420000AD0012000E0012002B070BD0120FBE7AE
:104430000020F9E70120F7E70020F5E7001002402F
:10444000FFFFFFEFFFFFFEFFFFFFFFFEFF7FC2FF4B
:1044500030B589B004AA214B180032C832C211000D
:1044600002680A606A46103313CB13C21B681360DC
:104470001B4B5A680C231340082B08D00C2B2AD056
:10448000042B01D0174800E0174809B030BD910C4B
:104490000F23194004A8445C1149C96A0B406946BE
:1044A000C95CC0235B021A4080235B029A4208D099
:1044B000C0235B029A4209D00A48FBF725FE6043FD
:1044C000E3E70948FBF720FE6043DEE70748FBF718
:1044D0001BFE6043D9E70548D7E7C046687100086E
:1044E0000010024000127A000024F400006CDC028C
:1044F00070B504000D00002800D189E0464B1A6811
:10450000012313408B420BD243490B680122934392
:104510002B430B600B681A40AA4201D0012078E0BF
:1045200023689A070ED55B0705D53C4A5168E023FE
:10453000DB000B435360394A5368F0218B43A16879
:104540000B4353602368DB0735D56368012B09D023
:10455000022B24D0032B28D0304A1268920705D4AE
:10456000012056E02D4A1268920353D52B494A6820
:104570000320824313434B60FDF7C0FB0600274B2B
:104580005B680C221A4063689B009A4213D0FDF7C7
:10459000B5FB801B224B9842F1D9032039E01F4A1A
:1045A00012689201E2D4012033E01C4A526BD2031C
:1045B000DCD401202DE0184B1A6801231340AB42D4
:1045C0000BD915490B68012293432B430B600B68F1
:1045D0001A40AA4201D001201BE023685B0706D5E0
:1045E0000E4A53680F490B40E1680B435360FFF7D5
:1045F0002FFF0A4B5A6812090F2313400A4AD35C53
:10460000D8400A4B18600020FDF734FB002000E082
:10461000012070BD0120FCE7002002400010024094
:1046200088130000FFF8FFFFFC7200080C00002058
:10463000014B18687047C0460C00002010B5FFF70A
:10464000F7FF044B5A68120A07231340024AD35C4F
:10465000D84010BD001002400C73000870B582B045
:1046600004000368DB0335D54B4BDB69DB0066D404
:10467000494AD169802040050143D161D369034093
:104680000193019B0125454B1B68DB0559D5424B26
:104690001B6AC0229200134013D061680A409A42FC
:1046A0000FD03D4B186A3E4A02401E6A80214902E3
:1046B00031431962196A3B4E314019621A62C307CD
:1046C00053D4354A136A36490B4061680B43136271
:1046D000012D59D02368DB0706D52F4A136B032120
:1046E0008B43A1680B43136323689B0706D52A4AB3
:1046F000136B2D490B40E1680B43136323689B0642
:1047000006D5254A136B10218B4321690B43136394
:1047100023689B0306D5204A136B80218B43A16934
:104720000B43136323685B0533D51B4A136B40218E
:104730008B4361690B431363002002B070BD0025F9
:10474000A1E7164A116880235B000B431360FDF755
:10475000D5FA0600114B1B68DB0598D4FDF7CEFA9D
:10476000801B6428F6D90320E7E7FDF7C7FA0600A7
:10477000094B1B6A9B07A4D4FDF7C0FA801B0B4BA7
:104780009842F5D90320D8E7D36909490B40D36192
:10479000A0E70020D1E7C0460010024000700040B2
:1047A000FFFCFFFFFFFFFEFFFFFFFCFF8813000081
:1047B000FFFFFFEFF0B5CE46474680B583B005005A
:1047C0000C0017001E00FDF799FA0A9B181A804684
:1047D000B044FDF793FA81462C4B1B685B011B0D1F
:1047E0004246534301932B689B6823401B1B5A424C
:1047F0005341BB4244D0731CF5D0FDF77FFA4B46C2
:10480000C01A40450AD24346002B07D0019B002B1B
:1048100000D19846019B013B0193E4E72A68536865
:10482000E0218B43536082235B006A689A420CD07C
:1048300080239B01AA6A9A4216D05D230122EA5482
:10484000013B0022EA5403201BE0AB6880221202E5
:10485000934203D08022D2009342E9D12A681368A0
:1048600040218B431360E3E72A68136808490B4033
:1048700013602A68116880239B010B431360DCE7F7
:10488000002003B00CBC90469946F0BD0C000020FF
:10489000FFDFFFFFF0B5CE46474680B583B0060088
:1048A0000C0015001F00FDF729FA0A9B181A804614
:1048B000B844FDF723FA8146314B1A6893009A18E1
:1048C000D3009B1A1B0D42465343019301E07B1C0E
:1048D0000CD1326893682340AB424AD0C023DB003E
:1048E0009C42F4D1002DF2D1137BF0E7FDF706FADC
:1048F0004B46C01A40450AD24346002B07D0019BC5
:10490000002B00D19846019B013B0193E1E73268FF
:104910005368E0218B43536082235B0072689A42A4
:104920000CD080239B01B26A9A4216D05D230122EB
:10493000F254013B0022F25403201BE0B3688022B2
:104940001202934203D08022D2009342E9D132680E
:10495000136840218B431360E3E732681368094909
:104960000B4013603268116880239B010B43136076
:10497000DCE7002003B00CBC90469946F0BDC04671
:104980000C000020FFDFFFFF70B582B004000D00B7
:104990001600C02100922B0000224901FFF77AFF88
:1049A000002818D100962B00002280212000FFF75C
:1049B00001FF002816D1C02100962B000022C9005B
:1049C0002000FFF767FF00280AD0236E2022134340
:1049D0002366032004E0236E202213432366032072
:1049E00002B070BD236E2022134323660320F7E735
:1049F00070B5041E00D178E0436A002B07D105335F
:104A0000FF3342689A4205D00023C36102E00023CD
:104A1000036143610023A3625D33E35C002B5AD042
:104A20005D230222E2542268136840218B43136005
:104A3000E368E022D200934254D90022F021090118
:104A40008B4205D0E021C9008B4201D00023A36234
:104A500082235B0061680B4084210902A068014049
:104A60000B430221206901400B430121606908408A
:104A7000034380208000A569284003433820E5696E
:104A8000284003438020256A28400343802080017A
:104A9000A56A2840256803432B60608B04230340EC
:104AA0001020656A284003430820656B28400343B3
:104AB000F0200001E5682840034320681343436069
:104AC0002268D3690A480340D361002323665D331B
:104AD000E154002070BD5C330022E254200002F05B
:104AE00089F99DE780225201A8E70120F2E7C0463C
:104AF000FFF7FFFFF0B585B00400019116001F001D
:104B00005C23C35C012B00D1C6E05C230122C254AC
:104B1000FDF7F4F805005D23E35C012B08D00220CB
:104B20005D230122E254013B0022E25405B0F0BDB6
:104B30000199002900D1A1E0002E00D1A0E05C3352
:104B40000322E25400232366A163A687E687236439
:104B50004132A3520232A3522365E36480231B0235
:104B6000A2689A421DD023681A68520603D41A68B4
:104B700040210A431A60E023DB00E2689A4238D9F8
:104B80006368002B01D0012E20D12368A26B12880C
:104B9000DA60A36B0233A363E38F013B9BB2E3872D
:104BA00014E02268136840218B4313602268116867
:104BB0008023DB010B431360D5E7FDF79FF8401B13
:104BC000B84201D37B1C5DD1002F5DD0E38F9BB237
:104BD000002B3BD023689A689207EED5A26B12880F
:104BE000DA60A36B0233A363E38F013B9BB2E387DD
:104BF000ECE76368002B01D0012E14D1A36B1B7866
:104C000022681373A36B0133A363E38F013B9BB251
:104C1000E38708E0FDF772F8401BB84201D37B1C24
:104C200034D1002F34D0E38F9BB2002B0ED02368F9
:104C30009A689207EED5A26B12781A73A36B0133B0
:104C4000A363E38F013B9BB2E387ECE72A003900C3
:104C50002000FFF799FE002801D020232366A368D7
:104C6000002B06D103932368DA6803929B680393B1
:104C7000039B236E002B0DD1002051E701204FE74D
:104C800001204DE703204BE7032049E7032047E7D6
:104C9000032045E7012043E7022047E730B5036AD8
:104CA000012293430362036A426884697325AC431B
:104CB0000D682C430225AB438D682B43144DA8424D
:104CC00008D0144DA84205D0134DA84202D0134D70
:104CD000A84205D10825AB43CD682B430425AB433F
:104CE0000B4DA84208D00B4DA84205D00A4DA84252
:104CF00002D00A4DA84205D1094D2A404D692A43E8
:104D00008D692A43426084614A684263036230BD10
:104D1000002C014000400140004401400048014097
:104D2000FFFCFFFF70B5036A194A13400362036A70
:104D30004268C4697325AC430E682643154C234072
:104D40008C6824022343144CA04219D0124CA04278
:104D500008D0124CA04205D0114CA04202D0114CF8
:104D6000A04207D1104C14404A69120122438C69B9
:104D700025012A434260C6614A68C263036270BD6E
:104D80000A4C1C40CB681B022343094C2340DDE73F
:104D9000FFFEFFFFFFFDFFFF002C01400040014030
:104DA0000044014000480140FFCFFFFFFFF7FFFF35
:104DB000FFFBFFFF30B5036A134A13400362026A28
:104DC0004368C469114D2C400D682D022C43104DD1
:104DD00015408A6812032A430E4DA84208D00E4D92
:104DE000A84205D00D4DA84202D00D4DA84204D1D5
:104DF0000C4D2B404D69AD012B434360C4614B68A2
:104E00000364026230BDC046FFEFFFFFFF8CFFFF6F
:104E1000FFDFFFFF002C0140004001400044014043
:104E200000480140FFBFFFFF30B5036A046A012557
:104E3000AC4304628469EF35AC43120122430A2477
:104E4000A34319438261016230BD000030B5036A9B
:104E50001024A34303628469036A054D2C401203A6
:104E60002243A024A343090119438261016230BD9A
:104E7000FF0FFFFF0B008168702291431943072346
:104E800019438160704770470368214A904206D0F9
:104E90008022D205904202D01E4A904203D1702255
:104EA00093434A6813431A4A904212D08022D20593
:104EB00090420ED0174A90420BD0174A904208D029
:104EC000164A904205D0164A904202D0154A9042A6
:104ED00003D1154A1340CA681343802293434A6999
:104EE000134303608B68C3620B688362084B98426C
:104EF00008D00A4B984205D0094B984202D0094B82
:104F0000984201D10B690363012343617047C04696
:104F1000002C0140000400400020004000400140FF
:104F20000044014000480140FFFCFFFF70B5041E33
:104F300026D03D23C35C002B1CD03D2502236355A6
:104F4000211D2068FFF7A0FF01234622A354083A41
:104F5000A3540132A3540132A3540132A3540132A9
:104F6000A3540132A3540132A3540132A354635514
:104F7000002070BD3C330022C25401F06DFFDCE71D
:104F80000120F6E770B5041E26D03D23C35C002B3C
:104F90001CD03D2502236355211D2068FFF774FFB7
:104FA00001234622A354083AA3540132A3540132E8
:104FB000A3540132A3540132A3540132A354013249
:104FC000A3540132A3546355002070BD3C3300222A
:104FD000C254FFF758FFDCE70120F6E770B5036A1B
:104FE000102293430362036A42688469174D2C4080
:104FF0000D682D0225432024A3438C6824012343FC
:10500000134CA04219D0124CA04208D0114CA0421F
:1050100005D0114CA04202D0104CA04207D1104C38
:1050200014404A69920022438C69A60032434260D0
:1050300085614A688263036270BD8024A3431C00BB
:10504000CB681B0123434024A343DCE7FF8CFFFF15
:10505000002C014000400140004401400048014054
:10506000FFF3FFFF70B504000D003C23C35C012B70
:1050700063D03C230121C154042A34D019D9082A11
:1050800047D00C2A2AD129000068FFF793FE226836
:10509000D16980231B010B43D3612268D36928495E
:1050A0000B40D3612168CB692A6912021343CB619B
:1050B00014E0002A12D129000068FFF7EFFD2268F2
:1050C000936908210B4393612268936904398B43E8
:1050D00093612268936929690B4393613C23002201
:1050E000E254002070BD29000068FFF777FF2268B6
:1050F000916980231B010B439361226893691049D6
:105100000B40936121688B692A69120213438B61FA
:10511000E4E729000068FFF705FE2268D36908214B
:105120000B43D3612268D36904398B43D36122686E
:10513000D36929690B43D361D0E70220D2E7C04687
:10514000FFFBFFFF30B58468034D2C401B021A4360
:1051500011432143816030BDFF00FFFF10B5040003
:105160003C23C35C012B66D03C230122C254013393
:105170000132C254026893683048034093600B6860
:10518000402B4ED015D9602B41D021D9702B2BD07C
:1051900080229201934232D1CB684A6889682068A4
:1051A000FFF7D0FF226891688023DB010B439360F7
:1051B00025E0102B07D004D9202B04D0302B02D0AF
:1051C0001DE0002B1BD119002068FFF753FE16E0ED
:1051D000502B14D1CA6849682068FFF725FE50217A
:1051E0002068FFF747FE0AE0CB684A6889682068B4
:1051F000FFF7A8FF2268936877210B4393603D2354
:105200000122E254013B0022E254002010BDCA6892
:1052100049682068FFF71AFE60212068FFF72AFE20
:10522000EDE7CA6849682068FFF7FEFD4021206865
:10523000FFF720FEE3E70220E8E7C0468800FFFF13
:1052400010B51F23194001248C40036AA343036255
:10525000036A8A401A43026210BD000010B50400C0
:10526000002936D13E23C35C013B5A1E9341DBB279
:10527000002B62D1002945D13E330222E2540122A3
:105280002068FFF7DDFF23682E4A934208D02E4A9C
:10529000934205D02D4A934202D02D4A934204D125
:1052A000596C802212020A435A642368254A9342A9
:1052B00038D08022D205934234D0264A934231D04E
:1052C000214A93422ED01A6801210A431A60002015
:1052D00034E0042908D008290DD04123C35C013BE8
:1052E0005A1E9341DBB2C3E73F23C35C013B5A1E06
:1052F0009341DBB2BCE74023C35C013B5A1E9341A0
:10530000DBB2B5E7042905D0082907D041230222E2
:10531000E254B4E73F230222E254B0E740230222E2
:10532000E254ACE7996807220A40062A07D01A68B7
:1053300001210A431A60002000E0012010BD002076
:10534000FCE7C046002C0140004001400044014001
:10535000004801400004004070B504000D00002228
:105360000068FFF76DFF23681E4A93421FD01E4A54
:1053700093421CD01D4A934219D01D4A934216D025
:105380002368196A1B4A114207D1196A1A4A114245
:1053900003D11A6801218A431A60002D14D0042D0C
:1053A00017D0082D19D041230122E2540FE0196AC9
:1053B000104A1142E4D1196A0F4A1142E0D15A6CE5
:1053C0000E490A405A64DBE73E230122E2540020E2
:1053D00070BD3F230122E254F9E740230122E25449
:1053E000F5E7C046002C0140004001400044014068
:1053F000004801401111000044040000FF7FFFFF3E
:1054000030B53C23C35C012B28D03C230122C2547D
:1054100001330132C25403685A689C687025AA435C
:105420000D682A435A6003680D4A934209D08022CE
:10543000D205934205D00B4A934202D00A4A9342C6
:1054400004D1802294434A6814439C603D23012286
:10545000C254013B0022C254002030BD0220FCE7B0
:10546000002C0140000400400040014010B53C23E6
:10547000C35C012B21D03C2201238354104BCC6808
:1054800023408C6823430F4C23404C6823430E4C2D
:1054900023400C6823430D4C23400C6923430C4CE0
:1054A00023404C6923430B4C2340C9690B430168DB
:1054B0004B6400238354002010BD0220FCE7C0464B
:1054C000FFFCFFFFFFFBFFFFFFF7FFFFFFEFFFFF0B
:1054D000FFDFFFFFFFBFFFFF10B504008368026915
:1054E000134342691343C269134301680A6863485E
:1054F000024013430B602268536861490B40E16826
:105500000B435360226AA3691A4321688B685D4884
:10551000034013438B6023685B4A93421BD05B4A72
:1055200093422CD05A4A93424BD05A4A934244D089
:10553000102380221202E169914244D0022B00D153
:105540008AE06FD9042B00D188E0082B00D08EE0D0
:10555000802000026CE0504B1A6B03231340012B98
:1055600009D0002B05D0022B07D0032B27D0102306
:10557000DFE70023DDE70423DBE70823D9E7464B19
:105580001B6BC022920213408022520293420ED023
:1055900009D98022920293420BD0C02292029342F8
:1055A00009D10223C5E7002B05D10023C1E704235D
:1055B000BFE70823BDE71023BBE70023B9E70223B9
:1055C000B7E70023B5E7022B2AD006D9042B24D055
:1055D000082B46D18020000205E0002B41D1FFF7C7
:1055E0002DF800283FD0400063685B08C018616850
:1055F000FAF78AFD83B20004000C01001039274A33
:10560000914232D80F2293431A00400807231840D2
:1056100010432368D86000201AE0FEF719FFE0E786
:105620001F48E0E7002B22D1FFF708F8002820D020
:1056300063685B0818186168FAF766FD0004000CDF
:105640000200103A154B9A4215D82368D860002002
:1056500000236366A36610BD1148E9E7FEF7F8FE74
:10566000E4E70120F4E70020F2E70120F0E7012061
:10567000EEE70020ECE70120EAE7C046F369FFEF20
:10568000FFCFFFFFFFF4FFFF003801400044004060
:1056900000480040004C004000100240EFFF0000B6
:1056A00000127A00436ADB0706D5026853682C496A
:1056B0000B40816A0B435360436A9B0706D502681F
:1056C000536828490B40C16A0B435360436A5B0728
:1056D00006D50268536824490B40016B0B435360A5
:1056E000436A1B0706D50268536820490B40416B8B
:1056F0000B435360436ADB0606D5026893681C4976
:105700000B40816B0B439360436A9B0606D502688E
:10571000936818490B40C16B0B439360436A5B0667
:105720000BD50268536814490B40016C0B4353605E
:1057300080235B03026C9A420AD0436A1B0606D59B
:10574000026853680D490B40816C0B4353607047EE
:10575000026853680A490B40416C0B435360ECE705
:10576000FFFFFDFFFFFFFEFFFFFFFBFFFF7FFFFFD0
:10577000FFEFFFFFFFDFFFFFFFFFEFFFFFFFF7FF81
:10578000FFFF9FFFF0B5C64600B505000C001700EF
:105790009846069E2B68DB6923401B1B5A425341E7
:1057A000BB423BD1731CF5D0FCF7A8FA4346C01AA4
:1057B000B04220D8002E1ED02B681A685207E9D5B7
:1057C000DA691205E6D5802212011A622A68136886
:1057D00014490B4013602A689368A331FF318B434F
:1057E00093602023AB67EB678022AB5054330022D9
:1057F000EA54032013E02A6813680A490B40136037
:105800002A689368A331FF318B4393602023AB67F1
:10581000EB6754330022EA54032000E0002004BC6C
:105820009046F0BD5FFEFFFF30B583B004008023DB
:105830000022C250FCF762FA050023681B681B07B0
:105840000DD423681B685B0716D42023A367E36786
:10585000002323667422A354002003B030BD8021AE
:105860000C4B00930300002289032000FFF78AFFFE
:105870000028E6D00320F0E78021064B00932B00A0
:105880000022C9032000FFF77DFF0028DDD00320A0
:10589000E3E7C046FFFFFF0110B5041E2ED0836F63
:1058A000002B21D02423A3672268136801218B4396
:1058B00013602000FFF710FE012814D0636A002B4C
:1058C00018D1226853680E490B40536022689368D0
:1058D0002A218B4393602268136829390B43136094
:1058E0002000FFF7A1FF10BD74330022C25401F065
:1058F000F1FAD7E72000FFF7D5FEE2E70120F2E753
:10590000FFB7FFFF10B50C4B18601961002304E0CE
:10591000D45C0A48C4540133DBB28B42F8D3084B41
:10592000064A05490748FCF7C1FC002802D0064B8F
:105930000B221A70012010BD90000020880000206A
:10594000AC0200202001002044000020704700002D
:10595000034B1B7864209842804140427047C04608
:105960004400002000B585B001230393029000237A
:105970000193694601A8FDF779F9002801D105B026
:1059800000BD00F0FDFFFAE710B5FDF7C3F80028F1
:1059900000D110BD00F0F4FFFBE70200036801CB6B
:1059A0001360704710B504000A000023016802204C
:1059B000FDF7E8F8002803D123680433236010BD05
:1059C00000F0DEFFF8E710B5FDF78CF8002800D1F5
:1059D00010BD00F0D5FFFBE710B504000C4B1968B3
:1059E000411AFA239B00994204D80A4A13680133EA
:1059F000136010BD074B1A6853019B1A9B009B183C
:105A0000D800FAF781FB044B1880014B1C60F0E7CB
:105A1000340000202C00002030000020014B1888AA
:105A20007047C04630000020F8B50D1C171C1C1C28
:105A3000FBF7ECF8061C211C0698FBF7E7F8011CA5
:105A4000301CFAF7B1FF061C291C381CFBF7DEF8E6
:105A5000011C301CFAF7D0FD211CFAF733FCF8BD0D
:105A6000F0B58BB01422002105A801F02DFB444BAA
:105A7000596980200003014359615A69024000922C
:105A8000009A59698020C003014359615A69024054
:105A90000192019A596980208002014359615A6933
:105AA00002400292029A59698020C0020143596162
:105AB0005A6902400392039A5A69802149030A43B2
:105AC0005A615B690B400493049B2E4F00223900FE
:105AD0002D48FDF7E9F9B8246401002221002B4884
