:020000040800F2
:10000000FF170020BD7B0008957A00089F7A000842
:1000100000000000000000000000000000000000E0
:10002000000000000000000000000000A77A0008A7
:100030000000000000000000B17A0008BB7A000850
:100040003D7C00083D7C00083D7C00083D7C0008AC
:100050003D7C00083D7C00083D7C00083D7C00089C
:100060003D7C0008C97A0008E17A00083D7C000860
:10007000057B00083D7C00083D7C00083D7C0008B5
:100080003D7C000800000000000000003D7C0008EE
:10009000000000003D7C00083D7C00083D7C00081D
:1000A000000000003D7C00083D7C00083D7C00080D
:1000B0003D7C0008000000001D7B00083D7C00081E
:1000C00010B5064C2378002B07D1054B002B02D02E
:1000D000044800E000BF0123237010BD3000002061
:1000E00000000000987C0008044B10B5002B03D0E2
:1000F0000349044800E000BF10BDC04600000000F6
:1001000034000020987C0008002243088B4274D3FE
:1001100003098B425FD3030A8B4244D3030B8B4208
:1001200028D3030C8B420DD3FF22090212BA030C11
:100130008B4202D31212090265D0030B8B4219D3F2
:1001400000E0090AC30B8B4201D3CB03C01A524112
:10015000830B8B4201D38B03C01A5241430B8B425A
:1001600001D34B03C01A5241030B8B4201D30B0343
:10017000C01A5241C30A8B4201D3CB02C01A52416A
:10018000830A8B4201D38B02C01A5241430A8B422D
:1001900001D34B02C01A5241030A8B4201D30B0216
:1001A000C01A5241CDD2C3098B4201D3CB01C01A30
:1001B000524183098B4201D38B01C01A524143093A
:1001C0008B4201D34B01C01A524103098B4201D328
:1001D0000B01C01A5241C3088B4201D3CB00C01A95
:1001E000524183088B4201D38B00C01A524143080D
:1001F0008B4201D34B00C01A5241411A00D2014632
:10020000524110467047FFE701B5002000F006F8A4
:1002100002BDC0460029F7D076E770477047C04658
:100220008446100062468C461900634600E0C046D2
:100230001FB500F0E9FC002801D40021C8421FBD11
:1002400010B500F02DFC4042013010BD10B500F09B
:10025000DBFC002801DB002010BD012010BDC046E2
:1002600010B500F0D1FC002801DD002010BD0120F8
:1002700010BDC04610B500F057FC002801DC00207E
:1002800010BD012010BDC04610B500F04DFC002887
:1002900001DA002010BD012010BDC0469E2110B51E
:1002A000C905041C00F0B8FD002803D1201C00F093
:1002B00087FB10BD9E21201CC90500F01DF900F030
:1002C0007FFB80231B069C466044F2E7F0B5464660
:1002D0004F46D6464502C0B5C30F470098460E1C90
:1002E0006D0A3F0E5BD0FF2F21D08023ED00DB0491
:1002F0001D43002399469A467F3F74027300640AA7
:100300001B0EF60F002B20D0FF2B43D080220020A5
:10031000E400D20414437F3B4246FF1A4B4672402E
:100320000F2B00D99DE071499B00CB589F46002DB3
:100330005AD108239946063B74029A467300FF2758
:10034000640A1B0EF60F002BDED1002C3BD10123DB
:1003500042464946724019430E2918D8644889001C
:1003600041588F465346022B00D1B8E0032B6ED084
:1003700042462C00012B40D100200024C005204320
:10038000D2071043E0BCBA46B146A846F0BDFF20F4
:100390000024F3E7002C20D10223FF3FD8E7002DF3
:1003A00005D104239946033B00279A46A5E7280078
:1003B00000F03CFD7627431F9D4000237F42994675
:1003C0009A463F1A99E7200000F030FD431F9C40F9
:1003D00076235B421B1A00209EE703234A461A43FA
:1003E00091460320FC3397E70C239946093BFF27EE
:1003F0009A4682E703282CD0320038007F3000284C
:1004000047DD630704D00F232340042B00D00434BE
:10041000230103D53800374B80301C40FE28B6DC62
:10042000A401640AC0B2A9E780240022FF20E403EB
:10043000A4E78023DB031D4201D01C420BD08024A3
:10044000E4032C4364024246FF20640A96E74646D2
:100450002C008023DB031C4364023200FF20640A6B
:100460008CE76D01600185422DD21B230024013FE2
:100470000126290064006D00002901DB854201D3BB
:100480002D1A3443013B002BF3D16B1E9D412C43AD
:10049000B3E701231B1A1B2B00DD6DE721009E37FC
:1004A000D940BC400B00611E8C412343590704D046
:1004B0000F211940042900D00433590113D49B01A2
:1004C00000205C0A5AE71A2301242D1AD0E7981E4F
:1004D00043425841404232000024C0B24EE74246F7
:1004E000FF2000244AE70120002447E7B07C0008F1
:1004F000F07C0008FFFFFFF7F8B54746CE46430201
:1005000080B55F0A9B0945004A009C464B02C40F18
:10051000CE0F2D0E580A120E9909FF2A6BD0012317
:100520005E40AB1AB4424BD0002B00DCFFE0002A47
:1005300000D188E0FF2D00D1EFE08022D2041143EA
:1005400001201B2B08DC08002022D840D31A994038
:100550000B005A1E9341184363461B1A9C46634680
:100560005B0100D4CDE063469F01BF09380000F075
:100570005DFC3B0005388340854200DCA2E0B74AC1
:100580002D1A1A4094465A0700D1C3E00F22134097
:10059000042B00D1BEE004239846C44463465B01AB
:1005A00000D4B7E0681CFE2D00D0A5E0FF2000229B
:1005B000C0051043E4072043C0BCB946B046F8BDAF
:1005C000002B00DCEBE1002A46D0FF2D00D1A4E097
:1005D0008022D20411431B2B00DCFBE0052398464C
:1005E0002B00C4446246D708FF2B00D195E07A0265
:1005F000520AD8B2DCE72B00FF3B9946002918D1FC
:1006000001235E40B44200D1CAE04B46002B2DD0FE
:10061000002D00D03CE1FF236446002C00D15FE1B7
:100620005D1E012B00D174E13400FF2B74D02B0030
:1006300003E1B44200D19CE0002B17D0002DEAD09A
:10064000070034006CE00029CCD05A1E012B2BD0BF
:10065000FF2B62D0130073E70029C3D05A1E012B71
:1006600000D11EE1FF2B58D01300B4E7FE226B1C13
:100670001A420DD1002D60D06346002B00D020E13E
:10068000002900D028E180220024FF20D2038FE738
:1006900063465F1A7B0100D5FEE0002F00D065E7BE
:1006A00000240020002283E76346591A4B0100D43E
:1006B00019E18F01BF09380000F0B8FB3B00053895
:1006C000834001252022401B0130121A190093405B
:1006D000C1405A1E934119438C460B1EE1D05B0763
:1006E00000D152E10F2300250B40042B00D052E72C
:1006F00001204A0100D492E0C0B263469A01520A36
:1007000056E763465B0705D00F2362461340042B70
:1007100000D040E72B0065E70700002F00D145E738
:100720008022D2033A435202FF20520A40E7002BB4
:1007300079D1FE226B1C1A42AAD16346002B00D14C
:10074000F5E0002900D1D1E05F1A8023DB041F42CD
:1007500000D10EE1624601248A1A944600203440FA
:10076000002A00D124E701201A42C6D10023D7086D
:100770003DE7002B17D0002D00D0AFE0FF236546EA
:10078000002D00D1ADE05E1E012B00D189E0FF2BD2
:10079000C2D01B2E00DCABE04B1D9C46130021E7B2
:1007A0004B46002B70D1FE226B1C1A425ED1002DED
:1007B00000D0C3E06346002B00D1D0E0002900D177
:1007C00094E00A006244530100D4D8E09201012071
:1007D000520AEDE608002022D840D31A99400B00B7
:1007E0005A1E934103439C4463465B0189D50135FE
:1007F000FF2D00D1DAE66246012319491340520861
:100800000A401A43130094465B0704D00F23134099
:10081000042B00D0BFE663465B0100D5C2E6634609
:10082000DF082B00E3E6531B002D00D1F4E6802007
:100830006446C0040443A446340001201B2B09DC99
:1008400020256046D840EB1A65469D402B005D1E72
:10085000AB4118430B1A9C46150080E6FFFFFFFBD7
:10086000FFFFFF7DFE226B1C1342A3D0FF2B00D1A4
:100870009CE6614449084A0749D00F220A40042AED
:1008800045D00A1D9446ADE6002D00D176E78DE6F1
:100890003400FF2000228BE663460124CF1A344047
:1008A00064E661444B016DD5480844490140430763
:1008B0002CD00F230340042B28D00B1D9C46022371
:1008C00090E6002900D12BE78023DB039F4200D272
:1008D00026E7984200D323E70124344007001FE7AE
:1008E00034008C467EE60123CF0880E600237EE6B6
:1008F00020206546801B854063462800F340451E46
:10090000A84103439C4615008C446DE70223CF08A1
:100910006DE60F1B7B0128D5BF01BF09380000F031
:1009200085FA3B000538834034000125CAE60029DA
:1009300000D1B5E601240700344058E66346002B99
:1009400000D1E9E6002900D1EAE68023DB039F42DB
:1009500000D2E5E6984200D3E2E60700E0E600298F
:1009600000D19EE60023CF0841E634000123FF08B2
:100970003DE6002F00D193E60023FF0837E6002371
:10098000D70834E60123CF0831E680220B00D204D9
:1009900001201340114200D0AEE6CF0827E6002B1D
:1009A00000D15FE7561B002D01D13300E7E680231D
:1009B0006046DB0418438446EBE6C046FFFFFF7D3C
:1009C00041024200C30F490A0020120E7E2A03DDB5
:1009D0009D2A02DD094A98187047802000040143CF
:1009E000952A07DC9620821AD1404842002BF3D189
:1009F0000800F1E7963A9140F7E7C046FFFFFF7F16
:100A000070B5002812D0C317C5185D40C40F280068
:100A100000F00CFA9E231B1A962B0FDC082838D006
:100A2000083885406D026D0AD8B202E0002400202B
:100A30000025C0052843E407204370BD992B14DC32
:100A4000421F95402A001549114055071CD00F251B
:100A50002A40042A18D00431CA08490115D59F2319
:100A60005202181A550AC0B2E3E705222900121AE9
:100A7000D14002001B3295402A00551EAA410A436C
:100A8000064911405507E2D1CA085202550AD8B2A8
:100A9000CFE76D026D0A8E30CBE7C046FFFFFFFB4C
:100AA000F0B55746DE464E464546E0B50D0004001B
:100AB000E80F83460903D80F090B824619488C4674
:100AC0001F0369005E00490D3F0B760D814218D06F
:100AD00086420FD00120B1420DD1BC450BD19442CA
:100AE00009D1D3451CD0002905D160462043431EBF
:100AF000984100E00120F0BCBB46B246A946A046A2
:100B0000F0BD01208E42F6D1614639430F001743F4
:100B10002743F0D15B465246981A431E9841EAE7B4
:100B20000020E8E7FF070000F0B557464E4645466F
:100B3000DE46E0B50D000E034900490D8A46DF0F81
:100B4000E90FBC4683B02F4F040080460191580046
:100B500019039146360B090B400DBA451DD0B8421A
:100B60000DD05746002F2AD13443002824D10A4300
:100B700036D0002C41D163465800013815E01143AE
:100B800038D15346002B01D12643F4D0019B634555
:100B900007D1019B5800013807E026432AD1504570
:100BA00021D00120019B5F42384303B0F0BCBB461B
:100BB000B246A946A046F0BD002CDCD0E6E70028EE
:100BC000EFD0019B6345ECD18245EADCE1DB8E424C
:100BD000E7D8DED1C845E4D80020C845E5D2D8E73B
:100BE000002CE2D0DDE7114304D1019B6345D8D14D
:100BF0000020DAE702204042D7E7019B6345E6D0B8
:100C0000CFE7C046FF070000F0B557464E464546C1
:100C1000DE46E0B50D000E034900490D8A46DF0FA0
:100C2000E90FBC4683B02E4F040080460191580066
:100C300019039146360B090B400DBA451ED0B84238
:100C40000DD05746002F27D13443002833D10A4313
:100C500034D0002C40D163465800013815E01143D0
:100C600012D15346002B01D12643F4D0019B63459A
:100C70001DD00120019B5F42384306E0264303D18B
:100C80005045F6D111431CD0022003B0F0BCBB4646
:100C9000B246A946A046F0BD0028EAD0019B6345B4
:100CA000E7D18245E5DC02DB8E42E2D80ED0019B23
:100CB00058000138E9E7002CCDD0D7E7002CE4D06C
:100CC000D7E7019B00206345DFD0D2E7C845D0D8E5
:100CD0000020C845D9D2EAE7019B6345E4D0C8E7C4
:100CE000FF0700000B00020070B5164D0C0382B028
:100CF0004900002000920193240B490DDE0FA94208
:100D000004DD1148814203DD104BF01802B070BDC4
:100D10008020400320430E4C641A1F2C08DD0D4B2D
:100D20005B1AD84003005842002EEFD11800EDE7BF
:100D3000094B009A9C46030061448B40E2401343F8
:100D4000F1E7C046FE0300001D040000FFFFFF7F27
:100D50003304000013040000EDFBFFFF70B5002812
:100D600016D0C317C5185D40C40F280000F05EF808
:100D7000104B1B1A5B055B0D0A2814DC02002E00C9
:100D8000153296400B22121AD5402D032D0B03E08D
:100D900000240023002500261B052B43E4072343E2
:100DA0003000190070BD0B3885402D0300262D0B37
:100DB000F2E7C0461E040000844608006146FFE7D3
:100DC0001FB500F0C1F8002801D40021C8421FBDA2
:100DD00010B500F049F84042013010BD10B500F0E8
:100DE000B3F8002801DB002010BD012010BDC04673
:100DF00010B500F0A9F8002801DD002010BD012089
:100E000010BDC04610B500F057F8002801DC0020E6
:100E100010BD012010BDC04610B500F04DF80028EF
:100E200001DA002010BD012010BDC0461C210123A5
:100E30001B04984201D3000C10391B0A984201D3BD
:100E4000000A08391B09984201D30009043902A29B
:100E5000105C40187047C046040302020101010102
:100E6000000000000000000070B542004E024C007F
:100E700045026D0A120EC30F760A240EC90FFF2A0F
:100E800010D0FF2C0CD00120A2420AD1B54208D1CB
:100E90008B420FD0002A04D12800431E984100E065
:100EA000012070BD0120FF2CFBD13543F9D14B400F
:100EB0001800F6E70020F4E730B5420044024D0286
:100EC000C30F4800640A120E6D0A000EC90FFF2AF4
:100ED00018D0FF280AD0002A1ED100280AD1002DE0
:100EE00029D0002C2DD14800013830BD002D25D14E
:100EF000002A01D1002CF6D08B4219D001205B4290
:100F00001843F2E7002C19D1FF28F7D1002D15D195
:100F100000208B42F2D1E8E70028EFD08B42EDD1E0
:100F20008242EBDC04DBAC42E8D80020AC42DCD2ED
:100F300058000138D9E7002CD7D0DFE70220404223
:100F4000D3E78B42DAD1EEE730B5420044024D02DE
:100F5000C30F4800640A120E6D0A000EC90FFF2A63
:100F600017D0FF280AD0002A1BD100280AD1002D53
:100F70001DD0002C2DD14800013811E0002D0ED1DC
:100F8000002A01D1002CF6D08B420CD15800013838
:100F900006E0002C03D1FF2805D1002D15D002203A
:100FA00030BD002806D101205B421843F8E7002C31
:100FB000F6D0F8E78B42F6D18242F4DCE6DBAC42B5
:100FC000F1D80020AC42EBD2E0E700208B42EAD11E
:100FD000E6E78B42E7D1F2E780B500AF074B1A682E
:100FE000064B10210A431A60002000F009F806F0B1
:100FF0008DFB00231800BD4680BDC0460020024086
:1010000090B583B000AF7860144B1C68144B1B780C
:101010001900FA239800FFF777F803001900200061
:10102000FFF772F80300180001F035FC031E01D031
:1010300001230FE07B68032B0BD8796801235B4207
:101040000022180001F002FC064B7A681A600023A7
:1010500000E001231800BD4603B090BD2800002029
:10106000040000200000002080B500AF054B1B7875
:101070001A00054B1B68D218034B1A60C046BD46C8
:1010800080BDC046040000204C00002080B500AFA9
:10109000024B1B681800BD4680BDC0464C000020B6
:1010A00080B584B000AF7860FFF7F0FF0300BB604D
:1010B0007B68FB60FB68013305D00A4B1B781A0084
:1010C000FB689B18FB60C046FFF7E0FF0200BB68AF
:1010D000D31AFA689A42F7D8C046C046BD4604B053
:1010E00080BDC0460400002080B584B000AF7860A9
:1010F0000F23FB1800221A700023BB607B68002BB3
:1011000001D1012325E17B689B6B002B0AD17B6811
:101110000022DA637B683422002199547B6818002E
:1011200006F020FB7B689B6B1022134000D003E18C
:101130000F23FB181B78002B00D0FDE07B681B6899
:101140009B680422134000D0F6E07B689B6B834AC7
:10115000134002221A437B689A637B681B689B6872
:1011600003221340012B12D17B681B681B680122EC
:101170001340012B09D07B681B68DA6880231B02AF
:101180001A4080231B029A4201D1012300E0002370
:10119000002B16D17B681B68DB681822934319006B
:1011A0007B689A687B681B680A43DA607B681B6807
:1011B0001B699B0099087B685A687B681B680A4317
:1011C0001A617B681B68DA687B681B6864490A409F
:1011D000DA607B681B7E9A037B685B7EDB031A43C5
:1011E0007B689B7E5B031A437B689B6A012B02D062
:1011F00080235B0100E000231A437B68DB681A430D
:101200007B681B69022B01D1042300E000231A43F1
:101210007B6824215B5C5B001343BA681343BB60AB
:101220007B68DB7E012B15D17B689B7E002B05D173
:10123000BB68802252021343BB600BE07B689B6B50
:1012400020221A437B689A637B68DB6B01221A4376
:101250007B68DA637B68DA69C223FF339A4207D07E
:101260007B68DA697B681B6A1343BA681343BB6007
:101270007B681B68D9687B681B68BA680A43DA60B8
:101280007B68DA6A80235B059A421BD07B68DB6A45
:10129000012B17D07B68DB6A022B13D07B68DB6ADB
:1012A000032B0FD07B68DB6A042B0BD07B68DB6AD7
:1012B000052B07D07B68DB6A062B03D07B68DB6AD3
:1012C000072B12D17B681B685A697B681B68072152
:1012D0008A435A617B681B6859697B68DB6A07220D
:1012E0001A407B681B680A435A617B681B68DB688D
:1012F0001C4A1340BA689A420BD17B680022DA6319
:101300007B689B6B0322934301221A437B689A6399
:101310001CE07B689B6B1222934310221A437B686C
:101320009A637B68DB6B01221A437B68DA630F23C5
:10133000FB1801221A7009E07B689B6B10221A438C
:101340007B689A630F23FB1801221A700F23FB1886
:101350001B781800BD4604B080BDC046FDFEFFFFEF
:101360001902FEFFE7FF3F8390B587B000AFF8603A
:10137000B9607A601723FB1800221A70FB681B689B
:101380009B68042213405ED1FB6834229B5C012BD6
:1013900001D102235EE0FB68342201219954FB68ED
:1013A0005B7E012B07D01723FC18FB68180000F0A8
:1013B00027FA030023701723FB181B78002B46D154
:1013C000FB689B6B254A1340802252001A43FB683E
:1013D0009A63FB680022DA63FB6834220021995487
:1013E000FB681B6B1E4A9A62FB681B6B1D4ADA6224
:1013F000FB681B6B1C4A1A63FB681B681C221A6083
:10140000FB681B685A68FB681B6810210A435A6016
:10141000FB681B68DA68FB681B6801210A43DA6015
:10142000FB68186BFB681B6840331900BA687B685F
:1014300001F086FAFB681B689A68FB681B68042148
:101440000A439A6003E01723FB1802221A7017233D
:10145000FB181B781800BD4607B090BDFEF0FFFFDB
:1014600009190008BD190008DB19000880B584B00F
:1014700000AF78607B681B681B68FB607B681B683B
:101480005B68BB60FB680422134003D0BB68042286
:10149000134007D1FB680822134049D0BB680822DB
:1014A000134045D07B689B6B1022134006D17B68AC
:1014B0009B6B802292001A437B689A637B681B684F
:1014C000DA68C0231B0113402AD17B689B7E002B66
:1014D00026D1FB680822134022D07B681B689B68DA
:1014E0000422134010D17B681B685A687B681B6814
:1014F0000C218A435A607B689B6B2D4A1340012262
:101500001A437B689A630BE07B689B6B20221A432B
:101510007B689A637B68DB6B01221A437B68DA6322
:101520007B68180005F0EDFD7B681B680C221A60D3
:10153000FB688022134012D0BB68802213400ED07B
:101540007B689B6B802252021A437B689A637B689C
:10155000180000F037F87B681B6880221A60FB686F
:101560001022134020D0BB68102213401CD07B688F
:101570009B6A012B06D07B681B68DB680122134045
:10158000012B0DD17B68DB6B02221A437B68DA6387
:101590007B681B6810221A607B68180000F01AF83C
:1015A0007B681B6810221A60C046BD4604B080BD2F
:1015B000FEFEFFFF80B582B000AF7860C046BD463A
:1015C00002B080BD80B582B000AF7860C046BD4635
:1015D00002B080BD80B582B000AF7860C046BD4625
:1015E00002B080BD80B584B000AF786039600F2351
:1015F000FB1800221A700023BB607B68DA6A802324
:101600005B059A4211D07B68DB6A012B0DD07B68A9
:10161000DB6A022B09D07B68DB6A032B05D07B6871
:10162000DB6A042B01D07B68DB6A7B6834229B5C1D
:10163000012B01D10223D0E07B683422012199548F
:101640007B681B689B680422134000D0B4E03B68B1
:101650005B68644A934200D182E07B681B68996AA8
:101660003B681B6801229A407B681B680A439A62A8
:101670007B68DA6A80235B059A4237D07B68DB6A35
:10168000012B33D07B68DB6A022B2FD07B68DB6AAF
:10169000032B2BD07B68DB6A042B27D07B68DB6AAB
:1016A000052B23D07B68DB6A062B1FD07B68DB6AA7
:1016B000072B1BD03B689A687B681B685B69072116
:1016C0000B409A4212D07B681B685A697B681B6882
:1016D00007218A435A617B681B6859693B689B688C
:1016E00007221A407B681B680A435A613B681B68E3
:1016F000102B07D03B681B68112B03D03B681B687D
:10170000122B63D1384B19683B681B68102B09D02A
:101710003B681B68112B02D18023DB0304E080238C
:101720005B0401E080231B042F4A0B4313603B68DA
:101730001B68102B4AD12D4B1B682D491800FEF752
:10174000E3FC03001A0013009B009B185B00BB60C6
:1017500002E0BB68013BBB60BB68002BF9D135E000
:101760007B681B689A6A3B681B68012199400B00E3
:10177000D9437B681B680A409A623B681B68102B40
:1017800007D03B681B68112B03D03B681B68122BEA
:101790001CD1154B19683B681B68102B07D03B68A0
:1017A0001B68112B01D1134B02E0134B00E0134BCC
:1017B0000D4A0B40136009E07B689B6B20221A43A3
:1017C0007B689A630F23FB1801221A707B6834220E
:1017D000002199540F23FB181B781800BD4604B054
:1017E00080BDC046011000000827014028000020ED
:1017F00040420F00FFFFBFFFFFFFFFFEFFFF7FFF25
:1018000080B584B000AF78600023FB600023BB602C
:101810007B681B689B6803221340012B12D17B68F5
:101820001B681B6801221340012B09D07B681B68D1
:10183000DA6880231B021A4080231B029A4201D1DE
:10184000012300E00023002B52D17B681B689B68BA
:101850002A4A13400DD07B689B6B10221A437B6889
:101860009A637B68DB6B01221A437B68DA6301238E
:101870003FE07B681B689A687B681B6801210A430C
:101880009A601F4B1B681F491800FEF73DFC0300C0
:10189000BB6002E0BB68013BBB60BB68002BF9D1B9
:1018A000FFF7F4FB0300FB601BE0FFF7EFFB020018
:1018B000FB68D31A022B14D97B681B681B680122B2
:1018C0001340012B0DD07B689B6B10221A437B6861
:1018D0009A637B68DB6B01221A437B68DA6301231E
:1018E00007E07B681B681B6801221340012BDCD1D9
:1018F00000231800BD4604B080BDC046170000801C
:101900002800002040420F0080B584B000AF78600E
:101910007B685B6AFB60FB689B6B5022134040D185
:10192000FB689B6B802292001A43FB689A63FB68FA
:101930001B68DA68C0231B0113402DD1FB689B7E16
:10194000002B29D1FB681B681B6808221340082B59
:1019500022D1FB681B689B680422134010D1FB68EE
:101960001B685A68FB681B680C218A435A60FB6835
:101970009B6B114A134001221A43FB689A630BE0E8
:10198000FB689B6B20221A43FB689A63FB68DB6B46
:1019900001221A43FB68DA63FB68180005F0B1FB0B
:1019A00005E0FB681B6B1B6B7A6810009847C0460C
:1019B000BD4604B080BDC046FEFEFFFF80B584B0CA
:1019C00000AF78607B685B6AFB60FB681800FFF71C
:1019D000F1FDC046BD4604B080BD80B584B000AF07
:1019E00078607B685B6AFB60FB689B6B40221A43F4
:1019F000FB689A63FB68DB6B04221A43FB68DA63BB
:101A0000FB681800FFF7E6FDC046BD4604B080BD88
:101A100080B584B000AF78607B68002B01D10123D2
:101A2000F0E07B6820229B5CDBB2002B03D17B685B
:101A3000180005F011FF7B681B681A687B681B683B
:101A400001210A431A60FFF721FB0300FB6013E04A
:101A5000FFF71CFB0200FB68D31A0A2B0CD97B682A
:101A60005B6A802292021A437B685A627B6820225A
:101A7000052199540123C5E07B681B685B6801223E
:101A80001340E5D07B681B681A687B681B680221DD
:101A90008A431A60FFF7FAFA0300FB6013E0FFF7CE
:101AA000F5FA0200FB68D31A0A2B0CD97B685B6A33
:101AB000802292021A437B685A627B6820220521A9
:101AC000995401239EE07B681B685B6802221340E7
:101AD000E5D17B681B7E012B08D17B681B681A68E7
:101AE0007B681B6880210A431A6007E07B681B68DB
:101AF0001A687B681B6880218A431A607B685B7E5A
:101B0000012B08D17B681B681A687B681B68402121
:101B10000A431A6007E07B681B681A687B681B68C9
:101B200040218A431A607B689B7E012B08D17B6829
:101B30001B681A687B681B6820210A431A6007E04B
:101B40007B681B681A687B681B6820218A431A60BF
:101B50007B68DB7E012B08D17B681B681A687B6879
:101B60001B6810218A431A6007E07B681B681A68AB
:101B70007B681B6810210A431A607B681B7F012B5E
:101B800008D17B681B681A687B681B6808210A43B8
:101B90001A6007E07B681B681A687B681B6808216D
:101BA0008A431A607B685B7F012B08D17B681B68C6
:101BB0001A687B681B6804210A431A6007E07B6887
:101BC0001B681A687B681B6804218A431A607B685B
:101BD0009A687B68DB681A437B681B691A437B68D9
:101BE0005B691A4311007B685B685A1E7B681B683F
:101BF0000A43DA617B6800225A627B682022012155
:101C0000995400231800BD4604B080BD80B586B04D
:101C100000AF786039607B681B687B6113203B18DC
:101C20007A682021525C1A700200BB181B78012BC5
:101C300004D0BB181B78022B00D0CDE07A6980233A
:101C40009B00D35801221A4311007A6980239B001C
:101C5000D1503B685B691F22134001229A40130058
:101C6000FB607A6987239B00D358FA68D2431A40F5
:101C700011007A6987239B00D1503B68DB69002BF8
:101C800029D17A6983239B00D358FA68D2431A403A
:101C900011007A6983239B00D1503B68DB681804EC
:101CA0003B685B681B04190C3B685A6901437B69FC
:101CB0004832D200D1503B689B6819043B681B68CE
:101CC0001B041A0C3B685B690A4379694833DB00E3
:101CD000CB1804331A603B68DB69012B28D17A6981
:101CE00083239B00D258FB681A4311007A6983232F
:101CF0009B00D1503B681B6818043B685B681B0461
:101D0000190C3B685A6901437B694832D200D150B3
:101D10003B689B6819043B68DB681B041A0C3B6832
:101D20005B690A4379694833DB00CB1804331A60D6
:101D30003B689B69002B0CD17A6981239B00D358A7
:101D4000FA68D2431A4011007A6981239B00D1506E
:101D50000AE07A6981239B00D258FB681A4311007C
:101D60007A6981239B00D1503B681B69002B0CD101
:101D70007A6985239B00D358FA68D2431A40110030
:101D80007A6985239B00D1500AE07A6985239B00FC
:101D9000D258FB681A4311007A6985239B00D15001
:101DA0003B681B6A012B0AD17A6987239B00D258B2
:101DB000FB681A4311007A6987239B00D1507A6926
:101DC00080239B00D3580122934319007A69802312
:101DD0009B00D150002307E07B685B6A8022D2021F
:101DE0001A437B685A6201231800BD4606B080BDC5
:101DF00080B584B000AF78607B6820229B5CDBB24A
:101E0000012B2FD17B682022022199547B681B680B
:101E10001A687B681B6801218A431A60FFF736F94C
:101E20000300FB6013E0FFF731F90200FB68D31AEF
:101E30000A2B0CD97B685B6A802292021A437B686A
:101E40005A627B68202205219954012312E07B68A5
:101E50001B685B6801221340E5D17B6800225A624F
:101E6000002307E07B685B6A802212031A437B68C9
:101E70005A6201231800BD4604B080BD80B588B009
:101E800000AFF860B9607A603B601F203B18FA68C9
:101E90002021525C1A70FB681B689B68BB613B1871
:101EA0001B78012B04D03B181B78022B00D0ABE031
:101EB000BA698023DB0413400AD1BA6980231B0569
:101EC000134005D1BA6980235B05134000D192E02D
:101ED000BB691B0E032213407B6101227B699A4080
:101EE0003B681A60BB689B68002B0CD1BB681B6801
:101EF0005905BB68DA68FB681B6811437A691832B8
:101F00001201D1500FE0BB685B68DA00BB689B68C8
:101F10001A431100BB68DA68FB681B6811437A69D1
:101F200018321201D150FB681968BB681A697B69C5
:101F300018331B01CB1804331A60BB681B7D012BBF
:101F400012D1FB681A687B6918331B01D31804335C
:101F50001A68FB68196880235B001A437B69183391
:101F60001B01CB1804331A607B6807331B781A06F1
:101F70007B6806331B781B041A437B6805331B7888
:101F80001B021A437B6804331B781900FB6818682E
:101F90000A437969C6235B0009014118CB181A600E
:101FA0007B6803331B781A067B6802331B781B049B
:101FB0001A437B6801331B781B021A437B681B782A
:101FC0001900FB6818680A437969C4235B0009019A
:101FD0004118CB181A60FB681B687A691832120125
:101FE000D258FB681B68012111437A69183212012B
:101FF000D150002310E0FB685B6A802292031A43F1
:10200000FB685A62012307E0FB685B6A8022D20208
:102010001A43FB685A6201231800BD4608B080BD10
:1020200080B586B000AFF860B9607A603B60172079
:102030003B18FA682021525C1A700200BB181B780A
:10204000012B04D0BB181B78022B00D007E1BB6822
:10205000002B0ED1FB681B68DB680322134017D1ED
:10206000FB685B6A802292031A43FB685A62012371
:10207000FDE0FB681B681B690322134008D1FB6865
:102080005B6A802292031A43FB685A620123EEE0E6
:10209000FB681B68BA681B321201D35804221A402D
:1020A0007B689A607B689B68002B0BD1FB681B6880
:1020B000BA681B321201D3585B0D5B055A0D7B6861
:1020C0001A600AE0FB681B68BA681B321201D35819
:1020D000DB08DB00DA087B685A60FB681B68BA68BB
:1020E0001B321201D35802221A407B68DA60FB6867
:1020F0001A68BB681B331B01D31804331B68082202
:10210000134003D07B6808221A610BE0FB681A6851
:10211000BB681B331B01D31804331B680F221A4002
:102120007B681A61FB681A68BB681B331B01D318F4
:1021300004331B681B0AFF221A407B689A61FB6804
:102140001A68BB681B331B01D31804331B681B0CB4
:102150001B041A0C7B685A61FB681968BA68DC2397
:102160005B0012018A18D3181B68DAB23B681A7038
:10217000FB681968BA68DC235B0012018A18D3185F
:102180001B681A0A3B680133D2B21A70FB681968DF
:10219000BA68DC235B0012018A18D3181B681A0C7A
:1021A0003B680233D2B21A70FB681968BA68DC2344
:1021B0005B0012018A18D3181B681A0E3B680333A0
:1021C000D2B21A70FB681968BA68DE235B0012018C
:1021D0008A18D3181A683B680433D2B21A70FB68A5
:1021E0001968BA68DE235B0012018A18D3181B68CD
:1021F0001A0A3B680533D2B21A70FB681968BA68CC
:10220000DE235B0012018A18D3181B681A0C3B6886
:102210000633D2B21A70FB681968BA68DE235B0015
:1022200012018A18D3181B681A0E3B680733D2B202
:102230001A70BB68002B08D1FB681B68DA68FB6862
:102240001B6820210A43DA6007E0FB681B681A69F3
:10225000FB681B6820210A431A61002307E0FB6822
:102260005B6A8022D2021A43FB685A62012318007B
:10227000BD4606B080BD80B584B000AF78603960DF
:102280000F203B187A682021525C1A700200BB189C
:102290001B78012B03D0BB181B78022B09D17B685C
:1022A0001B6859697B681B683A680A435A610023B6
:1022B00007E07B685B6A8022D2021A437B685A621D
:1022C00001231800BD4604B080BD80B58AB000AFC0
:1022D000786000237B627B681B685B693B627B687C
:1022E0001B685B68FB617B681B689B68BB617B68E4
:1022F0001B68DB687B617B681B681B693B617B68D3
:102300001B689B69FB603B6A0122134000D184E09B
:10231000BB690122134024D07B681B6801229A60AC
:10232000BB690222134004D07B68180000F081F9D9
:1023300017E0BB690422134005D07B6A802212019A
:1023400013437B620DE0BB690822134005D07B6A12
:102350008022520113437B6203E07B68180000F087
:1023600080F9BA6980235B00134028D07B681B6822
:10237000802252009A60BA6980239B00134004D0E7
:102380007B68180000F05DF919E0BA698023DB0072
:10239000134005D07B6A8022920113437B620EE0DA
:1023A000BA6980231B01134005D07B6A8022D201C9
:1023B00013437B6203E07B68180000F05AF9BA69A6
:1023C00080235B02134028D07B681B688022520266
:1023D0009A60BA6980239B02134004D07B6818007E
:1023E00000F037F919E0BA698023DB02134005D009
:1023F0007B6A8022120213437B620EE0BA6980235B
:102400001B03134005D07B6A8022520213437B6278
:1024100003E07B68180000F034F93B6A082213409F
:102420000CD07B691022134008D07B6A8022920076
:1024300013437B627B681B681022DA603B6A0422CC
:1024400013400BD07B690822134007D07B681B68C0
:102450000822DA607B68180000F01BF93B6A022250
:10246000134009D07B681B68DB680322134003D04C
:102470007B68180004F04EFE3B6A402213400CD0EB
:102480003B691022134008D07B6A8022D20013439C
:102490007B627B681B6810221A613B6A2022134012
:1024A0000BD03B690822134007D07B681B680822C9
:1024B0001A617B68180000F0FCF83B6A1022134098
:1024C00009D07B681B681B690322134003D07B681B
:1024D000180000F0E6F83A6A80239B0213400BD004
:1024E000FB691022134007D07B681B6810225A60DA
:1024F0007B68180000F0E5F83A6A80235B0213401D
:102500000BD0FB690822134007D07B681B680822A8
:102510005A607B68180000F0DCF83A6A80231B02DE
:10252000134000D174E0FB690422134000D16BE03A
:102530003A6A80235B00134007D0FB6801221340F6
:1025400003D07B6A012213437B623A6A80239B009B
:10255000134007D0FB680222134003D07B6A02229B
:1025600013437B623A6A8023DB00134007D0FB6889
:102570000422134003D07B6A042213437B623A6A2D
:1025800080231B0113403FD0FB68702213403BD0D7
:10259000FB6870221340602B27D02CD8502B1FD003
:1025A00029D8402B17D026D8302B0FD023D8102B6A
:1025B00002D0202B05D01EE07B6A082213437B62E9
:1025C0001AE07B6A102213437B6215E07B6A2022AB
:1025D00013437B6210E07B6A402213437B620BE073
:1025E0007B6A802213437B6206E07B6A8022520072
:1025F00013437B6200E0C0467B681B689A697B6876
:102600001B6870218A439A617B681B6804225A60A8
:102610007B6A002B09D07B685A6A7B6A1A437B6805
:102620005A627B68180000F05CF8C046BD460AB0EC
:1026300080BD80B582B000AF7860C046BD4602B0B4
:1026400080BD80B582B000AF7860C046BD4602B0A4
:1026500080BD80B582B000AF7860C046BD4602B094
:1026600080BD80B582B000AF7860C046BD4602B084
:1026700080BD80B582B000AF7860C046BD4602B074
:1026800080BD80B582B000AF7860C046BD4602B064
:1026900080BD80B582B000AF7860C046BD4602B054
:1026A00080BD80B582B000AF7860C046BD4602B044
:1026B00080BD80B582B000AF7860C046BD4602B034
:1026C00080BD80B582B000AF7860C046BD4602B024
:1026D00080BD80B582B000AF7860C046BD4602B014
:1026E00080BD80B582B000AF7860C046BD4602B004
:1026F00080BD000080B582B000AF0200FB1D1A70E3
:10270000FB1D1B787F2B09D8FB1D1B781A001F238C
:102710001A40044B012191400A001A60C046BD4690
:1027200002B080BD00E100E090B583B000AF0200D0
:102730003960FB1D1A70FB1D1B787F2B28D82F4A90
:10274000FB1D1B785BB29B08C0339B009B58FA1D96
:102750001278110003220A40D200FF2191400A00A2
:10276000D2431A4011003B689B01FF221A40FB1D17
:102770001B78180003230340DB009A401F48FB1D11
:102780001B785BB29B080A43C0339B001A5031E0B0
:102790001B4AFB1D1B7819000F230B40083B9B08AD
:1027A00006339B00D31804331B68FA1D12781100FE
:1027B00003220A40D200FF2191400A00D2431A406E
:1027C00011003B689B01FF221A40FB1D1B7818007B
:1027D00003230340DB009A400948FB1D1B781C00C3
:1027E0000F232340083B9B080A4306339B00C31872
:1027F00004331A60C046BD4603B090BD00E100E05E
:1028000000ED00E080B582B000AF78607B685A1EB2
:1028100080235B049A4201D3012310E00A4B7A68BB
:10282000013A5A6001235B4203211800FFF77CFF45
:10283000054B00229A60044B07221A6000231800FF
:10284000BD4602B080BDC04610E000E080B584B057
:1028500000AFB9607A600F217B18021C1A70BA6849
:102860007B181B785BB211001800FFF75DFFC046B4
:10287000BD4604B080BD80B582B000AF0200FB1D34
:102880001A70FB1D1B785BB21800FFF733FFC046C0
:10289000BD4602B080BD80B582B000AF78607B6875
:1028A0001800FFF7AFFF03001800BD4602B080BD5F
:1028B00080B584B000AF78600023FB607B68002B9C
:1028C00001D1012336E07B682122022199547B68E3
:1028D0001B681B68FB60FB68184A1340FB607B6841
:1028E0005A687B689B681A437B68DB681A437B687D
:1028F0001B691A437B685B691A437B689B691A43AF
:102900007B68DB691343FA681343FB607B681B68D1
:10291000FA681A607B68180000F098F97B6800225A
:102920009A637B682122012199547B68202200212F
:10293000995400231800BD4604B080BD0FC0FFFFAE
:1029400080B586B000AFF860B9607A603B6017234D
:10295000FB1800221A70FB6820229B5C012B01D11E
:1029600002234FE0FB68202201219954FB682122B9
:102970009B5CDBB2012B3AD1FB68212202219954E6
:10298000FB6800229A63FB681B681A68FB681B6877
:1029900001218A431A603B687A68B968F86800F0D8
:1029A00028F9FB68DB6A002B08D0FB681B681A68F3
:1029B000FB681B680E210A431A600FE0FB681B6866
:1029C0001A68FB681B680A210A431A60FB681B68C7
:1029D0001A68FB681B6804218A431A60FB681B683D
:1029E0001A68FB681B6801210A431A6007E0FB684C
:1029F0002022002199541723FB1802221A70172352
:102A0000FB181B781800BD4606B080BD80B584B0A9
:102A100000AF78600F217B1800221A707B6821229A
:102A20009B5CDBB2022B06D07B6804229A637B1886
:102A300001221A7028E07B681B681A687B681B6893
:102A40000E218A431A607B681B681A687B681B68C2
:102A500001218A431A607B681A6C7B68DB6B012159
:102A600091400A005A607B682122012199547B68B9
:102A70002022002199547B685B6B002B04D07B687B
:102A80005B6B7A68100098470F23FB181B781800BF
:102A9000BD4604B080BD80B584B000AF78607B686F
:102AA000DB6B1B68FB607B681B681B68BB607B681B
:102AB0001B6C04229A401300FA68134024D0BB68B0
:102AC0000422134020D07B681B681B68202213401F
:102AD00007D17B681B681A687B681B6804218A43DE
:102AE0001A607B681A6C7B68DB6B042191400A00DA
:102AF0005A607B68DB6A002B00D16AE07B68DB6A86
:102B00007A681000984764E07B681B6C02229A4048
:102B10001300FA6813402BD0BB680222134027D061
:102B20007B681B681B68202213400BD17B681B68E5
:102B30001A687B681B680A218A431A607B68212215
:102B4000012199547B681A6C7B68DB6B02219140F0
:102B50000A005A607B682022002199547B689B6A96
:102B6000002B36D07B689B6A7A681000984730E06B
:102B70007B681B6C08229A401300FA68134028D027
:102B8000BB680822134024D07B681B681A687B68E6
:102B90001B680E218A431A607B681A6C7B68DB6BAA
:102BA000012191400A005A607B6801229A637B6888
:102BB0002122012199547B682022002199547B68AD
:102BC0001B6B002B05D07B681B6B7A681000984745
:102BD000FFE7C046BD4604B080BD80B582B000AFFF
:102BE00078607B6821229B5CDBB21800BD4602B096
:102BF00080BD80B584B000AFF860B9607A603B609A
:102C0000FB681A6CFB68DB6B012191400A005A607B
:102C1000FB681B683A685A60FB685B68102B08D138
:102C2000FB681B687A689A60FB681B68BA68DA60A0
:102C300007E0FB681B68BA689A60FB681B687A68E3
:102C4000DA60C046BD4604B080BD000080B582B0E9
:102C500000AF78607B681B68084A9446634414217F
:102C60001800FDF751FA03009A007B681A647B682C
:102C7000034ADA63C046BD4602B080BDF8FFFDBF1F
:102C800000000240F0B587B000AFF860B9603A606C
:102C90007B601723FB1801221A701623FB180022F1
:102CA0001A701523FB1800221A703E4B1B7E012B55
:102CB00001D1022372E03B4B01221A761723FE1842
:102CC000394B180000F0C4F8030033701723FB18C9
:102CD0001B78002B5CD1FB68012B04D11523FB185A
:102CE00001221A700BE0FB68022B04D11523FB189C
:102CF00002221A7003E01523FB1804221A7016230F
:102D0000FB1800221A7039E016217B181B785A0034
:102D1000BB68D0187B181B781B011A00203A002AC8
:102D200003DB7968D1400C0008E02022D21A7968D0
:102D300091400A003968D9400C0014437A68DA409F
:102D40001500A3B2190000F067F81723FE18164B00
:102D5000180000F07DF803003370144B1A69134B10
:102D600001218A431A611723FB181B78002B0ED10F
:102D700016217B181A787B1801321A701623FA185C
:102D80001523FB1812781B789A42BDD300E0C04689
:102D9000044B00221A761723FB181B781800BD4637
:102DA00007B0F0BD5000002050C3000000200240DA
:102DB00080B582B000AFFB1D00221A700C4B1B695E
:102DC000802213400DD00A4B0A4A5A60084B0A4A27
:102DD0005A60074B1B698022134002D0FB1D012261
:102DE0001A70FB1D1B781800BD4602B080BDC0469E
:102DF0000020024023016745AB89EFCD80B500AFCD
:102E0000044B1A69034B80210A431A6100231800FE
:102E1000BD4680BD0020024080B582B000AF786022
:102E20000A00BB1C1A80084B0022DA61074B1A69A2
:102E3000064B01210A431A617B68BA1C12881A806A
:102E4000C046BD4602B080BD5000002000200240B8
:102E500080B584B000AF7860FEF718F90300FB601E
:102E60000FE07B6801330CD07B68002B07D0FEF7A6
:102E70000DF90200FB68D31A7A689A4201D2032343
:102E80001FE0124BDB6801221340012BE9D00F4BEE
:102E9000DB6820221340202B02D10C4B2022DA6069
:102EA0000A4BDB6810221340102B05D0074BDB6860
:102EB00004221340042B03D100F00AF8012300E0A0
:102EC00000231800BD4604B080BDC046002002406B
:102ED00080B582B000AF00237B60134BDB6810220B
:102EE0001340102B09D1114BDB6902221A430F4BFF
:102EF000DA617B68102213437B600B4BDB68042292
:102F00001340042B09D1094BDB6901221A43074BFB
:102F1000DA617B68042213437B60034B7A68DA60D2
:102F2000C046BD4602B080BD0020024050000020D7
:102F3000B0B584B000AF786039600F23FB18012270
:102F40001A700023BB60324B1B7E012B01D1022380
:102F50005AE02F4B01221A767B681B68012B16D191
:102F60002C4B1800FFF774FF031E47D100F056F8F2
:102F70000F23FC18274B1800FFF76AFF030023708C
:102F8000254B1A69244B04218A431A6136E0214BF0
:102F90001800FFF75DFF031E30D13B68012252424B
:102FA0001A607B685B68BB601FE0BB68180000F0BC
:102FB0004DF80F257C19174B1800FFF749FF030048
:102FC0002370154B1A69144B02218A431A617B192D
:102FD0001B78002B03D03B68BA681A600EE0BB6810
:102FE0008022D20094466344BB607B689B689A024F
:102FF0007B685B68D318BA689A42D6D3044B002228
:103000001A760F23FB181B781800BD4604B0B0BD1C
:103010005000002050C300000020024080B500AFE7
:10302000084B0022DA61084B1A69074B04210A4356
:103030001A61054B1A69044B40210A431A61C046C4
:10304000BD4680BD500000200020024080B582B007
:1030500000AF78600A4B0022DA610A4B1A69094B0B
:1030600002210A431A61074B7A685A61054B1A69B3
:10307000044B40210A431A61C046BD4602B080BDE0
:10308000500000200020024080B586B000AF78607C
:10309000396000237B6149E13B681B6801217A6943
:1030A00091400A001340FB60FB68002B00D13AE11D
:1030B0003B685B6803221340012B05D03B685B68CB
:1030C00003221340022B30D17B689B683B617B69F4
:1030D0005B0003229A401300DA433B6913403B61D3
:1030E0003B68DA687B695B009A4013003A691343D6
:1030F0003B617B683A699A607B685B683B6101224F
:103100007B699A401300DA433B6913403B613B689B
:103110005B681B0901221A407B699A4013003A69D7
:1031200013433B617B683A695A603B685B680322E2
:103130001340032B17D07B68DB683B617B695B0026
:1031400003229A401300DA433B6913403B613B681A
:103150009A687B695B009A4013003A6913433B61AC
:103160007B683A69DA603B685B6803221340022B94
:1031700023D17B69DA087B6808329200D3583B611F
:103180007B69072213409B000F229A401300DA4309
:103190003B6913403B613B681A697B6907210B401F
:1031A0009B009A4013003A6913433B617B69DA083C
:1031B0007B68083292003969D1507B681B683B619B
:1031C0007B695B0003229A401300DA433B6913409A
:1031D0003B613B685B6803221A407B695B009A4055
:1031E00013003A6913433B617B683A691A603B6894
:1031F0005A68C0239B02134000D194E0514B9A6956
:10320000504B01210A439A614E4B9B6901221340A6
:10321000BB60BB684C4A7B699B0802339B009B5890
:103220003B617B69032213409B000F229A401300ED
:10323000DA433B6913403B617A689023DB059A428D
:103240000DD07B68414A934207D07B68404A934245
:1032500001D1022304E0052302E0012300E0002362
:103260007A6903210A40920093403A6913433B6113
:1032700035497B699B0802339B003A695A50354BAC
:103280009B683B61FB68DA433B6913403B613B68E9
:103290005A6880235B03134003D03A69FB681343E9
:1032A0003B612C4B3A699A602A4BDB683B61FB68B7
:1032B000DA433B6913403B613B685A6880239B03B8
:1032C000134003D03A69FB6813433B61214B3A69D1
:1032D000DA60204B5B683B61FB68DA433B69134073
:1032E0003B613B685A6880239B02134003D03A69D4
:1032F000FB6813433B61174B3A695A60154B1B68D7
:103300003B61FB68DA433B6913403B613B685A68A9
:1033100080235B02134003D03A69FB6813433B618F
:103320000C4B3A691A607B6901337B613B681A6810
:103330007B69DA40131E00D0AEE6C046C046BD46EB
:1033400006B080BD001002400000014000040048AB
:10335000000800480004014080B582B000AF7860EA
:1033600008001100BB1C021C1A807B1C0A1C1A706E
:103370007B1C1B78002B04D0BB1C1A887B689A61CD
:1033800003E0BB1C1A887B689A62C046BD4602B047
:1033900080BD000080B582B000AF78607B68002BF4
:1033A00001D101238FE07B6841229B5CDBB2002BC3
:1033B00007D17B684022002199547B68180004F0F3
:1033C000C7FA7B684122242199547B681B681A68DC
:1033D0007B681B6801218A431A607B685A687B6896
:1033E0001B683B490A401A617B681B689A687B68C6
:1033F0001B6838490A409A607B68DB68012B08D15A
:103400007B689A687B681B68802109020A439A607E
:1034100007E07B689A687B681B68842109020A437D
:103420009A607B68DB68022B09D17B681B685A684D
:103430007B681B68802109010A435A6007E07B68AA
:103440001B685A687B681B6823490A405A607B687E
:103450001B685A687B681B6820490A435A607B686E
:103460001B68DA687B681B681A490A40DA607B6867
:103470001A697B685B691A4311007B689B691A02B1
:103480007B681B680A43DA607B68D9697B681A6AC3
:103490007B681B680A431A607B681B681A687B6834
:1034A0001B6801210A431A607B6800225A647B680A
:1034B0004122202199547B6800221A637B684222B2
:1034C0000021995400231800BD4602B080BDC046BB
:1034D000FFFFFFF0FF7FFFFFFFF7FFFF008000020D
:1034E000B0B586B000AFF860B9603B60BB1D1A8014
:1034F000FB6841229B5CDBB21A0028231340282B77
:1035000000D036E1BB68002B03D0BB1D1B88002B0D
:1035100005D1FB68802292005A6401232AE1FB68EE
:1035200040229B5C012B01D1022323E1FB68402256
:1035300001219954914AFB681100180001F0ECFD3B
:10354000FB6841229B5CDBB22A2B2DD1FB68022158
:10355000180001F0E1FDFB681B681A6880231B025C
:103560001A4080231B029A424CD1FB68DB6B002B74
:1035700048D0FB681B681A68FB681B6880490A40D2
:103580001A60FB68DB6B7F4A5A63FB68DB6B1800D1
:10359000FFF73CFA031E35D0FB68DB6B5A6BFB6808
:1035A000DB6B180090472DE0FB6841229B5CDBB28F
:1035B000292B27D1FB681B681A688023DB011A407E
:1035C0008023DB019A421DD1FB681B681A68FB68E7
:1035D0001B686D490A401A60FB689B6B002B11D079
:1035E000FB689B6B674A5A63FB689B6B1800FFF78D
:1035F0000DFA031E06D0FB689B6B5A6BFB689B6B36
:1036000018009047FB68412229219954FB68422207
:1036100020219954FB6800225A64FB681B685A6891
:10362000FB681B6856490A405A60FB68BA685A62D0
:10363000FB68BA1D12885A85FB685B8D9AB2FB68DD
:103640001A85FB683A68DA62FB68504A5A63FB687D
:103650009B6B002B23D0FB689B6B4D4A9A62FB68E7
:103660009B6B4C4A1A63FB689B6B0022DA62FB6817
:103670009B6B00225A63FB68986BB968FB681B68F8
:1036800028331A00FB681B8D17257C19FFF758F9A2
:10369000030023707B191B78002B37D113E0FB68E4
:1036A000412228219954FB68422200219954FB6849
:1036B0005B6C80221A43FB685A64FB68402200213D
:1036C0009954012356E0FB685B8D9AB2FB681B8D11
:1036D000D31A9AB2FB685A85FB6800221A85FB68E8
:1036E0001B689B6908221340083B5A425341DAB2D7
:1036F0001623FB181A70FB681B689B691B0CDBB256
:1037000001221340DBB2012B1DD113E0FB684122E3
:1037100028219954FB68422200219954FB685B6C74
:1037200010221A43FB685A64FB6840220021995416
:1037300001231FE01623FB181B78002B03D0FB6826
:103740001B680822DA61FB68402200219954FB685B
:103750001B681A68FB681B688021C9010A431A604C
:1037600080231A02FB681100180001F04BFC0023B3
:1037700000E001231800BD4606B0B0BD0180000086
:10378000FF7FFFFF534F0008FFBFFFFFED41000821
:10379000894E0008214F0008B0B586B000AFF86030
:1037A000B9603B60BB1D1A80FB6841229B5CDBB2A9
:1037B0001A0028231340282B00D035E1BB68002BCA
:1037C00003D0BB1D1B88002B05D1FB688022920013
:1037D0005A64012329E1974AFB681100180001F09F
:1037E0009BFCFB6840229B5C012B01D102231CE166
:1037F000FB68402201219954FB6841229B5CDBB2AB
:10380000292B2DD1FB680121180001F085FCFB68F4
:103810001B681A688023DB011A408023DB019A426F
:103820004CD1FB689B6B002B48D0FB681B681A6867
:10383000FB681B6880490A401A60FB689B6B7F4AE3
:103840005A63FB689B6B1800FFF7E0F8031E35D046
:10385000FB689B6B5A6BFB689B6B180090472DE0D5
:10386000FB6841229B5CDBB22A2B27D1FB681B68DB
:103870001A6880231B021A4080231B029A421DD122
:10388000FB681B681A68FB681B686D490A401A6070
:10389000FB68DB6B002B11D0FB68DB6B674A5A635C
:1038A000FB68DB6B1800FFF7B1F8031E06D0FB685E
:1038B000DB6B5A6BFB68DB6B18009047FB6841229F
:1038C0002A219954FB68422220219954FB68002246
:1038D0005A64FB681B685A68FB681B6858490A40B1
:1038E0005A60FB68BA685A62FB68BA1D12885A852A
:1038F000FB685B8D9AB2FB681A85FB683A68DA62EE
:10390000FB68504A5A63FB68DB6B002B23D0FB68D3
:10391000DB6B4D4A9A62FB68DB6B4C4A1A63FB68AF
:10392000DB6B0022DA62FB68DB6B00225A63FB6808
:10393000D86BFB681B6824331900BA68FB681B8DC1
:1039400017257C19FEF7FCFF030023707B191B78F9
:10395000002B37D113E0FB68412228219954FB68E2
:10396000422200219954FB685B6C80221A43FB6859
:103970005A64FB68402200219954012355E0FB68FA
:103980005B8D9AB2FB681B8DD31A9AB2FB685A857D
:10399000FB6800221A85FB681B689B69082213409C
:1039A000083B5A425341DAB21623FB181A70FB68DF
:1039B0001B689B691B0CDBB201221340DBB2002B9E
:1039C0001DD113E0FB68412228219954FB68422253
:1039D00000219954FB685B6C10221A43FB685A64FF
:1039E000FB6840220021995401231EE01623FB1896
:1039F0001B78002B03D0FB681B680822DA61FB6888
:103A0000402200219954FB681B681A68FB681B68F8
:103A1000802109020A431A60064AFB681100180057
:103A200001F0F0FA002300E001231800BD4606B0C3
:103A3000B0BDC04602800000FFBFFFFF534F00082B
:103A4000FF7FFFFFED410008D14E0008214F000825
:103A500080B582B000AF78607B6841229B5CDBB2AE
:103A6000202B0FD17B684122282199547B68084A7A
:103A70005A6380231A027B681100180001F0C2FA11
:103A8000002300E002231800BD4602B080BDC046FE
:103A9000D53A000880B582B000AF7860C046BD4618
:103AA00002B080BD80B582B000AF7860C046BD4630
:103AB00002B080BD80B582B000AF7860C046BD4620
:103AC00002B080BD80B582B000AF7860C046BD4610
:103AD00002B080BD80B586B000AFF860B9607A6092
:103AE000FB68DB6A7B61BB683B61FB6840229B5CD7
:103AF000012B01D10223FBE0FB68402201219954F4
:103B00003B695B091A00012313400CD07B685B09F9
:103B10001A000123134006D03A69FB68110018000F
:103B200000F07AFEDFE03B691B091A000123134015
:103B300054D07B681B091A00012313404ED0FB6848
:103B40005B8D9BB2002B2DD1FB6841229B5CDBB2CD
:103B5000282B0BD17A6980239B049A4206D13A69BB
:103B6000FB681100180000F0E7FF36E0FB68412217
:103B70009B5CDBB2292B10D17B695F4A93420CD04E
:103B8000FB681B681022DA61FB68180001F059F924
:103B9000FB68180000F008FD1FE0FB681B6810229E
:103BA000DA619DE0FB681B681022DA61FB685B6CE0
:103BB00004221A43FB685A647B69002B05D07A699A
:103BC00080235B049A4200D08AE0FB685A6CFB6851
:103BD0001100180001F00AF882E081E03B699B08BF
:103BE0001A000123134031D07B689B081A0001237F
:103BF00013402BD0FB685B8D9BB2002B18D0FB6869
:103C00001B685A6AFB685B6AD2B21A70FB685B6A0F
:103C10005A1CFB685A62FB681B8D013B9AB2FB6819
:103C20001A85FB685B8D9BB2013B9AB2FB685A8593
:103C3000FB685B8D9BB2002B54D17B692E4A93426B
:103C400050D0FB68180000F0AFFC4BE03B69DB088C
:103C50001A00012313400CD07B68DB081A000123F3
:103C6000134006D03A69FB681100180000F0B6FB5B
:103C700039E03B695B081A000123134033D07B68AD
:103C80005B081A00012313402DD0FB685B8D9BB2AB
:103C9000002B18D0FB685B6A1A78FB681B689A6275
:103CA000FB685B6A5A1CFB685A62FB685B8D9BB2BF
:103CB000013B9AB2FB685A85FB681B8D013B9AB2A7
:103CC000FB681A850FE07A6980235B049A4202D070
:103CD0007B69002B07D1FB68180000F065FC02E04F
:103CE000C04600E0C046FB684022002199540023F2
:103CF0001800BD4606B080BD0000FFFF90B589B03A
:103D000002AFF860B9607A60FB6840229B5C012BCF
:103D100001D1022305E1FB68402201219954BB68CF
:103D20001B091A000123134019D07B681B091A00D4
:103D30000123134013D0FB681B681022DA61FB6873
:103D40005B6C04221A43FB685A64FB68202118004C
:103D500001F058F9FB68180001F073F8DCE0BB686B
:103D6000DB091A000123134000D18CE07B689B091A
:103D70001A000123134000D185E0FB681B681A6814
:103D8000FB681B6840218A431A60FB685B8D9BB20D
:103D9000002B63D0FB681B685B689AB21223FB1888
:103DA0009205920D1A80FB685B8D9BB2FF2B14D994
:103DB000FB681B689B691B0CDBB201221340DBB262
:103DC000012B03D1FB6801221A8502E0FB68FF2268
:103DD0001A8580235B047B6110E0FB685B8D9AB2DF
:103DE000FB681A85FB68DB6A504A934203D0FB6884
:103DF000DB6A7B6102E080239B047B61FB681B8D97
:103E0000DAB27C691223FB181988F8680023009342
:103E1000230001F0BDF8FB685B8D9AB2FB681B8D37
:103E2000D31A9AB2FB685A85FB6841229B5CDBB2CD
:103E3000222B09D1FB681B681A68FB681B6880216C
:103E400009020A431A6067E0FB681B681A68FB688E
:103E50001B688021C9010A431A605DE0FB681B688A
:103E60005A6880239B041A4080239B049A4204D002
:103E7000FB68180000F056FB4EE0FB68402118007C
:103E800000F0B4FE48E0BB689B091A000123134010
:103E90002ED07B689B091A000123134028D0FB68B1
:103EA0005B8D9BB2002B1DD1FB681B685A68802379
:103EB0009B041A4080239B049A422CD0FB68DB6A47
:103EC0001A4A934209D1FB681B685A68FB681B6851
:103ED0008021C9010A435A601DE0FB68180000F008
:103EE00021FB18E0FB684021180000F07FFE12E083
:103EF000BB685B091A00012313400DD07B685B0986
:103F00001A000123134007D0BA68FB68110018009B
:103F100000F0B0FB00E0C046FB684022002199544D
:103F200000231800BD4607B090BDC0460000FFFF4B
:103F300090B589B002AFF860B9607A60A94B7B6137
:103F4000FB6840229B5C012B01D1022346E1FB6808
:103F5000402201219954BB681B091A000123134018
:103F600019D07B681B091A000123134013D0FB688A
:103F70001B681022DA61FB685B6C04221A43FB6841
:103F80005A64FB682021180001F03CF8FB68180017
:103F900000F057FF1DE1BB685B081A0001231340C6
:103FA0000FD07B685B081A000123134009D0FB681F
:103FB0001B68FA68126D9A62FB68012252421A6508
:103FC00007E1BB68DB091A000123134000D174E04C
:103FD0007B689B091A000123134000D16DE0FB6848
:103FE0000121180001F098F8FB681021180001F079
:103FF00009F8FB685B8D9BB2002B58D0FB685B8D8A
:104000009BB2FF2B1ED9FB681B689B691B0CDBB2A4
:1040100001221340DBB2012B03D1FB6801221A8578
:1040200002E0FB68FF221A85FB68DB6C99B2FB6833
:104030001B8DDAB280235B04F8680024009400F042
:10404000A7FF11E0FB685B8D9AB2FB681A85FB68DD
:10405000DB6C99B2FB681B8DDAB280239B04F86895
:104060000024009400F094FFFB685B8D9AB2FB681B
:104070001B8DD31A9AB2FB685A85FB6841229B5C60
:10408000DBB2222B09D1FB681B681A68FB681B682E
:10409000802109020A431A609BE0FB681B681A68CA
:1040A000FB681B688021C9010A431A6091E0FB6824
:1040B0004021180000F09AFD8BE0BB689B091A00B4
:1040C0000123134000D172E07B689B091A00012391
:1040D00013406CD0FB680121180001F01DF8FB684B
:1040E0001021180000F08EFFFB6841229B5CDBB2C0
:1040F000222B01D13C4B7B61FB685B8D9BB2FF2B7C
:104100001FD9FB681B689B691B0CDBB201221340A3
:10411000DBB2012B03D1FB6801221A8502E0FB68A8
:10412000FF221A85FB68DB6C99B2FB681B8DDAB243
:1041300080235C04F8687B690093230000F028FF6B
:1041400012E0FB685B8D9AB2FB681A85FB68DB6C3A
:1041500099B2FB681B8DDAB280239C04F8687B69F6
:104160000093230000F014FFFB685B8D9AB2FB689C
:104170001B8DD31A9AB2FB685A85FB6841229B5C5F
:10418000DBB2222B09D1FB681B681A68FB681B682D
:10419000802109020A431A601BE0FB681B681A6849
:1041A000FB681B688021C9010A431A6011E0BB68E3
:1041B0005B091A00012313400BD07B685B091A00CE
:1041C0000123134005D0BA68FB681100180000F005
:1041D00051FAFB6840220021995400231800BD4683
:1041E00007B090BD002000800024008080B588B01A
:1041F00000AFF860B9607A60FB68DB6ABB610023DE
:10420000FB61FB6840229B5C012B01D10223DEE0B5
:10421000FB68402201219954BB685B091A00012305
:1042200013400CD07B685B091A000123134006D0B1
:10423000BA68FB681100180000F0EEFAC2E0BB6833
:104240001B091A000123134000D1A9E07B681B0958
:104250001A000123134000D1A2E07B689B0B1A00D7
:104260000123134006D17B68DB0B1A0001231340A6
:1042700000D18EE0FB68DB6B002B0DD07B68DB0B85
:104280001A000123134007D0FB68DB6B1B685B68D7
:10429000002B01D10123FB61FB689B6B002B0DD030
:1042A0007B689B0B1A000123134007D0FB689B6BB4
:1042B0001B685B68002B01D10123FB61FB69012BAB
:1042C0002DD1FB6841229B5CDBB2282B0BD1BA6954
:1042D00080239B049A4206D1BA68FB68110018003B
:1042E00000F02AFC54E0FB6841229B5CDBB2292BE6
:1042F00010D1BB69384A93420CD0FB681B6810226E
:10430000DA61FB68180000F09CFDFB68180000F003
:104310004BF93DE0FB681B681022DA613EE0FB6868
:104320001B681022DA61FB685B6C04221A43FB688D
:104330005A641723FB18FA684121525C1A70BB6952
:10434000002B04D0BA6980235B049A4226D117223D
:10435000BB181B78212B03D0BB181B78292B03D14A
:10436000FB6821221A630BE01722BB181B78222B53
:1043700003D0BB181B782A2B02D1FB6822221A63B8
:10438000FB685A6CFB681100180000F02FFC05E078
:1043900004E0FB681B681022DA6113E0C04611E0FC
:1043A000BB68DB081A00012313400BD07B68DB08D5
:1043B0001A000123134005D0BA68FB6811001800E9
:1043C00000F00CF8FB6840220021995400231800EB
:1043D000BD4608B080BDC0460000FFFFB0B584B048
:1043E00000AF786039607B6841229B5CDBB21A00C9
:1043F00028231340282B00D088E07B681B689B692A
:104400001B0CDAB20F257B1901210A401A707B6858
:104410001B689B691B0C9AB20C203B18FE210A40BA
:104420001A807B681B689B689AB20A243B19920524
:10443000920D1A807B681B68DB689AB20823FB1810
:10444000FE210A401A807B68DB68022B48D12100DC
:104450007B181B88DB099AB23B181B8853409BB220
:104460001A000623134020D13B187A1812881A80AC
:104470007B689B6C5A1C7B689A647B689B6C022BE4
:104480004CD17B6800229A647B681B680822DA6141
:104490007B684022002199543B181A887B191978AF
:1044A0007B68180002F05CFE38E00C243B190822FF
:1044B000BA1812881A8080231A027B68110018002B
:1044C00000F02AFE7B684022002199543B191A888B
:1044D0000F23FB1819787B68180002F041FE1DE0DD
:1044E00080231A027B681100180000F015FE7B681B
:1044F0004022002199540C23FB181A880F23FB1823
:1045000019787B68180002F02BFE07E07B681B68B7
:104510000822DA617B68402200219954C046BD46DA
:1045200004B0B0BD80B582B000AF78607B68422235
:10453000002199547B6841229B5CDBB2212B17D16F
:104540007B684122202199547B6811221A637B6881
:1045500000225A637B680121180000F0DDFD7B68B2
:104560004022002199547B681800FFF793FA16E067
:104570007B684122202199547B6812221A637B6850
:1045800000225A637B680221180000F0C5FD7B6899
:104590004022002199547B681800FFF783FAC04637
:1045A000BD4602B080BD000080B584B000AF786029
:1045B0007B681B681B68FB607B6842220021995462
:1045C000FB689B0B1A000123134008D07B681B6813
:1045D0001A687B681B6825490A401A600DE0FB6871
:1045E000DB0B1A000123134007D07B681B681A6895
:1045F0007B681B681E490A401A607B6841229B5CED
:10460000DBB2292B14D17B684122282199547B6885
:1046100021221A637B680121180000F07DFD7B6870
:104620004022002199547B68180002F063FE19E0D3
:104630007B6841229B5CDBB22A2B13D17B68412231
:10464000282199547B6822221A637B680221180072
:1046500000F062FD7B684022002199547B681800BD
:1046600002F020FEC046BD4604B080BDFFBFFFFF84
:10467000FF7FFFFF80B586B000AF786039603B6890
:104680007B617B681B682022DA617B6841229B5C2E
:10469000DBB2212B08D17B680121180000F03CFD22
:1046A0007B6811221A630DE07B6841229B5CDBB2C0
:1046B000222B07D17B680221180000F02DFD7B68BA
:1046C00012221A637B681B685A687B681B68504912
:1046D0000A405A607B6800225A637B684D4ADA625E
:1046E0007B691B091A000123134009D07B681B68F2
:1046F0001022DA617B685B6C04221A437B685A647F
:104700007B6841229B5CDBB2602B0BD17B699B08F1
:104710001A000123134005D07B681B685B6ADBB27B
:10472000FB60FB687B68180000F08BFB7B685B6CB0
:104730003B617B6841229B5CDBB2602B02D03B6912
:10474000002B07D07B685A6C7B681100180000F0C2
:104750004DFA58E07B6841229B5CDBB2212B26D1CD
:104760007B684122202199547B6800221A637B6870
:1047700042229B5CDBB2402B0CD17B6842220021A1
:1047800099547B684022002199547B681800FFF7F8
:1047900091F938E07B684222002199547B684022DD
:1047A000002199547B681800FFF774F92BE07B68AF
:1047B00041229B5CDBB2222B25D17B684122202148
:1047C00099547B6800221A637B6842229B5CDBB2AF
:1047D000402B0CD17B684222002199547B684022F7
:1047E000002199547B681800FFF76CF90BE07B6897
:1047F0004222002199547B684022002199547B6811
:104800001800FFF74FF9C046BD4606B080BDC04650
:1048100000E800FE0000FFFF80B586B000AF7860C2
:1048200039607B681B681B683B613B687B617B6808
:10483000DB6AFB600B203B187A684121525C1A70DE
:104840007B681B682022DA613B181B78212B03D080
:104850003B181B78292B09D1B04A7B68110018003E
:1048600000F05AFC7B6821221A6320E00B22BB185F
:104870001B78222B03D0BB181B782A2B09D1A84AFE
:104880007B681100180000F047FC7B6822221A6345
:104890000DE00B23FB181B78282B08D1A14A7B685D
:1048A0001100180000F038FC7B6800221A637B6856
:1048B0001B685A687B681B68802109020A435A609A
:1048C0007B681B685A687B681B6897490A405A6076
:1048D0007B68180000F0B5FA3B699B0B1A000123B6
:1048E000134013D07B681B681A687B681B688F496C
:1048F0000A401A607B689B6B002B20D07B689B6B07
:104900001B685B689AB27B685A8518E03B69DB0BD1
:104910001A000123134012D07B681B681A687B6859
:104920001B6883490A401A607B68DB6B002B06D04A
:104930007B68DB6B1B685B689AB27B685A857B6916
:104940009B081A000123134020D07B690422934363
:104950007B617B681B685A6A7B685B6AD2B21A709B
:104960007B685B6A5A1C7B685A627B681B8D002BD4
:104970000CD07B681B8D013B9AB27B681A857B68E3
:104980005B8D9BB2013B9AB27B685A857B685B8DDD
:104990009BB2002B05D07B685B6C04221A437B68BA
:1049A0005A647B691B091A000123134051D03B69EB
:1049B0001B091A00012313404BD07B685B8D9BB20F
:1049C000002B2DD17B6841229B5CDBB2282B0BD1C5
:1049D000FA6880239B049A4206D17A697B681100A9
:1049E000180000F0A9F834E07B6841229B5CDBB240
:1049F000292B10D1FB684F4A93420CD07B681B686F
:104A00001022DA617B68180000F01BFA7B6818003E
:104A1000FFF7CAFD1DE07B681B681022DA6118E011
:104A20007B681B681022DA617B685B6C04221A4386
:104A30007B685A64FB68002B04D0FA6880235B040F
:104A40009A4206D17B685A6C7B681100180000F00E
:104A5000CDF87B684222002199547B6800225A637A
:104A60007B685B6C002B13D07B685A6C7B681100F1
:104A7000180000F0BBF87B6841229B5CDBB2282B5E
:104A800047D17A697B681100180000F055F840E0C2
:104A90007B68DB6A274A934216D07B681800FFF7D1
:104AA00083FD7B68234ADA627B6841222021995486
:104AB0007B6800221A637B684022002199547B683E
:104AC000180002F0D9FB24E07B6841229B5CDBB23A
:104AD000222B0FD17B684122202199547B68002230
:104AE0001A637B684022002199547B68180002F009
:104AF000D9FB0EE07B684122202199547B6800227B
:104B00001A637B684022002199547B68180002F0E8
:104B1000F1FBC046BD4606B080BDC0460180000026
:104B2000028000000380000000E800FEFFBFFFFFDE
:104B3000FF7FFFFF0000FFFF80B582B000AF78600D
:104B400039607B68274ADA627B6800221A637B68D7
:104B50004122202199547B684222002199547B688C
:104B600000225A633B689B081A000123134022D09D
:104B70007B681B685A6A7B685B6AD2B21A707B6872
:104B80005B6A5A1C7B685A627B681B8D002B12D0B3
:104B90007B681B8D013B9AB27B681A857B685B8DB5
:104BA0009BB2013B9AB27B685A857B685B6C04229E
:104BB0001A437B685A640C4A7B681100180000F0A5
:104BC000ABFA7B681B681022DA617B684022002107
:104BD00099547B68180002F04FFBC046BD4602B0F6
:104BE00080BDC0460000FFFF0380000080B584B098
:104BF00000AF786039600F203B187A684121525C21
:104C00001A707B684222002199547B68724ADA62EA
:104C10007B6800225A857B685A6C3B681A437B6824
:104C20005A643B181B78282B07D03B181B78292B7C
:104C300003D03B181B782A2B0CD17B68032118006A
:104C400000F06AFA7B684122282199547B68634A04
:104C50005A6332E0624A7B681100180000F05CFA87
:104C60007B68180000F0EDF87B6841229B5CDBB2AA
:104C7000602B1FD07B684122202199547B681B68E0
:104C80009B6920221340202B14D17B681B689B69F1
:104C900010221340102B09D17B681B681022DA61A7
:104CA0007B685B6C04221A437B685A647B681B68D0
:104CB0002022DA617B6800225A637B681B6BBB6031
:104CC0007B689B6B002B3BD0BB68112B02D0BB6871
:104CD000212B35D17B681B681A688023DB011A40C1
:104CE0008023DB019A4207D17B681B681A687B68C6
:104CF0001B683C490A401A607B689B6B1800FDF7F3
:104D00006CFF0300012B16D07B689B6B364A5A63FD
:104D10007B684022002199547B689B6B1800FDF74B
:104D200075FE031E51D07B689B6B5A6B7B689B6B37
:104D30001800904749E07B68180000F059F844E0FB
:104D40007B68DB6B002B3BD0BB68122B02D0BB68AF
:104D5000222B35D17B681B681A6880231B021A40FE
:104D600080231B029A4207D17B681B681A687B6804
:104D70001B681E490A401A607B68DB6B1800FDF750
:104D80002CFF0300012B16D07B68DB6B164A5A639D
:104D90007B684022002199547B68DB6B1800FDF78B
:104DA00035FE031E13D07B68DB6B5A6B7B68DB6BB5
:104DB000180090470BE07B68180000F019F806E037
:104DC0007B68180000F014F802E0C04600E0C0461E
:104DD000C046BD4604B080BD0000FFFFD53A0008C4
:104DE00003800000FFBFFFFF534F0008FF7FFFFF5E
:104DF00080B582B000AF78607B6841229B5CDBB2FB
:104E0000602B0FD17B684122202199547B680022BE
:104E10001A637B684022002199547B68180002F0D5
:104E200097F90AE07B6800221A637B684022002120
:104E300099547B68180002F011FAC046BD4602B0D2
:104E400080BD80B582B000AF78607B681B689B69CD
:104E500002221340022B03D17B681B6800229A6256
:104E60007B681B689B6901221340012B07D07B687C
:104E70001B689A697B681B6801210A439A61C046D6
:104E8000BD4602B080BD000080B584B000AF786040
:104E90007B685B6AFB60FB68DB6ABB60BA68802387
:104EA0005B049A4202D0BB68002B0BD1FB681B68E5
:104EB0001A68FB681B6805490A401A60FB681800FD
:104EC000FFF772FBC046BD4604B080BDFFBFFFFFC9
:104ED00080B584B000AF78607B685B6AFB60FB687C
:104EE000DB6ABB60FB68DB6B1B685B68002B0FD168
:104EF000BB68094A93420BD0FB681B681A68FB68C1
:104F00001B6806490A401A60FB681800FFF74CFB53
:104F1000C046BD4604B080BD0000FFFFFF7FFFFF1D
:104F200080B584B000AF78607B685B6AFB60FB682B
:104F30001B685A68FB681B68802109020A435A6093
:104F4000FB6810211800FFF751FEC046BD4604B0B3
:104F500080BD80B584B000AF78607B685B6AFB6021
:104F6000FB689B6B002B03D0FB689B6B00225A6392
:104F7000FB68DB6B002B03D0FB68DB6B00225A6302
:104F8000FB681800FFF734FFC046BD4604B080BD83
:104F900090B587B000AFF860080011007B600A246C
:104FA0003B19021C1A8009203B180A1C1A703B1975
:104FB0001B889B059A0D3B181B781904FF231B04C3
:104FC0000B401A437B681A43BB6A13435B005B08C0
:104FD0007B61FB681B685B68BA6A510D8022D20056
:104FE0000A4007490A43D2431A401100FB681B6874
:104FF0007A690A435A60C046BD4607B090BDC046B4
:10500000FF63FF0380B584B000AF78600A00BB1C6B
:105010001A800023FB607B685A6B3C4B9A4235D068
:105020007B685A6B3A4B9A4230D07B685A6B394B4B
:105030009A422BD0BB1C00229B5E002B03DAFB683C
:10504000B8221343FB60BB1C1B880122134003D012
:10505000FB68F2221343FB60BB1C1B880222134037
:1050600003D0FB68F4221343FB60BB1C1B88102B8E
:1050700003D1FB6890221343FB60BB1C1B88202BD1
:1050800037D1FB6820221343FB6032E0BB1C0022B7
:105090009B5E002B03DAFB68B8221343FB60BB1C4A
:1050A0001B880122134003D0FB68F2221343FB60EC
:1050B000BB1C1B880222134003D0FB68F42213435D
:1050C000FB60BB1C1B88102B03D1FB689022134391
:1050D000FB60BB1C1B88202B03D1FB6860221343A1
:1050E000FB60BB1C1B88402B03D1FB684022134391
:1050F000FB607B681B6819687B681B68FA680A4359
:105100001A60C046BD4604B080BDC046FD3C0008E4
:10511000ED410008313F000880B584B000AF7860F1
:105120000A00BB1C1A800023FB60BB1C1B880122E9
:10513000134010D0FB6842221343FB607B6841227E
:105140009B5CDBB21A0028231340282B03D0FB689A
:10515000B0221343FB60BB1C1B880222134010D0FB
:10516000FB6844221343FB607B6841229B5CDBB2FB
:105170001A0028231340282B03D0FB68B0221343C6
:10518000FB60BB1C00229B5E002B03DAFB68B8228D
:105190001343FB60BB1C1B88102B03D1FB689022C0
:1051A0001343FB60BB1C1B88202B03D1FB68202210
:1051B0001343FB60BB1C1B88402B03D1FB684022C0
:1051C0001343FB607B681B681A68FB68D9437B68E4
:1051D0001B680A401A60C046BD4604B080BD00008E
:1051E00080B582B000AF786039607B6841229B5CFB
:1051F000DBB2202B38D17B6840229B5C012B01D194
:10520000022332E07B684022012199547B684122CD
:10521000242199547B681B681A687B681B680121EC
:105220008A431A607B681B681A687B681B6811498F
:105230000A401A607B681B6819687B681B683A68BB
:105240000A431A607B681B681A687B681B68012127
:105250000A431A607B684122202199547B684022CE
:1052600000219954002300E002231800BD4602B03B
:1052700080BDC046FFEFFFFF80B584B000AF78600F
:1052800039607B6841229B5CDBB2202B39D17B6883
:1052900040229B5C012B01D1022333E07B6840223A
:1052A000012199547B684122242199547B681B6811
:1052B0001A687B681B6801218A431A607B681B6837
:1052C0001B68FB60FB68114A1340FB603B681B02D4
:1052D000FA681343FB607B681B68FA681A607B6896
:1052E0001B681A687B681B6801210A431A607B6887
:1052F0004122202199547B684022002199540023A7
:1053000000E002231800BD4604B080BDFFF0FFFF9F
:1053100080B588B000AF78607B68002B02D1012394
:1053200000F076FB7B681B680122134000D18EE001
:10533000C54B5B680C221340042B0ED0C24B5B683C
:105340000C221340082B17D1BF4B5A68C0235B02B5
:105350001A4080235B029A420ED1BB4B1A6880230D
:105360009B02134000D171E07B685B68002B00D08A
:105370006CE0012300F04CFB7B685B68012B07D1DC
:10538000B14B1A68B04B802149020A431A602FE0E2
:105390007B685B68002B0CD1AB4B1A68AA4BAB49FE
:1053A0000A401A60A84B1A68A74BA9490A401A601C
:1053B0001EE07B685B68052B0ED1A34B1A68A24BDD
:1053C0008021C9020A431A609F4B1A689E4B8021B4
:1053D00049020A431A600BE09B4B1A689A4B9B499F
:1053E0000A401A60984B1A68974B99490A401A600C
:1053F0007B685B68002B14D0FBF748FE0300BB61A1
:1054000008E0FBF743FE0200BB69D31A642B01D905
:105410000323FDE28C4B1A6880239B021340F0D0DB
:1054200015E0FBF733FE0300BB6108E0FBF72EFE3F
:105430000200BB69D31A642B01D90323E8E2824B33
:105440001A6880239B021340F0D100E0C0467B68BD
:105450001B680222134000D16CE07B4B5B680C227E
:1054600013400ED0784B5B680C221340082B1FD1E1
:10547000754B5A68C0235B021A4080231B029A4274
:1054800016D1714B1B680222134005D07B68DB6884
:10549000012B01D00123BBE26B4B1B68F822934325
:1054A00019007B681B69DA00674B0A431A6041E008
:1054B0007B68DB68002B24D0634B1A68624B0121A8
:1054C0000A431A60FBF7E2FD0300BB6108E0FBF74B
:1054D000DDFD0200BB69D31A022B01D9032397E239
:1054E000594B1B6802221340F1D0574B1B68F8221E
:1054F000934319007B681B69DA00534B0A431A6017
:1055000018E0514B1A68504B01218A431A60FBF78F
:10551000BDFD0300BB6108E0FBF7B8FD0200BB69FD
:10552000D31A022B01D9032372E2474B1B680222D4
:105530001340F1D17B681B680822134036D07B688A
:10554000DB69002B19D0404B5A6A3F4B01210A43BB
:105550005A62FBF79BFD0300BB6108E0FBF796FD79
:105560000200BB69D31A022B01D9032350E2364B48
:105570005B6A02221340F1D018E0334B5A6A324B77
:1055800001218A435A62FBF781FD0300BB6108E0F9
:10559000FBF77CFD0200BB69D31A022B01D9032360
:1055A00036E2294B5B6A02221340F1D17B681B680B
:1055B0000422134000D1B5E01F203B1800221A70CE
:1055C000214BDA6980235B05134010D11E4BDA6949
:1055D0001D4B802149050A43DA611B4BDA698023A0
:1055E0005B051340FB60FB683B1801221A70194BE6
:1055F0001A6880235B0013401AD1164B1A68154BAA
:10560000802149000A431A60FBF740FD0300BB619B
:1056100008E0FBF73BFD0200BB69D31A642B01D9FC
:105620000323F5E10B4B1A6880235B001340F0D095
:105630007B689B68012B0FD1034B1A6A024B012137
:105640000A431A6236E0C04600100240FFFFFEFF28
:10565000FFFFFBFF007000407B689B68002B0CD1B4
:10566000CA4B1A6AC94B01218A431A62C74B1A6A8C
:10567000C64B04218A431A621CE07B689B68052B99
:105680000CD1C24B1A6AC14B04210A431A62BF4BA8
:105690001A6ABE4B01210A431A620BE0BB4B1A6A1D
:1056A000BA4B01218A431A62B84B1A6AB74B0421DC
:1056B0008A431A627B689B68002B14D0FBF7E6FCD8
:1056C0000300BB6109E0FBF7E1FC0200BB69D31AF0
:1056D000AF4A934201D903239AE1AC4B1B6A0222E1
:1056E0001340F0D013E0FBF7D1FC0300BB6109E0ED
:1056F000FBF7CCFC0200BB69D31AA54A934201D93F
:10570000032385E1A14B1B6A02221340F0D11F2322
:10571000FB181B78012B05D19C4BDA699B4B9D49EB
:105720000A40DA617B681B681022134063D07B68F3
:105730005B69012B2AD1954B5A6B944B04210A4388
:105740005A63924B5A6B914B01210A435A63FBF700
:105750009DFC0300BB6108E0FBF798FC0200BB69FD
:10576000D31A022B01D9032352E1884B5B6B02222F
:105770001340F1D0854B5B6BF822934319007B6893
:105780009B69DA00814B0A435A6334E07B685B69AA
:10579000053311D17D4B5A6B7C4B04218A435A63EC
:1057A0007A4B5B6BF822934319007B689B69DA00A4
:1057B000764B0A435A631EE0744B5A6B734B0421B9
:1057C0000A435A63714B5A6B704B01218A435A63E7
:1057D000FBF75CFC0300BB6108E0FBF757FC020031
:1057E000BB69D31A022B01D9032311E1674B5B6B11
:1057F00002221340F1D17B681B68202213405CD049
:10580000624B5B680C2213400C2B0ED05F4B5B6825
:105810000C221340082B14D15C4B5A68C0235B0246
:105820001A40C0235B029A420BD1584B5A6B80231B
:105830009B02134040D07B681B6A012B3CD00123A4
:10584000E6E07B681B6A002B1BD0504B5A6B4F4B1A
:10585000802149020A435A63FBF718FC0300BB612D
:1058600008E0FBF713FC0200BB69D31A022B01D935
:105870000323CDE0454B5A6B80239B021340F0D0AD
:105880001BE0424B5A6B414B43490A405A63FBF7BA
:10589000FDFB0300BB6108E0FBF7F8FB0200BB69FE
:1058A000D31A022B01D90323B2E0384B5A6B802361
:1058B0009B021340F0D100E0C0467B685B6A002B7E
:1058C00000D1A4E0314B5B680C221340082B00D1BF
:1058D00078E07B685B6A022B4CD12C4B1A682B4B0F
:1058E0002E490A401A60FBF7D1FB0300BB6108E0B8
:1058F000FBF7CCFB0200BB69D31A022B01D90323AF
:1059000086E0224B1A6880239B041340F0D11F4B82
:10591000DB6A0F22934319007B681A6B1B4B0A4307
:10592000DA621A4B5B681E4A134019007B68DA6A18
:105930007B689B6A1A43154B0A435A60134B1A68DB
:10594000124B802149040A431A60FBF79FFB0300B6
:10595000BB6108E0FBF79AFB0200BB69D31A022B7C
:1059600001D9032354E0094B1A6880239B04134098
:10597000F0D04CE0054B1A68044B08490A401A6005
:10598000FBF784FB0300BB6115E0C046001002403A
:1059900088130000FFFFFFEFFFFFFEFFFFFFFFFE8A
:1059A000FF7FC2FFFBF772FB0200BB69D31A022B19
:1059B00001D903232CE0184B1A6880239B04134061
:1059C000F0D124E07B685B6A012B01D101231FE049
:1059D000114B5B687B61104BDB6A3B617A69C023CA
:1059E0005B021A407B689B6A9A420ED13B690F2288
:1059F0001A407B681B6B9A4207D17A69F0239B039C
:105A00001A407B68DB6A9A4201D0012300E0002340
:105A10001800BD4608B080BD0010024080B584B0BB
:105A200000AF786039607B68002B01D10123BFE0B3
:105A3000614B1B68012213403A689A4211D95E4BB0
:105A40001B680122934319005B4B3A680A431A60B2
:105A5000594B1B68012213403A689A4201D0012336
:105A6000A6E07B681B680222134015D07B681B6888
:105A70000422134006D0514B5A68504BE021C90014
:105A80000A435A604D4B5B68F022934319007B68D0
:105A90009A684A4B0A435A607B681B68012213408C
:105AA0004CD07B685B68012B07D1444B1A6880237C
:105AB0009B02134020D101237AE07B685B68022BB4
:105AC00007D13E4B1A6880239B04134014D1012355
:105AD0006EE07B685B68032B07D1384B5A6B8023E1
