:020000040800F2
:10000000FF1700203D3400089133000893330008A7
:1000100000000000000000000000000000000000E0
:100020000000000000000000000000009533000800
:10003000000000000000000097330008993300081A
:10004000BD340008BD340008BD340008BD340008CC
:10005000BD340008BD340008A1330008BD340008D9
:10006000BD340008BD340008BD340008BD340008AC
:10007000BD340008BD340008BD340008BD3400089C
:10008000AD3300080000000000000000BD33000890
:1000900000000000BD340008BD340008BD34000875
:1000A00000000000BD340008BD340008BD34000865
:1000B000BD34000800000000CD330008BD34000846
:1000C00010B5064C2378002B07D1054B002B02D02E
:1000D000044800E000BF0123237010BD1000002081
:1000E00000000000C8350008044B10B5002B03D0F9
:1000F0000349044800E000BF10BDC04600000000F6
:1001000014000020C8350008002243088B4274D335
:1001100003098B425FD3030A8B4244D3030B8B4208
:1001200028D3030C8B420DD3FF22090212BA030C11
:100130008B4202D31212090265D0030B8B4219D3F2
:1001400000E0090AC30B8B4201D3CB03C01A524112
:10015000830B8B4201D38B03C01A5241430B8B425A
:1001600001D34B03C01A5241030B8B4201D30B0343
:10017000C01A5241C30A8B4201D3CB02C01A52416A
:10018000830A8B4201D38B02C01A5241430A8B422D
:1001900001D34B02C01A5241030A8B4201D30B0216
:1001A000C01A5241CDD2C3098B4201D3CB01C01A30
:1001B000524183098B4201D38B01C01A524143093A
:1001C0008B4201D34B01C01A524103098B4201D328
:1001D0000B01C01A5241C3088B4201D3CB00C01A95
:1001E000524183088B4201D38B00C01A524143080D
:1001F0008B4201D34B00C01A5241411A00D2014632
:10020000524110467047FFE701B5002000F006F8A4
:1002100002BDC0460029F7D076E770477047C04658
:1002200010B504000F4B1978FA208000FFF76CFF1F
:1002300001000D4B1868FFF767FF00F07FFC0028F6
:100240000DD1032C01D901200AE001300022210048
:10025000404200F017FC054B1C60002000E001202C
:1002600010BDC046000000200C000020040000204B
:1002700010B5064A136810210B4313600020FFF7E6
:10028000CFFF02F0DDFF002010BDC046002002407D
:10029000034A1168034B1B785B1813607047C04614
:1002A0007000002000000020014B18687047C04615
:1002B0007000002070B50400FFF7F6FF0500631C16
:1002C00002D0044B1B78E418FFF7EEFF401BA0425E
:1002D000FAD370BD0000002070B5041E00D1A0E06C
:1002E0002023C35C002B1AD02268136802218B43A1
:1002F0001360FFF7D9FF050023685A68920711D5EC
:10030000FFF7D2FF401B0A28F6D9626A80239B02BE
:100310001343636220230522E254012070BD02F0E2
:10032000ADFFE1E71A6801210A431A60FFF7BCFF3D
:10033000050023685A68D2070ED4FFF7B5FF401BAB
:100340000A28F6D9626A80239B0213436362202342
:100350000522E2540120E1E7227E012A3ED01A68FC
:1003600080218A431A60637E012B3CD02268136887
:1003700040218B431360A37E012B3AD0226813687F
:1003800020218B431360E37E012B38D02268136851
:1003900010210B431360237F012B36D02268136892
:1003A00008218B431360637F012B34D022681368CC
:1003B00004218B431360A368E2681343226913434B
:1003C000626913436268013A21681343CB610023D9
:1003D000636220330122E25400209FE71A688021E3
:1003E0000A431A60BFE72268136840210B43136079
:1003F000C1E72268136820210B431360C3E722681A
:10040000136810218B431360C5E722681368082125
:100410000B431360C7E72268136804210B43136082
:10042000C9E701207AE730B503682022825C013AEF
:10043000D2B2012A06D9426A8023DB021343436207
:10044000012030BD8024A400185901221043185106
:100450001F204C69204082408725AD005859D44365
:1004600020405851C869002818D1103D58592040E3
:100470005851C868050448680004000C05434869E1
:100480004830C000C5508868050408680004000CA6
:10049000054348694830C00018184560C8690128FC
:1004A0001AD08869002832D18125AD0058592040E2
:1004B00058510869002830D18525AD0058590440AD
:1004C0005C51096A01292ED0802189005A580120E7
:1004D00082435A500020B4E78325AD005859104399
:1004E00058510868050448680004000C0543486931
:1004F0004830C000C55088680504C8680004000C76
:10050000054348694830C00018184560C9E781258F
:10051000AD00585910435851CBE78524A400185911
:1005200010431851CDE78720800019580A431A500C
:10053000CAE770B504002023C35C012B06D0426AD1
:1005400080231B0313434362012070BD1F3302222B
:10055000C2540268136801218B431360FFF7A4FEA5
:10056000050023685B68DB070ED5FFF79DFE401B87
:100570000A28F6D9626A80239B0213436362202310
:100580000522E2540120E0E7002363620020DCE75B
:1005900070B52024045D0568AD68013CE4B2012C0F
:1005A00006D9426A8023DB0213434362012070BDF7
:1005B000E0246405254266D02D0E03242540022D3B
:1005C00043D80124AC401C608B68002B44D10B68DD
:1005D0005B05CC6823432C00183424010668A35122
:1005E0002B0018331B010468A44663440C695C604B
:1005F0000B7D012B3BD0D3791B06917909040B436A
:10060000517909020B4311790B432C010168091937
:100610008D31FF310B60D3781B06917809040B43B1
:10062000517809020B4312781343026894466444DC
:1006300022008932FF321360026818352D01AB5851
:1006400001210B43AB500020B1E7426A80231B0419
:10065000134343620120AAE74C68E4002343CC68BB
:1006600023432C00183424010668A351B8E72B005B
:1006700018331B0101688C4663445C688021490083
:1006800021435960B7E7426A80239B0313434362C7
:1006900001208CE770B52024045D013CE4B2012CFC
:1006A00006D9426A8023DB0213434362012070BDF6
:1006B000002976D10468E468A4076BD00C001B34D1
:1006C00024010568655904242C40946074D10C0001
:1006D0001B34240105686459640D14600C001B343C
:1006E00024010568665902253540D56005682D1935
:1006F0006E680F253540156105682D196E68360A3C
:10070000FF25354095610568AC4664446468240C57
:1007100054610A010468A418B934FF3424681C70B9
:100720000468A418B934FF342468240A5C7004688F
:10073000A418B934FF342468240C9C700468A418ED
:10074000B934FF342468240EDC700468A418BD3466
:10075000FF3424681C710468A418BD34FF34246875
:10076000240A5C710468A418BD34FF342468240C86
:100770009C710468A4466244BD32FF321268120EB6
:10078000DA71002920D10268D36820310B43D3608D
:1007900000208CE7426A80239B03134343620120BD
:1007A00085E704682469A40788D1426A80239B03F3
:1007B0001343436201207AE70C001B3424010568CF
:1007C0006459E408546089E70268136920210B43E7
:1007D000136100206BE72023C35C013BDBB2012BDC
:1007E00006D9426A8023DB0213434362012070472B
:1007F00002685369194351610020F8E77047704758
:100800007047704770477047704770477047704730
:1008100070477047F8B5DE4657464E464546E0B548
:10082000050003685C695F689E68DA6891461A692A
:1008300090469A699246E2075CD5F20715D50122E7
:100840009A60B30707D4730730D4330708D58023E1
:100850005B019B460BE0FFF7D1FF00239B4606E0C0
:10086000FFF7CFFF00239B4601E000239B46F305E3
:100870000CD52B68802252009A60B3051AD47305F8
:100880001CD580239B015A461A439346F30333D564
:100890002B68802252029A60B3031BD473031DD5C8
:1008A00080231B025A461A43934625E080231B01EE
:1008B0009B46DCE72800FFF7A2FFE7E7330505D5F5
:1008C0008023DB015A461A439346DFE72800FFF7EF
:1008D00099FFDBE72800FFF793FF0DE0330305D511
:1008E00080235B025A461A43934605E02800FFF72F
:1008F0008AFF01E000239B4623070AD54B46DB060F
:1009000007D580239B005A461A4393462B68102232
:10091000DA60630702D54B461B0758D4A30703D5FB
:100920002B68DB689B0759D163060AD54346DB0673
:1009300007D58023DB005A461A4393462B681022C2
:100940001A61A30602D543461B074BD4E30603D521
:100950002B681B699B074CD1A30301D5FB064CD424
:10096000E30301D53B074FD4230469D57B0764D546
:10097000E30506D55346DB0703D501235A461A4340
:100980009346A30506D553469B0703D502235A4633
:100990001A439346630506D553465B0703D50423E4
:1009A0005A461A439346230547D5702352461340AF
:1009B00043D0302B4DD02ED9502B4FD0602B52D05E
:1009C000402B35D140235A461A43934630E02B68DA
:1009D0000822DA602800FFF717FF9FE7280001F0E0
:1009E0000BFDA1E72B6808221A612800FFF70EFF14
:1009F000ACE72800FFF709FFAEE72B6810225A602A
:100A00002800FFF704FFABE72B6808225A60280094
:100A1000FFF7FEFEA8E7102B06D0202B08D11023ED
:100A20005A461A43934603E008235A461A4393460C
:100A30002A68936970218B4393612B6804225A6062
:100A40005B46002B15D13CBC90469946A246AB466E
:100A5000F8BD20235A461A439346E9E780235A46B5
:100A60001A439346E4E780235B005A461A439346B1
:100A7000DEE76B6A5A4613436B622800FFF7C9FE34
:100A8000E1E7000070B5002811DB8308144DC03386
:100A90009B005C5903221040C000FC3216008640C7
:100AA000B44389010A40824022435A5170BDC0B20A
:100AB0000F230340083B9B0806339B00094A9446DA
:100AC00063445D6803242040C000FF22140084407A
:100AD000A54389011140814029435960E6E7C0469A
:100AE00000E100E000ED00E0002805DB1F231840D6
:100AF0001E3B8340014A13607047C04600E100E09E
:100B000000280ADB1F2318401E3B83400349802234
:100B10008B50BFF34F8FBFF36F8F704700E100E042
:100B2000BFF34F8F034B044ADA60BFF34F8FC046C9
:100B3000FDE7C04600ED00E00400FA0501380A4B6D
:100B400098420FD8094A50600948036A1B021B0AE1
:100B5000C02109060B43036200239360073313602F
:100B6000002070470120FCE7FFFFFF0010E000E0DD
:100B700000ED00E010B5054B0022DA61044A13696C
:100B8000012423431361018010BDC046780000207A
:100B9000002002400C4BDB68DB0613D50B4AD369FF
:100BA00002210B43D3611023074AD268520706D5AE
:100BB0000649CA6901200243CA6104221343024A5A
:100BC000D36070470023EFE7002002407800002048
:100BD000084B1B691B060BD5064B074A5A60074A90
:100BE0005A601B691B0601D5012002E0002000E0CD
:100BF000002070470020024023016745AB89EFCDFC
:100C0000034A136980210B43136100207047C046DB
:100C10000020024070B50400FFF746FB0500134BAF
:100C2000DB68DB070AD5631CF9D0002C19D0FFF76D
:100C30003BFB401BA042F2D9032011E00B4BDB68C9
:100C40009B0602D5094B2022DA60084BDB68DB06E5
:100C500003D4064BDB685B0705D5FFF79BFF01203C
:100C600070BD0320FCE70020FAE7C04600200240E8
:100C7000F0B5C64600B504000D0090461E00214B9D
:100C80001B7E012B3BD01F4B01221A761E48FFF71B
:100C9000C1FF00282DD1012C06D0022C02D0042740
:100CA00000241BE00227FBE70127F9E72022D21AE4
:100CB000310091400A004146D940114389B24019A0
:100CC000FFF758FF1048FFF7A5FF104A13690121ED
:100CD0008B43136100280CD10134E4B2BC4208D22A
:100CE00060002301202252429A18DFD43100D14003
:100CF000E4E7044B00221A7604BC9046F0BD0220C3
:100D0000FAE7C0467800002050C3000000200240EF
:100D1000064B0022DA61064B1A6904210A431A6164
:100D20001A693C310A431A617047C04678000020B6
:100D300000200240064B0022DA61064B1A690221AC
:100D40000A431A6158611A693E310A431A617047B1
:100D5000780000200020024070B505000E00244BF2
:100D60001B7E012B41D0224B01221A760368012BF6
:100D700022D02048FFF74EFF002831D101235B42EB
:100D800033606C680130AB689B026A6894466344C8
:100D9000A34226D92000FFF7CDFF1648FFF73AFF00
:100DA000154A136902218B431361002816D1802351
:100DB000DB009C466444E6E70E48FFF72BFF002863
:100DC00001D001200DE0FFF7A3FF0A48FFF722FF43
:100DD000094A136904218B43136102E0346000E087
:100DE0000120034B00221A7670BD0220FCE7C046AA
:100DF0007800002050C3000000200240F0B5CE462D
:100E0000474680B583B000238FE085685F000326E6
:100E1000BE40B5432E00CD68BD4035438560456872
:100E2000A5434C682609012434409C402C4344606F
:100E3000C7685E000324B440E443A44627408D689D
:100E4000B5403D43C5604C68022C01D0122C10D136
:100E5000DC080834A400A146275807251D40AD0032
:100E60000F24AC40A7430C69AC4025003D434C46E1
:100E7000255005686446254003244F683C40B44033
:100E80002C4304604C68E4004ED5374DAE69012414
:100E90002643AE61AD692C400194019C9C08A51CC1
:100EA000AD00324EAF5903251D40AD000F26AE40B8
:100EB000B7439026F605B0424DD02D4EB0424CD0EF
:100EC0002C4EB04245D00526AE4035003D4302349D
:100ED000A400264EA551284C2568D4432E00264058
:100EE0004F68FF0301D515432E00234D2E606D681A
:100EF0002E0026404F68BF0301D515432E001E4D1E
:100F00006E60AD682E0026404F68FF0201D5154384
:100F10002E00194DAE60ED682C404E68B60201D52A
:100F20002A431400144AD46001330A681400DC40D8
:100F300015D001249C402240F6D04D686E1E012E33
:100F400000D862E7112D00D15FE7122D00D06FE7C6
:100F50005BE70226B8E70026B6E70126B4E703B050
:100F60000CBC90469946F0BD0010024000000140C4
:100F700000040048000800480004014003690B42D7
:100F800001D1002070470120FCE7002A01D18162D5
:100F900070478161FCE7000010B5054B5B691842A2
:100FA00000D110BD024B586101F03EFAF9E7C0468E
:100FB0000004014070B582B0041E00D185E20368D0
:100FC000DB072BD5B34B5A680C231340042B1DD0E1
:100FD000B04B5A680C231340082B0ED06368012BCA
:100FE00041D0002B56D1AB4B1A68AB490A401A606E
:100FF0001A68AA490A401A603BE0A64B5B68C02207
:1010000052021340802252029342E7D1A14B1B6847
:101010009B0303D56368002B00D159E223689B072B
:1010200078D59C4B5B680C221A4262D0994B5A6867
:101030000C231340082B53D0E368002B00D18BE026
:10104000944A136801210B431360FFF72DF9050043
:10105000904B1B689B0776D4FFF726F9401B0228AC
:10106000F6D9032032E28B4A116880235B020B43DE
:1010700013606368002B25D0FFF716F90500854B38
:101080001B689B03CAD4FFF70FF9401B6428F6D9ED
:1010900003201BE2052B09D07E4B1A687E490A40CB
:1010A0001A601A687D490A401A60E2E7794B1968AC
:1010B0008022D2020A431A601968802252020A432F
:1010C0001A60D6E7FFF7F0F80500724B1B689B0328
:1010D000A4D5FFF7E9F8401B6428F6D90320F5E111
:1010E0006C4B5B68C0225202134080221202934272
:1010F000A2D1684B1B689B0704D5E368012B01D084
:101100000120E3E163490B68F82293432269D2008E
:1011100013430B6023681B0744D5E369002B2ED0D3
:101120005C4A536A01210B435362FFF7BDF8050087
:10113000584B5B6A9B0735D4FFF7B6F8401B022873
:10114000F6D90320C2E153490B68F8229343226980
:10115000D20013430B60DDE74E4A136801218B4335
:101160001360FFF7A1F805004A4B1B689B07D1D518
:10117000FFF79AF8401B0228F6D90320A6E1454A5A
:10118000536A01218B435362FFF78EF80500414BF0
:101190005B6A9B0706D5FFF787F8401B0228F6D944
:1011A000032093E123685B0700D47FE0394BDB69C0
:1011B000DB001DD4374AD169802040050143D1614D
:1011C000D36903400193019B0125354B1B68DB0567
:1011D00010D5A368012B21D0002B36D12D4B1A6AD4
:1011E00001218A431A621A6A03318A431A621AE099
:1011F0000025EAE72A4A116880235B000B4313604D
:10120000FFF752F80600264B1B68DB05E1D4FFF719
:101210004BF8801B6428F6D9032057E11D4A136A56
:1012200001210B431362A368002B24D0FFF73CF885
:101230000600184B1B6A9B0736D4FFF735F8801B56
:10124000184B9842F5D9032040E1052B09D0114BEA
:101250001A6A01218A431A621A6A03318A431A629E
:10126000E1E70C4B1A6A04210A431A621A6A03392D
:101270000A431A62D7E7FFF717F80600054B1B6A07
:101280009B0711D5FFF710F8801B064B9842F5D944
:1012900003201BE100100240FFFFFEFFFFFFFBFFEA
:1012A0000070004088130000012D3AD02368DB064F
:1012B00010D56369012B3AD0053358D1884A536B56
:1012C00004218B435363536BF4318B43A169C900F1
:1012D0000B43536323689B0600D482E0804B5A681B
:1012E0000C2313400C2B60D07D4B5A680C23134009
:1012F000082B53D0236A002B60D0794A516B80238E
:101300005B020B435363FEF7CFFF0500744B5B6B2F
:10131000DB0366D4FEF7C8FF401B0228F6D9032082
:10132000D4E06F4AD3696F490B40D361BEE76C4B81
:101330005A6B04210A435A635A6B03390A435A63AE
:10134000FEF7B2FF0500664B5B6B9B0706D4FEF70A
:10135000ABFF401B0228F6D90320B7E060494B6B76
:10136000F8229343A269D20013434B63B2E75C4B6C
:101370005A6B04210A435A635A6B03398A435A63EE
:10138000FEF792FF0500564B5B6B9B07A2D5FEF75D
:101390008BFF401B0228F6D9032097E0504B5B6877
:1013A000C022520213409342A4D14D4B5B6BDB032E
:1013B00017D5236A012B14D0012087E0484A536BCC
:1013C00049490B405363FEF76FFF0500444B5B6BCD
:1013D000DB0306D5FEF768FF401B0228F6D9032081
:1013E00074E0636A002B00D174E03D4A51680C221E
:1013F0000A40082A4DD0022B12D0394A13683B49C3
:101400000B401360FEF750FF0400354B1B689B0137
:101410003DD5FEF749FF001B0228F6D9032055E011
:101420002F4A136831490B401360FEF73DFF05005A
:101430002B4B1B689B0106D5FEF736FF401B02288D
:10144000F6D9032042E0264BDA6A0F218A43216B4A
:101450000A43DA625A6826490A40E16AA06A0143EF
:101460000A435A601968802252040A431A60FEF740
:101470001BFF04001A4B1B689B0106D4FEF714FFE8
:10148000001B0228F6D9032020E000201EE00020E7
:101490001CE0012B20D0124B5A68D96AC0235B0292
:1014A0001340A06A834201D001200FE00F230B40BC
:1014B000216B8B4201D0012008E0F0239B031A40EE
:1014C000E36A9A420AD0012000E0012002B070BD18
:1014D0000120FBE70020F9E70120F7E70020F5E70E
:1014E00000100240FFFFFFEFFFFFFEFFFFFFFFFEC8
:1014F000FF7FC2FF30B589B004AA214B180032C863
:1015000032C2110002680A606A46103313CB13C25C
:101510001B6813601B4B5A680C231340082B08D020
:101520000C2B2AD0042B01D0174800E0174809B033
:1015300030BD910C0F23194004A8445C1149C96ABD
:101540000B406946C95CC0235B021A4080235B02E2
:101550009A4208D0C0235B029A4209D00A48FEF79B
:10156000D3FD6043E3E70948FEF7CEFD6043DEE7C5
:101570000748FEF7C9FD6043D9E70548D7E7C046ED
:10158000E03500080010024000127A000024F40048
:10159000006CDC0270B504000D00002800D189E069
:1015A000464B1A68012313408B420BD243490B6808
:1015B000012293432B430B600B681A40AA4201D0CF
:1015C000012078E023689A070ED55B0705D53C4AD1
:1015D0005168E023DB000B435360394A5368F02124
:1015E0008B43A1680B4353602368DB0735D56368E1
:1015F000012B09D0022B24D0032B28D0304A1268AB
:10160000920705D4012056E02D4A1268920353D563
:101610002B494A680320824313434B60FEF744FE84
:101620000600274B5B680C221A4063689B009A42B5
:1016300013D0FEF739FE801B224B9842F1D90320CC
:1016400039E01F4A12689201E2D4012033E01C4ABB
:10165000526BD203DCD401202DE0184B1A68012311
:101660001340AB420BD915490B68012293432B431E
:101670000B600B681A40AA4201D001201BE02368CE
:101680005B0706D50E4A53680F490B40E1680B43D0
:101690005360FFF72FFF0A4B5A6812090F231340BC
:1016A0000A4AD35CD8400A4B18600020FEF7B8FD08
:1016B000002000E0012070BD0120FCE70020024076
:1016C0000010024088130000FFF8FFFF3C360008BE
:1016D0000C00002030B5036A046A0125AC430462A3
:1016E0008469EF35AC43120122430A24A343194312
:1016F0008261016230BD000030B5036A1024A3434B
:1017000003628469036A054D2C4012032243A0241E
:10171000A343090119438261016230BDFF0FFFFF3E
:101720000B0081687022914319430723194381609C
:10173000704700003D23C35C012B01D0012070479E
:101740003C330222C25403680E4A93420CD08022DA
:10175000D205934208D00C4A934205D01A68012161
:101760000A431A600020EAE7996807220A40062A1D
:1017700005D01A6801210A431A600020DFE7002023
:10178000DDE7C046002C0140000400400368196AF0
:10179000074A114207D1196A064A114203D11A6851
:1017A00001218A431A603D230122C2540020704760
:1017B00011110000440400003D23C35C012B01D043
:1017C000012070473C330222C2540268D3680121D1
:1017D0000B43D36003680E4A93420CD08022D2059B
:1017E000934208D00B4A934205D01A6801210A435C
:1017F0001A600020E5E7996807220A40062A05D00A
:101800001A6801210A431A600020DAE70020D8E7AD
:10181000002C01400004004070477047704770473B
:1018200010B5040003681A6992070FD5DA689207A9
:101830000CD5032252421A610123037703689B6986
:101840009B0763D0FFF7E9FF0023237723681A691A
:10185000520712D5DA6852070FD5052252421A6193
:101860000223237723689A69C0239B001A4253D02E
:101870002000FFF7D2FF0023237723681A6912079D
:1018800010D5DA6812070DD5092252421A610423D5
:1018900023772368DB699B0745D02000FFF7BDFF56
:1018A0000023237723681A69D20612D5DA68D20694
:1018B0000FD5112252421A61082323772368DA696F
:1018C000C0239B001A4235D02000FFF7A6FF00235B
:1018D000237723681A69D20702D5DA68D20730D491
:1018E00023681A69120602D5DA68120630D4236812
:1018F0001A69520602D5DA68520630D423681A698A
:10190000920602D5DA68920630D410BDFFF784FF44
:101910002000FFF783FF97E72000FFF77DFF2000FF
:10192000FFF77CFFA7E72000FFF776FF2000FFF717
:1019300075FFB5E72000FFF76FFF2000FFF76EFF90
:10194000C5E7022252421A61200000F0E3FDC7E71A
:10195000812252421A61200000F037F9C7E7412284
:1019600052421A612000FFF75AFFC7E72122524274
:101970001A61200000F028F9C7E7000003681E4A3A
:10198000904206D08022D205904202D01B4A90425B
:1019900003D1702293434A681343174A90420FD0F1
:1019A0008022D20590420BD0144A904208D0144AAB
:1019B000904205D0134A904202D0134A904203D17C
:1019C000124A1340CA681343802293434A6913435F
:1019D00003608B68C3620B688362074B984205D033
:1019E000084B984202D0084B984201D10B6903631F
:1019F000012343617047C046002C014000040040B1
:101A0000002000400044014000480140FFFCFFFF6F
:101A100070B5041E26D03D23C35C002B1CD03D2591
:101A200002236355211D2068FFF7A8FF01234622EA
:101A3000A354083AA3540132A3540132A3540132EF
:101A4000A3540132A3540132A3540132A3540132EE
:101A5000A3546355002070BD3C330022C25401F0F2
:101A600061FCDCE70120F6E730B58468034D2C40CB
:101A70001B021A4311432143816030BDFF00FFFF69
:101A800010B504003C23C35C012B66D03C2301222B
:101A9000C25401330132C254026893683048034093
:101AA00093600B68402B4ED015D9602B41D021D9C3
:101AB000702B2BD080229201934232D1CB684A689E
:101AC00089682068FFF7D0FF226891688023DB01D6
:101AD0000B43936025E0102B07D004D9202B04D0B2
:101AE000302B02D01DE0002B1BD119002068FFF71E
:101AF00017FE16E0502B14D1CA6849682068FFF71A
:101B0000E9FD50212068FFF70BFE0AE0CB684A6828
:101B100089682068FFF7A8FF2268936877210B4344
:101B200093603D230122E254013B0022E254002055
:101B300010BDCA6849682068FFF7DEFD6021206893
:101B4000FFF7EEFDEDE7CA6849682068FFF7C2FDC0
:101B500040212068FFF7E4FDE3E70220E8E7C04604
:101B60008800FFFF30B53C23C35C012B25D03C230C
:101B70000122C25401330132C25403685A689C687E
:101B80007025AA430D682A435A6003680C4A9342A1
:101B900006D08022D205934202D00A4A934204D151
:101BA000802294434A6814439C603D230122C2541E
:101BB000013B0022C254002030BD0220FCE7C04699
:101BC000002C01400004004070477047054B1B7813
:101BD000002B04D0013B9B00034A9858704700201B
:101BE000FCE7C0463800002098000020034B1B781B
:101BF000002B02D0013B014A1370704738000020CF
:101C000010B50C4B18601961002304E0D45C0A483D
:101C1000C4540133DBB28B42F8D3084B064A054962
:101C20000748FEF7B5FC002802D0064B0B221A70BD
:101C3000012010BDA000002098000020B00100206D
:101C4000EC00002050000020024B1878434258411D
:101C5000C0B270473800002070470000034B1B786B
:101C600064209842804140427047C04650000020A6
:101C700000B585B0012303930290002301936946C8
:101C800001A8FFF769F8002801D105B000BD01F0F7
:101C9000D5FAFAE710B5FEF7B3FF002800D110BD62
:101CA00001F0CCFAFBE70200036801CB1360704738
:101CB00010B504000A00002301680220FEF7D8FFD7
:101CC000002803D123680433236010BD01F0B6FA65
:101CD000F8E710B5FEF77CFF002800D110BD01F039
:101CE000ADFAFBE710B504000C4B1968411AFA2352
:101CF0009B00994204D80A4A13680133136010BD4F
:101D0000074B1A6853019B1A9B009B18D800FEF7DB
:101D1000FBF9044B1880014B1C60F0E734000020F5
:101D20002C00002030000020014B18887047C0466E
:101D30003000002030B589B01422002103A801F042
:101D4000FFFB204B59698020C002014359615A6949
:101D500002400092009A59698020C00301435961F2
:101D60005A6902400192019A5A69802189020A4304
:101D70005A615B690B400293029B134D0022402184
:101D80002800FFF702F904230393104B0493002467
:101D90000594902003A9C005FFF730F84023039372
:101DA0003F3B04930594069403A92800FFF726F807
:101DB000002200210620FEF765FE0620FEF794FEB5
:101DC00009B030BD0010024000040048000031108E
:101DD00010B50B480B4B03600C234360002383605A
:101DE000C360C02212030261802252034261037663
:101DF00043768376C37603774377FEF76DFA10BD9B
:101E0000EC0000200064004010B50748074B036059
:101E10002F23436000238360054AC260036183610E
:101E2000FFF7F6FD10BDC046D001002000200040A5
:101E3000FFFF000030B587B01022002102A801F09A
:101E40007FFB08220021684601F07AFB0F4C104B03
:101E50002360E023FF3363600025A560D73BFF3B91
:101E6000E3602561A5612000FFF7D2FD80235B01BF
:101E7000029302A92000FFF703FE00950195694631
:101E80002000FFF76FFE07B030BDC04618010020EC
:101E90000004004010B592B02C22002107A801F0E8
:101EA0004FFB1022002101A801F04AFB01230593FA
:101EB000069302240E9480235B020F938023DB029F
:101EC000109305A8FFF776F80723019302940023E7
:101ED00003930493012101A8FFF75CFB12B010BD2E
:101EE000002A05D101228A4003789343037070478A
:101EF00001228A40037813430370F8E720235B42F2
:101F0000D31804D4D9400800012108407047202389
:101F10009B1A9940D0400843F6E7072318407047C2
:101F2000C0080923181AC0B2014BC0187047C04638
:101F30009401002070B50400FFF7F2FF05002000B7
:101F4000FFF7EBFF2B7803410120184070BD70B5FF
:101F500005000E00FFF7E4FF04002800FFF7DDFF97
:101F6000002E05D10122824023789343237070BD57
:101F700001228240237813432370F8E7F0B583B041
:101F800001900E00170000240CE0A519EDB222000C
:101F900001980021FFF7B2FF01002800FFF7D7FFEB
:101FA0000134E4B2BC42F0D303B0F0BD10B580B24E
:101FB00002220B21FFF7E2FF10BD10B580B2012213
:101FC0000121FFF7DBFF10BD10B580B2022209210D
:101FD000FFF7D4FF10BD000070B506000D0014001F
:101FE000FEF762F91C4B1B6898422CD91B4B1B78DF
:101FF000A3421BD2FEF758F9194B1B68C01AB04216
:1020000028D9184B1A7851424A41D2B21A70002A84
:1020100003D112490B7801330B7040211248FEF7AF
:10202000B4FFFEF741F90E4B186013E0FEF73CF9E0
:102030000B4B1B68C01AA8420CD90023074A137027
:10204000074A136006E0074B1B78002B02D1054BB3
:1020500001221A7070BDC0463C00002069000020BB
:102060005C0000205800002000040048002304E029
:10207000034A0021D1540133DBB2092BF8D9704750
:102080009401002010B50C4900224A6101238B61A4
:10209000CB614001086048608860C8600A610B62DB
:1020A0000D334B620548FEF7BEF9002802D0044B01
:1020B00098221A7010BDC046B8000020EC00002025
:1020C00050000020044B5868044B9C466044434237
:1020D0005841C0B27047C0466001002088A9CBEDCE
:1020E00070B5FFF7BBFD002800D070BDFFF7B4FD51
:1020F0001D4B1C68250E1D4B1D70FFF7E3FF0028CC
:1021000001D0072D09D9194B00221A702402240A84
:10211000154B1C60164B01321A70144B1B785B0078
:10212000144A985AFFF7AEFFFFF798FD0028DCD15C
:102130001148FEF7FEF9002803D0104B82221A70D6
:10214000D3E703210C48FEF746FB002807D10C4BD0
:1021500001225A600022DA609A601A75C5E7074BBF
:1021600083221A70C1E7C0466001002040000020B1
:10217000520000201C360008EC0000205000002017
:10218000A000002010B580B201223321FFF7F6FE37
:1021900010BD10B580B201222E21FFF7EFFE10BD59
:1021A00010B580B201222F21FFF7E8FE10BD10B557
:1021B00080B201223021FFF7E1FE10BD10B580B2E0
:1021C00002222C21FFF7DAFE10BD000010B582B00C
:1021D000FFF744FD002803D10F4B1B78002B01D1E2
:1021E00002B010BD0D4B0E4A5A60FFF772FD0D4C48
:1021F0002000FFF73DFD0194002407E0A200074BFB
:10220000D15801A8FFF754FD0134E4B2012CF5D9EF
:10221000FFF740FDE4E7C0465200002060010020C7
:1022200078563412007C000810B5424B1B685A1CCB
:102230003FD0002B3ED03F4B1B68002B39D03E4B8C
:102240001B78002B00D169E03C4A13780133DBB2E4
:102250001370082B57D03A4A13780133DBB213704E
:10226000082B57D037490B681B021B0A344C2278C5
:10227000120613430B60344B01221A70FFF7A6FFBE
:1022800023785B00314A985AFFF7FCFE294B002265
:102290001A60013240212E48FEF777FEFEF704F85F
:1022A00096239B009C4660442A4B1860224B0022D8
:1022B0001A7010BDFDF7F8FF0400274B1868274B74
:1022C0001B68C018264B1B68C018264B1B68C0181B
:1022D0002549FDF79FFFC8318C42ACD9FDF7E4FFDB
:1022E000144B1860214A22231370154B1B785B0096
:1022F0001649585A0121FFF783FC00289BD11C4B3B
:1023000007221A7097E71A4B72221A70094B733A18
:102310001A60CBE7130000221A70A3E7FDF7C4FF91
:10232000044B1B68C01A6428C3D9024B01225242D5
:102330001A60BEE74C000020480000204100002049
:102340004000002060010020520000201C360008E0
:10235000000400483C000020ACF7FF1FB0F7FF1F4F
:10236000B4F7FF1FB8F7FF1F0326000098000020F6
:102370005000002010B507490B681B021B0A064AD3
:102380001278120613430B60044B01221A70FFF7F8
:102390001DFF10BD60010020400000205200002001
:1023A00010B582B0074B0193002407E001A8FFF7A6
:1023B0007AFCA200044BD0500134E4B2012CF5D9D0
:1023C00002B010BD007C00086001002010B580B292
:1023D00008222421FFF7D2FD10BD10B580B20322E0
:1023E0003021FFF7CBFD10BD10B580B2072233219D
:1023F000FFF7C4FD10BD000010B5074B074A0021D0
:10240000FEF748F9002802D0054B5A221A70054BF6
:1024100001221A7010BDC046C00100201C0200201D
:10242000500000206800002010B5042800D010BD26
:102430002F4B1B68596A2F4A91421BD82E4A12789B
:10244000D2B2082AF3D82C4C2278596A93002B4A2E
:1024500099508C300421C005FEF790FD2378DBB243
:10246000421E9041C0B2264AD05423780133DBB2D9
:102470002370DCE7234A1278002A03D0224A12781C
:10248000002A20D05A6A92B220490888121A94B2BF
:102490005B6A0B8090200421C005FEF76FFD0028C9
:1024A00021D0184B01221A70194A13685B0013607F
:1024B0004B2C03D801221343154A1360124A137898
:1024C00001331370B3E790200421C005FEF756FDD9
:1024D0000028ACD1064B1B685A6A0C4B1A80094B7A
:1024E00000221A70A3E7074B00221A709FE7C0462C
:1024F000D0010020F3380000680100206C010020AA
:10250000A001002014010020AA010020E00000200A
:10251000E400002010B50B4B01221A7002680A4B30
:102520001B689A4200D010BD902001220421C005F2
:10253000FEF72BFD0448FFF729F9044B01221A701E
:10254000F1E7C0466A000020180100206B0000205F
:1025500010B586B01422002101A800F0F1FF9024EC
:10256000E405012204212000FEF70FFD042301935E
:102570000D33029300230393049301A92000FEF777
:102580003DFC0620FEF7BCFA06B010BD10B580B2C7
:1025900003224321FFF7F2FC10BD000070B50500D7
:1025A000002419E0E200121BD2180133A95C0F4A83
:1025B000D154DBB2062BF5D90D4B1B785B000D4ACD
:1025C000985A0A4A0821FFF71BFB002802D10A4B40
:1025D0004D221A700134E4B2032C05D823001C33B9
:1025E000024A13700023E5E770BDC0469800002042
:1025F000400000202C3600085000002010B580B2AA
:1026000003223A21FFF7BAFC10BD10B580B20122B7
:102610003121FFF7B3FC10BD10B580B203223D217C
:10262000FFF7ACFC10BD10B580B202224021FFF7CD
:10263000A5FC10BD10B580B202220621FFF79EFC5A
:1026400010BD10B580B202220421FFF797FC10BD27
:1026500010B580B204224321FFF790FC10BD0000AA
:1026600010B50C000D4B00221A700A21FDF74CFD2D
:1026700080B201380A4BD862002C07D00948FFF716
:102680009BF8064B1B78002BFBD010BD902000223E
:102690000421C005FEF779FCF0E7C0466B0000207E
:1026A000000400401801002010B500216420FFF74D
:1026B000D7FF01213220FFF7D3FF10BD10B5002155
:1026C0003220FFF7CDFF01216420FFF7C9FF10BDC5
:1026D00010B5013840B203E0FFF7E6FF013C60B2FD
:1026E000002808DBC4B22000FFF724FC0028F3D048
:1026F000FFF7E4FFF2E710BD70B505000021FA20F6
:10270000FFF7AEFF01213220FFF7AAFF042403E008
:10271000FFF7CAFF013C64B2002C06DB2B0023410B
:10272000DB07F5D5FFF7CAFFF4E770BDF0B5C64685
:1027300000B505008846FFF799FC344C2000FEF7F1
:10274000F9FF236800225A622800FFF7D5FF002610
:1027500000240BE02D4B1B685F6A7D1B4346013B49
:102760009E4222D14B2D3AD90136F6B246453FD290
:10277000002C3DD1254B1B685D6A90200421C005CB
:10278000FEF7FCFB002805D0204B1B685B6A5B1B37
:10279000042BDFD8002CDDD11C4B1B685B6A5B1B54
:1027A000C82BEAD97400E4B2E7E790200421C00501
:1027B000FEF7E4FB012805D0144B1B685B6ADB1BAA
:1027C000042BCFD8002CCDD1104B1B685B6ADB1BD0
:1027D000C82BEAD97400E4B20134E4B2E5E7434619
:1027E000981BC0B20138C0B20121FFF7B0FBBBE7B4
:1027F0000648FEF7CBFF064B01221A70002C02D0D0
:10280000044BEF321A7004BC9046F0BDD00100209A
:10281000610000205000002010B580B2012232215A
:10282000FFF7ACFB10BD10B500216420FFF718FFC7
:1028300010BD10B580B202220021FFF79FFB10BD32
:1028400010B50A2803D9074B82221A7010BD0A233B
:102850001B1ADB00DBB288B203221900FFF78EFBE4
:10286000F4E7C0465000002010B50A2803D9074BF2
:1028700083221A7010BD1F30C0004B231B1ADBB21D
:1028800088B205221900FFF779FBF3E7500000201A
:1028900010B580B204222021FFF770FB10BD10B5E7
:1028A00080B203224721FFF769FB10BD10B580B24B
:1028B00003224621FFF762FB10BDF8B504000D00AE
:1028C0001F0052B203E0FFF7EFFE013E72B2BA42C0
:1028D0000ADBD6B2320020002900FFF70FFB0028E8
:1028E000F1D0FFF7EBFEF0E7F8BD000070B582B065
:1028F00049210A20FFF71AFF464B1B78002B02D014
:10290000444B97221A700120FDF7D4FC0020FFF7FA
:10291000CDFF0320FFF752FC0320FFF747FB002009
:10292000FFF74BFB0320FFF74FFB0220FFF782FE70
:102930000320FFF786FE0020FFF724FC0020FFF7AE
:102940002FFC0120FFF725FC0120FFF730FC0120C0
:10295000FFF75BFE0020FFF75FFF0220FFF716FE88
:102960000320FFF766FF6420FDF7A4FC6B460022FE
:10297000DA710024002607E0472C03D0482C15D03C
:102980000B2D1CD00134E4B2482C27D80C21200098
:10299000FDF740FCCDB2002D00D100262000FFF74E
:1029A000C9FA0028E8D00136F6B2E5E7F307E9D521
:1029B000012200216B46D81DFFF792FAE2E7F307E8
:1029C000E0D50C212000FDF79FFB0521091AC9B2B3
:1029D00001226B46D81DFFF783FAD3E73220FDF7BB
:1029E00069FC0920FFF788FE4920FFF771FE6B465E
:1029F000D879002305220021FFF75FFF0120FDF7B2
:102A000059FC49210A20FFF791FE0120FDF752FCF5
:102A100002B070BD5000002070B582B0502103207C
:102A2000FFF784FE524B1B78002B02D0504B9D22A7
:102A30001A700120FDF73EFC1F210120FFF714FF53
:102A400001210120FFF7FCFE1F210220FFF70CFFF0
:102A50001F210220FFF7F4FE1F210320FFF704FFD0
:102A60001F210320FFF7ECFE14210420FFF7FCFEDA
:102A700014210420FFF7E4FE14210520FFF7F4FEE3
:102A800014210520FFF7DCFE0F210620FFF7ECFEE6
:102A90000F210620FFF7D4FE0F210720FFF7E4FEE9
:102AA0000F210720FFF7CCFE0F210820FFF7DCFEE7
:102AB0000F210820FFF7C4FE0A210920FFF7D4FEEA
:102AC0000A210920FFF7BCFE0A210A20FFF7CCFEED
:102AD0000A210A20FFF7B4FE6420FDF7EBFB6B46EA
:102AE0000022DA71234B1A6800929B886A46938011
:102AF00000240026002505E06B469B5DA3420BD019
:102B00000134E4B2482C16D82000FFF713FA00284D
:102B1000F2D00135EDB2EFE7EB0703D40136F6B2A0
:102B20000025EDE70521891BC9B201226B46D81D9E
:102B3000FFF7D6F9F2E73220FDF7BCFB0020FFF7E4
:102B4000DBFD5020FFF7C4FD6B46D879002305223A
:102B50000021FFF7B2FE0120FDF7ACFB502103205E
:102B6000FFF7E4FD0120FDF7A5FB02B070BDC046F4
:102B7000500000200036000810B580B204222C213D
:102B8000FFF7FCF910BD000070B505002D4B1B7858
:102B9000002B39D070BD9C20FFF718FC0120FFF7F7
:102BA000EBFF0620FFF719FC0920FFF71DFC0720AB
:102BB000FFF732FD0420FFF721FD0120FFF733FD71
:102BC0000620FFF765FE0020FFF769FE0E20FFF7E5
:102BD0003FFD6420FDF76EFB1420FFF78DFD4A20BA
:102BE000FFF776FD0120FDF765FB4A211720FFF76F
:102BF0009DFD144B1B78002B14D0124B98221A7099
:102C0000104B1B78002BC5D00E4C002323704A219B
:102C10001B20FFF78BFD2378002BBCD0094B96229D
:102C20001A70EDE70120FDF745FB002DE8D01820D4
:102C3000FFF762FD1E20FDF73DFB4A211B20FFF739
:102C400075FDDDE75000002010B50A4C2000FEF7AE
:102C5000B3FD6420FDF72EFB2000FEF797FD012059
:102C6000FDF728FB0020FFF78FFFFFF73FFEFFF780
:102C7000D3FE10BD1801002070B586B0FDF7F8FA3C
:102C8000FFF708F9FFF756F8FFF7A2F8FFF7BCF8CF
:102C9000FFF7D0F8FFF784FBFFF722FAFFF796FA69
:102CA000FFF756FCC54B01221A70FFF7CDFFF2E08B
:102CB000122C00D1D9E111D8102C00D171E1112CC6
:102CC00000D000E1BE4B01221A70BE4B023A1A80BE
:102CD0000023BD4A1360BD4A136023E0142C00D1C9
:102CE000A6E1192C00D0EEE0B94A1A231370193B63
:102CF000537000239370B74B1B785B00B649585A4A
:102D00000321FEF77DFF00280CD1B44B25221A7059
:102D100008E0222C00D1EAE0232C00D0D3E0B04B15
:102D200001221A70AF4B00221A70AF4B1B69022BA5
:102D30000CD9AE4B1B88102B01D0142B06D1AC4AFA
:102D40005378927812021343AA4A1380FEF786FF43
:102D500000280FD1994B1B78002B03D1984B1B787F
:102D6000002B07D0FDF7A0FA984B1B68C01A282843
:102D700000D9BAE1FEF772FF002864D18F4B1B78AF
:102D8000002B03D18E4B1B78002B5CD0FDF78CFA07
:102D90008D4B1B68C01A974B1B88984253D9964B92
:102DA0001B68002B4FD0864B00221A70934B1A6879
:102DB000520901231340924A137000D1B8E1002454
:102DC000FEF74CFF00283ED17E4B00229B5E9C42CA
:102DD00039D08C4B1B78132B02D0804B14221A70E5
:102DE000864B1B6803221A4087490A709908012202
:102DF0000A4051424A4185490A70D90801220A40D5
:102E000083490A7099093F220A4082490A701B0BC4
:102E1000814A13706E4A132313705470230A9370FF
:102E20006C4B1B785B006C49585A0321FEF7E8FE97
:102E3000002802D1694B08221A70FDF735FA624B5F
:102E40001860604B1C80FFF7EFF9644B1B78734AE6
:102E50001278934206D0002B00D06DE15F4B1A78B8
:102E60006E4B1A70FDF720FA6D4B1B68984200D02C
:102E700075E15A4B1B78002B00D19FE1632B00D9E1
:102E8000A3E1FA21022289000A20FFF7A5F8FDF745
:102E90000BFAFEF727FF534B1B78002B00D155E7A9
:102EA000534B1C78514B1C801B2C77D000D8FFE66D
:102EB000242C00D136E700D82BE7402C49D0FF2C3A
:102EC0005AD0302C2BD0454B27221A7001AA554BD3
:102ED000083323CB23C210000822002100F030FB6E
:102EE00010226946200000F027FB0023C7E04E4B6C
:102EF0001B68013B033300D814E7354A23231370C2
:102F0000344B1B785B004949585A0121FEF778FE83
:102F1000002800D006E7314B07221A7002E72C4C3C
:102F200031232370FEF700FF6070FEF7FDFE000AFC
:102F3000A070284B1B785B00274A985A2200032177
:102F4000FEF75EFE002800D0ECE6244B25221A7026
:102F5000E8E6274B5B78082B03D9204B32221A7006
:102F6000E0E61C4C2370FFF705FA23785B002F4A3C
:102F7000985AFFF787F8D5E6154AFF231370154BCB
:102F80001B785B001449585A0121FEF739FE0028CE
:102F900000D0C7E6114B07221A70C3E6FDF7C0FD4B
:102FA000C0E6064B01221A70064B023A1A80002333
:102FB000054A1360054A1360B4E6C046600000206D
:102FC0006100002008000020640000205400002060
:102FD00098000020400000202C36000850000020FF
:102FE00048000020680000201C0200204200002051
:102FF000C00100200A00002038020020C801002083
:10300000E8000020E3000020AB010020AC0100201C
:10301000CC010020E2000020180200205100002016
:1030200044000020003600084C0000201C36000838
:10303000694B01221A70694B023A1A800023684AD0
:103040001360684A1360684A41331370674B1B78FA
:103050005B006749585A0121FEF7D2FD002800D0D5
:1030600060E6644B39221A705CE65B4B00221A70F2
:1030700058E65A1C6946C95C01AB9954D3B2022B7D
:10308000F7D901A8FFF78AFA4CE69A005A49505836
:103090005A4950505A4AD25CD2B25A49CA540133A2
:1030A000DBB2092BF1D9584D584B2A681A60584E9B
:1030B0003278584B1A70FFF7B6FB0620FDF714FD67
:1030C0000123554A137000243470544A13702C6045
:1030D000534D2800FEF72EFB2B685C62514B1C7091
:1030E000FDF7E2F83F4B186044E60023D9E79B0068
:1030F00042495B589B1A9A00D2181301D2189000CB
:10310000FA21C900FDF700F884B259E60133DBB2B9
:10311000092B0FD8002AEAD13A49C95C0029F5D019
:103120009A003649525840498A42EFD9002447E66E
:103130000022EDE7002443E62B4AEE211170537084
:103140002A4B1B785B002A49585A0221FEF758FD8A
:10315000002800D082E6274B0A221A707EE6FEF78E
:1031600073FD002800D084E6FEF730FD03682F4C85
:103170002360FEF72BFD03792361002407E0FEF7AF
:1031800025FD00194279184B1A550134E4B2274B3A
:103190001B699C42F3D3264B134A24492548FDF76B
:1031A000F7F9002807D0134B0B221A70FDF77CF8B3
:1031B000214B18605DE6FEF719FDF7E7FA210122C1
:1031C00089000A20FEF708FF61E6FA210322890040
:1031D0000A20FEF701FF5AE66000002008000020E8
:1031E00064000020540000209800002040000020CF
:1031F0002C360008500000206C010020380200200E
:10320000A0010020B4010020E4000020C80100203B
:10321000AA010020E30000206C000020140100201F
:10322000D001002068010020DC050000A000002083
:10323000B0010020EC000020440000207047000096
:1032400082B00C4B996901221143996199690A4036
:103250000092009ADA69802149050A43DA61DB6944
:103260000B400193019B044A136810210B43136028
:1032700002B07047001002400000014070B588B0F5
:1032800004001422002103A800F05AF92268224BFE
:103290009A4201D008B070BD204BD96980208004CB
:1032A0000143D961DA6902400092009A596980208D
:1032B000C002014359615A6902400192019A5A6958
:1032C000802189020A435A615B690B400293029B89
:1032D00080235B00039302260496032506950424AD
:1032E000079403A90E48FDF789FD80235B01039332
:1032F00004960023059306950794902003A9C00522
:10330000FDF77CFD002200211E20FDF7BBFB1E20E7
:10331000FDF7EAFBBEE7C046006400400010024033
:103320000004004800B583B00368164A934204D0F5
:10333000154A934213D003B000BD144AD169022349
:103340001943D161D26913400093009B00220021F0
:103350001020FDF797FB1020FDF7C6FBEBE70B4AAB
:10336000D169802040000143D161D36903400193BA
:10337000019B00220021ED38FDF784FB1320FDF7AF
:10338000B3FBD8E7000400400020004000100240DA
:103390007047FEE77047704710B5FCF779FF10BD26
:1033A00010B50420FDF7F8FD10BD000010B502486F
:1033B000FEF736FA10BDC0461801002010B50248CD
:1033C000FEF72EFA10BDC046D001002010B502480D
:1033D000FDF720FA10BDC046EC000020114B1A6822
:1033E00001210A431A605A680F4802405A601A685D
:1033F0000E4802401A601A680D4802401A605A6866
:103400000C4802405A60DA6A0F208243DA621A6B73
:10341000094802401A635A6B8A435A6300229A6031
:103420007047C046001002400CB8FF08FFFFF6FED0
:10343000FFFFFBFFFFFFC0FF2CFEFFFF1348854689
:1034400013480168090E134A914205D112481349E5
:10345000016013481349016013481449144A0023BA
:1034600002E0D458C4500433C4188C42F9D3114A32
:10347000114C002301E013600432A242FBD3FFF79A
:10348000ADFF00F01DF8FFF7F7FBFEE7FF17002088
:10349000040000001F00000018100240010000009E
:1034A000000001400000000000000020100000208B
:1034B0007C3600081000002060020020FEE70000BB
:1034C00070B500260C4D0D4C641BA410A64209D10A
:1034D000002600F079F80A4D0A4C641BA410A6429D
:1034E00005D170BDB300EB5898470136EEE7B30045
:1034F000EB5898470136F2E7743600087436000836
:103500007436000878360008931E10B50C00222B84
:1035100004D900231C000B70200010BD0A2A09D119
:10352000002807DA2D230B7001214042611800F0BA
:103530000FF8F1E70021F9E710B5FFF7E5FF10BD3F
:1035400003001218934200D1704719700133F9E754
:10355000F0B517008DB0252206000D0002A8144911
:1035600000F028F802AABB1E00240192222B05D9E4
:103570002C70250028000DB0F0BD1400300039007B
:10358000FCF748FE84460198621CAB18415C5E1E45
:1035900031706646002EF0D11E702B005A1B9442EB
:1035A000E8DD1A78295D19702A550133013CF5E7E9
:1035B0004C360008002310B59A4200D110BDCC5CF7
:1035C000C4540133F8E70000F8B5C046F8BC08BCA5
:1035D0009E467047F8B5C046F8BC08BC9E4670478A
:1035E00002030405060708090A0B0C0D0E0F101044
:1035F0000102030405060708090A0B0C0D0E0F1043
:103600000C192633414F0000436F6D6D616E643AB3
:1036100020307800000000000000000070037203FA
:103620007403760378037A037C037E0371037303C8
:103630007503770379037B037D037F03000000009C
:10364000000000000102030406070809303132338C
:103650003435363738396162636465666768696A2C
:103660006B6C6D6E6F707172737475767778797A32
:043670000000000056
:04367400E900000861
:04367800C100000885
:10367C000100000004000000FFFF5A0000127A0055
:040000050800343D7E
:00000001FF
