:020000040800F2
:10000000FF170020B9420008194200081B420008EF
:1000100000000000000000000000000000000000E0
:100020000000000000000000000000001D42000869
:1000300000000000000000001F42000821420008EC
:1000400039430008394300083943000839430008A0
:100050003943000839430008394300083943000890
:100060003943000829420008394300083943000891
:100070003942000839430008394300083943000871
:100080003943000800000000000000003943000868
:1000900000000000394300083943000839430008D4
:1000A00000000000394300083943000839430008C4
:1000B00039430008000000004942000839430008A5
:1000C00010B5064C2378002B07D1054B002B02D02E
:1000D000044800E000BF0123237010BD3800002059
:1000E0000000000044440008044B10B5002B03D06E
:1000F0000349044800E000BF10BDC04600000000F6
:100100003C0000204444000803B471464908400004
:100110004900095A49008E4403BC70470022430835
:100120008B4274D303098B425FD3030A8B4244D3BF
:10013000030B8B4228D3030C8B420DD3FF22090201
:1001400012BA030C8B4202D31212090265D0030BC0
:100150008B4219D300E0090AC30B8B4201D3CB03B6
:10016000C01A5241830B8B4201D38B03C01A5241F8
:10017000430B8B4201D34B03C01A5241030B8B42FA
:1001800001D30B03C01A5241C30A8B4201D3CB02E5
:10019000C01A5241830A8B4201D38B02C01A5241CA
:1001A000430A8B4201D34B02C01A5241030A8B42CD
:1001B00001D30B02C01A5241CDD2C3098B4201D3E5
:1001C000CB01C01A524183098B4201D38B01C01A63
:1001D000524143098B4201D34B01C01A52410309DA
:1001E0008B4201D30B01C01A5241C3088B4201D389
:1001F000CB00C01A524183088B4201D38B00C01A36
:10020000524143088B4201D34B00C01A5241411A5C
:1002100000D20146524110467047FFE701B5002069
:1002200000F006F802BDC0460029F7D076E7704717
:100230007047C046D0400B1CD1409C46203AD3406A
:100240001843524263469340184370478446081C43
:100250006146FFE71FB500F0D3F9002801D4002163
:10026000C8421FBD10B500F055F94042013010BD25
:1002700010B500F0C5F9002801DB002010BD0120F9
:1002800010BDC04610B500F0BBF9002801DD00200C
:1002900010BD012010BDC04610B500F063F9002864
:1002A00001DC002010BD012010BDC04610B500F0DB
:1002B00059F9002801DA002010BD012010BDC04608
:1002C0009E2110B5C905041CFFF7F0FF002803D1DB
:1002D000201C00F0A9FB10BD9E21201CC90500F0C8
:1002E000DFF900F0A1FB80231B069C466044F2E787
:1002F000F8B557464E464546DE464402E0B5460050
:100300008846640A360EC70F002E63D0FF2E24D015
:100310008023E400DB041C43002399469B467F3E78
:10032000434642465D02D20F5B006D0A1B0E9046AB
:10033000924665D0FF2B55D080220021ED00D204DB
:100340007F3B1543F61A43464A467B400F2A00D9A5
:100350008DE06D48920082589746002C54D10823B6
:100360009946063BFF269B46DAE7002553460229BD
:100370001BD0032900D1BFE0012928D030007F30F5
:10038000002820DD6A0704D00F222A40042A00D06A
:1003900004352A0103D530005C4A80301540FE2820
:1003A00003DCAC01640AC2B201E0FF220024640253
:1003B000D205600ADB07104318433CBC90469946BF
:1003C000A246AB46F8BD0122101A1B287CDD002294
:1003D0000024ECE7002C1DD104239946033B0026A2
:1003E0009B469DE7FF3E002D20D1022143464A4611
:1003F0007B400A430F2AD8D8454892008258974636
:10040000002D19D10121F1E70C239946093BFF2664
:100410009B4685E7200000F071FB7626431F9C4039
:1004200000237642361A99469B4679E74A460323CB
:100430001A439146032186E7280000F05FFB431F23
:1004400036189D40763600217DE780240023E403A2
:10045000FF22ACE700258023DB031C4228D01D428D
:1004600026D12B435C02640A4346FF229FE76201C8
:100470006C01A24224D21B210025013E012710005D
:100480006D005200002801DB944201D8121B3D434D
:1004900001390029F3D11400621E944125436DE710
:1004A000BA46594625005346022900D061E77CE749
:1004B0008023DB031C436402640A3B00FF2276E7CF
:1004C000121B1A210125D9E79E362A00B5402C00BF
:1004D000C240651EAC411443620704D00F22224083
:1004E000042A00D00434620103D4A401640A002267
:1004F0005DE7012200245AE78024E4032C436402D0
:10050000640AFF2253E7C04690440008FFFFFFF74C
:10051000D044000870B542004E024C0045026D0AFE
:10052000120EC30F760A240EC90FFF2A0FD0FF2C1C
:1005300011D00120A24200D070BDB542FCD18B4247
:100540000DD0002AF8D12800451EA841F4E701206B
:10055000002DF1D1EBE70120002EEDD1E9E70020DD
:10056000EAE7C04670B54A004E02450244006D0AF3
:10057000240EC30F760A120EC90FFF2C15D0FF2AC6
:100580000ED0002C15D1002A01D1002E1CD0002D38
:1005900014D08B4227D00220013B1840013870BD97
:1005A000002EEED002204042F9E7002DFAD1FF2ABA
:1005B0000ED0002A0ED1002EEDD00BE00123013920
:1005C000994308000130EAE70020002DE7D0E2E778
:1005D000002EE7D18B42DED1944205DD0221581E68
:1005E00008400138DBE70024A24204DCB542D2D83F
:1005F0000020B542D3D2581E012398430130CEE7E4
:1006000030B5420044024D02C30F4800640A120E86
:100610006D0A000EC90FFF2A12D0FF280CD0002A45
:1006200012D1002819D1002D17D1002C2BD0022077
:10063000013B1840013826E0002DF0D0022022E0D6
:10064000002CFBD1FF281FD000281FD1002D1DD169
:100650000220013B1840013815E0002C0ED08B42DF
:10066000E5D10022904204DCAC42E0D80020AC424C
:1006700009D2581E01239843013004E001230139B7
:1006800099430800013030BD002DD7D18B42CED127
:100690008242E7DD0221581E08400138F3E7C046D8
:1006A000F8B54746CE464400C20F80B5470248021F
:1006B000400A8446664648007F0A240EF60025005C
:1006C0009046FB00000EC90FB146FF2800D185E01F
:1006D00001267140261A914257D0002E43DD002892
:1006E00000D07FE04946002900D1AAE0013E002E5B
:1006F00000D0F7E05B1A5A0100D48BE09B019C0903
:10070000200000F0FBF905388440854200DDD3E08D
:10071000451B230020200135EB40451BAC40621EE9
:1007200094412343072400251C40012241460A40EE
:10073000002C04D00F211940042900D004335901A2
:1007400000D480E00135ECB2FF2D00D0A3E0FF24FF
:1007500000235B02E405580AD207204310430CBC77
:1007600090469946F8BD002E74D1601CC0B2012895
:1007700000DCA7E04A469C1A620100D5B6E0002CD6
:10078000BED1002200240023E3E7002E00DC85E038
:10079000002846D0FF2C49D080224846D20410437E
:1007A000814601221B2E09DC20204C46801B844000
:1007B0004A462000F240441EA04102439B185A01C1
:1007C00028D50135FF2D00D1A8E001220724944946
:1007D0001A405B080B4013431C40A6E7002E00D0D4
:1007E00078E775E7FF2C54D080224946D2041143A4
:1007F000894601221B2E09DC20214846891B88409E
:100800004A460100F240481E81410A439B1A5A01A0
:1008100000D573E7012241460A40590700D089E715
:1008200011E04846002858D1FF2C0CD1DB08002BE2
:1008300000D18CE78020C00303435B025B0AFF24E6
:1008400087E7FF2C25D0DB08FF2DF0D05B025B0A89
:10085000ECB27EE7002C4DD0FF2818D08024E404B1
:10086000724223431B2A00DDC4E01C002025D44033
:10087000AA1A93405A1E934123434A460500D31AAD
:10088000884638E7721CF8D0F243FF28EAD10A0004
:100890004B46FF25D7E79B015B0A5AE7002E41D163
:1008A000651CE9B2012945DDFF2D00D14FE7072482
:1008B0004B445B081C4038E707225A4B2D1A234053
:1008C000144032E7002C1DD1002B7AD14B46002B6F
:1008D00000D191E00A000025B5E7013E002E19D1B4
:1008E0004B446CE7FF2C84D1FF25ACE74A46884691
:1008F000D41A05E7002BC5D10A00FF28C8D005008F
:100900004B46A0E7002B49D14B46002B77D00A007D
:10091000FF2598E7FF2C00D043E787E70A00FF2474
:10092000002316E7002C15D1002B57D1FF28E6D164
:100930004B467BE7002C20D1002B57D0494600299D
:1009400053D04B445A0168D50724364A1C40012530
:100950001340EAE6FF28EBD08022D204764213430C
:100960001B2E53DC2025AD1B1A00AB40F2405C1E51
:10097000A34113434B44050021E7002BD8D049463F
:10098000002900D152E78021C9030F4200D14DE771
:100990006046084200D049E74B4647E74846FF25F6
:1009A000002800D14FE78022D203174204D06046CE
:1009B000104201D14B46884601224146FF250A409C
:1009C00041E7484600281FD01A1A500120D54A4650
:1009D0000724D31A1C4088460025A6E6741CC9D0FB
:1009E000F643FF28BCD14B4620E799464B460025ED
:1009F000DB082BE7012340E700220023A9E6802340
:100A00000022DB03FF24A4E600251CE70123B1E755
:100A1000002AF1D013000025FCE60025FAE6C046C6
:100A2000FFFFFF7DFFFFFFFB41024200C30F490AAA
:100A3000120E00207E2A0DD99D2A0CD88020000499
:100A40000143952A0ADC9620821AD1404842002BA5
:100A500000D108007047034A9818FBE7963A914086
:100A6000F4E7C046FFFFFF7F70B500283DD0C317F5
:100A7000C5185D40C40F280000F040F89E22121AED
:100A8000962A07DCD2B2082833DD08388540680290
:100A9000400A23E0992A0BDD052329001B1AD940BF
:100AA00003001B339D402B005D1EAB4119430D001D
:100AB000052801DD431F9D402B000F490B406E07A9
:100AC00009D00F263540042D05D004335D0102D531
:100AD0009F220B40121A9B01580AD2B24002D20543
:100AE000400AE4071043204370BD00240022002088
:100AF000F4E76802400AF1E7FFFFFFFB1C21012336
:100B00001B04984201D3000C10391B0A984201D3F0
:100B1000000A08391B09984201D30009043902A2CE
:100B2000105C40187047C046040302020101010135
:100B3000000000000000000070B50500FA200D4B19
:100B400080001978FFF7EAFA0B4B01001868FFF7ED
:100B5000E5FA00F02DFE04000120002C09D1032D40
:100B600007D802382200290000F0DEFD2000034BE8
:100B70001D6070BD00000020340000200400002033
:100B80001023064A10B5116800200B431360FFF7CD
:100B9000D3FF03F037FA002010BDC046002002400A
:100BA000034A044B11681B785B1813607047C046FA
:100BB000A800002000000020014B18687047C046C4
:100BC000A800002070B50400FFF7F6FF0500631CC5
:100BD00002D0044B1B78E418FFF7EEFF401BA04245
:100BE000FAD370BD00000020002373B503210193E8
:100BF000036804009A680A40012A07D11968114263
:100C000001D0002076BDDA681204FAD49968194A36
:100C1000114208D010230120A26B1343A363E36B9E
:100C20000343E363EEE7012299680A439A60124B9B
:100C300012491868FFF772FA0190019B002B15D139
:100C4000FFF7BAFF0125060023681B682B42D8D1A5
:100C5000FFF7B2FF801B0228F6D91023A26B0120F8
:100C60001343A363E36B2B43E363CBE7019B013B9C
:100C70000193E2E7170000803400002040420F009B
:100C8000F8B504000120002C7ED0A36B002B06D108
:100C900022003432E3632000137003F0D1F9A36B18
:100CA000DB0600D585E0042223689868104000D058
:100CB0007FE0A26B4249114002220A430321A26352
:100CC0009A680A40012A05D1196811420ED1DA68E2
:100CD00012040BD41821DA688A43A1680A43DA6047
:100CE000196962688900890811431961DA68354910
:100CF0000A40DA60257E627EAD03D2031543A26A04
:100D0000A17E013A561EB2411603E2684F03154315
:100D100022692F43022A00D10420621DD27F520093
:100D20003A4332430243E07E012804D100292CD10A
:100D3000802149020A43C220E169FF30814202D08A
:100D4000206A01430A438020D96840051143D960D5
:100D5000E16A814202D0481E062807D80725586953
:100D60002940A8435861586901435961DB68164915
:100D70000B40934211D100200322E063A36B934305
:100D80001A0001231343A363F8BD2021A56B294357
:100D9000A163E16B0843E063CDE71222A36B01205E
:100DA00093431A0010231343A363E36B0343E363EA
:100DB000EAE71023A26B01201343A363E4E7C046D4
:100DC000FDFEFFFF1902FEFFE7FF3F83F7B5036853
:100DD00004009B680F00019202205B0730D42600BC
:100DE00034363378012B2BD001233370637E012BF3
:100DF00027D1A36B164A00251A4080235B001343BA
:100E0000A363206B134BE56335708362124B21683B
:100E1000C362124B03631C230B604A680C3B1343F1
:100E20004B600123CA681343CB603A004031019BF9
:100E300000F00AFD04232800226891680B439360A8
:100E4000FEBD2000FFF7D0FE0028D2D0F8E7C04654
:100E5000FEF0FFFF610E0008D30E0008E10E00084F
:100E60005022436A10B5996B11422AD1996BB13265
:100E7000FF320A43C0219A631A680901D068084208
:100E800012D1997E00290FD1116809070CD59168FC
:100E900049070DD40C205168814351609A6B0B496E
:100EA000114001220A439A63180003F02DF810BD87
:100EB0002022996B0A439A630122D96B0A43DA63B1
:100EC000F2E71B6B1B6B9847F1E7C046FEFEFFFF86
:100ED000704710B5406AFFF7FBFF10BD70477047C1
:100EE0004023406A10B5826B134383630423C26BB3
:100EF0001343C363FFF7F3FF10BD00000422036830
:100F000070B519680400114202D05968114206D127
:100F100008221968114228D05968114225D0A26BC5
:100F2000D20604D48022A16B92000A43A263C0229D
:100F3000D9681201114212D1A27E002A0FD11A687B
:100F400012070CD59A6852073CD40C215A688A4380
:100F50005A60A36B204A1A4001231343A363200065
:100F600002F0D2FF0C2223681A60802523681A68D9
:100F70002A420CD05B682B4209D08023A26B5B0213
:100F80001343A3632000FFF7A9FF23681D6010220D
:100F900023681968114214D05968114211D0A26A0D
:100FA000012A02D0DA68D20708D50222E16B2000BC
:100FB0000A43E26310221A60FFF791FF10222368B0
:100FC0001A6070BD2023A26B1343A3630123E26B5D
:100FD0001343E363C3E7C046FEFEFFFFF7B50022FD
:100FE000040001923434227803000220012A2BD01D
:100FF00001221D68DE6AA868227040075AD40B6877
:101000002F481F00844648689A40103F60453BD0F7
:10101000A86A10438022A862520596420FD0013E72
:10102000062E0CD98A68072168690840824206D0DA
:1010300068690A4088436861686902436A61022FEF
:1010400003D9002000232370FEBD1E4A80201168B2
:10105000102B15D0112B15D1C00301431160102B9B
:10106000EFD1194B19491868FFF758F80A2358436C
:101070000190019B002BE4D0019B013B0193F8E719
:101080000004EAE74004E8E7A96A9143A962022F55
:10109000D7D80C4A1168102B0AD0113B581E834137
:1010A0000B485B4203400B481B180B401360C8E71A
:1010B000094BFAE72021986B014399631000C1E7BF
:1010C00001100000082701403400002040420F00BA
:1010D000000040FFFFFFBFFFFFFF7FFFF8B50400E8
:1010E0000120002C64D02518EB7F002B02D12000BA
:1010F00003F00CF8022622681368B3431360FFF76D
:101100005BFD070023685A68324244D101261A6801
:1011100032431A60FFF750FD070023685A683242D5
:1011200047D0217E8022012949D119680A431A60DB
:10113000617E4022012946D119680A431A60A17EC6
:101140002022012943D119680A431A60E17E102246
:10115000012940D1196891431960217F0822012992
:101160003DD119680A431A60617F042201293AD1EE
:1011700019680A431A60E168A26800200A432169DD
:101180000A4361690A43616801390A43DA6101234C
:101190006062EB770CE0FFF70FFDC01B0A28B1D9A6
:1011A0008023626A9B021343636205230120EB776D
:1011B000F8BDFFF701FDC01B0A28AED9F0E719689A
:1011C00091431960B4E7196891431960B7E719684A
:1011D00091431960BAE719680A431A60BDE71968B4
:1011E00091431960C0E7196891431960C3E770B56E
:1011F000431CDB7F013B012B66D880240368012060
:10120000A4001A59872602431A514A69E23CFF3C5E
:101210001440A040C543B6009C592C409C51CC6959
:10122000002C35D1103E9C59D2002C409C51CC68EA
:101230004E682404B6B2344390269A18B6009451EE
:101240008C680E682404B6B234439126B6009451DB
:1012500081228C699200002C2FD19C582C409C50EC
:1012600085220C699200002C2AD19C5825409D5063
:101270000A6A012A04D1872189005A58104358501C
:101280008021012089005A58824300205A5070BDA5
:10129000012CDDD18326B6009C59D20004439C5119
:1012A0000C684E682404B6B2344390269A18B600EF
:1012B00094518C68CE682404C5E79C580443CEE75B
:1012C0009C5804439C50D3E78023426ADB021343BB
:1012D00043620120DBE7F8B5461CF57F0400EDB260
:1012E000012D1CD102230268F3771368AB4313600E
:1012F000FFF762FC070023685868284001D160624C
:10130000F8BDFFF759FCC01B0A28F4D98023626A94
:101310009B02134363620523F3770120F0E78023E8
:10132000426A1B0313434362F7E7F0B5441CE67FB0
:101330000568013EAC68012E56D8E0267605344299
:101340004ED0A401A40F032C06D18023426A1B04B3
:101350001343436201203DE00120A04018602300B8
:101360008E68CF681833002E35D1086840053843A1
:101370001B015851C2200E6924012B1940001E5038
:10138000097D012903D11E58FF313143195050798D
:1013900011790002084391792C1909040843D17985
:1013A0000906014320008D30FF300160517810782C
:1013B000090208439178D2780904014312060A43CE
:1013C000C0218934FF342260012249005858024369
:1013D00000205A50F0BD48683E43C0003043C7E784
:1013E0008023426A9B03B3E78023426ADB02AFE7B4
:1013F000F7B5441CE47F013C012C00D977E0046878
:101400000194019D0324002909D1EE68264208D1E8
:101410008023426A9B031343436201205EE02E69EE
:10142000F4E7D826019D0C012C1904257600A75954
:101430002F40976053D1A7597F0D176002270F25C2
:10144000A6593E40B337FF37D660E6592E401661A5
:10145000E659E459360A240C5461F6B2019C9661AF
:101460000A01A518B935FF352C681C700468A4184A
:10147000B934FF342468240A5C700468A418B934B1
:10148000FF342468240C9C700468A418B934FF3419
:101490002468240EDC700468A418BD34FF3424686A
:1014A0001C710468A418BD34FF342468240A5C71DC
:1014B0000468A418BD34FF342468240C9C710468AB
:1014C000A218BD32FF321268120EDA7102682023B0
:1014D000002908D1D0680343D3600020FEBDA7597E
:1014E000FF085760AAE711690B431361F5E78023F2
:1014F000426ADB028FE7431CDB7F013B012B05D8EF
:101500000268002053691943516170478023426A81
:10151000DB02134343620120F7E7704770477047CF
:101520007047704770477047704770477047704703
:101530007047F0B5036885B05E695A689F6801928C
:10154000DA68050002921A69002403929A690092EF
:10155000012216421FD0174205D09A60BB0700D463
:10156000A6E0FFF7DAFF80235B001F4207D02A685E
:101570009360BB0500D4A8E02800FFF7CFFF8023CD
:101580005B021F4207D02A689360BA0300D4ABE025
:101590002800FFF7C4FF330708D51023029A1A4228
:1015A00004D08022920014432A68D360730708D5C0
:1015B0000823029A1A4204D02A682800D360FFF751
:1015C000B2FFB30706D52B68DB689B0702D0280063
:1015D00002F09CFC730608D51023039A1A4204D02B
:1015E0008022D20014432A681361B30608D5082369
:1015F000039A1A4204D02A6828001361FFF795FF66
:10160000F30606D52B681B699B0702D02800FFF75D
:101610008BFFB30308D51023019A1A4204D02A681D
:1016200028005360FFF782FFF30308D50823019ACF
:101630001A4204D02A6828005360FFF778FF330469
:101640002CD5019B2A685B0726D5F30504D5012319
:101650000099194200D01C43B30504D50223009918
:10166000194200D01C43730504D504230099194284
:1016700000D01C4333050FD57023009919400B1E71
:101680000AD0302948D03BD8102941D0202941D058
:10169000702193698B43936104235360002C05D020
:1016A0006B6A28001C436C62FFF742FF05B0F0BD77
:1016B0007B0704D43B0705D4FFF732FF53E78024B0
:1016C000240150E7802464014DE77B0503D5802386
:1016D0009B011C4353E73B0502D58023DB01F8E760
:1016E0002800FFF71EFF4AE77A0303D580231B0279
:1016F0001C4350E73A03FBD42800FFF713FF4AE7E7
:1017000050290BD060290BD04029C1D11C43BFE721
:101710000823FBE71023F9E72023F7E78023F5E709
:1017200080235B00F2E7000030B5FF2503242A0088
:10173000C3B21C40E400A24089012940D243A14029
:1017400000280ADBC0240B4B80088000C018A400CE
:1017500003591A401143015130BD0F200340083B8B
:1017600005489B089B001B18D86902401143D961AA
:10177000F2E7C04600E100E000ED00E0002805DBF4
:101780001F2318401E3B8340014A13607047C04628
:1017900000E100E0BFF34F8F034B044ADA60BFF370
:1017A0004F8FC046FDE7C04600ED00E00400FA059B
:1017B000094A431E012093420DD8C021074A084818
:1017C0005360036A09061B021B0A0B4303620020D5
:1017D0000723906013607047FFFFFF0010E000E0F8
:1017E00000ED00E070B504000125002824D002239C
:1017F000861C0068F3770268104BA1681A40636882
:101800000B43E1680B4321690B4361690B43A169F9
:101810000B43E1690B4313430360094B1421C018C8
:10182000FEF77CFC074B8000E36300232064A36386
:10183000F57764191D00E377280070BD0FC0FFFF26
:10184000F8FFFDBF00000240F0B5441CE67F050034
:101850000220012E27D00138E077A81CC67F8446DD
:10186000F6B202200027012E28D16446E0772C68CA
:10187000AF6320682F6CB043BE402060E86B4660C9
:1018800063606B682868102B0ED1A260E160EB6A80
:101890002268002B0BD00E23134323600123026820
:1018A000134303600020F0BDA160E260EFE70A236C
:1018B00013430422236023689343EEE7E777F2E7BC
:1018C00070B5841CE37F022B04D004238363033BA5
:1018D000180070BD0E210368056C1A688A431A60EF
:1018E00001221968914319601100A940C36B596026
:1018F000E27700248318426BDC771300A242E7D022
:1019000090472300E4E7F8B504273E00016CC26B62
:101910008E40156803681C6835420DD03C420BD0E0
:101920001968890602D41968B9431960C36A5660F8
:10193000002B19D0984717E002273E008E40354211
:1019400013D03C4211D01968890606D40A241968BC
:10195000A14319600121C319D97756600022431CA5
:10196000DA77836A9342E5D1F8BD082637008F40C5
:101970003D42F9D03442F7D00E251C68AC431C60C0
:1019800001231C008C405460821C8363D3770022A7
:10199000C318DA77036BE5E70230C07FC0B2704747
:1019A00010210C4B30B5D8680022084205D00A48F7
:1019B0000232C4692243C2610A000420D96801428C
:1019C00005D00121044C0243E5692943E161DA6055
:1019D00030BDC04600200240B0000020064B002071
:1019E0001A69120606D5054A5A60054A5A601869EE
:1019F0000006C00F7047C046002002402301674523
:101A0000AB89EFCD8023034A002011690B4313619A
:101A10007047C0460020024070B50400FFF7CCF8C4
:101A200001250600104B1A00D96829420FD1202148
:101A3000D868084200D0D9601023D068184002D17D
:101A4000D3685B0708D5FFF7ABFF012004E0611CFA
:101A5000EAD0002C01D1032070BDFFF7ADF8801B48
:101A6000A042DFD9F7E7C04600200240F0B585B0BC
:101A7000029203931B4B01911A7E04000220012A5B
:101A80002ED0012218481A76FFF7C6FF002824D16D
:101A90002600012C02D0022C00D00426002402983B
:101AA00003992201FEF7C6FB002201270D4B0F4DC3
:101AB000DA612B69019A3B432B6163009B1880B26A
:101AC00018800948FFF7A8FF2B69BB432B6100284A
:101AD00003D1E419E3B29E42E1D80022014B1A7609
:101AE00005B0F0BDB000002050C30000002002404F
:101AF0000022064BDA61064B043219690A431A6167
:101B0000402219690A431A617047C046B00000209C
:101B1000002002400022064BDA61064B02321969AE
:101B20000A431A614022586119690A431A617047D1
:101B3000B000002000200240F8B5214E0500337EA1
:101B40000F000220012B0CD0012333762B681D4897
:101B5000012B12D1FFF760FF002803D001200023E2
:101B60003376F8BDFFF7C4FF1648FFF755FF042191
:101B7000154A13698B431361F1E7FFF74DFF002806
:101B8000ECD101235B423B606C680130AB686A6852
:101B90009B029B18A342E2D92000FFF7BBFF094834
:101BA000FFF73AFF0221084A13698B4313610028AB
:101BB00001D03C60D3E78023DB00E418E6E7C046B1
:101BC000B000002050C3000000200240F0B50B68B8
:101BD00087B003930023039ADA4001D107B0F0BD28
:101BE00001229A4094466446039A2240019200D111
:101BF0008EE003254A685E0017000092B54010226F
:101C00009743EA4302927A1E012A10D88468029A06
:101C100001251440CA68B24022438260624644688B
:101C20009443009A12092A409A4022434260C468B1
:101C3000029A14408A68B2402243C260022F0DD13A
:101C400007240F251C40A400A540DA089200821842
:101C5000176AAF430D69A5402F431762032402683A
:101C6000029D1540009A2240B24080241543009AFC
:101C70006405056022424BD001250F27254A94694F
:101C80002C43946192699C082A4002351D40AD00A6
:101C9000AF400592059A204AA400A418A668002225
:101CA000BE439027FF05B84208D01C4F0132B8420E
:101CB00004D01B4F0432B84200D1033AAA40324349
:101CC000A260184A019C1668019D009FE4433543B9
:101CD000FF0301D43500254015605668019D009F23
:101CE0003543BF0301D43500254055609668019DFA
:101CF000009F3543FF0201D4350025409560D5682B
:101D0000019E009F2E43BF0201D425402E00D660C5
:101D1000013360E700100240000001400004004869
:101D20000008004800040140002A01D0816170478A
:101D30008162FCE703689A69920701D500229A62E2
:101D400001229969114202D199690A439A61704747
:101D500030B5039C1204006822431343054A4568CA
:101D60008905640D890D1443A5430B432B43436040
:101D700030BDC046FF63FF0310B5436B134C0AB27E
:101D8000A34202D0124CA3420ED1002A0ADB9023B8
:101D9000102916D0303B202913D00023402910D120
:101DA0000B430EE0B823F9E7B823D2171340CA0754
:101DB00001D5F22213438A0701D5F42213432029C7
:101DC000EED001680A6813430B6010BD0D270008B0
:101DD0000126000810B50023CA0708D503004133C7
:101DE0001A7828231A401A33282A00D0B0338A07D9
:101DF00008D502002824413212782240A2420BD199
:101E00004422134309B2002901DAB82213430168BE
:101E10000A689A430A6010BDF422F2E770B5040024
:101E20000120002C3FD0250041352B78DBB2002B60
:101E300005D1220040321370200002F0B9F92423AA
:101E400001212B702368E0681A68A6688A431A602B
:101E500061681A4A0A401A619968194A11409960E2
:101E6000012821D180210902314399605868154920
:101E700001435960D96800200A40DA60616922692B
:101E80000A43A16909020A43DA60216AE2690A4346
:101E90001A60012219680A431A60202360642B70BB
:101EA00020634234207070BD84210902314399605F
:101EB0000228DBD1802109015960D7E7FFFFFFF03D
:101EC000FF7FFFFF00800002F0B5060085B00292A0
:101ED00028220191039341363378040013400125F1
:101EE000934208D1002902D0029B002B06D1802307
:101EF00001259B006364280005B0F0BD270023493D
:101F00004037FFF767FF3B78012B3DD03D703378BA
:101F10001F4D2A2B16D102212000FFF75BFF2368FB
:101F20001A6812040ED51A68E06B2A401A6000285D
:101F300008D0184B4363FFF7C3FC002802D0E06BC6
:101F4000436B9847292333702300202242331A70B1
:101F500000232268636451680D40019955606162F5
:101F600002996185618D21850399E1620A49616366
:101F70009169C90301D50821D1613B700349200053
:101F8000FFF7FAFE0025B6E70225B4E7018000005E
:101F9000FF7FFFFF2D280008ED230008020010B589
:101FA000413211780223202908D180212633137071
:101FB000034B09024363FFF7DFFE0023180010BD47
:101FC000ED23000870477047030070B500252022FC
:101FD000060042331D70013B1978040040361A7028
:101FE00021290AD11123456303632039FFF7F2FE4B
:101FF00035702000FFF7E6FF70BD122345630363D1
:102000000221FFF7E7FE35702000FFF7DCFFF3E762
:102010000100036810B5040000201A6842310870FE
:102020000121500418D51A6818490A401A60230083
:1020300041331A78292A15D1013A1A702123200038
:1020400023630121FFF7C6FE2300002240331A70EC
:10205000200001F0CFFF10BDD20B0A42E7D01A6872
:102060000B49E2E71A782A2AF5D1023A1A7022239C
:10207000200023630221FFF7ADFE2300002240333E
:102080001A70200001F0B0FFE5E7C046FFBFFFFF78
:10209000FF7FFFFF0300F7B5282141331A780400C2
:1020A00003680A408A4239D1FE279D699E699A6871
:1020B000D968ED030191C168360CED0F3E4002294D
:1020C00022D19205920DD1094E4006210E4010D129
:1020D000816C01318164816C022909D106318664E9
:1020E000D961030040331E702900200001F028FF51
:1020F000F7BD80210902FFF76DFE23000022403367
:102100001A70019A3A40EFE780210902FFF762FE58
:102110002300002240331A703200E5E70822DA611A
:10212000002340342370E3E7184B10B5C36200234B
:102130000200036304002020413210705370636377
:102140004B0713D52368626A5B6A1370636A0133B5
:102150006362238D002B09D0013B2385638D013BF6
:102160009BB263850423626C1343636408492000B7
:10217000FFF730FE102223682000DA6123000022DE
:1021800040331A7001F018FF10BDC0460000FFFF79
:1021900003800000704770470100020010B5413114
:1021A0000C7800234032602C06D1403C0C70036355
:1021B000137001F0C3FE10BD0363137001F0F6FE4F
:1021C000F9E7000070B505000022040041354230F7
:1021D0002B7802703148283BE0626285626C1143C3
:1021E0006164022B2BD803212000FFF7F3FD282385
:1021F0002B702B4BA06B6363236B00282ED01A002F
:102200001021113A8A4329D123681A68520403D550
:102210001A6824490A401A60FFF7BEFB012819D04A
:10222000A06B214B00224363230040331A70FFF759
:1022300047FB002811D0A06B436B98470DE01B496A
:102240002000FFF7C7FD2B78602B01D020232B70D7
:102250000023CFE72000FFF79FFF70BDE06B002851
:10226000F8D01022123B9343F4D123681A68120469
:1022700003D51A680E490A401A60FFF78DFB012842
:10228000E8D0E06B084B00224363230040331A7010
:10229000FFF716FB0028E0D0E06BCDE70000FFFF62
:1022A000ED230008FFBFFFFF2D280008038000007A
:1022B000FF7FFFFFF7B5036806001A6841360192F9
:1022C00020223578DA61082304000F009D43212D78
:1022D00050D140492000FFF77DFD2563802223680F
:1022E0001202596820000A435A605A683A490A4063
:1022F0005A60FFF71FFD019B01225B043ED5226857
:10230000364913680B401360A36B002B03D01B6886
:102310005B689BB263857B0711D504239F432368C9
:10232000626A5B6A1370636A01336362238D002BF8
:1023300005D0013B2385638D013B9BB26385638D93
:10234000002B03D00423626C134363642300002238
:1023500042331A70656C626395421AD0616C20003A
:10236000FFF730FF3378282B03D139002000FFF727
:10237000DBFEF7BD222DB1D11949ABE7019BDB0B89
:102380001342C8D02268174913680B401360E36BEF
:10239000BBE72700E36A144A403793420CD0200081
:1023A000FFF736FE2023104A2000E26233702563D7
:1023B0003D7001F001FEDCE720233278200033700D
:1023C00025633D70222A02D101F00EFED1E701F013
:1023D00011FECEE70180000000E800FEFFBFFFFF16
:1023E00002800000FF7FFFFF0000FFFF0300F7B542
:1023F000403301931B780400C76A0E0015000220C9
:10240000012B24D00123019A13704A091A4205D0E6
:102410006A091A4202D02000FFF74CFF0123F2069E
:1024200035D52A091A4232D0638D002B20D12300E2
:1024300041331A78282A0BD180229204974207D17F
:1024400031002000FFF770FE0020019B1870FEBDD8
:10245000102219782368DA612929F5D12D498F4294
:10246000F2D02000FFF766FC2000FFF7D1FDEBE77C
:1024700010222368DA610423626C13436364264BE1
:102480001F42E1D1616C2000FFF79CFEDCE70123D5
:1024900072071AD5AA081A4217D0638D002B0DD0E7
:1024A0002368626A5B6A1370636A01336362238D17
:1024B000013B2385638D013B9BB26385638D002BBC
:1024C000C2D1144B9F42BFD0CEE70123320706D5BD
:1024D000EA081A4203D02000FFF7DCFDB4E701232D
:1024E000B207B1D5DD401D42AED0638D002B0DD0BB
:1024F000636A22681978013391626362638D013BDC
:102500009BB26385238D013B23859DE7024B1F42D0
:10251000AAD099E70000FFFFFFFFFFFE73B520225E
:10252000050003684135DA612B7804000E00212B89
:102530002CD10121FFF74EFC1123236323682E4980
:102540005A680A405A60002262632C4AE262F2062C
:1025500005D51022DA61616C0C3A0A4362642A786C
:10256000602A05D1720703D55B6ADBB20193019B38
:102570002000FFF7DFFB636C2A78602A01D0002B74
:102580000CD0616C2000FFF71DFE73BD2B78222B51
:10259000D4D10221FFF71EFC1223CEE72A78212A8C
:1025A00013D1013A2A7022002100236342321078AD
:1025B000403113700B70402803D12000FFF7EAFD73
:1025C000E3E72000FFF7FEFCDFE72A78222ADCD1D0
:1025D000023A2A70220021002363423210784031EF
:1025E00013700B70402803D12000FFF7D4FDCCE717
:1025F0002000FFF7E8FCC8E700E800FE0000FFFF4E
:102600000300F7B5403301931B780400C76A0E003E
:1026100015000220012B3CD00123019A13704A09B6
:102620001A4205D06A091A4202D02000FFF742FE82
:102630000121F3065BD52B090B4258D0A80B0300F0
:10264000ED0B2B430B424ED0E36B1A1E06D000223B
:102650000D4203D01B685A6853425A412300A16BB4
:102660004133002905D0C00703D50968496800290E
:1026700001D0012A1ED11A78282A0BD18022920477
:10268000974207D131002000FFF74EFD0020019B4B
:102690001870FEBD102219782368DA612929F5D156
:1026A00018498F42F2D02000FFF744FB2000FFF7CB
:1026B000AFFCEBE710212268D1610422616C0A4370
:1026C00062641B78104ADBB21742DFD108229343C1
:1026D000212B01D1236301E0222BFBD0616C200070
:1026E000FFF770FDD2E710222368DA61CEE70123FD
:1026F0003207CBD5ED081D42C8D02000FFF7CAFC39
:10270000C4E7C0460000FFFFFFFFFFFE37B505002E
:1027100040352B7804000220012B17D00123080933
:102720002B70184213D01009184210D010222368C1
:102730002000DA610423626C202113436364FFF7F5
:102740001BFB2000FFF7F6FA002028703EBD012396
:10275000080646D59009184243D0402123681A68DC
:102760008A431A60628D002A2FD05968638D8905CB
:10277000890DFF2B1BD9FF23238580235B040020B9
:10278000228D0090D2B22000FFF7E2FA638D228DF5
:102790009B1A9BB26385230041331A78236819681A
:1027A000222A0FD1802212020A431A60CCE7638DDD
:1027B000E26A23851C4B9A4201D0E36ADFE780235B
:1027C0009B04DCE78022D201EEE75B689B0103D427
:1027D0002000FFF7F9FBB7E740212000FFF7F2FCEC
:1027E000B2E70123480613D59009184210D0638D33
:1027F000002BF1D123685A689201A5D4E16A0A4AF4
:102800009142E5D180225968D2010A435A609BE780
:102810000123880600D497E752091A4200D193E7B2
:102820002000FFF77BFE8FE70000FFFF406A10B536
:10283000836B002B01D000225A63C36B002B01D0A5
:1028400000225A63FFF7A8FC10BD0000F0B5040099
:10285000413422780300D2B20220202A18D11D0070
:1028600040352E78012E13D01B68223020701E6850
:10287000233886431E601E68064F3E401E601E6859
:1028800031431960196808431860002022702870CD
:10289000F0BDC046FFEFFFFFF0B5050041352A78D7
:1028A0000300D2B20220202A17D11C00403426781F
:1028B000012E12D01B68223028701E6823388643F0
:1028C0001E601E68054F09023E40314319601968B9
:1028D0000843186000202A702070F0BDFFF0FFFF51
:1028E000F0B5040085B0002802D1012005B0F0BD8C
:1028F0000368DB0733D423689B0700D587E0236890
:102900001B0700D5C8E023685B0700D5EBE0236810
:10291000DB061AD56269BC4D0423012A00D057E1B9
:10292000696B02260B436B636B6B1A436A63FEF79A
:1029300043F907006B6B334200D142E1F8216A6B27
:10294000A3698A43DB0013436B6323689B0600D5AE
:1029500066E1626A002A00D0A3E10020C6E70C21EC
:10296000A94D6A680A40042A0BD06B680B40082BFB
:102970000ED1C0226B685202134080225202934251
:1029800006D12B689B03B6D56368002BB3D1ACE7A7
:102990006368012B13D180232A685B0213432B60E9
:1029A000FEF70AF980260700B6022B683342A2D14F
:1029B000FEF702F9C01B6428F7D9032096E7002B25
:1029C00015D12B68914A802613402B602B68904AC2
:1029D000B60213402B60FEF7EFF807002B68334276
:1029E00089D0FEF7E9F8C01B6428F7D9E5E7052B85
:1029F00005D180232A68DB0213432B60CBE72B68C9
:102A0000824A13402B602B68814A1340C7E70C228F
:102A10007D4D6B6813420BD06B681340082B16D1A9
:102A2000C0226B68520213408022120293420ED1E0
:102A30002B689B0703D5E368012B00D055E7F821ED
:102A40002A6823698A43DB0013432B6057E7E26857
:102A50000123002A0FD02A68022613432B60FEF7B9
:102A6000ABF807002B683342E9D1FEF7A5F8C01B8D
:102A70000228F7D9A1E72A6802269A432A60FEF7BE
:102A80009BF807002B68334200D138E7FEF794F833
:102A9000C01B0228F6D990E7E26901235A4D002AAB
:102AA00010D06A6A022613436B62FEF785F80700AE
:102AB0006B6A334200D026E7FEF77EF8C01B02287F
:102AC000F6D97AE76A6A02269A436A62FEF774F8D0
:102AD00007006B6A334200D115E7FEF76DF8C01BA3
:102AE0000228F6D969E780220021474D5205EB699B
:102AF0000091134208D1EB691343EB61EB6913407A
:102B00000393039B012300938027424E7F00336889
:102B10003B4206D0A368012B13D12A6A13432B62D0
:102B200030E033683B433360FEF746F8019033688A
:102B30003B42EFD1FEF740F8019BC01A6428F6D95A
:102B40003BE70122002B14D12B6A022793432B620F
:102B50002B6A033293432B62FEF72EF806002B6A92
:102B60003B4225D0FEF728F82B4B801B9842F6D924
:102B700023E7052B0BD1296A013B0B432B622B6A00
:102B80001A432A62FEF718F8022706000DE02B6AA6
:102B9000934304222B622B6A9343C0E7FEF70CF8A1
:102BA0001D4B801B984200D907E72B6A3B42F5D0AA
:102BB000009B012B00D0AAE6EB69184A1340EB6199
:102BC000A5E6FDF7F9FFC01B022800D8B2E6F4E63F
:102BD000053203D16A6B9A436A63AFE66A6B0226D9
:102BE000134301226B636B6B93436B63FDF7E4FF4D
:102BF00007006B6B334200D1A7E6FDF7DDFFC01B7A
:102C00000228F6D9D9E6C04600100240FFFFFEFFB9
:102C1000FFFFFBFF0070004088130000FFFFFFEF85
:102C20000C21534D6A680A408A4209D06B680B40F8
:102C3000082B0ED1C0226B6852021340934208D178
:102C40006B6BDB0300D484E6236A012B00D04CE6D7
:102C50007FE6236A002B11D080266B6B760233430C
:102C60006B63FDF7A9FF07006B6B334200D070E682
:102C7000FDF7A2FFC01B0228F6D99EE66B6B3D4A0A
:102C8000802613406B63FDF797FF070076026B6B9E
:102C9000334200D15DE6FDF78FFFC01B0228F6D955
:102CA0008BE60C20324B59681D000140082944D0A6
:102CB0001B6831490B402B60022A2FD1FDF77CFFA6
:102CC00080260700B6042B68334221D10F22EB6A1D
:102CD0009343226B1343EB62A16AE36A6A680B4376
:102CE000264980240A4013436B6080232A685B04D2
:102CF00013432B60FDF760FF0600A4042B682342FA
:102D000000D02AE6FDF758FF801B0228F6D954E6CA
:102D1000FDF752FFC01B0228D5D94EE6FDF74CFF48
:102D200080240600A4042B68234200D115E6FDF799
:102D300043FF801B0228F6D93FE6012A00D1D4E5E3
:102D4000C0225868A16A5202DB6A02408A4200D05F
:102D5000CBE50F221340226B934200D0C5E5F02350
:102D60009B031840E36AC01A431E9841C0B2BDE5F8
:102D700000100240FFFFFEFFFFFFFFFEFF7FC2FFCC
:102D800030B51D4C89B010222100684601F016FBB9
:102D9000210004AD10221031280001F00FFB0C209F
:102DA000164A5368184008280CD00C2808D004385C
:102DB00043425841124B40421840C01809B030BD40
:102DC0001048FBE70F206C46D26A990C0140024084
:102DD000645CA95CC02280205202134040028342FE
:102DE00004D10948FDF79AF96043E7E7934201D11E
:102DF0000448F7E70248F5E75C4400080010024089
:102E000000127A00006CDC020024F400F7B5050023
:102E10000F00002801D10120FEBD01223B4C236898
:102E200013408B421CD329688B0722D4CB072FD4A5
:102E3000012322681A40BA4259D82B68344C5B07E8
:102E40005CD4FFF79DFF6368324A1B061B0FD35CFF
:102E5000D840314B18600020FDF76EFE0020DBE704
:102E6000236893430B432360236813408B42D2D1E2
:102E7000D9E7274A4B0704D5E0235068DB0003431A
:102E80005360F02053688343A86803435360CDE741
:102E90006A681F4E012A1AD133689B03BBD50321F0
:102EA00073688B4313437360FDF786FE01900C2318
:102EB00072681A406B689B009A42B9D0FDF77CFE9D
:102EC000019BC01A154B9842F1D90320A4E7022AAE
:102ED00003D133689B01E2D49DE7032A03D1736BCE
:102EE000DB03DCD497E733689B07D8D493E72268E9
:102EF0009A43226022681A429FD08CE76368084A8E
:102F00001340EA68134363609BE7C0460020024019
:102F100000100240304500083400002088130000F3
:102F2000FFF8FFFFF0B5036885B00500DB0328D587
:102F300080220021404C5205E3690091134208D1E0
:102F4000E3691343E361E36913400393039B0123A4
:102F500000938027394E7F0033683B4238D0C0222F
:102F6000236A92001340364E44D1236A1E406B6898
:102F70001E43009B2662012B03D1E369314A1340B3
:102F8000E3612A68D30706D503202B490B6B8343E3
:102F9000A86803430B63930606D5102026490B6BE4
:102FA0008343E86803430B63930306D580202249DB
:102FB0000B6B8343686903430B630020530517D5EC
:102FC00040211D4A136B8B4329690B4313630FE0A8
:102FD00033683B433360FDF7EFFD019033683B42BC
:102FE000BDD1FDF7E9FD019BC01A6428F6D9032085
:102FF00005B0F0BD69680A409A42B6D08023226AC3
:10300000206A11005B0203432362236A0E483140A9
:10301000034023622162D307A7D5FDF7CDFD07004A
:103020000222236A1342A0D1FDF7C6FD074BC01B45
:103030009842F5D9DBE7C04600100240007000401E
:10304000FFFCFFFFFFFFFFEFFFFFFEFF8813000005
:10305000012300220B49400110B58B61CB61086050
:1030600048608860C8600B6207480D334A610A6196
:103070004B62FEF7BCF8002802D09822034B1A706E
:1030800010BDC046D00000204C0100207000002080
:1030900030B5124B85B01B78002B1CD0104B114D56
:1030A000114C6B60FEF79AFC0123039300236946E1
:1030B00001A802940193FEF73FFD0C4B2100E31899
:1030C000EA5802200023FEF7D1FC094B04349C424D
:1030D000F3D1FEF797FC05B030BDC046720000206A
:1030E0007856341288010020007C00080084FFF725
:1030F000507C0008002370B5084A094C0948195F44
:103100001160195E023351600832122BF7D101228F
:10311000054B1A70FFF7BCFF70BDC0469001002040
:1031200022000020960000207200002070B50D00E3
:1031300014000023094908600D610133DAB2954299
:10314000FBD8074B074A0848FEF7EFF800239842E0
:1031500002D0064B1C700123180070BD50020020E5
:1031600030020020280200204C01002070000020C6
:10317000F8B506000F00FDF71FFD194B1B689842BC
:1031800027D9184D184C2B78BB4218D2FDF714FDE7
:103190002368C01A642811D914490B785A425A413D
:1031A000D2B20A70002B02D02B7801332B70082189
:1031B0000F48FEF7B9FDFDF7FFFC2060F8BDFDF7F5
:1031C000FBFC2368C01AB042F8D900232B7023609F
:1031D000F4E7064B1A78002AF0D101321A70EDE7B5
:1031E0005800002095000020880000208500002065
:1031F0000004004830B5102499B02C2200210DA8FD
:1032000001F0E5F82200002101A801F0E0F8182201
:10321000002105A801F0DBF803230B9380235B0258
:103220001593802301250F94DB020E3C0BA8149408
:1032300016930C950E95FFF753FB07230294002479
:10324000290001A8019303940494FFF7DFFD2023D4
:1032500005A805930894FFF765FE19B030BD00007E
:10326000F0B595B0FDF78CFCFFF7C4FF14220021E8
:103270000FA801F0ACF88021D14CC9026269002787
:103280000A436261636901260B4080210C930C9B09
:103290006269C9030A436261636908250B408021A2
:1032A0000D930D9B626989020A4362616369002282
:1032B0000B400E930821C3480E9BFEF735FD0FA966
:1032C000C0480F95109611971297FEF77FFC63691F
:1032D0003A00334363616369390033400B9309203B
:1032E0000B9BFEF721FA0920FEF748FA39000C2261
:1032F0000FA801F06CF8B44CB44B3200236080236B
:103300001B066360C223FF332661E3610336631D3E
:103310002000DA77A276A262A560E7606661277670
:103320006776E7762762FDF7ABFC80235B0110939D
:1033300007230FA9200011930F97FDF74FFE0122DD
:103340000FA920000F92FDF749FE02230FA92000CC
:103350000F93FDF743FE03230FA920000F93FDF702
:103360003DFE0FA920000F96FDF738FE05230FA99B
:1033700020000F93FDF732FE06230FA920000F93C4
:10338000FDF72CFE07230FA920000F93FDF726FE63
:103390000FA920000F95FDF721FE8D4D8D4B0122C9
:1033A0002B600C236B60C0231B032B618023280040
:1033B0005B03AF60EF606B612F766A76AF76EF7676
:1033C0002F776F77FDF78AFE0122834E834B300003
:1033D0003360834BF2607360B76037617761B761C8
:1033E000F7613762FEF71AFD39003000FFF72EFA59
:1033F00039003000FFF750FA7A4A7B4B94467B4FF6
:103400001A007B4901CA5B18F85013006245F7D1D6
:1034100078683B688446774A7748190E117084456E
:1034200001D1072907D900211B021B0A3B60734BFE
:103430001170013119701378714A5B00985AFFF7C7
:1034400007FE2800FDF747FF002802D04C226D4BF5
:103450001A7003212800FEF74EF801236A4A6649D4
:1034600053600023D360936013757A688A420AD14F
:10347000664A6748674915681D52556808325D52AB
:103480000233122BF7D15F4D2B78642B15D8300007
:10349000FEF784FD002801D091232B702B78642B3C
:1034A0000BD809225C492000FDF790FC022827D0A8
:1034B000032828D06923012823D0FFF7E9FD574BC3
:1034C0001B78002B00D1DAE0554B564A1C7814804B
:1034D000182C00D1F9E158D8102C00D1D7E114D81C
:1034E000092C00D130E10D2C00D184E1042C17D13E
:1034F00001234D4A13704D4A13704D4A1370A6E0D4
:1035000003232B70D9E70423FBE7122C00D1E6E15B
:1035100000D2B3E1142C00D1BBE1172C00D1CBE1D8
:103520002722384B0FAD1A7042491B3A280000F091
:1035300045FF0822002112A800F049FF20001C24AA
:1035400010220AA900F036FF0AAB1B786B700AAB99
:103550005B78AB700AAB9B78EB700023364A147033
:10356000E85CD11801334870072BF9D1214B334A5D
:103570001B7801345B00985A08214D22E4B2FFF712
:10358000D5FD0735202CE8D161E0232C00D136E1B0
:1035900056D81B2C00D16EE1222C00D131E1192C20
:1035A000BED11A22244B1A70153A5A7000229A7012
:1035B000104B224A1B785B00985A25220321E8E031
:1035C0000010024000040048C8020020002401400E
:1035D0004C01002000640040FC000020005400402A
:1035E0000E090020507C0008007C000888010020A3
:1035F0000084FFF75D00002078563412720000202E
:1036000010450008700000205002002090010020AA
:103610002200002096000020760100209400002067
:1036200034020020600000208E0000208D00002069
:103630001C0000207C4400082802002020450008CF
:10364000302C00D1EDE070D8242C00D068E7AC4BD2
:103650001B69022B10D9AB4B04221B881900914324
:10366000102902D0173B012B06D8A7498A784B783E
:1036700012021343A54A13800023A54A13700023A6
:10368000A44CA5495A00105B01338852092BF9D18B
:103690000022A24B01211B7803920993A04B0892B0
:1036A0001B78009206939F4B01921B7807939E4BC9
:1036B0001B7804939D4B1B7805939D4B029313003D
:1036C000954C099F5800245E002F0DD0994FC55F7F
:1036D000A54201DAC4530191974FC55FA54203DDAE
:1036E000002C01D0C4530191924FC75F924D405FAF
:1036F0003F18F80FC7197F103C1B029824B2844270
:1037000000DCEEE00698002800D0F2E0002C00DC9F
:10371000F3E00A000491002B00D037E1E7173C1BCF
:10372000E30F059308910123CAE7402C00D187E0FD
:10373000FF2C00D0F4E6814B814A1C70814B1B7832
:103740005B00985A2F2223E0002208217E48FEF7D2
:10375000EBFA00231C007748774A7C491C529952A7
:103760000233122BFAD1FDF727FA0090FDF724FA65
:10377000009BC01A764B98420ED9FFF7BBFCFF2284
:103780006E4B1A706F4B6E4A1B785B00985A48223A
:103790000121FFF7CBFC5AE700265E4B7400E55A87
:1037A0002DB22800FDF760F9624B071C185FFDF78A
:1037B0005BF9011C381CFCF76FFD002801D05D4B44
:1037C0001D535D4B185FFDF74FF9011C381CFCF7CA
:1037D0004FFD002807D00021381CFCF743FD0028CE
:1037E00001D1554B1D530136092ED6D11921594807
:1037F000FFF7BEFCBAE7584B01221A7027E7574B78
:10380000FAE7574B1B68013B033300D81FE723221D
:103810004A4B1A704B4B534A1B785B00985A07224D
:10382000B6E73123454A13704F4B1B8853701B0A70
:103830009370444B424A1B785B00985A2622BDE69F
:103840005A78082A02D9494B3222D6E748493D4CDA
:103850000B6822701B0212061B0A134301220B6025
:10386000444B1A70FFF714FC23783E4A5B00985AC9
:10387000FFF7EEFBEBE6FDF78DFFE8E63E4B01229E
:103880001A7000223D4B1A703D4B0632B5E73D4B96
:10389000F5E7012100223B4B1970384B1A70384B69
:1038A00006321A70254B3B321A70264B244A1B787D
:1038B0008B40985A39226CE70123324A13702F4A01
:1038C0001370314A1370164A18E601232D4A1370FB
:1038D0002A4A13702C4A1370114B00228DE7294B92
:1038E000FBE70298844200DB10E70698002800D02E
:1038F0000CE7D8B20090029408E7039107910AE719
:10390000AC020020600000203402002020000020D3
:1039100094000020760100203C020020540000208A
:10392000080000204801002008030020D9010020E1
:10393000F0D8FFFF9600002022000020280200207F
:10394000204500085D00002000040048FF0300003F
:1039500087130000881300005C0000206B0000202B
:103960006C00002010450008780000207000002046
:1039700088010020720000208E0000208D000020B1
:10398000090000208C0000201C000020581C082B7F
:1039900000D0BDE0E7173C1BAD4BE40F1C70089B4B
:1039A000002B02D0AB4B05991970039B002B02D062
:1039B000A94B07991970A94C002A01D0049B2370C8
:1039C000019B002B01D0FFF795FB2378002B03D040
:1039D000A34B1B78002B08D100209F4B1B78834200
:1039E00028D09F4B1B78834224D1009B00215A1E74
:1039F0009B4B52B21B7810000193009B994F0133EF
:103A00000293994B9C46029B984200DC85E000247F
:103A10002000029B934200DB9CE0FDF725F8051C8B
:103A20002000FDF721F8011C281CFCF761FCFCF7C5
:103A300047FC80B28D4B8E4D1B782880002B04D123
:103A40008C4B1B78002B00D1BBE0FDF7B5F88A4EFC
:103A50003368C01A894B1B88984200D8B1E0002314
:103A6000844A1370864A12789A4200D1BCE00FACA7
:103A70007D4A5900575E834A8A5E7A48095E51182A
:103A8000CA0F521852100121974200DB00217E4FCD
:103A9000CAB21955D95D082B00D183E00133914298
:103AA000E6D00E23794A137000216B5E53701B120F
:103AB0009370617823788901DB010B43E1790B4333
:103AC000A17849010B43E17809010B432179C90031
:103AD0000B43617989000B43A17949000B43D370F3
:103AE000237A052113716A4B6A4A1B785B00985A46
:103AF0001222FFF71BFB684B2A881A800023E25C26
:103B0000FA540133092BFAD1FDF756F8306058E02A
:103B10000300092800D0D3E541E7C4B2082C16D829
:103B2000584B4000C35EC55F5D19EB0F5B196546DE
:103B3000455B5B1001985B1B9BB2002801D15B4287
:103B40009BB2181C1BB28B4200DD081C01B2013471
:103B500060B258E7D5B2082D21D84A4B5600F35E23
:103B60009C46404BF35E404F9C446346DB0FF75B43
:103B700063445B10DB1B019F9BB2002F01D15B42B2
:103B80009BB2009FD21B0132022A08D8434A5B1A1B
:103B90009BB2965B1AB272431C19801824B201358D
:103BA0006AB236E70023E85E914200D079E73A4BEB
:103BB0001B88984200D074E7394B1B78002B00D04B
:103BC0006FE7384B384D1878002800D19DE0013858
:103BD0002E4A052800D92DE1FCF796FA6A000A0161
:103BE0000F0115011B0126013049284B0878187078
:103BF000072806D0082825D00724062825D10C70D0
:103C000002E008220A70053A17485100415E081286
:103C1000587099701448511C4900415E02320812D4
:103C20001971114952008A5ED870111259719A7136
:103C3000174B184A1B785B00985A08221100FFF7AF
:103C400075FA61E706220A70DEE71749D7E7C04632
:103C5000D8010020D90100204801002008030020DD
:103C600008000020220000203C0200208C000020E0
:103C7000740100208E000020900000202000002011
:103C80008D00002096000020620000202802002005
:103C90005D000020204500081E0000200A000020D2
:103CA0001C0000205C0000207000002009000020A3
:103CB000022119700A23002113707D480B0049006E
:103CC000095A00200C0A9170591C54704900784C14
:103CD000002800D0774C615A02330C0A1171D4705D
:103CE0005B007449002800D17149CB5A190A9371BD
:103CF000714B51711B78714A5B00985A082144221C
:103D0000FFF714FA0120FCF75DFF6D4C23685A1C85
:103D10003AD0002B25D1FCF74FFF6A4B06001868FC
:103D2000694B6A491B68C018694B1B68C018694B0E
:103D30001B68C018FCF778FAC8318E420ED9FCF720
:103D40003BFF2222644B20601A705B4B634A1B7856
:103D500001215B00985A1322FFF7E8F92368002B32
:103D600012D05F4B1B78002B00D191E05D4A137895
:103D70000133DBB21370082B5FD16A332B70733BB6
:103D800023600023564A1370574C2A7823789342B5
:103D90000ED0EE21504B19705A70474B474A1B7892
:103DA000EC395B00985A0A22FFF7C0F92B78237090
:103DB0002B780121002B03D00221632B00D9032192
:103DC000FA208000FFF7D4F9FCF7F6FE474C050017
:103DD0002368C11AFA20464B8000814263D91B68D0
:103DE0005843FCF79BF9434B25601880FFF767FBAE
:103DF000032119700B2313705FE7042119700C2342
:103E00000231137059E7052119700F231370002137
:103E100004E00621197050230339137025480B0064
:103E20004900095A01204DE700211970512306313C
:103E30001370F3E726232B70E9E71F4E3378013325
:103E4000DBB2082B22D001272B4933700B68327864
:103E50001B0212061B0A13430B60284B1F70FFF74F
:103E600017F933781D4ABB40985AFFF7F1F8002341
:103E70003A00082122482360FDF756FFFCF79CFE1C
:103E800096239B00C0181F4B18607AE70023DAE7DF
:103E9000FCF792FE2368C01A642800D874E7012357
:103EA0005B42236070E71A6801321A60FFF707FB74
:103EB00022000020960000205D0000202045000820
:103EC0006C000020ACF7FF1FB0F7FF1F03260000B7
:103ED000B4F7FF1FB8F7FF1F2802002010450008A5
:103EE0006B0000205E000020710000207C0000209C
:103EF000740000207800002088010020720000205B
:103F000000040048580000207047000010B5074B1F
:103F1000074A0021FDF76CFA002802D05A22054B0F
:103F20001A700122044B1A7010BDC04634020020E2
:103F3000AC020020700000209400002070470000B8
:103F4000F8B50123134C0E0023700500FCF734FE76
:103F5000114B00221860114B1E70012E16D1104E0D
:103F600010495000835B47181BB21B123B70835BE8
:103F700001327B70092AF4D1002309322800FDF7B1
:103F8000A3FF002802D00822074B1A7002232370D7
:103F9000F8BDC0468400002080000020F80000200A
:103FA0007601002009030020700000200322014B4D
:103FB0001A70704784000020042310B5074C23704A
:103FC000FDF7ECFF002802D00A22054B1A700022F0
:103FD000044B1A600523237010BDC04684000020E6
:103FE00070000020800000200622014B1A707047EC
:103FF000840000200722014B1A70704784000020C3
:104000007047000001200C4B82B09969014399610F
:1040100080219A69490502400092009ADA690A43B0
:10402000DA61DB69054A0B400193019B102311689B
:104030000B43136002B070470010024000000140C3
:1040400070B5060088B01422002103A800F0BFF963
:10405000294B32689A424DD18020284B80009969C3
:104060000324014399619A6900250240802000924F
:10407000009A596980020143596180215A69C90235
:1040800002400192019A5A6990200A435A615B6981
:10409000C0050B400293029BFF2303A903930494E2
:1040A000FDF794FD0123164803A903930494059595
:1040B000FDF78CFD134C144B200023608023E3603C
:1040C000DB1823618023DB00636120236560A5602A
:1040D000A361E561FDF786FBA84201D0FFF790FFE1
:1040E00000220C20346311006662FDF71DFB0C20DA
:1040F000FDF744FB08B070BD0024014000100240F1
:1041000000040048680200200800024070B5040066
:1041100088B01422002103A800F059F9214B22682D
:104120009A423DD18020204B8004D969022401436A
:10413000D961DA690326024080200092009A596909
:10414000C0020143596180215A69890202400192EB
:10415000019A5A6904250A435A615B6913480B4066
:104160000293029B802303A95B00039304940696A9
:104170000795FDF72BFD80239020049400245B011C
:1041800003A9C0050393059406960795FDF71EFD48
:104190001E2022002100FDF7C7FA1E20FDF7EEFACF
:1041A00008B070BD006400400010024000040048E8
:1041B00010B5040088B01422002103A800F007F90C
:1041C000124B22689A421FD18021114CC9026269A8
:1041D00010480A436261636903220B400193019B0B
:1041E000C0230393AE3B049303A9113B05930692AE
:1041F0000793FDF7EBFC8021E26989030A43E26142
:10420000E3690B400293029B08B010BD00540040CC
:1042100000100240000400487047FEE770477047F6
:1042200010B5FCF7BDFC10BD10B50248FDF76BFBE7
:1042300010BDC0466802002010B50248FCF75EFEC3
:1042400010BDC046C802002010B50248FDF771F944
:1042500010BDC0464C0100200121114B11481A68C5
:104260000A431A605A6802405A601A680E480240AF
:104270001A601A680D4802401A605A680C480240D9
:104280000F205A60DA6A8243DA621A6B09480240E8
:104290001A635A6B8A435A6300229A607047C04679
:1042A000001002400CB8FF08FFFFF6FEFFFFFBFF07
:1042B000FFFFC0FF2CFEFFFF13488546134801682F
:1042C000090E134A914205D112481349016013485F
:1042D0001349016013481449144A002302E0D458DA
:1042E000C4500433C4188C42F9D3114A114C002332
:1042F00001E013600432A242FBD3FFF7ADFF00F0F0
:104300001DF8FEF7ADFFFEE7FF17002004000000D8
:104310001F000000181002400100000000000140D2
:104320000000000000000020380000207045000858
:10433000380000201C030020FEE7000070B50026B6
:104340000C4D0D4C641BA410A64209D1002600F0B0
:1043500079F80A4D0A4C641BA410A64205D170BD21
:10436000B300EB5898470136EEE7B300EB58984797
:104370000136F2E76845000868450008684500080E
:104380006C450008931E10B50C00222B04D90023A5
:104390001C000B70200010BD0A2A09D1002807DA82
:1043A0002D230B7001214042611800F019F8F1E74C
:1043B0000021F9E710B5FFF7E5FF10BD002310B5A8
:1043C0009A4200D110BDCC5CC4540133F8E703001D
:1043D0001218934200D1704719700133F9E70000B9
:1043E000F0B517008DB0252206000D0002A8144973
:1043F000FFF7E4FF02AABB1E00240192222B05D97D
:104400002C70250028000DB0F0BD140030003900DC
:10441000FBF70AFF84460198621CAB18415C5E1EE4
:1044200031706646002EF0D11E702B005A1B94424C
:10443000E8DD1A78295D19702A550133013CF5E74A
:1044400040450008F8B5C046F8BC08BC9E46704719
:0C445000F8B5C046F8BC08BC9E4670479A
:10445C0002030405060708090A0B0C0D0E0F1010B9
:10446C000102030405060708090A0B0C0D0E0F10B8
:10447C00436F6D6D616E643A20307800000000006F
:10448C00000000006E040008AA030008CE03000818
:10449C006C030008CE0300084A040008CE03000891
:1044AC006C030008AA030008AA0300084A040008C9
:1044BC006C030008A0040008A0040008A004000875
:1044CC0056040008AA030008AA030008CE0300083B
:1044DC006A030008CE0300084A040008CE03000853
:1044EC006A030008AA030008AA0300084A0400088B
:1044FC006A030008A0040008A0040008A004000837
:10450C0054040008600162016401660168016A01DB
:10451C006C016E01610163016501670169016B0149
:10452C006D016F0100000000000000000102030497
:10453C000607080930313233343536373839616281
:10454C00636465666768696A6B6C6D6E6F707172B7
:0C455C00737475767778797A000000009F
:04456800E90000085E
:04456C00C100000882
:1045700001000000040000000106E803D007B80BAA
:10458000A00F88137017581B401F28230100FFFF3E
:104590000A00FF03FF03FF03FF03FF03FF03FF0303
:0845A000FF03FF0300127A0083
:04000005080042B9F4
:00000001FF
