:020000040800F2
:10000000FF3F0020197A0008E5780008EF78000823
:1000100000000000000000000000000000000000E0
:10002000000000000000000000000000F57800085B
:100030000000000000000000FF78000809790008B7
:10004000697A0008697A0008697A0008697A000804
:10005000697A0008697A0008697A0008697A0008F4
:10006000697A000819790008697A0008697A000835
:1000700031790008697A0008697A0008697A00080D
:10008000697A0008697A0008697A0008697A0008C4
:10009000697A0008697A0008697A000849790008D5
:1000A000697A0008697A0008697A0008697A0008A4
:1000B000697A0008697A000879790008697A000885
:1000C00010B5064C2378002B07D1054B002B02D02E
:1000D000044800E000BF0123237010BD3000002061
:1000E00000000000747B0008044B10B5002B03D007
:1000F0000349044800E000BF10BDC04600000000F6
:1001000034000020747B0008002243088B4274D323
:1001100003098B425FD3030A8B4244D3030B8B4208
:1001200028D3030C8B420DD3FF22090212BA030C11
:100130008B4202D31212090265D0030B8B4219D3F2
:1001400000E0090AC30B8B4201D3CB03C01A524112
:10015000830B8B4201D38B03C01A5241430B8B425A
:1001600001D34B03C01A5241030B8B4201D30B0343
:10017000C01A5241C30A8B4201D3CB02C01A52416A
:10018000830A8B4201D38B02C01A5241430A8B422D
:1001900001D34B02C01A5241030A8B4201D30B0216
:1001A000C01A5241CDD2C3098B4201D3CB01C01A30
:1001B000524183098B4201D38B01C01A524143093A
:1001C0008B4201D34B01C01A524103098B4201D328
:1001D0000B01C01A5241C3088B4201D3CB00C01A95
:1001E000524183088B4201D38B00C01A524143080D
:1001F0008B4201D34B00C01A5241411A00D2014632
:10020000524110467047FFE701B5002000F006F8A4
:1002100002BDC0460029F7D076E770477047C04658
:100220008446101C62468C46191C634600E0C0469A
:100230001FB500F02BFD002801D40021C8421FBDCE
:1002400010B500F083FC4042013010BD10B500F045
:100250001DFD002801DB002010BD012010BDC0469F
:1002600010B500F013FD002801DD002010BD0120B5
:1002700010BDC04610B500F0A5FC002801DC002030
:1002800010BD012010BDC04610B500F09BFC002839
:1002900001DA002010BD012010BDC0468446081CB4
:1002A0006146FFE71FB500F0D3F9002801D4002113
:1002B000C8421FBD10B500F055F94042013010BDD5
:1002C00010B500F0C5F9002801DB002010BD0120A9
:1002D00010BDC04610B500F0BBF9002801DD0020BC
:1002E00010BD012010BDC04610B500F063F9002814
:1002F00001DC002010BD012010BDC04610B500F08B
:1003000059F9002801DA002010BD012010BDC046B7
:100310009E2110B5C905041CFFF7F0FF002803D18A
:10032000201C00F0A9FB10BD9E21201CC90500F077
:10033000DFF900F0A1FB80231B069C466044F2E736
:10034000F8B557464E464546DE464402E0B54600FF
:100350008846640A360EC70F002E63D0FF2E24D0C5
:100360008023E400DB041C43002399469B467F3E28
:10037000434642465D02D20F5B006D0A1B0E90465B
:10038000924665D0FF2B55D080220021ED00D2048B
:100390007F3B1543F61A43464A467B400F2A00D955
:1003A0008DE06D48920082589746002C54D1082366
:1003B0009946063BFF269B46DAE70025534602296D
:1003C0001BD0032900D1BFE0012928D030007F30A5
:1003D000002820DD6A0704D00F222A40042A00D01A
:1003E00004352A0103D530005C4A80301540FE28D0
:1003F00003DCAC01640AC2B201E0FF220024640203
:10040000D205600ADB07104318433CBC904699466E
:10041000A246AB46F8BD0122101A1B287CDD002243
:100420000024ECE7002C1DD104239946033B002651
:100430009B469DE7FF3E002D20D1022143464A46C0
:100440007B400A430F2AD8D84548920082589746E5
:10045000002D19D10121F1E70C239946093BFF2614
:100460009B4685E7200000F0E9FC7626431F9C4070
:1004700000237642361A99469B4679E74A4603237B
:100480001A439146032186E7280000F0D7FC431F5A
:1004900036189D40763600217DE780240023E40352
:1004A000FF22ACE700258023DB031C4228D01D423D
:1004B00026D12B435C02640A4346FF229FE7620178
:1004C0006C01A24224D21B210025013E012710000D
:1004D0006D005200002801DB944201D8121B3D43FD
:1004E00001390029F3D11400621E944125436DE7C0
:1004F000BA46594625005346022900D061E77CE7F9
:100500008023DB031C436402640A3B00FF2276E77E
:10051000121B1A210125D9E79E362A00B5402C006E
:10052000C240651EAC411443620704D00F22224032
:10053000042A00D00434620103D4A401640A002216
:100540005DE7012200245AE78024E4032C4364027F
:10055000640AFF2253E7C046C07B0008FFFFFFF795
:10056000007C000870B542004E024C0045026D0A46
:10057000120EC30F760A240EC90FFF2A0FD0FF2CCC
:1005800011D00120A24200D070BDB542FCD18B42F7
:100590000DD0002AF8D12800451EA841F4E701201B
:1005A000002DF1D1EBE70120002EEDD1E9E700208D
:1005B000EAE7C04670B54A004E02450244006D0AA3
:1005C000240EC30F760A120EC90FFF2C15D0FF2A76
:1005D0000ED0002C15D1002A01D1002E1CD0002DE8
:1005E00014D08B4227D00220013B1840013870BD47
:1005F000002EEED002204042F9E7002DFAD1FF2A6A
:100600000ED0002A0ED1002EEDD00BE001230139CF
:10061000994308000130EAE70020002DE7D0E2E727
:10062000002EE7D18B42DED1944205DD0221581E17
:1006300008400138DBE70024A24204DCB542D2D8EE
:100640000020B542D3D2581E012398430130CEE793
:1006500030B5420044024D02C30F4800640A120E36
:100660006D0A000EC90FFF2A12D0FF280CD0002AF5
:1006700012D1002819D1002D17D1002C2BD0022027
:10068000013B1840013826E0002DF0D0022022E086
:10069000002CFBD1FF281FD000281FD1002D1DD119
:1006A0000220013B1840013815E0002C0ED08B428F
:1006B000E5D10022904204DCAC42E0D80020AC42FC
:1006C00009D2581E01239843013004E00123013967
:1006D00099430800013030BD002DD7D18B42CED1D7
:1006E0008242E7DD0221581E08400138F3E7C04688
:1006F000F8B54746CE464400C20F80B547024802CF
:10070000400A8446664648007F0A240EF60025000B
:100710009046FB00000EC90FB146FF2800D185E0CE
:1007200001267140261A914257D0002E43DD002841
:1007300000D07FE04946002900D1AAE0013E002E0A
:1007400000D0F7E05B1A5A0100D48BE09B019C09B2
:10075000200000F073FB05388440854200DDD3E0C3
:10076000451B230020200135EB40451BAC40621E99
:1007700094412343072400251C40012241460A409E
:10078000002C04D00F211940042900D00433590152
:1007900000D480E00135ECB2FF2D00D0A3E0FF24AF
:1007A00000235B02E405580AD207204310430CBC27
:1007B00090469946F8BD002E74D1601CC0B2012845
:1007C00000DCA7E04A469C1A620100D5B6E0002C86
:1007D000BED1002200240023E3E7002E00DC85E0E8
:1007E000002846D0FF2C49D080224846D20410432E
:1007F000814601221B2E09DC20204C46801B8440B0
:100800004A462000F240441EA04102439B185A0170
:1008100028D50135FF2D00D1A8E0012207249449F5
:100820001A405B080B4013431C40A6E7002E00D083
:1008300078E775E7FF2C54D080224946D204114353
:10084000894601221B2E09DC20214846891B88404D
:100850004A460100F240481E81410A439B1A5A0150
:1008600000D573E7012241460A40590700D089E7C5
:1008700011E04846002858D1FF2C0CD1DB08002B92
:1008800000D18CE78020C00303435B025B0AFF2496
:1008900087E7FF2C25D0DB08FF2DF0D05B025B0A39
:1008A000ECB27EE7002C4DD0FF2818D08024E40461
:1008B000724223431B2A00DDC4E01C002025D440E3
:1008C000AA1A93405A1E934123434A460500D31A5D
:1008D000884638E7721CF8D0F243FF28EAD10A00B4
:1008E0004B46FF25D7E79B015B0A5AE7002E41D113
:1008F000651CE9B2012945DDFF2D00D14FE7072432
:100900004B445B081C4038E707225A4B2D1A234002
:10091000144032E7002C1DD1002B7AD14B46002B1E
:1009200000D191E00A000025B5E7013E002E19D163
:100930004B446CE7FF2C84D1FF25ACE74A46884640
:10094000D41A05E7002BC5D10A00FF28C8D005003E
:100950004B46A0E7002B49D14B46002B77D00A002D
:10096000FF2598E7FF2C00D043E787E70A00FF2424
:10097000002316E7002C15D1002B57D1FF28E6D114
:100980004B467BE7002C20D1002B57D0494600294D
:1009900053D04B445A0168D50724364A1C400125E0
:1009A0001340EAE6FF28EBD08022D20476421343BC
:1009B0001B2E53DC2025AD1B1A00AB40F2405C1E01
:1009C000A34113434B44050021E7002BD8D04946EF
:1009D000002900D152E78021C9030F4200D14DE721
:1009E0006046084200D049E74B4647E74846FF25A6
:1009F000002800D14FE78022D203174204D060467E
:100A0000104201D14B46884601224146FF250A404B
:100A100041E7484600281FD01A1A500120D54A46FF
:100A20000724D31A1C4088460025A6E6741CC9D0AA
:100A3000F643FF28BCD14B4620E799464B4600259C
:100A4000DB082BE7012340E700220023A9E68023EF
:100A50000022DB03FF24A4E600251CE70123B1E705
:100A6000002AF1D013000025FCE60025FAE6C04676
:100A7000FFFFFF7DFFFFFFFB41024200C30F490A5A
:100A8000120E00207E2A0DD99D2A0CD88020000449
:100A90000143952A0ADC9620821AD1404842002B55
:100AA00000D108007047034A9818FBE7963A914036
:100AB000F4E7C046FFFFFF7F70B500283DD0C317A5
:100AC000C5185D40C40F280000F0B8F99E22121A24
:100AD000962A07DCD2B2082833DD08388540680240
:100AE000400A23E0992A0BDD052329001B1AD9406F
:100AF00003001B339D402B005D1EAB4119430D00CD
:100B0000052801DD431F9D402B000F490B406E0758
:100B100009D00F263540042D05D004335D0102D5E0
:100B20009F220B40121A9B01580AD2B24002D205F2
:100B3000400AE4071043204370BD00240022002037
:100B4000F4E76802400AF1E7FFFFFFFBF0B54F460C
:100B50004646D6468446C0B58046194E18030F0354
:100B60004D00000B5C0082463F0B6D0DC90F914696
:100B7000640DDB0F0120B5420AD0B44203D0A54278
:100B800001D157450CD01CBC90469946A246F0BDF9
:100B900066463E43F7D1AC42F5D154461443F2D1F8
:100BA0000120C845EFD1994207D0002DEBD1634613
:100BB0001F433800471EB841E5E70020E3E7C04681
:100BC000FF070000F0B54F464646D6464D00C0B57B
:100BD0000E03C90F8A462C491F035C008046360B62
:100BE0006D0D91463F0B640DDB0F8D421ED08C4284
:100BF00016D0002D1ED130438446002C01D13A433B
:100C000023D06246002A1AD09A4529D051460220A4
:100C10000139084001381CBC90469946A246F0BDF7
:100C200039001143E5D002204042F4E73043FAD1C5
:100C3000AC420FD0002C0FD13A43E7D00CE0012298
:100C4000013B934318000130E5E763460020002B89
:100C5000E1D0DBE73A43E6D19A45D7D1A542D5DCCE
:100C6000A54205DBBE42D1D808D00020BE42D2D278
:100C700050460123013898430130CCE7C845C5D818
:100C80000020C845F4D3C6E7FF070000F0B54F4683
:100C90004646D6464D00C0B50E03C90F8A462E49BA
:100CA0001F035C008046360B6D0D91463F0B640DB3
:100CB000DB0F8D4218D08C4211D0002D18D130435B
:100CC0008446002C1ED13A431CD163460020002BE1
:100CD00030D0514602200139084001382AE039005D
:100CE0001143EAD0022025E03043FBD1AC4226D0AC
:100CF000002C26D13A4324D1514602200139084024
:100D0000013817E06246002A0FD09A45E1D1A5428A
:100D100005DBBE42DDD819D00020BE420AD25046C3
:100D2000012301389843013004E00122013B934341
:100D3000180001301CBC90469946A246F0BD3A43CB
:100D4000D0D19A45C5D1A542C3DCE0E7C845C0D89B
:100D50000020C845E3D3EDE7FF07000030B5144D90
:100D60000A034B00120B5B0DC90F0024AB4211DDCF
:100D7000104CA34210DC8024640322430E4CE41A7E
:100D80001F2C0CDD0D48C31ADA4013005C42002909
:100D900000D11C00200030BD094BCC18FAE7094DEA
:100DA000E040AC4663449A4013000343EEE7C0467C
:100DB000FE0300001D0400003304000013040000C3
:100DC000FFFFFF7FEDFBFFFF70B500282DD0C3179D
:100DD000C5185D40C40F280000F030F8154B1B1AF1
:100DE0005B055B0D0A2815DD0B38854000222D03BD
:100DF0002D0B002110002D030A0D2D0B12052A4387
:100E00000D4D1B052A4013435B00E4075B08234399
:100E1000190070BD02002900153291400A000B2113
:100E2000081AC5402D032D0BE3E7002400230025FD
:100E30000022DEE71E040000FFFF0F801C210123BB
:100E40001B04984201D3000C10391B0A984201D3AD
:100E5000000A08391B09984201D30009043902A28B
:100E6000105C40187047C0460403020201010101F2
:100E7000000000000000000080B500AF074B1A68BA
:100E8000064B10210A431A60002000F009F806F012
:100E900099FB00231800BD4680BDC04600200240DB
:100EA00090B583B000AF7860144B1C68144B1B786E
:100EB0001900FA239800FFF727F903001900200012
:100EC000FFF722F90300180001F04DFC031E01D0CA
:100ED00001230FE07B68032B0BD8796801235B4269
:100EE0000022180001F016FC064B7A681A600023F5
:100EF00000E001231800BD4603B090BD280000208B
:100F0000040000200000002080B500AF054B1B78D6
:100F10001A00054B1B68D218034B1A60C046BD4629
:100F200080BDC04604000020A000002080B500AFB6
:100F3000024B1B681800BD4680BDC046A0000020C3
:100F400080B584B000AF7860FFF7F0FF0300BB60AE
:100F50007B68FB60FB68013305D0094B1B781A00E6
:100F6000FB689B18FB60C046FFF7E0FF0200BB6810
:100F7000D31AFA689A42F7D8C046BD4604B080BD7D
:100F80000400002080B584B000AF78600F23FB1808
:100F900000221A700023BB607B68002B01D1012363
:100FA00025E17B689B6B002B0AD17B680022DA630A
:100FB0007B683422002199547B68180006F026FBD8
:100FC0007B689B6B1022134000D003E10F23FB18BA
:100FD0001B78002B00D0FDE07B681B689B68042217
:100FE000134000D0F6E07B689B6B834A13400222DB
:100FF0001A437B689A637B681B689B6803221340D3
:10100000012B12D17B681B681B6801221340012B46
:1010100009D07B681B68DA6880231B021A40802392
:101020001B029A4201D1012300E00023002B16D1BC
:101030007B681B68DB681822934319007B689A68F9
:101040007B681B680A43DA607B681B681B699B002E
:1010500099087B685A687B681B680A431A617B6839
:101060001B68DA687B681B6864490A40DA607B6841
:101070001B7E9A037B685B7EDB031A437B689B7E47
:101080005B031A437B689B6A012B02D080235B01C0
:1010900000E000231A437B68DB681A437B681B6906
:1010A000022B01D1042300E000231A437B68242192
:1010B0005B5C5B001343BA681343BB607B68DB7EF9
:1010C000012B15D17B689B7E002B05D1BB6880224C
:1010D00052021343BB600BE07B689B6B20221A43D8
:1010E0007B689A637B68DB6B01221A437B68DA6357
:1010F0007B68DA69C223FF339A4207D07B68DA69DA
:101100007B681B6A1343BA681343BB607B681B6828
:10111000D9687B681B68BA680A43DA607B68DA6A58
:1011200080235B059A421BD07B68DB6A012B17D0BA
:101130007B68DB6A022B13D07B68DB6A032B0FD042
:101140007B68DB6A042B0BD07B68DB6A052B07D03E
:101150007B68DB6A062B03D07B68DB6A072B12D126
:101160007B681B685A697B681B6807218A435A6140
:101170007B681B6859697B68DB6A07221A407B68B9
:101180001B680A435A617B681B68DB681C4A134072
:10119000BA689A420BD17B680022DA637B689B6B4A
:1011A0000322934301221A437B689A631CE07B6805
:1011B0009B6B1222934310221A437B689A637B68CD
:1011C000DB6B01221A437B68DA630F23FB180122D1
:1011D0001A7009E07B689B6B10221A437B689A6344
:1011E0000F23FB1801221A700F23FB181B7818001D
:1011F000BD4604B080BDC046FDFEFFFF1902FEFFE4
:10120000E7FF3F8390B587B000AFF860B9607A60C0
:101210001723FB1800221A70FB681B689B680422C6
:1012200013405ED1FB6834229B5C012B01D1022369
:101230005EE0FB68342201219954FB685B7E012B40
:1012400007D01723FC18FB68180000F03BFA0300D6
:1012500023701723FB181B78002B46D1FB689B6B70
:10126000254A1340802252001A43FB689A63FB68A8
:101270000022DA63FB68342200219954FB681B6B5F
:101280001E4A9A62FB681B6B1D4ADA62FB681B6B85
:101290001C4A1A63FB681B681C221A60FB681B68E7
:1012A0005A68FB681B6810210A435A60FB681B6878
:1012B000DA68FB681B6801210A43DA60FB68186B77
:1012C000FB681B6840331900BA687B6801F072FB49
:1012D000FB681B689A68FB681B6804210A439A60D4
:1012E00003E01723FB1802221A701723FB181B7840
:1012F0001800BD4607B090BDFEF0FFFFBD17000807
:10130000711800088F18000880B582B000AF7860AF
:101310007B681B681B6804221340042B06D17B6882
:101320001B685B6804221340042B0DD07B681B688C
:101330001B6808221340082B4FD17B681B685B6831
:1013400008221340082B48D17B689B6B1022134066
:1013500006D17B689B6B802292001A437B689A635C
:101360007B681B68DA68C0231B0113402DD17B68A2
:101370009B7E002B29D17B681B681B6808221340C9
:10138000082B22D17B681B689B680422134010D174
:101390007B681B685A687B681B680C218A435A600B
:1013A0007B689B6B334A134001221A437B689A6324
:1013B0000BE07B689B6B20221A437B689A637B68F7
:1013C000DB6B01221A437B68DA637B68180005F047
:1013D000E3FD7B681B680C221A607B681B681B6836
:1013E00080221340802B15D17B681B685B688022AC
:1013F0001340802B0ED17B689B6B802252021A43D4
:101400007B689A637B68180000F03EF87B681B6875
:1014100080221A607B681B681B6810221340102B07
:1014200023D17B681B685B6810221340102B1CD1F2
:101430007B689B6A012B06D07B681B68DB680122F6
:101440001340012B0DD17B68DB6B02221A437B68B2
:10145000DA637B681B6810221A607B68180000F052
:101460001BF87B681B6810221A60C046BD4602B09C
:1014700080BDC046FEFEFFFF80B582B000AF786041
:10148000C046BD4602B080BD80B582B000AF786076
:10149000C046BD4602B080BD80B582B000AF786066
:1014A000C046BD4602B080BD80B584B000AF786054
:1014B00039600F23FB1800221A700023BB607B6881
:1014C000DA6A80235B059A4211D07B68DB6A012BC4
:1014D0000DD07B68DB6A022B09D07B68DB6A032BAB
:1014E00005D07B68DB6A042B01D07B68DB6A7B68F4
:1014F00034229B5C012B01D10223D0E07B68342293
:10150000012199547B681B689B680422134000D01A
:10151000B4E03B685B68644A934200D182E07B6838
:101520001B68996A3B681B6801229A407B681B68AC
:101530000A439A627B68DA6A80235B059A4237D055
:101540007B68DB6A012B33D07B68DB6A022B2FD0F0
:101550007B68DB6A032B2BD07B68DB6A042B27D0EC
:101560007B68DB6A052B23D07B68DB6A062B1FD0E8
:101570007B68DB6A072B1BD03B689A687B681B681B
:101580005B6907210B409A4212D07B681B685A693D
:101590007B681B6807218A435A617B681B6859690D
:1015A0003B689B6807221A407B681B680A435A61A4
:1015B0003B681B68102B07D03B681B68112B03D0BE
:1015C0003B681B68122B63D1384B19683B681B685A
:1015D000102B09D03B681B68112B02D18023DB0341
:1015E00004E080235B0401E080231B042F4A0B43AB
:1015F00013603B681B68102B4AD12D4B1B682D498B
:101600001800FEF781FD03001A0013009B009B18D1
:101610005B00BB6002E0BB68013BBB60BB68002BAA
:10162000F9D135E07B681B689A6A3B681B68012129
:1016300099400B00D9437B681B680A409A623B685B
:101640001B68102B07D03B681B68112B03D03B682D
:101650001B68122B1CD1154B19683B681B68102B9B
:1016600007D03B681B68112B01D1134B02E0134BD1
:1016700000E0134B0D4A0B40136009E07B689B6B45
:1016800020221A437B689A630F23FB1801221A70E9
:101690007B683422002199540F23FB181B78180013
:1016A000BD4604B080BDC0460110000008270140BF
:1016B0002800002040420F00FFFFBFFFFFFFFFFE9A
:1016C000FFFF7FFF80B584B000AF78600023FB6030
:1016D0000023BB607B681B689B6803221340012BBF
:1016E00012D17B681B681B6801221340012B09D0B3
:1016F0007B681B68DA6880231B021A4080231B0268
:101700009A4201D1012300E00023002B4BD17B68DA
:101710001B689B68264A13400DD07B689B6B102288
:101720001A437B689A637B68DB6B01221A437B68F0
:10173000DA63012338E07B681B689A687B681B6862
:1017400001210A439A601B4B1B681B491800FEF7D6
:10175000DBFC0300BB6002E0BB68013BBB60BB6815
:10176000002BF9D1FFF7E2FB0300FB6014E0FFF769
:10177000DDFB0200FB68D31A022B0DD97B689B6B43
:1017800010221A437B689A637B68DB6B01221A4341
:101790007B68DA63012307E07B681B681B68012212
:1017A0001340012BE3D100231800BD4604B080BDD7
:1017B000170000802800002040420F0080B584B050
:1017C00000AF78607B685B6AFB60FB689B6B5022B4
:1017D000134040D1FB689B6B802292001A43FB6848
:1017E0009A63FB681B68DA68C0231B0113402DD184
:1017F000FB689B7E002B29D1FB681B681B680822B5
:101800001340082B22D1FB681B689B6804221340FD
:1018100010D1FB681B685A68FB681B680C218A435F
:101820005A60FB689B6B114A134001221A43FB6804
:101830009A630BE0FB689B6B20221A43FB689A6358
:10184000FB68DB6B01221A43FB68DA63FB68180054
:1018500005F0A2FB05E0FB681B6B1B6B7A681000B0
:101860009847C046BD4604B080BDC046FEFEFFFF9F
:1018700080B584B000AF78607B685B6AFB60FB6812
:101880001800FFF7F9FDC046BD4604B080BD80B525
:1018900084B000AF78607B685B6AFB60FB689B6B21
:1018A00040221A43FB689A63FB68DB6B04221A43ED
:1018B000FB68DA63FB681800FFF7EEFDC046BD4623
:1018C00004B080BD80B584B000AF78607B68002B29
:1018D00001D10123F0E07B6820229B5CDBB2002B6E
:1018E00003D17B68180005F00BFF7B681B681A6842
:1018F0007B681B6802218A431A60FFF717FB03000D
:10190000FB6013E0FFF712FB0200FB68D31A0A2BFF
:101910000CD97B685B6A802292021A437B685A6208
:101920007B682022052199540123C5E07B681B6850
:101930005B6802221340E5D17B681B681A687B68EC
:101940001B6801210A431A60FFF7F0FA0300FB60ED
:1019500013E0FFF7EBFA0200FB68D31A0A2B0CD94D
:101960007B685B6A802292021A437B685A627B68BA
:1019700020220521995401239EE07B681B685B6847
:1019800001221340E5D07B681B7E012B08D17B68C8
:101990001B681A687B681B6880210A431A6007E08D
:1019A0007B681B681A687B681B6880218A431A6001
:1019B0007B685B7E012B08D17B681B681A687B689B
:1019C0001B6840210A431A6007E07B681B681A689D
:1019D0007B681B6840218A431A607B689B7E012BD1
:1019E00008D17B681B681A687B681B6820210A4342
:1019F0001A6007E07B681B681A687B681B682021F7
:101A00008A431A607B68DB7E012B08D17B681B68E8
:101A10001A687B681B6810218A431A6007E07B689C
:101A20001B681A687B681B6810210A431A607B6870
:101A30001B7F012B08D17B681B681A687B681B68B9
:101A400008210A431A6007E07B681B681A687B68F4
:101A50001B6808218A431A607B685B7F012B08D1D1
:101A60007B681B681A687B681B6804210A431A603C
:101A700007E07B681B681A687B681B6804218A433F
:101A80001A607B689A687B68DB681A437B681B690D
:101A90001A437B685B691A4311007B685B685A1EB6
:101AA0007B681B680A43DA617B6800225A627B68A4
:101AB00020220121995400231800BD4604B080BDA6
:101AC00080B586B000AF786039607B681B687B6149
:101AD00013203B187A682021525C1A703B181B783F
:101AE000012B05D01323FB181B78022B00D0CDE06F
:101AF0007A6980239B00D35801221A4311007A6926
:101B000080239B00D1503B685B691F221340012258
:101B10009A401300FB607A6987239B00D358FA68C8
:101B2000D2431A4011007A6987239B00D1503B6849
:101B3000DB69002B29D17A6983239B00D358FA688B
:101B4000D2431A4011007A6983239B00D1503B682D
:101B5000DB6818043B685B681B04190C3B685A6916
:101B600001437B694832D200D1503B689B6819041D
:101B70003B681B681B041A0C3B685B690A43796964
:101B80004833DB00CB1804331A603B68DB69012B58
:101B900028D17A6983239B00D258FB681A4311002D
:101BA0007A6983239B00D1503B681B6818043B680B
:101BB0005B681B04190C3B685A6901437B69483216
:101BC000D200D1503B689B6819043B68DB681B045A
:101BD0001A0C3B685B690A4379694833DB00CB1810
:101BE00004331A603B689B69002B0CD17A6981230E
:101BF0009B00D358FA68D2431A4011007A698123B6
:101C00009B00D1500AE07A6981239B00D258FB687F
:101C10001A4311007A6981239B00D1503B681B69EC
:101C2000002B0CD17A6985239B00D358FA68D243E4
:101C30001A4011007A6985239B00D1500AE07A6925
:101C400085239B00D258FB681A4311007A698523CB
:101C50009B00D1503B681B6A012B0AD17A6987230C
:101C60009B00D258FB681A4311007A6987239B00B6
:101C7000D1507A6980239B00D358012293431900E5
:101C80007A6980239B00D150002307E07B685B6A60
:101C90008022D2021A437B685A6201231800BD4693
:101CA00006B080BD80B584B000AF78607B6820222C
:101CB0009B5CDBB2012B2FD17B682022022199543F
:101CC0007B681B681A687B681B6801218A431A605D
:101CD000FFF72CF90300FB6013E0FFF727F9020080
:101CE000FB68D31A0A2B0CD97B685B6A80229202AC
:101CF0001A437B685A627B6820220521995401238C
:101D000012E07B681B685B6801221340E5D17B68A9
:101D100000225A62002307E07B685B6A802212037C
:101D20001A437B685A6201231800BD4604B080BD87
:101D300080B588B000AFF860B9607A603B601F2062
:101D40003B18FA682021525C1A70FB681B689B687C
:101D5000BB613B181B78012B05D01F23FB181B7898
:101D6000022B00D0B7E0BA698023DB0413400AD10C
:101D7000BA6980231B05134005D1BA6980235B052E
:101D8000134000D19EE0BB691B0E032213407B6110
:101D90007B69022B08D9FB685B6A802212041A4314
:101DA000FB685A6201239EE001227B699A403B68EE
:101DB0001A60BB689B68002B0CD1BB681B68590577
:101DC000BB68DA68FB681B6811437A691832120134
:101DD000D1500FE0BB685B68DA00BB689B681A43B0
:101DE0001100BB68DA68FB681B6811437A69183216
:101DF0001201D150FB681968BB681A697B691833F6
:101E00001B01CB1804331A60BB681B7D012B12D158
:101E1000FB681A687B6918331B01D31804331A68EE
:101E2000FB68196880235B001A437B6918331B0128
:101E3000CB1804331A607B6807331B781A067B685B
:101E400006331B781B041A437B6805331B781B027F
:101E50001A437B6804331B781900FB6818680A432F
:101E60007969C6235B0009014118CB181A607B68A9
:101E700003331B781A067B6802331B781B041A4352
:101E80007B6801331B781B021A437B681B7819009F
:101E9000FB6818680A437969C4235B00090141188B
:101EA000CB181A60FB681B687A6918321201D25885
:101EB000FB681B68012111437A6918321201D15065
:101EC000002310E0FB685B6A802292031A43FB68E0
:101ED0005A62012307E0FB685B6A8022D2021A4340
:101EE000FB685A6201231800BD4608B080BD80B56A
:101EF00086B000AFF860B9607A603B6017203B188D
:101F0000FA682021525C1A703B181B78012B05D00F
:101F10001723FB181B78022B00D0F8E0BB68002BBE
:101F20000ED1FB681B68DB680322134017D1FB68E6
:101F30005B6A802292031A43FB685A620123EEE037
:101F4000FB681B681B690322134008D1FB685B6AAE
:101F5000802292031A43FB685A620123DFE0FB6888
:101F60001B68BA681B321201D35804221A407B68DE
:101F70009A607B689B68002B0BD1FB681B68BA6872
:101F80001B321201D3585B0D5B055A0D7B681A603A
:101F90000AE0FB681B68BA681B321201D358DB08E1
:101FA000DB00DA087B685A60FB681B68BA681B3282
:101FB0001201D35802221A407B68DA60FB681A6863
:101FC000BB681B331B01D31804331B680F221A4054
:101FD0007B681A61FB681A68BB681B331B01D31846
:101FE00004331B681B0AFF221A407B689A61FB6856
:101FF0001A68BB681B331B01D31804331B681B0C06
:102000001B041A0C7B685A61FB681968BA68DC23E8
:102010005B0012018A18D3181B68DAB23B681A7089
:10202000FB681968BA68DC235B0012018A18D318B0
:102030001B681A0A3B680133D2B21A70FB68196830
:10204000BA68DC235B0012018A18D3181B681A0CCB
:102050003B680233D2B21A70FB681968BA68DC2395
:102060005B0012018A18D3181B681A0E3B680333F1
:10207000D2B21A70FB681968BA68DE235B001201DD
:102080008A18D3181A683B680433D2B21A70FB68F6
:102090001968BA68DE235B0012018A18D3181B681E
:1020A0001A0A3B680533D2B21A70FB681968BA681D
:1020B000DE235B0012018A18D3181B681A0C3B68D8
:1020C0000633D2B21A70FB681968BA68DE235B0067
:1020D00012018A18D3181B681A0E3B680733D2B254
:1020E0001A70BB68002B08D1FB681B68DA68FB68B4
:1020F0001B6820210A43DA6007E0FB681B681A6945
:10210000FB681B6820210A431A61002307E0FB6873
:102110005B6A8022D2021A43FB685A6201231800CC
:10212000BD4606B080BD80B584B000AF7860396030
:102130000F203B187A682021525C1A703B181B78DC
:10214000012B04D00F23FB181B78022B09D17B68CD
:102150001B6859697B681B683A680A435A61002307
:1021600007E07B685B6A8022D2021A437B685A626E
:1021700001231800BD4604B080BD80B58AB000AF11
:10218000786000237B627B681B685B693B627B68CD
:102190001B685B68FB617B681B689B68BB617B6835
:1021A0001B68DB687B617B681B681B693B617B6824
:1021B0001B689B69FB603B6A0122134000D184E0ED
:1021C000BB690122134024D07B681B6801229A60FE
:1021D000BB690222134004D07B68180000F07EF92E
:1021E00017E0BB690422134005D07B6A80221201EC
:1021F00013437B620DE0BB690822134005D07B6A64
:102200008022520113437B6203E07B68180000F0D8
:102210007DF9BA6980235B00134028D07B681B6876
:10222000802252009A60BA6980239B00134004D038
:102230007B68180000F05AF919E0BA698023DB00C6
:10224000134005D07B6A8022920113437B620EE02B
:10225000BA6980231B01134005D07B6A8022D2011A
:1022600013437B6203E07B68180000F057F9BA69FA
:1022700080235B02134028D07B681B6880225202B7
:102280009A60BA6980239B02134004D07B681800CF
:1022900000F034F919E0BA698023DB02134005D05D
:1022A0007B6A8022120213437B620EE0BA698023AC
:1022B0001B03134005D07B6A8022520213437B62CA
:1022C00003E07B68180000F031F93B6A08221340F4
:1022D0000CD07B691022134008D07B6A80229200C8
:1022E00013437B627B681B681022DA603B6A04221E
:1022F00013400BD07B690822134007D07B681B6812
:102300000822DA607B68180000F018F93B6A0222A4
:10231000134009D07B681B68DB680322134003D09D
:102320007B68180004F040FE3B6A402213400CD04A
:102330003B691022134008D07B6A8022D2001343ED
:102340007B627B681B6810221A613B6A2022134063
:102350000BD03B690822134007D07B681B6808221A
:102360001A617B68180000F0F9F83B6A10221340EC
:1023700009D07B681B681B690322134003D07B686C
:10238000180000F0E3F83A6A80239B0213400BD058
:10239000FB691022134007D07B681B6810225A602B
:1023A0007B68180000F0E2F83A6A80235B02134071
:1023B0000BD0FB690822134007D07B681B680822FA
:1023C0005A607B68180000F0D9F83A6A80231B0233
:1023D000134000D171E0FB690422134000D168E092
:1023E0003A6A80235B00134007D0FB680122134048
:1023F00003D07B6A012213437B623A6A80239B00ED
:10240000134007D0FB680222134003D07B6A0222EC
:1024100013437B623A6A8023DB00134007D0FB68DA
:102420000422134003D07B6A042213437B623A6A7E
:1024300080231B0113403CD0FB687022134038D02E
:10244000FB6870221340302B16D004D8102B09D013
:10245000202B0CD025E0502B18D0602B1BD0402B0C
:102460000FD01EE07B6A082213437B6219E07B6A6F
:10247000102213437B6214E07B6A202213437B62A9
:102480000FE07B6A402213437B620AE07B6A802272
:1024900013437B6205E07B6A8022520013437B6218
:1024A000C0467B681B689A697B681B6870218A43F9
:1024B0009A617B681B6804225A607B6A002B09D0F2
:1024C0007B685A6A7B6A1A437B685A627B68180089
:1024D00000F05CF8C046BD460AB080BD80B582B051
:1024E00000AF7860C046BD4602B080BD80B582B006
:1024F00000AF7860C046BD4602B080BD80B582B0F6
:1025000000AF7860C046BD4602B080BD80B582B0E5
:1025100000AF7860C046BD4602B080BD80B582B0D5
:1025200000AF7860C046BD4602B080BD80B582B0C5
:1025300000AF7860C046BD4602B080BD80B582B0B5
:1025400000AF7860C046BD4602B080BD80B582B0A5
:1025500000AF7860C046BD4602B080BD80B582B095
:1025600000AF7860C046BD4602B080BD80B582B085
:1025700000AF7860C046BD4602B080BD80B582B075
:1025800000AF7860C046BD4602B080BD80B582B065
:1025900000AF7860C046BD4602B080BD80B582B055
:1025A00000AF0200FB1D1A70FB1D1B787F2B09D8A2
:1025B000FB1D1B781A001F231A40044B0121914078
:1025C0000A001A60C046BD4602B080BD00E100E0CE
:1025D00090B583B000AF02003960FB1D1A70FB1D7F
:1025E0001B787F2B28D82F4AFB1D1B785BB29B08DA
:1025F000C0339B009B58FA1D1278110003220A4039
:10260000D200FF2191400A00D2431A4011003B68DA
:102610009B01FF221A40FB1D1B7818000323034077
:10262000DB009A401F48FB1D1B785BB29B080A43E6
:10263000C0339B001A5031E01B4AFB1D1B78190068
:102640000F230B40083B9B0806339B00D318043331
:102650001B68FA1D1278110003220A40D200FF21E4
:1026600091400A00D2431A4011003B689B01FF22AF
:102670001A40FB1D1B78180003230340DB009A401F
:102680000948FB1D1B781C000F232340083B9B08B7
:102690000A4306339B00C31804331A60C046BD4684
:1026A00003B090BD00E100E000ED00E080B500AFB8
:1026B000BFF34F8F034B044ADA60BFF34F8FC0461E
:1026C000FDE7C04600ED00E00400FA0580B582B0E9
:1026D00000AF78607B68013B0C4A934201D901232B
:1026E00010E00B4B7A68013A5A6001235B420321E8
:1026F0001800FFF76DFF064B00229A60044B07227B
:102700001A6000231800BD4602B080BDFFFFFF0025
:1027100010E000E080B584B000AFB9607A600F21AE
:102720007B18021C1A70BA687B181B785BB2110008
:102730001800FFF74DFFC046BD4604B080BD80B510
:1027400082B000AF0200FB1D1A70FB1D1B785BB24C
:102750001800FFF723FFC046BD4602B080BD80B51C
:1027600000AFFFF7A3FF80B582B000AF78607B6851
:102770001800FFF7ABFF03001800BD4602B080BD94
:1027800080B582B000AF78607B68002B01D1012357
:1027900015E07B681B79DBB2002B06D17B68002239
:1027A0005A717B68180005F001F87B6802221A71E3
:1027B0007B6800221A617B6801221A7100231800CD
:1027C000BD4602B080BD80B586B000AFF860B9608C
:1027D0007A603B6000237B61FB681B687B61BB68A0
:1027E000002B05D17A697B68D31808337B6104E03C
:1027F0007A697B68D31814337B617B693A681A6005
:1028000000231800BD4606B080BD000080B586B02C
:1028100000AFF860B9607A6000237B6100233B6100
:10282000FB685B79012B01D1022329E0FB680122BF
:102830005A71FB6802221A71FB681B681B687B6176
:10284000114A7B689A401300DA437B6913407B612D
:10285000BB681A68BB685B6813433B613A697B6875
:102860009A4013007A6913437B61FB681B687A699D
:102870001A60FB6801221A71FB6800225A7100235A
:102880001800BD4606B080BDFE0F000080B582B0C6
:1028900000AF786039607B685B79012B01D102233E
:1028A0003BE07B6801225A717B6802221A717B68C7
:1028B0001B68196801223B689A407B681B680A43C1
:1028C0001A603B68002B0FD17B681B681B683C2299
:1028D00013403C2B1AD17B681B685A687B681B68C5
:1028E00001210A435A6011E07B681B681A68F023D3
:1028F0009B031A40F0239B039A4207D17B681B6815
:102900005A687B681B6802210A435A607B6801226F
:102910001A717B6800225A7100231800BD4602B06C
:1029200080BD000080B584B000AF78600023FB60FC
:102930007B68002B01D1012336E07B682122022134
:1029400099547B681B681B68FB60FB68184A13403E
:10295000FB607B685A687B689B681A437B68DB680E
:102960001A437B681B691A437B685B691A437B685F
:102970009B691A437B68DB691343FA681343FB6066
:102980007B681B68FA681A607B68180000F098F989
:102990007B6800229A637B682122012199547B681D
:1029A00020220021995400231800BD4604B080BDA8
:1029B0000FC0FFFF80B586B000AFF860B9607A60E5
:1029C0003B601723FB1800221A70FB6820229B5CD7
:1029D000012B01D102234FE0FB68202201219954F1
:1029E000FB6821229B5CDBB2012B3AD1FB682122E0
:1029F00002219954FB6800229A63FB681B681A68DD
:102A0000FB681B6801218A431A603B687A68B968D1
:102A1000F86800F029F9FB68DB6A002B08D0FB6836
:102A20001B681A68FB681B680E210A431A600FE0D6
:102A3000FB681B681A68FB681B680A210A431A6056
:102A4000FB681B681A68FB681B6804218A431A60CC
:102A5000FB681B681A68FB681B6801210A431A603F
:102A600007E0FB682022002199541723FB1802225B
:102A70001A701723FB181B781800BD4606B080BDDE
:102A800080B584B000AF78600F23FB1800221A7065
:102A90007B6821229B5CDBB2022B07D07B6804227F
:102AA0009A630F23FB1801221A7028E07B681B68C9
:102AB0001A687B681B680E218A431A607B681B6852
:102AC0001A687B681B6801218A431A607B681A6C4C
:102AD0007B68DB6B012191400A005A607B682122F0
:102AE000012199547B682022002199547B685B6BFB
:102AF000002B04D07B685B6B7A68100098470F232B
:102B0000FB181B781800BD4604B080BD80B584B0AA
:102B100000AF78607B68DB6B1B68FB607B681B68C1
:102B20001B68BB607B681B6C04229A401300FA6828
:102B3000134024D0BB680422134020D07B681B685C
:102B40001B682022134007D17B681B681A687B68CA
:102B50001B6804218A431A607B681A6C7B68DB6BF4
:102B6000042191400A005A607B68DB6A002B00D187
:102B70006AE07B68DB6A7A681000984764E07B68EB
:102B80001B6C02229A401300FA6813402BD0BB68DA
:102B90000222134027D07B681B681B682022134049
:102BA0000BD17B681B681A687B681B680A218A4303
:102BB0001A607B682122012199547B681A6C7B681A
:102BC000DB6B022191400A005A607B6820220021C1
:102BD00099547B689B6A002B36D07B689B6A7A6825
:102BE0001000984730E07B681B6C08229A40130065
:102BF000FA68134028D0BB680822134024D07B68B1
:102C00001B681A687B681B680E218A431A607B6800
:102C10001A6C7B68DB6B012191400A005A607B686B
:102C200001229A637B682122012199547B6820222A
:102C3000002199547B681B6B002B05D07B681B6BB4
:102C40007A6810009847FFE7C046BD4604B080BDD3
:102C500080B582B000AF78607B6821229B5CDBB2DC
:102C60001800BD4602B080BD80B584B000AFF860EA
:102C7000B9607A603B60FB681A6CFB68DB6B012112
:102C800091400A005A60FB681B683A685A60FB680A
:102C90005B68102B08D1FB681B687A689A60FB6838
:102CA0001B68BA68DA6007E0FB681B68BA689A605C
:102CB000FB681B687A68DA60C046BD4604B080BD18
:102CC00080B582B000AF78607B681B68084A944684
:102CD000634414211800FDF717FA03009A007B687B
:102CE0001A647B68034ADA63C046BD4602B080BD01
:102CF000F8FFFDBF00000240F0B587B000AFF860FC
:102D0000B9603A607B601723FB1801221A70162302
:102D1000FB1800221A701523FB1800221A703E4B74
:102D20001B7E012B01D1022372E03B4B01221A765C
:102D30001723FE18394B180000F0C4F80300337055
:102D40001723FB181B78002B5CD1FB68012B04D1E7
:102D50001523FB1801221A700BE0FB68022B04D12B
:102D60001523FB1802221A7003E01523FB18042216
:102D70001A701623FB1800221A7039E016217B18EE
:102D80001B785A00BB68D0187B181B781B011A00EF
:102D9000203A002A03DB7968D1400C0008E02022A9
:102DA000D21A796891400A003968D9400C0014435E
:102DB0007A68DA401500A3B2190000F067F817230B
:102DC000FE18164B180000F07DF803003370144B0A
:102DD0001A69134B01218A431A611723FB181B78C8
:102DE000002B0ED116217B181A787B1801321A702D
:102DF0001623FA181523FB1812781B789A42BDD3B4
:102E000000E0C046044B00221A761723FB181B78FB
:102E10001800BD4607B0F0BDA800002050C3000058
:102E20000020024080B582B000AFFB1D00221A7066
:102E30000C4B1B69802213400DD00A4B0A4A5A6082
:102E4000084B0A4A5A60074B1B698022134002D084
:102E5000FB1D01221A70FB1D1B781800BD4602B035
:102E600080BDC0460020024023016745AB89EFCDFD
:102E700080B500AF044B1A69034B80210A431A61E5
:102E800000231800BD4680BD0020024080B582B0FE
:102E900000AF78600A00BB1C1A80084B0022DA6180
:102EA000074B1A69064B01210A431A617B68BA1C59
:102EB00012881A80C046BD4602B080BDA80000201E
:102EC0000020024080B584B000AF7860FEF72EF895
:102ED0000300FB600FE07B6801330CD07B68002BA4
:102EE00007D0FEF723F80200FB68D31A7A689A42EB
:102EF00001D203231FE0124BDB6801221340012B98
:102F0000E9D00F4BDB6820221340202B02D10C4B61
:102F10002022DA600A4BDB6810221340102B05D008
:102F2000074BDB6804221340042B03D100F00AF89E
:102F3000012300E000231800BD4604B080BDC04658
:102F40000020024080B582B000AF00237B60134BAD
:102F5000DB6810221340102B09D1114BDB690222D0
:102F60001A430F4BDA617B68102213437B600B4BD3
:102F7000DB6804221340042B09D1094BDB690122D1
:102F80001A43074BDA617B68042213437B60034BCF
:102F90007A68DA60C046BD4602B080BD00200240BB
:102FA000A8000020B0B584B000AF786039600F236E
:102FB000FB1801221A700023BB60324B1B7E012BD1
:102FC00001D102235AE02F4B01221A767B681B683D
:102FD000012B16D12C4B1800FFF774FF031E47D1AD
:102FE00000F056F80F23FC18274B1800FFF76AFF74
:102FF00003002370254B1A69244B04218A431A616C
:1030000036E0214B1800FFF75DFF031E30D13B680F
:10301000012252421A607B685B68BB601FE0BB689C
:10302000180000F04DF80F257C19174B1800FFF71A
:1030300049FF03002370154B1A69144B02218A4380
:103040001A617B191B78002B03D03B68BA681A60A1
:103050000EE0BB688022120194466344BB607B682B
:103060009B68DA027B685B68D318BA689A42D6D349
:10307000044B00221A760F23FB181B781800BD465C
:1030800004B0B0BDA800002050C3000000200240E2
:1030900080B500AF084B0022DA61084B1A69074B74
:1030A00004210A431A61054B1A69044B40210A4363
:1030B0001A61C046BD4680BDA80000200020024025
:1030C00080B582B000AF78600A4B0022DA610A4B0B
:1030D0001A69094B02210A431A61074B7A685A613F
:1030E000054B1A69044B40210A431A61C046BD468C
:1030F00002B080BDA80000200020024080B586B04C
:1031000000AF7860396000237B6155E13B681B6844
:1031100001217A6991400A001340FB60FB68002B93
:1031200000D146E13B685B68012B0BD03B685B68D4
:10313000022B07D03B685B68112B03D03B685B68B0
:10314000122B30D17B689B683B617B695B0003225B
:103150009A401300DA433B6913403B613B68DA68ED
:103160007B695B009A4013003A6913433B617B68BB
:103170003A699A607B685B683B6101227B699A408F
:103180001300DA433B6913403B613B685B681B09F2
:1031900001221A407B699A4013003A6913433B614C
:1031A0007B683A695A607B68DB683B617B695B00DE
:1031B00003229A401300DA433B6913403B613B68AA
:1031C0009A687B695B009A4013003A6913433B613C
:1031D0007B683A69DA603B685B68022B03D03B6826
:1031E0005B68122B23D17B69DA087B680832920076
:1031F000D3583B617B69072213409B000F229A4002
:103200001300DA433B6913403B613B681A697B69F1
:1032100007210B409B009A4013003A6913433B611E
:103220007B69DA087B68083292003969D1507B6883
:103230001B683B617B695B0003229A401300DA4301
:103240003B6913403B613B685B6803221A407B6922
:103250005B009A4013003A6913433B617B683A690B
:103260001A603B685A6880235B05134000D1A0E0D8
:10327000574B9A69564B01210A439A61544B9B69FB
:1032800001221340BB60BB68524A7B699B08023332
:103290009B009B583B617B69032213409B000F22DC
:1032A0009A401300DA433B6913403B617A689023EC
:1032B000DB059A4219D07B68474A934213D07B685A
:1032C000464A93420DD07B68454A934207D07B68BB
:1032D000444A934201D1042308E0052306E0032376
:1032E00004E0022302E0012300E000237A690321C5
:1032F0000A40920093403A6913433B6135497B6928
:103300009B0802339B003A695A50374B1B683B615C
:10331000FB68DA433B6913403B613B685A68802392
:103320005B02134003D03A69FB6813433B612E4BA9
:103330003A691A602C4B5B683B61FB68DA433B6976
:1033400013403B613B685A6880239B02134003D0C3
:103350003A69FB6813433B61234B3A695A60224B3D
:103360009B683B61FB68DA433B6913403B613B6808
:103370005A6880235B03134003D03A69FB68134308
:103380003B61194B3A699A60174BDB683B61FB68FC
:10339000DA433B6913403B613B685A6880239B03D7
:1033A000134003D03A69FB6813433B610E4B3A6903
:1033B000DA607B6901337B613B681A687B69DA40BC
:1033C000131E00D0A2E6C046BD4606B080BDC04672
:1033D00000100240000001400004004800080048BE
:1033E000000C0048001000480004014080B582B085
:1033F00000AF786008001100BB1C021C1A807B1C07
:103400000A1C1A707B1C1B78002B04D0BB1C1A886A
:103410007B689A6103E0BB1C1A887B689A62C0468D
:10342000BD4602B080BD000080B582B000AF7860BC
:103430007B68002B01D1012382E07B6841229B5CE9
:10344000DBB2002B07D17B684022002199547B68B6
:10345000180004F0F1F97B684122242199547B681B
:103460001B681A687B681B6801218A431A607B68A5
:103470005A687B681B6834490A401A617B681B687C
:103480009A687B681B6831490A409A607B68DB68F0
:10349000012B08D17B689A687B681B688021090230
:1034A0000A439A6007E07B689A687B681B688421FE
:1034B00009020A439A607B68DB68022B04D17B68AF
:1034C0001B68802212015A607B681B685A687B68FF
:1034D0001B681F490A435A607B681B68DA687B686F
:1034E0001B681A490A40DA607B681A697B685B6965
:1034F0001A4311007B689B691A027B681B680A43A8
:10350000DA607B68D9697B681A6A7B681B680A4342
:103510001A607B681B681A687B681B6801210A4374
:103520001A607B6800225A647B68412220219954EA
:103530007B6800221A637B68422200219954002391
:103540001800BD4602B080BDFFFFFFF0FF7FFFFF08
:103550000080000280B582B000AF78607B684122B5
:103560009B5CDBB2202B0FD17B6841222821995430
:103570007B68084A5A6380231A027B68110018008E
:1035800001F0E4F8002300E002231800BD4602B079
:1035900080BDC046D136000880B584B000AF7860E9
:1035A0007B681B689B69FB607B681B681B68BB6052
:1035B0007B685B6B002B05D07B685B6BBA68F96836
:1035C00078689847C046BD4604B080BD80B586B0D7
:1035D00000AF78607B681B689B697B617B681B68B8
:1035E0001B683B617B691B0A1A000123134010D042
:1035F0003B69DB091A00012313400AD07B685B6C2E
:1036000001221A437B685A647B681B68802252003F
:10361000DA617B699B0A1A000123134010D03B69D1
:10362000DB091A00012313400AD07B685B6C082277
:103630001A437B685A647B681B688022D200DA6177
:103640007B695B0A1A000123134010D03B69DB0938
:103650001A00012313400AD07B685B6C02221A43D4
:103660007B685A647B681B6880229200DA617B6801
:103670005B6CFB60FB680B22134005D0FA687B682B
:103680001100180000F0DEFEC046BD4606B080BD49
:1036900080B582B000AF7860C046BD4602B080BD44
:1036A00080B582B000AF7860C046BD4602B080BD34
:1036B00080B582B000AF7860C046BD4602B080BD24
:1036C00080B582B000AF7860C046BD4602B080BD14
:1036D00080B586B000AFF860B9607A60FB68DB6ADD
:1036E0007B61BB683B61FB6840229B5C012B01D185
:1036F0000223FAE0FB684022012199543B695B09EF
:103700001A00012313400BD07B685B091A000123C8
:10371000134005D03A69FB681100180000F012FD53
:103720003B691B091A000123134054D07B681B0915
:103730001A00012313404ED0FB685B8D9BB2002B17
:103740002DD1FB6841229B5CDBB2282B0BD17A691F
:1037500080239B049A4206D13A69FB681100180045
:1037600000F016FE36E0FB6841229B5CDBB2292BA1
:1037700010D17B695F4A93420CD0FB681B68102212
:10378000DA61FB68180000F06AFFFB68180000F0BF
:10379000A1FB1FE0FB681B681022DA619DE0FB685B
:1037A0001B681022DA61FB685B6C04221A43FB6819
:1037B0005A647B69002B05D07A6980235B049A42A6
:1037C00000D08AE0FB685A6CFB681100180000F01A
:1037D00039FE82E081E03B699B081A000123134017
:1037E00031D07B689B081A00012313402BD0FB6863
:1037F0005B8D9BB2002B18D0FB681B685A6AFB6874
:103800005B6AD2B21A70FB685B6A5A1CFB685A6228
:10381000FB681B8D013B9AB2FB681A85FB685B8DC8
:103820009BB2013B9AB2FB685A85FB685B8D9BB2E9
:10383000002B54D17B692F4A934250D0FB6818006B
:1038400000F048FB4BE03B69DB081A000123134002
:103850000CD07B68DB081A000123134006D03A69BC
:10386000FB681100180000F04BFA39E03B695B0877
:103870001A000123134033D07B685B081A00012330
:1038800013402DD0FB685B8D9BB2002B18D0FB68DA
:103890005B6A1A78FB681B689A62FB685B6A5A1C51
:1038A000FB685A62FB685B8D9BB2013B9AB2FB6876
:1038B0005A85FB681B8D013B9AB2FB681A850FE0A5
:1038C0007A6980235B049A4202D07B69002B07D17E
:1038D000FB68180000F0FEFA02E0C04600E0C046B7
:1038E000FB6840220021995400231800BD4606B011
:1038F00080BDC0460000FFFF90B589B002AFF86000
:10390000B9607A60FB6840229B5C012B01D10223E5
:10391000F7E0FB68402201219954BB681B091A009B
:103920000123134019D07B681B091A00012313409F
:1039300013D0FB681B681022DA61FB685B6C042201
:103940001A43FB685A64FB682021180000F0FEFE51
:10395000FB68180000F083FECEE0BB68DB091A00AC
:103960000123134000D17EE07B689B091A000123EC
:10397000134000D177E0FB681B681A68FB681B687E
:1039800040218A431A60FB685B8D9BB2002B55D0A7
:10399000FB681B685B689AB21223FB189205920DB4
:1039A0001A80FB685B8D9BB2FF2B06D9FB68FF2258
:1039B0001A8580235B047B6110E0FB685B8D9AB203
:1039C000FB681A85FB68DB6A504A934203D0FB68A8
:1039D000DB6A7B6102E080239B047B61FB681B8DBB
:1039E000DAB27C691223FB181988F8680023009367
:1039F000230000F075FEFB685B8D9AB2FB681B8D9F
:103A0000D31A9AB2FB685A85FB6841229B5CDBB2F1
:103A1000222B09D1FB681B681A68FB681B68802190
:103A200009020A431A6067E0FB681B681A68FB68B2
:103A30001B688021C9010A431A605DE0FB681B68AE
:103A40005A6880239B041A4080239B049A4204D026
:103A5000FB68180000F0FDF94EE0FB6840211800FB
:103A600000F0F0FC48E0BB689B091A0001231340FA
:103A70002ED07B689B091A000123134028D0FB68D5
:103A80005B8D9BB2002B1DD1FB681B685A6880239D
:103A90009B041A4080239B049A422CD0FB68DB6A6B
:103AA0001A4A934209D1FB681B685A68FB681B6875
:103AB0008021C9010A435A601DE0FB68180000F02C
:103AC000C8F918E0FB684021180000F0BBFC12E0C8
:103AD000BB685B091A00012313400DD07B685B09AA
:103AE0001A000123134007D0BA68FB6811001800C0
:103AF00000F056FA00E0C046FB68402200219954CD
:103B000000231800BD4607B090BDC0460000FFFF6F
:103B100080B588B000AFF860B9607A60FB68DB6A96
:103B2000BB610023FB61FB6840229B5C012B01D140
:103B30000223DFE0FB68402201219954BB685B0946
:103B40001A00012313400BD07B685B091A00012384
:103B5000134005D0BA68FB681100180000F0F2FAB3
:103B6000BB681B091A000123134000D1ABE07B683E
:103B70001B091A000123134000D1A4E07B689B0BB2
:103B80001A000123134006D17B68DB0B1A000123C6
:103B9000134000D190E0FB68DB6B002B0DD07B68FD
:103BA000DB0B1A000123134007D0FB68DB6B1B689B
:103BB0005B68002B01D10123FB61FB689B6B002B31
:103BC0000DD07B689B0B1A000123134007D0FB68C4
:103BD0009B6B1B685B68002B01D10123FB61FB69B8
:103BE000012B2DD1FB6841229B5CDBB2282B0BD132
:103BF000BA6980239B049A4206D1BA68FB68110017
:103C0000180000F0C5FB56E0FB6841229B5CDBB26C
:103C1000292B10D1BB69394A93420CD0FB681B6831
:103C20001022DA61FB68180000F019FDFB6818002B
:103C300000F050F93FE0FB681B681022DA6140E0B9
:103C4000FB681B681022DA61FB685B6C04221A4374
:103C5000FB685A641723FB18FA684121525C1A70FA
:103C6000BB69002B04D0BA6980235B049A4228D137
:103C70001723FB181B78212B04D01723FB181B7864
:103C8000292B03D1FB6821221A630CE01723FB18B0
:103C90001B78222B04D01723FB181B782A2B02D168
:103CA000FB6822221A63FB685A6CFB68110018003B
:103CB00000F0C8FB05E004E0FB681B681022DA6135
:103CC00013E0C04611E0BB68DB081A000123134073
:103CD0000BD07B68DB081A000123134005D0BA68BB
:103CE000FB681100180000F00BF8FB68402200216F
:103CF000995400231800BD4608B080BD0000FFFFA6
:103D000090B585B000AF786039607B6841229B5CDC
:103D1000DBB21A0028231340282B00D08DE07B68EB
:103D20001B689B691B0CDAB20F23FB1801210A40A8
:103D30001A707B681B689B691B0C9AB20C23FB18DA
:103D4000FE210A401A807B681B689B689AB20A238E
:103D5000FB189205920D1A807B681B68DB689AB28B
:103D60000823FB18FE210A401A807B68DB68022BBF
:103D70004DD10A23FB181B88DB099AB20C23FB18D0
:103D80001B8853409BB21A000623134024D10C23F6
:103D9000FB180A22BA1812881A807B689B6C5A1C7E
:103DA0007B689A647B689B6C022B4ED17B680022F7
:103DB0009A647B681B680822DA617B6840220021D4
:103DC00099540C23FB181A880F23FB1819787B6869
:103DD000180003F00FF938E00C243B190822BA1838
:103DE00012881A8080231A027B681100180000F0E4
:103DF00015FD7B684022002199543B191A880F2336
:103E0000FB1819787B68180003F0F4F81DE0802394
:103E10001A027B681100180000F000FD7B68402248
:103E2000002199540C23FB181A880F23FB181978CA
:103E30007B68180003F0DEF807E07B681B68082247
:103E4000DA617B68402200219954C046BD4605B026
:103E500090BD80B582B000AF78607B6842220021BF
:103E600099547B6841229B5CDBB2212B17D17B6884
:103E70004122202199547B6811221A637B68002219
:103E80005A637B680121180000F0C8FC7B6840225F
:103E9000002199547B681800FFF7FAFB16E07B6855
:103EA0004122202199547B6812221A637B680022E8
:103EB0005A637B680221180000F0B0FC7B68402246
:103EC000002199547B681800FFF7EAFBC046BD4605
:103ED00002B080BD80B584B000AF78607B681B689D
:103EE0001B68FB607B68422200219954FB689B0B96
:103EF0001A000123134008D07B681B681A687B688E
:103F00001B6825490A401A600DE0FB68DB0B1A00AC
:103F10000123134007D07B681B681A687B681B6805
:103F20001E490A401A607B6841229B5CDBB2292B48
:103F300014D17B684122282199547B6821221A637D
:103F40007B680121180000F069FC7B684022002199
:103F500099547B68180003F0B1F819E07B6841229E
:103F60009B5CDBB22A2B13D17B6841222821995418
:103F70007B6822221A637B680221180000F04EFC45
:103F80007B684022002199547B68180003F088F870
:103F9000C046BD4604B080BDFFBFFFFFFF7FFFFFEF
:103FA00080B586B000AF786039603B687B617B6824
:103FB0001B682022DA617B6841229B5CDBB2212BEB
:103FC00008D17B680121180000F028FC7B681122D1
:103FD0001A630DE07B6841229B5CDBB2222B07D188
:103FE0007B680221180000F019FC7B6812221A631A
:103FF0007B681B685A687B681B6850490A405A6096
:104000007B6800225A637B684D4ADA627B691B0930
:104010001A000123134009D07B681B681022DA6163
:104020007B685B6C04221A437B685A647B6841227C
:104030009B5CDBB2602B0BD17B699B081A000123D0
:10404000134005D07B681B685B6ADBB2FB60FB68D2
:104050007B68180000F003FB7B685B6C3B617B684E
:1040600041229B5CDBB2602B02D03B69002B07D066
:104070007B685A6C7B681100180000F0E3F958E087
:104080007B6841229B5CDBB2212B26D17B684122DD
:10409000202199547B6800221A637B6842229B5C32
:1040A000DBB2402B0CD17B684222002199547B6803
:1040B0004022002199547B681800FFF7F9FA38E094
:1040C0007B684222002199547B6840220021995448
:1040D0007B681800FFF7DCFA2BE07B6841229B5CD1
:1040E000DBB2222B25D17B684122202199547B68A9
:1040F00000221A637B6842229B5CDBB2402B0CD10E
:104100007B684222002199547B6840220021995407
:104110007B681800FFF7D4FA0BE07B68422200218D
:1041200099547B684022002199547B681800FFF75E
:10413000B7FAC046BD4606B080BDC04600E800FEE6
:104140000000FFFF80B586B000AF786039607B6803
:104150001B681B683B613B687B610F203B187A68DA
:104160004121525C1A707B681B682022DA613B187F
:104170001B78212B04D00F23FB181B78292B09D186
:104180007D4A7B681100180000F048FB7B68212203
:104190001A6312E00F23FB181B78222B04D00F2385
:1041A000FB181B782A2B08D1744A7B681100180071
:1041B00000F034FB7B6822221A637B681B685A6814
:1041C0007B681B68802109020A435A607B681B6870
:1041D0005A687B681B686A490A405A607B68180005
:1041E00000F03DFA3B699B0B1A000123134013D0EA
:1041F0007B681B681A687B681B6862490A401A6002
:104200007B689B6B002B20D07B689B6B1B685B687B
:104210009AB27B685A8518E03B69DB0B1A000123D0
:10422000134012D07B681B681A687B681B6856496C
:104230000A401A607B68DB6B002B06D07B68DB6B67
:104240001B685B689AB27B685A857B699B081A0079
:104250000123134020D07B69042293437B617B6858
:104260001B685A6A7B685B6AD2B21A707B685B6AA9
:104270005A1C7B685A627B681B8D002B0CD07B68B4
:104280001B8D013B9AB27B681A857B685B8D9BB264
:10429000013B9AB27B685A857B685B8D9BB2002B91
:1042A00005D07B685B6C04221A437B685A647B6888
:1042B0004222002199547B6800225A637B685B6C20
:1042C000002B13D07B685A6C7B681100180000F03B
:1042D000B9F87B6841229B5CDBB2282B47D17A6915
:1042E0007B681100180000F053F840E07B68DB6A3F
:1042F000264A934216D07B681800FFF7EBFD7B68D7
:10430000224ADA627B684122202199547B6800228C
:104310001A637B684022002199547B68180002F0E0
:104320009DFE24E07B6841229B5CDBB2222B0FD1F7
:104330007B684122202199547B6800221A637B68A4
:104340004022002199547B68180002F0A9FE0EE07B
:104350007B684122202199547B6800221A637B6884
:104360004022002199547B68180002F0A7FEC04645
:10437000BD4606B080BDC04601800000028000003E
:1043800000E800FEFFBFFFFFFF7FFFFF0000FFFF11
:1043900080B582B000AF786039607B68274ADA6206
:1043A0007B6800221A637B684122202199547B6834
:1043B0004222002199547B6800225A633B689B0883
:1043C0001A000123134022D07B681B685A6A7B685D
:1043D0005B6AD2B21A707B685B6A5A1C7B685A624D
:1043E0007B681B8D002B12D07B681B8D013B9AB222
:1043F0007B681A857B685B8D9BB2013B9AB27B68B8
:104400005A857B685B6C04221A437B685A640C4AA9
:104410007B681100180000F001FA7B681B6810220D
:10442000DA617B684022002199547B68180002F011
:1044300015FEC046BD4602B080BDC0460000FFFF6D
:104440000380000080B584B000AF786039600F2031
:104450003B187A684121525C1A707B684222002125
:1044600099547B68634ADA627B6800225A857B68CC
:104470005A6C3B681A437B685A643B181B78282B9C
:1044800009D00F23FB181B78292B04D00F23FB180E
:104490001B782A2B0CD17B680321180000F0BEF991
:1044A0007B684122282199547B68534A5A6312E061
:1044B000524A7B681100180000F0B0F97B68412275
:1044C0009B5CDBB2602B03D07B6841222021995496
:1044D0007B6800225A637B681B6BBB607B689B6BAD
:1044E000002B3BD0BB68112B02D0BB68212B35D1F0
:1044F0007B681B681A688023DB011A408023DB017C
:104500009A4207D17B681B681A687B681B683C4924
:104510000A401A607B689B6B1800FEF799FB03004A
:10452000012B16D07B689B6B364A5A637B6840220E
:10453000002199547B689B6B1800FEF7A1FA031EBB
:1045400051D07B689B6B5A6B7B689B6B18009047C4
:1045500049E07B68180000F059F844E07B68DB6BA9
:10456000002B3BD0BB68122B02D0BB68222B35D16D
:104570007B681B681A6880231B021A4080231B0279
:104580009A4207D17B681B681A687B681B681E49C2
:104590000A401A607B68DB6B1800FEF759FB0300CA
:1045A000012B16D07B68DB6B164A5A637B6840226E
:1045B000002199547B68DB6B1800FEF761FA031E3B
:1045C00013D07B68DB6B5A6B7B68DB6B1800904702
:1045D0000BE07B68180000F019F806E07B68180013
:1045E00000F014F802E0C04600E0C046C046BD46F8
:1045F00004B080BD0000FFFFD1360008038000003A
:10460000FFBFFFFFA3460008FF7FFFFF80B582B01A
:1046100000AF78607B6841229B5CDBB2602B0FD1DE
:104620007B684122202199547B6800221A637B68B1
:104630004022002199547B68180002F0D3FC0AE064
:104640007B6800221A637B684022002199547B68B2
:10465000180002F0F5FCC046BD4602B080BD80B532
:1046600082B000AF78607B681B689B6902221340B0
:10467000022B03D17B681B6800229A627B681B684F
:104680009B6901221340012B07D07B681B689A6944
:104690007B681B6801210A439A61C046BD4602B08F
:1046A00080BD80B584B000AF78607B685B6AFB60DA
:1046B000FB689B6B002B03D0FB689B6B00225A634B
:1046C000FB68DB6B002B03D0FB68DB6B00225A63BB
:1046D000FB681800FFF79AFFC046BD4604B080BDD6
:1046E00090B585B000AFF860080011007B600A2427
:1046F0003B19021C1A8009203B180A1C1A70FB681F
:104700001B685B683A6A510D8022D2000A400E494C
:104710000A43D2431A4011003B191B889B059A0D8E
:104720003B181B781804FF231B0403401A437B68C3
:104730001A433B6A1A43FB681B680A435A60C04627
:10474000BD4605B090BDC046FF63FF0380B584B091
:1047500000AF78600A00BB1C1A800023FB607B68F6
:104760005A6B2C4B9A4204D07B685A6B2A4B9A4264
:1047700021D1BB1C00229B5E002B03DAFB68B82210
:104780001343FB60BB1C1B88102B03D1FB689022DA
:104790001343FB60BB1C1B88202B03D1FB686022EA
:1047A0001343FB60BB1C1B88402B27D1FB684022B6
:1047B0001343FB6022E0BB1C00229B5E002B03DA4C
:1047C000FB68B8221343FB60BB1C1B88012213400B
:1047D00003D0FB68F2221343FB60BB1C1B88022240
:1047E000134003D0FB68F4221343FB60BB1C1B88FF
:1047F000202B03D1FB6820221343FB607B681B68DE
:1048000019687B681B68FA680A431A60C046BD468F
:1048100004B080BDF9380008113B000880B584B0B1
:1048200000AF78600A00BB1C1A800023FB60BB1C31
:104830001B880122134010D0FB6842221343FB6007
:104840007B6841229B5CDBB21A0028231340282B93
:1048500003D0FB68B0221343FB60BB1C1B88022201
:10486000134010D0FB6844221343FB607B68412255
:104870009B5CDBB21A0028231340282B03D0FB6873
:10488000B0221343FB60BB1C00229B5E002B03DAAB
:10489000FB68B8221343FB60BB1C1B88102B03D1A1
:1048A000FB6890221343FB60BB1C1B88202B03D1A9
:1048B000FB6820221343FB60BB1C1B88402B03D1E9
:1048C000FB6840221343FB607B681B681A68FB6827
:1048D000D9437B681B680A401A60C046BD4604B0D5
:1048E00080BD000080B582B000AF786039607B6821
:1048F00041229B5CDBB2202B38D17B6840229B5C41
:10490000012B01D1022332E07B684022012199541E
:104910007B684122242199547B681B681A687B6854
:104920001B6801218A431A607B681B681A687B68D0
:104930001B6811490A401A607B681B6819687B680C
:104940001B683A680A431A607B681B681A687B68B0
:104950001B6801210A431A607B6841222021995477
:104960007B68402200219954002300E002231800B4
:10497000BD4602B080BDC046FFEFFFFF80B584B0EA
:1049800000AF786039607B6841229B5CDBB2202BF2
:1049900039D17B6840229B5C012B01D1022333E09B
:1049A0007B684022012199547B684122242199543B
:1049B0007B681B681A687B681B6801218A431A6040
:1049C0007B681B681B68FB60FB68114A1340FB6037
:1049D0003B681B02FA681343FB607B681B68FA683C
:1049E0001A607B681B681A687B681B6801210A4390
:1049F0001A607B684122202199547B684022002163
:104A00009954002300E002231800BD4604B080BD85
:104A1000FFF0FFFF80B588B000AF78607B68002BA7
:104A200002D1012300F076FB7B681B680122134052
:104A300000D18EE0C54B5B680C221340042B0ED0D6
:104A4000C24B5B680C221340082B17D1BF4B5A682E
:104A5000C0235B021A4080235B029A420ED1BB4BFB
:104A60001A6880239B02134000D171E07B685B6869
:104A7000002B00D06CE0012300F04CFB7B685B68EE
:104A8000012B07D1B14B1A68B04B802149020A4370
:104A90001A602FE07B685B68002B0CD1AB4B1A6867
:104AA000AA4BAB490A401A60A84B1A68A74BA94900
:104AB0000A401A601EE07B685B68052B0ED1A34B91
:104AC0001A68A24B8021C9020A431A609F4B1A68D8
:104AD0009E4B802149020A431A600BE09B4B1A68E7
:104AE0009A4B9B490A401A60984B1A68974B994910
:104AF0000A401A607B685B68002B14D0FCF716FA3A
:104B00000300BB6108E0FCF711FA0200BB69D31A8D
:104B1000642B01D90323FDE28C4B1A6880239B028E
:104B20001340F0D015E0FCF701FA0300BB6108E088
:104B3000FCF7FCF90200BB69D31A642B01D90323EB
:104B4000E8E2824B1A6880239B021340F0D100E018
:104B5000C0467B681B680222134000D16CE07B4B8F
:104B60005B680C2213400ED0784B5B680C2213401C
:104B7000082B1FD1754B5A68C0235B021A40802353
:104B80001B029A4216D1714B1B680222134005D0BA
:104B90007B68DB68012B01D00123BBE26B4B1B68F8
:104BA000F822934319007B681B69DA00674B0A43BC
:104BB0001A6041E07B68DB68002B24D0634B1A68E5
:104BC000624B01210A431A60FCF7B0F90300BB6194
:104BD00008E0FCF7ABF90200BB69D31A022B01D93C
:104BE000032397E2594B1B6802221340F1D0574B25
:104BF0001B68F822934319007B681B69DA00534B4A
:104C00000A431A6018E0514B1A68504B01218A433D
:104C10001A60FCF78BF90300BB6108E0FCF786F92A
:104C20000200BB69D31A022B01D9032372E2474B5E
:104C30001B6802221340F1D17B681B6808221340D5
:104C400036D07B68DB69002B19D0404B5A6A3F4B4A
:104C500001210A435A62FCF769F90300BB6108E0CD
:104C6000FCF764F90200BB69D31A022B01D90323B4
:104C700050E2364B5B6A02221340F1D018E0334B0E
:104C80005A6A324B01218A435A62FCF74FF90300FA
:104C9000BB6108E0FCF74AF90200BB69D31A022B9A
:104CA00001D9032336E2294B5B6A02221340F1D17A
:104CB0007B681B680422134000D1B5E01F23FB185A
:104CC00000221A70214BDA6980235B05134011D151
:104CD0001E4BDA691D4B802149050A43DA611B4BE3
:104CE000DA6980235B051340FB60FB681F23FB1818
:104CF00001221A70184B1A6880235B0013401AD1E6
:104D0000154B1A68144B802149000A431A60FCF7BE
:104D10000DF90300BB6108E0FCF708F90200BB696C
:104D2000D31A642B01D90323F4E10B4B1A688023B7
:104D30005B001340F0D07B689B68012B0ED1034BC6
:104D40001A6A024B01210A431A6235E00010024040
:104D5000FFFFFEFFFFFFFBFF007000407B689B68CA
:104D6000002B0CD1CA4B1A6AC94B01218A431A6223
:104D7000C74B1A6AC64B04218A431A621CE07B683F
:104D80009B68052B0CD1C24B1A6AC14B04210A4304
:104D90001A62BF4B1A6ABE4B01210A431A620BE02A
:104DA000BB4B1A6ABA4B01218A431A62B84B1A6A82
:104DB000B74B04218A431A627B689B68002B14D08E
:104DC000FCF7B4F80300BB6109E0FCF7AFF80200A0
:104DD000BB69D31AAF4A934201D903239AE1AC4B82
:104DE0001B6A02221340F0D013E0FCF79FF8030087
:104DF000BB6109E0FCF79AF80200BB69D31AA54A27
:104E0000934201D9032385E1A14B1B6A022213407F
:104E1000F0D11F23FB181B78012B05D19C4BDA69BD
:104E20009B4B9D490A40DA617B681B681022134046
:104E300063D07B685B69012B2AD1954B5A6B944BED
:104E400004210A435A63924B5A6B914B01210A4346
:104E50005A63FCF76BF80300BB6108E0FCF766F8E7
:104E60000200BB69D31A022B01D9032352E1884BFC
:104E70005B6B02221340F1D0854B5B6BF8229343AE
:104E800019007B689B69DA00814B0A435A6334E05E
:104E90007B685B69053311D17D4B5A6B7C4B0421D8
:104EA0008A435A637A4B5B6BF822934319007B6801
:104EB0009B69DA00764B0A435A631EE0744B5A6BC7
:104EC000734B04210A435A63714B5A6B704B012197
:104ED0008A435A63FCF72AF80300BB6108E0FCF739
:104EE00025F80200BB69D31A022B01D9032311E173
:104EF000674B5B6B02221340F1D17B681B68202259
:104F000013405CD0624B5B680C2213400C2B0ED01C
:104F10005F4B5B680C221340082B14D15C4B5A6822
:104F2000C0235B021A40C0235B029A420BD1584B4C
:104F30005A6B80235B02134040D07B681B6A012BB5
:104F40003CD00123E6E07B681B6A002B1BD0504B52
:104F50005A6B4F4B802149020A435A63FBF7E6FF25
:104F60000300BB6108E0FBF7E1FF0200BB69D31A55
:104F7000022B01D90323CDE0454B5A6B80235B0202
:104F80001340F0D01BE0424B5A6B414B43490A405F
:104F90005A63FBF7CBFF0300BB6108E0FBF7C6FFDA
:104FA0000200BB69D31A022B01D90323B2E0384BAC
:104FB0005A6B80235B021340F0D100E0C0467B684F
:104FC0005B6A002B00D1A4E0314B5B680C221340DC
:104FD000082B00D178E07B685B6A022B4CD12C4B0C
:104FE0001A682B4B2E490A401A60FBF79FFF0300FB
:104FF000BB6108E0FBF79AFF0200BB69D31A022BE2
:1050000001D9032386E0224B1A6880239B041340B6
:10501000F0D11F4BDB6A0F22934319007B681A6B98
:105020001B4B0A43DA621A4B5B681E4A1340190095
:105030007B68DA6A7B689B6A1A43154B0A435A609D
:10504000134B1A68124B802149040A431A60FBF77C
:105050006DFF0300BB6108E0FBF768FF0200BB695E
:10506000D31A022B01D9032354E0094B1A68802379
:105070009B041340F0D04CE0054B1A68044B0849E0
:105080000A401A60FBF752FF0300BB6115E0C046FF
:105090000010024088130000FFFFFFEFFFFFFEFF3C
:1050A000FFFFFFFEFF7FC2FFFBF740FF0200BB696F
:1050B000D31A022B01D903232CE0184B1A68802342
:1050C0009B041340F0D124E07B685B6A012B01D183
:1050D00001231FE0114B5B687B61104BDB6A3B6176
:1050E0007A69C0235B021A407B689B6A9A420ED1A0
:1050F0003B690F221A407B681B6B9A4207D17A6981
:10510000F0239B031A407B68DB6A9A4201D001239B
:1051100000E000231800BD4608B080BD001002402A
:1051200080B584B000AF786039607B68002B01D116
:105130000123BFE0614B1B68012213403A689A4289
:1051400011D95E4B1B680122934319005B4B3A68EF
:105150000A431A60594B1B68012213403A689A426D
:1051600001D00123A6E07B681B680222134015D002
:105170007B681B680422134006D0514B5A68504B81
:10518000E021C9000A435A604D4B5B68F02293430B
:1051900019007B689A684A4B0A435A607B681B680F
:1051A000012213404CD07B685B68012B07D1444B34
:1051B0001A6880239B02134020D101237AE07B6888
:1051C0005B68022B07D13E4B1A6880239B04134077
:1051D00014D101236EE07B685B68032B07D1384B49
:1051E0005A6B80235B02134008D1012362E0344BE9
:1051F0001B680222134001D101235BE0304B5B6846
:105200000322934319007B685A682D4B0A435A6066
:10521000FBF78CFE0300FB6009E0FBF787FE020052
:10522000FB68D31A274A934201D9032342E0244B57
:105230005B680C221A407B685B689B009A42ECD149
:105240001E4B1B68012213403A689A4211D21B4B35
:105250001B68012293431900184B3A680A431A60ED
:10526000164B1B68012213403A689A4201D0012371
:1052700020E07B681B680422134009D0104B5B6858
:10528000114A134019007B68DA680D4B0A435A60D3
:1052900000F020F801000A4B5B681B090F22134045
:1052A0000A4AD35C0A00DA40094B1A600020FBF777
:1052B000F7FD00231800BD4604B080BD0020024069
:1052C0000010024088130000FFF8FFFF7C7C0008FC
:1052D0002800002090B58FB000AF1423FB18374A88
:1052E00013CA13C312681A603B1D354A13CA13C38D
:1052F00012681A600023FB620023BB6200237B63F9
:1053000000237B6200233B632E4B5B68FB62FB6ADE
:105310000C221340082B06D00C2B43D0042B44D175
:10532000294B3B6344E0FB6A9B0C0F221340142281
:10533000BA18D35C7B62234BDB6A0F2213403A1D01
:10534000D35CBB62FA6AC0235B021A4080235B0213
:105350009A4209D1B96A1C48FAF7D6FE03001A002E
:105360007B6A53437B631AE0FA6AC0235B021A40EC
:10537000C0235B029A4209D1B96A1448FAF7C4FE05
:1053800003001A007B6A53437B6308E0B96A0E4846
:10539000FAF7BAFE03001A007B6A53437B637B6B08
:1053A0003B6305E0094B3B6302E0074B3B63C046B0
:1053B0003B6B1800BD460FB090BDC0468C7B00080B
:1053C0009C7B00080010024000127A00006CDC0296
:1053D00080B586B000AF786000233B610023FB609E
:1053E0007B681A6880235B02134000D18FE017238B
:1053F000FB1800221A706F4BDA6980235B0513409B
:1054000011D16C4BDA696B4B802149050A43DA6193
:10541000684BDA6980235B051340BB60BB681723C8
:10542000FB1801221A70644B1A6880235B0013403A
:105430001AD1614B1A68604B802149000A431A60F7
:10544000FBF774FD03003B6108E0FBF76FFD020012
:105450003B69D31A642B01D90323A6E0564B1A6883
:1054600080235B001340F0D0524B1A6AC0239B008C
:105470001340FB60FB68002B34D07B685A68C02364
:105480009B001340FA689A422CD04A4B1B6A4B4A45
:105490001340FB60474B1A6A464B802149020A437E
:1054A0001A62444B1A6A434B45490A401A62414BFF
:1054B000FA681A62FB680122134013D0FBF736FD2D
:1054C00003003B6109E0FBF731FD02003B69D31AA1
:1054D0003C4A934201D9032367E0364B1B6A022200
:1054E0001340F0D0334B1B6A344A134019007B68D9
:1054F0005A68304B0A431A621723FB181B78012B9A
:1055000005D12C4BDA692B4B2F490A40DA617B68B5
:105510001B680122134009D0264B1B6B03229343C7
:1055200019007B689A68234B0A431A637B681B68DF
:105530000222134009D01F4B1B6B244A1340190051
:105540007B68DA681B4B0A431A637B681B6820225E
:10555000134009D0174B1B6B1022934319007B6833
:105560001A69144B0A431A637B681A6880239B02EA
:10557000134009D00F4B1B6B8022934319007B68AB
:105580009A690C4B0A431A637B681A688023DB0014
:10559000134009D0074B1B6B4022934319007B68D3
:1055A0005A69044B0A431A6300231800BD4606B02B
:1055B00080BDC0460010024000700040FFFCFFFFAD
:1055C000FFFFFEFF88130000FFFFFFEFFFFFFCFF60
:1055D00080B586B000AFF8607A600B203B180A1CDB
:1055E0001A70194BFA681A603B181A78164B1A6130
:1055F0001723FB1800221A700EE017203B181B78A7
:105600007A68D2183B181B781178104AD1543B188D
:105610001A783B1801321A701723FA180B23FB185B
:1056200012781B789A42E8D3094B084A0649094880
:10563000FCF77EFB031E02D0074B0B221A700123DE
:105640001800BD4606B080BDD0000020C800002074
:1056500020020020640100207400002080B500AF0B
:10566000C046BD4680BDB0B588B000AF786010219F
:105670007B1801229A607B187A685A607B18002296
:105680001A601F257C190C23FA187B1811001800CA
:10569000FDF788FC030023707B191B78002B01D0D9
:1056A00001F08AFFC046BD4608B0B0BD90B583B0DA
:1056B00000AFFC1DFDF7DCFB03002370FB1D1B7816
:1056C000002B01D001F078FFC046BD4603B090BD6D
:1056D00080B584B000AF78607B681B681B68FB6096
:1056E0007B681B681A1D7B681A60FB681800BD4642
:1056F00004B080BDF0B585B000AF786039607B68DC
:1057000019683B681D0000231E000F23FC182A00A7
:1057100033000220FDF7F0FA030023700F23FB187B
:105720001B78002B01D001F047FF7B681B681A1D16
:105730007B681A60C046BD4605B0F0BD90B583B029
:1057400000AFFC1DFDF76EFB03002370FB1D1B78F3
:10575000002B01D001F030FFC046BD4603B090BD24
:1057600080B582B000AF7860144B1B687A68D21A9B
:10577000FA239B009A4217D9114B1A6813005B0158
:105780009B1A9B009B18DB0018000C4B1B687A6867
:10579000D31A1900FAF7B8FC03009AB2094B1A8021
:1057A000064B7A681A6004E0054B1B685A1C044BD0
:1057B0001A60C046BD4602B080BDC04654000020FD
:1057C0004C0000205000002080B500AF024B1B8829
:1057D0001800BD4680BDC04650000020B0B58EB058
:1057E00000AFFBF749FB00F093FD00F053FF00F022
:1057F00033FF00F0EFFD00F089FE00F0EDFE00F059
:10580000BDFE80235B01C04801221900FDF7EEFDBB
:10581000FA239B001800FBF793FB80235B01BA4837
:1058200000221900FDF7E2FDC820FBF789FB01F01B
:105830008FFB01F087F901F041FB031E01D001F05D
:1058400011F9B24B1B78632B09D8B14B002118001A
:10585000FDF71CF8031E02D0AC4B8E221A70AB4B26
:105860001B78632B08D8AB4B1800FDF773FE031EA3
:1058700002D0A64B91221A70A44B1B78632B20D820
:1058800025257C19A449A54B06221800FBF7BAFC74
:10589000030023707B191B78012B05D010DD022B30
:1058A00006D0032B08D00CE0984B69221A7008E050
:1058B000964B03221A7004E0944B04221A7000E005
:1058C000C04601F00DFB964B1B78002B00D1F6E192
:1058D000944B1B789AB2944B1A80934B1B88172BCE
:1058E00000D164E117DC0F2B00D1DBE007DC092BD2
:1058F0002CD00D2B2DD0042B00D1F0E075E1112B15
:1059000000D1E2E000DAF4E0122B00D169E1142BBF
:1059100000D129E169E1232B1FD009DC192B44D0E8
:1059200000DA51E11B2B00D1CCE0222B19D05CE135
:10593000302B5BD003DC242B00D190E155E1402BD0
:1059400000D17CE0FF2B00D191E04EE100F0B6FFEA
:1059500092E1764B01221A708EE1754B01221A708A
:105960008AE1744B1B68002B04D0724B1B68013317
:1059700000D076E1704B23221A70704B1B781A000E
:105980006F4B5200D35A18006B4B1A000121FFF7DE
:105990001FFE03001A0001235340DBB2002B00D18D
:1059A0005FE15A4B07221A705BE1634B1A221A70AF
:1059B000614B07225A70604B00229A705F4B1B7834
:1059C0001A00604B5200D35A18005B4B1A00032197
:1059D000FFF7FEFD03001A0001235340DBB2002B4A
:1059E00000D140E1494B25221A703CE1524B312253
:1059F0001A70FFF7E9FE0300DAB24F4B5A70FFF757
:105A0000E3FE03001B0A9BB2DAB24B4B9A704B4B7E
:105A10001B781A004B4B5200D35A1800464B1A0001
:105A20000321FFF7D5FD03001A0001235340DBB229
:105A3000002B00D119E1354B25221A7015E1394BA5
:105A40005B78082B03D9314B32221A7014E1354BA5
:105A50005A783A4B1A7001F0E7F9384B1B781A0064
:105A6000374B5200D35A180001F098F904E1324B39
:105A7000FF221A70314B1B781A00324B5200D35A56
:105A800018002D4B1A000121FFF7A2FD03001A0098
:105A900001235340DBB2002B00D1E8E01B4B07226F
:105AA0001A70E4E0244BFF221A70274B224A274940
:105AB0002748FCF73DF9031E00D1DAE0134B5C22C6
:105AC0001A70D6E0FCF74BFED6E0224B01221A708A
:105AD000214B00221A70214B06221A70CCE01D4B7C
